{
	"Treasury.sol": {
		"Treasury": {
			"abi": [
				{
					"anonymous": false,
					"inputs": [
						{
							"indexed": true,
							"internalType": "address",
							"name": "previousOwner",
							"type": "address"
						},
						{
							"indexed": true,
							"internalType": "address",
							"name": "newOwner",
							"type": "address"
						}
					],
					"name": "OwnershipTransferred",
					"type": "event"
				},
				{
					"inputs": [],
					"name": "owner",
					"outputs": [
						{
							"internalType": "address",
							"name": "",
							"type": "address"
						}
					],
					"stateMutability": "view",
					"type": "function"
				},
				{
					"inputs": [],
					"name": "renounceOwnership",
					"outputs": [],
					"stateMutability": "nonpayable",
					"type": "function"
				},
				{
					"inputs": [
						{
							"internalType": "address",
							"name": "newOwner",
							"type": "address"
						}
					],
					"name": "transferOwnership",
					"outputs": [],
					"stateMutability": "nonpayable",
					"type": "function"
				},
				{
					"inputs": [
						{
							"internalType": "address payable",
							"name": "_to",
							"type": "address"
						},
						{
							"internalType": "uint256",
							"name": "_amount",
							"type": "uint256"
						}
					],
					"name": "withdrawNative",
					"outputs": [],
					"stateMutability": "nonpayable",
					"type": "function"
				},
				{
					"inputs": [
						{
							"internalType": "address",
							"name": "_token",
							"type": "address"
						},
						{
							"internalType": "address",
							"name": "_to",
							"type": "address"
						},
						{
							"internalType": "uint256",
							"name": "_amount",
							"type": "uint256"
						}
					],
					"name": "withdrawTokens",
					"outputs": [],
					"stateMutability": "nonpayable",
					"type": "function"
				},
				{
					"stateMutability": "payable",
					"type": "receive"
				}
			],
			"devdoc": {
				"kind": "dev",
				"methods": {
					"owner()": {
						"details": "Returns the address of the current owner."
					},
					"renounceOwnership()": {
						"details": "Leaves the contract without owner. It will not be possible to call `onlyOwner` functions anymore. Can only be called by the current owner. NOTE: Renouncing ownership will leave the contract without an owner, thereby removing any functionality that is only available to the owner."
					},
					"transferOwnership(address)": {
						"details": "Transfers ownership of the contract to a new account (`newOwner`). Can only be called by the current owner."
					}
				},
				"version": 1
			},
			"evm": {
				"assembly": "    /* \"Treasury.sol\":263:675  contract Treasury is Ownable {... */\n  mstore(0x40, 0x80)\n  callvalue\n  dup1\n  iszero\n  tag_1\n  jumpi\n  0x00\n  dup1\n  revert\ntag_1:\n  pop\n    /* \"@openzeppelin/contracts/access/Ownable.sol\":936:968  _transferOwnership(_msgSender()) */\n  tag_4\n    /* \"@openzeppelin/contracts/access/Ownable.sol\":955:967  _msgSender() */\n  tag_5\n    /* \"@openzeppelin/contracts/access/Ownable.sol\":955:965  _msgSender */\n  shl(0x20, tag_6)\n    /* \"@openzeppelin/contracts/access/Ownable.sol\":955:967  _msgSender() */\n  0x20\n  shr\n  jump\t// in\ntag_5:\n    /* \"@openzeppelin/contracts/access/Ownable.sol\":936:954  _transferOwnership */\n  shl(0x20, tag_7)\n    /* \"@openzeppelin/contracts/access/Ownable.sol\":936:968  _transferOwnership(_msgSender()) */\n  0x20\n  shr\n  jump\t// in\ntag_4:\n    /* \"Treasury.sol\":263:675  contract Treasury is Ownable {... */\n  jump(tag_8)\n    /* \"@openzeppelin/contracts/utils/Context.sol\":640:736  function _msgSender() internal view virtual returns (address) {... */\ntag_6:\n    /* \"@openzeppelin/contracts/utils/Context.sol\":693:700  address */\n  0x00\n    /* \"@openzeppelin/contracts/utils/Context.sol\":719:729  msg.sender */\n  caller\n    /* \"@openzeppelin/contracts/utils/Context.sol\":712:729  return msg.sender */\n  swap1\n  pop\n    /* \"@openzeppelin/contracts/utils/Context.sol\":640:736  function _msgSender() internal view virtual returns (address) {... */\n  swap1\n  jump\t// out\n    /* \"@openzeppelin/contracts/access/Ownable.sol\":2433:2620  function _transferOwnership(address newOwner) internal virtual {... */\ntag_7:\n    /* \"@openzeppelin/contracts/access/Ownable.sol\":2506:2522  address oldOwner */\n  0x00\n    /* \"@openzeppelin/contracts/access/Ownable.sol\":2525:2531  _owner */\n  dup1\n  0x00\n  swap1\n  sload\n  swap1\n  0x0100\n  exp\n  swap1\n  div\n  0xffffffffffffffffffffffffffffffffffffffff\n  and\n    /* \"@openzeppelin/contracts/access/Ownable.sol\":2506:2531  address oldOwner = _owner */\n  swap1\n  pop\n    /* \"@openzeppelin/contracts/access/Ownable.sol\":2550:2558  newOwner */\n  dup2\n    /* \"@openzeppelin/contracts/access/Ownable.sol\":2541:2547  _owner */\n  0x00\n  dup1\n    /* \"@openzeppelin/contracts/access/Ownable.sol\":2541:2558  _owner = newOwner */\n  0x0100\n  exp\n  dup2\n  sload\n  dup2\n  0xffffffffffffffffffffffffffffffffffffffff\n  mul\n  not\n  and\n  swap1\n  dup4\n  0xffffffffffffffffffffffffffffffffffffffff\n  and\n  mul\n  or\n  swap1\n  sstore\n  pop\n    /* \"@openzeppelin/contracts/access/Ownable.sol\":2604:2612  newOwner */\n  dup2\n    /* \"@openzeppelin/contracts/access/Ownable.sol\":2573:2613  OwnershipTransferred(oldOwner, newOwner) */\n  0xffffffffffffffffffffffffffffffffffffffff\n  and\n    /* \"@openzeppelin/contracts/access/Ownable.sol\":2594:2602  oldOwner */\n  dup2\n    /* \"@openzeppelin/contracts/access/Ownable.sol\":2573:2613  OwnershipTransferred(oldOwner, newOwner) */\n  0xffffffffffffffffffffffffffffffffffffffff\n  and\n  0x8be0079c531659141344cd1fd0a4f28419497f9722a3daafe3b4186f6b6457e0\n  mload(0x40)\n  mload(0x40)\n  dup1\n  swap2\n  sub\n  swap1\n  log3\n    /* \"@openzeppelin/contracts/access/Ownable.sol\":2496:2620  {... */\n  pop\n    /* \"@openzeppelin/contracts/access/Ownable.sol\":2433:2620  function _transferOwnership(address newOwner) internal virtual {... */\n  pop\n  jump\t// out\n    /* \"Treasury.sol\":263:675  contract Treasury is Ownable {... */\ntag_8:\n  dataSize(sub_0)\n  dup1\n  dataOffset(sub_0)\n  0x00\n  codecopy\n  0x00\n  return\nstop\n\nsub_0: assembly {\n        /* \"Treasury.sol\":263:675  contract Treasury is Ownable {... */\n      mstore(0x40, 0x80)\n      jumpi(tag_1, lt(calldatasize, 0x04))\n      shr(0xe0, calldataload(0x00))\n      dup1\n      0x07b18bde\n      eq\n      tag_3\n      jumpi\n      dup1\n      0x5e35359e\n      eq\n      tag_4\n      jumpi\n      dup1\n      0x715018a6\n      eq\n      tag_5\n      jumpi\n      dup1\n      0x8da5cb5b\n      eq\n      tag_6\n      jumpi\n      dup1\n      0xf2fde38b\n      eq\n      tag_7\n      jumpi\n      jump(tag_2)\n    tag_1:\n      jumpi(tag_2, calldatasize)\n      stop\n    tag_2:\n      0x00\n      dup1\n      revert\n        /* \"Treasury.sol\":518:637  function withdrawNative(address payable _to, uint256 _amount) external onlyOwner {... */\n    tag_3:\n      callvalue\n      dup1\n      iszero\n      tag_10\n      jumpi\n      0x00\n      dup1\n      revert\n    tag_10:\n      pop\n      tag_11\n      0x04\n      dup1\n      calldatasize\n      sub\n      dup2\n      add\n      swap1\n      tag_12\n      swap2\n      swap1\n      tag_13\n      jump\t// in\n    tag_12:\n      tag_14\n      jump\t// in\n    tag_11:\n      stop\n        /* \"Treasury.sol\":354:512  function withdrawTokens(address _token, address _to, uint256 _amount) external onlyOwner {... */\n    tag_4:\n      callvalue\n      dup1\n      iszero\n      tag_15\n      jumpi\n      0x00\n      dup1\n      revert\n    tag_15:\n      pop\n      tag_16\n      0x04\n      dup1\n      calldatasize\n      sub\n      dup2\n      add\n      swap1\n      tag_17\n      swap2\n      swap1\n      tag_18\n      jump\t// in\n    tag_17:\n      tag_19\n      jump\t// in\n    tag_16:\n      stop\n        /* \"@openzeppelin/contracts/access/Ownable.sol\":1831:1932  function renounceOwnership() public virtual onlyOwner {... */\n    tag_5:\n      callvalue\n      dup1\n      iszero\n      tag_20\n      jumpi\n      0x00\n      dup1\n      revert\n    tag_20:\n      pop\n      tag_21\n      tag_22\n      jump\t// in\n    tag_21:\n      stop\n        /* \"@openzeppelin/contracts/access/Ownable.sol\":1201:1286  function owner() public view virtual returns (address) {... */\n    tag_6:\n      callvalue\n      dup1\n      iszero\n      tag_23\n      jumpi\n      0x00\n      dup1\n      revert\n    tag_23:\n      pop\n      tag_24\n      tag_25\n      jump\t// in\n    tag_24:\n      mload(0x40)\n      tag_26\n      swap2\n      swap1\n      tag_27\n      jump\t// in\n    tag_26:\n      mload(0x40)\n      dup1\n      swap2\n      sub\n      swap1\n      return\n        /* \"@openzeppelin/contracts/access/Ownable.sol\":2081:2279  function transferOwnership(address newOwner) public virtual onlyOwner {... */\n    tag_7:\n      callvalue\n      dup1\n      iszero\n      tag_28\n      jumpi\n      0x00\n      dup1\n      revert\n    tag_28:\n      pop\n      tag_29\n      0x04\n      dup1\n      calldatasize\n      sub\n      dup2\n      add\n      swap1\n      tag_30\n      swap2\n      swap1\n      tag_31\n      jump\t// in\n    tag_30:\n      tag_32\n      jump\t// in\n    tag_29:\n      stop\n        /* \"Treasury.sol\":518:637  function withdrawNative(address payable _to, uint256 _amount) external onlyOwner {... */\n    tag_14:\n        /* \"@openzeppelin/contracts/access/Ownable.sol\":1094:1107  _checkOwner() */\n      tag_34\n        /* \"@openzeppelin/contracts/access/Ownable.sol\":1094:1105  _checkOwner */\n      tag_35\n        /* \"@openzeppelin/contracts/access/Ownable.sol\":1094:1107  _checkOwner() */\n      jump\t// in\n    tag_34:\n        /* \"Treasury.sol\":609:612  _to */\n      dup2\n        /* \"Treasury.sol\":609:621  _to.transfer */\n      0xffffffffffffffffffffffffffffffffffffffff\n      and\n        /* \"Treasury.sol\":609:630  _to.transfer(_amount) */\n      0x08fc\n        /* \"Treasury.sol\":622:629  _amount */\n      dup3\n        /* \"Treasury.sol\":609:630  _to.transfer(_amount) */\n      swap1\n      dup2\n      iszero\n      mul\n      swap1\n      mload(0x40)\n      0x00\n      mload(0x40)\n      dup1\n      dup4\n      sub\n      dup2\n      dup6\n      dup9\n      dup9\n      call\n      swap4\n      pop\n      pop\n      pop\n      pop\n      iszero\n      dup1\n      iszero\n      tag_38\n      jumpi\n      returndatasize\n      0x00\n      dup1\n      returndatacopy\n      revert(0x00, returndatasize)\n    tag_38:\n      pop\n        /* \"Treasury.sol\":518:637  function withdrawNative(address payable _to, uint256 _amount) external onlyOwner {... */\n      pop\n      pop\n      jump\t// out\n        /* \"Treasury.sol\":354:512  function withdrawTokens(address _token, address _to, uint256 _amount) external onlyOwner {... */\n    tag_19:\n        /* \"@openzeppelin/contracts/access/Ownable.sol\":1094:1107  _checkOwner() */\n      tag_40\n        /* \"@openzeppelin/contracts/access/Ownable.sol\":1094:1105  _checkOwner */\n      tag_35\n        /* \"@openzeppelin/contracts/access/Ownable.sol\":1094:1107  _checkOwner() */\n      jump\t// in\n    tag_40:\n        /* \"Treasury.sol\":453:505  IERC20Upgradeable(_token).safeTransfer(_to, _amount) */\n      tag_42\n        /* \"Treasury.sol\":492:495  _to */\n      dup3\n        /* \"Treasury.sol\":497:504  _amount */\n      dup3\n        /* \"Treasury.sol\":471:477  _token */\n      dup6\n        /* \"Treasury.sol\":453:491  IERC20Upgradeable(_token).safeTransfer */\n      0xffffffffffffffffffffffffffffffffffffffff\n      and\n      tag_43\n      swap1\n        /* \"Treasury.sol\":453:505  IERC20Upgradeable(_token).safeTransfer(_to, _amount) */\n      swap3\n      swap2\n      swap1\n      0xffffffff\n      and\n      jump\t// in\n    tag_42:\n        /* \"Treasury.sol\":354:512  function withdrawTokens(address _token, address _to, uint256 _amount) external onlyOwner {... */\n      pop\n      pop\n      pop\n      jump\t// out\n        /* \"@openzeppelin/contracts/access/Ownable.sol\":1831:1932  function renounceOwnership() public virtual onlyOwner {... */\n    tag_22:\n        /* \"@openzeppelin/contracts/access/Ownable.sol\":1094:1107  _checkOwner() */\n      tag_45\n        /* \"@openzeppelin/contracts/access/Ownable.sol\":1094:1105  _checkOwner */\n      tag_35\n        /* \"@openzeppelin/contracts/access/Ownable.sol\":1094:1107  _checkOwner() */\n      jump\t// in\n    tag_45:\n        /* \"@openzeppelin/contracts/access/Ownable.sol\":1895:1925  _transferOwnership(address(0)) */\n      tag_47\n        /* \"@openzeppelin/contracts/access/Ownable.sol\":1922:1923  0 */\n      0x00\n        /* \"@openzeppelin/contracts/access/Ownable.sol\":1895:1913  _transferOwnership */\n      tag_48\n        /* \"@openzeppelin/contracts/access/Ownable.sol\":1895:1925  _transferOwnership(address(0)) */\n      jump\t// in\n    tag_47:\n        /* \"@openzeppelin/contracts/access/Ownable.sol\":1831:1932  function renounceOwnership() public virtual onlyOwner {... */\n      jump\t// out\n        /* \"@openzeppelin/contracts/access/Ownable.sol\":1201:1286  function owner() public view virtual returns (address) {... */\n    tag_25:\n        /* \"@openzeppelin/contracts/access/Ownable.sol\":1247:1254  address */\n      0x00\n        /* \"@openzeppelin/contracts/access/Ownable.sol\":1273:1279  _owner */\n      dup1\n      0x00\n      swap1\n      sload\n      swap1\n      0x0100\n      exp\n      swap1\n      div\n      0xffffffffffffffffffffffffffffffffffffffff\n      and\n        /* \"@openzeppelin/contracts/access/Ownable.sol\":1266:1279  return _owner */\n      swap1\n      pop\n        /* \"@openzeppelin/contracts/access/Ownable.sol\":1201:1286  function owner() public view virtual returns (address) {... */\n      swap1\n      jump\t// out\n        /* \"@openzeppelin/contracts/access/Ownable.sol\":2081:2279  function transferOwnership(address newOwner) public virtual onlyOwner {... */\n    tag_32:\n        /* \"@openzeppelin/contracts/access/Ownable.sol\":1094:1107  _checkOwner() */\n      tag_51\n        /* \"@openzeppelin/contracts/access/Ownable.sol\":1094:1105  _checkOwner */\n      tag_35\n        /* \"@openzeppelin/contracts/access/Ownable.sol\":1094:1107  _checkOwner() */\n      jump\t// in\n    tag_51:\n        /* \"@openzeppelin/contracts/access/Ownable.sol\":2189:2190  0 */\n      0x00\n        /* \"@openzeppelin/contracts/access/Ownable.sol\":2169:2191  newOwner != address(0) */\n      0xffffffffffffffffffffffffffffffffffffffff\n      and\n        /* \"@openzeppelin/contracts/access/Ownable.sol\":2169:2177  newOwner */\n      dup2\n        /* \"@openzeppelin/contracts/access/Ownable.sol\":2169:2191  newOwner != address(0) */\n      0xffffffffffffffffffffffffffffffffffffffff\n      and\n      eq\n      iszero\n        /* \"@openzeppelin/contracts/access/Ownable.sol\":2161:2234  require(newOwner != address(0), \"Ownable: new owner is the zero address\") */\n      tag_53\n      jumpi\n      mload(0x40)\n      0x08c379a000000000000000000000000000000000000000000000000000000000\n      dup2\n      mstore\n      0x04\n      add\n      tag_54\n      swap1\n      tag_55\n      jump\t// in\n    tag_54:\n      mload(0x40)\n      dup1\n      swap2\n      sub\n      swap1\n      revert\n    tag_53:\n        /* \"@openzeppelin/contracts/access/Ownable.sol\":2244:2272  _transferOwnership(newOwner) */\n      tag_56\n        /* \"@openzeppelin/contracts/access/Ownable.sol\":2263:2271  newOwner */\n      dup2\n        /* \"@openzeppelin/contracts/access/Ownable.sol\":2244:2262  _transferOwnership */\n      tag_48\n        /* \"@openzeppelin/contracts/access/Ownable.sol\":2244:2272  _transferOwnership(newOwner) */\n      jump\t// in\n    tag_56:\n        /* \"@openzeppelin/contracts/access/Ownable.sol\":2081:2279  function transferOwnership(address newOwner) public virtual onlyOwner {... */\n      pop\n      jump\t// out\n        /* \"@openzeppelin/contracts/access/Ownable.sol\":1359:1489  function _checkOwner() internal view virtual {... */\n    tag_35:\n        /* \"@openzeppelin/contracts/access/Ownable.sol\":1433:1445  _msgSender() */\n      tag_58\n        /* \"@openzeppelin/contracts/access/Ownable.sol\":1433:1443  _msgSender */\n      tag_59\n        /* \"@openzeppelin/contracts/access/Ownable.sol\":1433:1445  _msgSender() */\n      jump\t// in\n    tag_58:\n        /* \"@openzeppelin/contracts/access/Ownable.sol\":1422:1445  owner() == _msgSender() */\n      0xffffffffffffffffffffffffffffffffffffffff\n      and\n        /* \"@openzeppelin/contracts/access/Ownable.sol\":1422:1429  owner() */\n      tag_60\n        /* \"@openzeppelin/contracts/access/Ownable.sol\":1422:1427  owner */\n      tag_25\n        /* \"@openzeppelin/contracts/access/Ownable.sol\":1422:1429  owner() */\n      jump\t// in\n    tag_60:\n        /* \"@openzeppelin/contracts/access/Ownable.sol\":1422:1445  owner() == _msgSender() */\n      0xffffffffffffffffffffffffffffffffffffffff\n      and\n      eq\n        /* \"@openzeppelin/contracts/access/Ownable.sol\":1414:1482  require(owner() == _msgSender(), \"Ownable: caller is not the owner\") */\n      tag_61\n      jumpi\n      mload(0x40)\n      0x08c379a000000000000000000000000000000000000000000000000000000000\n      dup2\n      mstore\n      0x04\n      add\n      tag_62\n      swap1\n      tag_63\n      jump\t// in\n    tag_62:\n      mload(0x40)\n      dup1\n      swap2\n      sub\n      swap1\n      revert\n    tag_61:\n        /* \"@openzeppelin/contracts/access/Ownable.sol\":1359:1489  function _checkOwner() internal view virtual {... */\n      jump\t// out\n        /* \"@openzeppelin/contracts-upgradeable/token/ERC20/utils/SafeERC20Upgradeable.sol\":818:1034  function safeTransfer(... */\n    tag_43:\n        /* \"@openzeppelin/contracts-upgradeable/token/ERC20/utils/SafeERC20Upgradeable.sol\":941:1027  _callOptionalReturn(token, abi.encodeWithSelector(token.transfer.selector, to, value)) */\n      tag_65\n        /* \"@openzeppelin/contracts-upgradeable/token/ERC20/utils/SafeERC20Upgradeable.sol\":961:966  token */\n      dup4\n        /* \"@openzeppelin/contracts-upgradeable/token/ERC20/utils/SafeERC20Upgradeable.sol\":991:1014  token.transfer.selector */\n      shl(0xe0, 0xa9059cbb)\n        /* \"@openzeppelin/contracts-upgradeable/token/ERC20/utils/SafeERC20Upgradeable.sol\":1016:1018  to */\n      dup5\n        /* \"@openzeppelin/contracts-upgradeable/token/ERC20/utils/SafeERC20Upgradeable.sol\":1020:1025  value */\n      dup5\n        /* \"@openzeppelin/contracts-upgradeable/token/ERC20/utils/SafeERC20Upgradeable.sol\":968:1026  abi.encodeWithSelector(token.transfer.selector, to, value) */\n      add(0x24, mload(0x40))\n      tag_66\n      swap3\n      swap2\n      swap1\n      tag_67\n      jump\t// in\n    tag_66:\n      mload(0x40)\n      0x20\n      dup2\n      dup4\n      sub\n      sub\n      dup2\n      mstore\n      swap1\n      0x40\n      mstore\n      swap1\n      not(0xffffffffffffffffffffffffffffffffffffffffffffffffffffffff)\n      and\n      0x20\n      dup3\n      add\n      dup1\n      mload\n      0xffffffffffffffffffffffffffffffffffffffffffffffffffffffff\n      dup4\n      dup2\n      dup4\n      and\n      or\n      dup4\n      mstore\n      pop\n      pop\n      pop\n      pop\n        /* \"@openzeppelin/contracts-upgradeable/token/ERC20/utils/SafeERC20Upgradeable.sol\":941:960  _callOptionalReturn */\n      tag_68\n        /* \"@openzeppelin/contracts-upgradeable/token/ERC20/utils/SafeERC20Upgradeable.sol\":941:1027  _callOptionalReturn(token, abi.encodeWithSelector(token.transfer.selector, to, value)) */\n      jump\t// in\n    tag_65:\n        /* \"@openzeppelin/contracts-upgradeable/token/ERC20/utils/SafeERC20Upgradeable.sol\":818:1034  function safeTransfer(... */\n      pop\n      pop\n      pop\n      jump\t// out\n        /* \"@openzeppelin/contracts/access/Ownable.sol\":2433:2620  function _transferOwnership(address newOwner) internal virtual {... */\n    tag_48:\n        /* \"@openzeppelin/contracts/access/Ownable.sol\":2506:2522  address oldOwner */\n      0x00\n        /* \"@openzeppelin/contracts/access/Ownable.sol\":2525:2531  _owner */\n      dup1\n      0x00\n      swap1\n      sload\n      swap1\n      0x0100\n      exp\n      swap1\n      div\n      0xffffffffffffffffffffffffffffffffffffffff\n      and\n        /* \"@openzeppelin/contracts/access/Ownable.sol\":2506:2531  address oldOwner = _owner */\n      swap1\n      pop\n        /* \"@openzeppelin/contracts/access/Ownable.sol\":2550:2558  newOwner */\n      dup2\n        /* \"@openzeppelin/contracts/access/Ownable.sol\":2541:2547  _owner */\n      0x00\n      dup1\n        /* \"@openzeppelin/contracts/access/Ownable.sol\":2541:2558  _owner = newOwner */\n      0x0100\n      exp\n      dup2\n      sload\n      dup2\n      0xffffffffffffffffffffffffffffffffffffffff\n      mul\n      not\n      and\n      swap1\n      dup4\n      0xffffffffffffffffffffffffffffffffffffffff\n      and\n      mul\n      or\n      swap1\n      sstore\n      pop\n        /* \"@openzeppelin/contracts/access/Ownable.sol\":2604:2612  newOwner */\n      dup2\n        /* \"@openzeppelin/contracts/access/Ownable.sol\":2573:2613  OwnershipTransferred(oldOwner, newOwner) */\n      0xffffffffffffffffffffffffffffffffffffffff\n      and\n        /* \"@openzeppelin/contracts/access/Ownable.sol\":2594:2602  oldOwner */\n      dup2\n        /* \"@openzeppelin/contracts/access/Ownable.sol\":2573:2613  OwnershipTransferred(oldOwner, newOwner) */\n      0xffffffffffffffffffffffffffffffffffffffff\n      and\n      0x8be0079c531659141344cd1fd0a4f28419497f9722a3daafe3b4186f6b6457e0\n      mload(0x40)\n      mload(0x40)\n      dup1\n      swap2\n      sub\n      swap1\n      log3\n        /* \"@openzeppelin/contracts/access/Ownable.sol\":2496:2620  {... */\n      pop\n        /* \"@openzeppelin/contracts/access/Ownable.sol\":2433:2620  function _transferOwnership(address newOwner) internal virtual {... */\n      pop\n      jump\t// out\n        /* \"@openzeppelin/contracts/utils/Context.sol\":640:736  function _msgSender() internal view virtual returns (address) {... */\n    tag_59:\n        /* \"@openzeppelin/contracts/utils/Context.sol\":693:700  address */\n      0x00\n        /* \"@openzeppelin/contracts/utils/Context.sol\":719:729  msg.sender */\n      caller\n        /* \"@openzeppelin/contracts/utils/Context.sol\":712:729  return msg.sender */\n      swap1\n      pop\n        /* \"@openzeppelin/contracts/utils/Context.sol\":640:736  function _msgSender() internal view virtual returns (address) {... */\n      swap1\n      jump\t// out\n        /* \"@openzeppelin/contracts-upgradeable/token/ERC20/utils/SafeERC20Upgradeable.sol\":3868:4585  function _callOptionalReturn(IERC20Upgradeable token, bytes memory data) private {... */\n    tag_68:\n        /* \"@openzeppelin/contracts-upgradeable/token/ERC20/utils/SafeERC20Upgradeable.sol\":4298:4321  bytes memory returndata */\n      0x00\n        /* \"@openzeppelin/contracts-upgradeable/token/ERC20/utils/SafeERC20Upgradeable.sol\":4324:4393  address(token).functionCall(data, \"SafeERC20: low-level call failed\") */\n      tag_72\n        /* \"@openzeppelin/contracts-upgradeable/token/ERC20/utils/SafeERC20Upgradeable.sol\":4352:4356  data */\n      dup3\n        /* \"@openzeppelin/contracts-upgradeable/token/ERC20/utils/SafeERC20Upgradeable.sol\":4324:4393  address(token).functionCall(data, \"SafeERC20: low-level call failed\") */\n      mload(0x40)\n      dup1\n      0x40\n      add\n      0x40\n      mstore\n      dup1\n      0x20\n      dup2\n      mstore\n      0x20\n      add\n      0x5361666545524332303a206c6f772d6c6576656c2063616c6c206661696c6564\n      dup2\n      mstore\n      pop\n        /* \"@openzeppelin/contracts-upgradeable/token/ERC20/utils/SafeERC20Upgradeable.sol\":4332:4337  token */\n      dup6\n        /* \"@openzeppelin/contracts-upgradeable/token/ERC20/utils/SafeERC20Upgradeable.sol\":4324:4351  address(token).functionCall */\n      0xffffffffffffffffffffffffffffffffffffffff\n      and\n      tag_73\n      swap1\n        /* \"@openzeppelin/contracts-upgradeable/token/ERC20/utils/SafeERC20Upgradeable.sol\":4324:4393  address(token).functionCall(data, \"SafeERC20: low-level call failed\") */\n      swap3\n      swap2\n      swap1\n      0xffffffff\n      and\n      jump\t// in\n    tag_72:\n        /* \"@openzeppelin/contracts-upgradeable/token/ERC20/utils/SafeERC20Upgradeable.sol\":4298:4393  bytes memory returndata = address(token).functionCall(data, \"SafeERC20: low-level call failed\") */\n      swap1\n      pop\n        /* \"@openzeppelin/contracts-upgradeable/token/ERC20/utils/SafeERC20Upgradeable.sol\":4427:4428  0 */\n      0x00\n        /* \"@openzeppelin/contracts-upgradeable/token/ERC20/utils/SafeERC20Upgradeable.sol\":4407:4417  returndata */\n      dup2\n        /* \"@openzeppelin/contracts-upgradeable/token/ERC20/utils/SafeERC20Upgradeable.sol\":4407:4424  returndata.length */\n      mload\n        /* \"@openzeppelin/contracts-upgradeable/token/ERC20/utils/SafeERC20Upgradeable.sol\":4407:4428  returndata.length > 0 */\n      gt\n        /* \"@openzeppelin/contracts-upgradeable/token/ERC20/utils/SafeERC20Upgradeable.sol\":4403:4579  if (returndata.length > 0) {... */\n      iszero\n      tag_74\n      jumpi\n        /* \"@openzeppelin/contracts-upgradeable/token/ERC20/utils/SafeERC20Upgradeable.sol\":4502:4512  returndata */\n      dup1\n        /* \"@openzeppelin/contracts-upgradeable/token/ERC20/utils/SafeERC20Upgradeable.sol\":4491:4521  abi.decode(returndata, (bool)) */\n      dup1\n      0x20\n      add\n      swap1\n      mload\n      dup2\n      add\n      swap1\n      tag_75\n      swap2\n      swap1\n      tag_76\n      jump\t// in\n    tag_75:\n        /* \"@openzeppelin/contracts-upgradeable/token/ERC20/utils/SafeERC20Upgradeable.sol\":4483:4568  require(abi.decode(returndata, (bool)), \"SafeERC20: ERC20 operation did not succeed\") */\n      tag_77\n      jumpi\n      mload(0x40)\n      0x08c379a000000000000000000000000000000000000000000000000000000000\n      dup2\n      mstore\n      0x04\n      add\n      tag_78\n      swap1\n      tag_79\n      jump\t// in\n    tag_78:\n      mload(0x40)\n      dup1\n      swap2\n      sub\n      swap1\n      revert\n    tag_77:\n        /* \"@openzeppelin/contracts-upgradeable/token/ERC20/utils/SafeERC20Upgradeable.sol\":4403:4579  if (returndata.length > 0) {... */\n    tag_74:\n        /* \"@openzeppelin/contracts-upgradeable/token/ERC20/utils/SafeERC20Upgradeable.sol\":3949:4585  {... */\n      pop\n        /* \"@openzeppelin/contracts-upgradeable/token/ERC20/utils/SafeERC20Upgradeable.sol\":3868:4585  function _callOptionalReturn(IERC20Upgradeable token, bytes memory data) private {... */\n      pop\n      pop\n      jump\t// out\n        /* \"@openzeppelin/contracts-upgradeable/utils/AddressUpgradeable.sol\":3872:4095  function functionCall(... */\n    tag_73:\n        /* \"@openzeppelin/contracts-upgradeable/utils/AddressUpgradeable.sol\":4005:4017  bytes memory */\n      0x60\n        /* \"@openzeppelin/contracts-upgradeable/utils/AddressUpgradeable.sol\":4036:4088  functionCallWithValue(target, data, 0, errorMessage) */\n      tag_81\n        /* \"@openzeppelin/contracts-upgradeable/utils/AddressUpgradeable.sol\":4058:4064  target */\n      dup5\n        /* \"@openzeppelin/contracts-upgradeable/utils/AddressUpgradeable.sol\":4066:4070  data */\n      dup5\n        /* \"@openzeppelin/contracts-upgradeable/utils/AddressUpgradeable.sol\":4072:4073  0 */\n      0x00\n        /* \"@openzeppelin/contracts-upgradeable/utils/AddressUpgradeable.sol\":4075:4087  errorMessage */\n      dup6\n        /* \"@openzeppelin/contracts-upgradeable/utils/AddressUpgradeable.sol\":4036:4057  functionCallWithValue */\n      tag_82\n        /* \"@openzeppelin/contracts-upgradeable/utils/AddressUpgradeable.sol\":4036:4088  functionCallWithValue(target, data, 0, errorMessage) */\n      jump\t// in\n    tag_81:\n        /* \"@openzeppelin/contracts-upgradeable/utils/AddressUpgradeable.sol\":4029:4088  return functionCallWithValue(target, data, 0, errorMessage) */\n      swap1\n      pop\n        /* \"@openzeppelin/contracts-upgradeable/utils/AddressUpgradeable.sol\":3872:4095  function functionCall(... */\n      swap4\n      swap3\n      pop\n      pop\n      pop\n      jump\t// out\n        /* \"@openzeppelin/contracts-upgradeable/utils/AddressUpgradeable.sol\":4959:5458  function functionCallWithValue(... */\n    tag_82:\n        /* \"@openzeppelin/contracts-upgradeable/utils/AddressUpgradeable.sol\":5124:5136  bytes memory */\n      0x60\n        /* \"@openzeppelin/contracts-upgradeable/utils/AddressUpgradeable.sol\":5181:5186  value */\n      dup3\n        /* \"@openzeppelin/contracts-upgradeable/utils/AddressUpgradeable.sol\":5156:5177  address(this).balance */\n      selfbalance\n        /* \"@openzeppelin/contracts-upgradeable/utils/AddressUpgradeable.sol\":5156:5186  address(this).balance >= value */\n      lt\n      iszero\n        /* \"@openzeppelin/contracts-upgradeable/utils/AddressUpgradeable.sol\":5148:5229  require(address(this).balance >= value, \"Address: insufficient balance for call\") */\n      tag_84\n      jumpi\n      mload(0x40)\n      0x08c379a000000000000000000000000000000000000000000000000000000000\n      dup2\n      mstore\n      0x04\n      add\n      tag_85\n      swap1\n      tag_86\n      jump\t// in\n    tag_85:\n      mload(0x40)\n      dup1\n      swap2\n      sub\n      swap1\n      revert\n    tag_84:\n        /* \"@openzeppelin/contracts-upgradeable/utils/AddressUpgradeable.sol\":5247:5265  isContract(target) */\n      tag_87\n        /* \"@openzeppelin/contracts-upgradeable/utils/AddressUpgradeable.sol\":5258:5264  target */\n      dup6\n        /* \"@openzeppelin/contracts-upgradeable/utils/AddressUpgradeable.sol\":5247:5257  isContract */\n      tag_88\n        /* \"@openzeppelin/contracts-upgradeable/utils/AddressUpgradeable.sol\":5247:5265  isContract(target) */\n      jump\t// in\n    tag_87:\n        /* \"@openzeppelin/contracts-upgradeable/utils/AddressUpgradeable.sol\":5239:5299  require(isContract(target), \"Address: call to non-contract\") */\n      tag_89\n      jumpi\n      mload(0x40)\n      0x08c379a000000000000000000000000000000000000000000000000000000000\n      dup2\n      mstore\n      0x04\n      add\n      tag_90\n      swap1\n      tag_91\n      jump\t// in\n    tag_90:\n      mload(0x40)\n      dup1\n      swap2\n      sub\n      swap1\n      revert\n    tag_89:\n        /* \"@openzeppelin/contracts-upgradeable/utils/AddressUpgradeable.sol\":5311:5323  bool success */\n      0x00\n        /* \"@openzeppelin/contracts-upgradeable/utils/AddressUpgradeable.sol\":5325:5348  bytes memory returndata */\n      dup1\n        /* \"@openzeppelin/contracts-upgradeable/utils/AddressUpgradeable.sol\":5352:5358  target */\n      dup7\n        /* \"@openzeppelin/contracts-upgradeable/utils/AddressUpgradeable.sol\":5352:5363  target.call */\n      0xffffffffffffffffffffffffffffffffffffffff\n      and\n        /* \"@openzeppelin/contracts-upgradeable/utils/AddressUpgradeable.sol\":5371:5376  value */\n      dup6\n        /* \"@openzeppelin/contracts-upgradeable/utils/AddressUpgradeable.sol\":5378:5382  data */\n      dup8\n        /* \"@openzeppelin/contracts-upgradeable/utils/AddressUpgradeable.sol\":5352:5383  target.call{value: value}(data) */\n      mload(0x40)\n      tag_92\n      swap2\n      swap1\n      tag_93\n      jump\t// in\n    tag_92:\n      0x00\n      mload(0x40)\n      dup1\n      dup4\n      sub\n      dup2\n      dup6\n      dup8\n      gas\n      call\n      swap3\n      pop\n      pop\n      pop\n      returndatasize\n      dup1\n      0x00\n      dup2\n      eq\n      tag_96\n      jumpi\n      mload(0x40)\n      swap2\n      pop\n      and(add(returndatasize, 0x3f), not(0x1f))\n      dup3\n      add\n      0x40\n      mstore\n      returndatasize\n      dup3\n      mstore\n      returndatasize\n      0x00\n      0x20\n      dup5\n      add\n      returndatacopy\n      jump(tag_95)\n    tag_96:\n      0x60\n      swap2\n      pop\n    tag_95:\n      pop\n        /* \"@openzeppelin/contracts-upgradeable/utils/AddressUpgradeable.sol\":5310:5383  (bool success, bytes memory returndata) = target.call{value: value}(data) */\n      swap2\n      pop\n      swap2\n      pop\n        /* \"@openzeppelin/contracts-upgradeable/utils/AddressUpgradeable.sol\":5400:5451  verifyCallResult(success, returndata, errorMessage) */\n      tag_97\n        /* \"@openzeppelin/contracts-upgradeable/utils/AddressUpgradeable.sol\":5417:5424  success */\n      dup3\n        /* \"@openzeppelin/contracts-upgradeable/utils/AddressUpgradeable.sol\":5426:5436  returndata */\n      dup3\n        /* \"@openzeppelin/contracts-upgradeable/utils/AddressUpgradeable.sol\":5438:5450  errorMessage */\n      dup7\n        /* \"@openzeppelin/contracts-upgradeable/utils/AddressUpgradeable.sol\":5400:5416  verifyCallResult */\n      tag_98\n        /* \"@openzeppelin/contracts-upgradeable/utils/AddressUpgradeable.sol\":5400:5451  verifyCallResult(success, returndata, errorMessage) */\n      jump\t// in\n    tag_97:\n        /* \"@openzeppelin/contracts-upgradeable/utils/AddressUpgradeable.sol\":5393:5451  return verifyCallResult(success, returndata, errorMessage) */\n      swap3\n      pop\n      pop\n      pop\n        /* \"@openzeppelin/contracts-upgradeable/utils/AddressUpgradeable.sol\":4959:5458  function functionCallWithValue(... */\n      swap5\n      swap4\n      pop\n      pop\n      pop\n      pop\n      jump\t// out\n        /* \"@openzeppelin/contracts-upgradeable/utils/AddressUpgradeable.sol\":1186:1506  function isContract(address account) internal view returns (bool) {... */\n    tag_88:\n        /* \"@openzeppelin/contracts-upgradeable/utils/AddressUpgradeable.sol\":1246:1250  bool */\n      0x00\n        /* \"@openzeppelin/contracts-upgradeable/utils/AddressUpgradeable.sol\":1498:1499  0 */\n      dup1\n        /* \"@openzeppelin/contracts-upgradeable/utils/AddressUpgradeable.sol\":1476:1483  account */\n      dup3\n        /* \"@openzeppelin/contracts-upgradeable/utils/AddressUpgradeable.sol\":1476:1495  account.code.length */\n      0xffffffffffffffffffffffffffffffffffffffff\n      and\n      extcodesize\n        /* \"@openzeppelin/contracts-upgradeable/utils/AddressUpgradeable.sol\":1476:1499  account.code.length > 0 */\n      gt\n        /* \"@openzeppelin/contracts-upgradeable/utils/AddressUpgradeable.sol\":1469:1499  return account.code.length > 0 */\n      swap1\n      pop\n        /* \"@openzeppelin/contracts-upgradeable/utils/AddressUpgradeable.sol\":1186:1506  function isContract(address account) internal view returns (bool) {... */\n      swap2\n      swap1\n      pop\n      jump\t// out\n        /* \"@openzeppelin/contracts-upgradeable/utils/AddressUpgradeable.sol\":6622:7364  function verifyCallResult(... */\n    tag_98:\n        /* \"@openzeppelin/contracts-upgradeable/utils/AddressUpgradeable.sol\":6768:6780  bytes memory */\n      0x60\n        /* \"@openzeppelin/contracts-upgradeable/utils/AddressUpgradeable.sol\":6796:6803  success */\n      dup4\n        /* \"@openzeppelin/contracts-upgradeable/utils/AddressUpgradeable.sol\":6792:7358  if (success) {... */\n      iszero\n      tag_101\n      jumpi\n        /* \"@openzeppelin/contracts-upgradeable/utils/AddressUpgradeable.sol\":6826:6836  returndata */\n      dup3\n        /* \"@openzeppelin/contracts-upgradeable/utils/AddressUpgradeable.sol\":6819:6836  return returndata */\n      swap1\n      pop\n      jump(tag_100)\n        /* \"@openzeppelin/contracts-upgradeable/utils/AddressUpgradeable.sol\":6792:7358  if (success) {... */\n    tag_101:\n        /* \"@openzeppelin/contracts-upgradeable/utils/AddressUpgradeable.sol\":6957:6958  0 */\n      0x00\n        /* \"@openzeppelin/contracts-upgradeable/utils/AddressUpgradeable.sol\":6937:6947  returndata */\n      dup4\n        /* \"@openzeppelin/contracts-upgradeable/utils/AddressUpgradeable.sol\":6937:6954  returndata.length */\n      mload\n        /* \"@openzeppelin/contracts-upgradeable/utils/AddressUpgradeable.sol\":6937:6958  returndata.length > 0 */\n      gt\n        /* \"@openzeppelin/contracts-upgradeable/utils/AddressUpgradeable.sol\":6933:7348  if (returndata.length > 0) {... */\n      iszero\n      tag_103\n      jumpi\n        /* \"@openzeppelin/contracts-upgradeable/utils/AddressUpgradeable.sol\":7181:7191  returndata */\n      dup3\n        /* \"@openzeppelin/contracts-upgradeable/utils/AddressUpgradeable.sol\":7175:7192  mload(returndata) */\n      mload\n        /* \"@openzeppelin/contracts-upgradeable/utils/AddressUpgradeable.sol\":7241:7256  returndata_size */\n      dup1\n        /* \"@openzeppelin/contracts-upgradeable/utils/AddressUpgradeable.sol\":7228:7238  returndata */\n      dup5\n        /* \"@openzeppelin/contracts-upgradeable/utils/AddressUpgradeable.sol\":7224:7226  32 */\n      0x20\n        /* \"@openzeppelin/contracts-upgradeable/utils/AddressUpgradeable.sol\":7220:7239  add(32, returndata) */\n      add\n        /* \"@openzeppelin/contracts-upgradeable/utils/AddressUpgradeable.sol\":7213:7257  revert(add(32, returndata), returndata_size) */\n      revert\n        /* \"@openzeppelin/contracts-upgradeable/utils/AddressUpgradeable.sol\":6933:7348  if (returndata.length > 0) {... */\n    tag_103:\n        /* \"@openzeppelin/contracts-upgradeable/utils/AddressUpgradeable.sol\":7320:7332  errorMessage */\n      dup2\n        /* \"@openzeppelin/contracts-upgradeable/utils/AddressUpgradeable.sol\":7313:7333  revert(errorMessage) */\n      mload(0x40)\n      0x08c379a000000000000000000000000000000000000000000000000000000000\n      dup2\n      mstore\n      0x04\n      add\n      tag_105\n      swap2\n      swap1\n      tag_106\n      jump\t// in\n    tag_105:\n      mload(0x40)\n      dup1\n      swap2\n      sub\n      swap1\n      revert\n        /* \"@openzeppelin/contracts-upgradeable/utils/AddressUpgradeable.sol\":6622:7364  function verifyCallResult(... */\n    tag_100:\n      swap4\n      swap3\n      pop\n      pop\n      pop\n      jump\t// out\n        /* \"#utility.yul\":7:146   */\n    tag_108:\n        /* \"#utility.yul\":53:58   */\n      0x00\n        /* \"#utility.yul\":91:97   */\n      dup2\n        /* \"#utility.yul\":78:98   */\n      calldataload\n        /* \"#utility.yul\":69:98   */\n      swap1\n      pop\n        /* \"#utility.yul\":107:140   */\n      tag_110\n        /* \"#utility.yul\":134:139   */\n      dup2\n        /* \"#utility.yul\":107:140   */\n      tag_111\n      jump\t// in\n    tag_110:\n        /* \"#utility.yul\":7:146   */\n      swap3\n      swap2\n      pop\n      pop\n      jump\t// out\n        /* \"#utility.yul\":152:307   */\n    tag_112:\n        /* \"#utility.yul\":206:211   */\n      0x00\n        /* \"#utility.yul\":244:250   */\n      dup2\n        /* \"#utility.yul\":231:251   */\n      calldataload\n        /* \"#utility.yul\":222:251   */\n      swap1\n      pop\n        /* \"#utility.yul\":260:301   */\n      tag_114\n        /* \"#utility.yul\":295:300   */\n      dup2\n        /* \"#utility.yul\":260:301   */\n      tag_115\n      jump\t// in\n    tag_114:\n        /* \"#utility.yul\":152:307   */\n      swap3\n      swap2\n      pop\n      pop\n      jump\t// out\n        /* \"#utility.yul\":313:450   */\n    tag_116:\n        /* \"#utility.yul\":367:372   */\n      0x00\n        /* \"#utility.yul\":398:404   */\n      dup2\n        /* \"#utility.yul\":392:405   */\n      mload\n        /* \"#utility.yul\":383:405   */\n      swap1\n      pop\n        /* \"#utility.yul\":414:444   */\n      tag_118\n        /* \"#utility.yul\":438:443   */\n      dup2\n        /* \"#utility.yul\":414:444   */\n      tag_119\n      jump\t// in\n    tag_118:\n        /* \"#utility.yul\":313:450   */\n      swap3\n      swap2\n      pop\n      pop\n      jump\t// out\n        /* \"#utility.yul\":456:595   */\n    tag_120:\n        /* \"#utility.yul\":502:507   */\n      0x00\n        /* \"#utility.yul\":540:546   */\n      dup2\n        /* \"#utility.yul\":527:547   */\n      calldataload\n        /* \"#utility.yul\":518:547   */\n      swap1\n      pop\n        /* \"#utility.yul\":556:589   */\n      tag_122\n        /* \"#utility.yul\":583:588   */\n      dup2\n        /* \"#utility.yul\":556:589   */\n      tag_123\n      jump\t// in\n    tag_122:\n        /* \"#utility.yul\":456:595   */\n      swap3\n      swap2\n      pop\n      pop\n      jump\t// out\n        /* \"#utility.yul\":601:930   */\n    tag_31:\n        /* \"#utility.yul\":660:666   */\n      0x00\n        /* \"#utility.yul\":709:711   */\n      0x20\n        /* \"#utility.yul\":697:706   */\n      dup3\n        /* \"#utility.yul\":688:695   */\n      dup5\n        /* \"#utility.yul\":684:707   */\n      sub\n        /* \"#utility.yul\":680:712   */\n      slt\n        /* \"#utility.yul\":677:796   */\n      iszero\n      tag_125\n      jumpi\n        /* \"#utility.yul\":715:794   */\n      tag_126\n      tag_127\n      jump\t// in\n    tag_126:\n        /* \"#utility.yul\":677:796   */\n    tag_125:\n        /* \"#utility.yul\":835:836   */\n      0x00\n        /* \"#utility.yul\":860:913   */\n      tag_128\n        /* \"#utility.yul\":905:912   */\n      dup5\n        /* \"#utility.yul\":896:902   */\n      dup3\n        /* \"#utility.yul\":885:894   */\n      dup6\n        /* \"#utility.yul\":881:903   */\n      add\n        /* \"#utility.yul\":860:913   */\n      tag_108\n      jump\t// in\n    tag_128:\n        /* \"#utility.yul\":850:913   */\n      swap2\n      pop\n        /* \"#utility.yul\":806:923   */\n      pop\n        /* \"#utility.yul\":601:930   */\n      swap3\n      swap2\n      pop\n      pop\n      jump\t// out\n        /* \"#utility.yul\":936:1426   */\n    tag_13:\n        /* \"#utility.yul\":1012:1018   */\n      0x00\n        /* \"#utility.yul\":1020:1026   */\n      dup1\n        /* \"#utility.yul\":1069:1071   */\n      0x40\n        /* \"#utility.yul\":1057:1066   */\n      dup4\n        /* \"#utility.yul\":1048:1055   */\n      dup6\n        /* \"#utility.yul\":1044:1067   */\n      sub\n        /* \"#utility.yul\":1040:1072   */\n      slt\n        /* \"#utility.yul\":1037:1156   */\n      iszero\n      tag_130\n      jumpi\n        /* \"#utility.yul\":1075:1154   */\n      tag_131\n      tag_127\n      jump\t// in\n    tag_131:\n        /* \"#utility.yul\":1037:1156   */\n    tag_130:\n        /* \"#utility.yul\":1195:1196   */\n      0x00\n        /* \"#utility.yul\":1220:1281   */\n      tag_132\n        /* \"#utility.yul\":1273:1280   */\n      dup6\n        /* \"#utility.yul\":1264:1270   */\n      dup3\n        /* \"#utility.yul\":1253:1262   */\n      dup7\n        /* \"#utility.yul\":1249:1271   */\n      add\n        /* \"#utility.yul\":1220:1281   */\n      tag_112\n      jump\t// in\n    tag_132:\n        /* \"#utility.yul\":1210:1281   */\n      swap3\n      pop\n        /* \"#utility.yul\":1166:1291   */\n      pop\n        /* \"#utility.yul\":1330:1332   */\n      0x20\n        /* \"#utility.yul\":1356:1409   */\n      tag_133\n        /* \"#utility.yul\":1401:1408   */\n      dup6\n        /* \"#utility.yul\":1392:1398   */\n      dup3\n        /* \"#utility.yul\":1381:1390   */\n      dup7\n        /* \"#utility.yul\":1377:1399   */\n      add\n        /* \"#utility.yul\":1356:1409   */\n      tag_120\n      jump\t// in\n    tag_133:\n        /* \"#utility.yul\":1346:1409   */\n      swap2\n      pop\n        /* \"#utility.yul\":1301:1419   */\n      pop\n        /* \"#utility.yul\":936:1426   */\n      swap3\n      pop\n      swap3\n      swap1\n      pop\n      jump\t// out\n        /* \"#utility.yul\":1432:2051   */\n    tag_18:\n        /* \"#utility.yul\":1509:1515   */\n      0x00\n        /* \"#utility.yul\":1517:1523   */\n      dup1\n        /* \"#utility.yul\":1525:1531   */\n      0x00\n        /* \"#utility.yul\":1574:1576   */\n      0x60\n        /* \"#utility.yul\":1562:1571   */\n      dup5\n        /* \"#utility.yul\":1553:1560   */\n      dup7\n        /* \"#utility.yul\":1549:1572   */\n      sub\n        /* \"#utility.yul\":1545:1577   */\n      slt\n        /* \"#utility.yul\":1542:1661   */\n      iszero\n      tag_135\n      jumpi\n        /* \"#utility.yul\":1580:1659   */\n      tag_136\n      tag_127\n      jump\t// in\n    tag_136:\n        /* \"#utility.yul\":1542:1661   */\n    tag_135:\n        /* \"#utility.yul\":1700:1701   */\n      0x00\n        /* \"#utility.yul\":1725:1778   */\n      tag_137\n        /* \"#utility.yul\":1770:1777   */\n      dup7\n        /* \"#utility.yul\":1761:1767   */\n      dup3\n        /* \"#utility.yul\":1750:1759   */\n      dup8\n        /* \"#utility.yul\":1746:1768   */\n      add\n        /* \"#utility.yul\":1725:1778   */\n      tag_108\n      jump\t// in\n    tag_137:\n        /* \"#utility.yul\":1715:1778   */\n      swap4\n      pop\n        /* \"#utility.yul\":1671:1788   */\n      pop\n        /* \"#utility.yul\":1827:1829   */\n      0x20\n        /* \"#utility.yul\":1853:1906   */\n      tag_138\n        /* \"#utility.yul\":1898:1905   */\n      dup7\n        /* \"#utility.yul\":1889:1895   */\n      dup3\n        /* \"#utility.yul\":1878:1887   */\n      dup8\n        /* \"#utility.yul\":1874:1896   */\n      add\n        /* \"#utility.yul\":1853:1906   */\n      tag_108\n      jump\t// in\n    tag_138:\n        /* \"#utility.yul\":1843:1906   */\n      swap3\n      pop\n        /* \"#utility.yul\":1798:1916   */\n      pop\n        /* \"#utility.yul\":1955:1957   */\n      0x40\n        /* \"#utility.yul\":1981:2034   */\n      tag_139\n        /* \"#utility.yul\":2026:2033   */\n      dup7\n        /* \"#utility.yul\":2017:2023   */\n      dup3\n        /* \"#utility.yul\":2006:2015   */\n      dup8\n        /* \"#utility.yul\":2002:2024   */\n      add\n        /* \"#utility.yul\":1981:2034   */\n      tag_120\n      jump\t// in\n    tag_139:\n        /* \"#utility.yul\":1971:2034   */\n      swap2\n      pop\n        /* \"#utility.yul\":1926:2044   */\n      pop\n        /* \"#utility.yul\":1432:2051   */\n      swap3\n      pop\n      swap3\n      pop\n      swap3\n      jump\t// out\n        /* \"#utility.yul\":2057:2402   */\n    tag_76:\n        /* \"#utility.yul\":2124:2130   */\n      0x00\n        /* \"#utility.yul\":2173:2175   */\n      0x20\n        /* \"#utility.yul\":2161:2170   */\n      dup3\n        /* \"#utility.yul\":2152:2159   */\n      dup5\n        /* \"#utility.yul\":2148:2171   */\n      sub\n        /* \"#utility.yul\":2144:2176   */\n      slt\n        /* \"#utility.yul\":2141:2260   */\n      iszero\n      tag_141\n      jumpi\n        /* \"#utility.yul\":2179:2258   */\n      tag_142\n      tag_127\n      jump\t// in\n    tag_142:\n        /* \"#utility.yul\":2141:2260   */\n    tag_141:\n        /* \"#utility.yul\":2299:2300   */\n      0x00\n        /* \"#utility.yul\":2324:2385   */\n      tag_143\n        /* \"#utility.yul\":2377:2384   */\n      dup5\n        /* \"#utility.yul\":2368:2374   */\n      dup3\n        /* \"#utility.yul\":2357:2366   */\n      dup6\n        /* \"#utility.yul\":2353:2375   */\n      add\n        /* \"#utility.yul\":2324:2385   */\n      tag_116\n      jump\t// in\n    tag_143:\n        /* \"#utility.yul\":2314:2385   */\n      swap2\n      pop\n        /* \"#utility.yul\":2270:2395   */\n      pop\n        /* \"#utility.yul\":2057:2402   */\n      swap3\n      swap2\n      pop\n      pop\n      jump\t// out\n        /* \"#utility.yul\":2408:2526   */\n    tag_144:\n        /* \"#utility.yul\":2495:2519   */\n      tag_146\n        /* \"#utility.yul\":2513:2518   */\n      dup2\n        /* \"#utility.yul\":2495:2519   */\n      tag_147\n      jump\t// in\n    tag_146:\n        /* \"#utility.yul\":2490:2493   */\n      dup3\n        /* \"#utility.yul\":2483:2520   */\n      mstore\n        /* \"#utility.yul\":2408:2526   */\n      pop\n      pop\n      jump\t// out\n        /* \"#utility.yul\":2532:2905   */\n    tag_148:\n        /* \"#utility.yul\":2636:2639   */\n      0x00\n        /* \"#utility.yul\":2664:2702   */\n      tag_150\n        /* \"#utility.yul\":2696:2701   */\n      dup3\n        /* \"#utility.yul\":2664:2702   */\n      tag_151\n      jump\t// in\n    tag_150:\n        /* \"#utility.yul\":2718:2806   */\n      tag_152\n        /* \"#utility.yul\":2799:2805   */\n      dup2\n        /* \"#utility.yul\":2794:2797   */\n      dup6\n        /* \"#utility.yul\":2718:2806   */\n      tag_153\n      jump\t// in\n    tag_152:\n        /* \"#utility.yul\":2711:2806   */\n      swap4\n      pop\n        /* \"#utility.yul\":2815:2867   */\n      tag_154\n        /* \"#utility.yul\":2860:2866   */\n      dup2\n        /* \"#utility.yul\":2855:2858   */\n      dup6\n        /* \"#utility.yul\":2848:2852   */\n      0x20\n        /* \"#utility.yul\":2841:2846   */\n      dup7\n        /* \"#utility.yul\":2837:2853   */\n      add\n        /* \"#utility.yul\":2815:2867   */\n      tag_155\n      jump\t// in\n    tag_154:\n        /* \"#utility.yul\":2892:2898   */\n      dup1\n        /* \"#utility.yul\":2887:2890   */\n      dup5\n        /* \"#utility.yul\":2883:2899   */\n      add\n        /* \"#utility.yul\":2876:2899   */\n      swap2\n      pop\n        /* \"#utility.yul\":2640:2905   */\n      pop\n        /* \"#utility.yul\":2532:2905   */\n      swap3\n      swap2\n      pop\n      pop\n      jump\t// out\n        /* \"#utility.yul\":2911:3275   */\n    tag_156:\n        /* \"#utility.yul\":2999:3002   */\n      0x00\n        /* \"#utility.yul\":3027:3066   */\n      tag_158\n        /* \"#utility.yul\":3060:3065   */\n      dup3\n        /* \"#utility.yul\":3027:3066   */\n      tag_159\n      jump\t// in\n    tag_158:\n        /* \"#utility.yul\":3082:3153   */\n      tag_160\n        /* \"#utility.yul\":3146:3152   */\n      dup2\n        /* \"#utility.yul\":3141:3144   */\n      dup6\n        /* \"#utility.yul\":3082:3153   */\n      tag_161\n      jump\t// in\n    tag_160:\n        /* \"#utility.yul\":3075:3153   */\n      swap4\n      pop\n        /* \"#utility.yul\":3162:3214   */\n      tag_162\n        /* \"#utility.yul\":3207:3213   */\n      dup2\n        /* \"#utility.yul\":3202:3205   */\n      dup6\n        /* \"#utility.yul\":3195:3199   */\n      0x20\n        /* \"#utility.yul\":3188:3193   */\n      dup7\n        /* \"#utility.yul\":3184:3200   */\n      add\n        /* \"#utility.yul\":3162:3214   */\n      tag_155\n      jump\t// in\n    tag_162:\n        /* \"#utility.yul\":3239:3268   */\n      tag_163\n        /* \"#utility.yul\":3261:3267   */\n      dup2\n        /* \"#utility.yul\":3239:3268   */\n      tag_164\n      jump\t// in\n    tag_163:\n        /* \"#utility.yul\":3234:3237   */\n      dup5\n        /* \"#utility.yul\":3230:3269   */\n      add\n        /* \"#utility.yul\":3223:3269   */\n      swap2\n      pop\n        /* \"#utility.yul\":3003:3275   */\n      pop\n        /* \"#utility.yul\":2911:3275   */\n      swap3\n      swap2\n      pop\n      pop\n      jump\t// out\n        /* \"#utility.yul\":3281:3647   */\n    tag_165:\n        /* \"#utility.yul\":3423:3426   */\n      0x00\n        /* \"#utility.yul\":3444:3511   */\n      tag_167\n        /* \"#utility.yul\":3508:3510   */\n      0x26\n        /* \"#utility.yul\":3503:3506   */\n      dup4\n        /* \"#utility.yul\":3444:3511   */\n      tag_161\n      jump\t// in\n    tag_167:\n        /* \"#utility.yul\":3437:3511   */\n      swap2\n      pop\n        /* \"#utility.yul\":3520:3613   */\n      tag_168\n        /* \"#utility.yul\":3609:3612   */\n      dup3\n        /* \"#utility.yul\":3520:3613   */\n      tag_169\n      jump\t// in\n    tag_168:\n        /* \"#utility.yul\":3638:3640   */\n      0x40\n        /* \"#utility.yul\":3633:3636   */\n      dup3\n        /* \"#utility.yul\":3629:3641   */\n      add\n        /* \"#utility.yul\":3622:3641   */\n      swap1\n      pop\n        /* \"#utility.yul\":3281:3647   */\n      swap2\n      swap1\n      pop\n      jump\t// out\n        /* \"#utility.yul\":3653:4019   */\n    tag_170:\n        /* \"#utility.yul\":3795:3798   */\n      0x00\n        /* \"#utility.yul\":3816:3883   */\n      tag_172\n        /* \"#utility.yul\":3880:3882   */\n      0x26\n        /* \"#utility.yul\":3875:3878   */\n      dup4\n        /* \"#utility.yul\":3816:3883   */\n      tag_161\n      jump\t// in\n    tag_172:\n        /* \"#utility.yul\":3809:3883   */\n      swap2\n      pop\n        /* \"#utility.yul\":3892:3985   */\n      tag_173\n        /* \"#utility.yul\":3981:3984   */\n      dup3\n        /* \"#utility.yul\":3892:3985   */\n      tag_174\n      jump\t// in\n    tag_173:\n        /* \"#utility.yul\":4010:4012   */\n      0x40\n        /* \"#utility.yul\":4005:4008   */\n      dup3\n        /* \"#utility.yul\":4001:4013   */\n      add\n        /* \"#utility.yul\":3994:4013   */\n      swap1\n      pop\n        /* \"#utility.yul\":3653:4019   */\n      swap2\n      swap1\n      pop\n      jump\t// out\n        /* \"#utility.yul\":4025:4391   */\n    tag_175:\n        /* \"#utility.yul\":4167:4170   */\n      0x00\n        /* \"#utility.yul\":4188:4255   */\n      tag_177\n        /* \"#utility.yul\":4252:4254   */\n      0x20\n        /* \"#utility.yul\":4247:4250   */\n      dup4\n        /* \"#utility.yul\":4188:4255   */\n      tag_161\n      jump\t// in\n    tag_177:\n        /* \"#utility.yul\":4181:4255   */\n      swap2\n      pop\n        /* \"#utility.yul\":4264:4357   */\n      tag_178\n        /* \"#utility.yul\":4353:4356   */\n      dup3\n        /* \"#utility.yul\":4264:4357   */\n      tag_179\n      jump\t// in\n    tag_178:\n        /* \"#utility.yul\":4382:4384   */\n      0x20\n        /* \"#utility.yul\":4377:4380   */\n      dup3\n        /* \"#utility.yul\":4373:4385   */\n      add\n        /* \"#utility.yul\":4366:4385   */\n      swap1\n      pop\n        /* \"#utility.yul\":4025:4391   */\n      swap2\n      swap1\n      pop\n      jump\t// out\n        /* \"#utility.yul\":4397:4763   */\n    tag_180:\n        /* \"#utility.yul\":4539:4542   */\n      0x00\n        /* \"#utility.yul\":4560:4627   */\n      tag_182\n        /* \"#utility.yul\":4624:4626   */\n      0x1d\n        /* \"#utility.yul\":4619:4622   */\n      dup4\n        /* \"#utility.yul\":4560:4627   */\n      tag_161\n      jump\t// in\n    tag_182:\n        /* \"#utility.yul\":4553:4627   */\n      swap2\n      pop\n        /* \"#utility.yul\":4636:4729   */\n      tag_183\n        /* \"#utility.yul\":4725:4728   */\n      dup3\n        /* \"#utility.yul\":4636:4729   */\n      tag_184\n      jump\t// in\n    tag_183:\n        /* \"#utility.yul\":4754:4756   */\n      0x20\n        /* \"#utility.yul\":4749:4752   */\n      dup3\n        /* \"#utility.yul\":4745:4757   */\n      add\n        /* \"#utility.yul\":4738:4757   */\n      swap1\n      pop\n        /* \"#utility.yul\":4397:4763   */\n      swap2\n      swap1\n      pop\n      jump\t// out\n        /* \"#utility.yul\":4769:5135   */\n    tag_185:\n        /* \"#utility.yul\":4911:4914   */\n      0x00\n        /* \"#utility.yul\":4932:4999   */\n      tag_187\n        /* \"#utility.yul\":4996:4998   */\n      0x2a\n        /* \"#utility.yul\":4991:4994   */\n      dup4\n        /* \"#utility.yul\":4932:4999   */\n      tag_161\n      jump\t// in\n    tag_187:\n        /* \"#utility.yul\":4925:4999   */\n      swap2\n      pop\n        /* \"#utility.yul\":5008:5101   */\n      tag_188\n        /* \"#utility.yul\":5097:5100   */\n      dup3\n        /* \"#utility.yul\":5008:5101   */\n      tag_189\n      jump\t// in\n    tag_188:\n        /* \"#utility.yul\":5126:5128   */\n      0x40\n        /* \"#utility.yul\":5121:5124   */\n      dup3\n        /* \"#utility.yul\":5117:5129   */\n      add\n        /* \"#utility.yul\":5110:5129   */\n      swap1\n      pop\n        /* \"#utility.yul\":4769:5135   */\n      swap2\n      swap1\n      pop\n      jump\t// out\n        /* \"#utility.yul\":5141:5259   */\n    tag_190:\n        /* \"#utility.yul\":5228:5252   */\n      tag_192\n        /* \"#utility.yul\":5246:5251   */\n      dup2\n        /* \"#utility.yul\":5228:5252   */\n      tag_193\n      jump\t// in\n    tag_192:\n        /* \"#utility.yul\":5223:5226   */\n      dup3\n        /* \"#utility.yul\":5216:5253   */\n      mstore\n        /* \"#utility.yul\":5141:5259   */\n      pop\n      pop\n      jump\t// out\n        /* \"#utility.yul\":5265:5536   */\n    tag_93:\n        /* \"#utility.yul\":5395:5398   */\n      0x00\n        /* \"#utility.yul\":5417:5510   */\n      tag_195\n        /* \"#utility.yul\":5506:5509   */\n      dup3\n        /* \"#utility.yul\":5497:5503   */\n      dup5\n        /* \"#utility.yul\":5417:5510   */\n      tag_148\n      jump\t// in\n    tag_195:\n        /* \"#utility.yul\":5410:5510   */\n      swap2\n      pop\n        /* \"#utility.yul\":5527:5530   */\n      dup2\n        /* \"#utility.yul\":5520:5530   */\n      swap1\n      pop\n        /* \"#utility.yul\":5265:5536   */\n      swap3\n      swap2\n      pop\n      pop\n      jump\t// out\n        /* \"#utility.yul\":5542:5764   */\n    tag_27:\n        /* \"#utility.yul\":5635:5639   */\n      0x00\n        /* \"#utility.yul\":5673:5675   */\n      0x20\n        /* \"#utility.yul\":5662:5671   */\n      dup3\n        /* \"#utility.yul\":5658:5676   */\n      add\n        /* \"#utility.yul\":5650:5676   */\n      swap1\n      pop\n        /* \"#utility.yul\":5686:5757   */\n      tag_197\n        /* \"#utility.yul\":5754:5755   */\n      0x00\n        /* \"#utility.yul\":5743:5752   */\n      dup4\n        /* \"#utility.yul\":5739:5756   */\n      add\n        /* \"#utility.yul\":5730:5736   */\n      dup5\n        /* \"#utility.yul\":5686:5757   */\n      tag_144\n      jump\t// in\n    tag_197:\n        /* \"#utility.yul\":5542:5764   */\n      swap3\n      swap2\n      pop\n      pop\n      jump\t// out\n        /* \"#utility.yul\":5770:6102   */\n    tag_67:\n        /* \"#utility.yul\":5891:5895   */\n      0x00\n        /* \"#utility.yul\":5929:5931   */\n      0x40\n        /* \"#utility.yul\":5918:5927   */\n      dup3\n        /* \"#utility.yul\":5914:5932   */\n      add\n        /* \"#utility.yul\":5906:5932   */\n      swap1\n      pop\n        /* \"#utility.yul\":5942:6013   */\n      tag_199\n        /* \"#utility.yul\":6010:6011   */\n      0x00\n        /* \"#utility.yul\":5999:6008   */\n      dup4\n        /* \"#utility.yul\":5995:6012   */\n      add\n        /* \"#utility.yul\":5986:5992   */\n      dup6\n        /* \"#utility.yul\":5942:6013   */\n      tag_144\n      jump\t// in\n    tag_199:\n        /* \"#utility.yul\":6023:6095   */\n      tag_200\n        /* \"#utility.yul\":6091:6093   */\n      0x20\n        /* \"#utility.yul\":6080:6089   */\n      dup4\n        /* \"#utility.yul\":6076:6094   */\n      add\n        /* \"#utility.yul\":6067:6073   */\n      dup5\n        /* \"#utility.yul\":6023:6095   */\n      tag_190\n      jump\t// in\n    tag_200:\n        /* \"#utility.yul\":5770:6102   */\n      swap4\n      swap3\n      pop\n      pop\n      pop\n      jump\t// out\n        /* \"#utility.yul\":6108:6421   */\n    tag_106:\n        /* \"#utility.yul\":6221:6225   */\n      0x00\n        /* \"#utility.yul\":6259:6261   */\n      0x20\n        /* \"#utility.yul\":6248:6257   */\n      dup3\n        /* \"#utility.yul\":6244:6262   */\n      add\n        /* \"#utility.yul\":6236:6262   */\n      swap1\n      pop\n        /* \"#utility.yul\":6308:6317   */\n      dup2\n        /* \"#utility.yul\":6302:6306   */\n      dup2\n        /* \"#utility.yul\":6298:6318   */\n      sub\n        /* \"#utility.yul\":6294:6295   */\n      0x00\n        /* \"#utility.yul\":6283:6292   */\n      dup4\n        /* \"#utility.yul\":6279:6296   */\n      add\n        /* \"#utility.yul\":6272:6319   */\n      mstore\n        /* \"#utility.yul\":6336:6414   */\n      tag_202\n        /* \"#utility.yul\":6409:6413   */\n      dup2\n        /* \"#utility.yul\":6400:6406   */\n      dup5\n        /* \"#utility.yul\":6336:6414   */\n      tag_156\n      jump\t// in\n    tag_202:\n        /* \"#utility.yul\":6328:6414   */\n      swap1\n      pop\n        /* \"#utility.yul\":6108:6421   */\n      swap3\n      swap2\n      pop\n      pop\n      jump\t// out\n        /* \"#utility.yul\":6427:6846   */\n    tag_55:\n        /* \"#utility.yul\":6593:6597   */\n      0x00\n        /* \"#utility.yul\":6631:6633   */\n      0x20\n        /* \"#utility.yul\":6620:6629   */\n      dup3\n        /* \"#utility.yul\":6616:6634   */\n      add\n        /* \"#utility.yul\":6608:6634   */\n      swap1\n      pop\n        /* \"#utility.yul\":6680:6689   */\n      dup2\n        /* \"#utility.yul\":6674:6678   */\n      dup2\n        /* \"#utility.yul\":6670:6690   */\n      sub\n        /* \"#utility.yul\":6666:6667   */\n      0x00\n        /* \"#utility.yul\":6655:6664   */\n      dup4\n        /* \"#utility.yul\":6651:6668   */\n      add\n        /* \"#utility.yul\":6644:6691   */\n      mstore\n        /* \"#utility.yul\":6708:6839   */\n      tag_204\n        /* \"#utility.yul\":6834:6838   */\n      dup2\n        /* \"#utility.yul\":6708:6839   */\n      tag_165\n      jump\t// in\n    tag_204:\n        /* \"#utility.yul\":6700:6839   */\n      swap1\n      pop\n        /* \"#utility.yul\":6427:6846   */\n      swap2\n      swap1\n      pop\n      jump\t// out\n        /* \"#utility.yul\":6852:7271   */\n    tag_86:\n        /* \"#utility.yul\":7018:7022   */\n      0x00\n        /* \"#utility.yul\":7056:7058   */\n      0x20\n        /* \"#utility.yul\":7045:7054   */\n      dup3\n        /* \"#utility.yul\":7041:7059   */\n      add\n        /* \"#utility.yul\":7033:7059   */\n      swap1\n      pop\n        /* \"#utility.yul\":7105:7114   */\n      dup2\n        /* \"#utility.yul\":7099:7103   */\n      dup2\n        /* \"#utility.yul\":7095:7115   */\n      sub\n        /* \"#utility.yul\":7091:7092   */\n      0x00\n        /* \"#utility.yul\":7080:7089   */\n      dup4\n        /* \"#utility.yul\":7076:7093   */\n      add\n        /* \"#utility.yul\":7069:7116   */\n      mstore\n        /* \"#utility.yul\":7133:7264   */\n      tag_206\n        /* \"#utility.yul\":7259:7263   */\n      dup2\n        /* \"#utility.yul\":7133:7264   */\n      tag_170\n      jump\t// in\n    tag_206:\n        /* \"#utility.yul\":7125:7264   */\n      swap1\n      pop\n        /* \"#utility.yul\":6852:7271   */\n      swap2\n      swap1\n      pop\n      jump\t// out\n        /* \"#utility.yul\":7277:7696   */\n    tag_63:\n        /* \"#utility.yul\":7443:7447   */\n      0x00\n        /* \"#utility.yul\":7481:7483   */\n      0x20\n        /* \"#utility.yul\":7470:7479   */\n      dup3\n        /* \"#utility.yul\":7466:7484   */\n      add\n        /* \"#utility.yul\":7458:7484   */\n      swap1\n      pop\n        /* \"#utility.yul\":7530:7539   */\n      dup2\n        /* \"#utility.yul\":7524:7528   */\n      dup2\n        /* \"#utility.yul\":7520:7540   */\n      sub\n        /* \"#utility.yul\":7516:7517   */\n      0x00\n        /* \"#utility.yul\":7505:7514   */\n      dup4\n        /* \"#utility.yul\":7501:7518   */\n      add\n        /* \"#utility.yul\":7494:7541   */\n      mstore\n        /* \"#utility.yul\":7558:7689   */\n      tag_208\n        /* \"#utility.yul\":7684:7688   */\n      dup2\n        /* \"#utility.yul\":7558:7689   */\n      tag_175\n      jump\t// in\n    tag_208:\n        /* \"#utility.yul\":7550:7689   */\n      swap1\n      pop\n        /* \"#utility.yul\":7277:7696   */\n      swap2\n      swap1\n      pop\n      jump\t// out\n        /* \"#utility.yul\":7702:8121   */\n    tag_91:\n        /* \"#utility.yul\":7868:7872   */\n      0x00\n        /* \"#utility.yul\":7906:7908   */\n      0x20\n        /* \"#utility.yul\":7895:7904   */\n      dup3\n        /* \"#utility.yul\":7891:7909   */\n      add\n        /* \"#utility.yul\":7883:7909   */\n      swap1\n      pop\n        /* \"#utility.yul\":7955:7964   */\n      dup2\n        /* \"#utility.yul\":7949:7953   */\n      dup2\n        /* \"#utility.yul\":7945:7965   */\n      sub\n        /* \"#utility.yul\":7941:7942   */\n      0x00\n        /* \"#utility.yul\":7930:7939   */\n      dup4\n        /* \"#utility.yul\":7926:7943   */\n      add\n        /* \"#utility.yul\":7919:7966   */\n      mstore\n        /* \"#utility.yul\":7983:8114   */\n      tag_210\n        /* \"#utility.yul\":8109:8113   */\n      dup2\n        /* \"#utility.yul\":7983:8114   */\n      tag_180\n      jump\t// in\n    tag_210:\n        /* \"#utility.yul\":7975:8114   */\n      swap1\n      pop\n        /* \"#utility.yul\":7702:8121   */\n      swap2\n      swap1\n      pop\n      jump\t// out\n        /* \"#utility.yul\":8127:8546   */\n    tag_79:\n        /* \"#utility.yul\":8293:8297   */\n      0x00\n        /* \"#utility.yul\":8331:8333   */\n      0x20\n        /* \"#utility.yul\":8320:8329   */\n      dup3\n        /* \"#utility.yul\":8316:8334   */\n      add\n        /* \"#utility.yul\":8308:8334   */\n      swap1\n      pop\n        /* \"#utility.yul\":8380:8389   */\n      dup2\n        /* \"#utility.yul\":8374:8378   */\n      dup2\n        /* \"#utility.yul\":8370:8390   */\n      sub\n        /* \"#utility.yul\":8366:8367   */\n      0x00\n        /* \"#utility.yul\":8355:8364   */\n      dup4\n        /* \"#utility.yul\":8351:8368   */\n      add\n        /* \"#utility.yul\":8344:8391   */\n      mstore\n        /* \"#utility.yul\":8408:8539   */\n      tag_212\n        /* \"#utility.yul\":8534:8538   */\n      dup2\n        /* \"#utility.yul\":8408:8539   */\n      tag_185\n      jump\t// in\n    tag_212:\n        /* \"#utility.yul\":8400:8539   */\n      swap1\n      pop\n        /* \"#utility.yul\":8127:8546   */\n      swap2\n      swap1\n      pop\n      jump\t// out\n        /* \"#utility.yul\":8633:8731   */\n    tag_151:\n        /* \"#utility.yul\":8684:8690   */\n      0x00\n        /* \"#utility.yul\":8718:8723   */\n      dup2\n        /* \"#utility.yul\":8712:8724   */\n      mload\n        /* \"#utility.yul\":8702:8724   */\n      swap1\n      pop\n        /* \"#utility.yul\":8633:8731   */\n      swap2\n      swap1\n      pop\n      jump\t// out\n        /* \"#utility.yul\":8737:8836   */\n    tag_159:\n        /* \"#utility.yul\":8789:8795   */\n      0x00\n        /* \"#utility.yul\":8823:8828   */\n      dup2\n        /* \"#utility.yul\":8817:8829   */\n      mload\n        /* \"#utility.yul\":8807:8829   */\n      swap1\n      pop\n        /* \"#utility.yul\":8737:8836   */\n      swap2\n      swap1\n      pop\n      jump\t// out\n        /* \"#utility.yul\":8842:8989   */\n    tag_153:\n        /* \"#utility.yul\":8943:8954   */\n      0x00\n        /* \"#utility.yul\":8980:8983   */\n      dup2\n        /* \"#utility.yul\":8965:8983   */\n      swap1\n      pop\n        /* \"#utility.yul\":8842:8989   */\n      swap3\n      swap2\n      pop\n      pop\n      jump\t// out\n        /* \"#utility.yul\":8995:9164   */\n    tag_161:\n        /* \"#utility.yul\":9079:9090   */\n      0x00\n        /* \"#utility.yul\":9113:9119   */\n      dup3\n        /* \"#utility.yul\":9108:9111   */\n      dup3\n        /* \"#utility.yul\":9101:9120   */\n      mstore\n        /* \"#utility.yul\":9153:9157   */\n      0x20\n        /* \"#utility.yul\":9148:9151   */\n      dup3\n        /* \"#utility.yul\":9144:9158   */\n      add\n        /* \"#utility.yul\":9129:9158   */\n      swap1\n      pop\n        /* \"#utility.yul\":8995:9164   */\n      swap3\n      swap2\n      pop\n      pop\n      jump\t// out\n        /* \"#utility.yul\":9170:9266   */\n    tag_147:\n        /* \"#utility.yul\":9207:9214   */\n      0x00\n        /* \"#utility.yul\":9236:9260   */\n      tag_220\n        /* \"#utility.yul\":9254:9259   */\n      dup3\n        /* \"#utility.yul\":9236:9260   */\n      tag_221\n      jump\t// in\n    tag_220:\n        /* \"#utility.yul\":9225:9260   */\n      swap1\n      pop\n        /* \"#utility.yul\":9170:9266   */\n      swap2\n      swap1\n      pop\n      jump\t// out\n        /* \"#utility.yul\":9272:9376   */\n    tag_222:\n        /* \"#utility.yul\":9317:9324   */\n      0x00\n        /* \"#utility.yul\":9346:9370   */\n      tag_224\n        /* \"#utility.yul\":9364:9369   */\n      dup3\n        /* \"#utility.yul\":9346:9370   */\n      tag_221\n      jump\t// in\n    tag_224:\n        /* \"#utility.yul\":9335:9370   */\n      swap1\n      pop\n        /* \"#utility.yul\":9272:9376   */\n      swap2\n      swap1\n      pop\n      jump\t// out\n        /* \"#utility.yul\":9382:9472   */\n    tag_225:\n        /* \"#utility.yul\":9416:9423   */\n      0x00\n        /* \"#utility.yul\":9459:9464   */\n      dup2\n        /* \"#utility.yul\":9452:9465   */\n      iszero\n        /* \"#utility.yul\":9445:9466   */\n      iszero\n        /* \"#utility.yul\":9434:9466   */\n      swap1\n      pop\n        /* \"#utility.yul\":9382:9472   */\n      swap2\n      swap1\n      pop\n      jump\t// out\n        /* \"#utility.yul\":9478:9604   */\n    tag_221:\n        /* \"#utility.yul\":9515:9522   */\n      0x00\n        /* \"#utility.yul\":9555:9597   */\n      0xffffffffffffffffffffffffffffffffffffffff\n        /* \"#utility.yul\":9548:9553   */\n      dup3\n        /* \"#utility.yul\":9544:9598   */\n      and\n        /* \"#utility.yul\":9533:9598   */\n      swap1\n      pop\n        /* \"#utility.yul\":9478:9604   */\n      swap2\n      swap1\n      pop\n      jump\t// out\n        /* \"#utility.yul\":9610:9687   */\n    tag_193:\n        /* \"#utility.yul\":9647:9654   */\n      0x00\n        /* \"#utility.yul\":9676:9681   */\n      dup2\n        /* \"#utility.yul\":9665:9681   */\n      swap1\n      pop\n        /* \"#utility.yul\":9610:9687   */\n      swap2\n      swap1\n      pop\n      jump\t// out\n        /* \"#utility.yul\":9693:10000   */\n    tag_155:\n        /* \"#utility.yul\":9761:9762   */\n      0x00\n        /* \"#utility.yul\":9771:9884   */\n    tag_230:\n        /* \"#utility.yul\":9785:9791   */\n      dup4\n        /* \"#utility.yul\":9782:9783   */\n      dup2\n        /* \"#utility.yul\":9779:9792   */\n      lt\n        /* \"#utility.yul\":9771:9884   */\n      iszero\n      tag_232\n      jumpi\n        /* \"#utility.yul\":9870:9871   */\n      dup1\n        /* \"#utility.yul\":9865:9868   */\n      dup3\n        /* \"#utility.yul\":9861:9872   */\n      add\n        /* \"#utility.yul\":9855:9873   */\n      mload\n        /* \"#utility.yul\":9851:9852   */\n      dup2\n        /* \"#utility.yul\":9846:9849   */\n      dup5\n        /* \"#utility.yul\":9842:9853   */\n      add\n        /* \"#utility.yul\":9835:9874   */\n      mstore\n        /* \"#utility.yul\":9807:9809   */\n      0x20\n        /* \"#utility.yul\":9804:9805   */\n      dup2\n        /* \"#utility.yul\":9800:9810   */\n      add\n        /* \"#utility.yul\":9795:9810   */\n      swap1\n      pop\n        /* \"#utility.yul\":9771:9884   */\n      jump(tag_230)\n    tag_232:\n        /* \"#utility.yul\":9902:9908   */\n      dup4\n        /* \"#utility.yul\":9899:9900   */\n      dup2\n        /* \"#utility.yul\":9896:9909   */\n      gt\n        /* \"#utility.yul\":9893:9994   */\n      iszero\n      tag_233\n      jumpi\n        /* \"#utility.yul\":9982:9983   */\n      0x00\n        /* \"#utility.yul\":9973:9979   */\n      dup5\n        /* \"#utility.yul\":9968:9971   */\n      dup5\n        /* \"#utility.yul\":9964:9980   */\n      add\n        /* \"#utility.yul\":9957:9984   */\n      mstore\n        /* \"#utility.yul\":9893:9994   */\n    tag_233:\n        /* \"#utility.yul\":9742:10000   */\n      pop\n        /* \"#utility.yul\":9693:10000   */\n      pop\n      pop\n      pop\n      jump\t// out\n        /* \"#utility.yul\":10129:10246   */\n    tag_127:\n        /* \"#utility.yul\":10238:10239   */\n      0x00\n        /* \"#utility.yul\":10235:10236   */\n      dup1\n        /* \"#utility.yul\":10228:10240   */\n      revert\n        /* \"#utility.yul\":10252:10354   */\n    tag_164:\n        /* \"#utility.yul\":10293:10299   */\n      0x00\n        /* \"#utility.yul\":10344:10346   */\n      0x1f\n        /* \"#utility.yul\":10340:10347   */\n      not\n        /* \"#utility.yul\":10335:10337   */\n      0x1f\n        /* \"#utility.yul\":10328:10333   */\n      dup4\n        /* \"#utility.yul\":10324:10338   */\n      add\n        /* \"#utility.yul\":10320:10348   */\n      and\n        /* \"#utility.yul\":10310:10348   */\n      swap1\n      pop\n        /* \"#utility.yul\":10252:10354   */\n      swap2\n      swap1\n      pop\n      jump\t// out\n        /* \"#utility.yul\":10360:10585   */\n    tag_169:\n        /* \"#utility.yul\":10500:10534   */\n      0x4f776e61626c653a206e6577206f776e657220697320746865207a65726f2061\n        /* \"#utility.yul\":10496:10497   */\n      0x00\n        /* \"#utility.yul\":10488:10494   */\n      dup3\n        /* \"#utility.yul\":10484:10498   */\n      add\n        /* \"#utility.yul\":10477:10535   */\n      mstore\n        /* \"#utility.yul\":10569:10577   */\n      0x6464726573730000000000000000000000000000000000000000000000000000\n        /* \"#utility.yul\":10564:10566   */\n      0x20\n        /* \"#utility.yul\":10556:10562   */\n      dup3\n        /* \"#utility.yul\":10552:10567   */\n      add\n        /* \"#utility.yul\":10545:10578   */\n      mstore\n        /* \"#utility.yul\":10360:10585   */\n      pop\n      jump\t// out\n        /* \"#utility.yul\":10591:10816   */\n    tag_174:\n        /* \"#utility.yul\":10731:10765   */\n      0x416464726573733a20696e73756666696369656e742062616c616e636520666f\n        /* \"#utility.yul\":10727:10728   */\n      0x00\n        /* \"#utility.yul\":10719:10725   */\n      dup3\n        /* \"#utility.yul\":10715:10729   */\n      add\n        /* \"#utility.yul\":10708:10766   */\n      mstore\n        /* \"#utility.yul\":10800:10808   */\n      0x722063616c6c0000000000000000000000000000000000000000000000000000\n        /* \"#utility.yul\":10795:10797   */\n      0x20\n        /* \"#utility.yul\":10787:10793   */\n      dup3\n        /* \"#utility.yul\":10783:10798   */\n      add\n        /* \"#utility.yul\":10776:10809   */\n      mstore\n        /* \"#utility.yul\":10591:10816   */\n      pop\n      jump\t// out\n        /* \"#utility.yul\":10822:11004   */\n    tag_179:\n        /* \"#utility.yul\":10962:10996   */\n      0x4f776e61626c653a2063616c6c6572206973206e6f7420746865206f776e6572\n        /* \"#utility.yul\":10958:10959   */\n      0x00\n        /* \"#utility.yul\":10950:10956   */\n      dup3\n        /* \"#utility.yul\":10946:10960   */\n      add\n        /* \"#utility.yul\":10939:10997   */\n      mstore\n        /* \"#utility.yul\":10822:11004   */\n      pop\n      jump\t// out\n        /* \"#utility.yul\":11010:11189   */\n    tag_184:\n        /* \"#utility.yul\":11150:11181   */\n      0x416464726573733a2063616c6c20746f206e6f6e2d636f6e7472616374000000\n        /* \"#utility.yul\":11146:11147   */\n      0x00\n        /* \"#utility.yul\":11138:11144   */\n      dup3\n        /* \"#utility.yul\":11134:11148   */\n      add\n        /* \"#utility.yul\":11127:11182   */\n      mstore\n        /* \"#utility.yul\":11010:11189   */\n      pop\n      jump\t// out\n        /* \"#utility.yul\":11195:11424   */\n    tag_189:\n        /* \"#utility.yul\":11335:11369   */\n      0x5361666545524332303a204552433230206f7065726174696f6e20646964206e\n        /* \"#utility.yul\":11331:11332   */\n      0x00\n        /* \"#utility.yul\":11323:11329   */\n      dup3\n        /* \"#utility.yul\":11319:11333   */\n      add\n        /* \"#utility.yul\":11312:11370   */\n      mstore\n        /* \"#utility.yul\":11404:11416   */\n      0x6f74207375636365656400000000000000000000000000000000000000000000\n        /* \"#utility.yul\":11399:11401   */\n      0x20\n        /* \"#utility.yul\":11391:11397   */\n      dup3\n        /* \"#utility.yul\":11387:11402   */\n      add\n        /* \"#utility.yul\":11380:11417   */\n      mstore\n        /* \"#utility.yul\":11195:11424   */\n      pop\n      jump\t// out\n        /* \"#utility.yul\":11430:11552   */\n    tag_111:\n        /* \"#utility.yul\":11503:11527   */\n      tag_244\n        /* \"#utility.yul\":11521:11526   */\n      dup2\n        /* \"#utility.yul\":11503:11527   */\n      tag_147\n      jump\t// in\n    tag_244:\n        /* \"#utility.yul\":11496:11501   */\n      dup2\n        /* \"#utility.yul\":11493:11528   */\n      eq\n        /* \"#utility.yul\":11483:11546   */\n      tag_245\n      jumpi\n        /* \"#utility.yul\":11542:11543   */\n      0x00\n        /* \"#utility.yul\":11539:11540   */\n      dup1\n        /* \"#utility.yul\":11532:11544   */\n      revert\n        /* \"#utility.yul\":11483:11546   */\n    tag_245:\n        /* \"#utility.yul\":11430:11552   */\n      pop\n      jump\t// out\n        /* \"#utility.yul\":11558:11696   */\n    tag_115:\n        /* \"#utility.yul\":11639:11671   */\n      tag_247\n        /* \"#utility.yul\":11665:11670   */\n      dup2\n        /* \"#utility.yul\":11639:11671   */\n      tag_222\n      jump\t// in\n    tag_247:\n        /* \"#utility.yul\":11632:11637   */\n      dup2\n        /* \"#utility.yul\":11629:11672   */\n      eq\n        /* \"#utility.yul\":11619:11690   */\n      tag_248\n      jumpi\n        /* \"#utility.yul\":11686:11687   */\n      0x00\n        /* \"#utility.yul\":11683:11684   */\n      dup1\n        /* \"#utility.yul\":11676:11688   */\n      revert\n        /* \"#utility.yul\":11619:11690   */\n    tag_248:\n        /* \"#utility.yul\":11558:11696   */\n      pop\n      jump\t// out\n        /* \"#utility.yul\":11702:11818   */\n    tag_119:\n        /* \"#utility.yul\":11772:11793   */\n      tag_250\n        /* \"#utility.yul\":11787:11792   */\n      dup2\n        /* \"#utility.yul\":11772:11793   */\n      tag_225\n      jump\t// in\n    tag_250:\n        /* \"#utility.yul\":11765:11770   */\n      dup2\n        /* \"#utility.yul\":11762:11794   */\n      eq\n        /* \"#utility.yul\":11752:11812   */\n      tag_251\n      jumpi\n        /* \"#utility.yul\":11808:11809   */\n      0x00\n        /* \"#utility.yul\":11805:11806   */\n      dup1\n        /* \"#utility.yul\":11798:11810   */\n      revert\n        /* \"#utility.yul\":11752:11812   */\n    tag_251:\n        /* \"#utility.yul\":11702:11818   */\n      pop\n      jump\t// out\n        /* \"#utility.yul\":11824:11946   */\n    tag_123:\n        /* \"#utility.yul\":11897:11921   */\n      tag_253\n        /* \"#utility.yul\":11915:11920   */\n      dup2\n        /* \"#utility.yul\":11897:11921   */\n      tag_193\n      jump\t// in\n    tag_253:\n        /* \"#utility.yul\":11890:11895   */\n      dup2\n        /* \"#utility.yul\":11887:11922   */\n      eq\n        /* \"#utility.yul\":11877:11940   */\n      tag_254\n      jumpi\n        /* \"#utility.yul\":11936:11937   */\n      0x00\n        /* \"#utility.yul\":11933:11934   */\n      dup1\n        /* \"#utility.yul\":11926:11938   */\n      revert\n        /* \"#utility.yul\":11877:11940   */\n    tag_254:\n        /* \"#utility.yul\":11824:11946   */\n      pop\n      jump\t// out\n\n    auxdata: 0xa2646970667358221220397b3d97160d825de62ffc153e36e62e2ff33ee9b318d512937e188620ac30f764736f6c63430008070033\n}\n",
				"bytecode": {
					"linkReferences": {},
					"object": "608060405234801561001057600080fd5b5061002d61002261003260201b60201c565b61003a60201b60201c565b6100fe565b600033905090565b60008060009054906101000a900473ffffffffffffffffffffffffffffffffffffffff169050816000806101000a81548173ffffffffffffffffffffffffffffffffffffffff021916908373ffffffffffffffffffffffffffffffffffffffff1602179055508173ffffffffffffffffffffffffffffffffffffffff168173ffffffffffffffffffffffffffffffffffffffff167f8be0079c531659141344cd1fd0a4f28419497f9722a3daafe3b4186f6b6457e060405160405180910390a35050565b610ceb8061010d6000396000f3fe60806040526004361061004e5760003560e01c806307b18bde1461005a5780635e35359e14610083578063715018a6146100ac5780638da5cb5b146100c3578063f2fde38b146100ee57610055565b3661005557005b600080fd5b34801561006657600080fd5b50610081600480360381019061007c9190610731565b610117565b005b34801561008f57600080fd5b506100aa60048036038101906100a59190610771565b61016a565b005b3480156100b857600080fd5b506100c16101a2565b005b3480156100cf57600080fd5b506100d86101b6565b6040516100e5919061093f565b60405180910390f35b3480156100fa57600080fd5b5061011560048036038101906101109190610704565b6101df565b005b61011f610263565b8173ffffffffffffffffffffffffffffffffffffffff166108fc829081150290604051600060405180830381858888f19350505050158015610165573d6000803e3d6000fd5b505050565b610172610263565b61019d82828573ffffffffffffffffffffffffffffffffffffffff166102e19092919063ffffffff16565b505050565b6101aa610263565b6101b46000610367565b565b60008060009054906101000a900473ffffffffffffffffffffffffffffffffffffffff16905090565b6101e7610263565b600073ffffffffffffffffffffffffffffffffffffffff168173ffffffffffffffffffffffffffffffffffffffff161415610257576040517f08c379a000000000000000000000000000000000000000000000000000000000815260040161024e906109a5565b60405180910390fd5b61026081610367565b50565b61026b61042b565b73ffffffffffffffffffffffffffffffffffffffff166102896101b6565b73ffffffffffffffffffffffffffffffffffffffff16146102df576040517f08c379a00000000000000000000000000000000000000000000000000000000081526004016102d6906109e5565b60405180910390fd5b565b6103628363a9059cbb60e01b848460405160240161030092919061095a565b604051602081830303815290604052907bffffffffffffffffffffffffffffffffffffffffffffffffffffffff19166020820180517bffffffffffffffffffffffffffffffffffffffffffffffffffffffff8381831617835250505050610433565b505050565b60008060009054906101000a900473ffffffffffffffffffffffffffffffffffffffff169050816000806101000a81548173ffffffffffffffffffffffffffffffffffffffff021916908373ffffffffffffffffffffffffffffffffffffffff1602179055508173ffffffffffffffffffffffffffffffffffffffff168173ffffffffffffffffffffffffffffffffffffffff167f8be0079c531659141344cd1fd0a4f28419497f9722a3daafe3b4186f6b6457e060405160405180910390a35050565b600033905090565b6000610495826040518060400160405280602081526020017f5361666545524332303a206c6f772d6c6576656c2063616c6c206661696c65648152508573ffffffffffffffffffffffffffffffffffffffff166104fa9092919063ffffffff16565b90506000815111156104f557808060200190518101906104b591906107c4565b6104f4576040517f08c379a00000000000000000000000000000000000000000000000000000000081526004016104eb90610a25565b60405180910390fd5b5b505050565b60606105098484600085610512565b90509392505050565b606082471015610557576040517f08c379a000000000000000000000000000000000000000000000000000000000815260040161054e906109c5565b60405180910390fd5b61056085610626565b61059f576040517f08c379a000000000000000000000000000000000000000000000000000000000815260040161059690610a05565b60405180910390fd5b6000808673ffffffffffffffffffffffffffffffffffffffff1685876040516105c89190610928565b60006040518083038185875af1925050503d8060008114610605576040519150601f19603f3d011682016040523d82523d6000602084013e61060a565b606091505b509150915061061a828286610649565b92505050949350505050565b6000808273ffffffffffffffffffffffffffffffffffffffff163b119050919050565b60608315610659578290506106a9565b60008351111561066c5782518084602001fd5b816040517f08c379a00000000000000000000000000000000000000000000000000000000081526004016106a09190610983565b60405180910390fd5b9392505050565b6000813590506106bf81610c59565b92915050565b6000813590506106d481610c70565b92915050565b6000815190506106e981610c87565b92915050565b6000813590506106fe81610c9e565b92915050565b60006020828403121561071a57610719610b04565b5b6000610728848285016106b0565b91505092915050565b6000806040838503121561074857610747610b04565b5b6000610756858286016106c5565b9250506020610767858286016106ef565b9150509250929050565b60008060006060848603121561078a57610789610b04565b5b6000610798868287016106b0565b93505060206107a9868287016106b0565b92505060406107ba868287016106ef565b9150509250925092565b6000602082840312156107da576107d9610b04565b5b60006107e8848285016106da565b91505092915050565b6107fa81610a77565b82525050565b600061080b82610a45565b6108158185610a5b565b9350610825818560208601610ad1565b80840191505092915050565b600061083c82610a50565b6108468185610a66565b9350610856818560208601610ad1565b61085f81610b09565b840191505092915050565b6000610877602683610a66565b915061088282610b1a565b604082019050919050565b600061089a602683610a66565b91506108a582610b69565b604082019050919050565b60006108bd602083610a66565b91506108c882610bb8565b602082019050919050565b60006108e0601d83610a66565b91506108eb82610be1565b602082019050919050565b6000610903602a83610a66565b915061090e82610c0a565b604082019050919050565b61092281610ac7565b82525050565b60006109348284610800565b915081905092915050565b600060208201905061095460008301846107f1565b92915050565b600060408201905061096f60008301856107f1565b61097c6020830184610919565b9392505050565b6000602082019050818103600083015261099d8184610831565b905092915050565b600060208201905081810360008301526109be8161086a565b9050919050565b600060208201905081810360008301526109de8161088d565b9050919050565b600060208201905081810360008301526109fe816108b0565b9050919050565b60006020820190508181036000830152610a1e816108d3565b9050919050565b60006020820190508181036000830152610a3e816108f6565b9050919050565b600081519050919050565b600081519050919050565b600081905092915050565b600082825260208201905092915050565b6000610a8282610aa7565b9050919050565b6000610a9482610aa7565b9050919050565b60008115159050919050565b600073ffffffffffffffffffffffffffffffffffffffff82169050919050565b6000819050919050565b60005b83811015610aef578082015181840152602081019050610ad4565b83811115610afe576000848401525b50505050565b600080fd5b6000601f19601f8301169050919050565b7f4f776e61626c653a206e6577206f776e657220697320746865207a65726f206160008201527f6464726573730000000000000000000000000000000000000000000000000000602082015250565b7f416464726573733a20696e73756666696369656e742062616c616e636520666f60008201527f722063616c6c0000000000000000000000000000000000000000000000000000602082015250565b7f4f776e61626c653a2063616c6c6572206973206e6f7420746865206f776e6572600082015250565b7f416464726573733a2063616c6c20746f206e6f6e2d636f6e7472616374000000600082015250565b7f5361666545524332303a204552433230206f7065726174696f6e20646964206e60008201527f6f74207375636365656400000000000000000000000000000000000000000000602082015250565b610c6281610a77565b8114610c6d57600080fd5b50565b610c7981610a89565b8114610c8457600080fd5b50565b610c9081610a9b565b8114610c9b57600080fd5b50565b610ca781610ac7565b8114610cb257600080fd5b5056fea2646970667358221220397b3d97160d825de62ffc153e36e62e2ff33ee9b318d512937e188620ac30f764736f6c63430008070033",
					"opcodes": "PUSH1 0x80 PUSH1 0x40 MSTORE CALLVALUE DUP1 ISZERO PUSH2 0x10 JUMPI PUSH1 0x0 DUP1 REVERT JUMPDEST POP PUSH2 0x2D PUSH2 0x22 PUSH2 0x32 PUSH1 0x20 SHL PUSH1 0x20 SHR JUMP JUMPDEST PUSH2 0x3A PUSH1 0x20 SHL PUSH1 0x20 SHR JUMP JUMPDEST PUSH2 0xFE JUMP JUMPDEST PUSH1 0x0 CALLER SWAP1 POP SWAP1 JUMP JUMPDEST PUSH1 0x0 DUP1 PUSH1 0x0 SWAP1 SLOAD SWAP1 PUSH2 0x100 EXP SWAP1 DIV PUSH20 0xFFFFFFFFFFFFFFFFFFFFFFFFFFFFFFFFFFFFFFFF AND SWAP1 POP DUP2 PUSH1 0x0 DUP1 PUSH2 0x100 EXP DUP2 SLOAD DUP2 PUSH20 0xFFFFFFFFFFFFFFFFFFFFFFFFFFFFFFFFFFFFFFFF MUL NOT AND SWAP1 DUP4 PUSH20 0xFFFFFFFFFFFFFFFFFFFFFFFFFFFFFFFFFFFFFFFF AND MUL OR SWAP1 SSTORE POP DUP2 PUSH20 0xFFFFFFFFFFFFFFFFFFFFFFFFFFFFFFFFFFFFFFFF AND DUP2 PUSH20 0xFFFFFFFFFFFFFFFFFFFFFFFFFFFFFFFFFFFFFFFF AND PUSH32 0x8BE0079C531659141344CD1FD0A4F28419497F9722A3DAAFE3B4186F6B6457E0 PUSH1 0x40 MLOAD PUSH1 0x40 MLOAD DUP1 SWAP2 SUB SWAP1 LOG3 POP POP JUMP JUMPDEST PUSH2 0xCEB DUP1 PUSH2 0x10D PUSH1 0x0 CODECOPY PUSH1 0x0 RETURN INVALID PUSH1 0x80 PUSH1 0x40 MSTORE PUSH1 0x4 CALLDATASIZE LT PUSH2 0x4E JUMPI PUSH1 0x0 CALLDATALOAD PUSH1 0xE0 SHR DUP1 PUSH4 0x7B18BDE EQ PUSH2 0x5A JUMPI DUP1 PUSH4 0x5E35359E EQ PUSH2 0x83 JUMPI DUP1 PUSH4 0x715018A6 EQ PUSH2 0xAC JUMPI DUP1 PUSH4 0x8DA5CB5B EQ PUSH2 0xC3 JUMPI DUP1 PUSH4 0xF2FDE38B EQ PUSH2 0xEE JUMPI PUSH2 0x55 JUMP JUMPDEST CALLDATASIZE PUSH2 0x55 JUMPI STOP JUMPDEST PUSH1 0x0 DUP1 REVERT JUMPDEST CALLVALUE DUP1 ISZERO PUSH2 0x66 JUMPI PUSH1 0x0 DUP1 REVERT JUMPDEST POP PUSH2 0x81 PUSH1 0x4 DUP1 CALLDATASIZE SUB DUP2 ADD SWAP1 PUSH2 0x7C SWAP2 SWAP1 PUSH2 0x731 JUMP JUMPDEST PUSH2 0x117 JUMP JUMPDEST STOP JUMPDEST CALLVALUE DUP1 ISZERO PUSH2 0x8F JUMPI PUSH1 0x0 DUP1 REVERT JUMPDEST POP PUSH2 0xAA PUSH1 0x4 DUP1 CALLDATASIZE SUB DUP2 ADD SWAP1 PUSH2 0xA5 SWAP2 SWAP1 PUSH2 0x771 JUMP JUMPDEST PUSH2 0x16A JUMP JUMPDEST STOP JUMPDEST CALLVALUE DUP1 ISZERO PUSH2 0xB8 JUMPI PUSH1 0x0 DUP1 REVERT JUMPDEST POP PUSH2 0xC1 PUSH2 0x1A2 JUMP JUMPDEST STOP JUMPDEST CALLVALUE DUP1 ISZERO PUSH2 0xCF JUMPI PUSH1 0x0 DUP1 REVERT JUMPDEST POP PUSH2 0xD8 PUSH2 0x1B6 JUMP JUMPDEST PUSH1 0x40 MLOAD PUSH2 0xE5 SWAP2 SWAP1 PUSH2 0x93F JUMP JUMPDEST PUSH1 0x40 MLOAD DUP1 SWAP2 SUB SWAP1 RETURN JUMPDEST CALLVALUE DUP1 ISZERO PUSH2 0xFA JUMPI PUSH1 0x0 DUP1 REVERT JUMPDEST POP PUSH2 0x115 PUSH1 0x4 DUP1 CALLDATASIZE SUB DUP2 ADD SWAP1 PUSH2 0x110 SWAP2 SWAP1 PUSH2 0x704 JUMP JUMPDEST PUSH2 0x1DF JUMP JUMPDEST STOP JUMPDEST PUSH2 0x11F PUSH2 0x263 JUMP JUMPDEST DUP2 PUSH20 0xFFFFFFFFFFFFFFFFFFFFFFFFFFFFFFFFFFFFFFFF AND PUSH2 0x8FC DUP3 SWAP1 DUP2 ISZERO MUL SWAP1 PUSH1 0x40 MLOAD PUSH1 0x0 PUSH1 0x40 MLOAD DUP1 DUP4 SUB DUP2 DUP6 DUP9 DUP9 CALL SWAP4 POP POP POP POP ISZERO DUP1 ISZERO PUSH2 0x165 JUMPI RETURNDATASIZE PUSH1 0x0 DUP1 RETURNDATACOPY RETURNDATASIZE PUSH1 0x0 REVERT JUMPDEST POP POP POP JUMP JUMPDEST PUSH2 0x172 PUSH2 0x263 JUMP JUMPDEST PUSH2 0x19D DUP3 DUP3 DUP6 PUSH20 0xFFFFFFFFFFFFFFFFFFFFFFFFFFFFFFFFFFFFFFFF AND PUSH2 0x2E1 SWAP1 SWAP3 SWAP2 SWAP1 PUSH4 0xFFFFFFFF AND JUMP JUMPDEST POP POP POP JUMP JUMPDEST PUSH2 0x1AA PUSH2 0x263 JUMP JUMPDEST PUSH2 0x1B4 PUSH1 0x0 PUSH2 0x367 JUMP JUMPDEST JUMP JUMPDEST PUSH1 0x0 DUP1 PUSH1 0x0 SWAP1 SLOAD SWAP1 PUSH2 0x100 EXP SWAP1 DIV PUSH20 0xFFFFFFFFFFFFFFFFFFFFFFFFFFFFFFFFFFFFFFFF AND SWAP1 POP SWAP1 JUMP JUMPDEST PUSH2 0x1E7 PUSH2 0x263 JUMP JUMPDEST PUSH1 0x0 PUSH20 0xFFFFFFFFFFFFFFFFFFFFFFFFFFFFFFFFFFFFFFFF AND DUP2 PUSH20 0xFFFFFFFFFFFFFFFFFFFFFFFFFFFFFFFFFFFFFFFF AND EQ ISZERO PUSH2 0x257 JUMPI PUSH1 0x40 MLOAD PUSH32 0x8C379A000000000000000000000000000000000000000000000000000000000 DUP2 MSTORE PUSH1 0x4 ADD PUSH2 0x24E SWAP1 PUSH2 0x9A5 JUMP JUMPDEST PUSH1 0x40 MLOAD DUP1 SWAP2 SUB SWAP1 REVERT JUMPDEST PUSH2 0x260 DUP2 PUSH2 0x367 JUMP JUMPDEST POP JUMP JUMPDEST PUSH2 0x26B PUSH2 0x42B JUMP JUMPDEST PUSH20 0xFFFFFFFFFFFFFFFFFFFFFFFFFFFFFFFFFFFFFFFF AND PUSH2 0x289 PUSH2 0x1B6 JUMP JUMPDEST PUSH20 0xFFFFFFFFFFFFFFFFFFFFFFFFFFFFFFFFFFFFFFFF AND EQ PUSH2 0x2DF JUMPI PUSH1 0x40 MLOAD PUSH32 0x8C379A000000000000000000000000000000000000000000000000000000000 DUP2 MSTORE PUSH1 0x4 ADD PUSH2 0x2D6 SWAP1 PUSH2 0x9E5 JUMP JUMPDEST PUSH1 0x40 MLOAD DUP1 SWAP2 SUB SWAP1 REVERT JUMPDEST JUMP JUMPDEST PUSH2 0x362 DUP4 PUSH4 0xA9059CBB PUSH1 0xE0 SHL DUP5 DUP5 PUSH1 0x40 MLOAD PUSH1 0x24 ADD PUSH2 0x300 SWAP3 SWAP2 SWAP1 PUSH2 0x95A JUMP JUMPDEST PUSH1 0x40 MLOAD PUSH1 0x20 DUP2 DUP4 SUB SUB DUP2 MSTORE SWAP1 PUSH1 0x40 MSTORE SWAP1 PUSH28 0xFFFFFFFFFFFFFFFFFFFFFFFFFFFFFFFFFFFFFFFFFFFFFFFFFFFFFFFF NOT AND PUSH1 0x20 DUP3 ADD DUP1 MLOAD PUSH28 0xFFFFFFFFFFFFFFFFFFFFFFFFFFFFFFFFFFFFFFFFFFFFFFFFFFFFFFFF DUP4 DUP2 DUP4 AND OR DUP4 MSTORE POP POP POP POP PUSH2 0x433 JUMP JUMPDEST POP POP POP JUMP JUMPDEST PUSH1 0x0 DUP1 PUSH1 0x0 SWAP1 SLOAD SWAP1 PUSH2 0x100 EXP SWAP1 DIV PUSH20 0xFFFFFFFFFFFFFFFFFFFFFFFFFFFFFFFFFFFFFFFF AND SWAP1 POP DUP2 PUSH1 0x0 DUP1 PUSH2 0x100 EXP DUP2 SLOAD DUP2 PUSH20 0xFFFFFFFFFFFFFFFFFFFFFFFFFFFFFFFFFFFFFFFF MUL NOT AND SWAP1 DUP4 PUSH20 0xFFFFFFFFFFFFFFFFFFFFFFFFFFFFFFFFFFFFFFFF AND MUL OR SWAP1 SSTORE POP DUP2 PUSH20 0xFFFFFFFFFFFFFFFFFFFFFFFFFFFFFFFFFFFFFFFF AND DUP2 PUSH20 0xFFFFFFFFFFFFFFFFFFFFFFFFFFFFFFFFFFFFFFFF AND PUSH32 0x8BE0079C531659141344CD1FD0A4F28419497F9722A3DAAFE3B4186F6B6457E0 PUSH1 0x40 MLOAD PUSH1 0x40 MLOAD DUP1 SWAP2 SUB SWAP1 LOG3 POP POP JUMP JUMPDEST PUSH1 0x0 CALLER SWAP1 POP SWAP1 JUMP JUMPDEST PUSH1 0x0 PUSH2 0x495 DUP3 PUSH1 0x40 MLOAD DUP1 PUSH1 0x40 ADD PUSH1 0x40 MSTORE DUP1 PUSH1 0x20 DUP2 MSTORE PUSH1 0x20 ADD PUSH32 0x5361666545524332303A206C6F772D6C6576656C2063616C6C206661696C6564 DUP2 MSTORE POP DUP6 PUSH20 0xFFFFFFFFFFFFFFFFFFFFFFFFFFFFFFFFFFFFFFFF AND PUSH2 0x4FA SWAP1 SWAP3 SWAP2 SWAP1 PUSH4 0xFFFFFFFF AND JUMP JUMPDEST SWAP1 POP PUSH1 0x0 DUP2 MLOAD GT ISZERO PUSH2 0x4F5 JUMPI DUP1 DUP1 PUSH1 0x20 ADD SWAP1 MLOAD DUP2 ADD SWAP1 PUSH2 0x4B5 SWAP2 SWAP1 PUSH2 0x7C4 JUMP JUMPDEST PUSH2 0x4F4 JUMPI PUSH1 0x40 MLOAD PUSH32 0x8C379A000000000000000000000000000000000000000000000000000000000 DUP2 MSTORE PUSH1 0x4 ADD PUSH2 0x4EB SWAP1 PUSH2 0xA25 JUMP JUMPDEST PUSH1 0x40 MLOAD DUP1 SWAP2 SUB SWAP1 REVERT JUMPDEST JUMPDEST POP POP POP JUMP JUMPDEST PUSH1 0x60 PUSH2 0x509 DUP5 DUP5 PUSH1 0x0 DUP6 PUSH2 0x512 JUMP JUMPDEST SWAP1 POP SWAP4 SWAP3 POP POP POP JUMP JUMPDEST PUSH1 0x60 DUP3 SELFBALANCE LT ISZERO PUSH2 0x557 JUMPI PUSH1 0x40 MLOAD PUSH32 0x8C379A000000000000000000000000000000000000000000000000000000000 DUP2 MSTORE PUSH1 0x4 ADD PUSH2 0x54E SWAP1 PUSH2 0x9C5 JUMP JUMPDEST PUSH1 0x40 MLOAD DUP1 SWAP2 SUB SWAP1 REVERT JUMPDEST PUSH2 0x560 DUP6 PUSH2 0x626 JUMP JUMPDEST PUSH2 0x59F JUMPI PUSH1 0x40 MLOAD PUSH32 0x8C379A000000000000000000000000000000000000000000000000000000000 DUP2 MSTORE PUSH1 0x4 ADD PUSH2 0x596 SWAP1 PUSH2 0xA05 JUMP JUMPDEST PUSH1 0x40 MLOAD DUP1 SWAP2 SUB SWAP1 REVERT JUMPDEST PUSH1 0x0 DUP1 DUP7 PUSH20 0xFFFFFFFFFFFFFFFFFFFFFFFFFFFFFFFFFFFFFFFF AND DUP6 DUP8 PUSH1 0x40 MLOAD PUSH2 0x5C8 SWAP2 SWAP1 PUSH2 0x928 JUMP JUMPDEST PUSH1 0x0 PUSH1 0x40 MLOAD DUP1 DUP4 SUB DUP2 DUP6 DUP8 GAS CALL SWAP3 POP POP POP RETURNDATASIZE DUP1 PUSH1 0x0 DUP2 EQ PUSH2 0x605 JUMPI PUSH1 0x40 MLOAD SWAP2 POP PUSH1 0x1F NOT PUSH1 0x3F RETURNDATASIZE ADD AND DUP3 ADD PUSH1 0x40 MSTORE RETURNDATASIZE DUP3 MSTORE RETURNDATASIZE PUSH1 0x0 PUSH1 0x20 DUP5 ADD RETURNDATACOPY PUSH2 0x60A JUMP JUMPDEST PUSH1 0x60 SWAP2 POP JUMPDEST POP SWAP2 POP SWAP2 POP PUSH2 0x61A DUP3 DUP3 DUP7 PUSH2 0x649 JUMP JUMPDEST SWAP3 POP POP POP SWAP5 SWAP4 POP POP POP POP JUMP JUMPDEST PUSH1 0x0 DUP1 DUP3 PUSH20 0xFFFFFFFFFFFFFFFFFFFFFFFFFFFFFFFFFFFFFFFF AND EXTCODESIZE GT SWAP1 POP SWAP2 SWAP1 POP JUMP JUMPDEST PUSH1 0x60 DUP4 ISZERO PUSH2 0x659 JUMPI DUP3 SWAP1 POP PUSH2 0x6A9 JUMP JUMPDEST PUSH1 0x0 DUP4 MLOAD GT ISZERO PUSH2 0x66C JUMPI DUP3 MLOAD DUP1 DUP5 PUSH1 0x20 ADD REVERT JUMPDEST DUP2 PUSH1 0x40 MLOAD PUSH32 0x8C379A000000000000000000000000000000000000000000000000000000000 DUP2 MSTORE PUSH1 0x4 ADD PUSH2 0x6A0 SWAP2 SWAP1 PUSH2 0x983 JUMP JUMPDEST PUSH1 0x40 MLOAD DUP1 SWAP2 SUB SWAP1 REVERT JUMPDEST SWAP4 SWAP3 POP POP POP JUMP JUMPDEST PUSH1 0x0 DUP2 CALLDATALOAD SWAP1 POP PUSH2 0x6BF DUP2 PUSH2 0xC59 JUMP JUMPDEST SWAP3 SWAP2 POP POP JUMP JUMPDEST PUSH1 0x0 DUP2 CALLDATALOAD SWAP1 POP PUSH2 0x6D4 DUP2 PUSH2 0xC70 JUMP JUMPDEST SWAP3 SWAP2 POP POP JUMP JUMPDEST PUSH1 0x0 DUP2 MLOAD SWAP1 POP PUSH2 0x6E9 DUP2 PUSH2 0xC87 JUMP JUMPDEST SWAP3 SWAP2 POP POP JUMP JUMPDEST PUSH1 0x0 DUP2 CALLDATALOAD SWAP1 POP PUSH2 0x6FE DUP2 PUSH2 0xC9E JUMP JUMPDEST SWAP3 SWAP2 POP POP JUMP JUMPDEST PUSH1 0x0 PUSH1 0x20 DUP3 DUP5 SUB SLT ISZERO PUSH2 0x71A JUMPI PUSH2 0x719 PUSH2 0xB04 JUMP JUMPDEST JUMPDEST PUSH1 0x0 PUSH2 0x728 DUP5 DUP3 DUP6 ADD PUSH2 0x6B0 JUMP JUMPDEST SWAP2 POP POP SWAP3 SWAP2 POP POP JUMP JUMPDEST PUSH1 0x0 DUP1 PUSH1 0x40 DUP4 DUP6 SUB SLT ISZERO PUSH2 0x748 JUMPI PUSH2 0x747 PUSH2 0xB04 JUMP JUMPDEST JUMPDEST PUSH1 0x0 PUSH2 0x756 DUP6 DUP3 DUP7 ADD PUSH2 0x6C5 JUMP JUMPDEST SWAP3 POP POP PUSH1 0x20 PUSH2 0x767 DUP6 DUP3 DUP7 ADD PUSH2 0x6EF JUMP JUMPDEST SWAP2 POP POP SWAP3 POP SWAP3 SWAP1 POP JUMP JUMPDEST PUSH1 0x0 DUP1 PUSH1 0x0 PUSH1 0x60 DUP5 DUP7 SUB SLT ISZERO PUSH2 0x78A JUMPI PUSH2 0x789 PUSH2 0xB04 JUMP JUMPDEST JUMPDEST PUSH1 0x0 PUSH2 0x798 DUP7 DUP3 DUP8 ADD PUSH2 0x6B0 JUMP JUMPDEST SWAP4 POP POP PUSH1 0x20 PUSH2 0x7A9 DUP7 DUP3 DUP8 ADD PUSH2 0x6B0 JUMP JUMPDEST SWAP3 POP POP PUSH1 0x40 PUSH2 0x7BA DUP7 DUP3 DUP8 ADD PUSH2 0x6EF JUMP JUMPDEST SWAP2 POP POP SWAP3 POP SWAP3 POP SWAP3 JUMP JUMPDEST PUSH1 0x0 PUSH1 0x20 DUP3 DUP5 SUB SLT ISZERO PUSH2 0x7DA JUMPI PUSH2 0x7D9 PUSH2 0xB04 JUMP JUMPDEST JUMPDEST PUSH1 0x0 PUSH2 0x7E8 DUP5 DUP3 DUP6 ADD PUSH2 0x6DA JUMP JUMPDEST SWAP2 POP POP SWAP3 SWAP2 POP POP JUMP JUMPDEST PUSH2 0x7FA DUP2 PUSH2 0xA77 JUMP JUMPDEST DUP3 MSTORE POP POP JUMP JUMPDEST PUSH1 0x0 PUSH2 0x80B DUP3 PUSH2 0xA45 JUMP JUMPDEST PUSH2 0x815 DUP2 DUP6 PUSH2 0xA5B JUMP JUMPDEST SWAP4 POP PUSH2 0x825 DUP2 DUP6 PUSH1 0x20 DUP7 ADD PUSH2 0xAD1 JUMP JUMPDEST DUP1 DUP5 ADD SWAP2 POP POP SWAP3 SWAP2 POP POP JUMP JUMPDEST PUSH1 0x0 PUSH2 0x83C DUP3 PUSH2 0xA50 JUMP JUMPDEST PUSH2 0x846 DUP2 DUP6 PUSH2 0xA66 JUMP JUMPDEST SWAP4 POP PUSH2 0x856 DUP2 DUP6 PUSH1 0x20 DUP7 ADD PUSH2 0xAD1 JUMP JUMPDEST PUSH2 0x85F DUP2 PUSH2 0xB09 JUMP JUMPDEST DUP5 ADD SWAP2 POP POP SWAP3 SWAP2 POP POP JUMP JUMPDEST PUSH1 0x0 PUSH2 0x877 PUSH1 0x26 DUP4 PUSH2 0xA66 JUMP JUMPDEST SWAP2 POP PUSH2 0x882 DUP3 PUSH2 0xB1A JUMP JUMPDEST PUSH1 0x40 DUP3 ADD SWAP1 POP SWAP2 SWAP1 POP JUMP JUMPDEST PUSH1 0x0 PUSH2 0x89A PUSH1 0x26 DUP4 PUSH2 0xA66 JUMP JUMPDEST SWAP2 POP PUSH2 0x8A5 DUP3 PUSH2 0xB69 JUMP JUMPDEST PUSH1 0x40 DUP3 ADD SWAP1 POP SWAP2 SWAP1 POP JUMP JUMPDEST PUSH1 0x0 PUSH2 0x8BD PUSH1 0x20 DUP4 PUSH2 0xA66 JUMP JUMPDEST SWAP2 POP PUSH2 0x8C8 DUP3 PUSH2 0xBB8 JUMP JUMPDEST PUSH1 0x20 DUP3 ADD SWAP1 POP SWAP2 SWAP1 POP JUMP JUMPDEST PUSH1 0x0 PUSH2 0x8E0 PUSH1 0x1D DUP4 PUSH2 0xA66 JUMP JUMPDEST SWAP2 POP PUSH2 0x8EB DUP3 PUSH2 0xBE1 JUMP JUMPDEST PUSH1 0x20 DUP3 ADD SWAP1 POP SWAP2 SWAP1 POP JUMP JUMPDEST PUSH1 0x0 PUSH2 0x903 PUSH1 0x2A DUP4 PUSH2 0xA66 JUMP JUMPDEST SWAP2 POP PUSH2 0x90E DUP3 PUSH2 0xC0A JUMP JUMPDEST PUSH1 0x40 DUP3 ADD SWAP1 POP SWAP2 SWAP1 POP JUMP JUMPDEST PUSH2 0x922 DUP2 PUSH2 0xAC7 JUMP JUMPDEST DUP3 MSTORE POP POP JUMP JUMPDEST PUSH1 0x0 PUSH2 0x934 DUP3 DUP5 PUSH2 0x800 JUMP JUMPDEST SWAP2 POP DUP2 SWAP1 POP SWAP3 SWAP2 POP POP JUMP JUMPDEST PUSH1 0x0 PUSH1 0x20 DUP3 ADD SWAP1 POP PUSH2 0x954 PUSH1 0x0 DUP4 ADD DUP5 PUSH2 0x7F1 JUMP JUMPDEST SWAP3 SWAP2 POP POP JUMP JUMPDEST PUSH1 0x0 PUSH1 0x40 DUP3 ADD SWAP1 POP PUSH2 0x96F PUSH1 0x0 DUP4 ADD DUP6 PUSH2 0x7F1 JUMP JUMPDEST PUSH2 0x97C PUSH1 0x20 DUP4 ADD DUP5 PUSH2 0x919 JUMP JUMPDEST SWAP4 SWAP3 POP POP POP JUMP JUMPDEST PUSH1 0x0 PUSH1 0x20 DUP3 ADD SWAP1 POP DUP2 DUP2 SUB PUSH1 0x0 DUP4 ADD MSTORE PUSH2 0x99D DUP2 DUP5 PUSH2 0x831 JUMP JUMPDEST SWAP1 POP SWAP3 SWAP2 POP POP JUMP JUMPDEST PUSH1 0x0 PUSH1 0x20 DUP3 ADD SWAP1 POP DUP2 DUP2 SUB PUSH1 0x0 DUP4 ADD MSTORE PUSH2 0x9BE DUP2 PUSH2 0x86A JUMP JUMPDEST SWAP1 POP SWAP2 SWAP1 POP JUMP JUMPDEST PUSH1 0x0 PUSH1 0x20 DUP3 ADD SWAP1 POP DUP2 DUP2 SUB PUSH1 0x0 DUP4 ADD MSTORE PUSH2 0x9DE DUP2 PUSH2 0x88D JUMP JUMPDEST SWAP1 POP SWAP2 SWAP1 POP JUMP JUMPDEST PUSH1 0x0 PUSH1 0x20 DUP3 ADD SWAP1 POP DUP2 DUP2 SUB PUSH1 0x0 DUP4 ADD MSTORE PUSH2 0x9FE DUP2 PUSH2 0x8B0 JUMP JUMPDEST SWAP1 POP SWAP2 SWAP1 POP JUMP JUMPDEST PUSH1 0x0 PUSH1 0x20 DUP3 ADD SWAP1 POP DUP2 DUP2 SUB PUSH1 0x0 DUP4 ADD MSTORE PUSH2 0xA1E DUP2 PUSH2 0x8D3 JUMP JUMPDEST SWAP1 POP SWAP2 SWAP1 POP JUMP JUMPDEST PUSH1 0x0 PUSH1 0x20 DUP3 ADD SWAP1 POP DUP2 DUP2 SUB PUSH1 0x0 DUP4 ADD MSTORE PUSH2 0xA3E DUP2 PUSH2 0x8F6 JUMP JUMPDEST SWAP1 POP SWAP2 SWAP1 POP JUMP JUMPDEST PUSH1 0x0 DUP2 MLOAD SWAP1 POP SWAP2 SWAP1 POP JUMP JUMPDEST PUSH1 0x0 DUP2 MLOAD SWAP1 POP SWAP2 SWAP1 POP JUMP JUMPDEST PUSH1 0x0 DUP2 SWAP1 POP SWAP3 SWAP2 POP POP JUMP JUMPDEST PUSH1 0x0 DUP3 DUP3 MSTORE PUSH1 0x20 DUP3 ADD SWAP1 POP SWAP3 SWAP2 POP POP JUMP JUMPDEST PUSH1 0x0 PUSH2 0xA82 DUP3 PUSH2 0xAA7 JUMP JUMPDEST SWAP1 POP SWAP2 SWAP1 POP JUMP JUMPDEST PUSH1 0x0 PUSH2 0xA94 DUP3 PUSH2 0xAA7 JUMP JUMPDEST SWAP1 POP SWAP2 SWAP1 POP JUMP JUMPDEST PUSH1 0x0 DUP2 ISZERO ISZERO SWAP1 POP SWAP2 SWAP1 POP JUMP JUMPDEST PUSH1 0x0 PUSH20 0xFFFFFFFFFFFFFFFFFFFFFFFFFFFFFFFFFFFFFFFF DUP3 AND SWAP1 POP SWAP2 SWAP1 POP JUMP JUMPDEST PUSH1 0x0 DUP2 SWAP1 POP SWAP2 SWAP1 POP JUMP JUMPDEST PUSH1 0x0 JUMPDEST DUP4 DUP2 LT ISZERO PUSH2 0xAEF JUMPI DUP1 DUP3 ADD MLOAD DUP2 DUP5 ADD MSTORE PUSH1 0x20 DUP2 ADD SWAP1 POP PUSH2 0xAD4 JUMP JUMPDEST DUP4 DUP2 GT ISZERO PUSH2 0xAFE JUMPI PUSH1 0x0 DUP5 DUP5 ADD MSTORE JUMPDEST POP POP POP POP JUMP JUMPDEST PUSH1 0x0 DUP1 REVERT JUMPDEST PUSH1 0x0 PUSH1 0x1F NOT PUSH1 0x1F DUP4 ADD AND SWAP1 POP SWAP2 SWAP1 POP JUMP JUMPDEST PUSH32 0x4F776E61626C653A206E6577206F776E657220697320746865207A65726F2061 PUSH1 0x0 DUP3 ADD MSTORE PUSH32 0x6464726573730000000000000000000000000000000000000000000000000000 PUSH1 0x20 DUP3 ADD MSTORE POP JUMP JUMPDEST PUSH32 0x416464726573733A20696E73756666696369656E742062616C616E636520666F PUSH1 0x0 DUP3 ADD MSTORE PUSH32 0x722063616C6C0000000000000000000000000000000000000000000000000000 PUSH1 0x20 DUP3 ADD MSTORE POP JUMP JUMPDEST PUSH32 0x4F776E61626C653A2063616C6C6572206973206E6F7420746865206F776E6572 PUSH1 0x0 DUP3 ADD MSTORE POP JUMP JUMPDEST PUSH32 0x416464726573733A2063616C6C20746F206E6F6E2D636F6E7472616374000000 PUSH1 0x0 DUP3 ADD MSTORE POP JUMP JUMPDEST PUSH32 0x5361666545524332303A204552433230206F7065726174696F6E20646964206E PUSH1 0x0 DUP3 ADD MSTORE PUSH32 0x6F74207375636365656400000000000000000000000000000000000000000000 PUSH1 0x20 DUP3 ADD MSTORE POP JUMP JUMPDEST PUSH2 0xC62 DUP2 PUSH2 0xA77 JUMP JUMPDEST DUP2 EQ PUSH2 0xC6D JUMPI PUSH1 0x0 DUP1 REVERT JUMPDEST POP JUMP JUMPDEST PUSH2 0xC79 DUP2 PUSH2 0xA89 JUMP JUMPDEST DUP2 EQ PUSH2 0xC84 JUMPI PUSH1 0x0 DUP1 REVERT JUMPDEST POP JUMP JUMPDEST PUSH2 0xC90 DUP2 PUSH2 0xA9B JUMP JUMPDEST DUP2 EQ PUSH2 0xC9B JUMPI PUSH1 0x0 DUP1 REVERT JUMPDEST POP JUMP JUMPDEST PUSH2 0xCA7 DUP2 PUSH2 0xAC7 JUMP JUMPDEST DUP2 EQ PUSH2 0xCB2 JUMPI PUSH1 0x0 DUP1 REVERT JUMPDEST POP JUMP INVALID LOG2 PUSH5 0x6970667358 0x22 SLT KECCAK256 CODECOPY PUSH28 0x3D97160D825DE62FFC153E36E62E2FF33EE9B318D512937E188620AC ADDRESS 0xF7 PUSH5 0x736F6C6343 STOP ADDMOD SMOD STOP CALLER "
				},
				"gasEstimates": {
					"creation": {
						"codeDepositCost": "661400",
						"executionCost": "infinite",
						"totalCost": "infinite"
					},
					"external": {
						"owner()": "2566",
						"renounceOwnership()": "30420",
						"transferOwnership(address)": "30813",
						"withdrawNative(address,uint256)": "infinite",
						"withdrawTokens(address,address,uint256)": "infinite"
					}
				},
				"methodIdentifiers": {
					"owner()": "8da5cb5b",
					"renounceOwnership()": "715018a6",
					"transferOwnership(address)": "f2fde38b",
					"withdrawNative(address,uint256)": "07b18bde",
					"withdrawTokens(address,address,uint256)": "5e35359e"
				}
			},
			"storageLayout": {
				"storage": [
					{
						"astId": 645,
						"contract": "Treasury.sol:Treasury",
						"label": "_owner",
						"offset": 0,
						"slot": "0",
						"type": "t_address"
					}
				],
				"types": {
					"t_address": {
						"encoding": "inplace",
						"label": "address",
						"numberOfBytes": "20"
					}
				}
			},
			"userdoc": {
				"kind": "user",
				"methods": {},
				"version": 1
			}
		}
	}
}