{
	"infra/FeeBatch.sol": {
		"FeeBatch": {
			"abi": [
				{
					"anonymous": false,
					"inputs": [
						{
							"indexed": false,
							"internalType": "uint8",
							"name": "version",
							"type": "uint8"
						}
					],
					"name": "Initialized",
					"type": "event"
				},
				{
					"anonymous": false,
					"inputs": [
						{
							"indexed": false,
							"internalType": "address[]",
							"name": "oldRoute",
							"type": "address[]"
						},
						{
							"indexed": false,
							"internalType": "address[]",
							"name": "newRoute",
							"type": "address[]"
						}
					],
					"name": "NewGovTokenRoute",
					"type": "event"
				},
				{
					"anonymous": false,
					"inputs": [
						{
							"indexed": false,
							"internalType": "address",
							"name": "oldRewardPool",
							"type": "address"
						},
						{
							"indexed": false,
							"internalType": "address",
							"name": "newRewardPool",
							"type": "address"
						}
					],
					"name": "NewRewardPool",
					"type": "event"
				},
				{
					"anonymous": false,
					"inputs": [
						{
							"indexed": false,
							"internalType": "address",
							"name": "oldTreasury",
							"type": "address"
						},
						{
							"indexed": false,
							"internalType": "address",
							"name": "newTreasury",
							"type": "address"
						}
					],
					"name": "NewTreasury",
					"type": "event"
				},
				{
					"anonymous": false,
					"inputs": [
						{
							"indexed": false,
							"internalType": "address",
							"name": "oldUnirouter",
							"type": "address"
						},
						{
							"indexed": false,
							"internalType": "address",
							"name": "newUnirouter",
							"type": "address"
						}
					],
					"name": "NewUnirouter",
					"type": "event"
				},
				{
					"anonymous": false,
					"inputs": [
						{
							"indexed": true,
							"internalType": "address",
							"name": "previousOwner",
							"type": "address"
						},
						{
							"indexed": true,
							"internalType": "address",
							"name": "newOwner",
							"type": "address"
						}
					],
					"name": "OwnershipTransferred",
					"type": "event"
				},
				{
					"inputs": [],
					"name": "MAX_FEE",
					"outputs": [
						{
							"internalType": "uint256",
							"name": "",
							"type": "uint256"
						}
					],
					"stateMutability": "view",
					"type": "function"
				},
				{
					"inputs": [
						{
							"internalType": "uint256",
							"name": "_treasuryFee",
							"type": "uint256"
						}
					],
					"name": "changeTreasuryFee",
					"outputs": [],
					"stateMutability": "nonpayable",
					"type": "function"
				},
				{
					"inputs": [],
					"name": "govToken",
					"outputs": [
						{
							"internalType": "contract IERC20Upgradeable",
							"name": "",
							"type": "address"
						}
					],
					"stateMutability": "view",
					"type": "function"
				},
				{
					"inputs": [],
					"name": "harvest",
					"outputs": [],
					"stateMutability": "nonpayable",
					"type": "function"
				},
				{
					"inputs": [
						{
							"internalType": "address",
							"name": "_token",
							"type": "address"
						},
						{
							"internalType": "address",
							"name": "_recipient",
							"type": "address"
						}
					],
					"name": "inCaseTokensGetStuck",
					"outputs": [],
					"stateMutability": "nonpayable",
					"type": "function"
				},
				{
					"inputs": [
						{
							"internalType": "address",
							"name": "_unirouter",
							"type": "address"
						}
					],
					"name": "initRouter",
					"outputs": [],
					"stateMutability": "nonpayable",
					"type": "function"
				},
				{
					"inputs": [
						{
							"internalType": "address",
							"name": "_govToken",
							"type": "address"
						},
						{
							"internalType": "address",
							"name": "_wNative",
							"type": "address"
						},
						{
							"internalType": "address",
							"name": "_treasury",
							"type": "address"
						},
						{
							"internalType": "address",
							"name": "_rewardPool",
							"type": "address"
						},
						{
							"internalType": "address",
							"name": "_unirouter",
							"type": "address"
						}
					],
					"name": "initialize",
					"outputs": [],
					"stateMutability": "nonpayable",
					"type": "function"
				},
				{
					"inputs": [],
					"name": "owner",
					"outputs": [
						{
							"internalType": "address",
							"name": "",
							"type": "address"
						}
					],
					"stateMutability": "view",
					"type": "function"
				},
				{
					"inputs": [],
					"name": "renounceOwnership",
					"outputs": [],
					"stateMutability": "nonpayable",
					"type": "function"
				},
				{
					"inputs": [],
					"name": "rewardPool",
					"outputs": [
						{
							"internalType": "address",
							"name": "",
							"type": "address"
						}
					],
					"stateMutability": "view",
					"type": "function"
				},
				{
					"inputs": [],
					"name": "rewardPoolFee",
					"outputs": [
						{
							"internalType": "uint256",
							"name": "",
							"type": "uint256"
						}
					],
					"stateMutability": "view",
					"type": "function"
				},
				{
					"inputs": [],
					"name": "rewardPoolInitialized",
					"outputs": [
						{
							"internalType": "bool",
							"name": "",
							"type": "bool"
						}
					],
					"stateMutability": "view",
					"type": "function"
				},
				{
					"inputs": [],
					"name": "routerInitialized",
					"outputs": [
						{
							"internalType": "bool",
							"name": "",
							"type": "bool"
						}
					],
					"stateMutability": "view",
					"type": "function"
				},
				{
					"inputs": [
						{
							"internalType": "address[]",
							"name": "_route",
							"type": "address[]"
						}
					],
					"name": "setNativeToGovTokenRoute",
					"outputs": [],
					"stateMutability": "nonpayable",
					"type": "function"
				},
				{
					"inputs": [
						{
							"internalType": "address",
							"name": "_rewardPool",
							"type": "address"
						}
					],
					"name": "setRewardPool",
					"outputs": [],
					"stateMutability": "nonpayable",
					"type": "function"
				},
				{
					"inputs": [
						{
							"internalType": "address",
							"name": "_treasury",
							"type": "address"
						}
					],
					"name": "setTreasury",
					"outputs": [],
					"stateMutability": "nonpayable",
					"type": "function"
				},
				{
					"inputs": [
						{
							"internalType": "uint256",
							"name": "_fee",
							"type": "uint256"
						}
					],
					"name": "setTreasuryFee",
					"outputs": [],
					"stateMutability": "nonpayable",
					"type": "function"
				},
				{
					"inputs": [
						{
							"internalType": "address",
							"name": "_unirouter",
							"type": "address"
						}
					],
					"name": "setUnirouter",
					"outputs": [],
					"stateMutability": "nonpayable",
					"type": "function"
				},
				{
					"inputs": [
						{
							"internalType": "address",
							"name": "newOwner",
							"type": "address"
						}
					],
					"name": "transferOwnership",
					"outputs": [],
					"stateMutability": "nonpayable",
					"type": "function"
				},
				{
					"inputs": [
						{
							"internalType": "address",
							"name": "_newOwner",
							"type": "address"
						}
					],
					"name": "transferRewardPoolOwnership",
					"outputs": [],
					"stateMutability": "nonpayable",
					"type": "function"
				},
				{
					"inputs": [],
					"name": "treasury",
					"outputs": [
						{
							"internalType": "address",
							"name": "",
							"type": "address"
						}
					],
					"stateMutability": "view",
					"type": "function"
				},
				{
					"inputs": [],
					"name": "treasuryFee",
					"outputs": [
						{
							"internalType": "uint256",
							"name": "",
							"type": "uint256"
						}
					],
					"stateMutability": "view",
					"type": "function"
				},
				{
					"inputs": [],
					"name": "unirouter",
					"outputs": [
						{
							"internalType": "address",
							"name": "",
							"type": "address"
						}
					],
					"stateMutability": "view",
					"type": "function"
				},
				{
					"inputs": [],
					"name": "wNative",
					"outputs": [
						{
							"internalType": "contract IERC20Upgradeable",
							"name": "",
							"type": "address"
						}
					],
					"stateMutability": "view",
					"type": "function"
				},
				{
					"inputs": [
						{
							"internalType": "uint256",
							"name": "",
							"type": "uint256"
						}
					],
					"name": "wNativeToGovTokenRoute",
					"outputs": [
						{
							"internalType": "address",
							"name": "",
							"type": "address"
						}
					],
					"stateMutability": "view",
					"type": "function"
				},
				{
					"stateMutability": "payable",
					"type": "receive"
				}
			],
			"devdoc": {
				"kind": "dev",
				"methods": {
					"owner()": {
						"details": "Returns the address of the current owner."
					},
					"renounceOwnership()": {
						"details": "Leaves the contract without owner. It will not be possible to call `onlyOwner` functions anymore. Can only be called by the current owner. NOTE: Renouncing ownership will leave the contract without an owner, thereby removing any functionality that is only available to the owner."
					},
					"transferOwnership(address)": {
						"details": "Transfers ownership of the contract to a new account (`newOwner`). Can only be called by the current owner."
					}
				},
				"version": 1
			},
			"evm": {
				"assembly": "    /* \"infra/FeeBatch.sol\":772:5461  contract FeeBatch is Initializable, OwnableUpgradeable {... */\n  mstore(0x40, 0x80)\n  callvalue\n  dup1\n  iszero\n  tag_1\n  jumpi\n  0x00\n  dup1\n  revert\ntag_1:\n  pop\n  dataSize(sub_0)\n  dup1\n  dataOffset(sub_0)\n  0x00\n  codecopy\n  0x00\n  return\nstop\n\nsub_0: assembly {\n        /* \"infra/FeeBatch.sol\":772:5461  contract FeeBatch is Initializable, OwnableUpgradeable {... */\n      mstore(0x40, 0x80)\n      jumpi(tag_1, lt(calldatasize, 0x04))\n      shr(0xe0, calldataload(0x00))\n      dup1\n      0x715018a6\n      gt\n      tag_28\n      jumpi\n      dup1\n      0xbde46e7c\n      gt\n      tag_29\n      jumpi\n      dup1\n      0xd0debecc\n      gt\n      tag_30\n      jumpi\n      dup1\n      0xd0debecc\n      eq\n      tag_24\n      jumpi\n      dup1\n      0xd92f3d73\n      eq\n      tag_25\n      jumpi\n      dup1\n      0xf0f44260\n      eq\n      tag_26\n      jumpi\n      dup1\n      0xf2fde38b\n      eq\n      tag_27\n      jumpi\n      jump(tag_2)\n    tag_30:\n      dup1\n      0xbde46e7c\n      eq\n      tag_21\n      jumpi\n      dup1\n      0xc6854db8\n      eq\n      tag_22\n      jumpi\n      dup1\n      0xcc32d176\n      eq\n      tag_23\n      jumpi\n      jump(tag_2)\n    tag_29:\n      dup1\n      0x715018a6\n      eq\n      tag_15\n      jumpi\n      dup1\n      0x77e741c7\n      eq\n      tag_16\n      jumpi\n      dup1\n      0x78238c37\n      eq\n      tag_17\n      jumpi\n      dup1\n      0x8da5cb5b\n      eq\n      tag_18\n      jumpi\n      dup1\n      0xb931666b\n      eq\n      tag_19\n      jumpi\n      dup1\n      0xbc063e1a\n      eq\n      tag_20\n      jumpi\n      jump(tag_2)\n    tag_28:\n      dup1\n      0x2d68efc9\n      gt\n      tag_31\n      jumpi\n      dup1\n      0x2d68efc9\n      eq\n      tag_9\n      jumpi\n      dup1\n      0x4641257d\n      eq\n      tag_10\n      jumpi\n      dup1\n      0x4708dd5e\n      eq\n      tag_11\n      jumpi\n      dup1\n      0x61d027b3\n      eq\n      tag_12\n      jumpi\n      dup1\n      0x66666aa9\n      eq\n      tag_13\n      jumpi\n      dup1\n      0x6a369c86\n      eq\n      tag_14\n      jumpi\n      jump(tag_2)\n    tag_31:\n      dup1\n      0x05268cff\n      eq\n      tag_3\n      jumpi\n      dup1\n      0x1166b44b\n      eq\n      tag_4\n      jumpi\n      dup1\n      0x1459457a\n      eq\n      tag_5\n      jumpi\n      dup1\n      0x1939bbc1\n      eq\n      tag_6\n      jumpi\n      dup1\n      0x257ae0de\n      eq\n      tag_7\n      jumpi\n      dup1\n      0x2bd63831\n      eq\n      tag_8\n      jumpi\n      jump(tag_2)\n    tag_1:\n      jumpi(tag_2, calldatasize)\n      stop\n    tag_2:\n      0x00\n      dup1\n      revert\n        /* \"infra/FeeBatch.sol\":926:959  IERC20Upgradeable public govToken */\n    tag_3:\n      callvalue\n      dup1\n      iszero\n      tag_34\n      jumpi\n      0x00\n      dup1\n      revert\n    tag_34:\n      pop\n      tag_35\n      tag_36\n      jump\t// in\n    tag_35:\n      mload(0x40)\n      tag_37\n      swap2\n      swap1\n      tag_38\n      jump\t// in\n    tag_37:\n      mload(0x40)\n      dup1\n      swap2\n      sub\n      swap1\n      return\n        /* \"infra/FeeBatch.sol\":3812:3909  function initRouter(address _unirouter) public onlyOwner {... */\n    tag_4:\n      callvalue\n      dup1\n      iszero\n      tag_39\n      jumpi\n      0x00\n      dup1\n      revert\n    tag_39:\n      pop\n      tag_40\n      0x04\n      dup1\n      calldatasize\n      sub\n      dup2\n      add\n      swap1\n      tag_41\n      swap2\n      swap1\n      tag_42\n      jump\t// in\n    tag_41:\n      tag_43\n      jump\t// in\n    tag_40:\n      stop\n        /* \"infra/FeeBatch.sol\":1574:2280  function initialize(... */\n    tag_5:\n      callvalue\n      dup1\n      iszero\n      tag_44\n      jumpi\n      0x00\n      dup1\n      revert\n    tag_44:\n      pop\n      tag_45\n      0x04\n      dup1\n      calldatasize\n      sub\n      dup2\n      add\n      swap1\n      tag_46\n      swap2\n      swap1\n      tag_47\n      jump\t// in\n    tag_46:\n      tag_48\n      jump\t// in\n    tag_45:\n      stop\n        /* \"infra/FeeBatch.sol\":4982:5274  function inCaseTokensGetStuck(address _token, address _recipient) external onlyOwner {... */\n    tag_6:\n      callvalue\n      dup1\n      iszero\n      tag_49\n      jumpi\n      0x00\n      dup1\n      revert\n    tag_49:\n      pop\n      tag_50\n      0x04\n      dup1\n      calldatasize\n      sub\n      dup2\n      add\n      swap1\n      tag_51\n      swap2\n      swap1\n      tag_52\n      jump\t// in\n    tag_51:\n      tag_53\n      jump\t// in\n    tag_50:\n      stop\n        /* \"infra/FeeBatch.sol\":1025:1049  address public unirouter */\n    tag_7:\n      callvalue\n      dup1\n      iszero\n      tag_54\n      jumpi\n      0x00\n      dup1\n      revert\n    tag_54:\n      pop\n      tag_55\n      tag_56\n      jump\t// in\n    tag_55:\n      mload(0x40)\n      tag_57\n      swap2\n      swap1\n      tag_58\n      jump\t// in\n    tag_57:\n      mload(0x40)\n      dup1\n      swap2\n      sub\n      swap1\n      return\n        /* \"infra/FeeBatch.sol\":1225:1254  bool public routerInitialized */\n    tag_8:\n      callvalue\n      dup1\n      iszero\n      tag_59\n      jumpi\n      0x00\n      dup1\n      revert\n    tag_59:\n      pop\n      tag_60\n      tag_61\n      jump\t// in\n    tag_60:\n      mload(0x40)\n      tag_62\n      swap2\n      swap1\n      tag_63\n      jump\t// in\n    tag_62:\n      mload(0x40)\n      dup1\n      swap2\n      sub\n      swap1\n      return\n        /* \"infra/FeeBatch.sol\":888:920  IERC20Upgradeable public wNative */\n    tag_9:\n      callvalue\n      dup1\n      iszero\n      tag_64\n      jumpi\n      0x00\n      dup1\n      revert\n    tag_64:\n      pop\n      tag_65\n      tag_66\n      jump\t// in\n    tag_65:\n      mload(0x40)\n      tag_67\n      swap2\n      swap1\n      tag_38\n      jump\t// in\n    tag_67:\n      mload(0x40)\n      dup1\n      swap2\n      sub\n      swap1\n      return\n        /* \"infra/FeeBatch.sol\":2332:3311  function harvest() public {... */\n    tag_10:\n      callvalue\n      dup1\n      iszero\n      tag_68\n      jumpi\n      0x00\n      dup1\n      revert\n    tag_68:\n      pop\n      tag_69\n      tag_70\n      jump\t// in\n    tag_69:\n      stop\n        /* \"infra/FeeBatch.sol\":5280:5424  function transferRewardPoolOwnership(address _newOwner) external onlyOwner {... */\n    tag_11:\n      callvalue\n      dup1\n      iszero\n      tag_71\n      jumpi\n      0x00\n      dup1\n      revert\n    tag_71:\n      pop\n      tag_72\n      0x04\n      dup1\n      calldatasize\n      sub\n      dup2\n      add\n      swap1\n      tag_73\n      swap2\n      swap1\n      tag_42\n      jump\t// in\n    tag_73:\n      tag_74\n      jump\t// in\n    tag_72:\n      stop\n        /* \"infra/FeeBatch.sol\":965:988  address public treasury */\n    tag_12:\n      callvalue\n      dup1\n      iszero\n      tag_75\n      jumpi\n      0x00\n      dup1\n      revert\n    tag_75:\n      pop\n      tag_76\n      tag_77\n      jump\t// in\n    tag_76:\n      mload(0x40)\n      tag_78\n      swap2\n      swap1\n      tag_58\n      jump\t// in\n    tag_78:\n      mload(0x40)\n      dup1\n      swap2\n      sub\n      swap1\n      return\n        /* \"infra/FeeBatch.sol\":994:1019  address public rewardPool */\n    tag_13:\n      callvalue\n      dup1\n      iszero\n      tag_79\n      jumpi\n      0x00\n      dup1\n      revert\n    tag_79:\n      pop\n      tag_80\n      tag_81\n      jump\t// in\n    tag_80:\n      mload(0x40)\n      tag_82\n      swap2\n      swap1\n      tag_58\n      jump\t// in\n    tag_82:\n      mload(0x40)\n      dup1\n      swap2\n      sub\n      swap1\n      return\n        /* \"infra/FeeBatch.sol\":4419:4743  function setNativeToGovTokenRoute(address[] memory _route) external onlyOwner {... */\n    tag_14:\n      callvalue\n      dup1\n      iszero\n      tag_83\n      jumpi\n      0x00\n      dup1\n      revert\n    tag_83:\n      pop\n      tag_84\n      0x04\n      dup1\n      calldatasize\n      sub\n      dup2\n      add\n      swap1\n      tag_85\n      swap2\n      swap1\n      tag_86\n      jump\t// in\n    tag_85:\n      tag_87\n      jump\t// in\n    tag_84:\n      stop\n        /* \"@openzeppelin/contracts-upgradeable/access/OwnableUpgradeable.sol\":2071:2172  function renounceOwnership() public virtual onlyOwner {... */\n    tag_15:\n      callvalue\n      dup1\n      iszero\n      tag_88\n      jumpi\n      0x00\n      dup1\n      revert\n    tag_88:\n      pop\n      tag_89\n      tag_90\n      jump\t// in\n    tag_89:\n      stop\n        /* \"infra/FeeBatch.sol\":4749:4929  function setTreasuryFee(uint256 _fee) public onlyOwner {... */\n    tag_16:\n      callvalue\n      dup1\n      iszero\n      tag_91\n      jumpi\n      0x00\n      dup1\n      revert\n    tag_91:\n      pop\n      tag_92\n      0x04\n      dup1\n      calldatasize\n      sub\n      dup2\n      add\n      swap1\n      tag_93\n      swap2\n      swap1\n      tag_94\n      jump\t// in\n    tag_93:\n      tag_95\n      jump\t// in\n    tag_92:\n      stop\n        /* \"infra/FeeBatch.sol\":3462:3657  function setRewardPool(address _rewardPool) external onlyOwner {... */\n    tag_17:\n      callvalue\n      dup1\n      iszero\n      tag_96\n      jumpi\n      0x00\n      dup1\n      revert\n    tag_96:\n      pop\n      tag_97\n      0x04\n      dup1\n      calldatasize\n      sub\n      dup2\n      add\n      swap1\n      tag_98\n      swap2\n      swap1\n      tag_42\n      jump\t// in\n    tag_98:\n      tag_99\n      jump\t// in\n    tag_97:\n      stop\n        /* \"@openzeppelin/contracts-upgradeable/access/OwnableUpgradeable.sol\":1441:1526  function owner() public view virtual returns (address) {... */\n    tag_18:\n      callvalue\n      dup1\n      iszero\n      tag_100\n      jumpi\n      0x00\n      dup1\n      revert\n    tag_100:\n      pop\n      tag_101\n      tag_102\n      jump\t// in\n    tag_101:\n      mload(0x40)\n      tag_103\n      swap2\n      swap1\n      tag_58\n      jump\t// in\n    tag_103:\n      mload(0x40)\n      dup1\n      swap2\n      sub\n      swap1\n      return\n        /* \"infra/FeeBatch.sol\":3317:3428  function changeTreasuryFee(uint256 _treasuryFee) external onlyOwner {... */\n    tag_19:\n      callvalue\n      dup1\n      iszero\n      tag_104\n      jumpi\n      0x00\n      dup1\n      revert\n    tag_104:\n      pop\n      tag_105\n      0x04\n      dup1\n      calldatasize\n      sub\n      dup2\n      add\n      swap1\n      tag_106\n      swap2\n      swap1\n      tag_94\n      jump\t// in\n    tag_106:\n      tag_107\n      jump\t// in\n    tag_105:\n      stop\n        /* \"infra/FeeBatch.sol\":1077:1112  uint constant public MAX_FEE = 1000 */\n    tag_20:\n      callvalue\n      dup1\n      iszero\n      tag_108\n      jumpi\n      0x00\n      dup1\n      revert\n    tag_108:\n      pop\n      tag_109\n      tag_110\n      jump\t// in\n    tag_109:\n      mload(0x40)\n      tag_111\n      swap2\n      swap1\n      tag_112\n      jump\t// in\n    tag_111:\n      mload(0x40)\n      dup1\n      swap2\n      sub\n      swap1\n      return\n        /* \"infra/FeeBatch.sol\":1179:1218  address[] public wNativeToGovTokenRoute */\n    tag_21:\n      callvalue\n      dup1\n      iszero\n      tag_113\n      jumpi\n      0x00\n      dup1\n      revert\n    tag_113:\n      pop\n      tag_114\n      0x04\n      dup1\n      calldatasize\n      sub\n      dup2\n      add\n      swap1\n      tag_115\n      swap2\n      swap1\n      tag_94\n      jump\t// in\n    tag_115:\n      tag_116\n      jump\t// in\n    tag_114:\n      mload(0x40)\n      tag_117\n      swap2\n      swap1\n      tag_58\n      jump\t// in\n    tag_117:\n      mload(0x40)\n      dup1\n      swap2\n      sub\n      swap1\n      return\n        /* \"infra/FeeBatch.sol\":1147:1172  uint public rewardPoolFee */\n    tag_22:\n      callvalue\n      dup1\n      iszero\n      tag_118\n      jumpi\n      0x00\n      dup1\n      revert\n    tag_118:\n      pop\n      tag_119\n      tag_120\n      jump\t// in\n    tag_119:\n      mload(0x40)\n      tag_121\n      swap2\n      swap1\n      tag_112\n      jump\t// in\n    tag_121:\n      mload(0x40)\n      dup1\n      swap2\n      sub\n      swap1\n      return\n        /* \"infra/FeeBatch.sol\":1118:1141  uint public treasuryFee */\n    tag_23:\n      callvalue\n      dup1\n      iszero\n      tag_122\n      jumpi\n      0x00\n      dup1\n      revert\n    tag_122:\n      pop\n      tag_123\n      tag_124\n      jump\t// in\n    tag_123:\n      mload(0x40)\n      tag_125\n      swap2\n      swap1\n      tag_112\n      jump\t// in\n    tag_125:\n      mload(0x40)\n      dup1\n      swap2\n      sub\n      swap1\n      return\n        /* \"infra/FeeBatch.sol\":1260:1293  bool public rewardPoolInitialized */\n    tag_24:\n      callvalue\n      dup1\n      iszero\n      tag_126\n      jumpi\n      0x00\n      dup1\n      revert\n    tag_126:\n      pop\n      tag_127\n      tag_128\n      jump\t// in\n    tag_127:\n      mload(0x40)\n      tag_129\n      swap2\n      swap1\n      tag_63\n      jump\t// in\n    tag_129:\n      mload(0x40)\n      dup1\n      swap2\n      sub\n      swap1\n      return\n        /* \"infra/FeeBatch.sol\":4100:4413  function setUnirouter(address _unirouter) external onlyOwner {... */\n    tag_25:\n      callvalue\n      dup1\n      iszero\n      tag_130\n      jumpi\n      0x00\n      dup1\n      revert\n    tag_130:\n      pop\n      tag_131\n      0x04\n      dup1\n      calldatasize\n      sub\n      dup2\n      add\n      swap1\n      tag_132\n      swap2\n      swap1\n      tag_42\n      jump\t// in\n    tag_132:\n      tag_133\n      jump\t// in\n    tag_131:\n      stop\n        /* \"infra/FeeBatch.sol\":3663:3806  function setTreasury(address _treasury) external onlyOwner {... */\n    tag_26:\n      callvalue\n      dup1\n      iszero\n      tag_134\n      jumpi\n      0x00\n      dup1\n      revert\n    tag_134:\n      pop\n      tag_135\n      0x04\n      dup1\n      calldatasize\n      sub\n      dup2\n      add\n      swap1\n      tag_136\n      swap2\n      swap1\n      tag_42\n      jump\t// in\n    tag_136:\n      tag_137\n      jump\t// in\n    tag_135:\n      stop\n        /* \"@openzeppelin/contracts-upgradeable/access/OwnableUpgradeable.sol\":2321:2519  function transferOwnership(address newOwner) public virtual onlyOwner {... */\n    tag_27:\n      callvalue\n      dup1\n      iszero\n      tag_138\n      jumpi\n      0x00\n      dup1\n      revert\n    tag_138:\n      pop\n      tag_139\n      0x04\n      dup1\n      calldatasize\n      sub\n      dup2\n      add\n      swap1\n      tag_140\n      swap2\n      swap1\n      tag_42\n      jump\t// in\n    tag_140:\n      tag_141\n      jump\t// in\n    tag_139:\n      stop\n        /* \"infra/FeeBatch.sol\":926:959  IERC20Upgradeable public govToken */\n    tag_36:\n      0x66\n      0x00\n      swap1\n      sload\n      swap1\n      0x0100\n      exp\n      swap1\n      div\n      0xffffffffffffffffffffffffffffffffffffffff\n      and\n      dup2\n      jump\t// out\n        /* \"infra/FeeBatch.sol\":3812:3909  function initRouter(address _unirouter) public onlyOwner {... */\n    tag_43:\n        /* \"@openzeppelin/contracts-upgradeable/access/OwnableUpgradeable.sol\":1334:1347  _checkOwner() */\n      tag_143\n        /* \"@openzeppelin/contracts-upgradeable/access/OwnableUpgradeable.sol\":1334:1345  _checkOwner */\n      tag_144\n        /* \"@openzeppelin/contracts-upgradeable/access/OwnableUpgradeable.sol\":1334:1347  _checkOwner() */\n      jump\t// in\n    tag_143:\n        /* \"infra/FeeBatch.sol\":3879:3902  _initRouter(_unirouter) */\n      tag_146\n        /* \"infra/FeeBatch.sol\":3891:3901  _unirouter */\n      dup2\n        /* \"infra/FeeBatch.sol\":3879:3890  _initRouter */\n      tag_147\n        /* \"infra/FeeBatch.sol\":3879:3902  _initRouter(_unirouter) */\n      jump\t// in\n    tag_146:\n        /* \"infra/FeeBatch.sol\":3812:3909  function initRouter(address _unirouter) public onlyOwner {... */\n      pop\n      jump\t// out\n        /* \"infra/FeeBatch.sol\":1574:2280  function initialize(... */\n    tag_48:\n        /* \"@openzeppelin/contracts-upgradeable/proxy/utils/Initializable.sol\":3111:3130  bool isTopLevelCall */\n      0x00\n        /* \"@openzeppelin/contracts-upgradeable/proxy/utils/Initializable.sol\":3134:3147  _initializing */\n      dup1\n      0x01\n      swap1\n      sload\n      swap1\n      0x0100\n      exp\n      swap1\n      div\n      0xff\n      and\n        /* \"@openzeppelin/contracts-upgradeable/proxy/utils/Initializable.sol\":3133:3147  !_initializing */\n      iszero\n        /* \"@openzeppelin/contracts-upgradeable/proxy/utils/Initializable.sol\":3111:3147  bool isTopLevelCall = !_initializing */\n      swap1\n      pop\n        /* \"@openzeppelin/contracts-upgradeable/proxy/utils/Initializable.sol\":3179:3193  isTopLevelCall */\n      dup1\n        /* \"@openzeppelin/contracts-upgradeable/proxy/utils/Initializable.sol\":3179:3213  isTopLevelCall && _initialized < 1 */\n      dup1\n      iszero\n      tag_149\n      jumpi\n      pop\n        /* \"@openzeppelin/contracts-upgradeable/proxy/utils/Initializable.sol\":3212:3213  1 */\n      0x01\n        /* \"@openzeppelin/contracts-upgradeable/proxy/utils/Initializable.sol\":3197:3209  _initialized */\n      0x00\n      dup1\n      sload\n      swap1\n      0x0100\n      exp\n      swap1\n      div\n      0xff\n      and\n        /* \"@openzeppelin/contracts-upgradeable/proxy/utils/Initializable.sol\":3197:3213  _initialized < 1 */\n      0xff\n      and\n      lt\n        /* \"@openzeppelin/contracts-upgradeable/proxy/utils/Initializable.sol\":3179:3213  isTopLevelCall && _initialized < 1 */\n    tag_149:\n        /* \"@openzeppelin/contracts-upgradeable/proxy/utils/Initializable.sol\":3178:3286  (isTopLevelCall && _initialized < 1) || (!AddressUpgradeable.isContract(address(this)) && _initialized == 1) */\n      dup1\n      tag_150\n      jumpi\n      pop\n        /* \"@openzeppelin/contracts-upgradeable/proxy/utils/Initializable.sol\":3220:3264  AddressUpgradeable.isContract(address(this)) */\n      tag_151\n        /* \"@openzeppelin/contracts-upgradeable/proxy/utils/Initializable.sol\":3258:3262  this */\n      address\n        /* \"@openzeppelin/contracts-upgradeable/proxy/utils/Initializable.sol\":3220:3249  AddressUpgradeable.isContract */\n      tag_152\n        /* \"@openzeppelin/contracts-upgradeable/proxy/utils/Initializable.sol\":3220:3264  AddressUpgradeable.isContract(address(this)) */\n      jump\t// in\n    tag_151:\n        /* \"@openzeppelin/contracts-upgradeable/proxy/utils/Initializable.sol\":3219:3264  !AddressUpgradeable.isContract(address(this)) */\n      iszero\n        /* \"@openzeppelin/contracts-upgradeable/proxy/utils/Initializable.sol\":3219:3285  !AddressUpgradeable.isContract(address(this)) && _initialized == 1 */\n      dup1\n      iszero\n      tag_153\n      jumpi\n      pop\n        /* \"@openzeppelin/contracts-upgradeable/proxy/utils/Initializable.sol\":3284:3285  1 */\n      0x01\n        /* \"@openzeppelin/contracts-upgradeable/proxy/utils/Initializable.sol\":3268:3280  _initialized */\n      0x00\n      dup1\n      sload\n      swap1\n      0x0100\n      exp\n      swap1\n      div\n      0xff\n      and\n        /* \"@openzeppelin/contracts-upgradeable/proxy/utils/Initializable.sol\":3268:3285  _initialized == 1 */\n      0xff\n      and\n      eq\n        /* \"@openzeppelin/contracts-upgradeable/proxy/utils/Initializable.sol\":3219:3285  !AddressUpgradeable.isContract(address(this)) && _initialized == 1 */\n    tag_153:\n        /* \"@openzeppelin/contracts-upgradeable/proxy/utils/Initializable.sol\":3178:3286  (isTopLevelCall && _initialized < 1) || (!AddressUpgradeable.isContract(address(this)) && _initialized == 1) */\n    tag_150:\n        /* \"@openzeppelin/contracts-upgradeable/proxy/utils/Initializable.sol\":3157:3358  require(... */\n      tag_154\n      jumpi\n      mload(0x40)\n      0x08c379a000000000000000000000000000000000000000000000000000000000\n      dup2\n      mstore\n      0x04\n      add\n      tag_155\n      swap1\n      tag_156\n      jump\t// in\n    tag_155:\n      mload(0x40)\n      dup1\n      swap2\n      sub\n      swap1\n      revert\n    tag_154:\n        /* \"@openzeppelin/contracts-upgradeable/proxy/utils/Initializable.sol\":3383:3384  1 */\n      0x01\n        /* \"@openzeppelin/contracts-upgradeable/proxy/utils/Initializable.sol\":3368:3380  _initialized */\n      0x00\n      dup1\n        /* \"@openzeppelin/contracts-upgradeable/proxy/utils/Initializable.sol\":3368:3384  _initialized = 1 */\n      0x0100\n      exp\n      dup2\n      sload\n      dup2\n      0xff\n      mul\n      not\n      and\n      swap1\n      dup4\n      0xff\n      and\n      mul\n      or\n      swap1\n      sstore\n      pop\n        /* \"@openzeppelin/contracts-upgradeable/proxy/utils/Initializable.sol\":3398:3412  isTopLevelCall */\n      dup1\n        /* \"@openzeppelin/contracts-upgradeable/proxy/utils/Initializable.sol\":3394:3459  if (isTopLevelCall) {... */\n      iszero\n      tag_157\n      jumpi\n        /* \"@openzeppelin/contracts-upgradeable/proxy/utils/Initializable.sol\":3444:3448  true */\n      0x01\n        /* \"@openzeppelin/contracts-upgradeable/proxy/utils/Initializable.sol\":3428:3441  _initializing */\n      0x00\n      0x01\n        /* \"@openzeppelin/contracts-upgradeable/proxy/utils/Initializable.sol\":3428:3448  _initializing = true */\n      0x0100\n      exp\n      dup2\n      sload\n      dup2\n      0xff\n      mul\n      not\n      and\n      swap1\n      dup4\n      iszero\n      iszero\n      mul\n      or\n      swap1\n      sstore\n      pop\n        /* \"@openzeppelin/contracts-upgradeable/proxy/utils/Initializable.sol\":3394:3459  if (isTopLevelCall) {... */\n    tag_157:\n        /* \"infra/FeeBatch.sol\":1769:1785  __Ownable_init() */\n      tag_159\n        /* \"infra/FeeBatch.sol\":1769:1783  __Ownable_init */\n      tag_160\n        /* \"infra/FeeBatch.sol\":1769:1785  __Ownable_init() */\n      jump\t// in\n    tag_159:\n        /* \"infra/FeeBatch.sol\":1825:1834  _govToken */\n      dup6\n        /* \"infra/FeeBatch.sol\":1796:1804  govToken */\n      0x66\n      0x00\n        /* \"infra/FeeBatch.sol\":1796:1835  govToken = IERC20Upgradeable(_govToken) */\n      0x0100\n      exp\n      dup2\n      sload\n      dup2\n      0xffffffffffffffffffffffffffffffffffffffff\n      mul\n      not\n      and\n      swap1\n      dup4\n      0xffffffffffffffffffffffffffffffffffffffff\n      and\n      mul\n      or\n      swap1\n      sstore\n      pop\n        /* \"infra/FeeBatch.sol\":1874:1882  _wNative */\n      dup5\n        /* \"infra/FeeBatch.sol\":1845:1852  wNative */\n      0x65\n      0x00\n        /* \"infra/FeeBatch.sol\":1845:1883  wNative  = IERC20Upgradeable(_wNative) */\n      0x0100\n      exp\n      dup2\n      sload\n      dup2\n      0xffffffffffffffffffffffffffffffffffffffff\n      mul\n      not\n      and\n      swap1\n      dup4\n      0xffffffffffffffffffffffffffffffffffffffff\n      and\n      mul\n      or\n      swap1\n      sstore\n      pop\n        /* \"infra/FeeBatch.sol\":1904:1913  _treasury */\n      dup4\n        /* \"infra/FeeBatch.sol\":1893:1901  treasury */\n      0x67\n      0x00\n        /* \"infra/FeeBatch.sol\":1893:1913  treasury = _treasury */\n      0x0100\n      exp\n      dup2\n      sload\n      dup2\n      0xffffffffffffffffffffffffffffffffffffffff\n      mul\n      not\n      and\n      swap1\n      dup4\n      0xffffffffffffffffffffffffffffffffffffffff\n      and\n      mul\n      or\n      swap1\n      sstore\n      pop\n        /* \"infra/FeeBatch.sol\":1938:1941  140 */\n      0x8c\n        /* \"infra/FeeBatch.sol\":1924:1935  treasuryFee */\n      0x6a\n        /* \"infra/FeeBatch.sol\":1924:1941  treasuryFee = 140 */\n      dup2\n      swap1\n      sstore\n      pop\n        /* \"infra/FeeBatch.sol\":1977:1988  treasuryFee */\n      sload(0x6a)\n        /* \"infra/FeeBatch.sol\":1108:1112  1000 */\n      0x03e8\n        /* \"infra/FeeBatch.sol\":1967:1988  MAX_FEE - treasuryFee */\n      tag_161\n      swap2\n      swap1\n      tag_162\n      jump\t// in\n    tag_161:\n        /* \"infra/FeeBatch.sol\":1951:1964  rewardPoolFee */\n      0x6b\n        /* \"infra/FeeBatch.sol\":1951:1988  rewardPoolFee = MAX_FEE - treasuryFee */\n      dup2\n      swap1\n      sstore\n      pop\n        /* \"infra/FeeBatch.sol\":2025:2028  0x0 */\n      0x00\n        /* \"infra/FeeBatch.sol\":2003:2029  _unirouter != address(0x0) */\n      0xffffffffffffffffffffffffffffffffffffffff\n      and\n        /* \"infra/FeeBatch.sol\":2003:2013  _unirouter */\n      dup3\n        /* \"infra/FeeBatch.sol\":2003:2029  _unirouter != address(0x0) */\n      0xffffffffffffffffffffffffffffffffffffffff\n      and\n      eq\n        /* \"infra/FeeBatch.sol\":1999:2079  if (_unirouter != address(0x0)) {... */\n      tag_163\n      jumpi\n        /* \"infra/FeeBatch.sol\":2045:2068  _initRouter(_unirouter) */\n      tag_164\n        /* \"infra/FeeBatch.sol\":2057:2067  _unirouter */\n      dup3\n        /* \"infra/FeeBatch.sol\":2045:2056  _initRouter */\n      tag_147\n        /* \"infra/FeeBatch.sol\":2045:2068  _initRouter(_unirouter) */\n      jump\t// in\n    tag_164:\n        /* \"infra/FeeBatch.sol\":1999:2079  if (_unirouter != address(0x0)) {... */\n    tag_163:\n        /* \"infra/FeeBatch.sol\":2114:2117  0x0 */\n      0x00\n        /* \"infra/FeeBatch.sol\":2091:2118  _rewardPool != address(0x0) */\n      0xffffffffffffffffffffffffffffffffffffffff\n      and\n        /* \"infra/FeeBatch.sol\":2091:2102  _rewardPool */\n      dup4\n        /* \"infra/FeeBatch.sol\":2091:2118  _rewardPool != address(0x0) */\n      0xffffffffffffffffffffffffffffffffffffffff\n      and\n      eq\n        /* \"infra/FeeBatch.sol\":2088:2209  if(_rewardPool != address(0x0)) {... */\n      tag_165\n      jumpi\n        /* \"infra/FeeBatch.sol\":2146:2157  _rewardPool */\n      dup3\n        /* \"infra/FeeBatch.sol\":2133:2143  rewardPool */\n      0x68\n      0x00\n        /* \"infra/FeeBatch.sol\":2133:2157  rewardPool = _rewardPool */\n      0x0100\n      exp\n      dup2\n      sload\n      dup2\n      0xffffffffffffffffffffffffffffffffffffffff\n      mul\n      not\n      and\n      swap1\n      dup4\n      0xffffffffffffffffffffffffffffffffffffffff\n      and\n      mul\n      or\n      swap1\n      sstore\n      pop\n        /* \"infra/FeeBatch.sol\":2194:2198  true */\n      0x01\n        /* \"infra/FeeBatch.sol\":2170:2191  rewardPoolInitialized */\n      0x6d\n      0x01\n        /* \"infra/FeeBatch.sol\":2170:2198  rewardPoolInitialized = true */\n      0x0100\n      exp\n      dup2\n      sload\n      dup2\n      0xff\n      mul\n      not\n      and\n      swap1\n      dup4\n      iszero\n      iszero\n      mul\n      or\n      swap1\n      sstore\n      pop\n        /* \"infra/FeeBatch.sol\":2088:2209  if(_rewardPool != address(0x0)) {... */\n    tag_165:\n        /* \"infra/FeeBatch.sol\":2227:2273  wNativeToGovTokenRoute = [_wNative, _govToken] */\n      mload(0x40)\n      dup1\n      0x40\n      add\n      0x40\n      mstore\n      dup1\n        /* \"infra/FeeBatch.sol\":2253:2261  _wNative */\n      dup7\n        /* \"infra/FeeBatch.sol\":2227:2273  wNativeToGovTokenRoute = [_wNative, _govToken] */\n      0xffffffffffffffffffffffffffffffffffffffff\n      and\n      0xffffffffffffffffffffffffffffffffffffffff\n      and\n      dup2\n      mstore\n      0x20\n      add\n        /* \"infra/FeeBatch.sol\":2263:2272  _govToken */\n      dup8\n        /* \"infra/FeeBatch.sol\":2227:2273  wNativeToGovTokenRoute = [_wNative, _govToken] */\n      0xffffffffffffffffffffffffffffffffffffffff\n      and\n      0xffffffffffffffffffffffffffffffffffffffff\n      and\n      dup2\n      mstore\n      pop\n        /* \"infra/FeeBatch.sol\":2227:2249  wNativeToGovTokenRoute */\n      0x6c\n        /* \"infra/FeeBatch.sol\":2227:2273  wNativeToGovTokenRoute = [_wNative, _govToken] */\n      swap1\n      0x02\n      tag_166\n      swap3\n      swap2\n      swap1\n      tag_167\n      jump\t// in\n    tag_166:\n      pop\n        /* \"@openzeppelin/contracts-upgradeable/proxy/utils/Initializable.sol\":3483:3497  isTopLevelCall */\n      dup1\n        /* \"@openzeppelin/contracts-upgradeable/proxy/utils/Initializable.sol\":3479:3578  if (isTopLevelCall) {... */\n      iszero\n      tag_168\n      jumpi\n        /* \"@openzeppelin/contracts-upgradeable/proxy/utils/Initializable.sol\":3529:3534  false */\n      0x00\n        /* \"@openzeppelin/contracts-upgradeable/proxy/utils/Initializable.sol\":3513:3526  _initializing */\n      dup1\n      0x01\n        /* \"@openzeppelin/contracts-upgradeable/proxy/utils/Initializable.sol\":3513:3534  _initializing = false */\n      0x0100\n      exp\n      dup2\n      sload\n      dup2\n      0xff\n      mul\n      not\n      and\n      swap1\n      dup4\n      iszero\n      iszero\n      mul\n      or\n      swap1\n      sstore\n      pop\n        /* \"@openzeppelin/contracts-upgradeable/proxy/utils/Initializable.sol\":3553:3567  Initialized(1) */\n      0x7f26b83ff96e1f2b6a682f133852f6798a09c465da95921460cefb3847402498\n        /* \"@openzeppelin/contracts-upgradeable/proxy/utils/Initializable.sol\":3565:3566  1 */\n      0x01\n        /* \"@openzeppelin/contracts-upgradeable/proxy/utils/Initializable.sol\":3553:3567  Initialized(1) */\n      mload(0x40)\n      tag_169\n      swap2\n      swap1\n      tag_170\n      jump\t// in\n    tag_169:\n      mload(0x40)\n      dup1\n      swap2\n      sub\n      swap1\n      log1\n        /* \"@openzeppelin/contracts-upgradeable/proxy/utils/Initializable.sol\":3479:3578  if (isTopLevelCall) {... */\n    tag_168:\n        /* \"@openzeppelin/contracts-upgradeable/proxy/utils/Initializable.sol\":3101:3584  {... */\n      pop\n        /* \"infra/FeeBatch.sol\":1574:2280  function initialize(... */\n      pop\n      pop\n      pop\n      pop\n      pop\n      jump\t// out\n        /* \"infra/FeeBatch.sol\":4982:5274  function inCaseTokensGetStuck(address _token, address _recipient) external onlyOwner {... */\n    tag_53:\n        /* \"@openzeppelin/contracts-upgradeable/access/OwnableUpgradeable.sol\":1334:1347  _checkOwner() */\n      tag_172\n        /* \"@openzeppelin/contracts-upgradeable/access/OwnableUpgradeable.sol\":1334:1345  _checkOwner */\n      tag_144\n        /* \"@openzeppelin/contracts-upgradeable/access/OwnableUpgradeable.sol\":1334:1347  _checkOwner() */\n      jump\t// in\n    tag_172:\n        /* \"infra/FeeBatch.sol\":5103:5110  wNative */\n      0x65\n      0x00\n      swap1\n      sload\n      swap1\n      0x0100\n      exp\n      swap1\n      div\n      0xffffffffffffffffffffffffffffffffffffffff\n      and\n        /* \"infra/FeeBatch.sol\":5085:5111  _token != address(wNative) */\n      0xffffffffffffffffffffffffffffffffffffffff\n      and\n        /* \"infra/FeeBatch.sol\":5085:5091  _token */\n      dup3\n        /* \"infra/FeeBatch.sol\":5085:5111  _token != address(wNative) */\n      0xffffffffffffffffffffffffffffffffffffffff\n      and\n      eq\n      iszero\n        /* \"infra/FeeBatch.sol\":5077:5121  require(_token != address(wNative), \"!safe\") */\n      tag_174\n      jumpi\n      mload(0x40)\n      0x08c379a000000000000000000000000000000000000000000000000000000000\n      dup2\n      mstore\n      0x04\n      add\n      tag_175\n      swap1\n      tag_176\n      jump\t// in\n    tag_175:\n      mload(0x40)\n      dup1\n      swap2\n      sub\n      swap1\n      revert\n    tag_174:\n        /* \"infra/FeeBatch.sol\":5132:5146  uint256 amount */\n      0x00\n        /* \"infra/FeeBatch.sol\":5167:5173  _token */\n      dup3\n        /* \"infra/FeeBatch.sol\":5149:5184  IERC20Upgradeable(_token).balanceOf */\n      0xffffffffffffffffffffffffffffffffffffffff\n      and\n      0x70a08231\n        /* \"infra/FeeBatch.sol\":5193:5197  this */\n      address\n        /* \"infra/FeeBatch.sol\":5149:5199  IERC20Upgradeable(_token).balanceOf(address(this)) */\n      mload(0x40)\n      dup3\n      0xffffffff\n      and\n      0xe0\n      shl\n      dup2\n      mstore\n      0x04\n      add\n      tag_177\n      swap2\n      swap1\n      tag_58\n      jump\t// in\n    tag_177:\n      0x20\n      mload(0x40)\n      dup1\n      dup4\n      sub\n      dup2\n      dup7\n      dup1\n      extcodesize\n      iszero\n      dup1\n      iszero\n      tag_178\n      jumpi\n      0x00\n      dup1\n      revert\n    tag_178:\n      pop\n      gas\n      staticcall\n      iszero\n      dup1\n      iszero\n      tag_180\n      jumpi\n      returndatasize\n      0x00\n      dup1\n      returndatacopy\n      revert(0x00, returndatasize)\n    tag_180:\n      pop\n      pop\n      pop\n      pop\n      mload(0x40)\n      returndatasize\n      not(0x1f)\n      0x1f\n      dup3\n      add\n      and\n      dup3\n      add\n      dup1\n      0x40\n      mstore\n      pop\n      dup2\n      add\n      swap1\n      tag_181\n      swap2\n      swap1\n      tag_182\n      jump\t// in\n    tag_181:\n        /* \"infra/FeeBatch.sol\":5132:5199  uint256 amount = IERC20Upgradeable(_token).balanceOf(address(this)) */\n      swap1\n      pop\n        /* \"infra/FeeBatch.sol\":5209:5267  IERC20Upgradeable(_token).safeTransfer(_recipient, amount) */\n      tag_183\n        /* \"infra/FeeBatch.sol\":5248:5258  _recipient */\n      dup3\n        /* \"infra/FeeBatch.sol\":5260:5266  amount */\n      dup3\n        /* \"infra/FeeBatch.sol\":5227:5233  _token */\n      dup6\n        /* \"infra/FeeBatch.sol\":5209:5247  IERC20Upgradeable(_token).safeTransfer */\n      0xffffffffffffffffffffffffffffffffffffffff\n      and\n      tag_184\n      swap1\n        /* \"infra/FeeBatch.sol\":5209:5267  IERC20Upgradeable(_token).safeTransfer(_recipient, amount) */\n      swap3\n      swap2\n      swap1\n      0xffffffff\n      and\n      jump\t// in\n    tag_183:\n        /* \"infra/FeeBatch.sol\":5067:5274  {... */\n      pop\n        /* \"infra/FeeBatch.sol\":4982:5274  function inCaseTokensGetStuck(address _token, address _recipient) external onlyOwner {... */\n      pop\n      pop\n      jump\t// out\n        /* \"infra/FeeBatch.sol\":1025:1049  address public unirouter */\n    tag_56:\n      0x69\n      0x00\n      swap1\n      sload\n      swap1\n      0x0100\n      exp\n      swap1\n      div\n      0xffffffffffffffffffffffffffffffffffffffff\n      and\n      dup2\n      jump\t// out\n        /* \"infra/FeeBatch.sol\":1225:1254  bool public routerInitialized */\n    tag_61:\n      0x6d\n      0x00\n      swap1\n      sload\n      swap1\n      0x0100\n      exp\n      swap1\n      div\n      0xff\n      and\n      dup2\n      jump\t// out\n        /* \"infra/FeeBatch.sol\":888:920  IERC20Upgradeable public wNative */\n    tag_66:\n      0x65\n      0x00\n      swap1\n      sload\n      swap1\n      0x0100\n      exp\n      swap1\n      div\n      0xffffffffffffffffffffffffffffffffffffffff\n      and\n      dup2\n      jump\t// out\n        /* \"infra/FeeBatch.sol\":2332:3311  function harvest() public {... */\n    tag_70:\n        /* \"infra/FeeBatch.sol\":2368:2386  uint256 wNativeBal */\n      0x00\n        /* \"infra/FeeBatch.sol\":2389:2396  wNative */\n      0x65\n      0x00\n      swap1\n      sload\n      swap1\n      0x0100\n      exp\n      swap1\n      div\n      0xffffffffffffffffffffffffffffffffffffffff\n      and\n        /* \"infra/FeeBatch.sol\":2389:2406  wNative.balanceOf */\n      0xffffffffffffffffffffffffffffffffffffffff\n      and\n      0x70a08231\n        /* \"infra/FeeBatch.sol\":2415:2419  this */\n      address\n        /* \"infra/FeeBatch.sol\":2389:2421  wNative.balanceOf(address(this)) */\n      mload(0x40)\n      dup3\n      0xffffffff\n      and\n      0xe0\n      shl\n      dup2\n      mstore\n      0x04\n      add\n      tag_186\n      swap2\n      swap1\n      tag_58\n      jump\t// in\n    tag_186:\n      0x20\n      mload(0x40)\n      dup1\n      dup4\n      sub\n      dup2\n      dup7\n      dup1\n      extcodesize\n      iszero\n      dup1\n      iszero\n      tag_187\n      jumpi\n      0x00\n      dup1\n      revert\n    tag_187:\n      pop\n      gas\n      staticcall\n      iszero\n      dup1\n      iszero\n      tag_189\n      jumpi\n      returndatasize\n      0x00\n      dup1\n      returndatacopy\n      revert(0x00, returndatasize)\n    tag_189:\n      pop\n      pop\n      pop\n      pop\n      mload(0x40)\n      returndatasize\n      not(0x1f)\n      0x1f\n      dup3\n      add\n      and\n      dup3\n      add\n      dup1\n      0x40\n      mstore\n      pop\n      dup2\n      add\n      swap1\n      tag_190\n      swap2\n      swap1\n      tag_182\n      jump\t// in\n    tag_190:\n        /* \"infra/FeeBatch.sol\":2368:2421  uint256 wNativeBal = wNative.balanceOf(address(this)) */\n      swap1\n      pop\n        /* \"infra/FeeBatch.sol\":2436:2453  routerInitialized */\n      0x6d\n      0x00\n      swap1\n      sload\n      swap1\n      0x0100\n      exp\n      swap1\n      div\n      0xff\n      and\n        /* \"infra/FeeBatch.sol\":2432:2881  if (routerInitialized) {... */\n      iszero\n      tag_191\n      jumpi\n        /* \"infra/FeeBatch.sol\":2469:2489  uint256 treasuryHalf */\n      0x00\n        /* \"infra/FeeBatch.sol\":2529:2530  2 */\n      0x02\n        /* \"infra/FeeBatch.sol\":1108:1112  1000 */\n      0x03e8\n        /* \"infra/FeeBatch.sol\":2505:2516  treasuryFee */\n      sload(0x6a)\n        /* \"infra/FeeBatch.sol\":2492:2502  wNativeBal */\n      dup5\n        /* \"infra/FeeBatch.sol\":2492:2516  wNativeBal * treasuryFee */\n      tag_192\n      swap2\n      swap1\n      tag_193\n      jump\t// in\n    tag_192:\n        /* \"infra/FeeBatch.sol\":2492:2526  wNativeBal * treasuryFee / MAX_FEE */\n      tag_194\n      swap2\n      swap1\n      tag_195\n      jump\t// in\n    tag_194:\n        /* \"infra/FeeBatch.sol\":2492:2530  wNativeBal * treasuryFee / MAX_FEE / 2 */\n      tag_196\n      swap2\n      swap1\n      tag_195\n      jump\t// in\n    tag_196:\n        /* \"infra/FeeBatch.sol\":2469:2530  uint256 treasuryHalf = wNativeBal * treasuryFee / MAX_FEE / 2 */\n      swap1\n      pop\n        /* \"infra/FeeBatch.sol\":2544:2588  wNative.safeTransfer(treasury, treasuryHalf) */\n      tag_197\n        /* \"infra/FeeBatch.sol\":2565:2573  treasury */\n      0x67\n      0x00\n      swap1\n      sload\n      swap1\n      0x0100\n      exp\n      swap1\n      div\n      0xffffffffffffffffffffffffffffffffffffffff\n      and\n        /* \"infra/FeeBatch.sol\":2575:2587  treasuryHalf */\n      dup3\n        /* \"infra/FeeBatch.sol\":2544:2551  wNative */\n      0x65\n      0x00\n      swap1\n      sload\n      swap1\n      0x0100\n      exp\n      swap1\n      div\n      0xffffffffffffffffffffffffffffffffffffffff\n      and\n        /* \"infra/FeeBatch.sol\":2544:2564  wNative.safeTransfer */\n      0xffffffffffffffffffffffffffffffffffffffff\n      and\n      tag_184\n      swap1\n        /* \"infra/FeeBatch.sol\":2544:2588  wNative.safeTransfer(treasury, treasuryHalf) */\n      swap3\n      swap2\n      swap1\n      0xffffffff\n      and\n      jump\t// in\n    tag_197:\n        /* \"infra/FeeBatch.sol\":2617:2626  unirouter */\n      0x69\n      0x00\n      swap1\n      sload\n      swap1\n      0x0100\n      exp\n      swap1\n      div\n      0xffffffffffffffffffffffffffffffffffffffff\n      and\n        /* \"infra/FeeBatch.sol\":2602:2652  IUniswapRouter(unirouter).swapExactTokensForTokens */\n      0xffffffffffffffffffffffffffffffffffffffff\n      and\n      0x38ed1739\n        /* \"infra/FeeBatch.sol\":2653:2665  treasuryHalf */\n      dup3\n        /* \"infra/FeeBatch.sol\":2667:2668  0 */\n      0x00\n        /* \"infra/FeeBatch.sol\":2670:2692  wNativeToGovTokenRoute */\n      0x6c\n        /* \"infra/FeeBatch.sol\":2694:2702  treasury */\n      0x67\n      0x00\n      swap1\n      sload\n      swap1\n      0x0100\n      exp\n      swap1\n      div\n      0xffffffffffffffffffffffffffffffffffffffff\n      and\n        /* \"infra/FeeBatch.sol\":2704:2719  block.timestamp */\n      timestamp\n        /* \"infra/FeeBatch.sol\":2602:2720  IUniswapRouter(unirouter).swapExactTokensForTokens(treasuryHalf, 0, wNativeToGovTokenRoute, treasury, block.timestamp) */\n      mload(0x40)\n      dup7\n      0xffffffff\n      and\n      0xe0\n      shl\n      dup2\n      mstore\n      0x04\n      add\n      tag_198\n      swap6\n      swap5\n      swap4\n      swap3\n      swap2\n      swap1\n      tag_199\n      jump\t// in\n    tag_198:\n      0x00\n      mload(0x40)\n      dup1\n      dup4\n      sub\n      dup2\n      0x00\n      dup8\n      dup1\n      extcodesize\n      iszero\n      dup1\n      iszero\n      tag_200\n      jumpi\n      0x00\n      dup1\n      revert\n    tag_200:\n      pop\n      gas\n      call\n      iszero\n      dup1\n      iszero\n      tag_202\n      jumpi\n      returndatasize\n      0x00\n      dup1\n      returndatacopy\n      revert(0x00, returndatasize)\n    tag_202:\n      pop\n      pop\n      pop\n      pop\n      mload(0x40)\n      returndatasize\n      0x00\n      dup3\n      returndatacopy\n      returndatasize\n      not(0x1f)\n      0x1f\n      dup3\n      add\n      and\n      dup3\n      add\n      dup1\n      0x40\n      mstore\n      pop\n      dup2\n      add\n      swap1\n      tag_203\n      swap2\n      swap1\n      tag_204\n      jump\t// in\n    tag_203:\n      pop\n        /* \"infra/FeeBatch.sol\":2455:2731  {... */\n      pop\n        /* \"infra/FeeBatch.sol\":2432:2881  if (routerInitialized) {... */\n      jump(tag_205)\n    tag_191:\n        /* \"infra/FeeBatch.sol\":2751:2773  uint256 treasuryAmount */\n      0x00\n        /* \"infra/FeeBatch.sol\":1108:1112  1000 */\n      0x03e8\n        /* \"infra/FeeBatch.sol\":2789:2800  treasuryFee */\n      sload(0x6a)\n        /* \"infra/FeeBatch.sol\":2776:2786  wNativeBal */\n      dup4\n        /* \"infra/FeeBatch.sol\":2776:2800  wNativeBal * treasuryFee */\n      tag_206\n      swap2\n      swap1\n      tag_193\n      jump\t// in\n    tag_206:\n        /* \"infra/FeeBatch.sol\":2776:2810  wNativeBal * treasuryFee / MAX_FEE */\n      tag_207\n      swap2\n      swap1\n      tag_195\n      jump\t// in\n    tag_207:\n        /* \"infra/FeeBatch.sol\":2751:2810  uint256 treasuryAmount = wNativeBal * treasuryFee / MAX_FEE */\n      swap1\n      pop\n        /* \"infra/FeeBatch.sol\":2824:2870  wNative.safeTransfer(treasury, treasuryAmount) */\n      tag_208\n        /* \"infra/FeeBatch.sol\":2845:2853  treasury */\n      0x67\n      0x00\n      swap1\n      sload\n      swap1\n      0x0100\n      exp\n      swap1\n      div\n      0xffffffffffffffffffffffffffffffffffffffff\n      and\n        /* \"infra/FeeBatch.sol\":2855:2869  treasuryAmount */\n      dup3\n        /* \"infra/FeeBatch.sol\":2824:2831  wNative */\n      0x65\n      0x00\n      swap1\n      sload\n      swap1\n      0x0100\n      exp\n      swap1\n      div\n      0xffffffffffffffffffffffffffffffffffffffff\n      and\n        /* \"infra/FeeBatch.sol\":2824:2844  wNative.safeTransfer */\n      0xffffffffffffffffffffffffffffffffffffffff\n      and\n      tag_184\n      swap1\n        /* \"infra/FeeBatch.sol\":2824:2870  wNative.safeTransfer(treasury, treasuryAmount) */\n      swap3\n      swap2\n      swap1\n      0xffffffff\n      and\n      jump\t// in\n    tag_208:\n        /* \"infra/FeeBatch.sol\":2737:2881  {... */\n      pop\n        /* \"infra/FeeBatch.sol\":2432:2881  if (routerInitialized) {... */\n    tag_205:\n        /* \"infra/FeeBatch.sol\":2893:2914  rewardPoolInitialized */\n      0x6d\n      0x01\n      swap1\n      sload\n      swap1\n      0x0100\n      exp\n      swap1\n      div\n      0xff\n      and\n        /* \"infra/FeeBatch.sol\":2890:3305  if(rewardPoolInitialized) {... */\n      iszero\n      tag_209\n      jumpi\n        /* \"infra/FeeBatch.sol\":2930:2954  uint256 rewardPoolAmount */\n      0x00\n        /* \"infra/FeeBatch.sol\":1108:1112  1000 */\n      0x03e8\n        /* \"infra/FeeBatch.sol\":2970:2983  rewardPoolFee */\n      sload(0x6b)\n        /* \"infra/FeeBatch.sol\":2957:2967  wNativeBal */\n      dup4\n        /* \"infra/FeeBatch.sol\":2957:2983  wNativeBal * rewardPoolFee */\n      tag_210\n      swap2\n      swap1\n      tag_193\n      jump\t// in\n    tag_210:\n        /* \"infra/FeeBatch.sol\":2957:2993  wNativeBal * rewardPoolFee / MAX_FEE */\n      tag_211\n      swap2\n      swap1\n      tag_195\n      jump\t// in\n    tag_211:\n        /* \"infra/FeeBatch.sol\":2930:2993  uint256 rewardPoolAmount = wNativeBal * rewardPoolFee / MAX_FEE */\n      swap1\n      pop\n        /* \"infra/FeeBatch.sol\":3007:3057  wNative.safeTransfer(rewardPool, rewardPoolAmount) */\n      tag_212\n        /* \"infra/FeeBatch.sol\":3028:3038  rewardPool */\n      0x68\n      0x00\n      swap1\n      sload\n      swap1\n      0x0100\n      exp\n      swap1\n      div\n      0xffffffffffffffffffffffffffffffffffffffff\n      and\n        /* \"infra/FeeBatch.sol\":3040:3056  rewardPoolAmount */\n      dup3\n        /* \"infra/FeeBatch.sol\":3007:3014  wNative */\n      0x65\n      0x00\n      swap1\n      sload\n      swap1\n      0x0100\n      exp\n      swap1\n      div\n      0xffffffffffffffffffffffffffffffffffffffff\n      and\n        /* \"infra/FeeBatch.sol\":3007:3027  wNative.safeTransfer */\n      0xffffffffffffffffffffffffffffffffffffffff\n      and\n      tag_184\n      swap1\n        /* \"infra/FeeBatch.sol\":3007:3057  wNative.safeTransfer(rewardPool, rewardPoolAmount) */\n      swap3\n      swap2\n      swap1\n      0xffffffff\n      and\n      jump\t// in\n    tag_212:\n        /* \"infra/FeeBatch.sol\":3083:3093  rewardPool */\n      0x68\n      0x00\n      swap1\n      sload\n      swap1\n      0x0100\n      exp\n      swap1\n      div\n      0xffffffffffffffffffffffffffffffffffffffff\n      and\n        /* \"infra/FeeBatch.sol\":3071:3113  IRewardPool(rewardPool).notifyRewardAmount */\n      0xffffffffffffffffffffffffffffffffffffffff\n      and\n      0x3c6b16ab\n        /* \"infra/FeeBatch.sol\":3114:3130  rewardPoolAmount */\n      dup3\n        /* \"infra/FeeBatch.sol\":3071:3131  IRewardPool(rewardPool).notifyRewardAmount(rewardPoolAmount) */\n      mload(0x40)\n      dup3\n      0xffffffff\n      and\n      0xe0\n      shl\n      dup2\n      mstore\n      0x04\n      add\n      tag_213\n      swap2\n      swap1\n      tag_112\n      jump\t// in\n    tag_213:\n      0x00\n      mload(0x40)\n      dup1\n      dup4\n      sub\n      dup2\n      0x00\n      dup8\n      dup1\n      extcodesize\n      iszero\n      dup1\n      iszero\n      tag_214\n      jumpi\n      0x00\n      dup1\n      revert\n    tag_214:\n      pop\n      gas\n      call\n      iszero\n      dup1\n      iszero\n      tag_216\n      jumpi\n      returndatasize\n      0x00\n      dup1\n      returndatacopy\n      revert(0x00, returndatasize)\n    tag_216:\n      pop\n      pop\n      pop\n      pop\n        /* \"infra/FeeBatch.sol\":2916:3142  {... */\n      pop\n        /* \"infra/FeeBatch.sol\":2890:3305  if(rewardPoolInitialized) {... */\n      jump(tag_217)\n    tag_209:\n        /* \"infra/FeeBatch.sol\":3169:3193  uint256 rewardPoolAmount */\n      0x00\n        /* \"infra/FeeBatch.sol\":1108:1112  1000 */\n      0x03e8\n        /* \"infra/FeeBatch.sol\":3209:3222  rewardPoolFee */\n      sload(0x6b)\n        /* \"infra/FeeBatch.sol\":3196:3206  wNativeBal */\n      dup4\n        /* \"infra/FeeBatch.sol\":3196:3222  wNativeBal * rewardPoolFee */\n      tag_218\n      swap2\n      swap1\n      tag_193\n      jump\t// in\n    tag_218:\n        /* \"infra/FeeBatch.sol\":3196:3232  wNativeBal * rewardPoolFee / MAX_FEE */\n      tag_219\n      swap2\n      swap1\n      tag_195\n      jump\t// in\n    tag_219:\n        /* \"infra/FeeBatch.sol\":3169:3232  uint256 rewardPoolAmount = wNativeBal * rewardPoolFee / MAX_FEE */\n      swap1\n      pop\n        /* \"infra/FeeBatch.sol\":3246:3294  wNative.safeTransfer(treasury, rewardPoolAmount) */\n      tag_220\n        /* \"infra/FeeBatch.sol\":3267:3275  treasury */\n      0x67\n      0x00\n      swap1\n      sload\n      swap1\n      0x0100\n      exp\n      swap1\n      div\n      0xffffffffffffffffffffffffffffffffffffffff\n      and\n        /* \"infra/FeeBatch.sol\":3277:3293  rewardPoolAmount */\n      dup3\n        /* \"infra/FeeBatch.sol\":3246:3253  wNative */\n      0x65\n      0x00\n      swap1\n      sload\n      swap1\n      0x0100\n      exp\n      swap1\n      div\n      0xffffffffffffffffffffffffffffffffffffffff\n      and\n        /* \"infra/FeeBatch.sol\":3246:3266  wNative.safeTransfer */\n      0xffffffffffffffffffffffffffffffffffffffff\n      and\n      tag_184\n      swap1\n        /* \"infra/FeeBatch.sol\":3246:3294  wNative.safeTransfer(treasury, rewardPoolAmount) */\n      swap3\n      swap2\n      swap1\n      0xffffffff\n      and\n      jump\t// in\n    tag_220:\n        /* \"infra/FeeBatch.sol\":3155:3305  {... */\n      pop\n        /* \"infra/FeeBatch.sol\":2890:3305  if(rewardPoolInitialized) {... */\n    tag_217:\n        /* \"infra/FeeBatch.sol\":2358:3311  {... */\n      pop\n        /* \"infra/FeeBatch.sol\":2332:3311  function harvest() public {... */\n      jump\t// out\n        /* \"infra/FeeBatch.sol\":5280:5424  function transferRewardPoolOwnership(address _newOwner) external onlyOwner {... */\n    tag_74:\n        /* \"@openzeppelin/contracts-upgradeable/access/OwnableUpgradeable.sol\":1334:1347  _checkOwner() */\n      tag_222\n        /* \"@openzeppelin/contracts-upgradeable/access/OwnableUpgradeable.sol\":1334:1345  _checkOwner */\n      tag_144\n        /* \"@openzeppelin/contracts-upgradeable/access/OwnableUpgradeable.sol\":1334:1347  _checkOwner() */\n      jump\t// in\n    tag_222:\n        /* \"infra/FeeBatch.sol\":5377:5387  rewardPool */\n      0x68\n      0x00\n      swap1\n      sload\n      swap1\n      0x0100\n      exp\n      swap1\n      div\n      0xffffffffffffffffffffffffffffffffffffffff\n      and\n        /* \"infra/FeeBatch.sol\":5365:5406  IRewardPool(rewardPool).transferOwnership */\n      0xffffffffffffffffffffffffffffffffffffffff\n      and\n      0xf2fde38b\n        /* \"infra/FeeBatch.sol\":5407:5416  _newOwner */\n      dup3\n        /* \"infra/FeeBatch.sol\":5365:5417  IRewardPool(rewardPool).transferOwnership(_newOwner) */\n      mload(0x40)\n      dup3\n      0xffffffff\n      and\n      0xe0\n      shl\n      dup2\n      mstore\n      0x04\n      add\n      tag_224\n      swap2\n      swap1\n      tag_58\n      jump\t// in\n    tag_224:\n      0x00\n      mload(0x40)\n      dup1\n      dup4\n      sub\n      dup2\n      0x00\n      dup8\n      dup1\n      extcodesize\n      iszero\n      dup1\n      iszero\n      tag_225\n      jumpi\n      0x00\n      dup1\n      revert\n    tag_225:\n      pop\n      gas\n      call\n      iszero\n      dup1\n      iszero\n      tag_227\n      jumpi\n      returndatasize\n      0x00\n      dup1\n      returndatacopy\n      revert(0x00, returndatasize)\n    tag_227:\n      pop\n      pop\n      pop\n      pop\n        /* \"infra/FeeBatch.sol\":5280:5424  function transferRewardPoolOwnership(address _newOwner) external onlyOwner {... */\n      pop\n      jump\t// out\n        /* \"infra/FeeBatch.sol\":965:988  address public treasury */\n    tag_77:\n      0x67\n      0x00\n      swap1\n      sload\n      swap1\n      0x0100\n      exp\n      swap1\n      div\n      0xffffffffffffffffffffffffffffffffffffffff\n      and\n      dup2\n      jump\t// out\n        /* \"infra/FeeBatch.sol\":994:1019  address public rewardPool */\n    tag_81:\n      0x68\n      0x00\n      swap1\n      sload\n      swap1\n      0x0100\n      exp\n      swap1\n      div\n      0xffffffffffffffffffffffffffffffffffffffff\n      and\n      dup2\n      jump\t// out\n        /* \"infra/FeeBatch.sol\":4419:4743  function setNativeToGovTokenRoute(address[] memory _route) external onlyOwner {... */\n    tag_87:\n        /* \"@openzeppelin/contracts-upgradeable/access/OwnableUpgradeable.sol\":1334:1347  _checkOwner() */\n      tag_229\n        /* \"@openzeppelin/contracts-upgradeable/access/OwnableUpgradeable.sol\":1334:1345  _checkOwner */\n      tag_144\n        /* \"@openzeppelin/contracts-upgradeable/access/OwnableUpgradeable.sol\":1334:1347  _checkOwner() */\n      jump\t// in\n    tag_229:\n        /* \"infra/FeeBatch.sol\":4536:4543  wNative */\n      0x65\n      0x00\n      swap1\n      sload\n      swap1\n      0x0100\n      exp\n      swap1\n      div\n      0xffffffffffffffffffffffffffffffffffffffff\n      and\n        /* \"infra/FeeBatch.sol\":4515:4544  _route[0] == address(wNative) */\n      0xffffffffffffffffffffffffffffffffffffffff\n      and\n        /* \"infra/FeeBatch.sol\":4515:4521  _route */\n      dup2\n        /* \"infra/FeeBatch.sol\":4522:4523  0 */\n      0x00\n        /* \"infra/FeeBatch.sol\":4515:4524  _route[0] */\n      dup2\n      mload\n      dup2\n      lt\n      tag_231\n      jumpi\n      tag_232\n      tag_233\n      jump\t// in\n    tag_232:\n    tag_231:\n      0x20\n      mul\n      0x20\n      add\n      add\n      mload\n        /* \"infra/FeeBatch.sol\":4515:4544  _route[0] == address(wNative) */\n      0xffffffffffffffffffffffffffffffffffffffff\n      and\n      eq\n        /* \"infra/FeeBatch.sol\":4507:4557  require(_route[0] == address(wNative), \"!wNative\") */\n      tag_234\n      jumpi\n      mload(0x40)\n      0x08c379a000000000000000000000000000000000000000000000000000000000\n      dup2\n      mstore\n      0x04\n      add\n      tag_235\n      swap1\n      tag_236\n      jump\t// in\n    tag_235:\n      mload(0x40)\n      dup1\n      swap2\n      sub\n      swap1\n      revert\n    tag_234:\n        /* \"infra/FeeBatch.sol\":4612:4620  govToken */\n      0x66\n      0x00\n      swap1\n      sload\n      swap1\n      0x0100\n      exp\n      swap1\n      div\n      0xffffffffffffffffffffffffffffffffffffffff\n      and\n        /* \"infra/FeeBatch.sol\":4575:4621  _route[_route.length - 1] == address(govToken) */\n      0xffffffffffffffffffffffffffffffffffffffff\n      and\n        /* \"infra/FeeBatch.sol\":4575:4581  _route */\n      dup2\n        /* \"infra/FeeBatch.sol\":4598:4599  1 */\n      0x01\n        /* \"infra/FeeBatch.sol\":4582:4588  _route */\n      dup4\n        /* \"infra/FeeBatch.sol\":4582:4595  _route.length */\n      mload\n        /* \"infra/FeeBatch.sol\":4582:4599  _route.length - 1 */\n      tag_237\n      swap2\n      swap1\n      tag_162\n      jump\t// in\n    tag_237:\n        /* \"infra/FeeBatch.sol\":4575:4600  _route[_route.length - 1] */\n      dup2\n      mload\n      dup2\n      lt\n      tag_238\n      jumpi\n      tag_239\n      tag_233\n      jump\t// in\n    tag_239:\n    tag_238:\n      0x20\n      mul\n      0x20\n      add\n      add\n      mload\n        /* \"infra/FeeBatch.sol\":4575:4621  _route[_route.length - 1] == address(govToken) */\n      0xffffffffffffffffffffffffffffffffffffffff\n      and\n      eq\n        /* \"infra/FeeBatch.sol\":4567:4631  require(_route[_route.length - 1] == address(govToken), \"!dyos\") */\n      tag_240\n      jumpi\n      mload(0x40)\n      0x08c379a000000000000000000000000000000000000000000000000000000000\n      dup2\n      mstore\n      0x04\n      add\n      tag_241\n      swap1\n      tag_242\n      jump\t// in\n    tag_241:\n      mload(0x40)\n      dup1\n      swap2\n      sub\n      swap1\n      revert\n    tag_240:\n        /* \"infra/FeeBatch.sol\":4647:4695  NewGovTokenRoute(wNativeToGovTokenRoute, _route) */\n      0xecb3dbd70dad0f6448f42cc97a0fbd7f9bb8ed525cb52d2f8d2798c8bf888ef5\n        /* \"infra/FeeBatch.sol\":4664:4686  wNativeToGovTokenRoute */\n      0x6c\n        /* \"infra/FeeBatch.sol\":4688:4694  _route */\n      dup3\n        /* \"infra/FeeBatch.sol\":4647:4695  NewGovTokenRoute(wNativeToGovTokenRoute, _route) */\n      mload(0x40)\n      tag_243\n      swap3\n      swap2\n      swap1\n      tag_244\n      jump\t// in\n    tag_243:\n      mload(0x40)\n      dup1\n      swap2\n      sub\n      swap1\n      log1\n        /* \"infra/FeeBatch.sol\":4730:4736  _route */\n      dup1\n        /* \"infra/FeeBatch.sol\":4705:4727  wNativeToGovTokenRoute */\n      0x6c\n        /* \"infra/FeeBatch.sol\":4705:4736  wNativeToGovTokenRoute = _route */\n      swap1\n      dup1\n      mload\n      swap1\n      0x20\n      add\n      swap1\n      tag_245\n      swap3\n      swap2\n      swap1\n      tag_246\n      jump\t// in\n    tag_245:\n      pop\n        /* \"infra/FeeBatch.sol\":4419:4743  function setNativeToGovTokenRoute(address[] memory _route) external onlyOwner {... */\n      pop\n      jump\t// out\n        /* \"@openzeppelin/contracts-upgradeable/access/OwnableUpgradeable.sol\":2071:2172  function renounceOwnership() public virtual onlyOwner {... */\n    tag_90:\n        /* \"@openzeppelin/contracts-upgradeable/access/OwnableUpgradeable.sol\":1334:1347  _checkOwner() */\n      tag_248\n        /* \"@openzeppelin/contracts-upgradeable/access/OwnableUpgradeable.sol\":1334:1345  _checkOwner */\n      tag_144\n        /* \"@openzeppelin/contracts-upgradeable/access/OwnableUpgradeable.sol\":1334:1347  _checkOwner() */\n      jump\t// in\n    tag_248:\n        /* \"@openzeppelin/contracts-upgradeable/access/OwnableUpgradeable.sol\":2135:2165  _transferOwnership(address(0)) */\n      tag_250\n        /* \"@openzeppelin/contracts-upgradeable/access/OwnableUpgradeable.sol\":2162:2163  0 */\n      0x00\n        /* \"@openzeppelin/contracts-upgradeable/access/OwnableUpgradeable.sol\":2135:2153  _transferOwnership */\n      tag_251\n        /* \"@openzeppelin/contracts-upgradeable/access/OwnableUpgradeable.sol\":2135:2165  _transferOwnership(address(0)) */\n      jump\t// in\n    tag_250:\n        /* \"@openzeppelin/contracts-upgradeable/access/OwnableUpgradeable.sol\":2071:2172  function renounceOwnership() public virtual onlyOwner {... */\n      jump\t// out\n        /* \"infra/FeeBatch.sol\":4749:4929  function setTreasuryFee(uint256 _fee) public onlyOwner {... */\n    tag_95:\n        /* \"@openzeppelin/contracts-upgradeable/access/OwnableUpgradeable.sol\":1334:1347  _checkOwner() */\n      tag_253\n        /* \"@openzeppelin/contracts-upgradeable/access/OwnableUpgradeable.sol\":1334:1345  _checkOwner */\n      tag_144\n        /* \"@openzeppelin/contracts-upgradeable/access/OwnableUpgradeable.sol\":1334:1347  _checkOwner() */\n      jump\t// in\n    tag_253:\n        /* \"infra/FeeBatch.sol\":1108:1112  1000 */\n      0x03e8\n        /* \"infra/FeeBatch.sol\":4822:4826  _fee */\n      dup2\n        /* \"infra/FeeBatch.sol\":4822:4837  _fee <= MAX_FEE */\n      gt\n      iszero\n        /* \"infra/FeeBatch.sol\":4814:4846  require(_fee <= MAX_FEE, \"!cap\") */\n      tag_255\n      jumpi\n      mload(0x40)\n      0x08c379a000000000000000000000000000000000000000000000000000000000\n      dup2\n      mstore\n      0x04\n      add\n      tag_256\n      swap1\n      tag_257\n      jump\t// in\n    tag_256:\n      mload(0x40)\n      dup1\n      swap2\n      sub\n      swap1\n      revert\n    tag_255:\n        /* \"infra/FeeBatch.sol\":4871:4875  _fee */\n      dup1\n        /* \"infra/FeeBatch.sol\":4857:4868  treasuryFee */\n      0x6a\n        /* \"infra/FeeBatch.sol\":4857:4875  treasuryFee = _fee */\n      dup2\n      swap1\n      sstore\n      pop\n        /* \"infra/FeeBatch.sol\":4911:4922  treasuryFee */\n      sload(0x6a)\n        /* \"infra/FeeBatch.sol\":1108:1112  1000 */\n      0x03e8\n        /* \"infra/FeeBatch.sol\":4901:4922  MAX_FEE - treasuryFee */\n      tag_258\n      swap2\n      swap1\n      tag_162\n      jump\t// in\n    tag_258:\n        /* \"infra/FeeBatch.sol\":4885:4898  rewardPoolFee */\n      0x6b\n        /* \"infra/FeeBatch.sol\":4885:4922  rewardPoolFee = MAX_FEE - treasuryFee */\n      dup2\n      swap1\n      sstore\n      pop\n        /* \"infra/FeeBatch.sol\":4749:4929  function setTreasuryFee(uint256 _fee) public onlyOwner {... */\n      pop\n      jump\t// out\n        /* \"infra/FeeBatch.sol\":3462:3657  function setRewardPool(address _rewardPool) external onlyOwner {... */\n    tag_99:\n        /* \"@openzeppelin/contracts-upgradeable/access/OwnableUpgradeable.sol\":1334:1347  _checkOwner() */\n      tag_260\n        /* \"@openzeppelin/contracts-upgradeable/access/OwnableUpgradeable.sol\":1334:1345  _checkOwner */\n      tag_144\n        /* \"@openzeppelin/contracts-upgradeable/access/OwnableUpgradeable.sol\":1334:1347  _checkOwner() */\n      jump\t// in\n    tag_260:\n        /* \"infra/FeeBatch.sol\":3540:3578  NewRewardPool(rewardPool, _rewardPool) */\n      0xe3d88fc63ce6f40e089447cea2116e10d00cd00302225a3d4d57db7d456933b3\n        /* \"infra/FeeBatch.sol\":3554:3564  rewardPool */\n      0x68\n      0x00\n      swap1\n      sload\n      swap1\n      0x0100\n      exp\n      swap1\n      div\n      0xffffffffffffffffffffffffffffffffffffffff\n      and\n        /* \"infra/FeeBatch.sol\":3566:3577  _rewardPool */\n      dup3\n        /* \"infra/FeeBatch.sol\":3540:3578  NewRewardPool(rewardPool, _rewardPool) */\n      mload(0x40)\n      tag_262\n      swap3\n      swap2\n      swap1\n      tag_263\n      jump\t// in\n    tag_262:\n      mload(0x40)\n      dup1\n      swap2\n      sub\n      swap1\n      log1\n        /* \"infra/FeeBatch.sol\":3601:3612  _rewardPool */\n      dup1\n        /* \"infra/FeeBatch.sol\":3588:3598  rewardPool */\n      0x68\n      0x00\n        /* \"infra/FeeBatch.sol\":3588:3612  rewardPool = _rewardPool */\n      0x0100\n      exp\n      dup2\n      sload\n      dup2\n      0xffffffffffffffffffffffffffffffffffffffff\n      mul\n      not\n      and\n      swap1\n      dup4\n      0xffffffffffffffffffffffffffffffffffffffff\n      and\n      mul\n      or\n      swap1\n      sstore\n      pop\n        /* \"infra/FeeBatch.sol\":3646:3650  true */\n      0x01\n        /* \"infra/FeeBatch.sol\":3622:3643  rewardPoolInitialized */\n      0x6d\n      0x01\n        /* \"infra/FeeBatch.sol\":3622:3650  rewardPoolInitialized = true */\n      0x0100\n      exp\n      dup2\n      sload\n      dup2\n      0xff\n      mul\n      not\n      and\n      swap1\n      dup4\n      iszero\n      iszero\n      mul\n      or\n      swap1\n      sstore\n      pop\n        /* \"infra/FeeBatch.sol\":3462:3657  function setRewardPool(address _rewardPool) external onlyOwner {... */\n      pop\n      jump\t// out\n        /* \"@openzeppelin/contracts-upgradeable/access/OwnableUpgradeable.sol\":1441:1526  function owner() public view virtual returns (address) {... */\n    tag_102:\n        /* \"@openzeppelin/contracts-upgradeable/access/OwnableUpgradeable.sol\":1487:1494  address */\n      0x00\n        /* \"@openzeppelin/contracts-upgradeable/access/OwnableUpgradeable.sol\":1513:1519  _owner */\n      0x33\n      0x00\n      swap1\n      sload\n      swap1\n      0x0100\n      exp\n      swap1\n      div\n      0xffffffffffffffffffffffffffffffffffffffff\n      and\n        /* \"@openzeppelin/contracts-upgradeable/access/OwnableUpgradeable.sol\":1506:1519  return _owner */\n      swap1\n      pop\n        /* \"@openzeppelin/contracts-upgradeable/access/OwnableUpgradeable.sol\":1441:1526  function owner() public view virtual returns (address) {... */\n      swap1\n      jump\t// out\n        /* \"infra/FeeBatch.sol\":3317:3428  function changeTreasuryFee(uint256 _treasuryFee) external onlyOwner {... */\n    tag_107:\n        /* \"@openzeppelin/contracts-upgradeable/access/OwnableUpgradeable.sol\":1334:1347  _checkOwner() */\n      tag_266\n        /* \"@openzeppelin/contracts-upgradeable/access/OwnableUpgradeable.sol\":1334:1345  _checkOwner */\n      tag_144\n        /* \"@openzeppelin/contracts-upgradeable/access/OwnableUpgradeable.sol\":1334:1347  _checkOwner() */\n      jump\t// in\n    tag_266:\n        /* \"infra/FeeBatch.sol\":3409:3421  _treasuryFee */\n      dup1\n        /* \"infra/FeeBatch.sol\":3395:3406  treasuryFee */\n      0x6a\n        /* \"infra/FeeBatch.sol\":3395:3421  treasuryFee = _treasuryFee */\n      dup2\n      swap1\n      sstore\n      pop\n        /* \"infra/FeeBatch.sol\":3317:3428  function changeTreasuryFee(uint256 _treasuryFee) external onlyOwner {... */\n      pop\n      jump\t// out\n        /* \"infra/FeeBatch.sol\":1077:1112  uint constant public MAX_FEE = 1000 */\n    tag_110:\n        /* \"infra/FeeBatch.sol\":1108:1112  1000 */\n      0x03e8\n        /* \"infra/FeeBatch.sol\":1077:1112  uint constant public MAX_FEE = 1000 */\n      dup2\n      jump\t// out\n        /* \"infra/FeeBatch.sol\":1179:1218  address[] public wNativeToGovTokenRoute */\n    tag_116:\n      0x6c\n      dup2\n      dup2\n      sload\n      dup2\n      lt\n      tag_268\n      jumpi\n      0x00\n      dup1\n      revert\n    tag_268:\n      swap1\n      0x00\n      mstore\n      keccak256(0x00, 0x20)\n      add\n      0x00\n      swap2\n      pop\n      sload\n      swap1\n      0x0100\n      exp\n      swap1\n      div\n      0xffffffffffffffffffffffffffffffffffffffff\n      and\n      dup2\n      jump\t// out\n        /* \"infra/FeeBatch.sol\":1147:1172  uint public rewardPoolFee */\n    tag_120:\n      sload(0x6b)\n      dup2\n      jump\t// out\n        /* \"infra/FeeBatch.sol\":1118:1141  uint public treasuryFee */\n    tag_124:\n      sload(0x6a)\n      dup2\n      jump\t// out\n        /* \"infra/FeeBatch.sol\":1260:1293  bool public rewardPoolInitialized */\n    tag_128:\n      0x6d\n      0x01\n      swap1\n      sload\n      swap1\n      0x0100\n      exp\n      swap1\n      div\n      0xff\n      and\n      dup2\n      jump\t// out\n        /* \"infra/FeeBatch.sol\":4100:4413  function setUnirouter(address _unirouter) external onlyOwner {... */\n    tag_133:\n        /* \"@openzeppelin/contracts-upgradeable/access/OwnableUpgradeable.sol\":1334:1347  _checkOwner() */\n      tag_271\n        /* \"@openzeppelin/contracts-upgradeable/access/OwnableUpgradeable.sol\":1334:1345  _checkOwner */\n      tag_144\n        /* \"@openzeppelin/contracts-upgradeable/access/OwnableUpgradeable.sol\":1334:1347  _checkOwner() */\n      jump\t// in\n    tag_271:\n        /* \"infra/FeeBatch.sol\":4179:4196  routerInitialized */\n      0x6d\n      0x00\n      swap1\n      sload\n      swap1\n      0x0100\n      exp\n      swap1\n      div\n      0xff\n      and\n        /* \"infra/FeeBatch.sol\":4171:4213  require(routerInitialized, \"!initialized\") */\n      tag_273\n      jumpi\n      mload(0x40)\n      0x08c379a000000000000000000000000000000000000000000000000000000000\n      dup2\n      mstore\n      0x04\n      add\n      tag_274\n      swap1\n      tag_275\n      jump\t// in\n    tag_274:\n      mload(0x40)\n      dup1\n      swap2\n      sub\n      swap1\n      revert\n    tag_273:\n        /* \"infra/FeeBatch.sol\":4229:4264  NewUnirouter(unirouter, _unirouter) */\n      0x826424c54f0e53618740c75270163dc0ce89545f38164b0e4b3a265cf7314453\n        /* \"infra/FeeBatch.sol\":4242:4251  unirouter */\n      0x69\n      0x00\n      swap1\n      sload\n      swap1\n      0x0100\n      exp\n      swap1\n      div\n      0xffffffffffffffffffffffffffffffffffffffff\n      and\n        /* \"infra/FeeBatch.sol\":4253:4263  _unirouter */\n      dup3\n        /* \"infra/FeeBatch.sol\":4229:4264  NewUnirouter(unirouter, _unirouter) */\n      mload(0x40)\n      tag_276\n      swap3\n      swap2\n      swap1\n      tag_263\n      jump\t// in\n    tag_276:\n      mload(0x40)\n      dup1\n      swap2\n      sub\n      swap1\n      log1\n        /* \"infra/FeeBatch.sol\":4275:4322  wNative.safeApprove(_unirouter, type(uint).max) */\n      tag_277\n        /* \"infra/FeeBatch.sol\":4295:4305  _unirouter */\n      dup2\n        /* \"infra/FeeBatch.sol\":4307:4321  type(uint).max */\n      0xffffffffffffffffffffffffffffffffffffffffffffffffffffffffffffffff\n        /* \"infra/FeeBatch.sol\":4275:4282  wNative */\n      0x65\n      0x00\n      swap1\n      sload\n      swap1\n      0x0100\n      exp\n      swap1\n      div\n      0xffffffffffffffffffffffffffffffffffffffff\n      and\n        /* \"infra/FeeBatch.sol\":4275:4294  wNative.safeApprove */\n      0xffffffffffffffffffffffffffffffffffffffff\n      and\n      tag_278\n      swap1\n        /* \"infra/FeeBatch.sol\":4275:4322  wNative.safeApprove(_unirouter, type(uint).max) */\n      swap3\n      swap2\n      swap1\n      0xffffffff\n      and\n      jump\t// in\n    tag_277:\n        /* \"infra/FeeBatch.sol\":4332:4365  wNative.safeApprove(unirouter, 0) */\n      tag_279\n        /* \"infra/FeeBatch.sol\":4352:4361  unirouter */\n      0x69\n      0x00\n      swap1\n      sload\n      swap1\n      0x0100\n      exp\n      swap1\n      div\n      0xffffffffffffffffffffffffffffffffffffffff\n      and\n        /* \"infra/FeeBatch.sol\":4363:4364  0 */\n      0x00\n        /* \"infra/FeeBatch.sol\":4332:4339  wNative */\n      0x65\n      0x00\n      swap1\n      sload\n      swap1\n      0x0100\n      exp\n      swap1\n      div\n      0xffffffffffffffffffffffffffffffffffffffff\n      and\n        /* \"infra/FeeBatch.sol\":4332:4351  wNative.safeApprove */\n      0xffffffffffffffffffffffffffffffffffffffff\n      and\n      tag_278\n      swap1\n        /* \"infra/FeeBatch.sol\":4332:4365  wNative.safeApprove(unirouter, 0) */\n      swap3\n      swap2\n      swap1\n      0xffffffff\n      and\n      jump\t// in\n    tag_279:\n        /* \"infra/FeeBatch.sol\":4396:4406  _unirouter */\n      dup1\n        /* \"infra/FeeBatch.sol\":4384:4393  unirouter */\n      0x69\n      0x00\n        /* \"infra/FeeBatch.sol\":4384:4406  unirouter = _unirouter */\n      0x0100\n      exp\n      dup2\n      sload\n      dup2\n      0xffffffffffffffffffffffffffffffffffffffff\n      mul\n      not\n      and\n      swap1\n      dup4\n      0xffffffffffffffffffffffffffffffffffffffff\n      and\n      mul\n      or\n      swap1\n      sstore\n      pop\n        /* \"infra/FeeBatch.sol\":4100:4413  function setUnirouter(address _unirouter) external onlyOwner {... */\n      pop\n      jump\t// out\n        /* \"infra/FeeBatch.sol\":3663:3806  function setTreasury(address _treasury) external onlyOwner {... */\n    tag_137:\n        /* \"@openzeppelin/contracts-upgradeable/access/OwnableUpgradeable.sol\":1334:1347  _checkOwner() */\n      tag_281\n        /* \"@openzeppelin/contracts-upgradeable/access/OwnableUpgradeable.sol\":1334:1345  _checkOwner */\n      tag_144\n        /* \"@openzeppelin/contracts-upgradeable/access/OwnableUpgradeable.sol\":1334:1347  _checkOwner() */\n      jump\t// in\n    tag_281:\n        /* \"infra/FeeBatch.sol\":3737:3769  NewTreasury(treasury, _treasury) */\n      0x567657fa3f286518b318f4a29870674f433f622fdfc819691acb13105b228225\n        /* \"infra/FeeBatch.sol\":3749:3757  treasury */\n      0x67\n      0x00\n      swap1\n      sload\n      swap1\n      0x0100\n      exp\n      swap1\n      div\n      0xffffffffffffffffffffffffffffffffffffffff\n      and\n        /* \"infra/FeeBatch.sol\":3759:3768  _treasury */\n      dup3\n        /* \"infra/FeeBatch.sol\":3737:3769  NewTreasury(treasury, _treasury) */\n      mload(0x40)\n      tag_283\n      swap3\n      swap2\n      swap1\n      tag_263\n      jump\t// in\n    tag_283:\n      mload(0x40)\n      dup1\n      swap2\n      sub\n      swap1\n      log1\n        /* \"infra/FeeBatch.sol\":3790:3799  _treasury */\n      dup1\n        /* \"infra/FeeBatch.sol\":3779:3787  treasury */\n      0x67\n      0x00\n        /* \"infra/FeeBatch.sol\":3779:3799  treasury = _treasury */\n      0x0100\n      exp\n      dup2\n      sload\n      dup2\n      0xffffffffffffffffffffffffffffffffffffffff\n      mul\n      not\n      and\n      swap1\n      dup4\n      0xffffffffffffffffffffffffffffffffffffffff\n      and\n      mul\n      or\n      swap1\n      sstore\n      pop\n        /* \"infra/FeeBatch.sol\":3663:3806  function setTreasury(address _treasury) external onlyOwner {... */\n      pop\n      jump\t// out\n        /* \"@openzeppelin/contracts-upgradeable/access/OwnableUpgradeable.sol\":2321:2519  function transferOwnership(address newOwner) public virtual onlyOwner {... */\n    tag_141:\n        /* \"@openzeppelin/contracts-upgradeable/access/OwnableUpgradeable.sol\":1334:1347  _checkOwner() */\n      tag_285\n        /* \"@openzeppelin/contracts-upgradeable/access/OwnableUpgradeable.sol\":1334:1345  _checkOwner */\n      tag_144\n        /* \"@openzeppelin/contracts-upgradeable/access/OwnableUpgradeable.sol\":1334:1347  _checkOwner() */\n      jump\t// in\n    tag_285:\n        /* \"@openzeppelin/contracts-upgradeable/access/OwnableUpgradeable.sol\":2429:2430  0 */\n      0x00\n        /* \"@openzeppelin/contracts-upgradeable/access/OwnableUpgradeable.sol\":2409:2431  newOwner != address(0) */\n      0xffffffffffffffffffffffffffffffffffffffff\n      and\n        /* \"@openzeppelin/contracts-upgradeable/access/OwnableUpgradeable.sol\":2409:2417  newOwner */\n      dup2\n        /* \"@openzeppelin/contracts-upgradeable/access/OwnableUpgradeable.sol\":2409:2431  newOwner != address(0) */\n      0xffffffffffffffffffffffffffffffffffffffff\n      and\n      eq\n      iszero\n        /* \"@openzeppelin/contracts-upgradeable/access/OwnableUpgradeable.sol\":2401:2474  require(newOwner != address(0), \"Ownable: new owner is the zero address\") */\n      tag_287\n      jumpi\n      mload(0x40)\n      0x08c379a000000000000000000000000000000000000000000000000000000000\n      dup2\n      mstore\n      0x04\n      add\n      tag_288\n      swap1\n      tag_289\n      jump\t// in\n    tag_288:\n      mload(0x40)\n      dup1\n      swap2\n      sub\n      swap1\n      revert\n    tag_287:\n        /* \"@openzeppelin/contracts-upgradeable/access/OwnableUpgradeable.sol\":2484:2512  _transferOwnership(newOwner) */\n      tag_290\n        /* \"@openzeppelin/contracts-upgradeable/access/OwnableUpgradeable.sol\":2503:2511  newOwner */\n      dup2\n        /* \"@openzeppelin/contracts-upgradeable/access/OwnableUpgradeable.sol\":2484:2502  _transferOwnership */\n      tag_251\n        /* \"@openzeppelin/contracts-upgradeable/access/OwnableUpgradeable.sol\":2484:2512  _transferOwnership(newOwner) */\n      jump\t// in\n    tag_290:\n        /* \"@openzeppelin/contracts-upgradeable/access/OwnableUpgradeable.sol\":2321:2519  function transferOwnership(address newOwner) public virtual onlyOwner {... */\n      pop\n      jump\t// out\n        /* \"@openzeppelin/contracts-upgradeable/access/OwnableUpgradeable.sol\":1599:1729  function _checkOwner() internal view virtual {... */\n    tag_144:\n        /* \"@openzeppelin/contracts-upgradeable/access/OwnableUpgradeable.sol\":1673:1685  _msgSender() */\n      tag_292\n        /* \"@openzeppelin/contracts-upgradeable/access/OwnableUpgradeable.sol\":1673:1683  _msgSender */\n      tag_293\n        /* \"@openzeppelin/contracts-upgradeable/access/OwnableUpgradeable.sol\":1673:1685  _msgSender() */\n      jump\t// in\n    tag_292:\n        /* \"@openzeppelin/contracts-upgradeable/access/OwnableUpgradeable.sol\":1662:1685  owner() == _msgSender() */\n      0xffffffffffffffffffffffffffffffffffffffff\n      and\n        /* \"@openzeppelin/contracts-upgradeable/access/OwnableUpgradeable.sol\":1662:1669  owner() */\n      tag_294\n        /* \"@openzeppelin/contracts-upgradeable/access/OwnableUpgradeable.sol\":1662:1667  owner */\n      tag_102\n        /* \"@openzeppelin/contracts-upgradeable/access/OwnableUpgradeable.sol\":1662:1669  owner() */\n      jump\t// in\n    tag_294:\n        /* \"@openzeppelin/contracts-upgradeable/access/OwnableUpgradeable.sol\":1662:1685  owner() == _msgSender() */\n      0xffffffffffffffffffffffffffffffffffffffff\n      and\n      eq\n        /* \"@openzeppelin/contracts-upgradeable/access/OwnableUpgradeable.sol\":1654:1722  require(owner() == _msgSender(), \"Ownable: caller is not the owner\") */\n      tag_295\n      jumpi\n      mload(0x40)\n      0x08c379a000000000000000000000000000000000000000000000000000000000\n      dup2\n      mstore\n      0x04\n      add\n      tag_296\n      swap1\n      tag_297\n      jump\t// in\n    tag_296:\n      mload(0x40)\n      dup1\n      swap2\n      sub\n      swap1\n      revert\n    tag_295:\n        /* \"@openzeppelin/contracts-upgradeable/access/OwnableUpgradeable.sol\":1599:1729  function _checkOwner() internal view virtual {... */\n      jump\t// out\n        /* \"infra/FeeBatch.sol\":3915:4094  function _initRouter(address _unirouter) internal {... */\n    tag_147:\n        /* \"infra/FeeBatch.sol\":3987:3997  _unirouter */\n      dup1\n        /* \"infra/FeeBatch.sol\":3975:3984  unirouter */\n      0x69\n      0x00\n        /* \"infra/FeeBatch.sol\":3975:3997  unirouter = _unirouter */\n      0x0100\n      exp\n      dup2\n      sload\n      dup2\n      0xffffffffffffffffffffffffffffffffffffffff\n      mul\n      not\n      and\n      swap1\n      dup4\n      0xffffffffffffffffffffffffffffffffffffffff\n      and\n      mul\n      or\n      swap1\n      sstore\n      pop\n        /* \"infra/FeeBatch.sol\":4007:4053  wNative.safeApprove(unirouter, type(uint).max) */\n      tag_299\n        /* \"infra/FeeBatch.sol\":4027:4036  unirouter */\n      0x69\n      0x00\n      swap1\n      sload\n      swap1\n      0x0100\n      exp\n      swap1\n      div\n      0xffffffffffffffffffffffffffffffffffffffff\n      and\n        /* \"infra/FeeBatch.sol\":4038:4052  type(uint).max */\n      0xffffffffffffffffffffffffffffffffffffffffffffffffffffffffffffffff\n        /* \"infra/FeeBatch.sol\":4007:4014  wNative */\n      0x65\n      0x00\n      swap1\n      sload\n      swap1\n      0x0100\n      exp\n      swap1\n      div\n      0xffffffffffffffffffffffffffffffffffffffff\n      and\n        /* \"infra/FeeBatch.sol\":4007:4026  wNative.safeApprove */\n      0xffffffffffffffffffffffffffffffffffffffff\n      and\n      tag_278\n      swap1\n        /* \"infra/FeeBatch.sol\":4007:4053  wNative.safeApprove(unirouter, type(uint).max) */\n      swap3\n      swap2\n      swap1\n      0xffffffff\n      and\n      jump\t// in\n    tag_299:\n        /* \"infra/FeeBatch.sol\":4083:4087  true */\n      0x01\n        /* \"infra/FeeBatch.sol\":4063:4080  routerInitialized */\n      0x6d\n      0x00\n        /* \"infra/FeeBatch.sol\":4063:4087  routerInitialized = true */\n      0x0100\n      exp\n      dup2\n      sload\n      dup2\n      0xff\n      mul\n      not\n      and\n      swap1\n      dup4\n      iszero\n      iszero\n      mul\n      or\n      swap1\n      sstore\n      pop\n        /* \"infra/FeeBatch.sol\":3915:4094  function _initRouter(address _unirouter) internal {... */\n      pop\n      jump\t// out\n        /* \"@openzeppelin/contracts-upgradeable/utils/AddressUpgradeable.sol\":1186:1506  function isContract(address account) internal view returns (bool) {... */\n    tag_152:\n        /* \"@openzeppelin/contracts-upgradeable/utils/AddressUpgradeable.sol\":1246:1250  bool */\n      0x00\n        /* \"@openzeppelin/contracts-upgradeable/utils/AddressUpgradeable.sol\":1498:1499  0 */\n      dup1\n        /* \"@openzeppelin/contracts-upgradeable/utils/AddressUpgradeable.sol\":1476:1483  account */\n      dup3\n        /* \"@openzeppelin/contracts-upgradeable/utils/AddressUpgradeable.sol\":1476:1495  account.code.length */\n      0xffffffffffffffffffffffffffffffffffffffff\n      and\n      extcodesize\n        /* \"@openzeppelin/contracts-upgradeable/utils/AddressUpgradeable.sol\":1476:1499  account.code.length > 0 */\n      gt\n        /* \"@openzeppelin/contracts-upgradeable/utils/AddressUpgradeable.sol\":1469:1499  return account.code.length > 0 */\n      swap1\n      pop\n        /* \"@openzeppelin/contracts-upgradeable/utils/AddressUpgradeable.sol\":1186:1506  function isContract(address account) internal view returns (bool) {... */\n      swap2\n      swap1\n      pop\n      jump\t// out\n        /* \"@openzeppelin/contracts-upgradeable/access/OwnableUpgradeable.sol\":1003:1098  function __Ownable_init() internal onlyInitializing {... */\n    tag_160:\n        /* \"@openzeppelin/contracts-upgradeable/proxy/utils/Initializable.sol\":4910:4923  _initializing */\n      0x00\n      0x01\n      swap1\n      sload\n      swap1\n      0x0100\n      exp\n      swap1\n      div\n      0xff\n      and\n        /* \"@openzeppelin/contracts-upgradeable/proxy/utils/Initializable.sol\":4902:4971  require(_initializing, \"Initializable: contract is not initializing\") */\n      tag_302\n      jumpi\n      mload(0x40)\n      0x08c379a000000000000000000000000000000000000000000000000000000000\n      dup2\n      mstore\n      0x04\n      add\n      tag_303\n      swap1\n      tag_304\n      jump\t// in\n    tag_303:\n      mload(0x40)\n      dup1\n      swap2\n      sub\n      swap1\n      revert\n    tag_302:\n        /* \"@openzeppelin/contracts-upgradeable/access/OwnableUpgradeable.sol\":1065:1091  __Ownable_init_unchained() */\n      tag_306\n        /* \"@openzeppelin/contracts-upgradeable/access/OwnableUpgradeable.sol\":1065:1089  __Ownable_init_unchained */\n      tag_307\n        /* \"@openzeppelin/contracts-upgradeable/access/OwnableUpgradeable.sol\":1065:1091  __Ownable_init_unchained() */\n      jump\t// in\n    tag_306:\n        /* \"@openzeppelin/contracts-upgradeable/access/OwnableUpgradeable.sol\":1003:1098  function __Ownable_init() internal onlyInitializing {... */\n      jump\t// out\n        /* \"@openzeppelin/contracts-upgradeable/token/ERC20/utils/SafeERC20Upgradeable.sol\":818:1034  function safeTransfer(... */\n    tag_184:\n        /* \"@openzeppelin/contracts-upgradeable/token/ERC20/utils/SafeERC20Upgradeable.sol\":941:1027  _callOptionalReturn(token, abi.encodeWithSelector(token.transfer.selector, to, value)) */\n      tag_309\n        /* \"@openzeppelin/contracts-upgradeable/token/ERC20/utils/SafeERC20Upgradeable.sol\":961:966  token */\n      dup4\n        /* \"@openzeppelin/contracts-upgradeable/token/ERC20/utils/SafeERC20Upgradeable.sol\":991:1014  token.transfer.selector */\n      shl(0xe0, 0xa9059cbb)\n        /* \"@openzeppelin/contracts-upgradeable/token/ERC20/utils/SafeERC20Upgradeable.sol\":1016:1018  to */\n      dup5\n        /* \"@openzeppelin/contracts-upgradeable/token/ERC20/utils/SafeERC20Upgradeable.sol\":1020:1025  value */\n      dup5\n        /* \"@openzeppelin/contracts-upgradeable/token/ERC20/utils/SafeERC20Upgradeable.sol\":968:1026  abi.encodeWithSelector(token.transfer.selector, to, value) */\n      add(0x24, mload(0x40))\n      tag_310\n      swap3\n      swap2\n      swap1\n      tag_311\n      jump\t// in\n    tag_310:\n      mload(0x40)\n      0x20\n      dup2\n      dup4\n      sub\n      sub\n      dup2\n      mstore\n      swap1\n      0x40\n      mstore\n      swap1\n      not(0xffffffffffffffffffffffffffffffffffffffffffffffffffffffff)\n      and\n      0x20\n      dup3\n      add\n      dup1\n      mload\n      0xffffffffffffffffffffffffffffffffffffffffffffffffffffffff\n      dup4\n      dup2\n      dup4\n      and\n      or\n      dup4\n      mstore\n      pop\n      pop\n      pop\n      pop\n        /* \"@openzeppelin/contracts-upgradeable/token/ERC20/utils/SafeERC20Upgradeable.sol\":941:960  _callOptionalReturn */\n      tag_312\n        /* \"@openzeppelin/contracts-upgradeable/token/ERC20/utils/SafeERC20Upgradeable.sol\":941:1027  _callOptionalReturn(token, abi.encodeWithSelector(token.transfer.selector, to, value)) */\n      jump\t// in\n    tag_309:\n        /* \"@openzeppelin/contracts-upgradeable/token/ERC20/utils/SafeERC20Upgradeable.sol\":818:1034  function safeTransfer(... */\n      pop\n      pop\n      pop\n      jump\t// out\n        /* \"@openzeppelin/contracts-upgradeable/access/OwnableUpgradeable.sol\":2673:2860  function _transferOwnership(address newOwner) internal virtual {... */\n    tag_251:\n        /* \"@openzeppelin/contracts-upgradeable/access/OwnableUpgradeable.sol\":2746:2762  address oldOwner */\n      0x00\n        /* \"@openzeppelin/contracts-upgradeable/access/OwnableUpgradeable.sol\":2765:2771  _owner */\n      0x33\n      0x00\n      swap1\n      sload\n      swap1\n      0x0100\n      exp\n      swap1\n      div\n      0xffffffffffffffffffffffffffffffffffffffff\n      and\n        /* \"@openzeppelin/contracts-upgradeable/access/OwnableUpgradeable.sol\":2746:2771  address oldOwner = _owner */\n      swap1\n      pop\n        /* \"@openzeppelin/contracts-upgradeable/access/OwnableUpgradeable.sol\":2790:2798  newOwner */\n      dup2\n        /* \"@openzeppelin/contracts-upgradeable/access/OwnableUpgradeable.sol\":2781:2787  _owner */\n      0x33\n      0x00\n        /* \"@openzeppelin/contracts-upgradeable/access/OwnableUpgradeable.sol\":2781:2798  _owner = newOwner */\n      0x0100\n      exp\n      dup2\n      sload\n      dup2\n      0xffffffffffffffffffffffffffffffffffffffff\n      mul\n      not\n      and\n      swap1\n      dup4\n      0xffffffffffffffffffffffffffffffffffffffff\n      and\n      mul\n      or\n      swap1\n      sstore\n      pop\n        /* \"@openzeppelin/contracts-upgradeable/access/OwnableUpgradeable.sol\":2844:2852  newOwner */\n      dup2\n        /* \"@openzeppelin/contracts-upgradeable/access/OwnableUpgradeable.sol\":2813:2853  OwnershipTransferred(oldOwner, newOwner) */\n      0xffffffffffffffffffffffffffffffffffffffff\n      and\n        /* \"@openzeppelin/contracts-upgradeable/access/OwnableUpgradeable.sol\":2834:2842  oldOwner */\n      dup2\n        /* \"@openzeppelin/contracts-upgradeable/access/OwnableUpgradeable.sol\":2813:2853  OwnershipTransferred(oldOwner, newOwner) */\n      0xffffffffffffffffffffffffffffffffffffffff\n      and\n      0x8be0079c531659141344cd1fd0a4f28419497f9722a3daafe3b4186f6b6457e0\n      mload(0x40)\n      mload(0x40)\n      dup1\n      swap2\n      sub\n      swap1\n      log3\n        /* \"@openzeppelin/contracts-upgradeable/access/OwnableUpgradeable.sol\":2736:2860  {... */\n      pop\n        /* \"@openzeppelin/contracts-upgradeable/access/OwnableUpgradeable.sol\":2673:2860  function _transferOwnership(address newOwner) internal virtual {... */\n      pop\n      jump\t// out\n        /* \"@openzeppelin/contracts-upgradeable/token/ERC20/utils/SafeERC20Upgradeable.sol\":1552:2166  function safeApprove(... */\n    tag_278:\n        /* \"@openzeppelin/contracts-upgradeable/token/ERC20/utils/SafeERC20Upgradeable.sol\":1927:1928  0 */\n      0x00\n        /* \"@openzeppelin/contracts-upgradeable/token/ERC20/utils/SafeERC20Upgradeable.sol\":1918:1923  value */\n      dup2\n        /* \"@openzeppelin/contracts-upgradeable/token/ERC20/utils/SafeERC20Upgradeable.sol\":1918:1928  value == 0 */\n      eq\n        /* \"@openzeppelin/contracts-upgradeable/token/ERC20/utils/SafeERC20Upgradeable.sol\":1917:1979  (value == 0) || (token.allowance(address(this), spender) == 0) */\n      dup1\n      tag_315\n      jumpi\n      pop\n        /* \"@openzeppelin/contracts-upgradeable/token/ERC20/utils/SafeERC20Upgradeable.sol\":1977:1978  0 */\n      0x00\n        /* \"@openzeppelin/contracts-upgradeable/token/ERC20/utils/SafeERC20Upgradeable.sol\":1934:1939  token */\n      dup4\n        /* \"@openzeppelin/contracts-upgradeable/token/ERC20/utils/SafeERC20Upgradeable.sol\":1934:1949  token.allowance */\n      0xffffffffffffffffffffffffffffffffffffffff\n      and\n      0xdd62ed3e\n        /* \"@openzeppelin/contracts-upgradeable/token/ERC20/utils/SafeERC20Upgradeable.sol\":1958:1962  this */\n      address\n        /* \"@openzeppelin/contracts-upgradeable/token/ERC20/utils/SafeERC20Upgradeable.sol\":1965:1972  spender */\n      dup6\n        /* \"@openzeppelin/contracts-upgradeable/token/ERC20/utils/SafeERC20Upgradeable.sol\":1934:1973  token.allowance(address(this), spender) */\n      mload(0x40)\n      dup4\n      0xffffffff\n      and\n      0xe0\n      shl\n      dup2\n      mstore\n      0x04\n      add\n      tag_316\n      swap3\n      swap2\n      swap1\n      tag_263\n      jump\t// in\n    tag_316:\n      0x20\n      mload(0x40)\n      dup1\n      dup4\n      sub\n      dup2\n      dup7\n      dup1\n      extcodesize\n      iszero\n      dup1\n      iszero\n      tag_317\n      jumpi\n      0x00\n      dup1\n      revert\n    tag_317:\n      pop\n      gas\n      staticcall\n      iszero\n      dup1\n      iszero\n      tag_319\n      jumpi\n      returndatasize\n      0x00\n      dup1\n      returndatacopy\n      revert(0x00, returndatasize)\n    tag_319:\n      pop\n      pop\n      pop\n      pop\n      mload(0x40)\n      returndatasize\n      not(0x1f)\n      0x1f\n      dup3\n      add\n      and\n      dup3\n      add\n      dup1\n      0x40\n      mstore\n      pop\n      dup2\n      add\n      swap1\n      tag_320\n      swap2\n      swap1\n      tag_182\n      jump\t// in\n    tag_320:\n        /* \"@openzeppelin/contracts-upgradeable/token/ERC20/utils/SafeERC20Upgradeable.sol\":1934:1978  token.allowance(address(this), spender) == 0 */\n      eq\n        /* \"@openzeppelin/contracts-upgradeable/token/ERC20/utils/SafeERC20Upgradeable.sol\":1917:1979  (value == 0) || (token.allowance(address(this), spender) == 0) */\n    tag_315:\n        /* \"@openzeppelin/contracts-upgradeable/token/ERC20/utils/SafeERC20Upgradeable.sol\":1896:2059  require(... */\n      tag_321\n      jumpi\n      mload(0x40)\n      0x08c379a000000000000000000000000000000000000000000000000000000000\n      dup2\n      mstore\n      0x04\n      add\n      tag_322\n      swap1\n      tag_323\n      jump\t// in\n    tag_322:\n      mload(0x40)\n      dup1\n      swap2\n      sub\n      swap1\n      revert\n    tag_321:\n        /* \"@openzeppelin/contracts-upgradeable/token/ERC20/utils/SafeERC20Upgradeable.sol\":2069:2159  _callOptionalReturn(token, abi.encodeWithSelector(token.approve.selector, spender, value)) */\n      tag_324\n        /* \"@openzeppelin/contracts-upgradeable/token/ERC20/utils/SafeERC20Upgradeable.sol\":2089:2094  token */\n      dup4\n        /* \"@openzeppelin/contracts-upgradeable/token/ERC20/utils/SafeERC20Upgradeable.sol\":2119:2141  token.approve.selector */\n      shl(0xe0, 0x095ea7b3)\n        /* \"@openzeppelin/contracts-upgradeable/token/ERC20/utils/SafeERC20Upgradeable.sol\":2143:2150  spender */\n      dup5\n        /* \"@openzeppelin/contracts-upgradeable/token/ERC20/utils/SafeERC20Upgradeable.sol\":2152:2157  value */\n      dup5\n        /* \"@openzeppelin/contracts-upgradeable/token/ERC20/utils/SafeERC20Upgradeable.sol\":2096:2158  abi.encodeWithSelector(token.approve.selector, spender, value) */\n      add(0x24, mload(0x40))\n      tag_325\n      swap3\n      swap2\n      swap1\n      tag_311\n      jump\t// in\n    tag_325:\n      mload(0x40)\n      0x20\n      dup2\n      dup4\n      sub\n      sub\n      dup2\n      mstore\n      swap1\n      0x40\n      mstore\n      swap1\n      not(0xffffffffffffffffffffffffffffffffffffffffffffffffffffffff)\n      and\n      0x20\n      dup3\n      add\n      dup1\n      mload\n      0xffffffffffffffffffffffffffffffffffffffffffffffffffffffff\n      dup4\n      dup2\n      dup4\n      and\n      or\n      dup4\n      mstore\n      pop\n      pop\n      pop\n      pop\n        /* \"@openzeppelin/contracts-upgradeable/token/ERC20/utils/SafeERC20Upgradeable.sol\":2069:2088  _callOptionalReturn */\n      tag_312\n        /* \"@openzeppelin/contracts-upgradeable/token/ERC20/utils/SafeERC20Upgradeable.sol\":2069:2159  _callOptionalReturn(token, abi.encodeWithSelector(token.approve.selector, spender, value)) */\n      jump\t// in\n    tag_324:\n        /* \"@openzeppelin/contracts-upgradeable/token/ERC20/utils/SafeERC20Upgradeable.sol\":1552:2166  function safeApprove(... */\n      pop\n      pop\n      pop\n      jump\t// out\n        /* \"@openzeppelin/contracts-upgradeable/utils/ContextUpgradeable.sol\":850:946  function _msgSender() internal view virtual returns (address) {... */\n    tag_293:\n        /* \"@openzeppelin/contracts-upgradeable/utils/ContextUpgradeable.sol\":903:910  address */\n      0x00\n        /* \"@openzeppelin/contracts-upgradeable/utils/ContextUpgradeable.sol\":929:939  msg.sender */\n      caller\n        /* \"@openzeppelin/contracts-upgradeable/utils/ContextUpgradeable.sol\":922:939  return msg.sender */\n      swap1\n      pop\n        /* \"@openzeppelin/contracts-upgradeable/utils/ContextUpgradeable.sol\":850:946  function _msgSender() internal view virtual returns (address) {... */\n      swap1\n      jump\t// out\n        /* \"@openzeppelin/contracts-upgradeable/access/OwnableUpgradeable.sol\":1104:1215  function __Ownable_init_unchained() internal onlyInitializing {... */\n    tag_307:\n        /* \"@openzeppelin/contracts-upgradeable/proxy/utils/Initializable.sol\":4910:4923  _initializing */\n      0x00\n      0x01\n      swap1\n      sload\n      swap1\n      0x0100\n      exp\n      swap1\n      div\n      0xff\n      and\n        /* \"@openzeppelin/contracts-upgradeable/proxy/utils/Initializable.sol\":4902:4971  require(_initializing, \"Initializable: contract is not initializing\") */\n      tag_328\n      jumpi\n      mload(0x40)\n      0x08c379a000000000000000000000000000000000000000000000000000000000\n      dup2\n      mstore\n      0x04\n      add\n      tag_329\n      swap1\n      tag_304\n      jump\t// in\n    tag_329:\n      mload(0x40)\n      dup1\n      swap2\n      sub\n      swap1\n      revert\n    tag_328:\n        /* \"@openzeppelin/contracts-upgradeable/access/OwnableUpgradeable.sol\":1176:1208  _transferOwnership(_msgSender()) */\n      tag_331\n        /* \"@openzeppelin/contracts-upgradeable/access/OwnableUpgradeable.sol\":1195:1207  _msgSender() */\n      tag_332\n        /* \"@openzeppelin/contracts-upgradeable/access/OwnableUpgradeable.sol\":1195:1205  _msgSender */\n      tag_293\n        /* \"@openzeppelin/contracts-upgradeable/access/OwnableUpgradeable.sol\":1195:1207  _msgSender() */\n      jump\t// in\n    tag_332:\n        /* \"@openzeppelin/contracts-upgradeable/access/OwnableUpgradeable.sol\":1176:1194  _transferOwnership */\n      tag_251\n        /* \"@openzeppelin/contracts-upgradeable/access/OwnableUpgradeable.sol\":1176:1208  _transferOwnership(_msgSender()) */\n      jump\t// in\n    tag_331:\n        /* \"@openzeppelin/contracts-upgradeable/access/OwnableUpgradeable.sol\":1104:1215  function __Ownable_init_unchained() internal onlyInitializing {... */\n      jump\t// out\n        /* \"@openzeppelin/contracts-upgradeable/token/ERC20/utils/SafeERC20Upgradeable.sol\":3868:4585  function _callOptionalReturn(IERC20Upgradeable token, bytes memory data) private {... */\n    tag_312:\n        /* \"@openzeppelin/contracts-upgradeable/token/ERC20/utils/SafeERC20Upgradeable.sol\":4298:4321  bytes memory returndata */\n      0x00\n        /* \"@openzeppelin/contracts-upgradeable/token/ERC20/utils/SafeERC20Upgradeable.sol\":4324:4393  address(token).functionCall(data, \"SafeERC20: low-level call failed\") */\n      tag_334\n        /* \"@openzeppelin/contracts-upgradeable/token/ERC20/utils/SafeERC20Upgradeable.sol\":4352:4356  data */\n      dup3\n        /* \"@openzeppelin/contracts-upgradeable/token/ERC20/utils/SafeERC20Upgradeable.sol\":4324:4393  address(token).functionCall(data, \"SafeERC20: low-level call failed\") */\n      mload(0x40)\n      dup1\n      0x40\n      add\n      0x40\n      mstore\n      dup1\n      0x20\n      dup2\n      mstore\n      0x20\n      add\n      0x5361666545524332303a206c6f772d6c6576656c2063616c6c206661696c6564\n      dup2\n      mstore\n      pop\n        /* \"@openzeppelin/contracts-upgradeable/token/ERC20/utils/SafeERC20Upgradeable.sol\":4332:4337  token */\n      dup6\n        /* \"@openzeppelin/contracts-upgradeable/token/ERC20/utils/SafeERC20Upgradeable.sol\":4324:4351  address(token).functionCall */\n      0xffffffffffffffffffffffffffffffffffffffff\n      and\n      tag_335\n      swap1\n        /* \"@openzeppelin/contracts-upgradeable/token/ERC20/utils/SafeERC20Upgradeable.sol\":4324:4393  address(token).functionCall(data, \"SafeERC20: low-level call failed\") */\n      swap3\n      swap2\n      swap1\n      0xffffffff\n      and\n      jump\t// in\n    tag_334:\n        /* \"@openzeppelin/contracts-upgradeable/token/ERC20/utils/SafeERC20Upgradeable.sol\":4298:4393  bytes memory returndata = address(token).functionCall(data, \"SafeERC20: low-level call failed\") */\n      swap1\n      pop\n        /* \"@openzeppelin/contracts-upgradeable/token/ERC20/utils/SafeERC20Upgradeable.sol\":4427:4428  0 */\n      0x00\n        /* \"@openzeppelin/contracts-upgradeable/token/ERC20/utils/SafeERC20Upgradeable.sol\":4407:4417  returndata */\n      dup2\n        /* \"@openzeppelin/contracts-upgradeable/token/ERC20/utils/SafeERC20Upgradeable.sol\":4407:4424  returndata.length */\n      mload\n        /* \"@openzeppelin/contracts-upgradeable/token/ERC20/utils/SafeERC20Upgradeable.sol\":4407:4428  returndata.length > 0 */\n      gt\n        /* \"@openzeppelin/contracts-upgradeable/token/ERC20/utils/SafeERC20Upgradeable.sol\":4403:4579  if (returndata.length > 0) {... */\n      iszero\n      tag_336\n      jumpi\n        /* \"@openzeppelin/contracts-upgradeable/token/ERC20/utils/SafeERC20Upgradeable.sol\":4502:4512  returndata */\n      dup1\n        /* \"@openzeppelin/contracts-upgradeable/token/ERC20/utils/SafeERC20Upgradeable.sol\":4491:4521  abi.decode(returndata, (bool)) */\n      dup1\n      0x20\n      add\n      swap1\n      mload\n      dup2\n      add\n      swap1\n      tag_337\n      swap2\n      swap1\n      tag_338\n      jump\t// in\n    tag_337:\n        /* \"@openzeppelin/contracts-upgradeable/token/ERC20/utils/SafeERC20Upgradeable.sol\":4483:4568  require(abi.decode(returndata, (bool)), \"SafeERC20: ERC20 operation did not succeed\") */\n      tag_339\n      jumpi\n      mload(0x40)\n      0x08c379a000000000000000000000000000000000000000000000000000000000\n      dup2\n      mstore\n      0x04\n      add\n      tag_340\n      swap1\n      tag_341\n      jump\t// in\n    tag_340:\n      mload(0x40)\n      dup1\n      swap2\n      sub\n      swap1\n      revert\n    tag_339:\n        /* \"@openzeppelin/contracts-upgradeable/token/ERC20/utils/SafeERC20Upgradeable.sol\":4403:4579  if (returndata.length > 0) {... */\n    tag_336:\n        /* \"@openzeppelin/contracts-upgradeable/token/ERC20/utils/SafeERC20Upgradeable.sol\":3949:4585  {... */\n      pop\n        /* \"@openzeppelin/contracts-upgradeable/token/ERC20/utils/SafeERC20Upgradeable.sol\":3868:4585  function _callOptionalReturn(IERC20Upgradeable token, bytes memory data) private {... */\n      pop\n      pop\n      jump\t// out\n        /* \"@openzeppelin/contracts-upgradeable/utils/AddressUpgradeable.sol\":3872:4095  function functionCall(... */\n    tag_335:\n        /* \"@openzeppelin/contracts-upgradeable/utils/AddressUpgradeable.sol\":4005:4017  bytes memory */\n      0x60\n        /* \"@openzeppelin/contracts-upgradeable/utils/AddressUpgradeable.sol\":4036:4088  functionCallWithValue(target, data, 0, errorMessage) */\n      tag_343\n        /* \"@openzeppelin/contracts-upgradeable/utils/AddressUpgradeable.sol\":4058:4064  target */\n      dup5\n        /* \"@openzeppelin/contracts-upgradeable/utils/AddressUpgradeable.sol\":4066:4070  data */\n      dup5\n        /* \"@openzeppelin/contracts-upgradeable/utils/AddressUpgradeable.sol\":4072:4073  0 */\n      0x00\n        /* \"@openzeppelin/contracts-upgradeable/utils/AddressUpgradeable.sol\":4075:4087  errorMessage */\n      dup6\n        /* \"@openzeppelin/contracts-upgradeable/utils/AddressUpgradeable.sol\":4036:4057  functionCallWithValue */\n      tag_344\n        /* \"@openzeppelin/contracts-upgradeable/utils/AddressUpgradeable.sol\":4036:4088  functionCallWithValue(target, data, 0, errorMessage) */\n      jump\t// in\n    tag_343:\n        /* \"@openzeppelin/contracts-upgradeable/utils/AddressUpgradeable.sol\":4029:4088  return functionCallWithValue(target, data, 0, errorMessage) */\n      swap1\n      pop\n        /* \"@openzeppelin/contracts-upgradeable/utils/AddressUpgradeable.sol\":3872:4095  function functionCall(... */\n      swap4\n      swap3\n      pop\n      pop\n      pop\n      jump\t// out\n        /* \"@openzeppelin/contracts-upgradeable/utils/AddressUpgradeable.sol\":4959:5458  function functionCallWithValue(... */\n    tag_344:\n        /* \"@openzeppelin/contracts-upgradeable/utils/AddressUpgradeable.sol\":5124:5136  bytes memory */\n      0x60\n        /* \"@openzeppelin/contracts-upgradeable/utils/AddressUpgradeable.sol\":5181:5186  value */\n      dup3\n        /* \"@openzeppelin/contracts-upgradeable/utils/AddressUpgradeable.sol\":5156:5177  address(this).balance */\n      selfbalance\n        /* \"@openzeppelin/contracts-upgradeable/utils/AddressUpgradeable.sol\":5156:5186  address(this).balance >= value */\n      lt\n      iszero\n        /* \"@openzeppelin/contracts-upgradeable/utils/AddressUpgradeable.sol\":5148:5229  require(address(this).balance >= value, \"Address: insufficient balance for call\") */\n      tag_346\n      jumpi\n      mload(0x40)\n      0x08c379a000000000000000000000000000000000000000000000000000000000\n      dup2\n      mstore\n      0x04\n      add\n      tag_347\n      swap1\n      tag_348\n      jump\t// in\n    tag_347:\n      mload(0x40)\n      dup1\n      swap2\n      sub\n      swap1\n      revert\n    tag_346:\n        /* \"@openzeppelin/contracts-upgradeable/utils/AddressUpgradeable.sol\":5247:5265  isContract(target) */\n      tag_349\n        /* \"@openzeppelin/contracts-upgradeable/utils/AddressUpgradeable.sol\":5258:5264  target */\n      dup6\n        /* \"@openzeppelin/contracts-upgradeable/utils/AddressUpgradeable.sol\":5247:5257  isContract */\n      tag_152\n        /* \"@openzeppelin/contracts-upgradeable/utils/AddressUpgradeable.sol\":5247:5265  isContract(target) */\n      jump\t// in\n    tag_349:\n        /* \"@openzeppelin/contracts-upgradeable/utils/AddressUpgradeable.sol\":5239:5299  require(isContract(target), \"Address: call to non-contract\") */\n      tag_350\n      jumpi\n      mload(0x40)\n      0x08c379a000000000000000000000000000000000000000000000000000000000\n      dup2\n      mstore\n      0x04\n      add\n      tag_351\n      swap1\n      tag_352\n      jump\t// in\n    tag_351:\n      mload(0x40)\n      dup1\n      swap2\n      sub\n      swap1\n      revert\n    tag_350:\n        /* \"@openzeppelin/contracts-upgradeable/utils/AddressUpgradeable.sol\":5311:5323  bool success */\n      0x00\n        /* \"@openzeppelin/contracts-upgradeable/utils/AddressUpgradeable.sol\":5325:5348  bytes memory returndata */\n      dup1\n        /* \"@openzeppelin/contracts-upgradeable/utils/AddressUpgradeable.sol\":5352:5358  target */\n      dup7\n        /* \"@openzeppelin/contracts-upgradeable/utils/AddressUpgradeable.sol\":5352:5363  target.call */\n      0xffffffffffffffffffffffffffffffffffffffff\n      and\n        /* \"@openzeppelin/contracts-upgradeable/utils/AddressUpgradeable.sol\":5371:5376  value */\n      dup6\n        /* \"@openzeppelin/contracts-upgradeable/utils/AddressUpgradeable.sol\":5378:5382  data */\n      dup8\n        /* \"@openzeppelin/contracts-upgradeable/utils/AddressUpgradeable.sol\":5352:5383  target.call{value: value}(data) */\n      mload(0x40)\n      tag_353\n      swap2\n      swap1\n      tag_354\n      jump\t// in\n    tag_353:\n      0x00\n      mload(0x40)\n      dup1\n      dup4\n      sub\n      dup2\n      dup6\n      dup8\n      gas\n      call\n      swap3\n      pop\n      pop\n      pop\n      returndatasize\n      dup1\n      0x00\n      dup2\n      eq\n      tag_357\n      jumpi\n      mload(0x40)\n      swap2\n      pop\n      and(add(returndatasize, 0x3f), not(0x1f))\n      dup3\n      add\n      0x40\n      mstore\n      returndatasize\n      dup3\n      mstore\n      returndatasize\n      0x00\n      0x20\n      dup5\n      add\n      returndatacopy\n      jump(tag_356)\n    tag_357:\n      0x60\n      swap2\n      pop\n    tag_356:\n      pop\n        /* \"@openzeppelin/contracts-upgradeable/utils/AddressUpgradeable.sol\":5310:5383  (bool success, bytes memory returndata) = target.call{value: value}(data) */\n      swap2\n      pop\n      swap2\n      pop\n        /* \"@openzeppelin/contracts-upgradeable/utils/AddressUpgradeable.sol\":5400:5451  verifyCallResult(success, returndata, errorMessage) */\n      tag_358\n        /* \"@openzeppelin/contracts-upgradeable/utils/AddressUpgradeable.sol\":5417:5424  success */\n      dup3\n        /* \"@openzeppelin/contracts-upgradeable/utils/AddressUpgradeable.sol\":5426:5436  returndata */\n      dup3\n        /* \"@openzeppelin/contracts-upgradeable/utils/AddressUpgradeable.sol\":5438:5450  errorMessage */\n      dup7\n        /* \"@openzeppelin/contracts-upgradeable/utils/AddressUpgradeable.sol\":5400:5416  verifyCallResult */\n      tag_359\n        /* \"@openzeppelin/contracts-upgradeable/utils/AddressUpgradeable.sol\":5400:5451  verifyCallResult(success, returndata, errorMessage) */\n      jump\t// in\n    tag_358:\n        /* \"@openzeppelin/contracts-upgradeable/utils/AddressUpgradeable.sol\":5393:5451  return verifyCallResult(success, returndata, errorMessage) */\n      swap3\n      pop\n      pop\n      pop\n        /* \"@openzeppelin/contracts-upgradeable/utils/AddressUpgradeable.sol\":4959:5458  function functionCallWithValue(... */\n      swap5\n      swap4\n      pop\n      pop\n      pop\n      pop\n      jump\t// out\n        /* \"@openzeppelin/contracts-upgradeable/utils/AddressUpgradeable.sol\":6622:7364  function verifyCallResult(... */\n    tag_359:\n        /* \"@openzeppelin/contracts-upgradeable/utils/AddressUpgradeable.sol\":6768:6780  bytes memory */\n      0x60\n        /* \"@openzeppelin/contracts-upgradeable/utils/AddressUpgradeable.sol\":6796:6803  success */\n      dup4\n        /* \"@openzeppelin/contracts-upgradeable/utils/AddressUpgradeable.sol\":6792:7358  if (success) {... */\n      iszero\n      tag_361\n      jumpi\n        /* \"@openzeppelin/contracts-upgradeable/utils/AddressUpgradeable.sol\":6826:6836  returndata */\n      dup3\n        /* \"@openzeppelin/contracts-upgradeable/utils/AddressUpgradeable.sol\":6819:6836  return returndata */\n      swap1\n      pop\n      jump(tag_360)\n        /* \"@openzeppelin/contracts-upgradeable/utils/AddressUpgradeable.sol\":6792:7358  if (success) {... */\n    tag_361:\n        /* \"@openzeppelin/contracts-upgradeable/utils/AddressUpgradeable.sol\":6957:6958  0 */\n      0x00\n        /* \"@openzeppelin/contracts-upgradeable/utils/AddressUpgradeable.sol\":6937:6947  returndata */\n      dup4\n        /* \"@openzeppelin/contracts-upgradeable/utils/AddressUpgradeable.sol\":6937:6954  returndata.length */\n      mload\n        /* \"@openzeppelin/contracts-upgradeable/utils/AddressUpgradeable.sol\":6937:6958  returndata.length > 0 */\n      gt\n        /* \"@openzeppelin/contracts-upgradeable/utils/AddressUpgradeable.sol\":6933:7348  if (returndata.length > 0) {... */\n      iszero\n      tag_363\n      jumpi\n        /* \"@openzeppelin/contracts-upgradeable/utils/AddressUpgradeable.sol\":7181:7191  returndata */\n      dup3\n        /* \"@openzeppelin/contracts-upgradeable/utils/AddressUpgradeable.sol\":7175:7192  mload(returndata) */\n      mload\n        /* \"@openzeppelin/contracts-upgradeable/utils/AddressUpgradeable.sol\":7241:7256  returndata_size */\n      dup1\n        /* \"@openzeppelin/contracts-upgradeable/utils/AddressUpgradeable.sol\":7228:7238  returndata */\n      dup5\n        /* \"@openzeppelin/contracts-upgradeable/utils/AddressUpgradeable.sol\":7224:7226  32 */\n      0x20\n        /* \"@openzeppelin/contracts-upgradeable/utils/AddressUpgradeable.sol\":7220:7239  add(32, returndata) */\n      add\n        /* \"@openzeppelin/contracts-upgradeable/utils/AddressUpgradeable.sol\":7213:7257  revert(add(32, returndata), returndata_size) */\n      revert\n        /* \"@openzeppelin/contracts-upgradeable/utils/AddressUpgradeable.sol\":6933:7348  if (returndata.length > 0) {... */\n    tag_363:\n        /* \"@openzeppelin/contracts-upgradeable/utils/AddressUpgradeable.sol\":7320:7332  errorMessage */\n      dup2\n        /* \"@openzeppelin/contracts-upgradeable/utils/AddressUpgradeable.sol\":7313:7333  revert(errorMessage) */\n      mload(0x40)\n      0x08c379a000000000000000000000000000000000000000000000000000000000\n      dup2\n      mstore\n      0x04\n      add\n      tag_365\n      swap2\n      swap1\n      tag_366\n      jump\t// in\n    tag_365:\n      mload(0x40)\n      dup1\n      swap2\n      sub\n      swap1\n      revert\n        /* \"@openzeppelin/contracts-upgradeable/utils/AddressUpgradeable.sol\":6622:7364  function verifyCallResult(... */\n    tag_360:\n      swap4\n      swap3\n      pop\n      pop\n      pop\n      jump\t// out\n    tag_167:\n      dup3\n      dup1\n      sload\n      dup3\n      dup3\n      sstore\n      swap1\n      0x00\n      mstore\n      keccak256(0x00, 0x20)\n      swap1\n      dup2\n      add\n      swap3\n      dup3\n      iszero\n      tag_367\n      jumpi\n      swap2\n      0x20\n      mul\n      dup3\n      add\n    tag_368:\n      dup3\n      dup2\n      gt\n      iszero\n      tag_369\n      jumpi\n      dup3\n      mload\n      dup3\n      exp(0x0100, 0x00)\n      dup2\n      sload\n      dup2\n      0xffffffffffffffffffffffffffffffffffffffff\n      mul\n      not\n      and\n      swap1\n      dup4\n      0xffffffffffffffffffffffffffffffffffffffff\n      and\n      mul\n      or\n      swap1\n      sstore\n      pop\n      swap2\n      0x20\n      add\n      swap2\n      swap1\n      0x01\n      add\n      swap1\n      jump(tag_368)\n    tag_369:\n    tag_367:\n      pop\n      swap1\n      pop\n      tag_370\n      swap2\n      swap1\n      tag_371\n      jump\t// in\n    tag_370:\n      pop\n      swap1\n      jump\t// out\n    tag_246:\n      dup3\n      dup1\n      sload\n      dup3\n      dup3\n      sstore\n      swap1\n      0x00\n      mstore\n      keccak256(0x00, 0x20)\n      swap1\n      dup2\n      add\n      swap3\n      dup3\n      iszero\n      tag_372\n      jumpi\n      swap2\n      0x20\n      mul\n      dup3\n      add\n    tag_373:\n      dup3\n      dup2\n      gt\n      iszero\n      tag_374\n      jumpi\n      dup3\n      mload\n      dup3\n      exp(0x0100, 0x00)\n      dup2\n      sload\n      dup2\n      0xffffffffffffffffffffffffffffffffffffffff\n      mul\n      not\n      and\n      swap1\n      dup4\n      0xffffffffffffffffffffffffffffffffffffffff\n      and\n      mul\n      or\n      swap1\n      sstore\n      pop\n      swap2\n      0x20\n      add\n      swap2\n      swap1\n      0x01\n      add\n      swap1\n      jump(tag_373)\n    tag_374:\n    tag_372:\n      pop\n      swap1\n      pop\n      tag_375\n      swap2\n      swap1\n      tag_371\n      jump\t// in\n    tag_375:\n      pop\n      swap1\n      jump\t// out\n    tag_371:\n    tag_376:\n      dup1\n      dup3\n      gt\n      iszero\n      tag_377\n      jumpi\n      0x00\n      dup2\n      0x00\n      swap1\n      sstore\n      pop\n      0x01\n      add\n      jump(tag_376)\n    tag_377:\n      pop\n      swap1\n      jump\t// out\n        /* \"#utility.yul\":24:746   */\n    tag_379:\n        /* \"#utility.yul\":120:125   */\n      0x00\n        /* \"#utility.yul\":145:226   */\n      tag_381\n        /* \"#utility.yul\":161:225   */\n      tag_382\n        /* \"#utility.yul\":218:224   */\n      dup5\n        /* \"#utility.yul\":161:225   */\n      tag_383\n      jump\t// in\n    tag_382:\n        /* \"#utility.yul\":145:226   */\n      tag_384\n      jump\t// in\n    tag_381:\n        /* \"#utility.yul\":136:226   */\n      swap1\n      pop\n        /* \"#utility.yul\":246:251   */\n      dup1\n        /* \"#utility.yul\":275:281   */\n      dup4\n        /* \"#utility.yul\":268:273   */\n      dup3\n        /* \"#utility.yul\":261:282   */\n      mstore\n        /* \"#utility.yul\":309:313   */\n      0x20\n        /* \"#utility.yul\":302:307   */\n      dup3\n        /* \"#utility.yul\":298:314   */\n      add\n        /* \"#utility.yul\":291:314   */\n      swap1\n      pop\n        /* \"#utility.yul\":335:341   */\n      dup3\n        /* \"#utility.yul\":385:388   */\n      dup6\n        /* \"#utility.yul\":377:381   */\n      0x20\n        /* \"#utility.yul\":369:375   */\n      dup7\n        /* \"#utility.yul\":365:382   */\n      mul\n        /* \"#utility.yul\":360:363   */\n      dup3\n        /* \"#utility.yul\":356:383   */\n      add\n        /* \"#utility.yul\":353:389   */\n      gt\n        /* \"#utility.yul\":350:493   */\n      iszero\n      tag_385\n      jumpi\n        /* \"#utility.yul\":404:483   */\n      tag_386\n      tag_387\n      jump\t// in\n    tag_386:\n        /* \"#utility.yul\":350:493   */\n    tag_385:\n        /* \"#utility.yul\":517:518   */\n      0x00\n        /* \"#utility.yul\":502:740   */\n    tag_388:\n        /* \"#utility.yul\":527:533   */\n      dup6\n        /* \"#utility.yul\":524:525   */\n      dup2\n        /* \"#utility.yul\":521:534   */\n      lt\n        /* \"#utility.yul\":502:740   */\n      iszero\n      tag_390\n      jumpi\n        /* \"#utility.yul\":595:598   */\n      dup2\n        /* \"#utility.yul\":624:661   */\n      tag_391\n        /* \"#utility.yul\":657:660   */\n      dup9\n        /* \"#utility.yul\":645:655   */\n      dup3\n        /* \"#utility.yul\":624:661   */\n      tag_392\n      jump\t// in\n    tag_391:\n        /* \"#utility.yul\":619:622   */\n      dup5\n        /* \"#utility.yul\":612:662   */\n      mstore\n        /* \"#utility.yul\":691:695   */\n      0x20\n        /* \"#utility.yul\":686:689   */\n      dup5\n        /* \"#utility.yul\":682:696   */\n      add\n        /* \"#utility.yul\":675:696   */\n      swap4\n      pop\n        /* \"#utility.yul\":725:729   */\n      0x20\n        /* \"#utility.yul\":720:723   */\n      dup4\n        /* \"#utility.yul\":716:730   */\n      add\n        /* \"#utility.yul\":709:730   */\n      swap3\n      pop\n        /* \"#utility.yul\":562:740   */\n      pop\n        /* \"#utility.yul\":549:550   */\n      0x01\n        /* \"#utility.yul\":546:547   */\n      dup2\n        /* \"#utility.yul\":542:551   */\n      add\n        /* \"#utility.yul\":537:551   */\n      swap1\n      pop\n        /* \"#utility.yul\":502:740   */\n      jump(tag_388)\n    tag_390:\n        /* \"#utility.yul\":506:520   */\n      pop\n        /* \"#utility.yul\":126:746   */\n      pop\n      pop\n        /* \"#utility.yul\":24:746   */\n      swap4\n      swap3\n      pop\n      pop\n      pop\n      jump\t// out\n        /* \"#utility.yul\":769:1513   */\n    tag_393:\n        /* \"#utility.yul\":876:881   */\n      0x00\n        /* \"#utility.yul\":901:982   */\n      tag_395\n        /* \"#utility.yul\":917:981   */\n      tag_396\n        /* \"#utility.yul\":974:980   */\n      dup5\n        /* \"#utility.yul\":917:981   */\n      tag_397\n      jump\t// in\n    tag_396:\n        /* \"#utility.yul\":901:982   */\n      tag_384\n      jump\t// in\n    tag_395:\n        /* \"#utility.yul\":892:982   */\n      swap1\n      pop\n        /* \"#utility.yul\":1002:1007   */\n      dup1\n        /* \"#utility.yul\":1031:1037   */\n      dup4\n        /* \"#utility.yul\":1024:1029   */\n      dup3\n        /* \"#utility.yul\":1017:1038   */\n      mstore\n        /* \"#utility.yul\":1065:1069   */\n      0x20\n        /* \"#utility.yul\":1058:1063   */\n      dup3\n        /* \"#utility.yul\":1054:1070   */\n      add\n        /* \"#utility.yul\":1047:1070   */\n      swap1\n      pop\n        /* \"#utility.yul\":1091:1097   */\n      dup3\n        /* \"#utility.yul\":1141:1144   */\n      dup6\n        /* \"#utility.yul\":1133:1137   */\n      0x20\n        /* \"#utility.yul\":1125:1131   */\n      dup7\n        /* \"#utility.yul\":1121:1138   */\n      mul\n        /* \"#utility.yul\":1116:1119   */\n      dup3\n        /* \"#utility.yul\":1112:1139   */\n      add\n        /* \"#utility.yul\":1109:1145   */\n      gt\n        /* \"#utility.yul\":1106:1249   */\n      iszero\n      tag_398\n      jumpi\n        /* \"#utility.yul\":1160:1239   */\n      tag_399\n      tag_387\n      jump\t// in\n    tag_399:\n        /* \"#utility.yul\":1106:1249   */\n    tag_398:\n        /* \"#utility.yul\":1273:1274   */\n      0x00\n        /* \"#utility.yul\":1258:1507   */\n    tag_400:\n        /* \"#utility.yul\":1283:1289   */\n      dup6\n        /* \"#utility.yul\":1280:1281   */\n      dup2\n        /* \"#utility.yul\":1277:1290   */\n      lt\n        /* \"#utility.yul\":1258:1507   */\n      iszero\n      tag_402\n      jumpi\n        /* \"#utility.yul\":1351:1354   */\n      dup2\n        /* \"#utility.yul\":1380:1428   */\n      tag_403\n        /* \"#utility.yul\":1424:1427   */\n      dup9\n        /* \"#utility.yul\":1412:1422   */\n      dup3\n        /* \"#utility.yul\":1380:1428   */\n      tag_404\n      jump\t// in\n    tag_403:\n        /* \"#utility.yul\":1375:1378   */\n      dup5\n        /* \"#utility.yul\":1368:1429   */\n      mstore\n        /* \"#utility.yul\":1458:1462   */\n      0x20\n        /* \"#utility.yul\":1453:1456   */\n      dup5\n        /* \"#utility.yul\":1449:1463   */\n      add\n        /* \"#utility.yul\":1442:1463   */\n      swap4\n      pop\n        /* \"#utility.yul\":1492:1496   */\n      0x20\n        /* \"#utility.yul\":1487:1490   */\n      dup4\n        /* \"#utility.yul\":1483:1497   */\n      add\n        /* \"#utility.yul\":1476:1497   */\n      swap3\n      pop\n        /* \"#utility.yul\":1318:1507   */\n      pop\n        /* \"#utility.yul\":1305:1306   */\n      0x01\n        /* \"#utility.yul\":1302:1303   */\n      dup2\n        /* \"#utility.yul\":1298:1307   */\n      add\n        /* \"#utility.yul\":1293:1307   */\n      swap1\n      pop\n        /* \"#utility.yul\":1258:1507   */\n      jump(tag_400)\n    tag_402:\n        /* \"#utility.yul\":1262:1276   */\n      pop\n        /* \"#utility.yul\":882:1513   */\n      pop\n      pop\n        /* \"#utility.yul\":769:1513   */\n      swap4\n      swap3\n      pop\n      pop\n      pop\n      jump\t// out\n        /* \"#utility.yul\":1519:1658   */\n    tag_392:\n        /* \"#utility.yul\":1565:1570   */\n      0x00\n        /* \"#utility.yul\":1603:1609   */\n      dup2\n        /* \"#utility.yul\":1590:1610   */\n      calldataload\n        /* \"#utility.yul\":1581:1610   */\n      swap1\n      pop\n        /* \"#utility.yul\":1619:1652   */\n      tag_406\n        /* \"#utility.yul\":1646:1651   */\n      dup2\n        /* \"#utility.yul\":1619:1652   */\n      tag_407\n      jump\t// in\n    tag_406:\n        /* \"#utility.yul\":1519:1658   */\n      swap3\n      swap2\n      pop\n      pop\n      jump\t// out\n        /* \"#utility.yul\":1681:2051   */\n    tag_408:\n        /* \"#utility.yul\":1752:1757   */\n      0x00\n        /* \"#utility.yul\":1801:1804   */\n      dup3\n        /* \"#utility.yul\":1794:1798   */\n      0x1f\n        /* \"#utility.yul\":1786:1792   */\n      dup4\n        /* \"#utility.yul\":1782:1799   */\n      add\n        /* \"#utility.yul\":1778:1805   */\n      slt\n        /* \"#utility.yul\":1768:1890   */\n      tag_410\n      jumpi\n        /* \"#utility.yul\":1809:1888   */\n      tag_411\n      tag_412\n      jump\t// in\n    tag_411:\n        /* \"#utility.yul\":1768:1890   */\n    tag_410:\n        /* \"#utility.yul\":1926:1932   */\n      dup2\n        /* \"#utility.yul\":1913:1933   */\n      calldataload\n        /* \"#utility.yul\":1951:2045   */\n      tag_413\n        /* \"#utility.yul\":2041:2044   */\n      dup5\n        /* \"#utility.yul\":2033:2039   */\n      dup3\n        /* \"#utility.yul\":2026:2030   */\n      0x20\n        /* \"#utility.yul\":2018:2024   */\n      dup7\n        /* \"#utility.yul\":2014:2031   */\n      add\n        /* \"#utility.yul\":1951:2045   */\n      tag_379\n      jump\t// in\n    tag_413:\n        /* \"#utility.yul\":1942:2045   */\n      swap2\n      pop\n        /* \"#utility.yul\":1758:2051   */\n      pop\n        /* \"#utility.yul\":1681:2051   */\n      swap3\n      swap2\n      pop\n      pop\n      jump\t// out\n        /* \"#utility.yul\":2074:2459   */\n    tag_414:\n        /* \"#utility.yul\":2156:2161   */\n      0x00\n        /* \"#utility.yul\":2205:2208   */\n      dup3\n        /* \"#utility.yul\":2198:2202   */\n      0x1f\n        /* \"#utility.yul\":2190:2196   */\n      dup4\n        /* \"#utility.yul\":2186:2203   */\n      add\n        /* \"#utility.yul\":2182:2209   */\n      slt\n        /* \"#utility.yul\":2172:2294   */\n      tag_416\n      jumpi\n        /* \"#utility.yul\":2213:2292   */\n      tag_417\n      tag_412\n      jump\t// in\n    tag_417:\n        /* \"#utility.yul\":2172:2294   */\n    tag_416:\n        /* \"#utility.yul\":2323:2329   */\n      dup2\n        /* \"#utility.yul\":2317:2330   */\n      mload\n        /* \"#utility.yul\":2348:2453   */\n      tag_418\n        /* \"#utility.yul\":2449:2452   */\n      dup5\n        /* \"#utility.yul\":2441:2447   */\n      dup3\n        /* \"#utility.yul\":2434:2438   */\n      0x20\n        /* \"#utility.yul\":2426:2432   */\n      dup7\n        /* \"#utility.yul\":2422:2439   */\n      add\n        /* \"#utility.yul\":2348:2453   */\n      tag_393\n      jump\t// in\n    tag_418:\n        /* \"#utility.yul\":2339:2453   */\n      swap2\n      pop\n        /* \"#utility.yul\":2162:2459   */\n      pop\n        /* \"#utility.yul\":2074:2459   */\n      swap3\n      swap2\n      pop\n      pop\n      jump\t// out\n        /* \"#utility.yul\":2465:2602   */\n    tag_419:\n        /* \"#utility.yul\":2519:2524   */\n      0x00\n        /* \"#utility.yul\":2550:2556   */\n      dup2\n        /* \"#utility.yul\":2544:2557   */\n      mload\n        /* \"#utility.yul\":2535:2557   */\n      swap1\n      pop\n        /* \"#utility.yul\":2566:2596   */\n      tag_421\n        /* \"#utility.yul\":2590:2595   */\n      dup2\n        /* \"#utility.yul\":2566:2596   */\n      tag_422\n      jump\t// in\n    tag_421:\n        /* \"#utility.yul\":2465:2602   */\n      swap3\n      swap2\n      pop\n      pop\n      jump\t// out\n        /* \"#utility.yul\":2608:2747   */\n    tag_423:\n        /* \"#utility.yul\":2654:2659   */\n      0x00\n        /* \"#utility.yul\":2692:2698   */\n      dup2\n        /* \"#utility.yul\":2679:2699   */\n      calldataload\n        /* \"#utility.yul\":2670:2699   */\n      swap1\n      pop\n        /* \"#utility.yul\":2708:2741   */\n      tag_425\n        /* \"#utility.yul\":2735:2740   */\n      dup2\n        /* \"#utility.yul\":2708:2741   */\n      tag_426\n      jump\t// in\n    tag_425:\n        /* \"#utility.yul\":2608:2747   */\n      swap3\n      swap2\n      pop\n      pop\n      jump\t// out\n        /* \"#utility.yul\":2753:2896   */\n    tag_404:\n        /* \"#utility.yul\":2810:2815   */\n      0x00\n        /* \"#utility.yul\":2841:2847   */\n      dup2\n        /* \"#utility.yul\":2835:2848   */\n      mload\n        /* \"#utility.yul\":2826:2848   */\n      swap1\n      pop\n        /* \"#utility.yul\":2857:2890   */\n      tag_428\n        /* \"#utility.yul\":2884:2889   */\n      dup2\n        /* \"#utility.yul\":2857:2890   */\n      tag_426\n      jump\t// in\n    tag_428:\n        /* \"#utility.yul\":2753:2896   */\n      swap3\n      swap2\n      pop\n      pop\n      jump\t// out\n        /* \"#utility.yul\":2902:3231   */\n    tag_42:\n        /* \"#utility.yul\":2961:2967   */\n      0x00\n        /* \"#utility.yul\":3010:3012   */\n      0x20\n        /* \"#utility.yul\":2998:3007   */\n      dup3\n        /* \"#utility.yul\":2989:2996   */\n      dup5\n        /* \"#utility.yul\":2985:3008   */\n      sub\n        /* \"#utility.yul\":2981:3013   */\n      slt\n        /* \"#utility.yul\":2978:3097   */\n      iszero\n      tag_430\n      jumpi\n        /* \"#utility.yul\":3016:3095   */\n      tag_431\n      tag_432\n      jump\t// in\n    tag_431:\n        /* \"#utility.yul\":2978:3097   */\n    tag_430:\n        /* \"#utility.yul\":3136:3137   */\n      0x00\n        /* \"#utility.yul\":3161:3214   */\n      tag_433\n        /* \"#utility.yul\":3206:3213   */\n      dup5\n        /* \"#utility.yul\":3197:3203   */\n      dup3\n        /* \"#utility.yul\":3186:3195   */\n      dup6\n        /* \"#utility.yul\":3182:3204   */\n      add\n        /* \"#utility.yul\":3161:3214   */\n      tag_392\n      jump\t// in\n    tag_433:\n        /* \"#utility.yul\":3151:3214   */\n      swap2\n      pop\n        /* \"#utility.yul\":3107:3224   */\n      pop\n        /* \"#utility.yul\":2902:3231   */\n      swap3\n      swap2\n      pop\n      pop\n      jump\t// out\n        /* \"#utility.yul\":3237:3711   */\n    tag_52:\n        /* \"#utility.yul\":3305:3311   */\n      0x00\n        /* \"#utility.yul\":3313:3319   */\n      dup1\n        /* \"#utility.yul\":3362:3364   */\n      0x40\n        /* \"#utility.yul\":3350:3359   */\n      dup4\n        /* \"#utility.yul\":3341:3348   */\n      dup6\n        /* \"#utility.yul\":3337:3360   */\n      sub\n        /* \"#utility.yul\":3333:3365   */\n      slt\n        /* \"#utility.yul\":3330:3449   */\n      iszero\n      tag_435\n      jumpi\n        /* \"#utility.yul\":3368:3447   */\n      tag_436\n      tag_432\n      jump\t// in\n    tag_436:\n        /* \"#utility.yul\":3330:3449   */\n    tag_435:\n        /* \"#utility.yul\":3488:3489   */\n      0x00\n        /* \"#utility.yul\":3513:3566   */\n      tag_437\n        /* \"#utility.yul\":3558:3565   */\n      dup6\n        /* \"#utility.yul\":3549:3555   */\n      dup3\n        /* \"#utility.yul\":3538:3547   */\n      dup7\n        /* \"#utility.yul\":3534:3556   */\n      add\n        /* \"#utility.yul\":3513:3566   */\n      tag_392\n      jump\t// in\n    tag_437:\n        /* \"#utility.yul\":3503:3566   */\n      swap3\n      pop\n        /* \"#utility.yul\":3459:3576   */\n      pop\n        /* \"#utility.yul\":3615:3617   */\n      0x20\n        /* \"#utility.yul\":3641:3694   */\n      tag_438\n        /* \"#utility.yul\":3686:3693   */\n      dup6\n        /* \"#utility.yul\":3677:3683   */\n      dup3\n        /* \"#utility.yul\":3666:3675   */\n      dup7\n        /* \"#utility.yul\":3662:3684   */\n      add\n        /* \"#utility.yul\":3641:3694   */\n      tag_392\n      jump\t// in\n    tag_438:\n        /* \"#utility.yul\":3631:3694   */\n      swap2\n      pop\n        /* \"#utility.yul\":3586:3704   */\n      pop\n        /* \"#utility.yul\":3237:3711   */\n      swap3\n      pop\n      swap3\n      swap1\n      pop\n      jump\t// out\n        /* \"#utility.yul\":3717:4628   */\n    tag_47:\n        /* \"#utility.yul\":3812:3818   */\n      0x00\n        /* \"#utility.yul\":3820:3826   */\n      dup1\n        /* \"#utility.yul\":3828:3834   */\n      0x00\n        /* \"#utility.yul\":3836:3842   */\n      dup1\n        /* \"#utility.yul\":3844:3850   */\n      0x00\n        /* \"#utility.yul\":3893:3896   */\n      0xa0\n        /* \"#utility.yul\":3881:3890   */\n      dup7\n        /* \"#utility.yul\":3872:3879   */\n      dup9\n        /* \"#utility.yul\":3868:3891   */\n      sub\n        /* \"#utility.yul\":3864:3897   */\n      slt\n        /* \"#utility.yul\":3861:3981   */\n      iszero\n      tag_440\n      jumpi\n        /* \"#utility.yul\":3900:3979   */\n      tag_441\n      tag_432\n      jump\t// in\n    tag_441:\n        /* \"#utility.yul\":3861:3981   */\n    tag_440:\n        /* \"#utility.yul\":4020:4021   */\n      0x00\n        /* \"#utility.yul\":4045:4098   */\n      tag_442\n        /* \"#utility.yul\":4090:4097   */\n      dup9\n        /* \"#utility.yul\":4081:4087   */\n      dup3\n        /* \"#utility.yul\":4070:4079   */\n      dup10\n        /* \"#utility.yul\":4066:4088   */\n      add\n        /* \"#utility.yul\":4045:4098   */\n      tag_392\n      jump\t// in\n    tag_442:\n        /* \"#utility.yul\":4035:4098   */\n      swap6\n      pop\n        /* \"#utility.yul\":3991:4108   */\n      pop\n        /* \"#utility.yul\":4147:4149   */\n      0x20\n        /* \"#utility.yul\":4173:4226   */\n      tag_443\n        /* \"#utility.yul\":4218:4225   */\n      dup9\n        /* \"#utility.yul\":4209:4215   */\n      dup3\n        /* \"#utility.yul\":4198:4207   */\n      dup10\n        /* \"#utility.yul\":4194:4216   */\n      add\n        /* \"#utility.yul\":4173:4226   */\n      tag_392\n      jump\t// in\n    tag_443:\n        /* \"#utility.yul\":4163:4226   */\n      swap5\n      pop\n        /* \"#utility.yul\":4118:4236   */\n      pop\n        /* \"#utility.yul\":4275:4277   */\n      0x40\n        /* \"#utility.yul\":4301:4354   */\n      tag_444\n        /* \"#utility.yul\":4346:4353   */\n      dup9\n        /* \"#utility.yul\":4337:4343   */\n      dup3\n        /* \"#utility.yul\":4326:4335   */\n      dup10\n        /* \"#utility.yul\":4322:4344   */\n      add\n        /* \"#utility.yul\":4301:4354   */\n      tag_392\n      jump\t// in\n    tag_444:\n        /* \"#utility.yul\":4291:4354   */\n      swap4\n      pop\n        /* \"#utility.yul\":4246:4364   */\n      pop\n        /* \"#utility.yul\":4403:4405   */\n      0x60\n        /* \"#utility.yul\":4429:4482   */\n      tag_445\n        /* \"#utility.yul\":4474:4481   */\n      dup9\n        /* \"#utility.yul\":4465:4471   */\n      dup3\n        /* \"#utility.yul\":4454:4463   */\n      dup10\n        /* \"#utility.yul\":4450:4472   */\n      add\n        /* \"#utility.yul\":4429:4482   */\n      tag_392\n      jump\t// in\n    tag_445:\n        /* \"#utility.yul\":4419:4482   */\n      swap3\n      pop\n        /* \"#utility.yul\":4374:4492   */\n      pop\n        /* \"#utility.yul\":4531:4534   */\n      0x80\n        /* \"#utility.yul\":4558:4611   */\n      tag_446\n        /* \"#utility.yul\":4603:4610   */\n      dup9\n        /* \"#utility.yul\":4594:4600   */\n      dup3\n        /* \"#utility.yul\":4583:4592   */\n      dup10\n        /* \"#utility.yul\":4579:4601   */\n      add\n        /* \"#utility.yul\":4558:4611   */\n      tag_392\n      jump\t// in\n    tag_446:\n        /* \"#utility.yul\":4548:4611   */\n      swap2\n      pop\n        /* \"#utility.yul\":4502:4621   */\n      pop\n        /* \"#utility.yul\":3717:4628   */\n      swap3\n      swap6\n      pop\n      swap3\n      swap6\n      swap1\n      swap4\n      pop\n      jump\t// out\n        /* \"#utility.yul\":4634:5173   */\n    tag_86:\n        /* \"#utility.yul\":4718:4724   */\n      0x00\n        /* \"#utility.yul\":4767:4769   */\n      0x20\n        /* \"#utility.yul\":4755:4764   */\n      dup3\n        /* \"#utility.yul\":4746:4753   */\n      dup5\n        /* \"#utility.yul\":4742:4765   */\n      sub\n        /* \"#utility.yul\":4738:4770   */\n      slt\n        /* \"#utility.yul\":4735:4854   */\n      iszero\n      tag_448\n      jumpi\n        /* \"#utility.yul\":4773:4852   */\n      tag_449\n      tag_432\n      jump\t// in\n    tag_449:\n        /* \"#utility.yul\":4735:4854   */\n    tag_448:\n        /* \"#utility.yul\":4921:4922   */\n      0x00\n        /* \"#utility.yul\":4910:4919   */\n      dup3\n        /* \"#utility.yul\":4906:4923   */\n      add\n        /* \"#utility.yul\":4893:4924   */\n      calldataload\n        /* \"#utility.yul\":4951:4969   */\n      0xffffffffffffffff\n        /* \"#utility.yul\":4943:4949   */\n      dup2\n        /* \"#utility.yul\":4940:4970   */\n      gt\n        /* \"#utility.yul\":4937:5054   */\n      iszero\n      tag_450\n      jumpi\n        /* \"#utility.yul\":4973:5052   */\n      tag_451\n      tag_452\n      jump\t// in\n    tag_451:\n        /* \"#utility.yul\":4937:5054   */\n    tag_450:\n        /* \"#utility.yul\":5078:5156   */\n      tag_453\n        /* \"#utility.yul\":5148:5155   */\n      dup5\n        /* \"#utility.yul\":5139:5145   */\n      dup3\n        /* \"#utility.yul\":5128:5137   */\n      dup6\n        /* \"#utility.yul\":5124:5146   */\n      add\n        /* \"#utility.yul\":5078:5156   */\n      tag_408\n      jump\t// in\n    tag_453:\n        /* \"#utility.yul\":5068:5156   */\n      swap2\n      pop\n        /* \"#utility.yul\":4864:5166   */\n      pop\n        /* \"#utility.yul\":4634:5173   */\n      swap3\n      swap2\n      pop\n      pop\n      jump\t// out\n        /* \"#utility.yul\":5179:5733   */\n    tag_204:\n        /* \"#utility.yul\":5274:5280   */\n      0x00\n        /* \"#utility.yul\":5323:5325   */\n      0x20\n        /* \"#utility.yul\":5311:5320   */\n      dup3\n        /* \"#utility.yul\":5302:5309   */\n      dup5\n        /* \"#utility.yul\":5298:5321   */\n      sub\n        /* \"#utility.yul\":5294:5326   */\n      slt\n        /* \"#utility.yul\":5291:5410   */\n      iszero\n      tag_455\n      jumpi\n        /* \"#utility.yul\":5329:5408   */\n      tag_456\n      tag_432\n      jump\t// in\n    tag_456:\n        /* \"#utility.yul\":5291:5410   */\n    tag_455:\n        /* \"#utility.yul\":5470:5471   */\n      0x00\n        /* \"#utility.yul\":5459:5468   */\n      dup3\n        /* \"#utility.yul\":5455:5472   */\n      add\n        /* \"#utility.yul\":5449:5473   */\n      mload\n        /* \"#utility.yul\":5500:5518   */\n      0xffffffffffffffff\n        /* \"#utility.yul\":5492:5498   */\n      dup2\n        /* \"#utility.yul\":5489:5519   */\n      gt\n        /* \"#utility.yul\":5486:5603   */\n      iszero\n      tag_457\n      jumpi\n        /* \"#utility.yul\":5522:5601   */\n      tag_458\n      tag_452\n      jump\t// in\n    tag_458:\n        /* \"#utility.yul\":5486:5603   */\n    tag_457:\n        /* \"#utility.yul\":5627:5716   */\n      tag_459\n        /* \"#utility.yul\":5708:5715   */\n      dup5\n        /* \"#utility.yul\":5699:5705   */\n      dup3\n        /* \"#utility.yul\":5688:5697   */\n      dup6\n        /* \"#utility.yul\":5684:5706   */\n      add\n        /* \"#utility.yul\":5627:5716   */\n      tag_414\n      jump\t// in\n    tag_459:\n        /* \"#utility.yul\":5617:5716   */\n      swap2\n      pop\n        /* \"#utility.yul\":5420:5726   */\n      pop\n        /* \"#utility.yul\":5179:5733   */\n      swap3\n      swap2\n      pop\n      pop\n      jump\t// out\n        /* \"#utility.yul\":5739:6084   */\n    tag_338:\n        /* \"#utility.yul\":5806:5812   */\n      0x00\n        /* \"#utility.yul\":5855:5857   */\n      0x20\n        /* \"#utility.yul\":5843:5852   */\n      dup3\n        /* \"#utility.yul\":5834:5841   */\n      dup5\n        /* \"#utility.yul\":5830:5853   */\n      sub\n        /* \"#utility.yul\":5826:5858   */\n      slt\n        /* \"#utility.yul\":5823:5942   */\n      iszero\n      tag_461\n      jumpi\n        /* \"#utility.yul\":5861:5940   */\n      tag_462\n      tag_432\n      jump\t// in\n    tag_462:\n        /* \"#utility.yul\":5823:5942   */\n    tag_461:\n        /* \"#utility.yul\":5981:5982   */\n      0x00\n        /* \"#utility.yul\":6006:6067   */\n      tag_463\n        /* \"#utility.yul\":6059:6066   */\n      dup5\n        /* \"#utility.yul\":6050:6056   */\n      dup3\n        /* \"#utility.yul\":6039:6048   */\n      dup6\n        /* \"#utility.yul\":6035:6057   */\n      add\n        /* \"#utility.yul\":6006:6067   */\n      tag_419\n      jump\t// in\n    tag_463:\n        /* \"#utility.yul\":5996:6067   */\n      swap2\n      pop\n        /* \"#utility.yul\":5952:6077   */\n      pop\n        /* \"#utility.yul\":5739:6084   */\n      swap3\n      swap2\n      pop\n      pop\n      jump\t// out\n        /* \"#utility.yul\":6090:6419   */\n    tag_94:\n        /* \"#utility.yul\":6149:6155   */\n      0x00\n        /* \"#utility.yul\":6198:6200   */\n      0x20\n        /* \"#utility.yul\":6186:6195   */\n      dup3\n        /* \"#utility.yul\":6177:6184   */\n      dup5\n        /* \"#utility.yul\":6173:6196   */\n      sub\n        /* \"#utility.yul\":6169:6201   */\n      slt\n        /* \"#utility.yul\":6166:6285   */\n      iszero\n      tag_465\n      jumpi\n        /* \"#utility.yul\":6204:6283   */\n      tag_466\n      tag_432\n      jump\t// in\n    tag_466:\n        /* \"#utility.yul\":6166:6285   */\n    tag_465:\n        /* \"#utility.yul\":6324:6325   */\n      0x00\n        /* \"#utility.yul\":6349:6402   */\n      tag_467\n        /* \"#utility.yul\":6394:6401   */\n      dup5\n        /* \"#utility.yul\":6385:6391   */\n      dup3\n        /* \"#utility.yul\":6374:6383   */\n      dup6\n        /* \"#utility.yul\":6370:6392   */\n      add\n        /* \"#utility.yul\":6349:6402   */\n      tag_423\n      jump\t// in\n    tag_467:\n        /* \"#utility.yul\":6339:6402   */\n      swap2\n      pop\n        /* \"#utility.yul\":6295:6412   */\n      pop\n        /* \"#utility.yul\":6090:6419   */\n      swap3\n      swap2\n      pop\n      pop\n      jump\t// out\n        /* \"#utility.yul\":6425:6776   */\n    tag_182:\n        /* \"#utility.yul\":6495:6501   */\n      0x00\n        /* \"#utility.yul\":6544:6546   */\n      0x20\n        /* \"#utility.yul\":6532:6541   */\n      dup3\n        /* \"#utility.yul\":6523:6530   */\n      dup5\n        /* \"#utility.yul\":6519:6542   */\n      sub\n        /* \"#utility.yul\":6515:6547   */\n      slt\n        /* \"#utility.yul\":6512:6631   */\n      iszero\n      tag_469\n      jumpi\n        /* \"#utility.yul\":6550:6629   */\n      tag_470\n      tag_432\n      jump\t// in\n    tag_470:\n        /* \"#utility.yul\":6512:6631   */\n    tag_469:\n        /* \"#utility.yul\":6670:6671   */\n      0x00\n        /* \"#utility.yul\":6695:6759   */\n      tag_471\n        /* \"#utility.yul\":6751:6758   */\n      dup5\n        /* \"#utility.yul\":6742:6748   */\n      dup3\n        /* \"#utility.yul\":6731:6740   */\n      dup6\n        /* \"#utility.yul\":6727:6749   */\n      add\n        /* \"#utility.yul\":6695:6759   */\n      tag_404\n      jump\t// in\n    tag_471:\n        /* \"#utility.yul\":6685:6759   */\n      swap2\n      pop\n        /* \"#utility.yul\":6641:6769   */\n      pop\n        /* \"#utility.yul\":6425:6776   */\n      swap3\n      swap2\n      pop\n      pop\n      jump\t// out\n        /* \"#utility.yul\":6782:6961   */\n    tag_472:\n        /* \"#utility.yul\":6851:6861   */\n      0x00\n        /* \"#utility.yul\":6872:6918   */\n      tag_474\n        /* \"#utility.yul\":6914:6917   */\n      dup4\n        /* \"#utility.yul\":6906:6912   */\n      dup4\n        /* \"#utility.yul\":6872:6918   */\n      tag_475\n      jump\t// in\n    tag_474:\n        /* \"#utility.yul\":6950:6954   */\n      0x20\n        /* \"#utility.yul\":6945:6948   */\n      dup4\n        /* \"#utility.yul\":6941:6955   */\n      add\n        /* \"#utility.yul\":6927:6955   */\n      swap1\n      pop\n        /* \"#utility.yul\":6782:6961   */\n      swap3\n      swap2\n      pop\n      pop\n      jump\t// out\n        /* \"#utility.yul\":6967:7075   */\n    tag_475:\n        /* \"#utility.yul\":7044:7068   */\n      tag_477\n        /* \"#utility.yul\":7062:7067   */\n      dup2\n        /* \"#utility.yul\":7044:7068   */\n      tag_478\n      jump\t// in\n    tag_477:\n        /* \"#utility.yul\":7039:7042   */\n      dup3\n        /* \"#utility.yul\":7032:7069   */\n      mstore\n        /* \"#utility.yul\":6967:7075   */\n      pop\n      pop\n      jump\t// out\n        /* \"#utility.yul\":7081:7199   */\n    tag_479:\n        /* \"#utility.yul\":7168:7192   */\n      tag_481\n        /* \"#utility.yul\":7186:7191   */\n      dup2\n        /* \"#utility.yul\":7168:7192   */\n      tag_478\n      jump\t// in\n    tag_481:\n        /* \"#utility.yul\":7163:7166   */\n      dup3\n        /* \"#utility.yul\":7156:7193   */\n      mstore\n        /* \"#utility.yul\":7081:7199   */\n      pop\n      pop\n      jump\t// out\n        /* \"#utility.yul\":7235:7967   */\n    tag_482:\n        /* \"#utility.yul\":7354:7357   */\n      0x00\n        /* \"#utility.yul\":7383:7437   */\n      tag_484\n        /* \"#utility.yul\":7431:7436   */\n      dup3\n        /* \"#utility.yul\":7383:7437   */\n      tag_485\n      jump\t// in\n    tag_484:\n        /* \"#utility.yul\":7453:7539   */\n      tag_486\n        /* \"#utility.yul\":7532:7538   */\n      dup2\n        /* \"#utility.yul\":7527:7530   */\n      dup6\n        /* \"#utility.yul\":7453:7539   */\n      tag_487\n      jump\t// in\n    tag_486:\n        /* \"#utility.yul\":7446:7539   */\n      swap4\n      pop\n        /* \"#utility.yul\":7563:7619   */\n      tag_488\n        /* \"#utility.yul\":7613:7618   */\n      dup4\n        /* \"#utility.yul\":7563:7619   */\n      tag_489\n      jump\t// in\n    tag_488:\n        /* \"#utility.yul\":7642:7649   */\n      dup1\n        /* \"#utility.yul\":7673:7674   */\n      0x00\n        /* \"#utility.yul\":7658:7942   */\n    tag_490:\n        /* \"#utility.yul\":7683:7689   */\n      dup4\n        /* \"#utility.yul\":7680:7681   */\n      dup2\n        /* \"#utility.yul\":7677:7690   */\n      lt\n        /* \"#utility.yul\":7658:7942   */\n      iszero\n      tag_492\n      jumpi\n        /* \"#utility.yul\":7759:7765   */\n      dup2\n        /* \"#utility.yul\":7753:7766   */\n      mload\n        /* \"#utility.yul\":7786:7849   */\n      tag_493\n        /* \"#utility.yul\":7845:7848   */\n      dup9\n        /* \"#utility.yul\":7830:7843   */\n      dup3\n        /* \"#utility.yul\":7786:7849   */\n      tag_472\n      jump\t// in\n    tag_493:\n        /* \"#utility.yul\":7779:7849   */\n      swap8\n      pop\n        /* \"#utility.yul\":7872:7932   */\n      tag_494\n        /* \"#utility.yul\":7925:7931   */\n      dup4\n        /* \"#utility.yul\":7872:7932   */\n      tag_495\n      jump\t// in\n    tag_494:\n        /* \"#utility.yul\":7862:7932   */\n      swap3\n      pop\n        /* \"#utility.yul\":7718:7942   */\n      pop\n        /* \"#utility.yul\":7705:7706   */\n      0x01\n        /* \"#utility.yul\":7702:7703   */\n      dup2\n        /* \"#utility.yul\":7698:7707   */\n      add\n        /* \"#utility.yul\":7693:7707   */\n      swap1\n      pop\n        /* \"#utility.yul\":7658:7942   */\n      jump(tag_490)\n    tag_492:\n        /* \"#utility.yul\":7662:7676   */\n      pop\n        /* \"#utility.yul\":7958:7961   */\n      dup6\n        /* \"#utility.yul\":7951:7961   */\n      swap4\n      pop\n        /* \"#utility.yul\":7359:7967   */\n      pop\n      pop\n      pop\n        /* \"#utility.yul\":7235:7967   */\n      swap3\n      swap2\n      pop\n      pop\n      jump\t// out\n        /* \"#utility.yul\":8003:8754   */\n    tag_496:\n        /* \"#utility.yul\":8119:8122   */\n      0x00\n        /* \"#utility.yul\":8148:8199   */\n      tag_498\n        /* \"#utility.yul\":8193:8198   */\n      dup3\n        /* \"#utility.yul\":8148:8199   */\n      tag_499\n      jump\t// in\n    tag_498:\n        /* \"#utility.yul\":8215:8301   */\n      tag_500\n        /* \"#utility.yul\":8294:8300   */\n      dup2\n        /* \"#utility.yul\":8289:8292   */\n      dup6\n        /* \"#utility.yul\":8215:8301   */\n      tag_487\n      jump\t// in\n    tag_500:\n        /* \"#utility.yul\":8208:8301   */\n      swap4\n      pop\n        /* \"#utility.yul\":8325:8378   */\n      tag_501\n        /* \"#utility.yul\":8372:8377   */\n      dup4\n        /* \"#utility.yul\":8325:8378   */\n      tag_502\n      jump\t// in\n    tag_501:\n        /* \"#utility.yul\":8401:8408   */\n      dup1\n        /* \"#utility.yul\":8432:8433   */\n      0x00\n        /* \"#utility.yul\":8417:8729   */\n    tag_503:\n        /* \"#utility.yul\":8442:8448   */\n      dup4\n        /* \"#utility.yul\":8439:8440   */\n      dup2\n        /* \"#utility.yul\":8436:8449   */\n      lt\n        /* \"#utility.yul\":8417:8729   */\n      iszero\n      tag_505\n      jumpi\n        /* \"#utility.yul\":8512:8556   */\n      tag_506\n        /* \"#utility.yul\":8549:8555   */\n      dup3\n        /* \"#utility.yul\":8512:8556   */\n      tag_507\n      jump\t// in\n    tag_506:\n        /* \"#utility.yul\":8576:8639   */\n      tag_508\n        /* \"#utility.yul\":8635:8638   */\n      dup9\n        /* \"#utility.yul\":8620:8633   */\n      dup3\n        /* \"#utility.yul\":8576:8639   */\n      tag_472\n      jump\t// in\n    tag_508:\n        /* \"#utility.yul\":8569:8639   */\n      swap8\n      pop\n        /* \"#utility.yul\":8662:8719   */\n      tag_509\n        /* \"#utility.yul\":8712:8718   */\n      dup4\n        /* \"#utility.yul\":8662:8719   */\n      tag_510\n      jump\t// in\n    tag_509:\n        /* \"#utility.yul\":8652:8719   */\n      swap3\n      pop\n        /* \"#utility.yul\":8477:8729   */\n      pop\n        /* \"#utility.yul\":8464:8465   */\n      0x01\n        /* \"#utility.yul\":8461:8462   */\n      dup2\n        /* \"#utility.yul\":8457:8466   */\n      add\n        /* \"#utility.yul\":8452:8466   */\n      swap1\n      pop\n        /* \"#utility.yul\":8417:8729   */\n      jump(tag_503)\n    tag_505:\n        /* \"#utility.yul\":8421:8435   */\n      pop\n        /* \"#utility.yul\":8745:8748   */\n      dup6\n        /* \"#utility.yul\":8738:8748   */\n      swap4\n      pop\n        /* \"#utility.yul\":8124:8754   */\n      pop\n      pop\n      pop\n        /* \"#utility.yul\":8003:8754   */\n      swap3\n      swap2\n      pop\n      pop\n      jump\t// out\n        /* \"#utility.yul\":8760:8869   */\n    tag_511:\n        /* \"#utility.yul\":8841:8862   */\n      tag_513\n        /* \"#utility.yul\":8856:8861   */\n      dup2\n        /* \"#utility.yul\":8841:8862   */\n      tag_514\n      jump\t// in\n    tag_513:\n        /* \"#utility.yul\":8836:8839   */\n      dup3\n        /* \"#utility.yul\":8829:8863   */\n      mstore\n        /* \"#utility.yul\":8760:8869   */\n      pop\n      pop\n      jump\t// out\n        /* \"#utility.yul\":8875:9248   */\n    tag_515:\n        /* \"#utility.yul\":8979:8982   */\n      0x00\n        /* \"#utility.yul\":9007:9045   */\n      tag_517\n        /* \"#utility.yul\":9039:9044   */\n      dup3\n        /* \"#utility.yul\":9007:9045   */\n      tag_518\n      jump\t// in\n    tag_517:\n        /* \"#utility.yul\":9061:9149   */\n      tag_519\n        /* \"#utility.yul\":9142:9148   */\n      dup2\n        /* \"#utility.yul\":9137:9140   */\n      dup6\n        /* \"#utility.yul\":9061:9149   */\n      tag_520\n      jump\t// in\n    tag_519:\n        /* \"#utility.yul\":9054:9149   */\n      swap4\n      pop\n        /* \"#utility.yul\":9158:9210   */\n      tag_521\n        /* \"#utility.yul\":9203:9209   */\n      dup2\n        /* \"#utility.yul\":9198:9201   */\n      dup6\n        /* \"#utility.yul\":9191:9195   */\n      0x20\n        /* \"#utility.yul\":9184:9189   */\n      dup7\n        /* \"#utility.yul\":9180:9196   */\n      add\n        /* \"#utility.yul\":9158:9210   */\n      tag_522\n      jump\t// in\n    tag_521:\n        /* \"#utility.yul\":9235:9241   */\n      dup1\n        /* \"#utility.yul\":9230:9233   */\n      dup5\n        /* \"#utility.yul\":9226:9242   */\n      add\n        /* \"#utility.yul\":9219:9242   */\n      swap2\n      pop\n        /* \"#utility.yul\":8983:9248   */\n      pop\n        /* \"#utility.yul\":8875:9248   */\n      swap3\n      swap2\n      pop\n      pop\n      jump\t// out\n        /* \"#utility.yul\":9254:9435   */\n    tag_523:\n        /* \"#utility.yul\":9366:9428   */\n      tag_525\n        /* \"#utility.yul\":9422:9427   */\n      dup2\n        /* \"#utility.yul\":9366:9428   */\n      tag_526\n      jump\t// in\n    tag_525:\n        /* \"#utility.yul\":9361:9364   */\n      dup3\n        /* \"#utility.yul\":9354:9429   */\n      mstore\n        /* \"#utility.yul\":9254:9435   */\n      pop\n      pop\n      jump\t// out\n        /* \"#utility.yul\":9441:9588   */\n    tag_527:\n        /* \"#utility.yul\":9536:9581   */\n      tag_529\n        /* \"#utility.yul\":9575:9580   */\n      dup2\n        /* \"#utility.yul\":9536:9581   */\n      tag_530\n      jump\t// in\n    tag_529:\n        /* \"#utility.yul\":9531:9534   */\n      dup3\n        /* \"#utility.yul\":9524:9582   */\n      mstore\n        /* \"#utility.yul\":9441:9588   */\n      pop\n      pop\n      jump\t// out\n        /* \"#utility.yul\":9594:9737   */\n    tag_531:\n        /* \"#utility.yul\":9687:9730   */\n      tag_533\n        /* \"#utility.yul\":9724:9729   */\n      dup2\n        /* \"#utility.yul\":9687:9730   */\n      tag_534\n      jump\t// in\n    tag_533:\n        /* \"#utility.yul\":9682:9685   */\n      dup3\n        /* \"#utility.yul\":9675:9731   */\n      mstore\n        /* \"#utility.yul\":9594:9737   */\n      pop\n      pop\n      jump\t// out\n        /* \"#utility.yul\":9743:10107   */\n    tag_535:\n        /* \"#utility.yul\":9831:9834   */\n      0x00\n        /* \"#utility.yul\":9859:9898   */\n      tag_537\n        /* \"#utility.yul\":9892:9897   */\n      dup3\n        /* \"#utility.yul\":9859:9898   */\n      tag_538\n      jump\t// in\n    tag_537:\n        /* \"#utility.yul\":9914:9985   */\n      tag_539\n        /* \"#utility.yul\":9978:9984   */\n      dup2\n        /* \"#utility.yul\":9973:9976   */\n      dup6\n        /* \"#utility.yul\":9914:9985   */\n      tag_540\n      jump\t// in\n    tag_539:\n        /* \"#utility.yul\":9907:9985   */\n      swap4\n      pop\n        /* \"#utility.yul\":9994:10046   */\n      tag_541\n        /* \"#utility.yul\":10039:10045   */\n      dup2\n        /* \"#utility.yul\":10034:10037   */\n      dup6\n        /* \"#utility.yul\":10027:10031   */\n      0x20\n        /* \"#utility.yul\":10020:10025   */\n      dup7\n        /* \"#utility.yul\":10016:10032   */\n      add\n        /* \"#utility.yul\":9994:10046   */\n      tag_522\n      jump\t// in\n    tag_541:\n        /* \"#utility.yul\":10071:10100   */\n      tag_542\n        /* \"#utility.yul\":10093:10099   */\n      dup2\n        /* \"#utility.yul\":10071:10100   */\n      tag_543\n      jump\t// in\n    tag_542:\n        /* \"#utility.yul\":10066:10069   */\n      dup5\n        /* \"#utility.yul\":10062:10101   */\n      add\n        /* \"#utility.yul\":10055:10101   */\n      swap2\n      pop\n        /* \"#utility.yul\":9835:10107   */\n      pop\n        /* \"#utility.yul\":9743:10107   */\n      swap3\n      swap2\n      pop\n      pop\n      jump\t// out\n        /* \"#utility.yul\":10113:10479   */\n    tag_544:\n        /* \"#utility.yul\":10255:10258   */\n      0x00\n        /* \"#utility.yul\":10276:10343   */\n      tag_546\n        /* \"#utility.yul\":10340:10342   */\n      0x0c\n        /* \"#utility.yul\":10335:10338   */\n      dup4\n        /* \"#utility.yul\":10276:10343   */\n      tag_540\n      jump\t// in\n    tag_546:\n        /* \"#utility.yul\":10269:10343   */\n      swap2\n      pop\n        /* \"#utility.yul\":10352:10445   */\n      tag_547\n        /* \"#utility.yul\":10441:10444   */\n      dup3\n        /* \"#utility.yul\":10352:10445   */\n      tag_548\n      jump\t// in\n    tag_547:\n        /* \"#utility.yul\":10470:10472   */\n      0x20\n        /* \"#utility.yul\":10465:10468   */\n      dup3\n        /* \"#utility.yul\":10461:10473   */\n      add\n        /* \"#utility.yul\":10454:10473   */\n      swap1\n      pop\n        /* \"#utility.yul\":10113:10479   */\n      swap2\n      swap1\n      pop\n      jump\t// out\n        /* \"#utility.yul\":10485:10850   */\n    tag_549:\n        /* \"#utility.yul\":10627:10630   */\n      0x00\n        /* \"#utility.yul\":10648:10714   */\n      tag_551\n        /* \"#utility.yul\":10712:10713   */\n      0x05\n        /* \"#utility.yul\":10707:10710   */\n      dup4\n        /* \"#utility.yul\":10648:10714   */\n      tag_540\n      jump\t// in\n    tag_551:\n        /* \"#utility.yul\":10641:10714   */\n      swap2\n      pop\n        /* \"#utility.yul\":10723:10816   */\n      tag_552\n        /* \"#utility.yul\":10812:10815   */\n      dup3\n        /* \"#utility.yul\":10723:10816   */\n      tag_553\n      jump\t// in\n    tag_552:\n        /* \"#utility.yul\":10841:10843   */\n      0x20\n        /* \"#utility.yul\":10836:10839   */\n      dup3\n        /* \"#utility.yul\":10832:10844   */\n      add\n        /* \"#utility.yul\":10825:10844   */\n      swap1\n      pop\n        /* \"#utility.yul\":10485:10850   */\n      swap2\n      swap1\n      pop\n      jump\t// out\n        /* \"#utility.yul\":10856:11222   */\n    tag_554:\n        /* \"#utility.yul\":10998:11001   */\n      0x00\n        /* \"#utility.yul\":11019:11086   */\n      tag_556\n        /* \"#utility.yul\":11083:11085   */\n      0x26\n        /* \"#utility.yul\":11078:11081   */\n      dup4\n        /* \"#utility.yul\":11019:11086   */\n      tag_540\n      jump\t// in\n    tag_556:\n        /* \"#utility.yul\":11012:11086   */\n      swap2\n      pop\n        /* \"#utility.yul\":11095:11188   */\n      tag_557\n        /* \"#utility.yul\":11184:11187   */\n      dup3\n        /* \"#utility.yul\":11095:11188   */\n      tag_558\n      jump\t// in\n    tag_557:\n        /* \"#utility.yul\":11213:11215   */\n      0x40\n        /* \"#utility.yul\":11208:11211   */\n      dup3\n        /* \"#utility.yul\":11204:11216   */\n      add\n        /* \"#utility.yul\":11197:11216   */\n      swap1\n      pop\n        /* \"#utility.yul\":10856:11222   */\n      swap2\n      swap1\n      pop\n      jump\t// out\n        /* \"#utility.yul\":11228:11594   */\n    tag_559:\n        /* \"#utility.yul\":11370:11373   */\n      0x00\n        /* \"#utility.yul\":11391:11458   */\n      tag_561\n        /* \"#utility.yul\":11455:11457   */\n      0x26\n        /* \"#utility.yul\":11450:11453   */\n      dup4\n        /* \"#utility.yul\":11391:11458   */\n      tag_540\n      jump\t// in\n    tag_561:\n        /* \"#utility.yul\":11384:11458   */\n      swap2\n      pop\n        /* \"#utility.yul\":11467:11560   */\n      tag_562\n        /* \"#utility.yul\":11556:11559   */\n      dup3\n        /* \"#utility.yul\":11467:11560   */\n      tag_563\n      jump\t// in\n    tag_562:\n        /* \"#utility.yul\":11585:11587   */\n      0x40\n        /* \"#utility.yul\":11580:11583   */\n      dup3\n        /* \"#utility.yul\":11576:11588   */\n      add\n        /* \"#utility.yul\":11569:11588   */\n      swap1\n      pop\n        /* \"#utility.yul\":11228:11594   */\n      swap2\n      swap1\n      pop\n      jump\t// out\n        /* \"#utility.yul\":11600:11965   */\n    tag_564:\n        /* \"#utility.yul\":11742:11745   */\n      0x00\n        /* \"#utility.yul\":11763:11829   */\n      tag_566\n        /* \"#utility.yul\":11827:11828   */\n      0x04\n        /* \"#utility.yul\":11822:11825   */\n      dup4\n        /* \"#utility.yul\":11763:11829   */\n      tag_540\n      jump\t// in\n    tag_566:\n        /* \"#utility.yul\":11756:11829   */\n      swap2\n      pop\n        /* \"#utility.yul\":11838:11931   */\n      tag_567\n        /* \"#utility.yul\":11927:11930   */\n      dup3\n        /* \"#utility.yul\":11838:11931   */\n      tag_568\n      jump\t// in\n    tag_567:\n        /* \"#utility.yul\":11956:11958   */\n      0x20\n        /* \"#utility.yul\":11951:11954   */\n      dup3\n        /* \"#utility.yul\":11947:11959   */\n      add\n        /* \"#utility.yul\":11940:11959   */\n      swap1\n      pop\n        /* \"#utility.yul\":11600:11965   */\n      swap2\n      swap1\n      pop\n      jump\t// out\n        /* \"#utility.yul\":11971:12336   */\n    tag_569:\n        /* \"#utility.yul\":12113:12116   */\n      0x00\n        /* \"#utility.yul\":12134:12200   */\n      tag_571\n        /* \"#utility.yul\":12198:12199   */\n      0x08\n        /* \"#utility.yul\":12193:12196   */\n      dup4\n        /* \"#utility.yul\":12134:12200   */\n      tag_540\n      jump\t// in\n    tag_571:\n        /* \"#utility.yul\":12127:12200   */\n      swap2\n      pop\n        /* \"#utility.yul\":12209:12302   */\n      tag_572\n        /* \"#utility.yul\":12298:12301   */\n      dup3\n        /* \"#utility.yul\":12209:12302   */\n      tag_573\n      jump\t// in\n    tag_572:\n        /* \"#utility.yul\":12327:12329   */\n      0x20\n        /* \"#utility.yul\":12322:12325   */\n      dup3\n        /* \"#utility.yul\":12318:12330   */\n      add\n        /* \"#utility.yul\":12311:12330   */\n      swap1\n      pop\n        /* \"#utility.yul\":11971:12336   */\n      swap2\n      swap1\n      pop\n      jump\t// out\n        /* \"#utility.yul\":12342:12708   */\n    tag_574:\n        /* \"#utility.yul\":12484:12487   */\n      0x00\n        /* \"#utility.yul\":12505:12572   */\n      tag_576\n        /* \"#utility.yul\":12569:12571   */\n      0x2e\n        /* \"#utility.yul\":12564:12567   */\n      dup4\n        /* \"#utility.yul\":12505:12572   */\n      tag_540\n      jump\t// in\n    tag_576:\n        /* \"#utility.yul\":12498:12572   */\n      swap2\n      pop\n        /* \"#utility.yul\":12581:12674   */\n      tag_577\n        /* \"#utility.yul\":12670:12673   */\n      dup3\n        /* \"#utility.yul\":12581:12674   */\n      tag_578\n      jump\t// in\n    tag_577:\n        /* \"#utility.yul\":12699:12701   */\n      0x40\n        /* \"#utility.yul\":12694:12697   */\n      dup3\n        /* \"#utility.yul\":12690:12702   */\n      add\n        /* \"#utility.yul\":12683:12702   */\n      swap1\n      pop\n        /* \"#utility.yul\":12342:12708   */\n      swap2\n      swap1\n      pop\n      jump\t// out\n        /* \"#utility.yul\":12714:13080   */\n    tag_579:\n        /* \"#utility.yul\":12856:12859   */\n      0x00\n        /* \"#utility.yul\":12877:12944   */\n      tag_581\n        /* \"#utility.yul\":12941:12943   */\n      0x20\n        /* \"#utility.yul\":12936:12939   */\n      dup4\n        /* \"#utility.yul\":12877:12944   */\n      tag_540\n      jump\t// in\n    tag_581:\n        /* \"#utility.yul\":12870:12944   */\n      swap2\n      pop\n        /* \"#utility.yul\":12953:13046   */\n      tag_582\n        /* \"#utility.yul\":13042:13045   */\n      dup3\n        /* \"#utility.yul\":12953:13046   */\n      tag_583\n      jump\t// in\n    tag_582:\n        /* \"#utility.yul\":13071:13073   */\n      0x20\n        /* \"#utility.yul\":13066:13069   */\n      dup3\n        /* \"#utility.yul\":13062:13074   */\n      add\n        /* \"#utility.yul\":13055:13074   */\n      swap1\n      pop\n        /* \"#utility.yul\":12714:13080   */\n      swap2\n      swap1\n      pop\n      jump\t// out\n        /* \"#utility.yul\":13086:13451   */\n    tag_584:\n        /* \"#utility.yul\":13228:13231   */\n      0x00\n        /* \"#utility.yul\":13249:13315   */\n      tag_586\n        /* \"#utility.yul\":13313:13314   */\n      0x05\n        /* \"#utility.yul\":13308:13311   */\n      dup4\n        /* \"#utility.yul\":13249:13315   */\n      tag_540\n      jump\t// in\n    tag_586:\n        /* \"#utility.yul\":13242:13315   */\n      swap2\n      pop\n        /* \"#utility.yul\":13324:13417   */\n      tag_587\n        /* \"#utility.yul\":13413:13416   */\n      dup3\n        /* \"#utility.yul\":13324:13417   */\n      tag_588\n      jump\t// in\n    tag_587:\n        /* \"#utility.yul\":13442:13444   */\n      0x20\n        /* \"#utility.yul\":13437:13440   */\n      dup3\n        /* \"#utility.yul\":13433:13445   */\n      add\n        /* \"#utility.yul\":13426:13445   */\n      swap1\n      pop\n        /* \"#utility.yul\":13086:13451   */\n      swap2\n      swap1\n      pop\n      jump\t// out\n        /* \"#utility.yul\":13457:13823   */\n    tag_589:\n        /* \"#utility.yul\":13599:13602   */\n      0x00\n        /* \"#utility.yul\":13620:13687   */\n      tag_591\n        /* \"#utility.yul\":13684:13686   */\n      0x1d\n        /* \"#utility.yul\":13679:13682   */\n      dup4\n        /* \"#utility.yul\":13620:13687   */\n      tag_540\n      jump\t// in\n    tag_591:\n        /* \"#utility.yul\":13613:13687   */\n      swap2\n      pop\n        /* \"#utility.yul\":13696:13789   */\n      tag_592\n        /* \"#utility.yul\":13785:13788   */\n      dup3\n        /* \"#utility.yul\":13696:13789   */\n      tag_593\n      jump\t// in\n    tag_592:\n        /* \"#utility.yul\":13814:13816   */\n      0x20\n        /* \"#utility.yul\":13809:13812   */\n      dup3\n        /* \"#utility.yul\":13805:13817   */\n      add\n        /* \"#utility.yul\":13798:13817   */\n      swap1\n      pop\n        /* \"#utility.yul\":13457:13823   */\n      swap2\n      swap1\n      pop\n      jump\t// out\n        /* \"#utility.yul\":13829:14195   */\n    tag_594:\n        /* \"#utility.yul\":13971:13974   */\n      0x00\n        /* \"#utility.yul\":13992:14059   */\n      tag_596\n        /* \"#utility.yul\":14056:14058   */\n      0x2b\n        /* \"#utility.yul\":14051:14054   */\n      dup4\n        /* \"#utility.yul\":13992:14059   */\n      tag_540\n      jump\t// in\n    tag_596:\n        /* \"#utility.yul\":13985:14059   */\n      swap2\n      pop\n        /* \"#utility.yul\":14068:14161   */\n      tag_597\n        /* \"#utility.yul\":14157:14160   */\n      dup3\n        /* \"#utility.yul\":14068:14161   */\n      tag_598\n      jump\t// in\n    tag_597:\n        /* \"#utility.yul\":14186:14188   */\n      0x40\n        /* \"#utility.yul\":14181:14184   */\n      dup3\n        /* \"#utility.yul\":14177:14189   */\n      add\n        /* \"#utility.yul\":14170:14189   */\n      swap1\n      pop\n        /* \"#utility.yul\":13829:14195   */\n      swap2\n      swap1\n      pop\n      jump\t// out\n        /* \"#utility.yul\":14201:14567   */\n    tag_599:\n        /* \"#utility.yul\":14343:14346   */\n      0x00\n        /* \"#utility.yul\":14364:14431   */\n      tag_601\n        /* \"#utility.yul\":14428:14430   */\n      0x2a\n        /* \"#utility.yul\":14423:14426   */\n      dup4\n        /* \"#utility.yul\":14364:14431   */\n      tag_540\n      jump\t// in\n    tag_601:\n        /* \"#utility.yul\":14357:14431   */\n      swap2\n      pop\n        /* \"#utility.yul\":14440:14533   */\n      tag_602\n        /* \"#utility.yul\":14529:14532   */\n      dup3\n        /* \"#utility.yul\":14440:14533   */\n      tag_603\n      jump\t// in\n    tag_602:\n        /* \"#utility.yul\":14558:14560   */\n      0x40\n        /* \"#utility.yul\":14553:14556   */\n      dup3\n        /* \"#utility.yul\":14549:14561   */\n      add\n        /* \"#utility.yul\":14542:14561   */\n      swap1\n      pop\n        /* \"#utility.yul\":14201:14567   */\n      swap2\n      swap1\n      pop\n      jump\t// out\n        /* \"#utility.yul\":14573:14939   */\n    tag_604:\n        /* \"#utility.yul\":14715:14718   */\n      0x00\n        /* \"#utility.yul\":14736:14803   */\n      tag_606\n        /* \"#utility.yul\":14800:14802   */\n      0x36\n        /* \"#utility.yul\":14795:14798   */\n      dup4\n        /* \"#utility.yul\":14736:14803   */\n      tag_540\n      jump\t// in\n    tag_606:\n        /* \"#utility.yul\":14729:14803   */\n      swap2\n      pop\n        /* \"#utility.yul\":14812:14905   */\n      tag_607\n        /* \"#utility.yul\":14901:14904   */\n      dup3\n        /* \"#utility.yul\":14812:14905   */\n      tag_608\n      jump\t// in\n    tag_607:\n        /* \"#utility.yul\":14930:14932   */\n      0x40\n        /* \"#utility.yul\":14925:14928   */\n      dup3\n        /* \"#utility.yul\":14921:14933   */\n      add\n        /* \"#utility.yul\":14914:14933   */\n      swap1\n      pop\n        /* \"#utility.yul\":14573:14939   */\n      swap2\n      swap1\n      pop\n      jump\t// out\n        /* \"#utility.yul\":14945:15063   */\n    tag_609:\n        /* \"#utility.yul\":15032:15056   */\n      tag_611\n        /* \"#utility.yul\":15050:15055   */\n      dup2\n        /* \"#utility.yul\":15032:15056   */\n      tag_612\n      jump\t// in\n    tag_611:\n        /* \"#utility.yul\":15027:15030   */\n      dup3\n        /* \"#utility.yul\":15020:15057   */\n      mstore\n        /* \"#utility.yul\":14945:15063   */\n      pop\n      pop\n      jump\t// out\n        /* \"#utility.yul\":15069:15340   */\n    tag_354:\n        /* \"#utility.yul\":15199:15202   */\n      0x00\n        /* \"#utility.yul\":15221:15314   */\n      tag_614\n        /* \"#utility.yul\":15310:15313   */\n      dup3\n        /* \"#utility.yul\":15301:15307   */\n      dup5\n        /* \"#utility.yul\":15221:15314   */\n      tag_515\n      jump\t// in\n    tag_614:\n        /* \"#utility.yul\":15214:15314   */\n      swap2\n      pop\n        /* \"#utility.yul\":15331:15334   */\n      dup2\n        /* \"#utility.yul\":15324:15334   */\n      swap1\n      pop\n        /* \"#utility.yul\":15069:15340   */\n      swap3\n      swap2\n      pop\n      pop\n      jump\t// out\n        /* \"#utility.yul\":15346:15568   */\n    tag_58:\n        /* \"#utility.yul\":15439:15443   */\n      0x00\n        /* \"#utility.yul\":15477:15479   */\n      0x20\n        /* \"#utility.yul\":15466:15475   */\n      dup3\n        /* \"#utility.yul\":15462:15480   */\n      add\n        /* \"#utility.yul\":15454:15480   */\n      swap1\n      pop\n        /* \"#utility.yul\":15490:15561   */\n      tag_616\n        /* \"#utility.yul\":15558:15559   */\n      0x00\n        /* \"#utility.yul\":15547:15556   */\n      dup4\n        /* \"#utility.yul\":15543:15560   */\n      add\n        /* \"#utility.yul\":15534:15540   */\n      dup5\n        /* \"#utility.yul\":15490:15561   */\n      tag_479\n      jump\t// in\n    tag_616:\n        /* \"#utility.yul\":15346:15568   */\n      swap3\n      swap2\n      pop\n      pop\n      jump\t// out\n        /* \"#utility.yul\":15574:15906   */\n    tag_263:\n        /* \"#utility.yul\":15695:15699   */\n      0x00\n        /* \"#utility.yul\":15733:15735   */\n      0x40\n        /* \"#utility.yul\":15722:15731   */\n      dup3\n        /* \"#utility.yul\":15718:15736   */\n      add\n        /* \"#utility.yul\":15710:15736   */\n      swap1\n      pop\n        /* \"#utility.yul\":15746:15817   */\n      tag_618\n        /* \"#utility.yul\":15814:15815   */\n      0x00\n        /* \"#utility.yul\":15803:15812   */\n      dup4\n        /* \"#utility.yul\":15799:15816   */\n      add\n        /* \"#utility.yul\":15790:15796   */\n      dup6\n        /* \"#utility.yul\":15746:15817   */\n      tag_479\n      jump\t// in\n    tag_618:\n        /* \"#utility.yul\":15827:15899   */\n      tag_619\n        /* \"#utility.yul\":15895:15897   */\n      0x20\n        /* \"#utility.yul\":15884:15893   */\n      dup4\n        /* \"#utility.yul\":15880:15898   */\n      add\n        /* \"#utility.yul\":15871:15877   */\n      dup5\n        /* \"#utility.yul\":15827:15899   */\n      tag_479\n      jump\t// in\n    tag_619:\n        /* \"#utility.yul\":15574:15906   */\n      swap4\n      swap3\n      pop\n      pop\n      pop\n      jump\t// out\n        /* \"#utility.yul\":15912:16244   */\n    tag_311:\n        /* \"#utility.yul\":16033:16037   */\n      0x00\n        /* \"#utility.yul\":16071:16073   */\n      0x40\n        /* \"#utility.yul\":16060:16069   */\n      dup3\n        /* \"#utility.yul\":16056:16074   */\n      add\n        /* \"#utility.yul\":16048:16074   */\n      swap1\n      pop\n        /* \"#utility.yul\":16084:16155   */\n      tag_621\n        /* \"#utility.yul\":16152:16153   */\n      0x00\n        /* \"#utility.yul\":16141:16150   */\n      dup4\n        /* \"#utility.yul\":16137:16154   */\n      add\n        /* \"#utility.yul\":16128:16134   */\n      dup6\n        /* \"#utility.yul\":16084:16155   */\n      tag_479\n      jump\t// in\n    tag_621:\n        /* \"#utility.yul\":16165:16237   */\n      tag_622\n        /* \"#utility.yul\":16233:16235   */\n      0x20\n        /* \"#utility.yul\":16222:16231   */\n      dup4\n        /* \"#utility.yul\":16218:16236   */\n      add\n        /* \"#utility.yul\":16209:16215   */\n      dup5\n        /* \"#utility.yul\":16165:16237   */\n      tag_609\n      jump\t// in\n    tag_622:\n        /* \"#utility.yul\":15912:16244   */\n      swap4\n      swap3\n      pop\n      pop\n      pop\n      jump\t// out\n        /* \"#utility.yul\":16250:16878   */\n    tag_244:\n        /* \"#utility.yul\":16468:16472   */\n      0x00\n        /* \"#utility.yul\":16506:16508   */\n      0x40\n        /* \"#utility.yul\":16495:16504   */\n      dup3\n        /* \"#utility.yul\":16491:16509   */\n      add\n        /* \"#utility.yul\":16483:16509   */\n      swap1\n      pop\n        /* \"#utility.yul\":16555:16564   */\n      dup2\n        /* \"#utility.yul\":16549:16553   */\n      dup2\n        /* \"#utility.yul\":16545:16565   */\n      sub\n        /* \"#utility.yul\":16541:16542   */\n      0x00\n        /* \"#utility.yul\":16530:16539   */\n      dup4\n        /* \"#utility.yul\":16526:16543   */\n      add\n        /* \"#utility.yul\":16519:16566   */\n      mstore\n        /* \"#utility.yul\":16583:16688   */\n      tag_624\n        /* \"#utility.yul\":16683:16687   */\n      dup2\n        /* \"#utility.yul\":16674:16680   */\n      dup6\n        /* \"#utility.yul\":16583:16688   */\n      tag_496\n      jump\t// in\n    tag_624:\n        /* \"#utility.yul\":16575:16688   */\n      swap1\n      pop\n        /* \"#utility.yul\":16735:16744   */\n      dup2\n        /* \"#utility.yul\":16729:16733   */\n      dup2\n        /* \"#utility.yul\":16725:16745   */\n      sub\n        /* \"#utility.yul\":16720:16722   */\n      0x20\n        /* \"#utility.yul\":16709:16718   */\n      dup4\n        /* \"#utility.yul\":16705:16723   */\n      add\n        /* \"#utility.yul\":16698:16746   */\n      mstore\n        /* \"#utility.yul\":16763:16871   */\n      tag_625\n        /* \"#utility.yul\":16866:16870   */\n      dup2\n        /* \"#utility.yul\":16857:16863   */\n      dup5\n        /* \"#utility.yul\":16763:16871   */\n      tag_482\n      jump\t// in\n    tag_625:\n        /* \"#utility.yul\":16755:16871   */\n      swap1\n      pop\n        /* \"#utility.yul\":16250:16878   */\n      swap4\n      swap3\n      pop\n      pop\n      pop\n      jump\t// out\n        /* \"#utility.yul\":16884:17094   */\n    tag_63:\n        /* \"#utility.yul\":16971:16975   */\n      0x00\n        /* \"#utility.yul\":17009:17011   */\n      0x20\n        /* \"#utility.yul\":16998:17007   */\n      dup3\n        /* \"#utility.yul\":16994:17012   */\n      add\n        /* \"#utility.yul\":16986:17012   */\n      swap1\n      pop\n        /* \"#utility.yul\":17022:17087   */\n      tag_627\n        /* \"#utility.yul\":17084:17085   */\n      0x00\n        /* \"#utility.yul\":17073:17082   */\n      dup4\n        /* \"#utility.yul\":17069:17086   */\n      add\n        /* \"#utility.yul\":17060:17066   */\n      dup5\n        /* \"#utility.yul\":17022:17087   */\n      tag_511\n      jump\t// in\n    tag_627:\n        /* \"#utility.yul\":16884:17094   */\n      swap3\n      swap2\n      pop\n      pop\n      jump\t// out\n        /* \"#utility.yul\":17100:17372   */\n    tag_38:\n        /* \"#utility.yul\":17218:17222   */\n      0x00\n        /* \"#utility.yul\":17256:17258   */\n      0x20\n        /* \"#utility.yul\":17245:17254   */\n      dup3\n        /* \"#utility.yul\":17241:17259   */\n      add\n        /* \"#utility.yul\":17233:17259   */\n      swap1\n      pop\n        /* \"#utility.yul\":17269:17365   */\n      tag_629\n        /* \"#utility.yul\":17362:17363   */\n      0x00\n        /* \"#utility.yul\":17351:17360   */\n      dup4\n        /* \"#utility.yul\":17347:17364   */\n      add\n        /* \"#utility.yul\":17338:17344   */\n      dup5\n        /* \"#utility.yul\":17269:17365   */\n      tag_523\n      jump\t// in\n    tag_629:\n        /* \"#utility.yul\":17100:17372   */\n      swap3\n      swap2\n      pop\n      pop\n      jump\t// out\n        /* \"#utility.yul\":17378:17612   */\n    tag_170:\n        /* \"#utility.yul\":17477:17481   */\n      0x00\n        /* \"#utility.yul\":17515:17517   */\n      0x20\n        /* \"#utility.yul\":17504:17513   */\n      dup3\n        /* \"#utility.yul\":17500:17518   */\n      add\n        /* \"#utility.yul\":17492:17518   */\n      swap1\n      pop\n        /* \"#utility.yul\":17528:17605   */\n      tag_631\n        /* \"#utility.yul\":17602:17603   */\n      0x00\n        /* \"#utility.yul\":17591:17600   */\n      dup4\n        /* \"#utility.yul\":17587:17604   */\n      add\n        /* \"#utility.yul\":17578:17584   */\n      dup5\n        /* \"#utility.yul\":17528:17605   */\n      tag_531\n      jump\t// in\n    tag_631:\n        /* \"#utility.yul\":17378:17612   */\n      swap3\n      swap2\n      pop\n      pop\n      jump\t// out\n        /* \"#utility.yul\":17618:17931   */\n    tag_366:\n        /* \"#utility.yul\":17731:17735   */\n      0x00\n        /* \"#utility.yul\":17769:17771   */\n      0x20\n        /* \"#utility.yul\":17758:17767   */\n      dup3\n        /* \"#utility.yul\":17754:17772   */\n      add\n        /* \"#utility.yul\":17746:17772   */\n      swap1\n      pop\n        /* \"#utility.yul\":17818:17827   */\n      dup2\n        /* \"#utility.yul\":17812:17816   */\n      dup2\n        /* \"#utility.yul\":17808:17828   */\n      sub\n        /* \"#utility.yul\":17804:17805   */\n      0x00\n        /* \"#utility.yul\":17793:17802   */\n      dup4\n        /* \"#utility.yul\":17789:17806   */\n      add\n        /* \"#utility.yul\":17782:17829   */\n      mstore\n        /* \"#utility.yul\":17846:17924   */\n      tag_633\n        /* \"#utility.yul\":17919:17923   */\n      dup2\n        /* \"#utility.yul\":17910:17916   */\n      dup5\n        /* \"#utility.yul\":17846:17924   */\n      tag_535\n      jump\t// in\n    tag_633:\n        /* \"#utility.yul\":17838:17924   */\n      swap1\n      pop\n        /* \"#utility.yul\":17618:17931   */\n      swap3\n      swap2\n      pop\n      pop\n      jump\t// out\n        /* \"#utility.yul\":17937:18356   */\n    tag_275:\n        /* \"#utility.yul\":18103:18107   */\n      0x00\n        /* \"#utility.yul\":18141:18143   */\n      0x20\n        /* \"#utility.yul\":18130:18139   */\n      dup3\n        /* \"#utility.yul\":18126:18144   */\n      add\n        /* \"#utility.yul\":18118:18144   */\n      swap1\n      pop\n        /* \"#utility.yul\":18190:18199   */\n      dup2\n        /* \"#utility.yul\":18184:18188   */\n      dup2\n        /* \"#utility.yul\":18180:18200   */\n      sub\n        /* \"#utility.yul\":18176:18177   */\n      0x00\n        /* \"#utility.yul\":18165:18174   */\n      dup4\n        /* \"#utility.yul\":18161:18178   */\n      add\n        /* \"#utility.yul\":18154:18201   */\n      mstore\n        /* \"#utility.yul\":18218:18349   */\n      tag_635\n        /* \"#utility.yul\":18344:18348   */\n      dup2\n        /* \"#utility.yul\":18218:18349   */\n      tag_544\n      jump\t// in\n    tag_635:\n        /* \"#utility.yul\":18210:18349   */\n      swap1\n      pop\n        /* \"#utility.yul\":17937:18356   */\n      swap2\n      swap1\n      pop\n      jump\t// out\n        /* \"#utility.yul\":18362:18781   */\n    tag_176:\n        /* \"#utility.yul\":18528:18532   */\n      0x00\n        /* \"#utility.yul\":18566:18568   */\n      0x20\n        /* \"#utility.yul\":18555:18564   */\n      dup3\n        /* \"#utility.yul\":18551:18569   */\n      add\n        /* \"#utility.yul\":18543:18569   */\n      swap1\n      pop\n        /* \"#utility.yul\":18615:18624   */\n      dup2\n        /* \"#utility.yul\":18609:18613   */\n      dup2\n        /* \"#utility.yul\":18605:18625   */\n      sub\n        /* \"#utility.yul\":18601:18602   */\n      0x00\n        /* \"#utility.yul\":18590:18599   */\n      dup4\n        /* \"#utility.yul\":18586:18603   */\n      add\n        /* \"#utility.yul\":18579:18626   */\n      mstore\n        /* \"#utility.yul\":18643:18774   */\n      tag_637\n        /* \"#utility.yul\":18769:18773   */\n      dup2\n        /* \"#utility.yul\":18643:18774   */\n      tag_549\n      jump\t// in\n    tag_637:\n        /* \"#utility.yul\":18635:18774   */\n      swap1\n      pop\n        /* \"#utility.yul\":18362:18781   */\n      swap2\n      swap1\n      pop\n      jump\t// out\n        /* \"#utility.yul\":18787:19206   */\n    tag_289:\n        /* \"#utility.yul\":18953:18957   */\n      0x00\n        /* \"#utility.yul\":18991:18993   */\n      0x20\n        /* \"#utility.yul\":18980:18989   */\n      dup3\n        /* \"#utility.yul\":18976:18994   */\n      add\n        /* \"#utility.yul\":18968:18994   */\n      swap1\n      pop\n        /* \"#utility.yul\":19040:19049   */\n      dup2\n        /* \"#utility.yul\":19034:19038   */\n      dup2\n        /* \"#utility.yul\":19030:19050   */\n      sub\n        /* \"#utility.yul\":19026:19027   */\n      0x00\n        /* \"#utility.yul\":19015:19024   */\n      dup4\n        /* \"#utility.yul\":19011:19028   */\n      add\n        /* \"#utility.yul\":19004:19051   */\n      mstore\n        /* \"#utility.yul\":19068:19199   */\n      tag_639\n        /* \"#utility.yul\":19194:19198   */\n      dup2\n        /* \"#utility.yul\":19068:19199   */\n      tag_554\n      jump\t// in\n    tag_639:\n        /* \"#utility.yul\":19060:19199   */\n      swap1\n      pop\n        /* \"#utility.yul\":18787:19206   */\n      swap2\n      swap1\n      pop\n      jump\t// out\n        /* \"#utility.yul\":19212:19631   */\n    tag_348:\n        /* \"#utility.yul\":19378:19382   */\n      0x00\n        /* \"#utility.yul\":19416:19418   */\n      0x20\n        /* \"#utility.yul\":19405:19414   */\n      dup3\n        /* \"#utility.yul\":19401:19419   */\n      add\n        /* \"#utility.yul\":19393:19419   */\n      swap1\n      pop\n        /* \"#utility.yul\":19465:19474   */\n      dup2\n        /* \"#utility.yul\":19459:19463   */\n      dup2\n        /* \"#utility.yul\":19455:19475   */\n      sub\n        /* \"#utility.yul\":19451:19452   */\n      0x00\n        /* \"#utility.yul\":19440:19449   */\n      dup4\n        /* \"#utility.yul\":19436:19453   */\n      add\n        /* \"#utility.yul\":19429:19476   */\n      mstore\n        /* \"#utility.yul\":19493:19624   */\n      tag_641\n        /* \"#utility.yul\":19619:19623   */\n      dup2\n        /* \"#utility.yul\":19493:19624   */\n      tag_559\n      jump\t// in\n    tag_641:\n        /* \"#utility.yul\":19485:19624   */\n      swap1\n      pop\n        /* \"#utility.yul\":19212:19631   */\n      swap2\n      swap1\n      pop\n      jump\t// out\n        /* \"#utility.yul\":19637:20056   */\n    tag_257:\n        /* \"#utility.yul\":19803:19807   */\n      0x00\n        /* \"#utility.yul\":19841:19843   */\n      0x20\n        /* \"#utility.yul\":19830:19839   */\n      dup3\n        /* \"#utility.yul\":19826:19844   */\n      add\n        /* \"#utility.yul\":19818:19844   */\n      swap1\n      pop\n        /* \"#utility.yul\":19890:19899   */\n      dup2\n        /* \"#utility.yul\":19884:19888   */\n      dup2\n        /* \"#utility.yul\":19880:19900   */\n      sub\n        /* \"#utility.yul\":19876:19877   */\n      0x00\n        /* \"#utility.yul\":19865:19874   */\n      dup4\n        /* \"#utility.yul\":19861:19878   */\n      add\n        /* \"#utility.yul\":19854:19901   */\n      mstore\n        /* \"#utility.yul\":19918:20049   */\n      tag_643\n        /* \"#utility.yul\":20044:20048   */\n      dup2\n        /* \"#utility.yul\":19918:20049   */\n      tag_564\n      jump\t// in\n    tag_643:\n        /* \"#utility.yul\":19910:20049   */\n      swap1\n      pop\n        /* \"#utility.yul\":19637:20056   */\n      swap2\n      swap1\n      pop\n      jump\t// out\n        /* \"#utility.yul\":20062:20481   */\n    tag_236:\n        /* \"#utility.yul\":20228:20232   */\n      0x00\n        /* \"#utility.yul\":20266:20268   */\n      0x20\n        /* \"#utility.yul\":20255:20264   */\n      dup3\n        /* \"#utility.yul\":20251:20269   */\n      add\n        /* \"#utility.yul\":20243:20269   */\n      swap1\n      pop\n        /* \"#utility.yul\":20315:20324   */\n      dup2\n        /* \"#utility.yul\":20309:20313   */\n      dup2\n        /* \"#utility.yul\":20305:20325   */\n      sub\n        /* \"#utility.yul\":20301:20302   */\n      0x00\n        /* \"#utility.yul\":20290:20299   */\n      dup4\n        /* \"#utility.yul\":20286:20303   */\n      add\n        /* \"#utility.yul\":20279:20326   */\n      mstore\n        /* \"#utility.yul\":20343:20474   */\n      tag_645\n        /* \"#utility.yul\":20469:20473   */\n      dup2\n        /* \"#utility.yul\":20343:20474   */\n      tag_569\n      jump\t// in\n    tag_645:\n        /* \"#utility.yul\":20335:20474   */\n      swap1\n      pop\n        /* \"#utility.yul\":20062:20481   */\n      swap2\n      swap1\n      pop\n      jump\t// out\n        /* \"#utility.yul\":20487:20906   */\n    tag_156:\n        /* \"#utility.yul\":20653:20657   */\n      0x00\n        /* \"#utility.yul\":20691:20693   */\n      0x20\n        /* \"#utility.yul\":20680:20689   */\n      dup3\n        /* \"#utility.yul\":20676:20694   */\n      add\n        /* \"#utility.yul\":20668:20694   */\n      swap1\n      pop\n        /* \"#utility.yul\":20740:20749   */\n      dup2\n        /* \"#utility.yul\":20734:20738   */\n      dup2\n        /* \"#utility.yul\":20730:20750   */\n      sub\n        /* \"#utility.yul\":20726:20727   */\n      0x00\n        /* \"#utility.yul\":20715:20724   */\n      dup4\n        /* \"#utility.yul\":20711:20728   */\n      add\n        /* \"#utility.yul\":20704:20751   */\n      mstore\n        /* \"#utility.yul\":20768:20899   */\n      tag_647\n        /* \"#utility.yul\":20894:20898   */\n      dup2\n        /* \"#utility.yul\":20768:20899   */\n      tag_574\n      jump\t// in\n    tag_647:\n        /* \"#utility.yul\":20760:20899   */\n      swap1\n      pop\n        /* \"#utility.yul\":20487:20906   */\n      swap2\n      swap1\n      pop\n      jump\t// out\n        /* \"#utility.yul\":20912:21331   */\n    tag_297:\n        /* \"#utility.yul\":21078:21082   */\n      0x00\n        /* \"#utility.yul\":21116:21118   */\n      0x20\n        /* \"#utility.yul\":21105:21114   */\n      dup3\n        /* \"#utility.yul\":21101:21119   */\n      add\n        /* \"#utility.yul\":21093:21119   */\n      swap1\n      pop\n        /* \"#utility.yul\":21165:21174   */\n      dup2\n        /* \"#utility.yul\":21159:21163   */\n      dup2\n        /* \"#utility.yul\":21155:21175   */\n      sub\n        /* \"#utility.yul\":21151:21152   */\n      0x00\n        /* \"#utility.yul\":21140:21149   */\n      dup4\n        /* \"#utility.yul\":21136:21153   */\n      add\n        /* \"#utility.yul\":21129:21176   */\n      mstore\n        /* \"#utility.yul\":21193:21324   */\n      tag_649\n        /* \"#utility.yul\":21319:21323   */\n      dup2\n        /* \"#utility.yul\":21193:21324   */\n      tag_579\n      jump\t// in\n    tag_649:\n        /* \"#utility.yul\":21185:21324   */\n      swap1\n      pop\n        /* \"#utility.yul\":20912:21331   */\n      swap2\n      swap1\n      pop\n      jump\t// out\n        /* \"#utility.yul\":21337:21756   */\n    tag_242:\n        /* \"#utility.yul\":21503:21507   */\n      0x00\n        /* \"#utility.yul\":21541:21543   */\n      0x20\n        /* \"#utility.yul\":21530:21539   */\n      dup3\n        /* \"#utility.yul\":21526:21544   */\n      add\n        /* \"#utility.yul\":21518:21544   */\n      swap1\n      pop\n        /* \"#utility.yul\":21590:21599   */\n      dup2\n        /* \"#utility.yul\":21584:21588   */\n      dup2\n        /* \"#utility.yul\":21580:21600   */\n      sub\n        /* \"#utility.yul\":21576:21577   */\n      0x00\n        /* \"#utility.yul\":21565:21574   */\n      dup4\n        /* \"#utility.yul\":21561:21578   */\n      add\n        /* \"#utility.yul\":21554:21601   */\n      mstore\n        /* \"#utility.yul\":21618:21749   */\n      tag_651\n        /* \"#utility.yul\":21744:21748   */\n      dup2\n        /* \"#utility.yul\":21618:21749   */\n      tag_584\n      jump\t// in\n    tag_651:\n        /* \"#utility.yul\":21610:21749   */\n      swap1\n      pop\n        /* \"#utility.yul\":21337:21756   */\n      swap2\n      swap1\n      pop\n      jump\t// out\n        /* \"#utility.yul\":21762:22181   */\n    tag_352:\n        /* \"#utility.yul\":21928:21932   */\n      0x00\n        /* \"#utility.yul\":21966:21968   */\n      0x20\n        /* \"#utility.yul\":21955:21964   */\n      dup3\n        /* \"#utility.yul\":21951:21969   */\n      add\n        /* \"#utility.yul\":21943:21969   */\n      swap1\n      pop\n        /* \"#utility.yul\":22015:22024   */\n      dup2\n        /* \"#utility.yul\":22009:22013   */\n      dup2\n        /* \"#utility.yul\":22005:22025   */\n      sub\n        /* \"#utility.yul\":22001:22002   */\n      0x00\n        /* \"#utility.yul\":21990:21999   */\n      dup4\n        /* \"#utility.yul\":21986:22003   */\n      add\n        /* \"#utility.yul\":21979:22026   */\n      mstore\n        /* \"#utility.yul\":22043:22174   */\n      tag_653\n        /* \"#utility.yul\":22169:22173   */\n      dup2\n        /* \"#utility.yul\":22043:22174   */\n      tag_589\n      jump\t// in\n    tag_653:\n        /* \"#utility.yul\":22035:22174   */\n      swap1\n      pop\n        /* \"#utility.yul\":21762:22181   */\n      swap2\n      swap1\n      pop\n      jump\t// out\n        /* \"#utility.yul\":22187:22606   */\n    tag_304:\n        /* \"#utility.yul\":22353:22357   */\n      0x00\n        /* \"#utility.yul\":22391:22393   */\n      0x20\n        /* \"#utility.yul\":22380:22389   */\n      dup3\n        /* \"#utility.yul\":22376:22394   */\n      add\n        /* \"#utility.yul\":22368:22394   */\n      swap1\n      pop\n        /* \"#utility.yul\":22440:22449   */\n      dup2\n        /* \"#utility.yul\":22434:22438   */\n      dup2\n        /* \"#utility.yul\":22430:22450   */\n      sub\n        /* \"#utility.yul\":22426:22427   */\n      0x00\n        /* \"#utility.yul\":22415:22424   */\n      dup4\n        /* \"#utility.yul\":22411:22428   */\n      add\n        /* \"#utility.yul\":22404:22451   */\n      mstore\n        /* \"#utility.yul\":22468:22599   */\n      tag_655\n        /* \"#utility.yul\":22594:22598   */\n      dup2\n        /* \"#utility.yul\":22468:22599   */\n      tag_594\n      jump\t// in\n    tag_655:\n        /* \"#utility.yul\":22460:22599   */\n      swap1\n      pop\n        /* \"#utility.yul\":22187:22606   */\n      swap2\n      swap1\n      pop\n      jump\t// out\n        /* \"#utility.yul\":22612:23031   */\n    tag_341:\n        /* \"#utility.yul\":22778:22782   */\n      0x00\n        /* \"#utility.yul\":22816:22818   */\n      0x20\n        /* \"#utility.yul\":22805:22814   */\n      dup3\n        /* \"#utility.yul\":22801:22819   */\n      add\n        /* \"#utility.yul\":22793:22819   */\n      swap1\n      pop\n        /* \"#utility.yul\":22865:22874   */\n      dup2\n        /* \"#utility.yul\":22859:22863   */\n      dup2\n        /* \"#utility.yul\":22855:22875   */\n      sub\n        /* \"#utility.yul\":22851:22852   */\n      0x00\n        /* \"#utility.yul\":22840:22849   */\n      dup4\n        /* \"#utility.yul\":22836:22853   */\n      add\n        /* \"#utility.yul\":22829:22876   */\n      mstore\n        /* \"#utility.yul\":22893:23024   */\n      tag_657\n        /* \"#utility.yul\":23019:23023   */\n      dup2\n        /* \"#utility.yul\":22893:23024   */\n      tag_599\n      jump\t// in\n    tag_657:\n        /* \"#utility.yul\":22885:23024   */\n      swap1\n      pop\n        /* \"#utility.yul\":22612:23031   */\n      swap2\n      swap1\n      pop\n      jump\t// out\n        /* \"#utility.yul\":23037:23456   */\n    tag_323:\n        /* \"#utility.yul\":23203:23207   */\n      0x00\n        /* \"#utility.yul\":23241:23243   */\n      0x20\n        /* \"#utility.yul\":23230:23239   */\n      dup3\n        /* \"#utility.yul\":23226:23244   */\n      add\n        /* \"#utility.yul\":23218:23244   */\n      swap1\n      pop\n        /* \"#utility.yul\":23290:23299   */\n      dup2\n        /* \"#utility.yul\":23284:23288   */\n      dup2\n        /* \"#utility.yul\":23280:23300   */\n      sub\n        /* \"#utility.yul\":23276:23277   */\n      0x00\n        /* \"#utility.yul\":23265:23274   */\n      dup4\n        /* \"#utility.yul\":23261:23278   */\n      add\n        /* \"#utility.yul\":23254:23301   */\n      mstore\n        /* \"#utility.yul\":23318:23449   */\n      tag_659\n        /* \"#utility.yul\":23444:23448   */\n      dup2\n        /* \"#utility.yul\":23318:23449   */\n      tag_604\n      jump\t// in\n    tag_659:\n        /* \"#utility.yul\":23310:23449   */\n      swap1\n      pop\n        /* \"#utility.yul\":23037:23456   */\n      swap2\n      swap1\n      pop\n      jump\t// out\n        /* \"#utility.yul\":23462:23684   */\n    tag_112:\n        /* \"#utility.yul\":23555:23559   */\n      0x00\n        /* \"#utility.yul\":23593:23595   */\n      0x20\n        /* \"#utility.yul\":23582:23591   */\n      dup3\n        /* \"#utility.yul\":23578:23596   */\n      add\n        /* \"#utility.yul\":23570:23596   */\n      swap1\n      pop\n        /* \"#utility.yul\":23606:23677   */\n      tag_661\n        /* \"#utility.yul\":23674:23675   */\n      0x00\n        /* \"#utility.yul\":23663:23672   */\n      dup4\n        /* \"#utility.yul\":23659:23676   */\n      add\n        /* \"#utility.yul\":23650:23656   */\n      dup5\n        /* \"#utility.yul\":23606:23677   */\n      tag_609\n      jump\t// in\n    tag_661:\n        /* \"#utility.yul\":23462:23684   */\n      swap3\n      swap2\n      pop\n      pop\n      jump\t// out\n        /* \"#utility.yul\":23690:24515   */\n    tag_199:\n        /* \"#utility.yul\":23950:23954   */\n      0x00\n        /* \"#utility.yul\":23988:23991   */\n      0xa0\n        /* \"#utility.yul\":23977:23986   */\n      dup3\n        /* \"#utility.yul\":23973:23992   */\n      add\n        /* \"#utility.yul\":23965:23992   */\n      swap1\n      pop\n        /* \"#utility.yul\":24002:24073   */\n      tag_663\n        /* \"#utility.yul\":24070:24071   */\n      0x00\n        /* \"#utility.yul\":24059:24068   */\n      dup4\n        /* \"#utility.yul\":24055:24072   */\n      add\n        /* \"#utility.yul\":24046:24052   */\n      dup9\n        /* \"#utility.yul\":24002:24073   */\n      tag_609\n      jump\t// in\n    tag_663:\n        /* \"#utility.yul\":24083:24163   */\n      tag_664\n        /* \"#utility.yul\":24159:24161   */\n      0x20\n        /* \"#utility.yul\":24148:24157   */\n      dup4\n        /* \"#utility.yul\":24144:24162   */\n      add\n        /* \"#utility.yul\":24135:24141   */\n      dup8\n        /* \"#utility.yul\":24083:24163   */\n      tag_527\n      jump\t// in\n    tag_664:\n        /* \"#utility.yul\":24210:24219   */\n      dup2\n        /* \"#utility.yul\":24204:24208   */\n      dup2\n        /* \"#utility.yul\":24200:24220   */\n      sub\n        /* \"#utility.yul\":24195:24197   */\n      0x40\n        /* \"#utility.yul\":24184:24193   */\n      dup4\n        /* \"#utility.yul\":24180:24198   */\n      add\n        /* \"#utility.yul\":24173:24221   */\n      mstore\n        /* \"#utility.yul\":24238:24343   */\n      tag_665\n        /* \"#utility.yul\":24338:24342   */\n      dup2\n        /* \"#utility.yul\":24329:24335   */\n      dup7\n        /* \"#utility.yul\":24238:24343   */\n      tag_496\n      jump\t// in\n    tag_665:\n        /* \"#utility.yul\":24230:24343   */\n      swap1\n      pop\n        /* \"#utility.yul\":24353:24425   */\n      tag_666\n        /* \"#utility.yul\":24421:24423   */\n      0x60\n        /* \"#utility.yul\":24410:24419   */\n      dup4\n        /* \"#utility.yul\":24406:24424   */\n      add\n        /* \"#utility.yul\":24397:24403   */\n      dup6\n        /* \"#utility.yul\":24353:24425   */\n      tag_479\n      jump\t// in\n    tag_666:\n        /* \"#utility.yul\":24435:24508   */\n      tag_667\n        /* \"#utility.yul\":24503:24506   */\n      0x80\n        /* \"#utility.yul\":24492:24501   */\n      dup4\n        /* \"#utility.yul\":24488:24507   */\n      add\n        /* \"#utility.yul\":24479:24485   */\n      dup5\n        /* \"#utility.yul\":24435:24508   */\n      tag_609\n      jump\t// in\n    tag_667:\n        /* \"#utility.yul\":23690:24515   */\n      swap7\n      swap6\n      pop\n      pop\n      pop\n      pop\n      pop\n      pop\n      jump\t// out\n        /* \"#utility.yul\":24521:24650   */\n    tag_384:\n        /* \"#utility.yul\":24555:24561   */\n      0x00\n        /* \"#utility.yul\":24582:24602   */\n      tag_669\n      tag_670\n      jump\t// in\n    tag_669:\n        /* \"#utility.yul\":24572:24602   */\n      swap1\n      pop\n        /* \"#utility.yul\":24611:24644   */\n      tag_671\n        /* \"#utility.yul\":24639:24643   */\n      dup3\n        /* \"#utility.yul\":24631:24637   */\n      dup3\n        /* \"#utility.yul\":24611:24644   */\n      tag_672\n      jump\t// in\n    tag_671:\n        /* \"#utility.yul\":24521:24650   */\n      swap2\n      swap1\n      pop\n      jump\t// out\n        /* \"#utility.yul\":24656:24731   */\n    tag_670:\n        /* \"#utility.yul\":24689:24695   */\n      0x00\n        /* \"#utility.yul\":24722:24724   */\n      0x40\n        /* \"#utility.yul\":24716:24725   */\n      mload\n        /* \"#utility.yul\":24706:24725   */\n      swap1\n      pop\n        /* \"#utility.yul\":24656:24731   */\n      swap1\n      jump\t// out\n        /* \"#utility.yul\":24737:25048   */\n    tag_383:\n        /* \"#utility.yul\":24814:24818   */\n      0x00\n        /* \"#utility.yul\":24904:24922   */\n      0xffffffffffffffff\n        /* \"#utility.yul\":24896:24902   */\n      dup3\n        /* \"#utility.yul\":24893:24923   */\n      gt\n        /* \"#utility.yul\":24890:24946   */\n      iszero\n      tag_675\n      jumpi\n        /* \"#utility.yul\":24926:24944   */\n      tag_676\n      tag_677\n      jump\t// in\n    tag_676:\n        /* \"#utility.yul\":24890:24946   */\n    tag_675:\n        /* \"#utility.yul\":24976:24980   */\n      0x20\n        /* \"#utility.yul\":24968:24974   */\n      dup3\n        /* \"#utility.yul\":24964:24981   */\n      mul\n        /* \"#utility.yul\":24956:24981   */\n      swap1\n      pop\n        /* \"#utility.yul\":25036:25040   */\n      0x20\n        /* \"#utility.yul\":25030:25034   */\n      dup2\n        /* \"#utility.yul\":25026:25041   */\n      add\n        /* \"#utility.yul\":25018:25041   */\n      swap1\n      pop\n        /* \"#utility.yul\":24737:25048   */\n      swap2\n      swap1\n      pop\n      jump\t// out\n        /* \"#utility.yul\":25054:25365   */\n    tag_397:\n        /* \"#utility.yul\":25131:25135   */\n      0x00\n        /* \"#utility.yul\":25221:25239   */\n      0xffffffffffffffff\n        /* \"#utility.yul\":25213:25219   */\n      dup3\n        /* \"#utility.yul\":25210:25240   */\n      gt\n        /* \"#utility.yul\":25207:25263   */\n      iszero\n      tag_679\n      jumpi\n        /* \"#utility.yul\":25243:25261   */\n      tag_680\n      tag_677\n      jump\t// in\n    tag_680:\n        /* \"#utility.yul\":25207:25263   */\n    tag_679:\n        /* \"#utility.yul\":25293:25297   */\n      0x20\n        /* \"#utility.yul\":25285:25291   */\n      dup3\n        /* \"#utility.yul\":25281:25298   */\n      mul\n        /* \"#utility.yul\":25273:25298   */\n      swap1\n      pop\n        /* \"#utility.yul\":25353:25357   */\n      0x20\n        /* \"#utility.yul\":25347:25351   */\n      dup2\n        /* \"#utility.yul\":25343:25358   */\n      add\n        /* \"#utility.yul\":25335:25358   */\n      swap1\n      pop\n        /* \"#utility.yul\":25054:25365   */\n      swap2\n      swap1\n      pop\n      jump\t// out\n        /* \"#utility.yul\":25371:25503   */\n    tag_489:\n        /* \"#utility.yul\":25438:25442   */\n      0x00\n        /* \"#utility.yul\":25461:25464   */\n      dup2\n        /* \"#utility.yul\":25453:25464   */\n      swap1\n      pop\n        /* \"#utility.yul\":25491:25495   */\n      0x20\n        /* \"#utility.yul\":25486:25489   */\n      dup3\n        /* \"#utility.yul\":25482:25496   */\n      add\n        /* \"#utility.yul\":25474:25496   */\n      swap1\n      pop\n        /* \"#utility.yul\":25371:25503   */\n      swap2\n      swap1\n      pop\n      jump\t// out\n        /* \"#utility.yul\":25509:25665   */\n    tag_502:\n        /* \"#utility.yul\":25573:25577   */\n      0x00\n        /* \"#utility.yul\":25596:25599   */\n      dup2\n        /* \"#utility.yul\":25588:25599   */\n      swap1\n      pop\n        /* \"#utility.yul\":25619:25622   */\n      dup2\n        /* \"#utility.yul\":25616:25617   */\n      0x00\n        /* \"#utility.yul\":25609:25623   */\n      mstore\n        /* \"#utility.yul\":25653:25657   */\n      0x20\n        /* \"#utility.yul\":25650:25651   */\n      0x00\n        /* \"#utility.yul\":25640:25658   */\n      keccak256\n        /* \"#utility.yul\":25632:25658   */\n      swap1\n      pop\n        /* \"#utility.yul\":25509:25665   */\n      swap2\n      swap1\n      pop\n      jump\t// out\n        /* \"#utility.yul\":25671:25785   */\n    tag_485:\n        /* \"#utility.yul\":25738:25744   */\n      0x00\n        /* \"#utility.yul\":25772:25777   */\n      dup2\n        /* \"#utility.yul\":25766:25778   */\n      mload\n        /* \"#utility.yul\":25756:25778   */\n      swap1\n      pop\n        /* \"#utility.yul\":25671:25785   */\n      swap2\n      swap1\n      pop\n      jump\t// out\n        /* \"#utility.yul\":25791:25902   */\n    tag_499:\n        /* \"#utility.yul\":25855:25861   */\n      0x00\n        /* \"#utility.yul\":25889:25894   */\n      dup2\n        /* \"#utility.yul\":25883:25895   */\n      sload\n        /* \"#utility.yul\":25873:25895   */\n      swap1\n      pop\n        /* \"#utility.yul\":25791:25902   */\n      swap2\n      swap1\n      pop\n      jump\t// out\n        /* \"#utility.yul\":25908:26006   */\n    tag_518:\n        /* \"#utility.yul\":25959:25965   */\n      0x00\n        /* \"#utility.yul\":25993:25998   */\n      dup2\n        /* \"#utility.yul\":25987:25999   */\n      mload\n        /* \"#utility.yul\":25977:25999   */\n      swap1\n      pop\n        /* \"#utility.yul\":25908:26006   */\n      swap2\n      swap1\n      pop\n      jump\t// out\n        /* \"#utility.yul\":26012:26111   */\n    tag_538:\n        /* \"#utility.yul\":26064:26070   */\n      0x00\n        /* \"#utility.yul\":26098:26103   */\n      dup2\n        /* \"#utility.yul\":26092:26104   */\n      mload\n        /* \"#utility.yul\":26082:26104   */\n      swap1\n      pop\n        /* \"#utility.yul\":26012:26111   */\n      swap2\n      swap1\n      pop\n      jump\t// out\n        /* \"#utility.yul\":26117:26230   */\n    tag_495:\n        /* \"#utility.yul\":26187:26191   */\n      0x00\n        /* \"#utility.yul\":26219:26223   */\n      0x20\n        /* \"#utility.yul\":26214:26217   */\n      dup3\n        /* \"#utility.yul\":26210:26224   */\n      add\n        /* \"#utility.yul\":26202:26224   */\n      swap1\n      pop\n        /* \"#utility.yul\":26117:26230   */\n      swap2\n      swap1\n      pop\n      jump\t// out\n        /* \"#utility.yul\":26236:26346   */\n    tag_510:\n        /* \"#utility.yul\":26303:26307   */\n      0x00\n        /* \"#utility.yul\":26335:26339   */\n      0x01\n        /* \"#utility.yul\":26330:26333   */\n      dup3\n        /* \"#utility.yul\":26326:26340   */\n      add\n        /* \"#utility.yul\":26318:26340   */\n      swap1\n      pop\n        /* \"#utility.yul\":26236:26346   */\n      swap2\n      swap1\n      pop\n      jump\t// out\n        /* \"#utility.yul\":26352:26536   */\n    tag_487:\n        /* \"#utility.yul\":26451:26462   */\n      0x00\n        /* \"#utility.yul\":26485:26491   */\n      dup3\n        /* \"#utility.yul\":26480:26483   */\n      dup3\n        /* \"#utility.yul\":26473:26492   */\n      mstore\n        /* \"#utility.yul\":26525:26529   */\n      0x20\n        /* \"#utility.yul\":26520:26523   */\n      dup3\n        /* \"#utility.yul\":26516:26530   */\n      add\n        /* \"#utility.yul\":26501:26530   */\n      swap1\n      pop\n        /* \"#utility.yul\":26352:26536   */\n      swap3\n      swap2\n      pop\n      pop\n      jump\t// out\n        /* \"#utility.yul\":26542:26689   */\n    tag_520:\n        /* \"#utility.yul\":26643:26654   */\n      0x00\n        /* \"#utility.yul\":26680:26683   */\n      dup2\n        /* \"#utility.yul\":26665:26683   */\n      swap1\n      pop\n        /* \"#utility.yul\":26542:26689   */\n      swap3\n      swap2\n      pop\n      pop\n      jump\t// out\n        /* \"#utility.yul\":26695:26864   */\n    tag_540:\n        /* \"#utility.yul\":26779:26790   */\n      0x00\n        /* \"#utility.yul\":26813:26819   */\n      dup3\n        /* \"#utility.yul\":26808:26811   */\n      dup3\n        /* \"#utility.yul\":26801:26820   */\n      mstore\n        /* \"#utility.yul\":26853:26857   */\n      0x20\n        /* \"#utility.yul\":26848:26851   */\n      dup3\n        /* \"#utility.yul\":26844:26858   */\n      add\n        /* \"#utility.yul\":26829:26858   */\n      swap1\n      pop\n        /* \"#utility.yul\":26695:26864   */\n      swap3\n      swap2\n      pop\n      pop\n      jump\t// out\n        /* \"#utility.yul\":26870:27055   */\n    tag_195:\n        /* \"#utility.yul\":26910:26911   */\n      0x00\n        /* \"#utility.yul\":26927:26947   */\n      tag_693\n        /* \"#utility.yul\":26945:26946   */\n      dup3\n        /* \"#utility.yul\":26927:26947   */\n      tag_612\n      jump\t// in\n    tag_693:\n        /* \"#utility.yul\":26922:26947   */\n      swap2\n      pop\n        /* \"#utility.yul\":26961:26981   */\n      tag_694\n        /* \"#utility.yul\":26979:26980   */\n      dup4\n        /* \"#utility.yul\":26961:26981   */\n      tag_612\n      jump\t// in\n    tag_694:\n        /* \"#utility.yul\":26956:26981   */\n      swap3\n      pop\n        /* \"#utility.yul\":27000:27001   */\n      dup3\n        /* \"#utility.yul\":26990:27025   */\n      tag_695\n      jumpi\n        /* \"#utility.yul\":27005:27023   */\n      tag_696\n      tag_697\n      jump\t// in\n    tag_696:\n        /* \"#utility.yul\":26990:27025   */\n    tag_695:\n        /* \"#utility.yul\":27047:27048   */\n      dup3\n        /* \"#utility.yul\":27044:27045   */\n      dup3\n        /* \"#utility.yul\":27040:27049   */\n      div\n        /* \"#utility.yul\":27035:27049   */\n      swap1\n      pop\n        /* \"#utility.yul\":26870:27055   */\n      swap3\n      swap2\n      pop\n      pop\n      jump\t// out\n        /* \"#utility.yul\":27061:27409   */\n    tag_193:\n        /* \"#utility.yul\":27101:27108   */\n      0x00\n        /* \"#utility.yul\":27124:27144   */\n      tag_699\n        /* \"#utility.yul\":27142:27143   */\n      dup3\n        /* \"#utility.yul\":27124:27144   */\n      tag_612\n      jump\t// in\n    tag_699:\n        /* \"#utility.yul\":27119:27144   */\n      swap2\n      pop\n        /* \"#utility.yul\":27158:27178   */\n      tag_700\n        /* \"#utility.yul\":27176:27177   */\n      dup4\n        /* \"#utility.yul\":27158:27178   */\n      tag_612\n      jump\t// in\n    tag_700:\n        /* \"#utility.yul\":27153:27178   */\n      swap3\n      pop\n        /* \"#utility.yul\":27346:27347   */\n      dup2\n        /* \"#utility.yul\":27278:27344   */\n      0xffffffffffffffffffffffffffffffffffffffffffffffffffffffffffffffff\n        /* \"#utility.yul\":27274:27348   */\n      div\n        /* \"#utility.yul\":27271:27272   */\n      dup4\n        /* \"#utility.yul\":27268:27349   */\n      gt\n        /* \"#utility.yul\":27263:27264   */\n      dup3\n        /* \"#utility.yul\":27256:27265   */\n      iszero\n        /* \"#utility.yul\":27249:27266   */\n      iszero\n        /* \"#utility.yul\":27245:27350   */\n      and\n        /* \"#utility.yul\":27242:27373   */\n      iszero\n      tag_701\n      jumpi\n        /* \"#utility.yul\":27353:27371   */\n      tag_702\n      tag_703\n      jump\t// in\n    tag_702:\n        /* \"#utility.yul\":27242:27373   */\n    tag_701:\n        /* \"#utility.yul\":27401:27402   */\n      dup3\n        /* \"#utility.yul\":27398:27399   */\n      dup3\n        /* \"#utility.yul\":27394:27403   */\n      mul\n        /* \"#utility.yul\":27383:27403   */\n      swap1\n      pop\n        /* \"#utility.yul\":27061:27409   */\n      swap3\n      swap2\n      pop\n      pop\n      jump\t// out\n        /* \"#utility.yul\":27415:27606   */\n    tag_162:\n        /* \"#utility.yul\":27455:27459   */\n      0x00\n        /* \"#utility.yul\":27475:27495   */\n      tag_705\n        /* \"#utility.yul\":27493:27494   */\n      dup3\n        /* \"#utility.yul\":27475:27495   */\n      tag_612\n      jump\t// in\n    tag_705:\n        /* \"#utility.yul\":27470:27495   */\n      swap2\n      pop\n        /* \"#utility.yul\":27509:27529   */\n      tag_706\n        /* \"#utility.yul\":27527:27528   */\n      dup4\n        /* \"#utility.yul\":27509:27529   */\n      tag_612\n      jump\t// in\n    tag_706:\n        /* \"#utility.yul\":27504:27529   */\n      swap3\n      pop\n        /* \"#utility.yul\":27548:27549   */\n      dup3\n        /* \"#utility.yul\":27545:27546   */\n      dup3\n        /* \"#utility.yul\":27542:27550   */\n      lt\n        /* \"#utility.yul\":27539:27573   */\n      iszero\n      tag_707\n      jumpi\n        /* \"#utility.yul\":27553:27571   */\n      tag_708\n      tag_703\n      jump\t// in\n    tag_708:\n        /* \"#utility.yul\":27539:27573   */\n    tag_707:\n        /* \"#utility.yul\":27598:27599   */\n      dup3\n        /* \"#utility.yul\":27595:27596   */\n      dup3\n        /* \"#utility.yul\":27591:27600   */\n      sub\n        /* \"#utility.yul\":27583:27600   */\n      swap1\n      pop\n        /* \"#utility.yul\":27415:27606   */\n      swap3\n      swap2\n      pop\n      pop\n      jump\t// out\n        /* \"#utility.yul\":27612:27751   */\n    tag_709:\n        /* \"#utility.yul\":27662:27669   */\n      0x00\n        /* \"#utility.yul\":27702:27744   */\n      0xffffffffffffffffffffffffffffffffffffffff\n        /* \"#utility.yul\":27695:27700   */\n      dup3\n        /* \"#utility.yul\":27691:27745   */\n      and\n        /* \"#utility.yul\":27680:27745   */\n      swap1\n      pop\n        /* \"#utility.yul\":27612:27751   */\n      swap2\n      swap1\n      pop\n      jump\t// out\n        /* \"#utility.yul\":27757:27853   */\n    tag_478:\n        /* \"#utility.yul\":27794:27801   */\n      0x00\n        /* \"#utility.yul\":27823:27847   */\n      tag_712\n        /* \"#utility.yul\":27841:27846   */\n      dup3\n        /* \"#utility.yul\":27823:27847   */\n      tag_713\n      jump\t// in\n    tag_712:\n        /* \"#utility.yul\":27812:27847   */\n      swap1\n      pop\n        /* \"#utility.yul\":27757:27853   */\n      swap2\n      swap1\n      pop\n      jump\t// out\n        /* \"#utility.yul\":27859:27949   */\n    tag_514:\n        /* \"#utility.yul\":27893:27900   */\n      0x00\n        /* \"#utility.yul\":27936:27941   */\n      dup2\n        /* \"#utility.yul\":27929:27942   */\n      iszero\n        /* \"#utility.yul\":27922:27943   */\n      iszero\n        /* \"#utility.yul\":27911:27943   */\n      swap1\n      pop\n        /* \"#utility.yul\":27859:27949   */\n      swap2\n      swap1\n      pop\n      jump\t// out\n        /* \"#utility.yul\":27955:28081   */\n    tag_713:\n        /* \"#utility.yul\":27992:27999   */\n      0x00\n        /* \"#utility.yul\":28032:28074   */\n      0xffffffffffffffffffffffffffffffffffffffff\n        /* \"#utility.yul\":28025:28030   */\n      dup3\n        /* \"#utility.yul\":28021:28075   */\n      and\n        /* \"#utility.yul\":28010:28075   */\n      swap1\n      pop\n        /* \"#utility.yul\":27955:28081   */\n      swap2\n      swap1\n      pop\n      jump\t// out\n        /* \"#utility.yul\":28087:28164   */\n    tag_612:\n        /* \"#utility.yul\":28124:28131   */\n      0x00\n        /* \"#utility.yul\":28153:28158   */\n      dup2\n        /* \"#utility.yul\":28142:28158   */\n      swap1\n      pop\n        /* \"#utility.yul\":28087:28164   */\n      swap2\n      swap1\n      pop\n      jump\t// out\n        /* \"#utility.yul\":28170:28256   */\n    tag_717:\n        /* \"#utility.yul\":28205:28212   */\n      0x00\n        /* \"#utility.yul\":28245:28249   */\n      0xff\n        /* \"#utility.yul\":28238:28243   */\n      dup3\n        /* \"#utility.yul\":28234:28250   */\n      and\n        /* \"#utility.yul\":28223:28250   */\n      swap1\n      pop\n        /* \"#utility.yul\":28170:28256   */\n      swap2\n      swap1\n      pop\n      jump\t// out\n        /* \"#utility.yul\":28262:28413   */\n    tag_526:\n        /* \"#utility.yul\":28337:28346   */\n      0x00\n        /* \"#utility.yul\":28370:28407   */\n      tag_720\n        /* \"#utility.yul\":28401:28406   */\n      dup3\n        /* \"#utility.yul\":28370:28407   */\n      tag_721\n      jump\t// in\n    tag_720:\n        /* \"#utility.yul\":28357:28407   */\n      swap1\n      pop\n        /* \"#utility.yul\":28262:28413   */\n      swap2\n      swap1\n      pop\n      jump\t// out\n        /* \"#utility.yul\":28419:28540   */\n    tag_530:\n        /* \"#utility.yul\":28477:28486   */\n      0x00\n        /* \"#utility.yul\":28510:28534   */\n      tag_723\n        /* \"#utility.yul\":28528:28533   */\n      dup3\n        /* \"#utility.yul\":28510:28534   */\n      tag_612\n      jump\t// in\n    tag_723:\n        /* \"#utility.yul\":28497:28534   */\n      swap1\n      pop\n        /* \"#utility.yul\":28419:28540   */\n      swap2\n      swap1\n      pop\n      jump\t// out\n        /* \"#utility.yul\":28546:28663   */\n    tag_534:\n        /* \"#utility.yul\":28602:28611   */\n      0x00\n        /* \"#utility.yul\":28635:28657   */\n      tag_725\n        /* \"#utility.yul\":28651:28656   */\n      dup3\n        /* \"#utility.yul\":28635:28657   */\n      tag_717\n      jump\t// in\n    tag_725:\n        /* \"#utility.yul\":28622:28657   */\n      swap1\n      pop\n        /* \"#utility.yul\":28546:28663   */\n      swap2\n      swap1\n      pop\n      jump\t// out\n        /* \"#utility.yul\":28669:28795   */\n    tag_721:\n        /* \"#utility.yul\":28719:28728   */\n      0x00\n        /* \"#utility.yul\":28752:28789   */\n      tag_727\n        /* \"#utility.yul\":28783:28788   */\n      dup3\n        /* \"#utility.yul\":28752:28789   */\n      tag_728\n      jump\t// in\n    tag_727:\n        /* \"#utility.yul\":28739:28789   */\n      swap1\n      pop\n        /* \"#utility.yul\":28669:28795   */\n      swap2\n      swap1\n      pop\n      jump\t// out\n        /* \"#utility.yul\":28801:28914   */\n    tag_728:\n        /* \"#utility.yul\":28851:28860   */\n      0x00\n        /* \"#utility.yul\":28884:28908   */\n      tag_730\n        /* \"#utility.yul\":28902:28907   */\n      dup3\n        /* \"#utility.yul\":28884:28908   */\n      tag_713\n      jump\t// in\n    tag_730:\n        /* \"#utility.yul\":28871:28908   */\n      swap1\n      pop\n        /* \"#utility.yul\":28801:28914   */\n      swap2\n      swap1\n      pop\n      jump\t// out\n        /* \"#utility.yul\":28920:29227   */\n    tag_522:\n        /* \"#utility.yul\":28988:28989   */\n      0x00\n        /* \"#utility.yul\":28998:29111   */\n    tag_732:\n        /* \"#utility.yul\":29012:29018   */\n      dup4\n        /* \"#utility.yul\":29009:29010   */\n      dup2\n        /* \"#utility.yul\":29006:29019   */\n      lt\n        /* \"#utility.yul\":28998:29111   */\n      iszero\n      tag_734\n      jumpi\n        /* \"#utility.yul\":29097:29098   */\n      dup1\n        /* \"#utility.yul\":29092:29095   */\n      dup3\n        /* \"#utility.yul\":29088:29099   */\n      add\n        /* \"#utility.yul\":29082:29100   */\n      mload\n        /* \"#utility.yul\":29078:29079   */\n      dup2\n        /* \"#utility.yul\":29073:29076   */\n      dup5\n        /* \"#utility.yul\":29069:29080   */\n      add\n        /* \"#utility.yul\":29062:29101   */\n      mstore\n        /* \"#utility.yul\":29034:29036   */\n      0x20\n        /* \"#utility.yul\":29031:29032   */\n      dup2\n        /* \"#utility.yul\":29027:29037   */\n      add\n        /* \"#utility.yul\":29022:29037   */\n      swap1\n      pop\n        /* \"#utility.yul\":28998:29111   */\n      jump(tag_732)\n    tag_734:\n        /* \"#utility.yul\":29129:29135   */\n      dup4\n        /* \"#utility.yul\":29126:29127   */\n      dup2\n        /* \"#utility.yul\":29123:29136   */\n      gt\n        /* \"#utility.yul\":29120:29221   */\n      iszero\n      tag_735\n      jumpi\n        /* \"#utility.yul\":29209:29210   */\n      0x00\n        /* \"#utility.yul\":29200:29206   */\n      dup5\n        /* \"#utility.yul\":29195:29198   */\n      dup5\n        /* \"#utility.yul\":29191:29207   */\n      add\n        /* \"#utility.yul\":29184:29211   */\n      mstore\n        /* \"#utility.yul\":29120:29221   */\n    tag_735:\n        /* \"#utility.yul\":28969:29227   */\n      pop\n        /* \"#utility.yul\":28920:29227   */\n      pop\n      pop\n      pop\n      jump\t// out\n        /* \"#utility.yul\":29233:29399   */\n    tag_736:\n        /* \"#utility.yul\":29302:29307   */\n      0x00\n        /* \"#utility.yul\":29327:29393   */\n      tag_738\n        /* \"#utility.yul\":29358:29392   */\n      tag_739\n        /* \"#utility.yul\":29381:29391   */\n      dup4\n        /* \"#utility.yul\":29358:29392   */\n      tag_740\n      jump\t// in\n    tag_739:\n        /* \"#utility.yul\":29327:29393   */\n      tag_709\n      jump\t// in\n    tag_738:\n        /* \"#utility.yul\":29318:29393   */\n      swap1\n      pop\n        /* \"#utility.yul\":29233:29399   */\n      swap2\n      swap1\n      pop\n      jump\t// out\n        /* \"#utility.yul\":29405:29686   */\n    tag_672:\n        /* \"#utility.yul\":29488:29515   */\n      tag_742\n        /* \"#utility.yul\":29510:29514   */\n      dup3\n        /* \"#utility.yul\":29488:29515   */\n      tag_543\n      jump\t// in\n    tag_742:\n        /* \"#utility.yul\":29480:29486   */\n      dup2\n        /* \"#utility.yul\":29476:29516   */\n      add\n        /* \"#utility.yul\":29618:29624   */\n      dup2\n        /* \"#utility.yul\":29606:29616   */\n      dup2\n        /* \"#utility.yul\":29603:29625   */\n      lt\n        /* \"#utility.yul\":29582:29600   */\n      0xffffffffffffffff\n        /* \"#utility.yul\":29570:29580   */\n      dup3\n        /* \"#utility.yul\":29567:29601   */\n      gt\n        /* \"#utility.yul\":29564:29626   */\n      or\n        /* \"#utility.yul\":29561:29649   */\n      iszero\n      tag_743\n      jumpi\n        /* \"#utility.yul\":29629:29647   */\n      tag_744\n      tag_677\n      jump\t// in\n    tag_744:\n        /* \"#utility.yul\":29561:29649   */\n    tag_743:\n        /* \"#utility.yul\":29669:29679   */\n      dup1\n        /* \"#utility.yul\":29665:29667   */\n      0x40\n        /* \"#utility.yul\":29658:29680   */\n      mstore\n        /* \"#utility.yul\":29448:29686   */\n      pop\n        /* \"#utility.yul\":29405:29686   */\n      pop\n      pop\n      jump\t// out\n        /* \"#utility.yul\":29692:29872   */\n    tag_703:\n        /* \"#utility.yul\":29740:29817   */\n      0x4e487b7100000000000000000000000000000000000000000000000000000000\n        /* \"#utility.yul\":29737:29738   */\n      0x00\n        /* \"#utility.yul\":29730:29818   */\n      mstore\n        /* \"#utility.yul\":29837:29841   */\n      0x11\n        /* \"#utility.yul\":29834:29835   */\n      0x04\n        /* \"#utility.yul\":29827:29842   */\n      mstore\n        /* \"#utility.yul\":29861:29865   */\n      0x24\n        /* \"#utility.yul\":29858:29859   */\n      0x00\n        /* \"#utility.yul\":29851:29866   */\n      revert\n        /* \"#utility.yul\":29878:30058   */\n    tag_697:\n        /* \"#utility.yul\":29926:30003   */\n      0x4e487b7100000000000000000000000000000000000000000000000000000000\n        /* \"#utility.yul\":29923:29924   */\n      0x00\n        /* \"#utility.yul\":29916:30004   */\n      mstore\n        /* \"#utility.yul\":30023:30027   */\n      0x12\n        /* \"#utility.yul\":30020:30021   */\n      0x04\n        /* \"#utility.yul\":30013:30028   */\n      mstore\n        /* \"#utility.yul\":30047:30051   */\n      0x24\n        /* \"#utility.yul\":30044:30045   */\n      0x00\n        /* \"#utility.yul\":30037:30052   */\n      revert\n        /* \"#utility.yul\":30064:30244   */\n    tag_233:\n        /* \"#utility.yul\":30112:30189   */\n      0x4e487b7100000000000000000000000000000000000000000000000000000000\n        /* \"#utility.yul\":30109:30110   */\n      0x00\n        /* \"#utility.yul\":30102:30190   */\n      mstore\n        /* \"#utility.yul\":30209:30213   */\n      0x32\n        /* \"#utility.yul\":30206:30207   */\n      0x04\n        /* \"#utility.yul\":30199:30214   */\n      mstore\n        /* \"#utility.yul\":30233:30237   */\n      0x24\n        /* \"#utility.yul\":30230:30231   */\n      0x00\n        /* \"#utility.yul\":30223:30238   */\n      revert\n        /* \"#utility.yul\":30250:30430   */\n    tag_677:\n        /* \"#utility.yul\":30298:30375   */\n      0x4e487b7100000000000000000000000000000000000000000000000000000000\n        /* \"#utility.yul\":30295:30296   */\n      0x00\n        /* \"#utility.yul\":30288:30376   */\n      mstore\n        /* \"#utility.yul\":30395:30399   */\n      0x41\n        /* \"#utility.yul\":30392:30393   */\n      0x04\n        /* \"#utility.yul\":30385:30400   */\n      mstore\n        /* \"#utility.yul\":30419:30423   */\n      0x24\n        /* \"#utility.yul\":30416:30417   */\n      0x00\n        /* \"#utility.yul\":30409:30424   */\n      revert\n        /* \"#utility.yul\":30436:30580   */\n    tag_507:\n        /* \"#utility.yul\":30491:30496   */\n      0x00\n        /* \"#utility.yul\":30516:30573   */\n      tag_750\n        /* \"#utility.yul\":30567:30571   */\n      dup3\n        /* \"#utility.yul\":30561:30572   */\n      sload\n        /* \"#utility.yul\":30516:30573   */\n      tag_736\n      jump\t// in\n    tag_750:\n        /* \"#utility.yul\":30507:30573   */\n      swap1\n      pop\n        /* \"#utility.yul\":30436:30580   */\n      swap2\n      swap1\n      pop\n      jump\t// out\n        /* \"#utility.yul\":30586:30703   */\n    tag_412:\n        /* \"#utility.yul\":30695:30696   */\n      0x00\n        /* \"#utility.yul\":30692:30693   */\n      dup1\n        /* \"#utility.yul\":30685:30697   */\n      revert\n        /* \"#utility.yul\":30709:30826   */\n    tag_387:\n        /* \"#utility.yul\":30818:30819   */\n      0x00\n        /* \"#utility.yul\":30815:30816   */\n      dup1\n        /* \"#utility.yul\":30808:30820   */\n      revert\n        /* \"#utility.yul\":30832:30949   */\n    tag_452:\n        /* \"#utility.yul\":30941:30942   */\n      0x00\n        /* \"#utility.yul\":30938:30939   */\n      dup1\n        /* \"#utility.yul\":30931:30943   */\n      revert\n        /* \"#utility.yul\":30955:31072   */\n    tag_432:\n        /* \"#utility.yul\":31064:31065   */\n      0x00\n        /* \"#utility.yul\":31061:31062   */\n      dup1\n        /* \"#utility.yul\":31054:31066   */\n      revert\n        /* \"#utility.yul\":31078:31180   */\n    tag_543:\n        /* \"#utility.yul\":31119:31125   */\n      0x00\n        /* \"#utility.yul\":31170:31172   */\n      0x1f\n        /* \"#utility.yul\":31166:31173   */\n      not\n        /* \"#utility.yul\":31161:31163   */\n      0x1f\n        /* \"#utility.yul\":31154:31159   */\n      dup4\n        /* \"#utility.yul\":31150:31164   */\n      add\n        /* \"#utility.yul\":31146:31174   */\n      and\n        /* \"#utility.yul\":31136:31174   */\n      swap1\n      pop\n        /* \"#utility.yul\":31078:31180   */\n      swap2\n      swap1\n      pop\n      jump\t// out\n        /* \"#utility.yul\":31186:31288   */\n    tag_740:\n        /* \"#utility.yul\":31228:31236   */\n      0x00\n        /* \"#utility.yul\":31275:31280   */\n      dup2\n        /* \"#utility.yul\":31272:31273   */\n      0x00\n        /* \"#utility.yul\":31268:31281   */\n      shr\n        /* \"#utility.yul\":31247:31281   */\n      swap1\n      pop\n        /* \"#utility.yul\":31186:31288   */\n      swap2\n      swap1\n      pop\n      jump\t// out\n        /* \"#utility.yul\":31294:31456   */\n    tag_548:\n        /* \"#utility.yul\":31434:31448   */\n      0x21696e697469616c697a65640000000000000000000000000000000000000000\n        /* \"#utility.yul\":31430:31431   */\n      0x00\n        /* \"#utility.yul\":31422:31428   */\n      dup3\n        /* \"#utility.yul\":31418:31432   */\n      add\n        /* \"#utility.yul\":31411:31449   */\n      mstore\n        /* \"#utility.yul\":31294:31456   */\n      pop\n      jump\t// out\n        /* \"#utility.yul\":31462:31617   */\n    tag_553:\n        /* \"#utility.yul\":31602:31609   */\n      0x2173616665000000000000000000000000000000000000000000000000000000\n        /* \"#utility.yul\":31598:31599   */\n      0x00\n        /* \"#utility.yul\":31590:31596   */\n      dup3\n        /* \"#utility.yul\":31586:31600   */\n      add\n        /* \"#utility.yul\":31579:31610   */\n      mstore\n        /* \"#utility.yul\":31462:31617   */\n      pop\n      jump\t// out\n        /* \"#utility.yul\":31623:31848   */\n    tag_558:\n        /* \"#utility.yul\":31763:31797   */\n      0x4f776e61626c653a206e6577206f776e657220697320746865207a65726f2061\n        /* \"#utility.yul\":31759:31760   */\n      0x00\n        /* \"#utility.yul\":31751:31757   */\n      dup3\n        /* \"#utility.yul\":31747:31761   */\n      add\n        /* \"#utility.yul\":31740:31798   */\n      mstore\n        /* \"#utility.yul\":31832:31840   */\n      0x6464726573730000000000000000000000000000000000000000000000000000\n        /* \"#utility.yul\":31827:31829   */\n      0x20\n        /* \"#utility.yul\":31819:31825   */\n      dup3\n        /* \"#utility.yul\":31815:31830   */\n      add\n        /* \"#utility.yul\":31808:31841   */\n      mstore\n        /* \"#utility.yul\":31623:31848   */\n      pop\n      jump\t// out\n        /* \"#utility.yul\":31854:32079   */\n    tag_563:\n        /* \"#utility.yul\":31994:32028   */\n      0x416464726573733a20696e73756666696369656e742062616c616e636520666f\n        /* \"#utility.yul\":31990:31991   */\n      0x00\n        /* \"#utility.yul\":31982:31988   */\n      dup3\n        /* \"#utility.yul\":31978:31992   */\n      add\n        /* \"#utility.yul\":31971:32029   */\n      mstore\n        /* \"#utility.yul\":32063:32071   */\n      0x722063616c6c0000000000000000000000000000000000000000000000000000\n        /* \"#utility.yul\":32058:32060   */\n      0x20\n        /* \"#utility.yul\":32050:32056   */\n      dup3\n        /* \"#utility.yul\":32046:32061   */\n      add\n        /* \"#utility.yul\":32039:32072   */\n      mstore\n        /* \"#utility.yul\":31854:32079   */\n      pop\n      jump\t// out\n        /* \"#utility.yul\":32085:32239   */\n    tag_568:\n        /* \"#utility.yul\":32225:32231   */\n      0x2163617000000000000000000000000000000000000000000000000000000000\n        /* \"#utility.yul\":32221:32222   */\n      0x00\n        /* \"#utility.yul\":32213:32219   */\n      dup3\n        /* \"#utility.yul\":32209:32223   */\n      add\n        /* \"#utility.yul\":32202:32232   */\n      mstore\n        /* \"#utility.yul\":32085:32239   */\n      pop\n      jump\t// out\n        /* \"#utility.yul\":32245:32403   */\n    tag_573:\n        /* \"#utility.yul\":32385:32395   */\n      0x21774e6174697665000000000000000000000000000000000000000000000000\n        /* \"#utility.yul\":32381:32382   */\n      0x00\n        /* \"#utility.yul\":32373:32379   */\n      dup3\n        /* \"#utility.yul\":32369:32383   */\n      add\n        /* \"#utility.yul\":32362:32396   */\n      mstore\n        /* \"#utility.yul\":32245:32403   */\n      pop\n      jump\t// out\n        /* \"#utility.yul\":32409:32642   */\n    tag_578:\n        /* \"#utility.yul\":32549:32583   */\n      0x496e697469616c697a61626c653a20636f6e747261637420697320616c726561\n        /* \"#utility.yul\":32545:32546   */\n      0x00\n        /* \"#utility.yul\":32537:32543   */\n      dup3\n        /* \"#utility.yul\":32533:32547   */\n      add\n        /* \"#utility.yul\":32526:32584   */\n      mstore\n        /* \"#utility.yul\":32618:32634   */\n      0x647920696e697469616c697a6564000000000000000000000000000000000000\n        /* \"#utility.yul\":32613:32615   */\n      0x20\n        /* \"#utility.yul\":32605:32611   */\n      dup3\n        /* \"#utility.yul\":32601:32616   */\n      add\n        /* \"#utility.yul\":32594:32635   */\n      mstore\n        /* \"#utility.yul\":32409:32642   */\n      pop\n      jump\t// out\n        /* \"#utility.yul\":32648:32830   */\n    tag_583:\n        /* \"#utility.yul\":32788:32822   */\n      0x4f776e61626c653a2063616c6c6572206973206e6f7420746865206f776e6572\n        /* \"#utility.yul\":32784:32785   */\n      0x00\n        /* \"#utility.yul\":32776:32782   */\n      dup3\n        /* \"#utility.yul\":32772:32786   */\n      add\n        /* \"#utility.yul\":32765:32823   */\n      mstore\n        /* \"#utility.yul\":32648:32830   */\n      pop\n      jump\t// out\n        /* \"#utility.yul\":32836:32991   */\n    tag_588:\n        /* \"#utility.yul\":32976:32983   */\n      0x2164796f73000000000000000000000000000000000000000000000000000000\n        /* \"#utility.yul\":32972:32973   */\n      0x00\n        /* \"#utility.yul\":32964:32970   */\n      dup3\n        /* \"#utility.yul\":32960:32974   */\n      add\n        /* \"#utility.yul\":32953:32984   */\n      mstore\n        /* \"#utility.yul\":32836:32991   */\n      pop\n      jump\t// out\n        /* \"#utility.yul\":32997:33176   */\n    tag_593:\n        /* \"#utility.yul\":33137:33168   */\n      0x416464726573733a2063616c6c20746f206e6f6e2d636f6e7472616374000000\n        /* \"#utility.yul\":33133:33134   */\n      0x00\n        /* \"#utility.yul\":33125:33131   */\n      dup3\n        /* \"#utility.yul\":33121:33135   */\n      add\n        /* \"#utility.yul\":33114:33169   */\n      mstore\n        /* \"#utility.yul\":32997:33176   */\n      pop\n      jump\t// out\n        /* \"#utility.yul\":33182:33412   */\n    tag_598:\n        /* \"#utility.yul\":33322:33356   */\n      0x496e697469616c697a61626c653a20636f6e7472616374206973206e6f742069\n        /* \"#utility.yul\":33318:33319   */\n      0x00\n        /* \"#utility.yul\":33310:33316   */\n      dup3\n        /* \"#utility.yul\":33306:33320   */\n      add\n        /* \"#utility.yul\":33299:33357   */\n      mstore\n        /* \"#utility.yul\":33391:33404   */\n      0x6e697469616c697a696e67000000000000000000000000000000000000000000\n        /* \"#utility.yul\":33386:33388   */\n      0x20\n        /* \"#utility.yul\":33378:33384   */\n      dup3\n        /* \"#utility.yul\":33374:33389   */\n      add\n        /* \"#utility.yul\":33367:33405   */\n      mstore\n        /* \"#utility.yul\":33182:33412   */\n      pop\n      jump\t// out\n        /* \"#utility.yul\":33418:33647   */\n    tag_603:\n        /* \"#utility.yul\":33558:33592   */\n      0x5361666545524332303a204552433230206f7065726174696f6e20646964206e\n        /* \"#utility.yul\":33554:33555   */\n      0x00\n        /* \"#utility.yul\":33546:33552   */\n      dup3\n        /* \"#utility.yul\":33542:33556   */\n      add\n        /* \"#utility.yul\":33535:33593   */\n      mstore\n        /* \"#utility.yul\":33627:33639   */\n      0x6f74207375636365656400000000000000000000000000000000000000000000\n        /* \"#utility.yul\":33622:33624   */\n      0x20\n        /* \"#utility.yul\":33614:33620   */\n      dup3\n        /* \"#utility.yul\":33610:33625   */\n      add\n        /* \"#utility.yul\":33603:33640   */\n      mstore\n        /* \"#utility.yul\":33418:33647   */\n      pop\n      jump\t// out\n        /* \"#utility.yul\":33653:33894   */\n    tag_608:\n        /* \"#utility.yul\":33793:33827   */\n      0x5361666545524332303a20617070726f76652066726f6d206e6f6e2d7a65726f\n        /* \"#utility.yul\":33789:33790   */\n      0x00\n        /* \"#utility.yul\":33781:33787   */\n      dup3\n        /* \"#utility.yul\":33777:33791   */\n      add\n        /* \"#utility.yul\":33770:33828   */\n      mstore\n        /* \"#utility.yul\":33862:33886   */\n      0x20746f206e6f6e2d7a65726f20616c6c6f77616e636500000000000000000000\n        /* \"#utility.yul\":33857:33859   */\n      0x20\n        /* \"#utility.yul\":33849:33855   */\n      dup3\n        /* \"#utility.yul\":33845:33860   */\n      add\n        /* \"#utility.yul\":33838:33887   */\n      mstore\n        /* \"#utility.yul\":33653:33894   */\n      pop\n      jump\t// out\n        /* \"#utility.yul\":33900:34022   */\n    tag_407:\n        /* \"#utility.yul\":33973:33997   */\n      tag_771\n        /* \"#utility.yul\":33991:33996   */\n      dup2\n        /* \"#utility.yul\":33973:33997   */\n      tag_478\n      jump\t// in\n    tag_771:\n        /* \"#utility.yul\":33966:33971   */\n      dup2\n        /* \"#utility.yul\":33963:33998   */\n      eq\n        /* \"#utility.yul\":33953:34016   */\n      tag_772\n      jumpi\n        /* \"#utility.yul\":34012:34013   */\n      0x00\n        /* \"#utility.yul\":34009:34010   */\n      dup1\n        /* \"#utility.yul\":34002:34014   */\n      revert\n        /* \"#utility.yul\":33953:34016   */\n    tag_772:\n        /* \"#utility.yul\":33900:34022   */\n      pop\n      jump\t// out\n        /* \"#utility.yul\":34028:34144   */\n    tag_422:\n        /* \"#utility.yul\":34098:34119   */\n      tag_774\n        /* \"#utility.yul\":34113:34118   */\n      dup2\n        /* \"#utility.yul\":34098:34119   */\n      tag_514\n      jump\t// in\n    tag_774:\n        /* \"#utility.yul\":34091:34096   */\n      dup2\n        /* \"#utility.yul\":34088:34120   */\n      eq\n        /* \"#utility.yul\":34078:34138   */\n      tag_775\n      jumpi\n        /* \"#utility.yul\":34134:34135   */\n      0x00\n        /* \"#utility.yul\":34131:34132   */\n      dup1\n        /* \"#utility.yul\":34124:34136   */\n      revert\n        /* \"#utility.yul\":34078:34138   */\n    tag_775:\n        /* \"#utility.yul\":34028:34144   */\n      pop\n      jump\t// out\n        /* \"#utility.yul\":34150:34272   */\n    tag_426:\n        /* \"#utility.yul\":34223:34247   */\n      tag_777\n        /* \"#utility.yul\":34241:34246   */\n      dup2\n        /* \"#utility.yul\":34223:34247   */\n      tag_612\n      jump\t// in\n    tag_777:\n        /* \"#utility.yul\":34216:34221   */\n      dup2\n        /* \"#utility.yul\":34213:34248   */\n      eq\n        /* \"#utility.yul\":34203:34266   */\n      tag_778\n      jumpi\n        /* \"#utility.yul\":34262:34263   */\n      0x00\n        /* \"#utility.yul\":34259:34260   */\n      dup1\n        /* \"#utility.yul\":34252:34264   */\n      revert\n        /* \"#utility.yul\":34203:34266   */\n    tag_778:\n        /* \"#utility.yul\":34150:34272   */\n      pop\n      jump\t// out\n\n    auxdata: 0xa26469706673582212207aaac0fadb60be133d48897ce4acdba33a5191befb6437ecf1e6957d8e33665364736f6c63430008070033\n}\n",
				"bytecode": {
					"linkReferences": {},
					"object": "608060405234801561001057600080fd5b50613161806100206000396000f3fe60806040526004361061016a5760003560e01c8063715018a6116100d1578063bde46e7c1161008a578063d0debecc11610064578063d0debecc146104d7578063d92f3d7314610502578063f0f442601461052b578063f2fde38b1461055457610171565b8063bde46e7c14610444578063c6854db814610481578063cc32d176146104ac57610171565b8063715018a61461035c57806377e741c71461037357806378238c371461039c5780638da5cb5b146103c5578063b931666b146103f0578063bc063e1a1461041957610171565b80632d68efc9116101235780632d68efc9146102725780634641257d1461029d5780634708dd5e146102b457806361d027b3146102dd57806366666aa9146103085780636a369c861461033357610171565b806305268cff146101765780631166b44b146101a15780631459457a146101ca5780631939bbc1146101f3578063257ae0de1461021c5780632bd638311461024757610171565b3661017157005b600080fd5b34801561018257600080fd5b5061018b61057d565b604051610198919061275e565b60405180910390f35b3480156101ad57600080fd5b506101c860048036038101906101c39190612112565b6105a3565b005b3480156101d657600080fd5b506101f160048036038101906101ec919061217f565b6105b7565b005b3480156101ff57600080fd5b5061021a6004803603810190610215919061213f565b610928565b005b34801561022857600080fd5b50610231610a7e565b60405161023e919061269f565b60405180910390f35b34801561025357600080fd5b5061025c610aa4565b6040516102699190612743565b60405180910390f35b34801561027e57600080fd5b50610287610ab7565b604051610294919061275e565b60405180910390f35b3480156102a957600080fd5b506102b2610add565b005b3480156102c057600080fd5b506102db60048036038101906102d69190612112565b610f79565b005b3480156102e957600080fd5b506102f2611011565b6040516102ff919061269f565b60405180910390f35b34801561031457600080fd5b5061031d611037565b60405161032a919061269f565b60405180910390f35b34801561033f57600080fd5b5061035a600480360381019061035591906121fa565b61105d565b005b34801561036857600080fd5b5061037161121b565b005b34801561037f57600080fd5b5061039a600480360381019061039591906122b9565b61122f565b005b3480156103a857600080fd5b506103c360048036038101906103be9190612112565b61129c565b005b3480156103d157600080fd5b506103da61135e565b6040516103e7919061269f565b60405180910390f35b3480156103fc57600080fd5b50610417600480360381019061041291906122b9565b611388565b005b34801561042557600080fd5b5061042e61139a565b60405161043b9190612956565b60405180910390f35b34801561045057600080fd5b5061046b600480360381019061046691906122b9565b6113a0565b604051610478919061269f565b60405180910390f35b34801561048d57600080fd5b506104966113df565b6040516104a39190612956565b60405180910390f35b3480156104b857600080fd5b506104c16113e5565b6040516104ce9190612956565b60405180910390f35b3480156104e357600080fd5b506104ec6113eb565b6040516104f99190612743565b60405180910390f35b34801561050e57600080fd5b5061052960048036038101906105249190612112565b6113fe565b005b34801561053757600080fd5b50610552600480360381019061054d9190612112565b6115d1565b005b34801561056057600080fd5b5061057b60048036038101906105769190612112565b611678565b005b606660009054906101000a900473ffffffffffffffffffffffffffffffffffffffff1681565b6105ab6116fc565b6105b48161177a565b50565b60008060019054906101000a900460ff161590508080156105e85750600160008054906101000a900460ff1660ff16105b8061061557506105f730611868565b1580156106145750600160008054906101000a900460ff1660ff16145b5b610654576040517f08c379a000000000000000000000000000000000000000000000000000000000815260040161064b90612876565b60405180910390fd5b60016000806101000a81548160ff021916908360ff1602179055508015610691576001600060016101000a81548160ff0219169083151502179055505b61069961188b565b85606660006101000a81548173ffffffffffffffffffffffffffffffffffffffff021916908373ffffffffffffffffffffffffffffffffffffffff16021790555084606560006101000a81548173ffffffffffffffffffffffffffffffffffffffff021916908373ffffffffffffffffffffffffffffffffffffffff16021790555083606760006101000a81548173ffffffffffffffffffffffffffffffffffffffff021916908373ffffffffffffffffffffffffffffffffffffffff160217905550608c606a81905550606a546103e86107749190612b6b565b606b81905550600073ffffffffffffffffffffffffffffffffffffffff168273ffffffffffffffffffffffffffffffffffffffff16146107b8576107b78261177a565b5b600073ffffffffffffffffffffffffffffffffffffffff168373ffffffffffffffffffffffffffffffffffffffff16146108495782606860006101000a81548173ffffffffffffffffffffffffffffffffffffffff021916908373ffffffffffffffffffffffffffffffffffffffff1602179055506001606d60016101000a81548160ff0219169083151502179055505b60405180604001604052808673ffffffffffffffffffffffffffffffffffffffff1673ffffffffffffffffffffffffffffffffffffffff1681526020018773ffffffffffffffffffffffffffffffffffffffff1673ffffffffffffffffffffffffffffffffffffffff16815250606c9060026108c6929190611e51565b5080156109205760008060016101000a81548160ff0219169083151502179055507f7f26b83ff96e1f2b6a682f133852f6798a09c465da95921460cefb384740249860016040516109179190612779565b60405180910390a15b505050505050565b6109306116fc565b606560009054906101000a900473ffffffffffffffffffffffffffffffffffffffff1673ffffffffffffffffffffffffffffffffffffffff168273ffffffffffffffffffffffffffffffffffffffff1614156109c1576040517f08c379a00000000000000000000000000000000000000000000000000000000081526004016109b8906127d6565b60405180910390fd5b60008273ffffffffffffffffffffffffffffffffffffffff166370a08231306040518263ffffffff1660e01b81526004016109fc919061269f565b60206040518083038186803b158015610a1457600080fd5b505afa158015610a28573d6000803e3d6000fd5b505050506040513d601f19601f82011682018060405250810190610a4c91906122e6565b9050610a7982828573ffffffffffffffffffffffffffffffffffffffff166118e49092919063ffffffff16565b505050565b606960009054906101000a900473ffffffffffffffffffffffffffffffffffffffff1681565b606d60009054906101000a900460ff1681565b606560009054906101000a900473ffffffffffffffffffffffffffffffffffffffff1681565b6000606560009054906101000a900473ffffffffffffffffffffffffffffffffffffffff1673ffffffffffffffffffffffffffffffffffffffff166370a08231306040518263ffffffff1660e01b8152600401610b3a919061269f565b60206040518083038186803b158015610b5257600080fd5b505afa158015610b66573d6000803e3d6000fd5b505050506040513d601f19601f82011682018060405250810190610b8a91906122e6565b9050606d60009054906101000a900460ff1615610d2057600060026103e8606a5484610bb69190612b11565b610bc09190612ae0565b610bca9190612ae0565b9050610c3b606760009054906101000a900473ffffffffffffffffffffffffffffffffffffffff1682606560009054906101000a900473ffffffffffffffffffffffffffffffffffffffff1673ffffffffffffffffffffffffffffffffffffffff166118e49092919063ffffffff16565b606960009054906101000a900473ffffffffffffffffffffffffffffffffffffffff1673ffffffffffffffffffffffffffffffffffffffff166338ed1739826000606c606760009054906101000a900473ffffffffffffffffffffffffffffffffffffffff16426040518663ffffffff1660e01b8152600401610cc2959493929190612971565b600060405180830381600087803b158015610cdc57600080fd5b505af1158015610cf0573d6000803e3d6000fd5b505050506040513d6000823e3d601f19601f82011682018060405250810190610d199190612243565b5050610db0565b60006103e8606a5483610d339190612b11565b610d3d9190612ae0565b9050610dae606760009054906101000a900473ffffffffffffffffffffffffffffffffffffffff1682606560009054906101000a900473ffffffffffffffffffffffffffffffffffffffff1673ffffffffffffffffffffffffffffffffffffffff166118e49092919063ffffffff16565b505b606d60019054906101000a900460ff1615610ee65760006103e8606b5483610dd89190612b11565b610de29190612ae0565b9050610e53606860009054906101000a900473ffffffffffffffffffffffffffffffffffffffff1682606560009054906101000a900473ffffffffffffffffffffffffffffffffffffffff1673ffffffffffffffffffffffffffffffffffffffff166118e49092919063ffffffff16565b606860009054906101000a900473ffffffffffffffffffffffffffffffffffffffff1673ffffffffffffffffffffffffffffffffffffffff16633c6b16ab826040518263ffffffff1660e01b8152600401610eae9190612956565b600060405180830381600087803b158015610ec857600080fd5b505af1158015610edc573d6000803e3d6000fd5b5050505050610f76565b60006103e8606b5483610ef99190612b11565b610f039190612ae0565b9050610f74606760009054906101000a900473ffffffffffffffffffffffffffffffffffffffff1682606560009054906101000a900473ffffffffffffffffffffffffffffffffffffffff1673ffffffffffffffffffffffffffffffffffffffff166118e49092919063ffffffff16565b505b50565b610f816116fc565b606860009054906101000a900473ffffffffffffffffffffffffffffffffffffffff1673ffffffffffffffffffffffffffffffffffffffff1663f2fde38b826040518263ffffffff1660e01b8152600401610fdc919061269f565b600060405180830381600087803b158015610ff657600080fd5b505af115801561100a573d6000803e3d6000fd5b5050505050565b606760009054906101000a900473ffffffffffffffffffffffffffffffffffffffff1681565b606860009054906101000a900473ffffffffffffffffffffffffffffffffffffffff1681565b6110656116fc565b606560009054906101000a900473ffffffffffffffffffffffffffffffffffffffff1673ffffffffffffffffffffffffffffffffffffffff16816000815181106110b2576110b1612d4a565b5b602002602001015173ffffffffffffffffffffffffffffffffffffffff1614611110576040517f08c379a000000000000000000000000000000000000000000000000000000000815260040161110790612856565b60405180910390fd5b606660009054906101000a900473ffffffffffffffffffffffffffffffffffffffff1673ffffffffffffffffffffffffffffffffffffffff1681600183516111589190612b6b565b8151811061116957611168612d4a565b5b602002602001015173ffffffffffffffffffffffffffffffffffffffff16146111c7576040517f08c379a00000000000000000000000000000000000000000000000000000000081526004016111be906128b6565b60405180910390fd5b7fecb3dbd70dad0f6448f42cc97a0fbd7f9bb8ed525cb52d2f8d2798c8bf888ef5606c826040516111f992919061270c565b60405180910390a180606c9080519060200190611217929190611edb565b5050565b6112236116fc565b61122d600061196a565b565b6112376116fc565b6103e881111561127c576040517f08c379a000000000000000000000000000000000000000000000000000000000815260040161127390612836565b60405180910390fd5b80606a81905550606a546103e86112939190612b6b565b606b8190555050565b6112a46116fc565b7fe3d88fc63ce6f40e089447cea2116e10d00cd00302225a3d4d57db7d456933b3606860009054906101000a900473ffffffffffffffffffffffffffffffffffffffff16826040516112f79291906126ba565b60405180910390a180606860006101000a81548173ffffffffffffffffffffffffffffffffffffffff021916908373ffffffffffffffffffffffffffffffffffffffff1602179055506001606d60016101000a81548160ff02191690831515021790555050565b6000603360009054906101000a900473ffffffffffffffffffffffffffffffffffffffff16905090565b6113906116fc565b80606a8190555050565b6103e881565b606c81815481106113b057600080fd5b906000526020600020016000915054906101000a900473ffffffffffffffffffffffffffffffffffffffff1681565b606b5481565b606a5481565b606d60019054906101000a900460ff1681565b6114066116fc565b606d60009054906101000a900460ff16611455576040517f08c379a000000000000000000000000000000000000000000000000000000000815260040161144c906127b6565b60405180910390fd5b7f826424c54f0e53618740c75270163dc0ce89545f38164b0e4b3a265cf7314453606960009054906101000a900473ffffffffffffffffffffffffffffffffffffffff16826040516114a89291906126ba565b60405180910390a161151d817fffffffffffffffffffffffffffffffffffffffffffffffffffffffffffffffff606560009054906101000a900473ffffffffffffffffffffffffffffffffffffffff1673ffffffffffffffffffffffffffffffffffffffff16611a309092919063ffffffff16565b61158d606960009054906101000a900473ffffffffffffffffffffffffffffffffffffffff166000606560009054906101000a900473ffffffffffffffffffffffffffffffffffffffff1673ffffffffffffffffffffffffffffffffffffffff16611a309092919063ffffffff16565b80606960006101000a81548173ffffffffffffffffffffffffffffffffffffffff021916908373ffffffffffffffffffffffffffffffffffffffff16021790555050565b6115d96116fc565b7f567657fa3f286518b318f4a29870674f433f622fdfc819691acb13105b228225606760009054906101000a900473ffffffffffffffffffffffffffffffffffffffff168260405161162c9291906126ba565b60405180910390a180606760006101000a81548173ffffffffffffffffffffffffffffffffffffffff021916908373ffffffffffffffffffffffffffffffffffffffff16021790555050565b6116806116fc565b600073ffffffffffffffffffffffffffffffffffffffff168173ffffffffffffffffffffffffffffffffffffffff1614156116f0576040517f08c379a00000000000000000000000000000000000000000000000000000000081526004016116e7906127f6565b60405180910390fd5b6116f98161196a565b50565b611704611b8e565b73ffffffffffffffffffffffffffffffffffffffff1661172261135e565b73ffffffffffffffffffffffffffffffffffffffff1614611778576040517f08c379a000000000000000000000000000000000000000000000000000000000815260040161176f90612896565b60405180910390fd5b565b80606960006101000a81548173ffffffffffffffffffffffffffffffffffffffff021916908373ffffffffffffffffffffffffffffffffffffffff16021790555061184a606960009054906101000a900473ffffffffffffffffffffffffffffffffffffffff167fffffffffffffffffffffffffffffffffffffffffffffffffffffffffffffffff606560009054906101000a900473ffffffffffffffffffffffffffffffffffffffff1673ffffffffffffffffffffffffffffffffffffffff16611a309092919063ffffffff16565b6001606d60006101000a81548160ff02191690831515021790555050565b6000808273ffffffffffffffffffffffffffffffffffffffff163b119050919050565b600060019054906101000a900460ff166118da576040517f08c379a00000000000000000000000000000000000000000000000000000000081526004016118d1906128f6565b60405180910390fd5b6118e2611b96565b565b6119658363a9059cbb60e01b84846040516024016119039291906126e3565b604051602081830303815290604052907bffffffffffffffffffffffffffffffffffffffffffffffffffffffff19166020820180517bffffffffffffffffffffffffffffffffffffffffffffffffffffffff8381831617835250505050611bf7565b505050565b6000603360009054906101000a900473ffffffffffffffffffffffffffffffffffffffff16905081603360006101000a81548173ffffffffffffffffffffffffffffffffffffffff021916908373ffffffffffffffffffffffffffffffffffffffff1602179055508173ffffffffffffffffffffffffffffffffffffffff168173ffffffffffffffffffffffffffffffffffffffff167f8be0079c531659141344cd1fd0a4f28419497f9722a3daafe3b4186f6b6457e060405160405180910390a35050565b6000811480611ac9575060008373ffffffffffffffffffffffffffffffffffffffff1663dd62ed3e30856040518363ffffffff1660e01b8152600401611a779291906126ba565b60206040518083038186803b158015611a8f57600080fd5b505afa158015611aa3573d6000803e3d6000fd5b505050506040513d601f19601f82011682018060405250810190611ac791906122e6565b145b611b08576040517f08c379a0000000000000000000000000000000000000000000000000000000008152600401611aff90612936565b60405180910390fd5b611b898363095ea7b360e01b8484604051602401611b279291906126e3565b604051602081830303815290604052907bffffffffffffffffffffffffffffffffffffffffffffffffffffffff19166020820180517bffffffffffffffffffffffffffffffffffffffffffffffffffffffff8381831617835250505050611bf7565b505050565b600033905090565b600060019054906101000a900460ff16611be5576040517f08c379a0000000000000000000000000000000000000000000000000000000008152600401611bdc906128f6565b60405180910390fd5b611bf5611bf0611b8e565b61196a565b565b6000611c59826040518060400160405280602081526020017f5361666545524332303a206c6f772d6c6576656c2063616c6c206661696c65648152508573ffffffffffffffffffffffffffffffffffffffff16611cbe9092919063ffffffff16565b9050600081511115611cb95780806020019051810190611c79919061228c565b611cb8576040517f08c379a0000000000000000000000000000000000000000000000000000000008152600401611caf90612916565b60405180910390fd5b5b505050565b6060611ccd8484600085611cd6565b90509392505050565b606082471015611d1b576040517f08c379a0000000000000000000000000000000000000000000000000000000008152600401611d1290612816565b60405180910390fd5b611d2485611868565b611d63576040517f08c379a0000000000000000000000000000000000000000000000000000000008152600401611d5a906128d6565b60405180910390fd5b6000808673ffffffffffffffffffffffffffffffffffffffff168587604051611d8c9190612688565b60006040518083038185875af1925050503d8060008114611dc9576040519150601f19603f3d011682016040523d82523d6000602084013e611dce565b606091505b5091509150611dde828286611dea565b92505050949350505050565b60608315611dfa57829050611e4a565b600083511115611e0d5782518084602001fd5b816040517f08c379a0000000000000000000000000000000000000000000000000000000008152600401611e419190612794565b60405180910390fd5b9392505050565b828054828255906000526020600020908101928215611eca579160200282015b82811115611ec95782518260006101000a81548173ffffffffffffffffffffffffffffffffffffffff021916908373ffffffffffffffffffffffffffffffffffffffff16021790555091602001919060010190611e71565b5b509050611ed79190611f65565b5090565b828054828255906000526020600020908101928215611f54579160200282015b82811115611f535782518260006101000a81548173ffffffffffffffffffffffffffffffffffffffff021916908373ffffffffffffffffffffffffffffffffffffffff16021790555091602001919060010190611efb565b5b509050611f619190611f65565b5090565b5b80821115611f7e576000816000905550600101611f66565b5090565b6000611f95611f90846129f0565b6129cb565b90508083825260208201905082856020860282011115611fb857611fb7612dc0565b5b60005b85811015611fe85781611fce8882612062565b845260208401935060208301925050600181019050611fbb565b5050509392505050565b600061200561200084612a1c565b6129cb565b9050808382526020820190508285602086028201111561202857612027612dc0565b5b60005b85811015612058578161203e88826120fd565b84526020840193506020830192505060018101905061202b565b5050509392505050565b600081359050612071816130e6565b92915050565b600082601f83011261208c5761208b612dbb565b5b813561209c848260208601611f82565b91505092915050565b600082601f8301126120ba576120b9612dbb565b5b81516120ca848260208601611ff2565b91505092915050565b6000815190506120e2816130fd565b92915050565b6000813590506120f781613114565b92915050565b60008151905061210c81613114565b92915050565b60006020828403121561212857612127612dca565b5b600061213684828501612062565b91505092915050565b6000806040838503121561215657612155612dca565b5b600061216485828601612062565b925050602061217585828601612062565b9150509250929050565b600080600080600060a0868803121561219b5761219a612dca565b5b60006121a988828901612062565b95505060206121ba88828901612062565b94505060406121cb88828901612062565b93505060606121dc88828901612062565b92505060806121ed88828901612062565b9150509295509295909350565b6000602082840312156122105761220f612dca565b5b600082013567ffffffffffffffff81111561222e5761222d612dc5565b5b61223a84828501612077565b91505092915050565b60006020828403121561225957612258612dca565b5b600082015167ffffffffffffffff81111561227757612276612dc5565b5b612283848285016120a5565b91505092915050565b6000602082840312156122a2576122a1612dca565b5b60006122b0848285016120d3565b91505092915050565b6000602082840312156122cf576122ce612dca565b5b60006122dd848285016120e8565b91505092915050565b6000602082840312156122fc576122fb612dca565b5b600061230a848285016120fd565b91505092915050565b600061231f838361232b565b60208301905092915050565b61233481612bbf565b82525050565b61234381612bbf565b82525050565b600061235482612a6d565b61235e8185612ab3565b935061236983612a48565b8060005b8381101561239a5781516123818882612313565b975061238c83612a99565b92505060018101905061236d565b5085935050505092915050565b60006123b282612a78565b6123bc8185612ab3565b93506123c783612a58565b8060005b838110156123ff576123dc82612da8565b6123e68882612313565b97506123f183612aa6565b9250506001810190506123cb565b5085935050505092915050565b61241581612bd1565b82525050565b600061242682612a83565b6124308185612ac4565b9350612440818560208601612c6e565b80840191505092915050565b61245581612c14565b82525050565b61246481612c26565b82525050565b61247381612c38565b82525050565b600061248482612a8e565b61248e8185612acf565b935061249e818560208601612c6e565b6124a781612dcf565b840191505092915050565b60006124bf600c83612acf565b91506124ca82612ded565b602082019050919050565b60006124e2600583612acf565b91506124ed82612e16565b602082019050919050565b6000612505602683612acf565b915061251082612e3f565b604082019050919050565b6000612528602683612acf565b915061253382612e8e565b604082019050919050565b600061254b600483612acf565b915061255682612edd565b602082019050919050565b600061256e600883612acf565b915061257982612f06565b602082019050919050565b6000612591602e83612acf565b915061259c82612f2f565b604082019050919050565b60006125b4602083612acf565b91506125bf82612f7e565b602082019050919050565b60006125d7600583612acf565b91506125e282612fa7565b602082019050919050565b60006125fa601d83612acf565b915061260582612fd0565b602082019050919050565b600061261d602b83612acf565b915061262882612ff9565b604082019050919050565b6000612640602a83612acf565b915061264b82613048565b604082019050919050565b6000612663603683612acf565b915061266e82613097565b604082019050919050565b61268281612bfd565b82525050565b6000612694828461241b565b915081905092915050565b60006020820190506126b4600083018461233a565b92915050565b60006040820190506126cf600083018561233a565b6126dc602083018461233a565b9392505050565b60006040820190506126f8600083018561233a565b6127056020830184612679565b9392505050565b6000604082019050818103600083015261272681856123a7565b9050818103602083015261273a8184612349565b90509392505050565b6000602082019050612758600083018461240c565b92915050565b6000602082019050612773600083018461244c565b92915050565b600060208201905061278e600083018461246a565b92915050565b600060208201905081810360008301526127ae8184612479565b905092915050565b600060208201905081810360008301526127cf816124b2565b9050919050565b600060208201905081810360008301526127ef816124d5565b9050919050565b6000602082019050818103600083015261280f816124f8565b9050919050565b6000602082019050818103600083015261282f8161251b565b9050919050565b6000602082019050818103600083015261284f8161253e565b9050919050565b6000602082019050818103600083015261286f81612561565b9050919050565b6000602082019050818103600083015261288f81612584565b9050919050565b600060208201905081810360008301526128af816125a7565b9050919050565b600060208201905081810360008301526128cf816125ca565b9050919050565b600060208201905081810360008301526128ef816125ed565b9050919050565b6000602082019050818103600083015261290f81612610565b9050919050565b6000602082019050818103600083015261292f81612633565b9050919050565b6000602082019050818103600083015261294f81612656565b9050919050565b600060208201905061296b6000830184612679565b92915050565b600060a0820190506129866000830188612679565b612993602083018761245b565b81810360408301526129a581866123a7565b90506129b4606083018561233a565b6129c16080830184612679565b9695505050505050565b60006129d56129e6565b90506129e18282612cbb565b919050565b6000604051905090565b600067ffffffffffffffff821115612a0b57612a0a612d79565b5b602082029050602081019050919050565b600067ffffffffffffffff821115612a3757612a36612d79565b5b602082029050602081019050919050565b6000819050602082019050919050565b60008190508160005260206000209050919050565b600081519050919050565b600081549050919050565b600081519050919050565b600081519050919050565b6000602082019050919050565b6000600182019050919050565b600082825260208201905092915050565b600081905092915050565b600082825260208201905092915050565b6000612aeb82612bfd565b9150612af683612bfd565b925082612b0657612b05612d1b565b5b828204905092915050565b6000612b1c82612bfd565b9150612b2783612bfd565b9250817fffffffffffffffffffffffffffffffffffffffffffffffffffffffffffffffff0483118215151615612b6057612b5f612cec565b5b828202905092915050565b6000612b7682612bfd565b9150612b8183612bfd565b925082821015612b9457612b93612cec565b5b828203905092915050565b600073ffffffffffffffffffffffffffffffffffffffff82169050919050565b6000612bca82612bdd565b9050919050565b60008115159050919050565b600073ffffffffffffffffffffffffffffffffffffffff82169050919050565b6000819050919050565b600060ff82169050919050565b6000612c1f82612c4a565b9050919050565b6000612c3182612bfd565b9050919050565b6000612c4382612c07565b9050919050565b6000612c5582612c5c565b9050919050565b6000612c6782612bdd565b9050919050565b60005b83811015612c8c578082015181840152602081019050612c71565b83811115612c9b576000848401525b50505050565b6000612cb4612caf83612de0565b612b9f565b9050919050565b612cc482612dcf565b810181811067ffffffffffffffff82111715612ce357612ce2612d79565b5b80604052505050565b7f4e487b7100000000000000000000000000000000000000000000000000000000600052601160045260246000fd5b7f4e487b7100000000000000000000000000000000000000000000000000000000600052601260045260246000fd5b7f4e487b7100000000000000000000000000000000000000000000000000000000600052603260045260246000fd5b7f4e487b7100000000000000000000000000000000000000000000000000000000600052604160045260246000fd5b6000612db48254612ca1565b9050919050565b600080fd5b600080fd5b600080fd5b600080fd5b6000601f19601f8301169050919050565b60008160001c9050919050565b7f21696e697469616c697a65640000000000000000000000000000000000000000600082015250565b7f2173616665000000000000000000000000000000000000000000000000000000600082015250565b7f4f776e61626c653a206e6577206f776e657220697320746865207a65726f206160008201527f6464726573730000000000000000000000000000000000000000000000000000602082015250565b7f416464726573733a20696e73756666696369656e742062616c616e636520666f60008201527f722063616c6c0000000000000000000000000000000000000000000000000000602082015250565b7f2163617000000000000000000000000000000000000000000000000000000000600082015250565b7f21774e6174697665000000000000000000000000000000000000000000000000600082015250565b7f496e697469616c697a61626c653a20636f6e747261637420697320616c72656160008201527f647920696e697469616c697a6564000000000000000000000000000000000000602082015250565b7f4f776e61626c653a2063616c6c6572206973206e6f7420746865206f776e6572600082015250565b7f2164796f73000000000000000000000000000000000000000000000000000000600082015250565b7f416464726573733a2063616c6c20746f206e6f6e2d636f6e7472616374000000600082015250565b7f496e697469616c697a61626c653a20636f6e7472616374206973206e6f74206960008201527f6e697469616c697a696e67000000000000000000000000000000000000000000602082015250565b7f5361666545524332303a204552433230206f7065726174696f6e20646964206e60008201527f6f74207375636365656400000000000000000000000000000000000000000000602082015250565b7f5361666545524332303a20617070726f76652066726f6d206e6f6e2d7a65726f60008201527f20746f206e6f6e2d7a65726f20616c6c6f77616e636500000000000000000000602082015250565b6130ef81612bbf565b81146130fa57600080fd5b50565b61310681612bd1565b811461311157600080fd5b50565b61311d81612bfd565b811461312857600080fd5b5056fea26469706673582212207aaac0fadb60be133d48897ce4acdba33a5191befb6437ecf1e6957d8e33665364736f6c63430008070033",
					"opcodes": "PUSH1 0x80 PUSH1 0x40 MSTORE CALLVALUE DUP1 ISZERO PUSH2 0x10 JUMPI PUSH1 0x0 DUP1 REVERT JUMPDEST POP PUSH2 0x3161 DUP1 PUSH2 0x20 PUSH1 0x0 CODECOPY PUSH1 0x0 RETURN INVALID PUSH1 0x80 PUSH1 0x40 MSTORE PUSH1 0x4 CALLDATASIZE LT PUSH2 0x16A JUMPI PUSH1 0x0 CALLDATALOAD PUSH1 0xE0 SHR DUP1 PUSH4 0x715018A6 GT PUSH2 0xD1 JUMPI DUP1 PUSH4 0xBDE46E7C GT PUSH2 0x8A JUMPI DUP1 PUSH4 0xD0DEBECC GT PUSH2 0x64 JUMPI DUP1 PUSH4 0xD0DEBECC EQ PUSH2 0x4D7 JUMPI DUP1 PUSH4 0xD92F3D73 EQ PUSH2 0x502 JUMPI DUP1 PUSH4 0xF0F44260 EQ PUSH2 0x52B JUMPI DUP1 PUSH4 0xF2FDE38B EQ PUSH2 0x554 JUMPI PUSH2 0x171 JUMP JUMPDEST DUP1 PUSH4 0xBDE46E7C EQ PUSH2 0x444 JUMPI DUP1 PUSH4 0xC6854DB8 EQ PUSH2 0x481 JUMPI DUP1 PUSH4 0xCC32D176 EQ PUSH2 0x4AC JUMPI PUSH2 0x171 JUMP JUMPDEST DUP1 PUSH4 0x715018A6 EQ PUSH2 0x35C JUMPI DUP1 PUSH4 0x77E741C7 EQ PUSH2 0x373 JUMPI DUP1 PUSH4 0x78238C37 EQ PUSH2 0x39C JUMPI DUP1 PUSH4 0x8DA5CB5B EQ PUSH2 0x3C5 JUMPI DUP1 PUSH4 0xB931666B EQ PUSH2 0x3F0 JUMPI DUP1 PUSH4 0xBC063E1A EQ PUSH2 0x419 JUMPI PUSH2 0x171 JUMP JUMPDEST DUP1 PUSH4 0x2D68EFC9 GT PUSH2 0x123 JUMPI DUP1 PUSH4 0x2D68EFC9 EQ PUSH2 0x272 JUMPI DUP1 PUSH4 0x4641257D EQ PUSH2 0x29D JUMPI DUP1 PUSH4 0x4708DD5E EQ PUSH2 0x2B4 JUMPI DUP1 PUSH4 0x61D027B3 EQ PUSH2 0x2DD JUMPI DUP1 PUSH4 0x66666AA9 EQ PUSH2 0x308 JUMPI DUP1 PUSH4 0x6A369C86 EQ PUSH2 0x333 JUMPI PUSH2 0x171 JUMP JUMPDEST DUP1 PUSH4 0x5268CFF EQ PUSH2 0x176 JUMPI DUP1 PUSH4 0x1166B44B EQ PUSH2 0x1A1 JUMPI DUP1 PUSH4 0x1459457A EQ PUSH2 0x1CA JUMPI DUP1 PUSH4 0x1939BBC1 EQ PUSH2 0x1F3 JUMPI DUP1 PUSH4 0x257AE0DE EQ PUSH2 0x21C JUMPI DUP1 PUSH4 0x2BD63831 EQ PUSH2 0x247 JUMPI PUSH2 0x171 JUMP JUMPDEST CALLDATASIZE PUSH2 0x171 JUMPI STOP JUMPDEST PUSH1 0x0 DUP1 REVERT JUMPDEST CALLVALUE DUP1 ISZERO PUSH2 0x182 JUMPI PUSH1 0x0 DUP1 REVERT JUMPDEST POP PUSH2 0x18B PUSH2 0x57D JUMP JUMPDEST PUSH1 0x40 MLOAD PUSH2 0x198 SWAP2 SWAP1 PUSH2 0x275E JUMP JUMPDEST PUSH1 0x40 MLOAD DUP1 SWAP2 SUB SWAP1 RETURN JUMPDEST CALLVALUE DUP1 ISZERO PUSH2 0x1AD JUMPI PUSH1 0x0 DUP1 REVERT JUMPDEST POP PUSH2 0x1C8 PUSH1 0x4 DUP1 CALLDATASIZE SUB DUP2 ADD SWAP1 PUSH2 0x1C3 SWAP2 SWAP1 PUSH2 0x2112 JUMP JUMPDEST PUSH2 0x5A3 JUMP JUMPDEST STOP JUMPDEST CALLVALUE DUP1 ISZERO PUSH2 0x1D6 JUMPI PUSH1 0x0 DUP1 REVERT JUMPDEST POP PUSH2 0x1F1 PUSH1 0x4 DUP1 CALLDATASIZE SUB DUP2 ADD SWAP1 PUSH2 0x1EC SWAP2 SWAP1 PUSH2 0x217F JUMP JUMPDEST PUSH2 0x5B7 JUMP JUMPDEST STOP JUMPDEST CALLVALUE DUP1 ISZERO PUSH2 0x1FF JUMPI PUSH1 0x0 DUP1 REVERT JUMPDEST POP PUSH2 0x21A PUSH1 0x4 DUP1 CALLDATASIZE SUB DUP2 ADD SWAP1 PUSH2 0x215 SWAP2 SWAP1 PUSH2 0x213F JUMP JUMPDEST PUSH2 0x928 JUMP JUMPDEST STOP JUMPDEST CALLVALUE DUP1 ISZERO PUSH2 0x228 JUMPI PUSH1 0x0 DUP1 REVERT JUMPDEST POP PUSH2 0x231 PUSH2 0xA7E JUMP JUMPDEST PUSH1 0x40 MLOAD PUSH2 0x23E SWAP2 SWAP1 PUSH2 0x269F JUMP JUMPDEST PUSH1 0x40 MLOAD DUP1 SWAP2 SUB SWAP1 RETURN JUMPDEST CALLVALUE DUP1 ISZERO PUSH2 0x253 JUMPI PUSH1 0x0 DUP1 REVERT JUMPDEST POP PUSH2 0x25C PUSH2 0xAA4 JUMP JUMPDEST PUSH1 0x40 MLOAD PUSH2 0x269 SWAP2 SWAP1 PUSH2 0x2743 JUMP JUMPDEST PUSH1 0x40 MLOAD DUP1 SWAP2 SUB SWAP1 RETURN JUMPDEST CALLVALUE DUP1 ISZERO PUSH2 0x27E JUMPI PUSH1 0x0 DUP1 REVERT JUMPDEST POP PUSH2 0x287 PUSH2 0xAB7 JUMP JUMPDEST PUSH1 0x40 MLOAD PUSH2 0x294 SWAP2 SWAP1 PUSH2 0x275E JUMP JUMPDEST PUSH1 0x40 MLOAD DUP1 SWAP2 SUB SWAP1 RETURN JUMPDEST CALLVALUE DUP1 ISZERO PUSH2 0x2A9 JUMPI PUSH1 0x0 DUP1 REVERT JUMPDEST POP PUSH2 0x2B2 PUSH2 0xADD JUMP JUMPDEST STOP JUMPDEST CALLVALUE DUP1 ISZERO PUSH2 0x2C0 JUMPI PUSH1 0x0 DUP1 REVERT JUMPDEST POP PUSH2 0x2DB PUSH1 0x4 DUP1 CALLDATASIZE SUB DUP2 ADD SWAP1 PUSH2 0x2D6 SWAP2 SWAP1 PUSH2 0x2112 JUMP JUMPDEST PUSH2 0xF79 JUMP JUMPDEST STOP JUMPDEST CALLVALUE DUP1 ISZERO PUSH2 0x2E9 JUMPI PUSH1 0x0 DUP1 REVERT JUMPDEST POP PUSH2 0x2F2 PUSH2 0x1011 JUMP JUMPDEST PUSH1 0x40 MLOAD PUSH2 0x2FF SWAP2 SWAP1 PUSH2 0x269F JUMP JUMPDEST PUSH1 0x40 MLOAD DUP1 SWAP2 SUB SWAP1 RETURN JUMPDEST CALLVALUE DUP1 ISZERO PUSH2 0x314 JUMPI PUSH1 0x0 DUP1 REVERT JUMPDEST POP PUSH2 0x31D PUSH2 0x1037 JUMP JUMPDEST PUSH1 0x40 MLOAD PUSH2 0x32A SWAP2 SWAP1 PUSH2 0x269F JUMP JUMPDEST PUSH1 0x40 MLOAD DUP1 SWAP2 SUB SWAP1 RETURN JUMPDEST CALLVALUE DUP1 ISZERO PUSH2 0x33F JUMPI PUSH1 0x0 DUP1 REVERT JUMPDEST POP PUSH2 0x35A PUSH1 0x4 DUP1 CALLDATASIZE SUB DUP2 ADD SWAP1 PUSH2 0x355 SWAP2 SWAP1 PUSH2 0x21FA JUMP JUMPDEST PUSH2 0x105D JUMP JUMPDEST STOP JUMPDEST CALLVALUE DUP1 ISZERO PUSH2 0x368 JUMPI PUSH1 0x0 DUP1 REVERT JUMPDEST POP PUSH2 0x371 PUSH2 0x121B JUMP JUMPDEST STOP JUMPDEST CALLVALUE DUP1 ISZERO PUSH2 0x37F JUMPI PUSH1 0x0 DUP1 REVERT JUMPDEST POP PUSH2 0x39A PUSH1 0x4 DUP1 CALLDATASIZE SUB DUP2 ADD SWAP1 PUSH2 0x395 SWAP2 SWAP1 PUSH2 0x22B9 JUMP JUMPDEST PUSH2 0x122F JUMP JUMPDEST STOP JUMPDEST CALLVALUE DUP1 ISZERO PUSH2 0x3A8 JUMPI PUSH1 0x0 DUP1 REVERT JUMPDEST POP PUSH2 0x3C3 PUSH1 0x4 DUP1 CALLDATASIZE SUB DUP2 ADD SWAP1 PUSH2 0x3BE SWAP2 SWAP1 PUSH2 0x2112 JUMP JUMPDEST PUSH2 0x129C JUMP JUMPDEST STOP JUMPDEST CALLVALUE DUP1 ISZERO PUSH2 0x3D1 JUMPI PUSH1 0x0 DUP1 REVERT JUMPDEST POP PUSH2 0x3DA PUSH2 0x135E JUMP JUMPDEST PUSH1 0x40 MLOAD PUSH2 0x3E7 SWAP2 SWAP1 PUSH2 0x269F JUMP JUMPDEST PUSH1 0x40 MLOAD DUP1 SWAP2 SUB SWAP1 RETURN JUMPDEST CALLVALUE DUP1 ISZERO PUSH2 0x3FC JUMPI PUSH1 0x0 DUP1 REVERT JUMPDEST POP PUSH2 0x417 PUSH1 0x4 DUP1 CALLDATASIZE SUB DUP2 ADD SWAP1 PUSH2 0x412 SWAP2 SWAP1 PUSH2 0x22B9 JUMP JUMPDEST PUSH2 0x1388 JUMP JUMPDEST STOP JUMPDEST CALLVALUE DUP1 ISZERO PUSH2 0x425 JUMPI PUSH1 0x0 DUP1 REVERT JUMPDEST POP PUSH2 0x42E PUSH2 0x139A JUMP JUMPDEST PUSH1 0x40 MLOAD PUSH2 0x43B SWAP2 SWAP1 PUSH2 0x2956 JUMP JUMPDEST PUSH1 0x40 MLOAD DUP1 SWAP2 SUB SWAP1 RETURN JUMPDEST CALLVALUE DUP1 ISZERO PUSH2 0x450 JUMPI PUSH1 0x0 DUP1 REVERT JUMPDEST POP PUSH2 0x46B PUSH1 0x4 DUP1 CALLDATASIZE SUB DUP2 ADD SWAP1 PUSH2 0x466 SWAP2 SWAP1 PUSH2 0x22B9 JUMP JUMPDEST PUSH2 0x13A0 JUMP JUMPDEST PUSH1 0x40 MLOAD PUSH2 0x478 SWAP2 SWAP1 PUSH2 0x269F JUMP JUMPDEST PUSH1 0x40 MLOAD DUP1 SWAP2 SUB SWAP1 RETURN JUMPDEST CALLVALUE DUP1 ISZERO PUSH2 0x48D JUMPI PUSH1 0x0 DUP1 REVERT JUMPDEST POP PUSH2 0x496 PUSH2 0x13DF JUMP JUMPDEST PUSH1 0x40 MLOAD PUSH2 0x4A3 SWAP2 SWAP1 PUSH2 0x2956 JUMP JUMPDEST PUSH1 0x40 MLOAD DUP1 SWAP2 SUB SWAP1 RETURN JUMPDEST CALLVALUE DUP1 ISZERO PUSH2 0x4B8 JUMPI PUSH1 0x0 DUP1 REVERT JUMPDEST POP PUSH2 0x4C1 PUSH2 0x13E5 JUMP JUMPDEST PUSH1 0x40 MLOAD PUSH2 0x4CE SWAP2 SWAP1 PUSH2 0x2956 JUMP JUMPDEST PUSH1 0x40 MLOAD DUP1 SWAP2 SUB SWAP1 RETURN JUMPDEST CALLVALUE DUP1 ISZERO PUSH2 0x4E3 JUMPI PUSH1 0x0 DUP1 REVERT JUMPDEST POP PUSH2 0x4EC PUSH2 0x13EB JUMP JUMPDEST PUSH1 0x40 MLOAD PUSH2 0x4F9 SWAP2 SWAP1 PUSH2 0x2743 JUMP JUMPDEST PUSH1 0x40 MLOAD DUP1 SWAP2 SUB SWAP1 RETURN JUMPDEST CALLVALUE DUP1 ISZERO PUSH2 0x50E JUMPI PUSH1 0x0 DUP1 REVERT JUMPDEST POP PUSH2 0x529 PUSH1 0x4 DUP1 CALLDATASIZE SUB DUP2 ADD SWAP1 PUSH2 0x524 SWAP2 SWAP1 PUSH2 0x2112 JUMP JUMPDEST PUSH2 0x13FE JUMP JUMPDEST STOP JUMPDEST CALLVALUE DUP1 ISZERO PUSH2 0x537 JUMPI PUSH1 0x0 DUP1 REVERT JUMPDEST POP PUSH2 0x552 PUSH1 0x4 DUP1 CALLDATASIZE SUB DUP2 ADD SWAP1 PUSH2 0x54D SWAP2 SWAP1 PUSH2 0x2112 JUMP JUMPDEST PUSH2 0x15D1 JUMP JUMPDEST STOP JUMPDEST CALLVALUE DUP1 ISZERO PUSH2 0x560 JUMPI PUSH1 0x0 DUP1 REVERT JUMPDEST POP PUSH2 0x57B PUSH1 0x4 DUP1 CALLDATASIZE SUB DUP2 ADD SWAP1 PUSH2 0x576 SWAP2 SWAP1 PUSH2 0x2112 JUMP JUMPDEST PUSH2 0x1678 JUMP JUMPDEST STOP JUMPDEST PUSH1 0x66 PUSH1 0x0 SWAP1 SLOAD SWAP1 PUSH2 0x100 EXP SWAP1 DIV PUSH20 0xFFFFFFFFFFFFFFFFFFFFFFFFFFFFFFFFFFFFFFFF AND DUP2 JUMP JUMPDEST PUSH2 0x5AB PUSH2 0x16FC JUMP JUMPDEST PUSH2 0x5B4 DUP2 PUSH2 0x177A JUMP JUMPDEST POP JUMP JUMPDEST PUSH1 0x0 DUP1 PUSH1 0x1 SWAP1 SLOAD SWAP1 PUSH2 0x100 EXP SWAP1 DIV PUSH1 0xFF AND ISZERO SWAP1 POP DUP1 DUP1 ISZERO PUSH2 0x5E8 JUMPI POP PUSH1 0x1 PUSH1 0x0 DUP1 SLOAD SWAP1 PUSH2 0x100 EXP SWAP1 DIV PUSH1 0xFF AND PUSH1 0xFF AND LT JUMPDEST DUP1 PUSH2 0x615 JUMPI POP PUSH2 0x5F7 ADDRESS PUSH2 0x1868 JUMP JUMPDEST ISZERO DUP1 ISZERO PUSH2 0x614 JUMPI POP PUSH1 0x1 PUSH1 0x0 DUP1 SLOAD SWAP1 PUSH2 0x100 EXP SWAP1 DIV PUSH1 0xFF AND PUSH1 0xFF AND EQ JUMPDEST JUMPDEST PUSH2 0x654 JUMPI PUSH1 0x40 MLOAD PUSH32 0x8C379A000000000000000000000000000000000000000000000000000000000 DUP2 MSTORE PUSH1 0x4 ADD PUSH2 0x64B SWAP1 PUSH2 0x2876 JUMP JUMPDEST PUSH1 0x40 MLOAD DUP1 SWAP2 SUB SWAP1 REVERT JUMPDEST PUSH1 0x1 PUSH1 0x0 DUP1 PUSH2 0x100 EXP DUP2 SLOAD DUP2 PUSH1 0xFF MUL NOT AND SWAP1 DUP4 PUSH1 0xFF AND MUL OR SWAP1 SSTORE POP DUP1 ISZERO PUSH2 0x691 JUMPI PUSH1 0x1 PUSH1 0x0 PUSH1 0x1 PUSH2 0x100 EXP DUP2 SLOAD DUP2 PUSH1 0xFF MUL NOT AND SWAP1 DUP4 ISZERO ISZERO MUL OR SWAP1 SSTORE POP JUMPDEST PUSH2 0x699 PUSH2 0x188B JUMP JUMPDEST DUP6 PUSH1 0x66 PUSH1 0x0 PUSH2 0x100 EXP DUP2 SLOAD DUP2 PUSH20 0xFFFFFFFFFFFFFFFFFFFFFFFFFFFFFFFFFFFFFFFF MUL NOT AND SWAP1 DUP4 PUSH20 0xFFFFFFFFFFFFFFFFFFFFFFFFFFFFFFFFFFFFFFFF AND MUL OR SWAP1 SSTORE POP DUP5 PUSH1 0x65 PUSH1 0x0 PUSH2 0x100 EXP DUP2 SLOAD DUP2 PUSH20 0xFFFFFFFFFFFFFFFFFFFFFFFFFFFFFFFFFFFFFFFF MUL NOT AND SWAP1 DUP4 PUSH20 0xFFFFFFFFFFFFFFFFFFFFFFFFFFFFFFFFFFFFFFFF AND MUL OR SWAP1 SSTORE POP DUP4 PUSH1 0x67 PUSH1 0x0 PUSH2 0x100 EXP DUP2 SLOAD DUP2 PUSH20 0xFFFFFFFFFFFFFFFFFFFFFFFFFFFFFFFFFFFFFFFF MUL NOT AND SWAP1 DUP4 PUSH20 0xFFFFFFFFFFFFFFFFFFFFFFFFFFFFFFFFFFFFFFFF AND MUL OR SWAP1 SSTORE POP PUSH1 0x8C PUSH1 0x6A DUP2 SWAP1 SSTORE POP PUSH1 0x6A SLOAD PUSH2 0x3E8 PUSH2 0x774 SWAP2 SWAP1 PUSH2 0x2B6B JUMP JUMPDEST PUSH1 0x6B DUP2 SWAP1 SSTORE POP PUSH1 0x0 PUSH20 0xFFFFFFFFFFFFFFFFFFFFFFFFFFFFFFFFFFFFFFFF AND DUP3 PUSH20 0xFFFFFFFFFFFFFFFFFFFFFFFFFFFFFFFFFFFFFFFF AND EQ PUSH2 0x7B8 JUMPI PUSH2 0x7B7 DUP3 PUSH2 0x177A JUMP JUMPDEST JUMPDEST PUSH1 0x0 PUSH20 0xFFFFFFFFFFFFFFFFFFFFFFFFFFFFFFFFFFFFFFFF AND DUP4 PUSH20 0xFFFFFFFFFFFFFFFFFFFFFFFFFFFFFFFFFFFFFFFF AND EQ PUSH2 0x849 JUMPI DUP3 PUSH1 0x68 PUSH1 0x0 PUSH2 0x100 EXP DUP2 SLOAD DUP2 PUSH20 0xFFFFFFFFFFFFFFFFFFFFFFFFFFFFFFFFFFFFFFFF MUL NOT AND SWAP1 DUP4 PUSH20 0xFFFFFFFFFFFFFFFFFFFFFFFFFFFFFFFFFFFFFFFF AND MUL OR SWAP1 SSTORE POP PUSH1 0x1 PUSH1 0x6D PUSH1 0x1 PUSH2 0x100 EXP DUP2 SLOAD DUP2 PUSH1 0xFF MUL NOT AND SWAP1 DUP4 ISZERO ISZERO MUL OR SWAP1 SSTORE POP JUMPDEST PUSH1 0x40 MLOAD DUP1 PUSH1 0x40 ADD PUSH1 0x40 MSTORE DUP1 DUP7 PUSH20 0xFFFFFFFFFFFFFFFFFFFFFFFFFFFFFFFFFFFFFFFF AND PUSH20 0xFFFFFFFFFFFFFFFFFFFFFFFFFFFFFFFFFFFFFFFF AND DUP2 MSTORE PUSH1 0x20 ADD DUP8 PUSH20 0xFFFFFFFFFFFFFFFFFFFFFFFFFFFFFFFFFFFFFFFF AND PUSH20 0xFFFFFFFFFFFFFFFFFFFFFFFFFFFFFFFFFFFFFFFF AND DUP2 MSTORE POP PUSH1 0x6C SWAP1 PUSH1 0x2 PUSH2 0x8C6 SWAP3 SWAP2 SWAP1 PUSH2 0x1E51 JUMP JUMPDEST POP DUP1 ISZERO PUSH2 0x920 JUMPI PUSH1 0x0 DUP1 PUSH1 0x1 PUSH2 0x100 EXP DUP2 SLOAD DUP2 PUSH1 0xFF MUL NOT AND SWAP1 DUP4 ISZERO ISZERO MUL OR SWAP1 SSTORE POP PUSH32 0x7F26B83FF96E1F2B6A682F133852F6798A09C465DA95921460CEFB3847402498 PUSH1 0x1 PUSH1 0x40 MLOAD PUSH2 0x917 SWAP2 SWAP1 PUSH2 0x2779 JUMP JUMPDEST PUSH1 0x40 MLOAD DUP1 SWAP2 SUB SWAP1 LOG1 JUMPDEST POP POP POP POP POP POP JUMP JUMPDEST PUSH2 0x930 PUSH2 0x16FC JUMP JUMPDEST PUSH1 0x65 PUSH1 0x0 SWAP1 SLOAD SWAP1 PUSH2 0x100 EXP SWAP1 DIV PUSH20 0xFFFFFFFFFFFFFFFFFFFFFFFFFFFFFFFFFFFFFFFF AND PUSH20 0xFFFFFFFFFFFFFFFFFFFFFFFFFFFFFFFFFFFFFFFF AND DUP3 PUSH20 0xFFFFFFFFFFFFFFFFFFFFFFFFFFFFFFFFFFFFFFFF AND EQ ISZERO PUSH2 0x9C1 JUMPI PUSH1 0x40 MLOAD PUSH32 0x8C379A000000000000000000000000000000000000000000000000000000000 DUP2 MSTORE PUSH1 0x4 ADD PUSH2 0x9B8 SWAP1 PUSH2 0x27D6 JUMP JUMPDEST PUSH1 0x40 MLOAD DUP1 SWAP2 SUB SWAP1 REVERT JUMPDEST PUSH1 0x0 DUP3 PUSH20 0xFFFFFFFFFFFFFFFFFFFFFFFFFFFFFFFFFFFFFFFF AND PUSH4 0x70A08231 ADDRESS PUSH1 0x40 MLOAD DUP3 PUSH4 0xFFFFFFFF AND PUSH1 0xE0 SHL DUP2 MSTORE PUSH1 0x4 ADD PUSH2 0x9FC SWAP2 SWAP1 PUSH2 0x269F JUMP JUMPDEST PUSH1 0x20 PUSH1 0x40 MLOAD DUP1 DUP4 SUB DUP2 DUP7 DUP1 EXTCODESIZE ISZERO DUP1 ISZERO PUSH2 0xA14 JUMPI PUSH1 0x0 DUP1 REVERT JUMPDEST POP GAS STATICCALL ISZERO DUP1 ISZERO PUSH2 0xA28 JUMPI RETURNDATASIZE PUSH1 0x0 DUP1 RETURNDATACOPY RETURNDATASIZE PUSH1 0x0 REVERT JUMPDEST POP POP POP POP PUSH1 0x40 MLOAD RETURNDATASIZE PUSH1 0x1F NOT PUSH1 0x1F DUP3 ADD AND DUP3 ADD DUP1 PUSH1 0x40 MSTORE POP DUP2 ADD SWAP1 PUSH2 0xA4C SWAP2 SWAP1 PUSH2 0x22E6 JUMP JUMPDEST SWAP1 POP PUSH2 0xA79 DUP3 DUP3 DUP6 PUSH20 0xFFFFFFFFFFFFFFFFFFFFFFFFFFFFFFFFFFFFFFFF AND PUSH2 0x18E4 SWAP1 SWAP3 SWAP2 SWAP1 PUSH4 0xFFFFFFFF AND JUMP JUMPDEST POP POP POP JUMP JUMPDEST PUSH1 0x69 PUSH1 0x0 SWAP1 SLOAD SWAP1 PUSH2 0x100 EXP SWAP1 DIV PUSH20 0xFFFFFFFFFFFFFFFFFFFFFFFFFFFFFFFFFFFFFFFF AND DUP2 JUMP JUMPDEST PUSH1 0x6D PUSH1 0x0 SWAP1 SLOAD SWAP1 PUSH2 0x100 EXP SWAP1 DIV PUSH1 0xFF AND DUP2 JUMP JUMPDEST PUSH1 0x65 PUSH1 0x0 SWAP1 SLOAD SWAP1 PUSH2 0x100 EXP SWAP1 DIV PUSH20 0xFFFFFFFFFFFFFFFFFFFFFFFFFFFFFFFFFFFFFFFF AND DUP2 JUMP JUMPDEST PUSH1 0x0 PUSH1 0x65 PUSH1 0x0 SWAP1 SLOAD SWAP1 PUSH2 0x100 EXP SWAP1 DIV PUSH20 0xFFFFFFFFFFFFFFFFFFFFFFFFFFFFFFFFFFFFFFFF AND PUSH20 0xFFFFFFFFFFFFFFFFFFFFFFFFFFFFFFFFFFFFFFFF AND PUSH4 0x70A08231 ADDRESS PUSH1 0x40 MLOAD DUP3 PUSH4 0xFFFFFFFF AND PUSH1 0xE0 SHL DUP2 MSTORE PUSH1 0x4 ADD PUSH2 0xB3A SWAP2 SWAP1 PUSH2 0x269F JUMP JUMPDEST PUSH1 0x20 PUSH1 0x40 MLOAD DUP1 DUP4 SUB DUP2 DUP7 DUP1 EXTCODESIZE ISZERO DUP1 ISZERO PUSH2 0xB52 JUMPI PUSH1 0x0 DUP1 REVERT JUMPDEST POP GAS STATICCALL ISZERO DUP1 ISZERO PUSH2 0xB66 JUMPI RETURNDATASIZE PUSH1 0x0 DUP1 RETURNDATACOPY RETURNDATASIZE PUSH1 0x0 REVERT JUMPDEST POP POP POP POP PUSH1 0x40 MLOAD RETURNDATASIZE PUSH1 0x1F NOT PUSH1 0x1F DUP3 ADD AND DUP3 ADD DUP1 PUSH1 0x40 MSTORE POP DUP2 ADD SWAP1 PUSH2 0xB8A SWAP2 SWAP1 PUSH2 0x22E6 JUMP JUMPDEST SWAP1 POP PUSH1 0x6D PUSH1 0x0 SWAP1 SLOAD SWAP1 PUSH2 0x100 EXP SWAP1 DIV PUSH1 0xFF AND ISZERO PUSH2 0xD20 JUMPI PUSH1 0x0 PUSH1 0x2 PUSH2 0x3E8 PUSH1 0x6A SLOAD DUP5 PUSH2 0xBB6 SWAP2 SWAP1 PUSH2 0x2B11 JUMP JUMPDEST PUSH2 0xBC0 SWAP2 SWAP1 PUSH2 0x2AE0 JUMP JUMPDEST PUSH2 0xBCA SWAP2 SWAP1 PUSH2 0x2AE0 JUMP JUMPDEST SWAP1 POP PUSH2 0xC3B PUSH1 0x67 PUSH1 0x0 SWAP1 SLOAD SWAP1 PUSH2 0x100 EXP SWAP1 DIV PUSH20 0xFFFFFFFFFFFFFFFFFFFFFFFFFFFFFFFFFFFFFFFF AND DUP3 PUSH1 0x65 PUSH1 0x0 SWAP1 SLOAD SWAP1 PUSH2 0x100 EXP SWAP1 DIV PUSH20 0xFFFFFFFFFFFFFFFFFFFFFFFFFFFFFFFFFFFFFFFF AND PUSH20 0xFFFFFFFFFFFFFFFFFFFFFFFFFFFFFFFFFFFFFFFF AND PUSH2 0x18E4 SWAP1 SWAP3 SWAP2 SWAP1 PUSH4 0xFFFFFFFF AND JUMP JUMPDEST PUSH1 0x69 PUSH1 0x0 SWAP1 SLOAD SWAP1 PUSH2 0x100 EXP SWAP1 DIV PUSH20 0xFFFFFFFFFFFFFFFFFFFFFFFFFFFFFFFFFFFFFFFF AND PUSH20 0xFFFFFFFFFFFFFFFFFFFFFFFFFFFFFFFFFFFFFFFF AND PUSH4 0x38ED1739 DUP3 PUSH1 0x0 PUSH1 0x6C PUSH1 0x67 PUSH1 0x0 SWAP1 SLOAD SWAP1 PUSH2 0x100 EXP SWAP1 DIV PUSH20 0xFFFFFFFFFFFFFFFFFFFFFFFFFFFFFFFFFFFFFFFF AND TIMESTAMP PUSH1 0x40 MLOAD DUP7 PUSH4 0xFFFFFFFF AND PUSH1 0xE0 SHL DUP2 MSTORE PUSH1 0x4 ADD PUSH2 0xCC2 SWAP6 SWAP5 SWAP4 SWAP3 SWAP2 SWAP1 PUSH2 0x2971 JUMP JUMPDEST PUSH1 0x0 PUSH1 0x40 MLOAD DUP1 DUP4 SUB DUP2 PUSH1 0x0 DUP8 DUP1 EXTCODESIZE ISZERO DUP1 ISZERO PUSH2 0xCDC JUMPI PUSH1 0x0 DUP1 REVERT JUMPDEST POP GAS CALL ISZERO DUP1 ISZERO PUSH2 0xCF0 JUMPI RETURNDATASIZE PUSH1 0x0 DUP1 RETURNDATACOPY RETURNDATASIZE PUSH1 0x0 REVERT JUMPDEST POP POP POP POP PUSH1 0x40 MLOAD RETURNDATASIZE PUSH1 0x0 DUP3 RETURNDATACOPY RETURNDATASIZE PUSH1 0x1F NOT PUSH1 0x1F DUP3 ADD AND DUP3 ADD DUP1 PUSH1 0x40 MSTORE POP DUP2 ADD SWAP1 PUSH2 0xD19 SWAP2 SWAP1 PUSH2 0x2243 JUMP JUMPDEST POP POP PUSH2 0xDB0 JUMP JUMPDEST PUSH1 0x0 PUSH2 0x3E8 PUSH1 0x6A SLOAD DUP4 PUSH2 0xD33 SWAP2 SWAP1 PUSH2 0x2B11 JUMP JUMPDEST PUSH2 0xD3D SWAP2 SWAP1 PUSH2 0x2AE0 JUMP JUMPDEST SWAP1 POP PUSH2 0xDAE PUSH1 0x67 PUSH1 0x0 SWAP1 SLOAD SWAP1 PUSH2 0x100 EXP SWAP1 DIV PUSH20 0xFFFFFFFFFFFFFFFFFFFFFFFFFFFFFFFFFFFFFFFF AND DUP3 PUSH1 0x65 PUSH1 0x0 SWAP1 SLOAD SWAP1 PUSH2 0x100 EXP SWAP1 DIV PUSH20 0xFFFFFFFFFFFFFFFFFFFFFFFFFFFFFFFFFFFFFFFF AND PUSH20 0xFFFFFFFFFFFFFFFFFFFFFFFFFFFFFFFFFFFFFFFF AND PUSH2 0x18E4 SWAP1 SWAP3 SWAP2 SWAP1 PUSH4 0xFFFFFFFF AND JUMP JUMPDEST POP JUMPDEST PUSH1 0x6D PUSH1 0x1 SWAP1 SLOAD SWAP1 PUSH2 0x100 EXP SWAP1 DIV PUSH1 0xFF AND ISZERO PUSH2 0xEE6 JUMPI PUSH1 0x0 PUSH2 0x3E8 PUSH1 0x6B SLOAD DUP4 PUSH2 0xDD8 SWAP2 SWAP1 PUSH2 0x2B11 JUMP JUMPDEST PUSH2 0xDE2 SWAP2 SWAP1 PUSH2 0x2AE0 JUMP JUMPDEST SWAP1 POP PUSH2 0xE53 PUSH1 0x68 PUSH1 0x0 SWAP1 SLOAD SWAP1 PUSH2 0x100 EXP SWAP1 DIV PUSH20 0xFFFFFFFFFFFFFFFFFFFFFFFFFFFFFFFFFFFFFFFF AND DUP3 PUSH1 0x65 PUSH1 0x0 SWAP1 SLOAD SWAP1 PUSH2 0x100 EXP SWAP1 DIV PUSH20 0xFFFFFFFFFFFFFFFFFFFFFFFFFFFFFFFFFFFFFFFF AND PUSH20 0xFFFFFFFFFFFFFFFFFFFFFFFFFFFFFFFFFFFFFFFF AND PUSH2 0x18E4 SWAP1 SWAP3 SWAP2 SWAP1 PUSH4 0xFFFFFFFF AND JUMP JUMPDEST PUSH1 0x68 PUSH1 0x0 SWAP1 SLOAD SWAP1 PUSH2 0x100 EXP SWAP1 DIV PUSH20 0xFFFFFFFFFFFFFFFFFFFFFFFFFFFFFFFFFFFFFFFF AND PUSH20 0xFFFFFFFFFFFFFFFFFFFFFFFFFFFFFFFFFFFFFFFF AND PUSH4 0x3C6B16AB DUP3 PUSH1 0x40 MLOAD DUP3 PUSH4 0xFFFFFFFF AND PUSH1 0xE0 SHL DUP2 MSTORE PUSH1 0x4 ADD PUSH2 0xEAE SWAP2 SWAP1 PUSH2 0x2956 JUMP JUMPDEST PUSH1 0x0 PUSH1 0x40 MLOAD DUP1 DUP4 SUB DUP2 PUSH1 0x0 DUP8 DUP1 EXTCODESIZE ISZERO DUP1 ISZERO PUSH2 0xEC8 JUMPI PUSH1 0x0 DUP1 REVERT JUMPDEST POP GAS CALL ISZERO DUP1 ISZERO PUSH2 0xEDC JUMPI RETURNDATASIZE PUSH1 0x0 DUP1 RETURNDATACOPY RETURNDATASIZE PUSH1 0x0 REVERT JUMPDEST POP POP POP POP POP PUSH2 0xF76 JUMP JUMPDEST PUSH1 0x0 PUSH2 0x3E8 PUSH1 0x6B SLOAD DUP4 PUSH2 0xEF9 SWAP2 SWAP1 PUSH2 0x2B11 JUMP JUMPDEST PUSH2 0xF03 SWAP2 SWAP1 PUSH2 0x2AE0 JUMP JUMPDEST SWAP1 POP PUSH2 0xF74 PUSH1 0x67 PUSH1 0x0 SWAP1 SLOAD SWAP1 PUSH2 0x100 EXP SWAP1 DIV PUSH20 0xFFFFFFFFFFFFFFFFFFFFFFFFFFFFFFFFFFFFFFFF AND DUP3 PUSH1 0x65 PUSH1 0x0 SWAP1 SLOAD SWAP1 PUSH2 0x100 EXP SWAP1 DIV PUSH20 0xFFFFFFFFFFFFFFFFFFFFFFFFFFFFFFFFFFFFFFFF AND PUSH20 0xFFFFFFFFFFFFFFFFFFFFFFFFFFFFFFFFFFFFFFFF AND PUSH2 0x18E4 SWAP1 SWAP3 SWAP2 SWAP1 PUSH4 0xFFFFFFFF AND JUMP JUMPDEST POP JUMPDEST POP JUMP JUMPDEST PUSH2 0xF81 PUSH2 0x16FC JUMP JUMPDEST PUSH1 0x68 PUSH1 0x0 SWAP1 SLOAD SWAP1 PUSH2 0x100 EXP SWAP1 DIV PUSH20 0xFFFFFFFFFFFFFFFFFFFFFFFFFFFFFFFFFFFFFFFF AND PUSH20 0xFFFFFFFFFFFFFFFFFFFFFFFFFFFFFFFFFFFFFFFF AND PUSH4 0xF2FDE38B DUP3 PUSH1 0x40 MLOAD DUP3 PUSH4 0xFFFFFFFF AND PUSH1 0xE0 SHL DUP2 MSTORE PUSH1 0x4 ADD PUSH2 0xFDC SWAP2 SWAP1 PUSH2 0x269F JUMP JUMPDEST PUSH1 0x0 PUSH1 0x40 MLOAD DUP1 DUP4 SUB DUP2 PUSH1 0x0 DUP8 DUP1 EXTCODESIZE ISZERO DUP1 ISZERO PUSH2 0xFF6 JUMPI PUSH1 0x0 DUP1 REVERT JUMPDEST POP GAS CALL ISZERO DUP1 ISZERO PUSH2 0x100A JUMPI RETURNDATASIZE PUSH1 0x0 DUP1 RETURNDATACOPY RETURNDATASIZE PUSH1 0x0 REVERT JUMPDEST POP POP POP POP POP JUMP JUMPDEST PUSH1 0x67 PUSH1 0x0 SWAP1 SLOAD SWAP1 PUSH2 0x100 EXP SWAP1 DIV PUSH20 0xFFFFFFFFFFFFFFFFFFFFFFFFFFFFFFFFFFFFFFFF AND DUP2 JUMP JUMPDEST PUSH1 0x68 PUSH1 0x0 SWAP1 SLOAD SWAP1 PUSH2 0x100 EXP SWAP1 DIV PUSH20 0xFFFFFFFFFFFFFFFFFFFFFFFFFFFFFFFFFFFFFFFF AND DUP2 JUMP JUMPDEST PUSH2 0x1065 PUSH2 0x16FC JUMP JUMPDEST PUSH1 0x65 PUSH1 0x0 SWAP1 SLOAD SWAP1 PUSH2 0x100 EXP SWAP1 DIV PUSH20 0xFFFFFFFFFFFFFFFFFFFFFFFFFFFFFFFFFFFFFFFF AND PUSH20 0xFFFFFFFFFFFFFFFFFFFFFFFFFFFFFFFFFFFFFFFF AND DUP2 PUSH1 0x0 DUP2 MLOAD DUP2 LT PUSH2 0x10B2 JUMPI PUSH2 0x10B1 PUSH2 0x2D4A JUMP JUMPDEST JUMPDEST PUSH1 0x20 MUL PUSH1 0x20 ADD ADD MLOAD PUSH20 0xFFFFFFFFFFFFFFFFFFFFFFFFFFFFFFFFFFFFFFFF AND EQ PUSH2 0x1110 JUMPI PUSH1 0x40 MLOAD PUSH32 0x8C379A000000000000000000000000000000000000000000000000000000000 DUP2 MSTORE PUSH1 0x4 ADD PUSH2 0x1107 SWAP1 PUSH2 0x2856 JUMP JUMPDEST PUSH1 0x40 MLOAD DUP1 SWAP2 SUB SWAP1 REVERT JUMPDEST PUSH1 0x66 PUSH1 0x0 SWAP1 SLOAD SWAP1 PUSH2 0x100 EXP SWAP1 DIV PUSH20 0xFFFFFFFFFFFFFFFFFFFFFFFFFFFFFFFFFFFFFFFF AND PUSH20 0xFFFFFFFFFFFFFFFFFFFFFFFFFFFFFFFFFFFFFFFF AND DUP2 PUSH1 0x1 DUP4 MLOAD PUSH2 0x1158 SWAP2 SWAP1 PUSH2 0x2B6B JUMP JUMPDEST DUP2 MLOAD DUP2 LT PUSH2 0x1169 JUMPI PUSH2 0x1168 PUSH2 0x2D4A JUMP JUMPDEST JUMPDEST PUSH1 0x20 MUL PUSH1 0x20 ADD ADD MLOAD PUSH20 0xFFFFFFFFFFFFFFFFFFFFFFFFFFFFFFFFFFFFFFFF AND EQ PUSH2 0x11C7 JUMPI PUSH1 0x40 MLOAD PUSH32 0x8C379A000000000000000000000000000000000000000000000000000000000 DUP2 MSTORE PUSH1 0x4 ADD PUSH2 0x11BE SWAP1 PUSH2 0x28B6 JUMP JUMPDEST PUSH1 0x40 MLOAD DUP1 SWAP2 SUB SWAP1 REVERT JUMPDEST PUSH32 0xECB3DBD70DAD0F6448F42CC97A0FBD7F9BB8ED525CB52D2F8D2798C8BF888EF5 PUSH1 0x6C DUP3 PUSH1 0x40 MLOAD PUSH2 0x11F9 SWAP3 SWAP2 SWAP1 PUSH2 0x270C JUMP JUMPDEST PUSH1 0x40 MLOAD DUP1 SWAP2 SUB SWAP1 LOG1 DUP1 PUSH1 0x6C SWAP1 DUP1 MLOAD SWAP1 PUSH1 0x20 ADD SWAP1 PUSH2 0x1217 SWAP3 SWAP2 SWAP1 PUSH2 0x1EDB JUMP JUMPDEST POP POP JUMP JUMPDEST PUSH2 0x1223 PUSH2 0x16FC JUMP JUMPDEST PUSH2 0x122D PUSH1 0x0 PUSH2 0x196A JUMP JUMPDEST JUMP JUMPDEST PUSH2 0x1237 PUSH2 0x16FC JUMP JUMPDEST PUSH2 0x3E8 DUP2 GT ISZERO PUSH2 0x127C JUMPI PUSH1 0x40 MLOAD PUSH32 0x8C379A000000000000000000000000000000000000000000000000000000000 DUP2 MSTORE PUSH1 0x4 ADD PUSH2 0x1273 SWAP1 PUSH2 0x2836 JUMP JUMPDEST PUSH1 0x40 MLOAD DUP1 SWAP2 SUB SWAP1 REVERT JUMPDEST DUP1 PUSH1 0x6A DUP2 SWAP1 SSTORE POP PUSH1 0x6A SLOAD PUSH2 0x3E8 PUSH2 0x1293 SWAP2 SWAP1 PUSH2 0x2B6B JUMP JUMPDEST PUSH1 0x6B DUP2 SWAP1 SSTORE POP POP JUMP JUMPDEST PUSH2 0x12A4 PUSH2 0x16FC JUMP JUMPDEST PUSH32 0xE3D88FC63CE6F40E089447CEA2116E10D00CD00302225A3D4D57DB7D456933B3 PUSH1 0x68 PUSH1 0x0 SWAP1 SLOAD SWAP1 PUSH2 0x100 EXP SWAP1 DIV PUSH20 0xFFFFFFFFFFFFFFFFFFFFFFFFFFFFFFFFFFFFFFFF AND DUP3 PUSH1 0x40 MLOAD PUSH2 0x12F7 SWAP3 SWAP2 SWAP1 PUSH2 0x26BA JUMP JUMPDEST PUSH1 0x40 MLOAD DUP1 SWAP2 SUB SWAP1 LOG1 DUP1 PUSH1 0x68 PUSH1 0x0 PUSH2 0x100 EXP DUP2 SLOAD DUP2 PUSH20 0xFFFFFFFFFFFFFFFFFFFFFFFFFFFFFFFFFFFFFFFF MUL NOT AND SWAP1 DUP4 PUSH20 0xFFFFFFFFFFFFFFFFFFFFFFFFFFFFFFFFFFFFFFFF AND MUL OR SWAP1 SSTORE POP PUSH1 0x1 PUSH1 0x6D PUSH1 0x1 PUSH2 0x100 EXP DUP2 SLOAD DUP2 PUSH1 0xFF MUL NOT AND SWAP1 DUP4 ISZERO ISZERO MUL OR SWAP1 SSTORE POP POP JUMP JUMPDEST PUSH1 0x0 PUSH1 0x33 PUSH1 0x0 SWAP1 SLOAD SWAP1 PUSH2 0x100 EXP SWAP1 DIV PUSH20 0xFFFFFFFFFFFFFFFFFFFFFFFFFFFFFFFFFFFFFFFF AND SWAP1 POP SWAP1 JUMP JUMPDEST PUSH2 0x1390 PUSH2 0x16FC JUMP JUMPDEST DUP1 PUSH1 0x6A DUP2 SWAP1 SSTORE POP POP JUMP JUMPDEST PUSH2 0x3E8 DUP2 JUMP JUMPDEST PUSH1 0x6C DUP2 DUP2 SLOAD DUP2 LT PUSH2 0x13B0 JUMPI PUSH1 0x0 DUP1 REVERT JUMPDEST SWAP1 PUSH1 0x0 MSTORE PUSH1 0x20 PUSH1 0x0 KECCAK256 ADD PUSH1 0x0 SWAP2 POP SLOAD SWAP1 PUSH2 0x100 EXP SWAP1 DIV PUSH20 0xFFFFFFFFFFFFFFFFFFFFFFFFFFFFFFFFFFFFFFFF AND DUP2 JUMP JUMPDEST PUSH1 0x6B SLOAD DUP2 JUMP JUMPDEST PUSH1 0x6A SLOAD DUP2 JUMP JUMPDEST PUSH1 0x6D PUSH1 0x1 SWAP1 SLOAD SWAP1 PUSH2 0x100 EXP SWAP1 DIV PUSH1 0xFF AND DUP2 JUMP JUMPDEST PUSH2 0x1406 PUSH2 0x16FC JUMP JUMPDEST PUSH1 0x6D PUSH1 0x0 SWAP1 SLOAD SWAP1 PUSH2 0x100 EXP SWAP1 DIV PUSH1 0xFF AND PUSH2 0x1455 JUMPI PUSH1 0x40 MLOAD PUSH32 0x8C379A000000000000000000000000000000000000000000000000000000000 DUP2 MSTORE PUSH1 0x4 ADD PUSH2 0x144C SWAP1 PUSH2 0x27B6 JUMP JUMPDEST PUSH1 0x40 MLOAD DUP1 SWAP2 SUB SWAP1 REVERT JUMPDEST PUSH32 0x826424C54F0E53618740C75270163DC0CE89545F38164B0E4B3A265CF7314453 PUSH1 0x69 PUSH1 0x0 SWAP1 SLOAD SWAP1 PUSH2 0x100 EXP SWAP1 DIV PUSH20 0xFFFFFFFFFFFFFFFFFFFFFFFFFFFFFFFFFFFFFFFF AND DUP3 PUSH1 0x40 MLOAD PUSH2 0x14A8 SWAP3 SWAP2 SWAP1 PUSH2 0x26BA JUMP JUMPDEST PUSH1 0x40 MLOAD DUP1 SWAP2 SUB SWAP1 LOG1 PUSH2 0x151D DUP2 PUSH32 0xFFFFFFFFFFFFFFFFFFFFFFFFFFFFFFFFFFFFFFFFFFFFFFFFFFFFFFFFFFFFFFFF PUSH1 0x65 PUSH1 0x0 SWAP1 SLOAD SWAP1 PUSH2 0x100 EXP SWAP1 DIV PUSH20 0xFFFFFFFFFFFFFFFFFFFFFFFFFFFFFFFFFFFFFFFF AND PUSH20 0xFFFFFFFFFFFFFFFFFFFFFFFFFFFFFFFFFFFFFFFF AND PUSH2 0x1A30 SWAP1 SWAP3 SWAP2 SWAP1 PUSH4 0xFFFFFFFF AND JUMP JUMPDEST PUSH2 0x158D PUSH1 0x69 PUSH1 0x0 SWAP1 SLOAD SWAP1 PUSH2 0x100 EXP SWAP1 DIV PUSH20 0xFFFFFFFFFFFFFFFFFFFFFFFFFFFFFFFFFFFFFFFF AND PUSH1 0x0 PUSH1 0x65 PUSH1 0x0 SWAP1 SLOAD SWAP1 PUSH2 0x100 EXP SWAP1 DIV PUSH20 0xFFFFFFFFFFFFFFFFFFFFFFFFFFFFFFFFFFFFFFFF AND PUSH20 0xFFFFFFFFFFFFFFFFFFFFFFFFFFFFFFFFFFFFFFFF AND PUSH2 0x1A30 SWAP1 SWAP3 SWAP2 SWAP1 PUSH4 0xFFFFFFFF AND JUMP JUMPDEST DUP1 PUSH1 0x69 PUSH1 0x0 PUSH2 0x100 EXP DUP2 SLOAD DUP2 PUSH20 0xFFFFFFFFFFFFFFFFFFFFFFFFFFFFFFFFFFFFFFFF MUL NOT AND SWAP1 DUP4 PUSH20 0xFFFFFFFFFFFFFFFFFFFFFFFFFFFFFFFFFFFFFFFF AND MUL OR SWAP1 SSTORE POP POP JUMP JUMPDEST PUSH2 0x15D9 PUSH2 0x16FC JUMP JUMPDEST PUSH32 0x567657FA3F286518B318F4A29870674F433F622FDFC819691ACB13105B228225 PUSH1 0x67 PUSH1 0x0 SWAP1 SLOAD SWAP1 PUSH2 0x100 EXP SWAP1 DIV PUSH20 0xFFFFFFFFFFFFFFFFFFFFFFFFFFFFFFFFFFFFFFFF AND DUP3 PUSH1 0x40 MLOAD PUSH2 0x162C SWAP3 SWAP2 SWAP1 PUSH2 0x26BA JUMP JUMPDEST PUSH1 0x40 MLOAD DUP1 SWAP2 SUB SWAP1 LOG1 DUP1 PUSH1 0x67 PUSH1 0x0 PUSH2 0x100 EXP DUP2 SLOAD DUP2 PUSH20 0xFFFFFFFFFFFFFFFFFFFFFFFFFFFFFFFFFFFFFFFF MUL NOT AND SWAP1 DUP4 PUSH20 0xFFFFFFFFFFFFFFFFFFFFFFFFFFFFFFFFFFFFFFFF AND MUL OR SWAP1 SSTORE POP POP JUMP JUMPDEST PUSH2 0x1680 PUSH2 0x16FC JUMP JUMPDEST PUSH1 0x0 PUSH20 0xFFFFFFFFFFFFFFFFFFFFFFFFFFFFFFFFFFFFFFFF AND DUP2 PUSH20 0xFFFFFFFFFFFFFFFFFFFFFFFFFFFFFFFFFFFFFFFF AND EQ ISZERO PUSH2 0x16F0 JUMPI PUSH1 0x40 MLOAD PUSH32 0x8C379A000000000000000000000000000000000000000000000000000000000 DUP2 MSTORE PUSH1 0x4 ADD PUSH2 0x16E7 SWAP1 PUSH2 0x27F6 JUMP JUMPDEST PUSH1 0x40 MLOAD DUP1 SWAP2 SUB SWAP1 REVERT JUMPDEST PUSH2 0x16F9 DUP2 PUSH2 0x196A JUMP JUMPDEST POP JUMP JUMPDEST PUSH2 0x1704 PUSH2 0x1B8E JUMP JUMPDEST PUSH20 0xFFFFFFFFFFFFFFFFFFFFFFFFFFFFFFFFFFFFFFFF AND PUSH2 0x1722 PUSH2 0x135E JUMP JUMPDEST PUSH20 0xFFFFFFFFFFFFFFFFFFFFFFFFFFFFFFFFFFFFFFFF AND EQ PUSH2 0x1778 JUMPI PUSH1 0x40 MLOAD PUSH32 0x8C379A000000000000000000000000000000000000000000000000000000000 DUP2 MSTORE PUSH1 0x4 ADD PUSH2 0x176F SWAP1 PUSH2 0x2896 JUMP JUMPDEST PUSH1 0x40 MLOAD DUP1 SWAP2 SUB SWAP1 REVERT JUMPDEST JUMP JUMPDEST DUP1 PUSH1 0x69 PUSH1 0x0 PUSH2 0x100 EXP DUP2 SLOAD DUP2 PUSH20 0xFFFFFFFFFFFFFFFFFFFFFFFFFFFFFFFFFFFFFFFF MUL NOT AND SWAP1 DUP4 PUSH20 0xFFFFFFFFFFFFFFFFFFFFFFFFFFFFFFFFFFFFFFFF AND MUL OR SWAP1 SSTORE POP PUSH2 0x184A PUSH1 0x69 PUSH1 0x0 SWAP1 SLOAD SWAP1 PUSH2 0x100 EXP SWAP1 DIV PUSH20 0xFFFFFFFFFFFFFFFFFFFFFFFFFFFFFFFFFFFFFFFF AND PUSH32 0xFFFFFFFFFFFFFFFFFFFFFFFFFFFFFFFFFFFFFFFFFFFFFFFFFFFFFFFFFFFFFFFF PUSH1 0x65 PUSH1 0x0 SWAP1 SLOAD SWAP1 PUSH2 0x100 EXP SWAP1 DIV PUSH20 0xFFFFFFFFFFFFFFFFFFFFFFFFFFFFFFFFFFFFFFFF AND PUSH20 0xFFFFFFFFFFFFFFFFFFFFFFFFFFFFFFFFFFFFFFFF AND PUSH2 0x1A30 SWAP1 SWAP3 SWAP2 SWAP1 PUSH4 0xFFFFFFFF AND JUMP JUMPDEST PUSH1 0x1 PUSH1 0x6D PUSH1 0x0 PUSH2 0x100 EXP DUP2 SLOAD DUP2 PUSH1 0xFF MUL NOT AND SWAP1 DUP4 ISZERO ISZERO MUL OR SWAP1 SSTORE POP POP JUMP JUMPDEST PUSH1 0x0 DUP1 DUP3 PUSH20 0xFFFFFFFFFFFFFFFFFFFFFFFFFFFFFFFFFFFFFFFF AND EXTCODESIZE GT SWAP1 POP SWAP2 SWAP1 POP JUMP JUMPDEST PUSH1 0x0 PUSH1 0x1 SWAP1 SLOAD SWAP1 PUSH2 0x100 EXP SWAP1 DIV PUSH1 0xFF AND PUSH2 0x18DA JUMPI PUSH1 0x40 MLOAD PUSH32 0x8C379A000000000000000000000000000000000000000000000000000000000 DUP2 MSTORE PUSH1 0x4 ADD PUSH2 0x18D1 SWAP1 PUSH2 0x28F6 JUMP JUMPDEST PUSH1 0x40 MLOAD DUP1 SWAP2 SUB SWAP1 REVERT JUMPDEST PUSH2 0x18E2 PUSH2 0x1B96 JUMP JUMPDEST JUMP JUMPDEST PUSH2 0x1965 DUP4 PUSH4 0xA9059CBB PUSH1 0xE0 SHL DUP5 DUP5 PUSH1 0x40 MLOAD PUSH1 0x24 ADD PUSH2 0x1903 SWAP3 SWAP2 SWAP1 PUSH2 0x26E3 JUMP JUMPDEST PUSH1 0x40 MLOAD PUSH1 0x20 DUP2 DUP4 SUB SUB DUP2 MSTORE SWAP1 PUSH1 0x40 MSTORE SWAP1 PUSH28 0xFFFFFFFFFFFFFFFFFFFFFFFFFFFFFFFFFFFFFFFFFFFFFFFFFFFFFFFF NOT AND PUSH1 0x20 DUP3 ADD DUP1 MLOAD PUSH28 0xFFFFFFFFFFFFFFFFFFFFFFFFFFFFFFFFFFFFFFFFFFFFFFFFFFFFFFFF DUP4 DUP2 DUP4 AND OR DUP4 MSTORE POP POP POP POP PUSH2 0x1BF7 JUMP JUMPDEST POP POP POP JUMP JUMPDEST PUSH1 0x0 PUSH1 0x33 PUSH1 0x0 SWAP1 SLOAD SWAP1 PUSH2 0x100 EXP SWAP1 DIV PUSH20 0xFFFFFFFFFFFFFFFFFFFFFFFFFFFFFFFFFFFFFFFF AND SWAP1 POP DUP2 PUSH1 0x33 PUSH1 0x0 PUSH2 0x100 EXP DUP2 SLOAD DUP2 PUSH20 0xFFFFFFFFFFFFFFFFFFFFFFFFFFFFFFFFFFFFFFFF MUL NOT AND SWAP1 DUP4 PUSH20 0xFFFFFFFFFFFFFFFFFFFFFFFFFFFFFFFFFFFFFFFF AND MUL OR SWAP1 SSTORE POP DUP2 PUSH20 0xFFFFFFFFFFFFFFFFFFFFFFFFFFFFFFFFFFFFFFFF AND DUP2 PUSH20 0xFFFFFFFFFFFFFFFFFFFFFFFFFFFFFFFFFFFFFFFF AND PUSH32 0x8BE0079C531659141344CD1FD0A4F28419497F9722A3DAAFE3B4186F6B6457E0 PUSH1 0x40 MLOAD PUSH1 0x40 MLOAD DUP1 SWAP2 SUB SWAP1 LOG3 POP POP JUMP JUMPDEST PUSH1 0x0 DUP2 EQ DUP1 PUSH2 0x1AC9 JUMPI POP PUSH1 0x0 DUP4 PUSH20 0xFFFFFFFFFFFFFFFFFFFFFFFFFFFFFFFFFFFFFFFF AND PUSH4 0xDD62ED3E ADDRESS DUP6 PUSH1 0x40 MLOAD DUP4 PUSH4 0xFFFFFFFF AND PUSH1 0xE0 SHL DUP2 MSTORE PUSH1 0x4 ADD PUSH2 0x1A77 SWAP3 SWAP2 SWAP1 PUSH2 0x26BA JUMP JUMPDEST PUSH1 0x20 PUSH1 0x40 MLOAD DUP1 DUP4 SUB DUP2 DUP7 DUP1 EXTCODESIZE ISZERO DUP1 ISZERO PUSH2 0x1A8F JUMPI PUSH1 0x0 DUP1 REVERT JUMPDEST POP GAS STATICCALL ISZERO DUP1 ISZERO PUSH2 0x1AA3 JUMPI RETURNDATASIZE PUSH1 0x0 DUP1 RETURNDATACOPY RETURNDATASIZE PUSH1 0x0 REVERT JUMPDEST POP POP POP POP PUSH1 0x40 MLOAD RETURNDATASIZE PUSH1 0x1F NOT PUSH1 0x1F DUP3 ADD AND DUP3 ADD DUP1 PUSH1 0x40 MSTORE POP DUP2 ADD SWAP1 PUSH2 0x1AC7 SWAP2 SWAP1 PUSH2 0x22E6 JUMP JUMPDEST EQ JUMPDEST PUSH2 0x1B08 JUMPI PUSH1 0x40 MLOAD PUSH32 0x8C379A000000000000000000000000000000000000000000000000000000000 DUP2 MSTORE PUSH1 0x4 ADD PUSH2 0x1AFF SWAP1 PUSH2 0x2936 JUMP JUMPDEST PUSH1 0x40 MLOAD DUP1 SWAP2 SUB SWAP1 REVERT JUMPDEST PUSH2 0x1B89 DUP4 PUSH4 0x95EA7B3 PUSH1 0xE0 SHL DUP5 DUP5 PUSH1 0x40 MLOAD PUSH1 0x24 ADD PUSH2 0x1B27 SWAP3 SWAP2 SWAP1 PUSH2 0x26E3 JUMP JUMPDEST PUSH1 0x40 MLOAD PUSH1 0x20 DUP2 DUP4 SUB SUB DUP2 MSTORE SWAP1 PUSH1 0x40 MSTORE SWAP1 PUSH28 0xFFFFFFFFFFFFFFFFFFFFFFFFFFFFFFFFFFFFFFFFFFFFFFFFFFFFFFFF NOT AND PUSH1 0x20 DUP3 ADD DUP1 MLOAD PUSH28 0xFFFFFFFFFFFFFFFFFFFFFFFFFFFFFFFFFFFFFFFFFFFFFFFFFFFFFFFF DUP4 DUP2 DUP4 AND OR DUP4 MSTORE POP POP POP POP PUSH2 0x1BF7 JUMP JUMPDEST POP POP POP JUMP JUMPDEST PUSH1 0x0 CALLER SWAP1 POP SWAP1 JUMP JUMPDEST PUSH1 0x0 PUSH1 0x1 SWAP1 SLOAD SWAP1 PUSH2 0x100 EXP SWAP1 DIV PUSH1 0xFF AND PUSH2 0x1BE5 JUMPI PUSH1 0x40 MLOAD PUSH32 0x8C379A000000000000000000000000000000000000000000000000000000000 DUP2 MSTORE PUSH1 0x4 ADD PUSH2 0x1BDC SWAP1 PUSH2 0x28F6 JUMP JUMPDEST PUSH1 0x40 MLOAD DUP1 SWAP2 SUB SWAP1 REVERT JUMPDEST PUSH2 0x1BF5 PUSH2 0x1BF0 PUSH2 0x1B8E JUMP JUMPDEST PUSH2 0x196A JUMP JUMPDEST JUMP JUMPDEST PUSH1 0x0 PUSH2 0x1C59 DUP3 PUSH1 0x40 MLOAD DUP1 PUSH1 0x40 ADD PUSH1 0x40 MSTORE DUP1 PUSH1 0x20 DUP2 MSTORE PUSH1 0x20 ADD PUSH32 0x5361666545524332303A206C6F772D6C6576656C2063616C6C206661696C6564 DUP2 MSTORE POP DUP6 PUSH20 0xFFFFFFFFFFFFFFFFFFFFFFFFFFFFFFFFFFFFFFFF AND PUSH2 0x1CBE SWAP1 SWAP3 SWAP2 SWAP1 PUSH4 0xFFFFFFFF AND JUMP JUMPDEST SWAP1 POP PUSH1 0x0 DUP2 MLOAD GT ISZERO PUSH2 0x1CB9 JUMPI DUP1 DUP1 PUSH1 0x20 ADD SWAP1 MLOAD DUP2 ADD SWAP1 PUSH2 0x1C79 SWAP2 SWAP1 PUSH2 0x228C JUMP JUMPDEST PUSH2 0x1CB8 JUMPI PUSH1 0x40 MLOAD PUSH32 0x8C379A000000000000000000000000000000000000000000000000000000000 DUP2 MSTORE PUSH1 0x4 ADD PUSH2 0x1CAF SWAP1 PUSH2 0x2916 JUMP JUMPDEST PUSH1 0x40 MLOAD DUP1 SWAP2 SUB SWAP1 REVERT JUMPDEST JUMPDEST POP POP POP JUMP JUMPDEST PUSH1 0x60 PUSH2 0x1CCD DUP5 DUP5 PUSH1 0x0 DUP6 PUSH2 0x1CD6 JUMP JUMPDEST SWAP1 POP SWAP4 SWAP3 POP POP POP JUMP JUMPDEST PUSH1 0x60 DUP3 SELFBALANCE LT ISZERO PUSH2 0x1D1B JUMPI PUSH1 0x40 MLOAD PUSH32 0x8C379A000000000000000000000000000000000000000000000000000000000 DUP2 MSTORE PUSH1 0x4 ADD PUSH2 0x1D12 SWAP1 PUSH2 0x2816 JUMP JUMPDEST PUSH1 0x40 MLOAD DUP1 SWAP2 SUB SWAP1 REVERT JUMPDEST PUSH2 0x1D24 DUP6 PUSH2 0x1868 JUMP JUMPDEST PUSH2 0x1D63 JUMPI PUSH1 0x40 MLOAD PUSH32 0x8C379A000000000000000000000000000000000000000000000000000000000 DUP2 MSTORE PUSH1 0x4 ADD PUSH2 0x1D5A SWAP1 PUSH2 0x28D6 JUMP JUMPDEST PUSH1 0x40 MLOAD DUP1 SWAP2 SUB SWAP1 REVERT JUMPDEST PUSH1 0x0 DUP1 DUP7 PUSH20 0xFFFFFFFFFFFFFFFFFFFFFFFFFFFFFFFFFFFFFFFF AND DUP6 DUP8 PUSH1 0x40 MLOAD PUSH2 0x1D8C SWAP2 SWAP1 PUSH2 0x2688 JUMP JUMPDEST PUSH1 0x0 PUSH1 0x40 MLOAD DUP1 DUP4 SUB DUP2 DUP6 DUP8 GAS CALL SWAP3 POP POP POP RETURNDATASIZE DUP1 PUSH1 0x0 DUP2 EQ PUSH2 0x1DC9 JUMPI PUSH1 0x40 MLOAD SWAP2 POP PUSH1 0x1F NOT PUSH1 0x3F RETURNDATASIZE ADD AND DUP3 ADD PUSH1 0x40 MSTORE RETURNDATASIZE DUP3 MSTORE RETURNDATASIZE PUSH1 0x0 PUSH1 0x20 DUP5 ADD RETURNDATACOPY PUSH2 0x1DCE JUMP JUMPDEST PUSH1 0x60 SWAP2 POP JUMPDEST POP SWAP2 POP SWAP2 POP PUSH2 0x1DDE DUP3 DUP3 DUP7 PUSH2 0x1DEA JUMP JUMPDEST SWAP3 POP POP POP SWAP5 SWAP4 POP POP POP POP JUMP JUMPDEST PUSH1 0x60 DUP4 ISZERO PUSH2 0x1DFA JUMPI DUP3 SWAP1 POP PUSH2 0x1E4A JUMP JUMPDEST PUSH1 0x0 DUP4 MLOAD GT ISZERO PUSH2 0x1E0D JUMPI DUP3 MLOAD DUP1 DUP5 PUSH1 0x20 ADD REVERT JUMPDEST DUP2 PUSH1 0x40 MLOAD PUSH32 0x8C379A000000000000000000000000000000000000000000000000000000000 DUP2 MSTORE PUSH1 0x4 ADD PUSH2 0x1E41 SWAP2 SWAP1 PUSH2 0x2794 JUMP JUMPDEST PUSH1 0x40 MLOAD DUP1 SWAP2 SUB SWAP1 REVERT JUMPDEST SWAP4 SWAP3 POP POP POP JUMP JUMPDEST DUP3 DUP1 SLOAD DUP3 DUP3 SSTORE SWAP1 PUSH1 0x0 MSTORE PUSH1 0x20 PUSH1 0x0 KECCAK256 SWAP1 DUP2 ADD SWAP3 DUP3 ISZERO PUSH2 0x1ECA JUMPI SWAP2 PUSH1 0x20 MUL DUP3 ADD JUMPDEST DUP3 DUP2 GT ISZERO PUSH2 0x1EC9 JUMPI DUP3 MLOAD DUP3 PUSH1 0x0 PUSH2 0x100 EXP DUP2 SLOAD DUP2 PUSH20 0xFFFFFFFFFFFFFFFFFFFFFFFFFFFFFFFFFFFFFFFF MUL NOT AND SWAP1 DUP4 PUSH20 0xFFFFFFFFFFFFFFFFFFFFFFFFFFFFFFFFFFFFFFFF AND MUL OR SWAP1 SSTORE POP SWAP2 PUSH1 0x20 ADD SWAP2 SWAP1 PUSH1 0x1 ADD SWAP1 PUSH2 0x1E71 JUMP JUMPDEST JUMPDEST POP SWAP1 POP PUSH2 0x1ED7 SWAP2 SWAP1 PUSH2 0x1F65 JUMP JUMPDEST POP SWAP1 JUMP JUMPDEST DUP3 DUP1 SLOAD DUP3 DUP3 SSTORE SWAP1 PUSH1 0x0 MSTORE PUSH1 0x20 PUSH1 0x0 KECCAK256 SWAP1 DUP2 ADD SWAP3 DUP3 ISZERO PUSH2 0x1F54 JUMPI SWAP2 PUSH1 0x20 MUL DUP3 ADD JUMPDEST DUP3 DUP2 GT ISZERO PUSH2 0x1F53 JUMPI DUP3 MLOAD DUP3 PUSH1 0x0 PUSH2 0x100 EXP DUP2 SLOAD DUP2 PUSH20 0xFFFFFFFFFFFFFFFFFFFFFFFFFFFFFFFFFFFFFFFF MUL NOT AND SWAP1 DUP4 PUSH20 0xFFFFFFFFFFFFFFFFFFFFFFFFFFFFFFFFFFFFFFFF AND MUL OR SWAP1 SSTORE POP SWAP2 PUSH1 0x20 ADD SWAP2 SWAP1 PUSH1 0x1 ADD SWAP1 PUSH2 0x1EFB JUMP JUMPDEST JUMPDEST POP SWAP1 POP PUSH2 0x1F61 SWAP2 SWAP1 PUSH2 0x1F65 JUMP JUMPDEST POP SWAP1 JUMP JUMPDEST JUMPDEST DUP1 DUP3 GT ISZERO PUSH2 0x1F7E JUMPI PUSH1 0x0 DUP2 PUSH1 0x0 SWAP1 SSTORE POP PUSH1 0x1 ADD PUSH2 0x1F66 JUMP JUMPDEST POP SWAP1 JUMP JUMPDEST PUSH1 0x0 PUSH2 0x1F95 PUSH2 0x1F90 DUP5 PUSH2 0x29F0 JUMP JUMPDEST PUSH2 0x29CB JUMP JUMPDEST SWAP1 POP DUP1 DUP4 DUP3 MSTORE PUSH1 0x20 DUP3 ADD SWAP1 POP DUP3 DUP6 PUSH1 0x20 DUP7 MUL DUP3 ADD GT ISZERO PUSH2 0x1FB8 JUMPI PUSH2 0x1FB7 PUSH2 0x2DC0 JUMP JUMPDEST JUMPDEST PUSH1 0x0 JUMPDEST DUP6 DUP2 LT ISZERO PUSH2 0x1FE8 JUMPI DUP2 PUSH2 0x1FCE DUP9 DUP3 PUSH2 0x2062 JUMP JUMPDEST DUP5 MSTORE PUSH1 0x20 DUP5 ADD SWAP4 POP PUSH1 0x20 DUP4 ADD SWAP3 POP POP PUSH1 0x1 DUP2 ADD SWAP1 POP PUSH2 0x1FBB JUMP JUMPDEST POP POP POP SWAP4 SWAP3 POP POP POP JUMP JUMPDEST PUSH1 0x0 PUSH2 0x2005 PUSH2 0x2000 DUP5 PUSH2 0x2A1C JUMP JUMPDEST PUSH2 0x29CB JUMP JUMPDEST SWAP1 POP DUP1 DUP4 DUP3 MSTORE PUSH1 0x20 DUP3 ADD SWAP1 POP DUP3 DUP6 PUSH1 0x20 DUP7 MUL DUP3 ADD GT ISZERO PUSH2 0x2028 JUMPI PUSH2 0x2027 PUSH2 0x2DC0 JUMP JUMPDEST JUMPDEST PUSH1 0x0 JUMPDEST DUP6 DUP2 LT ISZERO PUSH2 0x2058 JUMPI DUP2 PUSH2 0x203E DUP9 DUP3 PUSH2 0x20FD JUMP JUMPDEST DUP5 MSTORE PUSH1 0x20 DUP5 ADD SWAP4 POP PUSH1 0x20 DUP4 ADD SWAP3 POP POP PUSH1 0x1 DUP2 ADD SWAP1 POP PUSH2 0x202B JUMP JUMPDEST POP POP POP SWAP4 SWAP3 POP POP POP JUMP JUMPDEST PUSH1 0x0 DUP2 CALLDATALOAD SWAP1 POP PUSH2 0x2071 DUP2 PUSH2 0x30E6 JUMP JUMPDEST SWAP3 SWAP2 POP POP JUMP JUMPDEST PUSH1 0x0 DUP3 PUSH1 0x1F DUP4 ADD SLT PUSH2 0x208C JUMPI PUSH2 0x208B PUSH2 0x2DBB JUMP JUMPDEST JUMPDEST DUP2 CALLDATALOAD PUSH2 0x209C DUP5 DUP3 PUSH1 0x20 DUP7 ADD PUSH2 0x1F82 JUMP JUMPDEST SWAP2 POP POP SWAP3 SWAP2 POP POP JUMP JUMPDEST PUSH1 0x0 DUP3 PUSH1 0x1F DUP4 ADD SLT PUSH2 0x20BA JUMPI PUSH2 0x20B9 PUSH2 0x2DBB JUMP JUMPDEST JUMPDEST DUP2 MLOAD PUSH2 0x20CA DUP5 DUP3 PUSH1 0x20 DUP7 ADD PUSH2 0x1FF2 JUMP JUMPDEST SWAP2 POP POP SWAP3 SWAP2 POP POP JUMP JUMPDEST PUSH1 0x0 DUP2 MLOAD SWAP1 POP PUSH2 0x20E2 DUP2 PUSH2 0x30FD JUMP JUMPDEST SWAP3 SWAP2 POP POP JUMP JUMPDEST PUSH1 0x0 DUP2 CALLDATALOAD SWAP1 POP PUSH2 0x20F7 DUP2 PUSH2 0x3114 JUMP JUMPDEST SWAP3 SWAP2 POP POP JUMP JUMPDEST PUSH1 0x0 DUP2 MLOAD SWAP1 POP PUSH2 0x210C DUP2 PUSH2 0x3114 JUMP JUMPDEST SWAP3 SWAP2 POP POP JUMP JUMPDEST PUSH1 0x0 PUSH1 0x20 DUP3 DUP5 SUB SLT ISZERO PUSH2 0x2128 JUMPI PUSH2 0x2127 PUSH2 0x2DCA JUMP JUMPDEST JUMPDEST PUSH1 0x0 PUSH2 0x2136 DUP5 DUP3 DUP6 ADD PUSH2 0x2062 JUMP JUMPDEST SWAP2 POP POP SWAP3 SWAP2 POP POP JUMP JUMPDEST PUSH1 0x0 DUP1 PUSH1 0x40 DUP4 DUP6 SUB SLT ISZERO PUSH2 0x2156 JUMPI PUSH2 0x2155 PUSH2 0x2DCA JUMP JUMPDEST JUMPDEST PUSH1 0x0 PUSH2 0x2164 DUP6 DUP3 DUP7 ADD PUSH2 0x2062 JUMP JUMPDEST SWAP3 POP POP PUSH1 0x20 PUSH2 0x2175 DUP6 DUP3 DUP7 ADD PUSH2 0x2062 JUMP JUMPDEST SWAP2 POP POP SWAP3 POP SWAP3 SWAP1 POP JUMP JUMPDEST PUSH1 0x0 DUP1 PUSH1 0x0 DUP1 PUSH1 0x0 PUSH1 0xA0 DUP7 DUP9 SUB SLT ISZERO PUSH2 0x219B JUMPI PUSH2 0x219A PUSH2 0x2DCA JUMP JUMPDEST JUMPDEST PUSH1 0x0 PUSH2 0x21A9 DUP9 DUP3 DUP10 ADD PUSH2 0x2062 JUMP JUMPDEST SWAP6 POP POP PUSH1 0x20 PUSH2 0x21BA DUP9 DUP3 DUP10 ADD PUSH2 0x2062 JUMP JUMPDEST SWAP5 POP POP PUSH1 0x40 PUSH2 0x21CB DUP9 DUP3 DUP10 ADD PUSH2 0x2062 JUMP JUMPDEST SWAP4 POP POP PUSH1 0x60 PUSH2 0x21DC DUP9 DUP3 DUP10 ADD PUSH2 0x2062 JUMP JUMPDEST SWAP3 POP POP PUSH1 0x80 PUSH2 0x21ED DUP9 DUP3 DUP10 ADD PUSH2 0x2062 JUMP JUMPDEST SWAP2 POP POP SWAP3 SWAP6 POP SWAP3 SWAP6 SWAP1 SWAP4 POP JUMP JUMPDEST PUSH1 0x0 PUSH1 0x20 DUP3 DUP5 SUB SLT ISZERO PUSH2 0x2210 JUMPI PUSH2 0x220F PUSH2 0x2DCA JUMP JUMPDEST JUMPDEST PUSH1 0x0 DUP3 ADD CALLDATALOAD PUSH8 0xFFFFFFFFFFFFFFFF DUP2 GT ISZERO PUSH2 0x222E JUMPI PUSH2 0x222D PUSH2 0x2DC5 JUMP JUMPDEST JUMPDEST PUSH2 0x223A DUP5 DUP3 DUP6 ADD PUSH2 0x2077 JUMP JUMPDEST SWAP2 POP POP SWAP3 SWAP2 POP POP JUMP JUMPDEST PUSH1 0x0 PUSH1 0x20 DUP3 DUP5 SUB SLT ISZERO PUSH2 0x2259 JUMPI PUSH2 0x2258 PUSH2 0x2DCA JUMP JUMPDEST JUMPDEST PUSH1 0x0 DUP3 ADD MLOAD PUSH8 0xFFFFFFFFFFFFFFFF DUP2 GT ISZERO PUSH2 0x2277 JUMPI PUSH2 0x2276 PUSH2 0x2DC5 JUMP JUMPDEST JUMPDEST PUSH2 0x2283 DUP5 DUP3 DUP6 ADD PUSH2 0x20A5 JUMP JUMPDEST SWAP2 POP POP SWAP3 SWAP2 POP POP JUMP JUMPDEST PUSH1 0x0 PUSH1 0x20 DUP3 DUP5 SUB SLT ISZERO PUSH2 0x22A2 JUMPI PUSH2 0x22A1 PUSH2 0x2DCA JUMP JUMPDEST JUMPDEST PUSH1 0x0 PUSH2 0x22B0 DUP5 DUP3 DUP6 ADD PUSH2 0x20D3 JUMP JUMPDEST SWAP2 POP POP SWAP3 SWAP2 POP POP JUMP JUMPDEST PUSH1 0x0 PUSH1 0x20 DUP3 DUP5 SUB SLT ISZERO PUSH2 0x22CF JUMPI PUSH2 0x22CE PUSH2 0x2DCA JUMP JUMPDEST JUMPDEST PUSH1 0x0 PUSH2 0x22DD DUP5 DUP3 DUP6 ADD PUSH2 0x20E8 JUMP JUMPDEST SWAP2 POP POP SWAP3 SWAP2 POP POP JUMP JUMPDEST PUSH1 0x0 PUSH1 0x20 DUP3 DUP5 SUB SLT ISZERO PUSH2 0x22FC JUMPI PUSH2 0x22FB PUSH2 0x2DCA JUMP JUMPDEST JUMPDEST PUSH1 0x0 PUSH2 0x230A DUP5 DUP3 DUP6 ADD PUSH2 0x20FD JUMP JUMPDEST SWAP2 POP POP SWAP3 SWAP2 POP POP JUMP JUMPDEST PUSH1 0x0 PUSH2 0x231F DUP4 DUP4 PUSH2 0x232B JUMP JUMPDEST PUSH1 0x20 DUP4 ADD SWAP1 POP SWAP3 SWAP2 POP POP JUMP JUMPDEST PUSH2 0x2334 DUP2 PUSH2 0x2BBF JUMP JUMPDEST DUP3 MSTORE POP POP JUMP JUMPDEST PUSH2 0x2343 DUP2 PUSH2 0x2BBF JUMP JUMPDEST DUP3 MSTORE POP POP JUMP JUMPDEST PUSH1 0x0 PUSH2 0x2354 DUP3 PUSH2 0x2A6D JUMP JUMPDEST PUSH2 0x235E DUP2 DUP6 PUSH2 0x2AB3 JUMP JUMPDEST SWAP4 POP PUSH2 0x2369 DUP4 PUSH2 0x2A48 JUMP JUMPDEST DUP1 PUSH1 0x0 JUMPDEST DUP4 DUP2 LT ISZERO PUSH2 0x239A JUMPI DUP2 MLOAD PUSH2 0x2381 DUP9 DUP3 PUSH2 0x2313 JUMP JUMPDEST SWAP8 POP PUSH2 0x238C DUP4 PUSH2 0x2A99 JUMP JUMPDEST SWAP3 POP POP PUSH1 0x1 DUP2 ADD SWAP1 POP PUSH2 0x236D JUMP JUMPDEST POP DUP6 SWAP4 POP POP POP POP SWAP3 SWAP2 POP POP JUMP JUMPDEST PUSH1 0x0 PUSH2 0x23B2 DUP3 PUSH2 0x2A78 JUMP JUMPDEST PUSH2 0x23BC DUP2 DUP6 PUSH2 0x2AB3 JUMP JUMPDEST SWAP4 POP PUSH2 0x23C7 DUP4 PUSH2 0x2A58 JUMP JUMPDEST DUP1 PUSH1 0x0 JUMPDEST DUP4 DUP2 LT ISZERO PUSH2 0x23FF JUMPI PUSH2 0x23DC DUP3 PUSH2 0x2DA8 JUMP JUMPDEST PUSH2 0x23E6 DUP9 DUP3 PUSH2 0x2313 JUMP JUMPDEST SWAP8 POP PUSH2 0x23F1 DUP4 PUSH2 0x2AA6 JUMP JUMPDEST SWAP3 POP POP PUSH1 0x1 DUP2 ADD SWAP1 POP PUSH2 0x23CB JUMP JUMPDEST POP DUP6 SWAP4 POP POP POP POP SWAP3 SWAP2 POP POP JUMP JUMPDEST PUSH2 0x2415 DUP2 PUSH2 0x2BD1 JUMP JUMPDEST DUP3 MSTORE POP POP JUMP JUMPDEST PUSH1 0x0 PUSH2 0x2426 DUP3 PUSH2 0x2A83 JUMP JUMPDEST PUSH2 0x2430 DUP2 DUP6 PUSH2 0x2AC4 JUMP JUMPDEST SWAP4 POP PUSH2 0x2440 DUP2 DUP6 PUSH1 0x20 DUP7 ADD PUSH2 0x2C6E JUMP JUMPDEST DUP1 DUP5 ADD SWAP2 POP POP SWAP3 SWAP2 POP POP JUMP JUMPDEST PUSH2 0x2455 DUP2 PUSH2 0x2C14 JUMP JUMPDEST DUP3 MSTORE POP POP JUMP JUMPDEST PUSH2 0x2464 DUP2 PUSH2 0x2C26 JUMP JUMPDEST DUP3 MSTORE POP POP JUMP JUMPDEST PUSH2 0x2473 DUP2 PUSH2 0x2C38 JUMP JUMPDEST DUP3 MSTORE POP POP JUMP JUMPDEST PUSH1 0x0 PUSH2 0x2484 DUP3 PUSH2 0x2A8E JUMP JUMPDEST PUSH2 0x248E DUP2 DUP6 PUSH2 0x2ACF JUMP JUMPDEST SWAP4 POP PUSH2 0x249E DUP2 DUP6 PUSH1 0x20 DUP7 ADD PUSH2 0x2C6E JUMP JUMPDEST PUSH2 0x24A7 DUP2 PUSH2 0x2DCF JUMP JUMPDEST DUP5 ADD SWAP2 POP POP SWAP3 SWAP2 POP POP JUMP JUMPDEST PUSH1 0x0 PUSH2 0x24BF PUSH1 0xC DUP4 PUSH2 0x2ACF JUMP JUMPDEST SWAP2 POP PUSH2 0x24CA DUP3 PUSH2 0x2DED JUMP JUMPDEST PUSH1 0x20 DUP3 ADD SWAP1 POP SWAP2 SWAP1 POP JUMP JUMPDEST PUSH1 0x0 PUSH2 0x24E2 PUSH1 0x5 DUP4 PUSH2 0x2ACF JUMP JUMPDEST SWAP2 POP PUSH2 0x24ED DUP3 PUSH2 0x2E16 JUMP JUMPDEST PUSH1 0x20 DUP3 ADD SWAP1 POP SWAP2 SWAP1 POP JUMP JUMPDEST PUSH1 0x0 PUSH2 0x2505 PUSH1 0x26 DUP4 PUSH2 0x2ACF JUMP JUMPDEST SWAP2 POP PUSH2 0x2510 DUP3 PUSH2 0x2E3F JUMP JUMPDEST PUSH1 0x40 DUP3 ADD SWAP1 POP SWAP2 SWAP1 POP JUMP JUMPDEST PUSH1 0x0 PUSH2 0x2528 PUSH1 0x26 DUP4 PUSH2 0x2ACF JUMP JUMPDEST SWAP2 POP PUSH2 0x2533 DUP3 PUSH2 0x2E8E JUMP JUMPDEST PUSH1 0x40 DUP3 ADD SWAP1 POP SWAP2 SWAP1 POP JUMP JUMPDEST PUSH1 0x0 PUSH2 0x254B PUSH1 0x4 DUP4 PUSH2 0x2ACF JUMP JUMPDEST SWAP2 POP PUSH2 0x2556 DUP3 PUSH2 0x2EDD JUMP JUMPDEST PUSH1 0x20 DUP3 ADD SWAP1 POP SWAP2 SWAP1 POP JUMP JUMPDEST PUSH1 0x0 PUSH2 0x256E PUSH1 0x8 DUP4 PUSH2 0x2ACF JUMP JUMPDEST SWAP2 POP PUSH2 0x2579 DUP3 PUSH2 0x2F06 JUMP JUMPDEST PUSH1 0x20 DUP3 ADD SWAP1 POP SWAP2 SWAP1 POP JUMP JUMPDEST PUSH1 0x0 PUSH2 0x2591 PUSH1 0x2E DUP4 PUSH2 0x2ACF JUMP JUMPDEST SWAP2 POP PUSH2 0x259C DUP3 PUSH2 0x2F2F JUMP JUMPDEST PUSH1 0x40 DUP3 ADD SWAP1 POP SWAP2 SWAP1 POP JUMP JUMPDEST PUSH1 0x0 PUSH2 0x25B4 PUSH1 0x20 DUP4 PUSH2 0x2ACF JUMP JUMPDEST SWAP2 POP PUSH2 0x25BF DUP3 PUSH2 0x2F7E JUMP JUMPDEST PUSH1 0x20 DUP3 ADD SWAP1 POP SWAP2 SWAP1 POP JUMP JUMPDEST PUSH1 0x0 PUSH2 0x25D7 PUSH1 0x5 DUP4 PUSH2 0x2ACF JUMP JUMPDEST SWAP2 POP PUSH2 0x25E2 DUP3 PUSH2 0x2FA7 JUMP JUMPDEST PUSH1 0x20 DUP3 ADD SWAP1 POP SWAP2 SWAP1 POP JUMP JUMPDEST PUSH1 0x0 PUSH2 0x25FA PUSH1 0x1D DUP4 PUSH2 0x2ACF JUMP JUMPDEST SWAP2 POP PUSH2 0x2605 DUP3 PUSH2 0x2FD0 JUMP JUMPDEST PUSH1 0x20 DUP3 ADD SWAP1 POP SWAP2 SWAP1 POP JUMP JUMPDEST PUSH1 0x0 PUSH2 0x261D PUSH1 0x2B DUP4 PUSH2 0x2ACF JUMP JUMPDEST SWAP2 POP PUSH2 0x2628 DUP3 PUSH2 0x2FF9 JUMP JUMPDEST PUSH1 0x40 DUP3 ADD SWAP1 POP SWAP2 SWAP1 POP JUMP JUMPDEST PUSH1 0x0 PUSH2 0x2640 PUSH1 0x2A DUP4 PUSH2 0x2ACF JUMP JUMPDEST SWAP2 POP PUSH2 0x264B DUP3 PUSH2 0x3048 JUMP JUMPDEST PUSH1 0x40 DUP3 ADD SWAP1 POP SWAP2 SWAP1 POP JUMP JUMPDEST PUSH1 0x0 PUSH2 0x2663 PUSH1 0x36 DUP4 PUSH2 0x2ACF JUMP JUMPDEST SWAP2 POP PUSH2 0x266E DUP3 PUSH2 0x3097 JUMP JUMPDEST PUSH1 0x40 DUP3 ADD SWAP1 POP SWAP2 SWAP1 POP JUMP JUMPDEST PUSH2 0x2682 DUP2 PUSH2 0x2BFD JUMP JUMPDEST DUP3 MSTORE POP POP JUMP JUMPDEST PUSH1 0x0 PUSH2 0x2694 DUP3 DUP5 PUSH2 0x241B JUMP JUMPDEST SWAP2 POP DUP2 SWAP1 POP SWAP3 SWAP2 POP POP JUMP JUMPDEST PUSH1 0x0 PUSH1 0x20 DUP3 ADD SWAP1 POP PUSH2 0x26B4 PUSH1 0x0 DUP4 ADD DUP5 PUSH2 0x233A JUMP JUMPDEST SWAP3 SWAP2 POP POP JUMP JUMPDEST PUSH1 0x0 PUSH1 0x40 DUP3 ADD SWAP1 POP PUSH2 0x26CF PUSH1 0x0 DUP4 ADD DUP6 PUSH2 0x233A JUMP JUMPDEST PUSH2 0x26DC PUSH1 0x20 DUP4 ADD DUP5 PUSH2 0x233A JUMP JUMPDEST SWAP4 SWAP3 POP POP POP JUMP JUMPDEST PUSH1 0x0 PUSH1 0x40 DUP3 ADD SWAP1 POP PUSH2 0x26F8 PUSH1 0x0 DUP4 ADD DUP6 PUSH2 0x233A JUMP JUMPDEST PUSH2 0x2705 PUSH1 0x20 DUP4 ADD DUP5 PUSH2 0x2679 JUMP JUMPDEST SWAP4 SWAP3 POP POP POP JUMP JUMPDEST PUSH1 0x0 PUSH1 0x40 DUP3 ADD SWAP1 POP DUP2 DUP2 SUB PUSH1 0x0 DUP4 ADD MSTORE PUSH2 0x2726 DUP2 DUP6 PUSH2 0x23A7 JUMP JUMPDEST SWAP1 POP DUP2 DUP2 SUB PUSH1 0x20 DUP4 ADD MSTORE PUSH2 0x273A DUP2 DUP5 PUSH2 0x2349 JUMP JUMPDEST SWAP1 POP SWAP4 SWAP3 POP POP POP JUMP JUMPDEST PUSH1 0x0 PUSH1 0x20 DUP3 ADD SWAP1 POP PUSH2 0x2758 PUSH1 0x0 DUP4 ADD DUP5 PUSH2 0x240C JUMP JUMPDEST SWAP3 SWAP2 POP POP JUMP JUMPDEST PUSH1 0x0 PUSH1 0x20 DUP3 ADD SWAP1 POP PUSH2 0x2773 PUSH1 0x0 DUP4 ADD DUP5 PUSH2 0x244C JUMP JUMPDEST SWAP3 SWAP2 POP POP JUMP JUMPDEST PUSH1 0x0 PUSH1 0x20 DUP3 ADD SWAP1 POP PUSH2 0x278E PUSH1 0x0 DUP4 ADD DUP5 PUSH2 0x246A JUMP JUMPDEST SWAP3 SWAP2 POP POP JUMP JUMPDEST PUSH1 0x0 PUSH1 0x20 DUP3 ADD SWAP1 POP DUP2 DUP2 SUB PUSH1 0x0 DUP4 ADD MSTORE PUSH2 0x27AE DUP2 DUP5 PUSH2 0x2479 JUMP JUMPDEST SWAP1 POP SWAP3 SWAP2 POP POP JUMP JUMPDEST PUSH1 0x0 PUSH1 0x20 DUP3 ADD SWAP1 POP DUP2 DUP2 SUB PUSH1 0x0 DUP4 ADD MSTORE PUSH2 0x27CF DUP2 PUSH2 0x24B2 JUMP JUMPDEST SWAP1 POP SWAP2 SWAP1 POP JUMP JUMPDEST PUSH1 0x0 PUSH1 0x20 DUP3 ADD SWAP1 POP DUP2 DUP2 SUB PUSH1 0x0 DUP4 ADD MSTORE PUSH2 0x27EF DUP2 PUSH2 0x24D5 JUMP JUMPDEST SWAP1 POP SWAP2 SWAP1 POP JUMP JUMPDEST PUSH1 0x0 PUSH1 0x20 DUP3 ADD SWAP1 POP DUP2 DUP2 SUB PUSH1 0x0 DUP4 ADD MSTORE PUSH2 0x280F DUP2 PUSH2 0x24F8 JUMP JUMPDEST SWAP1 POP SWAP2 SWAP1 POP JUMP JUMPDEST PUSH1 0x0 PUSH1 0x20 DUP3 ADD SWAP1 POP DUP2 DUP2 SUB PUSH1 0x0 DUP4 ADD MSTORE PUSH2 0x282F DUP2 PUSH2 0x251B JUMP JUMPDEST SWAP1 POP SWAP2 SWAP1 POP JUMP JUMPDEST PUSH1 0x0 PUSH1 0x20 DUP3 ADD SWAP1 POP DUP2 DUP2 SUB PUSH1 0x0 DUP4 ADD MSTORE PUSH2 0x284F DUP2 PUSH2 0x253E JUMP JUMPDEST SWAP1 POP SWAP2 SWAP1 POP JUMP JUMPDEST PUSH1 0x0 PUSH1 0x20 DUP3 ADD SWAP1 POP DUP2 DUP2 SUB PUSH1 0x0 DUP4 ADD MSTORE PUSH2 0x286F DUP2 PUSH2 0x2561 JUMP JUMPDEST SWAP1 POP SWAP2 SWAP1 POP JUMP JUMPDEST PUSH1 0x0 PUSH1 0x20 DUP3 ADD SWAP1 POP DUP2 DUP2 SUB PUSH1 0x0 DUP4 ADD MSTORE PUSH2 0x288F DUP2 PUSH2 0x2584 JUMP JUMPDEST SWAP1 POP SWAP2 SWAP1 POP JUMP JUMPDEST PUSH1 0x0 PUSH1 0x20 DUP3 ADD SWAP1 POP DUP2 DUP2 SUB PUSH1 0x0 DUP4 ADD MSTORE PUSH2 0x28AF DUP2 PUSH2 0x25A7 JUMP JUMPDEST SWAP1 POP SWAP2 SWAP1 POP JUMP JUMPDEST PUSH1 0x0 PUSH1 0x20 DUP3 ADD SWAP1 POP DUP2 DUP2 SUB PUSH1 0x0 DUP4 ADD MSTORE PUSH2 0x28CF DUP2 PUSH2 0x25CA JUMP JUMPDEST SWAP1 POP SWAP2 SWAP1 POP JUMP JUMPDEST PUSH1 0x0 PUSH1 0x20 DUP3 ADD SWAP1 POP DUP2 DUP2 SUB PUSH1 0x0 DUP4 ADD MSTORE PUSH2 0x28EF DUP2 PUSH2 0x25ED JUMP JUMPDEST SWAP1 POP SWAP2 SWAP1 POP JUMP JUMPDEST PUSH1 0x0 PUSH1 0x20 DUP3 ADD SWAP1 POP DUP2 DUP2 SUB PUSH1 0x0 DUP4 ADD MSTORE PUSH2 0x290F DUP2 PUSH2 0x2610 JUMP JUMPDEST SWAP1 POP SWAP2 SWAP1 POP JUMP JUMPDEST PUSH1 0x0 PUSH1 0x20 DUP3 ADD SWAP1 POP DUP2 DUP2 SUB PUSH1 0x0 DUP4 ADD MSTORE PUSH2 0x292F DUP2 PUSH2 0x2633 JUMP JUMPDEST SWAP1 POP SWAP2 SWAP1 POP JUMP JUMPDEST PUSH1 0x0 PUSH1 0x20 DUP3 ADD SWAP1 POP DUP2 DUP2 SUB PUSH1 0x0 DUP4 ADD MSTORE PUSH2 0x294F DUP2 PUSH2 0x2656 JUMP JUMPDEST SWAP1 POP SWAP2 SWAP1 POP JUMP JUMPDEST PUSH1 0x0 PUSH1 0x20 DUP3 ADD SWAP1 POP PUSH2 0x296B PUSH1 0x0 DUP4 ADD DUP5 PUSH2 0x2679 JUMP JUMPDEST SWAP3 SWAP2 POP POP JUMP JUMPDEST PUSH1 0x0 PUSH1 0xA0 DUP3 ADD SWAP1 POP PUSH2 0x2986 PUSH1 0x0 DUP4 ADD DUP9 PUSH2 0x2679 JUMP JUMPDEST PUSH2 0x2993 PUSH1 0x20 DUP4 ADD DUP8 PUSH2 0x245B JUMP JUMPDEST DUP2 DUP2 SUB PUSH1 0x40 DUP4 ADD MSTORE PUSH2 0x29A5 DUP2 DUP7 PUSH2 0x23A7 JUMP JUMPDEST SWAP1 POP PUSH2 0x29B4 PUSH1 0x60 DUP4 ADD DUP6 PUSH2 0x233A JUMP JUMPDEST PUSH2 0x29C1 PUSH1 0x80 DUP4 ADD DUP5 PUSH2 0x2679 JUMP JUMPDEST SWAP7 SWAP6 POP POP POP POP POP POP JUMP JUMPDEST PUSH1 0x0 PUSH2 0x29D5 PUSH2 0x29E6 JUMP JUMPDEST SWAP1 POP PUSH2 0x29E1 DUP3 DUP3 PUSH2 0x2CBB JUMP JUMPDEST SWAP2 SWAP1 POP JUMP JUMPDEST PUSH1 0x0 PUSH1 0x40 MLOAD SWAP1 POP SWAP1 JUMP JUMPDEST PUSH1 0x0 PUSH8 0xFFFFFFFFFFFFFFFF DUP3 GT ISZERO PUSH2 0x2A0B JUMPI PUSH2 0x2A0A PUSH2 0x2D79 JUMP JUMPDEST JUMPDEST PUSH1 0x20 DUP3 MUL SWAP1 POP PUSH1 0x20 DUP2 ADD SWAP1 POP SWAP2 SWAP1 POP JUMP JUMPDEST PUSH1 0x0 PUSH8 0xFFFFFFFFFFFFFFFF DUP3 GT ISZERO PUSH2 0x2A37 JUMPI PUSH2 0x2A36 PUSH2 0x2D79 JUMP JUMPDEST JUMPDEST PUSH1 0x20 DUP3 MUL SWAP1 POP PUSH1 0x20 DUP2 ADD SWAP1 POP SWAP2 SWAP1 POP JUMP JUMPDEST PUSH1 0x0 DUP2 SWAP1 POP PUSH1 0x20 DUP3 ADD SWAP1 POP SWAP2 SWAP1 POP JUMP JUMPDEST PUSH1 0x0 DUP2 SWAP1 POP DUP2 PUSH1 0x0 MSTORE PUSH1 0x20 PUSH1 0x0 KECCAK256 SWAP1 POP SWAP2 SWAP1 POP JUMP JUMPDEST PUSH1 0x0 DUP2 MLOAD SWAP1 POP SWAP2 SWAP1 POP JUMP JUMPDEST PUSH1 0x0 DUP2 SLOAD SWAP1 POP SWAP2 SWAP1 POP JUMP JUMPDEST PUSH1 0x0 DUP2 MLOAD SWAP1 POP SWAP2 SWAP1 POP JUMP JUMPDEST PUSH1 0x0 DUP2 MLOAD SWAP1 POP SWAP2 SWAP1 POP JUMP JUMPDEST PUSH1 0x0 PUSH1 0x20 DUP3 ADD SWAP1 POP SWAP2 SWAP1 POP JUMP JUMPDEST PUSH1 0x0 PUSH1 0x1 DUP3 ADD SWAP1 POP SWAP2 SWAP1 POP JUMP JUMPDEST PUSH1 0x0 DUP3 DUP3 MSTORE PUSH1 0x20 DUP3 ADD SWAP1 POP SWAP3 SWAP2 POP POP JUMP JUMPDEST PUSH1 0x0 DUP2 SWAP1 POP SWAP3 SWAP2 POP POP JUMP JUMPDEST PUSH1 0x0 DUP3 DUP3 MSTORE PUSH1 0x20 DUP3 ADD SWAP1 POP SWAP3 SWAP2 POP POP JUMP JUMPDEST PUSH1 0x0 PUSH2 0x2AEB DUP3 PUSH2 0x2BFD JUMP JUMPDEST SWAP2 POP PUSH2 0x2AF6 DUP4 PUSH2 0x2BFD JUMP JUMPDEST SWAP3 POP DUP3 PUSH2 0x2B06 JUMPI PUSH2 0x2B05 PUSH2 0x2D1B JUMP JUMPDEST JUMPDEST DUP3 DUP3 DIV SWAP1 POP SWAP3 SWAP2 POP POP JUMP JUMPDEST PUSH1 0x0 PUSH2 0x2B1C DUP3 PUSH2 0x2BFD JUMP JUMPDEST SWAP2 POP PUSH2 0x2B27 DUP4 PUSH2 0x2BFD JUMP JUMPDEST SWAP3 POP DUP2 PUSH32 0xFFFFFFFFFFFFFFFFFFFFFFFFFFFFFFFFFFFFFFFFFFFFFFFFFFFFFFFFFFFFFFFF DIV DUP4 GT DUP3 ISZERO ISZERO AND ISZERO PUSH2 0x2B60 JUMPI PUSH2 0x2B5F PUSH2 0x2CEC JUMP JUMPDEST JUMPDEST DUP3 DUP3 MUL SWAP1 POP SWAP3 SWAP2 POP POP JUMP JUMPDEST PUSH1 0x0 PUSH2 0x2B76 DUP3 PUSH2 0x2BFD JUMP JUMPDEST SWAP2 POP PUSH2 0x2B81 DUP4 PUSH2 0x2BFD JUMP JUMPDEST SWAP3 POP DUP3 DUP3 LT ISZERO PUSH2 0x2B94 JUMPI PUSH2 0x2B93 PUSH2 0x2CEC JUMP JUMPDEST JUMPDEST DUP3 DUP3 SUB SWAP1 POP SWAP3 SWAP2 POP POP JUMP JUMPDEST PUSH1 0x0 PUSH20 0xFFFFFFFFFFFFFFFFFFFFFFFFFFFFFFFFFFFFFFFF DUP3 AND SWAP1 POP SWAP2 SWAP1 POP JUMP JUMPDEST PUSH1 0x0 PUSH2 0x2BCA DUP3 PUSH2 0x2BDD JUMP JUMPDEST SWAP1 POP SWAP2 SWAP1 POP JUMP JUMPDEST PUSH1 0x0 DUP2 ISZERO ISZERO SWAP1 POP SWAP2 SWAP1 POP JUMP JUMPDEST PUSH1 0x0 PUSH20 0xFFFFFFFFFFFFFFFFFFFFFFFFFFFFFFFFFFFFFFFF DUP3 AND SWAP1 POP SWAP2 SWAP1 POP JUMP JUMPDEST PUSH1 0x0 DUP2 SWAP1 POP SWAP2 SWAP1 POP JUMP JUMPDEST PUSH1 0x0 PUSH1 0xFF DUP3 AND SWAP1 POP SWAP2 SWAP1 POP JUMP JUMPDEST PUSH1 0x0 PUSH2 0x2C1F DUP3 PUSH2 0x2C4A JUMP JUMPDEST SWAP1 POP SWAP2 SWAP1 POP JUMP JUMPDEST PUSH1 0x0 PUSH2 0x2C31 DUP3 PUSH2 0x2BFD JUMP JUMPDEST SWAP1 POP SWAP2 SWAP1 POP JUMP JUMPDEST PUSH1 0x0 PUSH2 0x2C43 DUP3 PUSH2 0x2C07 JUMP JUMPDEST SWAP1 POP SWAP2 SWAP1 POP JUMP JUMPDEST PUSH1 0x0 PUSH2 0x2C55 DUP3 PUSH2 0x2C5C JUMP JUMPDEST SWAP1 POP SWAP2 SWAP1 POP JUMP JUMPDEST PUSH1 0x0 PUSH2 0x2C67 DUP3 PUSH2 0x2BDD JUMP JUMPDEST SWAP1 POP SWAP2 SWAP1 POP JUMP JUMPDEST PUSH1 0x0 JUMPDEST DUP4 DUP2 LT ISZERO PUSH2 0x2C8C JUMPI DUP1 DUP3 ADD MLOAD DUP2 DUP5 ADD MSTORE PUSH1 0x20 DUP2 ADD SWAP1 POP PUSH2 0x2C71 JUMP JUMPDEST DUP4 DUP2 GT ISZERO PUSH2 0x2C9B JUMPI PUSH1 0x0 DUP5 DUP5 ADD MSTORE JUMPDEST POP POP POP POP JUMP JUMPDEST PUSH1 0x0 PUSH2 0x2CB4 PUSH2 0x2CAF DUP4 PUSH2 0x2DE0 JUMP JUMPDEST PUSH2 0x2B9F JUMP JUMPDEST SWAP1 POP SWAP2 SWAP1 POP JUMP JUMPDEST PUSH2 0x2CC4 DUP3 PUSH2 0x2DCF JUMP JUMPDEST DUP2 ADD DUP2 DUP2 LT PUSH8 0xFFFFFFFFFFFFFFFF DUP3 GT OR ISZERO PUSH2 0x2CE3 JUMPI PUSH2 0x2CE2 PUSH2 0x2D79 JUMP JUMPDEST JUMPDEST DUP1 PUSH1 0x40 MSTORE POP POP POP JUMP JUMPDEST PUSH32 0x4E487B7100000000000000000000000000000000000000000000000000000000 PUSH1 0x0 MSTORE PUSH1 0x11 PUSH1 0x4 MSTORE PUSH1 0x24 PUSH1 0x0 REVERT JUMPDEST PUSH32 0x4E487B7100000000000000000000000000000000000000000000000000000000 PUSH1 0x0 MSTORE PUSH1 0x12 PUSH1 0x4 MSTORE PUSH1 0x24 PUSH1 0x0 REVERT JUMPDEST PUSH32 0x4E487B7100000000000000000000000000000000000000000000000000000000 PUSH1 0x0 MSTORE PUSH1 0x32 PUSH1 0x4 MSTORE PUSH1 0x24 PUSH1 0x0 REVERT JUMPDEST PUSH32 0x4E487B7100000000000000000000000000000000000000000000000000000000 PUSH1 0x0 MSTORE PUSH1 0x41 PUSH1 0x4 MSTORE PUSH1 0x24 PUSH1 0x0 REVERT JUMPDEST PUSH1 0x0 PUSH2 0x2DB4 DUP3 SLOAD PUSH2 0x2CA1 JUMP JUMPDEST SWAP1 POP SWAP2 SWAP1 POP JUMP JUMPDEST PUSH1 0x0 DUP1 REVERT JUMPDEST PUSH1 0x0 DUP1 REVERT JUMPDEST PUSH1 0x0 DUP1 REVERT JUMPDEST PUSH1 0x0 DUP1 REVERT JUMPDEST PUSH1 0x0 PUSH1 0x1F NOT PUSH1 0x1F DUP4 ADD AND SWAP1 POP SWAP2 SWAP1 POP JUMP JUMPDEST PUSH1 0x0 DUP2 PUSH1 0x0 SHR SWAP1 POP SWAP2 SWAP1 POP JUMP JUMPDEST PUSH32 0x21696E697469616C697A65640000000000000000000000000000000000000000 PUSH1 0x0 DUP3 ADD MSTORE POP JUMP JUMPDEST PUSH32 0x2173616665000000000000000000000000000000000000000000000000000000 PUSH1 0x0 DUP3 ADD MSTORE POP JUMP JUMPDEST PUSH32 0x4F776E61626C653A206E6577206F776E657220697320746865207A65726F2061 PUSH1 0x0 DUP3 ADD MSTORE PUSH32 0x6464726573730000000000000000000000000000000000000000000000000000 PUSH1 0x20 DUP3 ADD MSTORE POP JUMP JUMPDEST PUSH32 0x416464726573733A20696E73756666696369656E742062616C616E636520666F PUSH1 0x0 DUP3 ADD MSTORE PUSH32 0x722063616C6C0000000000000000000000000000000000000000000000000000 PUSH1 0x20 DUP3 ADD MSTORE POP JUMP JUMPDEST PUSH32 0x2163617000000000000000000000000000000000000000000000000000000000 PUSH1 0x0 DUP3 ADD MSTORE POP JUMP JUMPDEST PUSH32 0x21774E6174697665000000000000000000000000000000000000000000000000 PUSH1 0x0 DUP3 ADD MSTORE POP JUMP JUMPDEST PUSH32 0x496E697469616C697A61626C653A20636F6E747261637420697320616C726561 PUSH1 0x0 DUP3 ADD MSTORE PUSH32 0x647920696E697469616C697A6564000000000000000000000000000000000000 PUSH1 0x20 DUP3 ADD MSTORE POP JUMP JUMPDEST PUSH32 0x4F776E61626C653A2063616C6C6572206973206E6F7420746865206F776E6572 PUSH1 0x0 DUP3 ADD MSTORE POP JUMP JUMPDEST PUSH32 0x2164796F73000000000000000000000000000000000000000000000000000000 PUSH1 0x0 DUP3 ADD MSTORE POP JUMP JUMPDEST PUSH32 0x416464726573733A2063616C6C20746F206E6F6E2D636F6E7472616374000000 PUSH1 0x0 DUP3 ADD MSTORE POP JUMP JUMPDEST PUSH32 0x496E697469616C697A61626C653A20636F6E7472616374206973206E6F742069 PUSH1 0x0 DUP3 ADD MSTORE PUSH32 0x6E697469616C697A696E67000000000000000000000000000000000000000000 PUSH1 0x20 DUP3 ADD MSTORE POP JUMP JUMPDEST PUSH32 0x5361666545524332303A204552433230206F7065726174696F6E20646964206E PUSH1 0x0 DUP3 ADD MSTORE PUSH32 0x6F74207375636365656400000000000000000000000000000000000000000000 PUSH1 0x20 DUP3 ADD MSTORE POP JUMP JUMPDEST PUSH32 0x5361666545524332303A20617070726F76652066726F6D206E6F6E2D7A65726F PUSH1 0x0 DUP3 ADD MSTORE PUSH32 0x20746F206E6F6E2D7A65726F20616C6C6F77616E636500000000000000000000 PUSH1 0x20 DUP3 ADD MSTORE POP JUMP JUMPDEST PUSH2 0x30EF DUP2 PUSH2 0x2BBF JUMP JUMPDEST DUP2 EQ PUSH2 0x30FA JUMPI PUSH1 0x0 DUP1 REVERT JUMPDEST POP JUMP JUMPDEST PUSH2 0x3106 DUP2 PUSH2 0x2BD1 JUMP JUMPDEST DUP2 EQ PUSH2 0x3111 JUMPI PUSH1 0x0 DUP1 REVERT JUMPDEST POP JUMP JUMPDEST PUSH2 0x311D DUP2 PUSH2 0x2BFD JUMP JUMPDEST DUP2 EQ PUSH2 0x3128 JUMPI PUSH1 0x0 DUP1 REVERT JUMPDEST POP JUMP INVALID LOG2 PUSH5 0x6970667358 0x22 SLT KECCAK256 PUSH27 0xAAC0FADB60BE133D48897CE4ACDBA33A5191BEFB6437ECF1E6957D DUP15 CALLER PUSH7 0x5364736F6C6343 STOP ADDMOD SMOD STOP CALLER "
				},
				"gasEstimates": {
					"creation": {
						"codeDepositCost": "2528200",
						"executionCost": "2733",
						"totalCost": "2530933"
					},
					"external": {
						"MAX_FEE()": "462",
						"changeTreasuryFee(uint256)": "24895",
						"govToken()": "2624",
						"harvest()": "infinite",
						"inCaseTokensGetStuck(address,address)": "infinite",
						"initRouter(address)": "infinite",
						"initialize(address,address,address,address,address)": "infinite",
						"owner()": "2611",
						"renounceOwnership()": "30421",
						"rewardPool()": "2625",
						"rewardPoolFee()": "2496",
						"rewardPoolInitialized()": "2565",
						"routerInitialized()": "2605",
						"setNativeToGovTokenRoute(address[])": "infinite",
						"setRewardPool(address)": "infinite",
						"setTreasury(address)": "infinite",
						"setTreasuryFee(uint256)": "infinite",
						"setUnirouter(address)": "infinite",
						"transferOwnership(address)": "30857",
						"transferRewardPoolOwnership(address)": "infinite",
						"treasury()": "2603",
						"treasuryFee()": "2518",
						"unirouter()": "2626",
						"wNative()": "2623",
						"wNativeToGovTokenRoute(uint256)": "5001"
					},
					"internal": {
						"_initRouter(address)": "infinite"
					}
				},
				"methodIdentifiers": {
					"MAX_FEE()": "bc063e1a",
					"changeTreasuryFee(uint256)": "b931666b",
					"govToken()": "05268cff",
					"harvest()": "4641257d",
					"inCaseTokensGetStuck(address,address)": "1939bbc1",
					"initRouter(address)": "1166b44b",
					"initialize(address,address,address,address,address)": "1459457a",
					"owner()": "8da5cb5b",
					"renounceOwnership()": "715018a6",
					"rewardPool()": "66666aa9",
					"rewardPoolFee()": "c6854db8",
					"rewardPoolInitialized()": "d0debecc",
					"routerInitialized()": "2bd63831",
					"setNativeToGovTokenRoute(address[])": "6a369c86",
					"setRewardPool(address)": "78238c37",
					"setTreasury(address)": "f0f44260",
					"setTreasuryFee(uint256)": "77e741c7",
					"setUnirouter(address)": "d92f3d73",
					"transferOwnership(address)": "f2fde38b",
					"transferRewardPoolOwnership(address)": "4708dd5e",
					"treasury()": "61d027b3",
					"treasuryFee()": "cc32d176",
					"unirouter()": "257ae0de",
					"wNative()": "2d68efc9",
					"wNativeToGovTokenRoute(uint256)": "bde46e7c"
				}
			},
			"storageLayout": {
				"storage": [
					{
						"astId": 138,
						"contract": "infra/FeeBatch.sol:FeeBatch",
						"label": "_initialized",
						"offset": 0,
						"slot": "0",
						"type": "t_uint8"
					},
					{
						"astId": 141,
						"contract": "infra/FeeBatch.sol:FeeBatch",
						"label": "_initializing",
						"offset": 1,
						"slot": "0",
						"type": "t_bool"
					},
					{
						"astId": 1597,
						"contract": "infra/FeeBatch.sol:FeeBatch",
						"label": "__gap",
						"offset": 0,
						"slot": "1",
						"type": "t_array(t_uint256)50_storage"
					},
					{
						"astId": 10,
						"contract": "infra/FeeBatch.sol:FeeBatch",
						"label": "_owner",
						"offset": 0,
						"slot": "51",
						"type": "t_address"
					},
					{
						"astId": 130,
						"contract": "infra/FeeBatch.sol:FeeBatch",
						"label": "__gap",
						"offset": 0,
						"slot": "52",
						"type": "t_array(t_uint256)49_storage"
					},
					{
						"astId": 1644,
						"contract": "infra/FeeBatch.sol:FeeBatch",
						"label": "wNative",
						"offset": 0,
						"slot": "101",
						"type": "t_contract(IERC20Upgradeable)971"
					},
					{
						"astId": 1647,
						"contract": "infra/FeeBatch.sol:FeeBatch",
						"label": "govToken",
						"offset": 0,
						"slot": "102",
						"type": "t_contract(IERC20Upgradeable)971"
					},
					{
						"astId": 1649,
						"contract": "infra/FeeBatch.sol:FeeBatch",
						"label": "treasury",
						"offset": 0,
						"slot": "103",
						"type": "t_address"
					},
					{
						"astId": 1651,
						"contract": "infra/FeeBatch.sol:FeeBatch",
						"label": "rewardPool",
						"offset": 0,
						"slot": "104",
						"type": "t_address"
					},
					{
						"astId": 1653,
						"contract": "infra/FeeBatch.sol:FeeBatch",
						"label": "unirouter",
						"offset": 0,
						"slot": "105",
						"type": "t_address"
					},
					{
						"astId": 1658,
						"contract": "infra/FeeBatch.sol:FeeBatch",
						"label": "treasuryFee",
						"offset": 0,
						"slot": "106",
						"type": "t_uint256"
					},
					{
						"astId": 1660,
						"contract": "infra/FeeBatch.sol:FeeBatch",
						"label": "rewardPoolFee",
						"offset": 0,
						"slot": "107",
						"type": "t_uint256"
					},
					{
						"astId": 1663,
						"contract": "infra/FeeBatch.sol:FeeBatch",
						"label": "wNativeToGovTokenRoute",
						"offset": 0,
						"slot": "108",
						"type": "t_array(t_address)dyn_storage"
					},
					{
						"astId": 1665,
						"contract": "infra/FeeBatch.sol:FeeBatch",
						"label": "routerInitialized",
						"offset": 0,
						"slot": "109",
						"type": "t_bool"
					},
					{
						"astId": 1667,
						"contract": "infra/FeeBatch.sol:FeeBatch",
						"label": "rewardPoolInitialized",
						"offset": 1,
						"slot": "109",
						"type": "t_bool"
					}
				],
				"types": {
					"t_address": {
						"encoding": "inplace",
						"label": "address",
						"numberOfBytes": "20"
					},
					"t_array(t_address)dyn_storage": {
						"base": "t_address",
						"encoding": "dynamic_array",
						"label": "address[]",
						"numberOfBytes": "32"
					},
					"t_array(t_uint256)49_storage": {
						"base": "t_uint256",
						"encoding": "inplace",
						"label": "uint256[49]",
						"numberOfBytes": "1568"
					},
					"t_array(t_uint256)50_storage": {
						"base": "t_uint256",
						"encoding": "inplace",
						"label": "uint256[50]",
						"numberOfBytes": "1600"
					},
					"t_bool": {
						"encoding": "inplace",
						"label": "bool",
						"numberOfBytes": "1"
					},
					"t_contract(IERC20Upgradeable)971": {
						"encoding": "inplace",
						"label": "contract IERC20Upgradeable",
						"numberOfBytes": "20"
					},
					"t_uint256": {
						"encoding": "inplace",
						"label": "uint256",
						"numberOfBytes": "32"
					},
					"t_uint8": {
						"encoding": "inplace",
						"label": "uint8",
						"numberOfBytes": "1"
					}
				}
			},
			"userdoc": {
				"kind": "user",
				"methods": {},
				"version": 1
			}
		}
	}
}