{
	"infra/CashBackFee.sol": {
		"CashBackFee": {
			"abi": [
				{
					"inputs": [
						{
							"internalType": "address",
							"name": "_treasury",
							"type": "address"
						},
						{
							"internalType": "address",
							"name": "_wNative",
							"type": "address"
						},
						{
							"internalType": "address",
							"name": "_govToken",
							"type": "address"
						}
					],
					"stateMutability": "nonpayable",
					"type": "constructor"
				},
				{
					"inputs": [
						{
							"internalType": "uint256",
							"name": "_amount",
							"type": "uint256"
						}
					],
					"name": "cashbackFeeClaim",
					"outputs": [],
					"stateMutability": "nonpayable",
					"type": "function"
				}
			],
			"devdoc": {
				"kind": "dev",
				"methods": {},
				"version": 1
			},
			"evm": {
				"assembly": "    /* \"infra/CashBackFee.sol\":171:765  contract CashBackFee {... */\n  mstore(0x40, 0x80)\n    /* \"infra/CashBackFee.sol\":369:568  constructor (address _treasury,address _wNative,address _govToken){... */\n  callvalue\n  dup1\n  iszero\n  tag_1\n  jumpi\n  0x00\n  dup1\n  revert\ntag_1:\n  pop\n  mload(0x40)\n  sub(codesize, bytecodeSize)\n  dup1\n  bytecodeSize\n  dup4\n  codecopy\n  dup2\n  dup2\n  add\n  0x40\n  mstore\n  dup2\n  add\n  swap1\n  tag_2\n  swap2\n  swap1\n  tag_3\n  jump\t// in\ntag_2:\n    /* \"infra/CashBackFee.sol\":473:482  _govToken */\n  dup1\n    /* \"infra/CashBackFee.sol\":444:452  govToken */\n  0x02\n  0x00\n    /* \"infra/CashBackFee.sol\":444:483  govToken = IERC20Upgradeable(_govToken) */\n  0x0100\n  exp\n  dup2\n  sload\n  dup2\n  0xffffffffffffffffffffffffffffffffffffffff\n  mul\n  not\n  and\n  swap1\n  dup4\n  0xffffffffffffffffffffffffffffffffffffffff\n  and\n  mul\n  or\n  swap1\n  sstore\n  pop\n    /* \"infra/CashBackFee.sol\":522:530  _wNative */\n  dup2\n    /* \"infra/CashBackFee.sol\":493:500  wNative */\n  0x01\n  0x00\n    /* \"infra/CashBackFee.sol\":493:531  wNative  = IERC20Upgradeable(_wNative) */\n  0x0100\n  exp\n  dup2\n  sload\n  dup2\n  0xffffffffffffffffffffffffffffffffffffffff\n  mul\n  not\n  and\n  swap1\n  dup4\n  0xffffffffffffffffffffffffffffffffffffffff\n  and\n  mul\n  or\n  swap1\n  sstore\n  pop\n    /* \"infra/CashBackFee.sol\":552:561  _treasury */\n  dup3\n    /* \"infra/CashBackFee.sol\":541:549  treasury */\n  0x00\n  dup1\n    /* \"infra/CashBackFee.sol\":541:561  treasury = _treasury */\n  0x0100\n  exp\n  dup2\n  sload\n  dup2\n  0xffffffffffffffffffffffffffffffffffffffff\n  mul\n  not\n  and\n  swap1\n  dup4\n  0xffffffffffffffffffffffffffffffffffffffff\n  and\n  mul\n  or\n  swap1\n  sstore\n  pop\n    /* \"infra/CashBackFee.sol\":369:568  constructor (address _treasury,address _wNative,address _govToken){... */\n  pop\n  pop\n  pop\n    /* \"infra/CashBackFee.sol\":171:765  contract CashBackFee {... */\n  jump(tag_6)\n    /* \"#utility.yul\":7:150   */\ntag_8:\n    /* \"#utility.yul\":64:69   */\n  0x00\n    /* \"#utility.yul\":95:101   */\n  dup2\n    /* \"#utility.yul\":89:102   */\n  mload\n    /* \"#utility.yul\":80:102   */\n  swap1\n  pop\n    /* \"#utility.yul\":111:144   */\n  tag_10\n    /* \"#utility.yul\":138:143   */\n  dup2\n    /* \"#utility.yul\":111:144   */\n  tag_11\n  jump\t// in\ntag_10:\n    /* \"#utility.yul\":7:150   */\n  swap3\n  swap2\n  pop\n  pop\n  jump\t// out\n    /* \"#utility.yul\":156:819   */\ntag_3:\n    /* \"#utility.yul\":244:250   */\n  0x00\n    /* \"#utility.yul\":252:258   */\n  dup1\n    /* \"#utility.yul\":260:266   */\n  0x00\n    /* \"#utility.yul\":309:311   */\n  0x60\n    /* \"#utility.yul\":297:306   */\n  dup5\n    /* \"#utility.yul\":288:295   */\n  dup7\n    /* \"#utility.yul\":284:307   */\n  sub\n    /* \"#utility.yul\":280:312   */\n  slt\n    /* \"#utility.yul\":277:396   */\n  iszero\n  tag_13\n  jumpi\n    /* \"#utility.yul\":315:394   */\n  tag_14\n  tag_15\n  jump\t// in\ntag_14:\n    /* \"#utility.yul\":277:396   */\ntag_13:\n    /* \"#utility.yul\":435:436   */\n  0x00\n    /* \"#utility.yul\":460:524   */\n  tag_16\n    /* \"#utility.yul\":516:523   */\n  dup7\n    /* \"#utility.yul\":507:513   */\n  dup3\n    /* \"#utility.yul\":496:505   */\n  dup8\n    /* \"#utility.yul\":492:514   */\n  add\n    /* \"#utility.yul\":460:524   */\n  tag_8\n  jump\t// in\ntag_16:\n    /* \"#utility.yul\":450:524   */\n  swap4\n  pop\n    /* \"#utility.yul\":406:534   */\n  pop\n    /* \"#utility.yul\":573:575   */\n  0x20\n    /* \"#utility.yul\":599:663   */\n  tag_17\n    /* \"#utility.yul\":655:662   */\n  dup7\n    /* \"#utility.yul\":646:652   */\n  dup3\n    /* \"#utility.yul\":635:644   */\n  dup8\n    /* \"#utility.yul\":631:653   */\n  add\n    /* \"#utility.yul\":599:663   */\n  tag_8\n  jump\t// in\ntag_17:\n    /* \"#utility.yul\":589:663   */\n  swap3\n  pop\n    /* \"#utility.yul\":544:673   */\n  pop\n    /* \"#utility.yul\":712:714   */\n  0x40\n    /* \"#utility.yul\":738:802   */\n  tag_18\n    /* \"#utility.yul\":794:801   */\n  dup7\n    /* \"#utility.yul\":785:791   */\n  dup3\n    /* \"#utility.yul\":774:783   */\n  dup8\n    /* \"#utility.yul\":770:792   */\n  add\n    /* \"#utility.yul\":738:802   */\n  tag_8\n  jump\t// in\ntag_18:\n    /* \"#utility.yul\":728:802   */\n  swap2\n  pop\n    /* \"#utility.yul\":683:812   */\n  pop\n    /* \"#utility.yul\":156:819   */\n  swap3\n  pop\n  swap3\n  pop\n  swap3\n  jump\t// out\n    /* \"#utility.yul\":906:1002   */\ntag_21:\n    /* \"#utility.yul\":943:950   */\n  0x00\n    /* \"#utility.yul\":972:996   */\n  tag_23\n    /* \"#utility.yul\":990:995   */\n  dup3\n    /* \"#utility.yul\":972:996   */\n  tag_24\n  jump\t// in\ntag_23:\n    /* \"#utility.yul\":961:996   */\n  swap1\n  pop\n    /* \"#utility.yul\":906:1002   */\n  swap2\n  swap1\n  pop\n  jump\t// out\n    /* \"#utility.yul\":1008:1134   */\ntag_24:\n    /* \"#utility.yul\":1045:1052   */\n  0x00\n    /* \"#utility.yul\":1085:1127   */\n  0xffffffffffffffffffffffffffffffffffffffff\n    /* \"#utility.yul\":1078:1083   */\n  dup3\n    /* \"#utility.yul\":1074:1128   */\n  and\n    /* \"#utility.yul\":1063:1128   */\n  swap1\n  pop\n    /* \"#utility.yul\":1008:1134   */\n  swap2\n  swap1\n  pop\n  jump\t// out\n    /* \"#utility.yul\":1263:1380   */\ntag_15:\n    /* \"#utility.yul\":1372:1373   */\n  0x00\n    /* \"#utility.yul\":1369:1370   */\n  dup1\n    /* \"#utility.yul\":1362:1374   */\n  revert\n    /* \"#utility.yul\":1386:1508   */\ntag_11:\n    /* \"#utility.yul\":1459:1483   */\n  tag_30\n    /* \"#utility.yul\":1477:1482   */\n  dup2\n    /* \"#utility.yul\":1459:1483   */\n  tag_21\n  jump\t// in\ntag_30:\n    /* \"#utility.yul\":1452:1457   */\n  dup2\n    /* \"#utility.yul\":1449:1484   */\n  eq\n    /* \"#utility.yul\":1439:1502   */\n  tag_31\n  jumpi\n    /* \"#utility.yul\":1498:1499   */\n  0x00\n    /* \"#utility.yul\":1495:1496   */\n  dup1\n    /* \"#utility.yul\":1488:1500   */\n  revert\n    /* \"#utility.yul\":1439:1502   */\ntag_31:\n    /* \"#utility.yul\":1386:1508   */\n  pop\n  jump\t// out\n    /* \"infra/CashBackFee.sol\":171:765  contract CashBackFee {... */\ntag_6:\n  dataSize(sub_0)\n  dup1\n  dataOffset(sub_0)\n  0x00\n  codecopy\n  0x00\n  return\nstop\n\nsub_0: assembly {\n        /* \"infra/CashBackFee.sol\":171:765  contract CashBackFee {... */\n      mstore(0x40, 0x80)\n      callvalue\n      dup1\n      iszero\n      tag_1\n      jumpi\n      0x00\n      dup1\n      revert\n    tag_1:\n      pop\n      jumpi(tag_2, lt(calldatasize, 0x04))\n      shr(0xe0, calldataload(0x00))\n      dup1\n      0xc006aac7\n      eq\n      tag_3\n      jumpi\n    tag_2:\n      0x00\n      dup1\n      revert\n        /* \"infra/CashBackFee.sol\":578:760  function cashbackFeeClaim(uint256 _amount) external {... */\n    tag_3:\n      tag_4\n      0x04\n      dup1\n      calldatasize\n      sub\n      dup2\n      add\n      swap1\n      tag_5\n      swap2\n      swap1\n      tag_6\n      jump\t// in\n    tag_5:\n      tag_7\n      jump\t// in\n    tag_4:\n      stop\n    tag_7:\n        /* \"infra/CashBackFee.sol\":640:662  uint256 accountBalance */\n      0x00\n        /* \"infra/CashBackFee.sol\":665:705  govToken.balanceOf(msg.sender).mul(1e18) */\n      tag_9\n        /* \"infra/CashBackFee.sol\":700:704  1e18 */\n      0x0de0b6b3a7640000\n        /* \"infra/CashBackFee.sol\":665:673  govToken */\n      0x02\n      0x00\n      swap1\n      sload\n      swap1\n      0x0100\n      exp\n      swap1\n      div\n      0xffffffffffffffffffffffffffffffffffffffff\n      and\n        /* \"infra/CashBackFee.sol\":665:683  govToken.balanceOf */\n      0xffffffffffffffffffffffffffffffffffffffff\n      and\n      0x70a08231\n        /* \"infra/CashBackFee.sol\":684:694  msg.sender */\n      caller\n        /* \"infra/CashBackFee.sol\":665:695  govToken.balanceOf(msg.sender) */\n      mload(0x40)\n      dup3\n      0xffffffff\n      and\n      0xe0\n      shl\n      dup2\n      mstore\n      0x04\n      add\n      tag_10\n      swap2\n      swap1\n      tag_11\n      jump\t// in\n    tag_10:\n      0x20\n      mload(0x40)\n      dup1\n      dup4\n      sub\n      dup2\n      dup7\n      dup1\n      extcodesize\n      iszero\n      dup1\n      iszero\n      tag_12\n      jumpi\n      0x00\n      dup1\n      revert\n    tag_12:\n      pop\n      gas\n      staticcall\n      iszero\n      dup1\n      iszero\n      tag_14\n      jumpi\n      returndatasize\n      0x00\n      dup1\n      returndatacopy\n      revert(0x00, returndatasize)\n    tag_14:\n      pop\n      pop\n      pop\n      pop\n      mload(0x40)\n      returndatasize\n      not(0x1f)\n      0x1f\n      dup3\n      add\n      and\n      dup3\n      add\n      dup1\n      0x40\n      mstore\n      pop\n      dup2\n      add\n      swap1\n      tag_15\n      swap2\n      swap1\n      tag_16\n      jump\t// in\n    tag_15:\n        /* \"infra/CashBackFee.sol\":665:699  govToken.balanceOf(msg.sender).mul */\n      tag_17\n      swap1\n        /* \"infra/CashBackFee.sol\":665:705  govToken.balanceOf(msg.sender).mul(1e18) */\n      swap2\n      swap1\n      0xffffffff\n      and\n      jump\t// in\n    tag_9:\n        /* \"infra/CashBackFee.sol\":640:705  uint256 accountBalance = govToken.balanceOf(msg.sender).mul(1e18) */\n      swap1\n      pop\n        /* \"infra/CashBackFee.sol\":738:740  10 */\n      0x0a\n        /* \"infra/CashBackFee.sol\":723:737  accountBalance */\n      dup2\n        /* \"infra/CashBackFee.sol\":723:740  accountBalance>10 */\n      gt\n        /* \"infra/CashBackFee.sol\":715:752  require(accountBalance>10,\"no money\") */\n      tag_18\n      jumpi\n      mload(0x40)\n      0x08c379a000000000000000000000000000000000000000000000000000000000\n      dup2\n      mstore\n      0x04\n      add\n      tag_19\n      swap1\n      tag_20\n      jump\t// in\n    tag_19:\n      mload(0x40)\n      dup1\n      swap2\n      sub\n      swap1\n      revert\n    tag_18:\n        /* \"infra/CashBackFee.sol\":630:760  {... */\n      pop\n        /* \"infra/CashBackFee.sol\":578:760  function cashbackFeeClaim(uint256 _amount) external {... */\n      pop\n      jump\t// out\n        /* \"@openzeppelin/contracts/utils/math/SafeMath.sol\":3465:3561  function mul(uint256 a, uint256 b) internal pure returns (uint256) {... */\n    tag_17:\n        /* \"@openzeppelin/contracts/utils/math/SafeMath.sol\":3523:3530  uint256 */\n      0x00\n        /* \"@openzeppelin/contracts/utils/math/SafeMath.sol\":3553:3554  b */\n      dup2\n        /* \"@openzeppelin/contracts/utils/math/SafeMath.sol\":3549:3550  a */\n      dup4\n        /* \"@openzeppelin/contracts/utils/math/SafeMath.sol\":3549:3554  a * b */\n      tag_22\n      swap2\n      swap1\n      tag_23\n      jump\t// in\n    tag_22:\n        /* \"@openzeppelin/contracts/utils/math/SafeMath.sol\":3542:3554  return a * b */\n      swap1\n      pop\n        /* \"@openzeppelin/contracts/utils/math/SafeMath.sol\":3465:3561  function mul(uint256 a, uint256 b) internal pure returns (uint256) {... */\n      swap3\n      swap2\n      pop\n      pop\n      jump\t// out\n        /* \"#utility.yul\":7:146   */\n    tag_25:\n        /* \"#utility.yul\":53:58   */\n      0x00\n        /* \"#utility.yul\":91:97   */\n      dup2\n        /* \"#utility.yul\":78:98   */\n      calldataload\n        /* \"#utility.yul\":69:98   */\n      swap1\n      pop\n        /* \"#utility.yul\":107:140   */\n      tag_27\n        /* \"#utility.yul\":134:139   */\n      dup2\n        /* \"#utility.yul\":107:140   */\n      tag_28\n      jump\t// in\n    tag_27:\n        /* \"#utility.yul\":7:146   */\n      swap3\n      swap2\n      pop\n      pop\n      jump\t// out\n        /* \"#utility.yul\":152:295   */\n    tag_29:\n        /* \"#utility.yul\":209:214   */\n      0x00\n        /* \"#utility.yul\":240:246   */\n      dup2\n        /* \"#utility.yul\":234:247   */\n      mload\n        /* \"#utility.yul\":225:247   */\n      swap1\n      pop\n        /* \"#utility.yul\":256:289   */\n      tag_31\n        /* \"#utility.yul\":283:288   */\n      dup2\n        /* \"#utility.yul\":256:289   */\n      tag_28\n      jump\t// in\n    tag_31:\n        /* \"#utility.yul\":152:295   */\n      swap3\n      swap2\n      pop\n      pop\n      jump\t// out\n        /* \"#utility.yul\":301:630   */\n    tag_6:\n        /* \"#utility.yul\":360:366   */\n      0x00\n        /* \"#utility.yul\":409:411   */\n      0x20\n        /* \"#utility.yul\":397:406   */\n      dup3\n        /* \"#utility.yul\":388:395   */\n      dup5\n        /* \"#utility.yul\":384:407   */\n      sub\n        /* \"#utility.yul\":380:412   */\n      slt\n        /* \"#utility.yul\":377:496   */\n      iszero\n      tag_33\n      jumpi\n        /* \"#utility.yul\":415:494   */\n      tag_34\n      tag_35\n      jump\t// in\n    tag_34:\n        /* \"#utility.yul\":377:496   */\n    tag_33:\n        /* \"#utility.yul\":535:536   */\n      0x00\n        /* \"#utility.yul\":560:613   */\n      tag_36\n        /* \"#utility.yul\":605:612   */\n      dup5\n        /* \"#utility.yul\":596:602   */\n      dup3\n        /* \"#utility.yul\":585:594   */\n      dup6\n        /* \"#utility.yul\":581:603   */\n      add\n        /* \"#utility.yul\":560:613   */\n      tag_25\n      jump\t// in\n    tag_36:\n        /* \"#utility.yul\":550:613   */\n      swap2\n      pop\n        /* \"#utility.yul\":506:623   */\n      pop\n        /* \"#utility.yul\":301:630   */\n      swap3\n      swap2\n      pop\n      pop\n      jump\t// out\n        /* \"#utility.yul\":636:987   */\n    tag_16:\n        /* \"#utility.yul\":706:712   */\n      0x00\n        /* \"#utility.yul\":755:757   */\n      0x20\n        /* \"#utility.yul\":743:752   */\n      dup3\n        /* \"#utility.yul\":734:741   */\n      dup5\n        /* \"#utility.yul\":730:753   */\n      sub\n        /* \"#utility.yul\":726:758   */\n      slt\n        /* \"#utility.yul\":723:842   */\n      iszero\n      tag_38\n      jumpi\n        /* \"#utility.yul\":761:840   */\n      tag_39\n      tag_35\n      jump\t// in\n    tag_39:\n        /* \"#utility.yul\":723:842   */\n    tag_38:\n        /* \"#utility.yul\":881:882   */\n      0x00\n        /* \"#utility.yul\":906:970   */\n      tag_40\n        /* \"#utility.yul\":962:969   */\n      dup5\n        /* \"#utility.yul\":953:959   */\n      dup3\n        /* \"#utility.yul\":942:951   */\n      dup6\n        /* \"#utility.yul\":938:960   */\n      add\n        /* \"#utility.yul\":906:970   */\n      tag_29\n      jump\t// in\n    tag_40:\n        /* \"#utility.yul\":896:970   */\n      swap2\n      pop\n        /* \"#utility.yul\":852:980   */\n      pop\n        /* \"#utility.yul\":636:987   */\n      swap3\n      swap2\n      pop\n      pop\n      jump\t// out\n        /* \"#utility.yul\":993:1111   */\n    tag_41:\n        /* \"#utility.yul\":1080:1104   */\n      tag_43\n        /* \"#utility.yul\":1098:1103   */\n      dup2\n        /* \"#utility.yul\":1080:1104   */\n      tag_44\n      jump\t// in\n    tag_43:\n        /* \"#utility.yul\":1075:1078   */\n      dup3\n        /* \"#utility.yul\":1068:1105   */\n      mstore\n        /* \"#utility.yul\":993:1111   */\n      pop\n      pop\n      jump\t// out\n        /* \"#utility.yul\":1117:1482   */\n    tag_45:\n        /* \"#utility.yul\":1259:1262   */\n      0x00\n        /* \"#utility.yul\":1280:1346   */\n      tag_47\n        /* \"#utility.yul\":1344:1345   */\n      0x08\n        /* \"#utility.yul\":1339:1342   */\n      dup4\n        /* \"#utility.yul\":1280:1346   */\n      tag_48\n      jump\t// in\n    tag_47:\n        /* \"#utility.yul\":1273:1346   */\n      swap2\n      pop\n        /* \"#utility.yul\":1355:1448   */\n      tag_49\n        /* \"#utility.yul\":1444:1447   */\n      dup3\n        /* \"#utility.yul\":1355:1448   */\n      tag_50\n      jump\t// in\n    tag_49:\n        /* \"#utility.yul\":1473:1475   */\n      0x20\n        /* \"#utility.yul\":1468:1471   */\n      dup3\n        /* \"#utility.yul\":1464:1476   */\n      add\n        /* \"#utility.yul\":1457:1476   */\n      swap1\n      pop\n        /* \"#utility.yul\":1117:1482   */\n      swap2\n      swap1\n      pop\n      jump\t// out\n        /* \"#utility.yul\":1488:1710   */\n    tag_11:\n        /* \"#utility.yul\":1581:1585   */\n      0x00\n        /* \"#utility.yul\":1619:1621   */\n      0x20\n        /* \"#utility.yul\":1608:1617   */\n      dup3\n        /* \"#utility.yul\":1604:1622   */\n      add\n        /* \"#utility.yul\":1596:1622   */\n      swap1\n      pop\n        /* \"#utility.yul\":1632:1703   */\n      tag_52\n        /* \"#utility.yul\":1700:1701   */\n      0x00\n        /* \"#utility.yul\":1689:1698   */\n      dup4\n        /* \"#utility.yul\":1685:1702   */\n      add\n        /* \"#utility.yul\":1676:1682   */\n      dup5\n        /* \"#utility.yul\":1632:1703   */\n      tag_41\n      jump\t// in\n    tag_52:\n        /* \"#utility.yul\":1488:1710   */\n      swap3\n      swap2\n      pop\n      pop\n      jump\t// out\n        /* \"#utility.yul\":1716:2135   */\n    tag_20:\n        /* \"#utility.yul\":1882:1886   */\n      0x00\n        /* \"#utility.yul\":1920:1922   */\n      0x20\n        /* \"#utility.yul\":1909:1918   */\n      dup3\n        /* \"#utility.yul\":1905:1923   */\n      add\n        /* \"#utility.yul\":1897:1923   */\n      swap1\n      pop\n        /* \"#utility.yul\":1969:1978   */\n      dup2\n        /* \"#utility.yul\":1963:1967   */\n      dup2\n        /* \"#utility.yul\":1959:1979   */\n      sub\n        /* \"#utility.yul\":1955:1956   */\n      0x00\n        /* \"#utility.yul\":1944:1953   */\n      dup4\n        /* \"#utility.yul\":1940:1957   */\n      add\n        /* \"#utility.yul\":1933:1980   */\n      mstore\n        /* \"#utility.yul\":1997:2128   */\n      tag_54\n        /* \"#utility.yul\":2123:2127   */\n      dup2\n        /* \"#utility.yul\":1997:2128   */\n      tag_45\n      jump\t// in\n    tag_54:\n        /* \"#utility.yul\":1989:2128   */\n      swap1\n      pop\n        /* \"#utility.yul\":1716:2135   */\n      swap2\n      swap1\n      pop\n      jump\t// out\n        /* \"#utility.yul\":2222:2391   */\n    tag_48:\n        /* \"#utility.yul\":2306:2317   */\n      0x00\n        /* \"#utility.yul\":2340:2346   */\n      dup3\n        /* \"#utility.yul\":2335:2338   */\n      dup3\n        /* \"#utility.yul\":2328:2347   */\n      mstore\n        /* \"#utility.yul\":2380:2384   */\n      0x20\n        /* \"#utility.yul\":2375:2378   */\n      dup3\n        /* \"#utility.yul\":2371:2385   */\n      add\n        /* \"#utility.yul\":2356:2385   */\n      swap1\n      pop\n        /* \"#utility.yul\":2222:2391   */\n      swap3\n      swap2\n      pop\n      pop\n      jump\t// out\n        /* \"#utility.yul\":2397:2745   */\n    tag_23:\n        /* \"#utility.yul\":2437:2444   */\n      0x00\n        /* \"#utility.yul\":2460:2480   */\n      tag_59\n        /* \"#utility.yul\":2478:2479   */\n      dup3\n        /* \"#utility.yul\":2460:2480   */\n      tag_60\n      jump\t// in\n    tag_59:\n        /* \"#utility.yul\":2455:2480   */\n      swap2\n      pop\n        /* \"#utility.yul\":2494:2514   */\n      tag_61\n        /* \"#utility.yul\":2512:2513   */\n      dup4\n        /* \"#utility.yul\":2494:2514   */\n      tag_60\n      jump\t// in\n    tag_61:\n        /* \"#utility.yul\":2489:2514   */\n      swap3\n      pop\n        /* \"#utility.yul\":2682:2683   */\n      dup2\n        /* \"#utility.yul\":2614:2680   */\n      0xffffffffffffffffffffffffffffffffffffffffffffffffffffffffffffffff\n        /* \"#utility.yul\":2610:2684   */\n      div\n        /* \"#utility.yul\":2607:2608   */\n      dup4\n        /* \"#utility.yul\":2604:2685   */\n      gt\n        /* \"#utility.yul\":2599:2600   */\n      dup3\n        /* \"#utility.yul\":2592:2601   */\n      iszero\n        /* \"#utility.yul\":2585:2602   */\n      iszero\n        /* \"#utility.yul\":2581:2686   */\n      and\n        /* \"#utility.yul\":2578:2709   */\n      iszero\n      tag_62\n      jumpi\n        /* \"#utility.yul\":2689:2707   */\n      tag_63\n      tag_64\n      jump\t// in\n    tag_63:\n        /* \"#utility.yul\":2578:2709   */\n    tag_62:\n        /* \"#utility.yul\":2737:2738   */\n      dup3\n        /* \"#utility.yul\":2734:2735   */\n      dup3\n        /* \"#utility.yul\":2730:2739   */\n      mul\n        /* \"#utility.yul\":2719:2739   */\n      swap1\n      pop\n        /* \"#utility.yul\":2397:2745   */\n      swap3\n      swap2\n      pop\n      pop\n      jump\t// out\n        /* \"#utility.yul\":2751:2847   */\n    tag_44:\n        /* \"#utility.yul\":2788:2795   */\n      0x00\n        /* \"#utility.yul\":2817:2841   */\n      tag_66\n        /* \"#utility.yul\":2835:2840   */\n      dup3\n        /* \"#utility.yul\":2817:2841   */\n      tag_67\n      jump\t// in\n    tag_66:\n        /* \"#utility.yul\":2806:2841   */\n      swap1\n      pop\n        /* \"#utility.yul\":2751:2847   */\n      swap2\n      swap1\n      pop\n      jump\t// out\n        /* \"#utility.yul\":2853:2979   */\n    tag_67:\n        /* \"#utility.yul\":2890:2897   */\n      0x00\n        /* \"#utility.yul\":2930:2972   */\n      0xffffffffffffffffffffffffffffffffffffffff\n        /* \"#utility.yul\":2923:2928   */\n      dup3\n        /* \"#utility.yul\":2919:2973   */\n      and\n        /* \"#utility.yul\":2908:2973   */\n      swap1\n      pop\n        /* \"#utility.yul\":2853:2979   */\n      swap2\n      swap1\n      pop\n      jump\t// out\n        /* \"#utility.yul\":2985:3062   */\n    tag_60:\n        /* \"#utility.yul\":3022:3029   */\n      0x00\n        /* \"#utility.yul\":3051:3056   */\n      dup2\n        /* \"#utility.yul\":3040:3056   */\n      swap1\n      pop\n        /* \"#utility.yul\":2985:3062   */\n      swap2\n      swap1\n      pop\n      jump\t// out\n        /* \"#utility.yul\":3068:3248   */\n    tag_64:\n        /* \"#utility.yul\":3116:3193   */\n      0x4e487b7100000000000000000000000000000000000000000000000000000000\n        /* \"#utility.yul\":3113:3114   */\n      0x00\n        /* \"#utility.yul\":3106:3194   */\n      mstore\n        /* \"#utility.yul\":3213:3217   */\n      0x11\n        /* \"#utility.yul\":3210:3211   */\n      0x04\n        /* \"#utility.yul\":3203:3218   */\n      mstore\n        /* \"#utility.yul\":3237:3241   */\n      0x24\n        /* \"#utility.yul\":3234:3235   */\n      0x00\n        /* \"#utility.yul\":3227:3242   */\n      revert\n        /* \"#utility.yul\":3377:3494   */\n    tag_35:\n        /* \"#utility.yul\":3486:3487   */\n      0x00\n        /* \"#utility.yul\":3483:3484   */\n      dup1\n        /* \"#utility.yul\":3476:3488   */\n      revert\n        /* \"#utility.yul\":3500:3658   */\n    tag_50:\n        /* \"#utility.yul\":3640:3650   */\n      0x6e6f206d6f6e6579000000000000000000000000000000000000000000000000\n        /* \"#utility.yul\":3636:3637   */\n      0x00\n        /* \"#utility.yul\":3628:3634   */\n      dup3\n        /* \"#utility.yul\":3624:3638   */\n      add\n        /* \"#utility.yul\":3617:3651   */\n      mstore\n        /* \"#utility.yul\":3500:3658   */\n      pop\n      jump\t// out\n        /* \"#utility.yul\":3664:3786   */\n    tag_28:\n        /* \"#utility.yul\":3737:3761   */\n      tag_76\n        /* \"#utility.yul\":3755:3760   */\n      dup2\n        /* \"#utility.yul\":3737:3761   */\n      tag_60\n      jump\t// in\n    tag_76:\n        /* \"#utility.yul\":3730:3735   */\n      dup2\n        /* \"#utility.yul\":3727:3762   */\n      eq\n        /* \"#utility.yul\":3717:3780   */\n      tag_77\n      jumpi\n        /* \"#utility.yul\":3776:3777   */\n      0x00\n        /* \"#utility.yul\":3773:3774   */\n      dup1\n        /* \"#utility.yul\":3766:3778   */\n      revert\n        /* \"#utility.yul\":3717:3780   */\n    tag_77:\n        /* \"#utility.yul\":3664:3786   */\n      pop\n      jump\t// out\n\n    auxdata: 0xa2646970667358221220055443a54cfb78d44bcef0221863298fcc173e3e93be55a0ab0afbe8f364114164736f6c63430008070033\n}\n",
				"bytecode": {
					"linkReferences": {},
					"object": "608060405234801561001057600080fd5b5060405161057538038061057583398181016040528101906100329190610111565b80600260006101000a81548173ffffffffffffffffffffffffffffffffffffffff021916908373ffffffffffffffffffffffffffffffffffffffff16021790555081600160006101000a81548173ffffffffffffffffffffffffffffffffffffffff021916908373ffffffffffffffffffffffffffffffffffffffff160217905550826000806101000a81548173ffffffffffffffffffffffffffffffffffffffff021916908373ffffffffffffffffffffffffffffffffffffffff1602179055505050506101b2565b60008151905061010b8161019b565b92915050565b60008060006060848603121561012a57610129610196565b5b6000610138868287016100fc565b9350506020610149868287016100fc565b925050604061015a868287016100fc565b9150509250925092565b600061016f82610176565b9050919050565b600073ffffffffffffffffffffffffffffffffffffffff82169050919050565b600080fd5b6101a481610164565b81146101af57600080fd5b50565b6103b4806101c16000396000f3fe608060405234801561001057600080fd5b506004361061002b5760003560e01c8063c006aac714610030575b600080fd5b61004a6004803603810190610045919061019c565b61004c565b005b6000610113670de0b6b3a7640000600260009054906101000a900473ffffffffffffffffffffffffffffffffffffffff1673ffffffffffffffffffffffffffffffffffffffff166370a08231336040518263ffffffff1660e01b81526004016100b59190610228565b60206040518083038186803b1580156100cd57600080fd5b505afa1580156100e1573d6000803e3d6000fd5b505050506040513d601f19601f8201168201806040525081019061010591906101c9565b61015c90919063ffffffff16565b9050600a8111610158576040517f08c379a000000000000000000000000000000000000000000000000000000000815260040161014f90610243565b60405180910390fd5b5050565b6000818361016a9190610274565b905092915050565b60008135905061018181610367565b92915050565b60008151905061019681610367565b92915050565b6000602082840312156101b2576101b1610339565b5b60006101c084828501610172565b91505092915050565b6000602082840312156101df576101de610339565b5b60006101ed84828501610187565b91505092915050565b6101ff816102ce565b82525050565b6000610212600883610263565b915061021d8261033e565b602082019050919050565b600060208201905061023d60008301846101f6565b92915050565b6000602082019050818103600083015261025c81610205565b9050919050565b600082825260208201905092915050565b600061027f82610300565b915061028a83610300565b9250817fffffffffffffffffffffffffffffffffffffffffffffffffffffffffffffffff04831182151516156102c3576102c261030a565b5b828202905092915050565b60006102d9826102e0565b9050919050565b600073ffffffffffffffffffffffffffffffffffffffff82169050919050565b6000819050919050565b7f4e487b7100000000000000000000000000000000000000000000000000000000600052601160045260246000fd5b600080fd5b7f6e6f206d6f6e6579000000000000000000000000000000000000000000000000600082015250565b61037081610300565b811461037b57600080fd5b5056fea2646970667358221220055443a54cfb78d44bcef0221863298fcc173e3e93be55a0ab0afbe8f364114164736f6c63430008070033",
					"opcodes": "PUSH1 0x80 PUSH1 0x40 MSTORE CALLVALUE DUP1 ISZERO PUSH2 0x10 JUMPI PUSH1 0x0 DUP1 REVERT JUMPDEST POP PUSH1 0x40 MLOAD PUSH2 0x575 CODESIZE SUB DUP1 PUSH2 0x575 DUP4 CODECOPY DUP2 DUP2 ADD PUSH1 0x40 MSTORE DUP2 ADD SWAP1 PUSH2 0x32 SWAP2 SWAP1 PUSH2 0x111 JUMP JUMPDEST DUP1 PUSH1 0x2 PUSH1 0x0 PUSH2 0x100 EXP DUP2 SLOAD DUP2 PUSH20 0xFFFFFFFFFFFFFFFFFFFFFFFFFFFFFFFFFFFFFFFF MUL NOT AND SWAP1 DUP4 PUSH20 0xFFFFFFFFFFFFFFFFFFFFFFFFFFFFFFFFFFFFFFFF AND MUL OR SWAP1 SSTORE POP DUP2 PUSH1 0x1 PUSH1 0x0 PUSH2 0x100 EXP DUP2 SLOAD DUP2 PUSH20 0xFFFFFFFFFFFFFFFFFFFFFFFFFFFFFFFFFFFFFFFF MUL NOT AND SWAP1 DUP4 PUSH20 0xFFFFFFFFFFFFFFFFFFFFFFFFFFFFFFFFFFFFFFFF AND MUL OR SWAP1 SSTORE POP DUP3 PUSH1 0x0 DUP1 PUSH2 0x100 EXP DUP2 SLOAD DUP2 PUSH20 0xFFFFFFFFFFFFFFFFFFFFFFFFFFFFFFFFFFFFFFFF MUL NOT AND SWAP1 DUP4 PUSH20 0xFFFFFFFFFFFFFFFFFFFFFFFFFFFFFFFFFFFFFFFF AND MUL OR SWAP1 SSTORE POP POP POP POP PUSH2 0x1B2 JUMP JUMPDEST PUSH1 0x0 DUP2 MLOAD SWAP1 POP PUSH2 0x10B DUP2 PUSH2 0x19B JUMP JUMPDEST SWAP3 SWAP2 POP POP JUMP JUMPDEST PUSH1 0x0 DUP1 PUSH1 0x0 PUSH1 0x60 DUP5 DUP7 SUB SLT ISZERO PUSH2 0x12A JUMPI PUSH2 0x129 PUSH2 0x196 JUMP JUMPDEST JUMPDEST PUSH1 0x0 PUSH2 0x138 DUP7 DUP3 DUP8 ADD PUSH2 0xFC JUMP JUMPDEST SWAP4 POP POP PUSH1 0x20 PUSH2 0x149 DUP7 DUP3 DUP8 ADD PUSH2 0xFC JUMP JUMPDEST SWAP3 POP POP PUSH1 0x40 PUSH2 0x15A DUP7 DUP3 DUP8 ADD PUSH2 0xFC JUMP JUMPDEST SWAP2 POP POP SWAP3 POP SWAP3 POP SWAP3 JUMP JUMPDEST PUSH1 0x0 PUSH2 0x16F DUP3 PUSH2 0x176 JUMP JUMPDEST SWAP1 POP SWAP2 SWAP1 POP JUMP JUMPDEST PUSH1 0x0 PUSH20 0xFFFFFFFFFFFFFFFFFFFFFFFFFFFFFFFFFFFFFFFF DUP3 AND SWAP1 POP SWAP2 SWAP1 POP JUMP JUMPDEST PUSH1 0x0 DUP1 REVERT JUMPDEST PUSH2 0x1A4 DUP2 PUSH2 0x164 JUMP JUMPDEST DUP2 EQ PUSH2 0x1AF JUMPI PUSH1 0x0 DUP1 REVERT JUMPDEST POP JUMP JUMPDEST PUSH2 0x3B4 DUP1 PUSH2 0x1C1 PUSH1 0x0 CODECOPY PUSH1 0x0 RETURN INVALID PUSH1 0x80 PUSH1 0x40 MSTORE CALLVALUE DUP1 ISZERO PUSH2 0x10 JUMPI PUSH1 0x0 DUP1 REVERT JUMPDEST POP PUSH1 0x4 CALLDATASIZE LT PUSH2 0x2B JUMPI PUSH1 0x0 CALLDATALOAD PUSH1 0xE0 SHR DUP1 PUSH4 0xC006AAC7 EQ PUSH2 0x30 JUMPI JUMPDEST PUSH1 0x0 DUP1 REVERT JUMPDEST PUSH2 0x4A PUSH1 0x4 DUP1 CALLDATASIZE SUB DUP2 ADD SWAP1 PUSH2 0x45 SWAP2 SWAP1 PUSH2 0x19C JUMP JUMPDEST PUSH2 0x4C JUMP JUMPDEST STOP JUMPDEST PUSH1 0x0 PUSH2 0x113 PUSH8 0xDE0B6B3A7640000 PUSH1 0x2 PUSH1 0x0 SWAP1 SLOAD SWAP1 PUSH2 0x100 EXP SWAP1 DIV PUSH20 0xFFFFFFFFFFFFFFFFFFFFFFFFFFFFFFFFFFFFFFFF AND PUSH20 0xFFFFFFFFFFFFFFFFFFFFFFFFFFFFFFFFFFFFFFFF AND PUSH4 0x70A08231 CALLER PUSH1 0x40 MLOAD DUP3 PUSH4 0xFFFFFFFF AND PUSH1 0xE0 SHL DUP2 MSTORE PUSH1 0x4 ADD PUSH2 0xB5 SWAP2 SWAP1 PUSH2 0x228 JUMP JUMPDEST PUSH1 0x20 PUSH1 0x40 MLOAD DUP1 DUP4 SUB DUP2 DUP7 DUP1 EXTCODESIZE ISZERO DUP1 ISZERO PUSH2 0xCD JUMPI PUSH1 0x0 DUP1 REVERT JUMPDEST POP GAS STATICCALL ISZERO DUP1 ISZERO PUSH2 0xE1 JUMPI RETURNDATASIZE PUSH1 0x0 DUP1 RETURNDATACOPY RETURNDATASIZE PUSH1 0x0 REVERT JUMPDEST POP POP POP POP PUSH1 0x40 MLOAD RETURNDATASIZE PUSH1 0x1F NOT PUSH1 0x1F DUP3 ADD AND DUP3 ADD DUP1 PUSH1 0x40 MSTORE POP DUP2 ADD SWAP1 PUSH2 0x105 SWAP2 SWAP1 PUSH2 0x1C9 JUMP JUMPDEST PUSH2 0x15C SWAP1 SWAP2 SWAP1 PUSH4 0xFFFFFFFF AND JUMP JUMPDEST SWAP1 POP PUSH1 0xA DUP2 GT PUSH2 0x158 JUMPI PUSH1 0x40 MLOAD PUSH32 0x8C379A000000000000000000000000000000000000000000000000000000000 DUP2 MSTORE PUSH1 0x4 ADD PUSH2 0x14F SWAP1 PUSH2 0x243 JUMP JUMPDEST PUSH1 0x40 MLOAD DUP1 SWAP2 SUB SWAP1 REVERT JUMPDEST POP POP JUMP JUMPDEST PUSH1 0x0 DUP2 DUP4 PUSH2 0x16A SWAP2 SWAP1 PUSH2 0x274 JUMP JUMPDEST SWAP1 POP SWAP3 SWAP2 POP POP JUMP JUMPDEST PUSH1 0x0 DUP2 CALLDATALOAD SWAP1 POP PUSH2 0x181 DUP2 PUSH2 0x367 JUMP JUMPDEST SWAP3 SWAP2 POP POP JUMP JUMPDEST PUSH1 0x0 DUP2 MLOAD SWAP1 POP PUSH2 0x196 DUP2 PUSH2 0x367 JUMP JUMPDEST SWAP3 SWAP2 POP POP JUMP JUMPDEST PUSH1 0x0 PUSH1 0x20 DUP3 DUP5 SUB SLT ISZERO PUSH2 0x1B2 JUMPI PUSH2 0x1B1 PUSH2 0x339 JUMP JUMPDEST JUMPDEST PUSH1 0x0 PUSH2 0x1C0 DUP5 DUP3 DUP6 ADD PUSH2 0x172 JUMP JUMPDEST SWAP2 POP POP SWAP3 SWAP2 POP POP JUMP JUMPDEST PUSH1 0x0 PUSH1 0x20 DUP3 DUP5 SUB SLT ISZERO PUSH2 0x1DF JUMPI PUSH2 0x1DE PUSH2 0x339 JUMP JUMPDEST JUMPDEST PUSH1 0x0 PUSH2 0x1ED DUP5 DUP3 DUP6 ADD PUSH2 0x187 JUMP JUMPDEST SWAP2 POP POP SWAP3 SWAP2 POP POP JUMP JUMPDEST PUSH2 0x1FF DUP2 PUSH2 0x2CE JUMP JUMPDEST DUP3 MSTORE POP POP JUMP JUMPDEST PUSH1 0x0 PUSH2 0x212 PUSH1 0x8 DUP4 PUSH2 0x263 JUMP JUMPDEST SWAP2 POP PUSH2 0x21D DUP3 PUSH2 0x33E JUMP JUMPDEST PUSH1 0x20 DUP3 ADD SWAP1 POP SWAP2 SWAP1 POP JUMP JUMPDEST PUSH1 0x0 PUSH1 0x20 DUP3 ADD SWAP1 POP PUSH2 0x23D PUSH1 0x0 DUP4 ADD DUP5 PUSH2 0x1F6 JUMP JUMPDEST SWAP3 SWAP2 POP POP JUMP JUMPDEST PUSH1 0x0 PUSH1 0x20 DUP3 ADD SWAP1 POP DUP2 DUP2 SUB PUSH1 0x0 DUP4 ADD MSTORE PUSH2 0x25C DUP2 PUSH2 0x205 JUMP JUMPDEST SWAP1 POP SWAP2 SWAP1 POP JUMP JUMPDEST PUSH1 0x0 DUP3 DUP3 MSTORE PUSH1 0x20 DUP3 ADD SWAP1 POP SWAP3 SWAP2 POP POP JUMP JUMPDEST PUSH1 0x0 PUSH2 0x27F DUP3 PUSH2 0x300 JUMP JUMPDEST SWAP2 POP PUSH2 0x28A DUP4 PUSH2 0x300 JUMP JUMPDEST SWAP3 POP DUP2 PUSH32 0xFFFFFFFFFFFFFFFFFFFFFFFFFFFFFFFFFFFFFFFFFFFFFFFFFFFFFFFFFFFFFFFF DIV DUP4 GT DUP3 ISZERO ISZERO AND ISZERO PUSH2 0x2C3 JUMPI PUSH2 0x2C2 PUSH2 0x30A JUMP JUMPDEST JUMPDEST DUP3 DUP3 MUL SWAP1 POP SWAP3 SWAP2 POP POP JUMP JUMPDEST PUSH1 0x0 PUSH2 0x2D9 DUP3 PUSH2 0x2E0 JUMP JUMPDEST SWAP1 POP SWAP2 SWAP1 POP JUMP JUMPDEST PUSH1 0x0 PUSH20 0xFFFFFFFFFFFFFFFFFFFFFFFFFFFFFFFFFFFFFFFF DUP3 AND SWAP1 POP SWAP2 SWAP1 POP JUMP JUMPDEST PUSH1 0x0 DUP2 SWAP1 POP SWAP2 SWAP1 POP JUMP JUMPDEST PUSH32 0x4E487B7100000000000000000000000000000000000000000000000000000000 PUSH1 0x0 MSTORE PUSH1 0x11 PUSH1 0x4 MSTORE PUSH1 0x24 PUSH1 0x0 REVERT JUMPDEST PUSH1 0x0 DUP1 REVERT JUMPDEST PUSH32 0x6E6F206D6F6E6579000000000000000000000000000000000000000000000000 PUSH1 0x0 DUP3 ADD MSTORE POP JUMP JUMPDEST PUSH2 0x370 DUP2 PUSH2 0x300 JUMP JUMPDEST DUP2 EQ PUSH2 0x37B JUMPI PUSH1 0x0 DUP1 REVERT JUMPDEST POP JUMP INVALID LOG2 PUSH5 0x6970667358 0x22 SLT KECCAK256 SDIV SLOAD NUMBER 0xA5 0x4C 0xFB PUSH25 0xD44BCEF0221863298FCC173E3E93BE55A0AB0AFBE8F3641141 PUSH5 0x736F6C6343 STOP ADDMOD SMOD STOP CALLER "
				},
				"gasEstimates": {
					"creation": {
						"codeDepositCost": "189600",
						"executionCost": "infinite",
						"totalCost": "infinite"
					},
					"external": {
						"cashbackFeeClaim(uint256)": "infinite"
					}
				},
				"methodIdentifiers": {
					"cashbackFeeClaim(uint256)": "c006aac7"
				}
			},
			"storageLayout": {
				"storage": [
					{
						"astId": 962,
						"contract": "infra/CashBackFee.sol:CashBackFee",
						"label": "treasury",
						"offset": 0,
						"slot": "0",
						"type": "t_address"
					},
					{
						"astId": 965,
						"contract": "infra/CashBackFee.sol:CashBackFee",
						"label": "wNative",
						"offset": 0,
						"slot": "1",
						"type": "t_contract(IERC20Upgradeable)77"
					},
					{
						"astId": 968,
						"contract": "infra/CashBackFee.sol:CashBackFee",
						"label": "govToken",
						"offset": 0,
						"slot": "2",
						"type": "t_contract(IERC20Upgradeable)77"
					}
				],
				"types": {
					"t_address": {
						"encoding": "inplace",
						"label": "address",
						"numberOfBytes": "20"
					},
					"t_contract(IERC20Upgradeable)77": {
						"encoding": "inplace",
						"label": "contract IERC20Upgradeable",
						"numberOfBytes": "20"
					}
				}
			},
			"userdoc": {
				"kind": "user",
				"methods": {},
				"version": 1
			}
		}
	}
}