{
	"zap/ZapUniV2.sol": {
		"ZapUniswapV2": {
			"abi": [
				{
					"inputs": [
						{
							"internalType": "address",
							"name": "_router",
							"type": "address"
						},
						{
							"internalType": "address",
							"name": "_WETH",
							"type": "address"
						},
						{
							"internalType": "contract IDyosToken",
							"name": "_govToken",
							"type": "address"
						}
					],
					"stateMutability": "nonpayable",
					"type": "constructor"
				},
				{
					"inputs": [],
					"name": "WETH",
					"outputs": [
						{
							"internalType": "address",
							"name": "",
							"type": "address"
						}
					],
					"stateMutability": "view",
					"type": "function"
				},
				{
					"inputs": [],
					"name": "checkWETH",
					"outputs": [
						{
							"internalType": "bool",
							"name": "isValid",
							"type": "bool"
						}
					],
					"stateMutability": "view",
					"type": "function"
				},
				{
					"inputs": [
						{
							"internalType": "address",
							"name": "dyosVault",
							"type": "address"
						},
						{
							"internalType": "address",
							"name": "tokenIn",
							"type": "address"
						},
						{
							"internalType": "uint256",
							"name": "fullInvestmentIn",
							"type": "uint256"
						}
					],
					"name": "estimateSwap",
					"outputs": [
						{
							"internalType": "uint256",
							"name": "swapAmountIn",
							"type": "uint256"
						},
						{
							"internalType": "uint256",
							"name": "swapAmountOut",
							"type": "uint256"
						},
						{
							"internalType": "address",
							"name": "swapTokenOut",
							"type": "address"
						}
					],
					"stateMutability": "view",
					"type": "function"
				},
				{
					"inputs": [],
					"name": "fee",
					"outputs": [
						{
							"internalType": "uint256",
							"name": "",
							"type": "uint256"
						}
					],
					"stateMutability": "view",
					"type": "function"
				},
				{
					"inputs": [],
					"name": "govToken",
					"outputs": [
						{
							"internalType": "contract IDyosToken",
							"name": "",
							"type": "address"
						}
					],
					"stateMutability": "view",
					"type": "function"
				},
				{
					"inputs": [],
					"name": "minimumAmount",
					"outputs": [
						{
							"internalType": "uint256",
							"name": "",
							"type": "uint256"
						}
					],
					"stateMutability": "view",
					"type": "function"
				},
				{
					"inputs": [],
					"name": "router",
					"outputs": [
						{
							"internalType": "contract IUniswapV2Router02",
							"name": "",
							"type": "address"
						}
					],
					"stateMutability": "view",
					"type": "function"
				},
				{
					"inputs": [
						{
							"internalType": "address",
							"name": "dyosVault",
							"type": "address"
						},
						{
							"internalType": "uint256",
							"name": "tokenAmountOutMin",
							"type": "uint256"
						},
						{
							"internalType": "address",
							"name": "tokenIn",
							"type": "address"
						},
						{
							"internalType": "uint256",
							"name": "tokenInAmount",
							"type": "uint256"
						}
					],
					"name": "zapIn",
					"outputs": [],
					"stateMutability": "nonpayable",
					"type": "function"
				},
				{
					"inputs": [
						{
							"internalType": "address",
							"name": "dyosVault",
							"type": "address"
						},
						{
							"internalType": "uint256",
							"name": "tokenAmountOutMin",
							"type": "uint256"
						}
					],
					"name": "zapInETH",
					"outputs": [],
					"stateMutability": "payable",
					"type": "function"
				},
				{
					"inputs": [
						{
							"internalType": "address",
							"name": "dyosVault",
							"type": "address"
						},
						{
							"internalType": "uint256",
							"name": "withdrawAmount",
							"type": "uint256"
						}
					],
					"name": "zapOut",
					"outputs": [],
					"stateMutability": "nonpayable",
					"type": "function"
				},
				{
					"inputs": [
						{
							"internalType": "address",
							"name": "dyosVault",
							"type": "address"
						},
						{
							"internalType": "uint256",
							"name": "withdrawAmount",
							"type": "uint256"
						},
						{
							"internalType": "address",
							"name": "desiredToken",
							"type": "address"
						},
						{
							"internalType": "uint256",
							"name": "desiredTokenOutMin",
							"type": "uint256"
						}
					],
					"name": "zapOutAndSwap",
					"outputs": [],
					"stateMutability": "nonpayable",
					"type": "function"
				},
				{
					"stateMutability": "payable",
					"type": "receive"
				}
			],
			"devdoc": {
				"kind": "dev",
				"methods": {},
				"version": 1
			},
			"evm": {
				"assembly": "    /* \"zap/ZapUniV2.sol\":850:8594  contract ZapUniswapV2 {... */\n  mstore(0x40, 0xc0)\n    /* \"zap/ZapUniV2.sol\":1219:1389  constructor(address _router, address _WETH,IDyosToken _govToken) {... */\n  callvalue\n  dup1\n  iszero\n  tag_1\n  jumpi\n  0x00\n  dup1\n  revert\ntag_1:\n  pop\n  mload(0x40)\n  sub(codesize, bytecodeSize)\n  dup1\n  bytecodeSize\n  dup4\n  codecopy\n  dup2\n  dup2\n  add\n  0x40\n  mstore\n  dup2\n  add\n  swap1\n  tag_2\n  swap2\n  swap1\n  tag_3\n  jump\t// in\ntag_2:\n    /* \"zap/ZapUniV2.sol\":1322:1329  _router */\n  dup3\n    /* \"zap/ZapUniV2.sol\":1294:1330  router = IUniswapV2Router02(_router) */\n  0xffffffffffffffffffffffffffffffffffffffff\n  and\n  0x80\n  dup2\n  0xffffffffffffffffffffffffffffffffffffffff\n  and\n  0x60\n  shl\n  dup2\n  mstore\n  pop\n  pop\n    /* \"zap/ZapUniV2.sol\":1347:1352  _WETH */\n  dup2\n    /* \"zap/ZapUniV2.sol\":1340:1352  WETH = _WETH */\n  0xffffffffffffffffffffffffffffffffffffffff\n  and\n  0xa0\n  dup2\n  0xffffffffffffffffffffffffffffffffffffffff\n  and\n  0x60\n  shl\n  dup2\n  mstore\n  pop\n  pop\n    /* \"zap/ZapUniV2.sol\":1373:1382  _govToken */\n  dup1\n    /* \"zap/ZapUniV2.sol\":1362:1370  govToken */\n  0x00\n  dup1\n    /* \"zap/ZapUniV2.sol\":1362:1382  govToken = _govToken */\n  0x0100\n  exp\n  dup2\n  sload\n  dup2\n  0xffffffffffffffffffffffffffffffffffffffff\n  mul\n  not\n  and\n  swap1\n  dup4\n  0xffffffffffffffffffffffffffffffffffffffff\n  and\n  mul\n  or\n  swap1\n  sstore\n  pop\n    /* \"zap/ZapUniV2.sol\":1219:1389  constructor(address _router, address _WETH,IDyosToken _govToken) {... */\n  pop\n  pop\n  pop\n    /* \"zap/ZapUniV2.sol\":850:8594  contract ZapUniswapV2 {... */\n  jump(tag_6)\n    /* \"#utility.yul\":7:150   */\ntag_8:\n    /* \"#utility.yul\":64:69   */\n  0x00\n    /* \"#utility.yul\":95:101   */\n  dup2\n    /* \"#utility.yul\":89:102   */\n  mload\n    /* \"#utility.yul\":80:102   */\n  swap1\n  pop\n    /* \"#utility.yul\":111:144   */\n  tag_10\n    /* \"#utility.yul\":138:143   */\n  dup2\n    /* \"#utility.yul\":111:144   */\n  tag_11\n  jump\t// in\ntag_10:\n    /* \"#utility.yul\":7:150   */\n  swap3\n  swap2\n  pop\n  pop\n  jump\t// out\n    /* \"#utility.yul\":156:337   */\ntag_12:\n    /* \"#utility.yul\":232:237   */\n  0x00\n    /* \"#utility.yul\":263:269   */\n  dup2\n    /* \"#utility.yul\":257:270   */\n  mload\n    /* \"#utility.yul\":248:270   */\n  swap1\n  pop\n    /* \"#utility.yul\":279:331   */\n  tag_14\n    /* \"#utility.yul\":325:330   */\n  dup2\n    /* \"#utility.yul\":279:331   */\n  tag_15\n  jump\t// in\ntag_14:\n    /* \"#utility.yul\":156:337   */\n  swap3\n  swap2\n  pop\n  pop\n  jump\t// out\n    /* \"#utility.yul\":343:1044   */\ntag_3:\n    /* \"#utility.yul\":450:456   */\n  0x00\n    /* \"#utility.yul\":458:464   */\n  dup1\n    /* \"#utility.yul\":466:472   */\n  0x00\n    /* \"#utility.yul\":515:517   */\n  0x60\n    /* \"#utility.yul\":503:512   */\n  dup5\n    /* \"#utility.yul\":494:501   */\n  dup7\n    /* \"#utility.yul\":490:513   */\n  sub\n    /* \"#utility.yul\":486:518   */\n  slt\n    /* \"#utility.yul\":483:602   */\n  iszero\n  tag_17\n  jumpi\n    /* \"#utility.yul\":521:600   */\n  tag_18\n  tag_19\n  jump\t// in\ntag_18:\n    /* \"#utility.yul\":483:602   */\ntag_17:\n    /* \"#utility.yul\":641:642   */\n  0x00\n    /* \"#utility.yul\":666:730   */\n  tag_20\n    /* \"#utility.yul\":722:729   */\n  dup7\n    /* \"#utility.yul\":713:719   */\n  dup3\n    /* \"#utility.yul\":702:711   */\n  dup8\n    /* \"#utility.yul\":698:720   */\n  add\n    /* \"#utility.yul\":666:730   */\n  tag_8\n  jump\t// in\ntag_20:\n    /* \"#utility.yul\":656:730   */\n  swap4\n  pop\n    /* \"#utility.yul\":612:740   */\n  pop\n    /* \"#utility.yul\":779:781   */\n  0x20\n    /* \"#utility.yul\":805:869   */\n  tag_21\n    /* \"#utility.yul\":861:868   */\n  dup7\n    /* \"#utility.yul\":852:858   */\n  dup3\n    /* \"#utility.yul\":841:850   */\n  dup8\n    /* \"#utility.yul\":837:859   */\n  add\n    /* \"#utility.yul\":805:869   */\n  tag_8\n  jump\t// in\ntag_21:\n    /* \"#utility.yul\":795:869   */\n  swap3\n  pop\n    /* \"#utility.yul\":750:879   */\n  pop\n    /* \"#utility.yul\":918:920   */\n  0x40\n    /* \"#utility.yul\":944:1027   */\n  tag_22\n    /* \"#utility.yul\":1019:1026   */\n  dup7\n    /* \"#utility.yul\":1010:1016   */\n  dup3\n    /* \"#utility.yul\":999:1008   */\n  dup8\n    /* \"#utility.yul\":995:1017   */\n  add\n    /* \"#utility.yul\":944:1027   */\n  tag_12\n  jump\t// in\ntag_22:\n    /* \"#utility.yul\":934:1027   */\n  swap2\n  pop\n    /* \"#utility.yul\":889:1037   */\n  pop\n    /* \"#utility.yul\":343:1044   */\n  swap3\n  pop\n  swap3\n  pop\n  swap3\n  jump\t// out\n    /* \"#utility.yul\":1131:1227   */\ntag_25:\n    /* \"#utility.yul\":1168:1175   */\n  0x00\n    /* \"#utility.yul\":1197:1221   */\n  tag_27\n    /* \"#utility.yul\":1215:1220   */\n  dup3\n    /* \"#utility.yul\":1197:1221   */\n  tag_28\n  jump\t// in\ntag_27:\n    /* \"#utility.yul\":1186:1221   */\n  swap1\n  pop\n    /* \"#utility.yul\":1131:1227   */\n  swap2\n  swap1\n  pop\n  jump\t// out\n    /* \"#utility.yul\":1233:1348   */\ntag_29:\n    /* \"#utility.yul\":1289:1296   */\n  0x00\n    /* \"#utility.yul\":1318:1342   */\n  tag_31\n    /* \"#utility.yul\":1336:1341   */\n  dup3\n    /* \"#utility.yul\":1318:1342   */\n  tag_25\n  jump\t// in\ntag_31:\n    /* \"#utility.yul\":1307:1342   */\n  swap1\n  pop\n    /* \"#utility.yul\":1233:1348   */\n  swap2\n  swap1\n  pop\n  jump\t// out\n    /* \"#utility.yul\":1354:1480   */\ntag_28:\n    /* \"#utility.yul\":1391:1398   */\n  0x00\n    /* \"#utility.yul\":1431:1473   */\n  0xffffffffffffffffffffffffffffffffffffffff\n    /* \"#utility.yul\":1424:1429   */\n  dup3\n    /* \"#utility.yul\":1420:1474   */\n  and\n    /* \"#utility.yul\":1409:1474   */\n  swap1\n  pop\n    /* \"#utility.yul\":1354:1480   */\n  swap2\n  swap1\n  pop\n  jump\t// out\n    /* \"#utility.yul\":1609:1726   */\ntag_19:\n    /* \"#utility.yul\":1718:1719   */\n  0x00\n    /* \"#utility.yul\":1715:1716   */\n  dup1\n    /* \"#utility.yul\":1708:1720   */\n  revert\n    /* \"#utility.yul\":1732:1854   */\ntag_11:\n    /* \"#utility.yul\":1805:1829   */\n  tag_37\n    /* \"#utility.yul\":1823:1828   */\n  dup2\n    /* \"#utility.yul\":1805:1829   */\n  tag_25\n  jump\t// in\ntag_37:\n    /* \"#utility.yul\":1798:1803   */\n  dup2\n    /* \"#utility.yul\":1795:1830   */\n  eq\n    /* \"#utility.yul\":1785:1848   */\n  tag_38\n  jumpi\n    /* \"#utility.yul\":1844:1845   */\n  0x00\n    /* \"#utility.yul\":1841:1842   */\n  dup1\n    /* \"#utility.yul\":1834:1846   */\n  revert\n    /* \"#utility.yul\":1785:1848   */\ntag_38:\n    /* \"#utility.yul\":1732:1854   */\n  pop\n  jump\t// out\n    /* \"#utility.yul\":1860:2020   */\ntag_15:\n    /* \"#utility.yul\":1952:1995   */\n  tag_40\n    /* \"#utility.yul\":1989:1994   */\n  dup2\n    /* \"#utility.yul\":1952:1995   */\n  tag_29\n  jump\t// in\ntag_40:\n    /* \"#utility.yul\":1945:1950   */\n  dup2\n    /* \"#utility.yul\":1942:1996   */\n  eq\n    /* \"#utility.yul\":1932:2014   */\n  tag_41\n  jumpi\n    /* \"#utility.yul\":2010:2011   */\n  0x00\n    /* \"#utility.yul\":2007:2008   */\n  dup1\n    /* \"#utility.yul\":2000:2012   */\n  revert\n    /* \"#utility.yul\":1932:2014   */\ntag_41:\n    /* \"#utility.yul\":1860:2020   */\n  pop\n  jump\t// out\n    /* \"zap/ZapUniV2.sol\":850:8594  contract ZapUniswapV2 {... */\ntag_6:\n  shr(0x60, mload(0x80))\n  shr(0x60, mload(0xa0))\n  codecopy(0x00, dataOffset(sub_0), dataSize(sub_0))\n  0x00\n  assignImmutable(\"0x4dbb9504d97152ac1bba73ee1b129519aaf8f560d232be004d9f12a192fbfd84\")\n  0x00\n  assignImmutable(\"0x4ef9663edb9c329328f496fd120170da080941f0172e11759a68143dba082cd8\")\n  return(0x00, dataSize(sub_0))\nstop\n\nsub_0: assembly {\n        /* \"zap/ZapUniV2.sol\":850:8594  contract ZapUniswapV2 {... */\n      mstore(0x40, 0x80)\n      jumpi(tag_1, lt(calldatasize, 0x04))\n      shr(0xe0, calldataload(0x00))\n      dup1\n      0xad5c4648\n      gt\n      tag_14\n      jumpi\n      dup1\n      0xad5c4648\n      eq\n      tag_8\n      jumpi\n      dup1\n      0xbb0c8298\n      eq\n      tag_9\n      jumpi\n      dup1\n      0xd9139f63\n      eq\n      tag_10\n      jumpi\n      dup1\n      0xddca3f43\n      eq\n      tag_11\n      jumpi\n      dup1\n      0xf3cc669a\n      eq\n      tag_12\n      jumpi\n      dup1\n      0xf887ea40\n      eq\n      tag_13\n      jumpi\n      jump(tag_2)\n    tag_14:\n      dup1\n      0x05268cff\n      eq\n      tag_3\n      jumpi\n      dup1\n      0x3f2f869a\n      eq\n      tag_4\n      jumpi\n      dup1\n      0x72f8b6cd\n      eq\n      tag_5\n      jumpi\n      dup1\n      0x7db9b1f4\n      eq\n      tag_6\n      jumpi\n      dup1\n      0x8437fabe\n      eq\n      tag_7\n      jumpi\n      jump(tag_2)\n    tag_1:\n      jumpi(tag_2, calldatasize)\n        /* \"zap/ZapUniV2.sol\":1453:1457  WETH */\n      immutable(\"0x4dbb9504d97152ac1bba73ee1b129519aaf8f560d232be004d9f12a192fbfd84\")\n        /* \"zap/ZapUniV2.sol\":1439:1457  msg.sender == WETH */\n      0xffffffffffffffffffffffffffffffffffffffff\n      and\n        /* \"zap/ZapUniV2.sol\":1439:1449  msg.sender */\n      caller\n        /* \"zap/ZapUniV2.sol\":1439:1457  msg.sender == WETH */\n      0xffffffffffffffffffffffffffffffffffffffff\n      and\n      eq\n        /* \"zap/ZapUniV2.sol\":1432:1458  assert(msg.sender == WETH) */\n      tag_17\n      jumpi\n      tag_18\n      tag_19\n      jump\t// in\n    tag_18:\n    tag_17:\n        /* \"zap/ZapUniV2.sol\":850:8594  contract ZapUniswapV2 {... */\n      stop\n    tag_2:\n      0x00\n      dup1\n      revert\n        /* \"zap/ZapUniV2.sol\":1099:1125  IDyosToken public govToken */\n    tag_3:\n      callvalue\n      dup1\n      iszero\n      tag_20\n      jumpi\n      0x00\n      dup1\n      revert\n    tag_20:\n      pop\n      tag_21\n      tag_22\n      jump\t// in\n    tag_21:\n      mload(0x40)\n      tag_23\n      swap2\n      swap1\n      tag_24\n      jump\t// in\n    tag_23:\n      mload(0x40)\n      dup1\n      swap2\n      sub\n      swap1\n      return\n        /* \"zap/ZapUniV2.sol\":7387:8180  function estimateSwap(address dyosVault, address tokenIn, uint256 fullInvestmentIn) public view returns(uint256 swapAmountIn, uint256 swapAmountOut, address swapTokenOut) {... */\n    tag_4:\n      callvalue\n      dup1\n      iszero\n      tag_25\n      jumpi\n      0x00\n      dup1\n      revert\n    tag_25:\n      pop\n      tag_26\n      0x04\n      dup1\n      calldatasize\n      sub\n      dup2\n      add\n      swap1\n      tag_27\n      swap2\n      swap1\n      tag_28\n      jump\t// in\n    tag_27:\n      tag_29\n      jump\t// in\n    tag_26:\n      mload(0x40)\n      tag_30\n      swap4\n      swap3\n      swap2\n      swap1\n      tag_31\n      jump\t// in\n    tag_30:\n      mload(0x40)\n      dup1\n      swap2\n      sub\n      swap1\n      return\n        /* \"zap/ZapUniV2.sol\":1757:2233  function zapIn (address dyosVault, uint256 tokenAmountOutMin, address tokenIn, uint256 tokenInAmount) external {... */\n    tag_5:\n      callvalue\n      dup1\n      iszero\n      tag_32\n      jumpi\n      0x00\n      dup1\n      revert\n    tag_32:\n      pop\n      tag_33\n      0x04\n      dup1\n      calldatasize\n      sub\n      dup2\n      add\n      swap1\n      tag_34\n      swap2\n      swap1\n      tag_35\n      jump\t// in\n    tag_34:\n      tag_36\n      jump\t// in\n    tag_33:\n      stop\n        /* \"zap/ZapUniV2.sol\":1471:1751  function zapInETH (address dyosVault, uint256 tokenAmountOutMin) external payable {... */\n    tag_6:\n      tag_37\n      0x04\n      dup1\n      calldatasize\n      sub\n      dup2\n      add\n      swap1\n      tag_38\n      swap2\n      swap1\n      tag_39\n      jump\t// in\n    tag_38:\n      tag_40\n      jump\t// in\n    tag_37:\n      stop\n        /* \"zap/ZapUniV2.sol\":8186:8365  function checkWETH() public view returns (bool isValid) {... */\n    tag_7:\n      callvalue\n      dup1\n      iszero\n      tag_41\n      jumpi\n      0x00\n      dup1\n      revert\n    tag_41:\n      pop\n      tag_42\n      tag_43\n      jump\t// in\n    tag_42:\n      mload(0x40)\n      tag_44\n      swap2\n      swap1\n      tag_45\n      jump\t// in\n    tag_44:\n      mload(0x40)\n      dup1\n      swap2\n      sub\n      swap1\n      return\n        /* \"zap/ZapUniV2.sol\":1064:1093  address public immutable WETH */\n    tag_8:\n      callvalue\n      dup1\n      iszero\n      tag_46\n      jumpi\n      0x00\n      dup1\n      revert\n    tag_46:\n      pop\n      tag_47\n      tag_48\n      jump\t// in\n    tag_47:\n      mload(0x40)\n      tag_49\n      swap2\n      swap1\n      tag_50\n      jump\t// in\n    tag_49:\n      mload(0x40)\n      dup1\n      swap2\n      sub\n      swap1\n      return\n        /* \"zap/ZapUniV2.sol\":1131:1175  uint256 public constant minimumAmount = 1000 */\n    tag_9:\n      callvalue\n      dup1\n      iszero\n      tag_51\n      jumpi\n      0x00\n      dup1\n      revert\n    tag_51:\n      pop\n      tag_52\n      tag_53\n      jump\t// in\n    tag_52:\n      mload(0x40)\n      tag_54\n      swap2\n      swap1\n      tag_55\n      jump\t// in\n    tag_54:\n      mload(0x40)\n      dup1\n      swap2\n      sub\n      swap1\n      return\n        /* \"zap/ZapUniV2.sol\":2239:2862  function zapOut (address dyosVault, uint256 withdrawAmount) external {... */\n    tag_10:\n      callvalue\n      dup1\n      iszero\n      tag_56\n      jumpi\n      0x00\n      dup1\n      revert\n    tag_56:\n      pop\n      tag_57\n      0x04\n      dup1\n      calldatasize\n      sub\n      dup2\n      add\n      swap1\n      tag_58\n      swap2\n      swap1\n      tag_39\n      jump\t// in\n    tag_58:\n      tag_59\n      jump\t// in\n    tag_57:\n      stop\n        /* \"zap/ZapUniV2.sol\":1181:1212  uint256 public constant fee = 1 */\n    tag_11:\n      callvalue\n      dup1\n      iszero\n      tag_60\n      jumpi\n      0x00\n      dup1\n      revert\n    tag_60:\n      pop\n      tag_61\n      tag_62\n      jump\t// in\n    tag_61:\n      mload(0x40)\n      tag_63\n      swap2\n      swap1\n      tag_55\n      jump\t// in\n    tag_63:\n      mload(0x40)\n      dup1\n      swap2\n      sub\n      swap1\n      return\n        /* \"zap/ZapUniV2.sol\":2868:3855  function zapOutAndSwap(address dyosVault, uint256 withdrawAmount, address desiredToken, uint256 desiredTokenOutMin) external {... */\n    tag_12:\n      callvalue\n      dup1\n      iszero\n      tag_64\n      jumpi\n      0x00\n      dup1\n      revert\n    tag_64:\n      pop\n      tag_65\n      0x04\n      dup1\n      calldatasize\n      sub\n      dup2\n      add\n      swap1\n      tag_66\n      swap2\n      swap1\n      tag_35\n      jump\t// in\n    tag_66:\n      tag_67\n      jump\t// in\n    tag_65:\n      stop\n        /* \"zap/ZapUniV2.sol\":1016:1058  IUniswapV2Router02 public immutable router */\n    tag_13:\n      callvalue\n      dup1\n      iszero\n      tag_68\n      jumpi\n      0x00\n      dup1\n      revert\n    tag_68:\n      pop\n      tag_69\n      tag_70\n      jump\t// in\n    tag_69:\n      mload(0x40)\n      tag_71\n      swap2\n      swap1\n      tag_72\n      jump\t// in\n    tag_71:\n      mload(0x40)\n      dup1\n      swap2\n      sub\n      swap1\n      return\n        /* \"zap/ZapUniV2.sol\":1099:1125  IDyosToken public govToken */\n    tag_22:\n      0x00\n      dup1\n      sload\n      swap1\n      0x0100\n      exp\n      swap1\n      div\n      0xffffffffffffffffffffffffffffffffffffffff\n      and\n      dup2\n      jump\t// out\n        /* \"zap/ZapUniV2.sol\":7387:8180  function estimateSwap(address dyosVault, address tokenIn, uint256 fullInvestmentIn) public view returns(uint256 swapAmountIn, uint256 swapAmountOut, address swapTokenOut) {... */\n    tag_29:\n        /* \"zap/ZapUniV2.sol\":7491:7511  uint256 swapAmountIn */\n      0x00\n        /* \"zap/ZapUniV2.sol\":7513:7534  uint256 swapAmountOut */\n      dup1\n        /* \"zap/ZapUniV2.sol\":7536:7556  address swapTokenOut */\n      0x00\n        /* \"zap/ZapUniV2.sol\":7568:7579  checkWETH() */\n      tag_74\n        /* \"zap/ZapUniV2.sol\":7568:7577  checkWETH */\n      tag_43\n        /* \"zap/ZapUniV2.sol\":7568:7579  checkWETH() */\n      jump\t// in\n    tag_74:\n      pop\n        /* \"zap/ZapUniV2.sol\":7592:7611  IUniswapV2Pair pair */\n      0x00\n        /* \"zap/ZapUniV2.sol\":7615:7639  _getVaultPair(dyosVault) */\n      tag_75\n        /* \"zap/ZapUniV2.sol\":7629:7638  dyosVault */\n      dup8\n        /* \"zap/ZapUniV2.sol\":7615:7628  _getVaultPair */\n      tag_76\n        /* \"zap/ZapUniV2.sol\":7615:7639  _getVaultPair(dyosVault) */\n      jump\t// in\n    tag_75:\n        /* \"zap/ZapUniV2.sol\":7589:7639  (, IUniswapV2Pair pair) = _getVaultPair(dyosVault) */\n      swap2\n      pop\n      pop\n        /* \"zap/ZapUniV2.sol\":7650:7663  bool isInputA */\n      0x00\n        /* \"zap/ZapUniV2.sol\":7683:7690  tokenIn */\n      dup7\n        /* \"zap/ZapUniV2.sol\":7666:7690  pair.token0() == tokenIn */\n      0xffffffffffffffffffffffffffffffffffffffff\n      and\n        /* \"zap/ZapUniV2.sol\":7666:7670  pair */\n      dup3\n        /* \"zap/ZapUniV2.sol\":7666:7677  pair.token0 */\n      0xffffffffffffffffffffffffffffffffffffffff\n      and\n      0x0dfe1681\n        /* \"zap/ZapUniV2.sol\":7666:7679  pair.token0() */\n      mload(0x40)\n      dup2\n      0xffffffff\n      and\n      0xe0\n      shl\n      dup2\n      mstore\n      0x04\n      add\n      0x20\n      mload(0x40)\n      dup1\n      dup4\n      sub\n      dup2\n      dup7\n      dup1\n      extcodesize\n      iszero\n      dup1\n      iszero\n      tag_77\n      jumpi\n      0x00\n      dup1\n      revert\n    tag_77:\n      pop\n      gas\n      staticcall\n      iszero\n      dup1\n      iszero\n      tag_79\n      jumpi\n      returndatasize\n      0x00\n      dup1\n      returndatacopy\n      revert(0x00, returndatasize)\n    tag_79:\n      pop\n      pop\n      pop\n      pop\n      mload(0x40)\n      returndatasize\n      not(0x1f)\n      0x1f\n      dup3\n      add\n      and\n      dup3\n      add\n      dup1\n      0x40\n      mstore\n      pop\n      dup2\n      add\n      swap1\n      tag_80\n      swap2\n      swap1\n      tag_81\n      jump\t// in\n    tag_80:\n        /* \"zap/ZapUniV2.sol\":7666:7690  pair.token0() == tokenIn */\n      0xffffffffffffffffffffffffffffffffffffffff\n      and\n      eq\n        /* \"zap/ZapUniV2.sol\":7650:7690  bool isInputA = pair.token0() == tokenIn */\n      swap1\n      pop\n        /* \"zap/ZapUniV2.sol\":7708:7716  isInputA */\n      dup1\n        /* \"zap/ZapUniV2.sol\":7708:7744  isInputA || pair.token1() == tokenIn */\n      dup1\n      tag_82\n      jumpi\n      pop\n        /* \"zap/ZapUniV2.sol\":7737:7744  tokenIn */\n      dup7\n        /* \"zap/ZapUniV2.sol\":7720:7744  pair.token1() == tokenIn */\n      0xffffffffffffffffffffffffffffffffffffffff\n      and\n        /* \"zap/ZapUniV2.sol\":7720:7724  pair */\n      dup3\n        /* \"zap/ZapUniV2.sol\":7720:7731  pair.token1 */\n      0xffffffffffffffffffffffffffffffffffffffff\n      and\n      0xd21220a7\n        /* \"zap/ZapUniV2.sol\":7720:7733  pair.token1() */\n      mload(0x40)\n      dup2\n      0xffffffff\n      and\n      0xe0\n      shl\n      dup2\n      mstore\n      0x04\n      add\n      0x20\n      mload(0x40)\n      dup1\n      dup4\n      sub\n      dup2\n      dup7\n      dup1\n      extcodesize\n      iszero\n      dup1\n      iszero\n      tag_83\n      jumpi\n      0x00\n      dup1\n      revert\n    tag_83:\n      pop\n      gas\n      staticcall\n      iszero\n      dup1\n      iszero\n      tag_85\n      jumpi\n      returndatasize\n      0x00\n      dup1\n      returndatacopy\n      revert(0x00, returndatasize)\n    tag_85:\n      pop\n      pop\n      pop\n      pop\n      mload(0x40)\n      returndatasize\n      not(0x1f)\n      0x1f\n      dup3\n      add\n      and\n      dup3\n      add\n      dup1\n      0x40\n      mstore\n      pop\n      dup2\n      add\n      swap1\n      tag_86\n      swap2\n      swap1\n      tag_81\n      jump\t// in\n    tag_86:\n        /* \"zap/ZapUniV2.sol\":7720:7744  pair.token1() == tokenIn */\n      0xffffffffffffffffffffffffffffffffffffffff\n      and\n      eq\n        /* \"zap/ZapUniV2.sol\":7708:7744  isInputA || pair.token1() == tokenIn */\n    tag_82:\n        /* \"zap/ZapUniV2.sol\":7700:7795  require(isInputA || pair.token1() == tokenIn, 'Dyos: Input token not present in liqudity pair') */\n      tag_87\n      jumpi\n      mload(0x40)\n      0x08c379a000000000000000000000000000000000000000000000000000000000\n      dup2\n      mstore\n      0x04\n      add\n      tag_88\n      swap1\n      tag_89\n      jump\t// in\n    tag_88:\n      mload(0x40)\n      dup1\n      swap2\n      sub\n      swap1\n      revert\n    tag_87:\n        /* \"zap/ZapUniV2.sol\":7807:7823  uint256 reserveA */\n      0x00\n        /* \"zap/ZapUniV2.sol\":7825:7841  uint256 reserveB */\n      dup1\n        /* \"zap/ZapUniV2.sol\":7846:7850  pair */\n      dup4\n        /* \"zap/ZapUniV2.sol\":7846:7862  pair.getReserves */\n      0xffffffffffffffffffffffffffffffffffffffff\n      and\n      0x0902f1ac\n        /* \"zap/ZapUniV2.sol\":7846:7864  pair.getReserves() */\n      mload(0x40)\n      dup2\n      0xffffffff\n      and\n      0xe0\n      shl\n      dup2\n      mstore\n      0x04\n      add\n      0x60\n      mload(0x40)\n      dup1\n      dup4\n      sub\n      dup2\n      dup7\n      dup1\n      extcodesize\n      iszero\n      dup1\n      iszero\n      tag_90\n      jumpi\n      0x00\n      dup1\n      revert\n    tag_90:\n      pop\n      gas\n      staticcall\n      iszero\n      dup1\n      iszero\n      tag_92\n      jumpi\n      returndatasize\n      0x00\n      dup1\n      returndatacopy\n      revert(0x00, returndatasize)\n    tag_92:\n      pop\n      pop\n      pop\n      pop\n      mload(0x40)\n      returndatasize\n      not(0x1f)\n      0x1f\n      dup3\n      add\n      and\n      dup3\n      add\n      dup1\n      0x40\n      mstore\n      pop\n      dup2\n      add\n      swap1\n      tag_93\n      swap2\n      swap1\n      tag_94\n      jump\t// in\n    tag_93:\n        /* \"zap/ZapUniV2.sol\":7806:7864  (uint256 reserveA, uint256 reserveB,) = pair.getReserves() */\n      pop\n      0xffffffffffffffffffffffffffff\n      and\n      swap2\n      pop\n      0xffffffffffffffffffffffffffff\n      and\n      swap2\n      pop\n        /* \"zap/ZapUniV2.sol\":7897:7905  isInputA */\n      dup3\n        /* \"zap/ZapUniV2.sol\":7897:7951  isInputA ? (reserveA, reserveB) : (reserveB, reserveA) */\n      tag_95\n      jumpi\n        /* \"zap/ZapUniV2.sol\":7932:7940  reserveB */\n      dup1\n        /* \"zap/ZapUniV2.sol\":7942:7950  reserveA */\n      dup3\n        /* \"zap/ZapUniV2.sol\":7897:7951  isInputA ? (reserveA, reserveB) : (reserveB, reserveA) */\n      jump(tag_96)\n    tag_95:\n        /* \"zap/ZapUniV2.sol\":7909:7917  reserveA */\n      dup2\n        /* \"zap/ZapUniV2.sol\":7919:7927  reserveB */\n      dup2\n        /* \"zap/ZapUniV2.sol\":7897:7951  isInputA ? (reserveA, reserveB) : (reserveB, reserveA) */\n    tag_96:\n        /* \"zap/ZapUniV2.sol\":7874:7951  (reserveA, reserveB) = isInputA ? (reserveA, reserveB) : (reserveB, reserveA) */\n      dup1\n      swap3\n      pop\n      dup2\n      swap4\n      pop\n      pop\n      pop\n        /* \"zap/ZapUniV2.sol\":7977:8029  _getSwapAmount(fullInvestmentIn, reserveA, reserveB) */\n      tag_97\n        /* \"zap/ZapUniV2.sol\":7992:8008  fullInvestmentIn */\n      dup9\n        /* \"zap/ZapUniV2.sol\":8010:8018  reserveA */\n      dup4\n        /* \"zap/ZapUniV2.sol\":8020:8028  reserveB */\n      dup4\n        /* \"zap/ZapUniV2.sol\":7977:7991  _getSwapAmount */\n      tag_98\n        /* \"zap/ZapUniV2.sol\":7977:8029  _getSwapAmount(fullInvestmentIn, reserveA, reserveB) */\n      jump\t// in\n    tag_97:\n        /* \"zap/ZapUniV2.sol\":7962:8029  swapAmountIn = _getSwapAmount(fullInvestmentIn, reserveA, reserveB) */\n      swap7\n      pop\n        /* \"zap/ZapUniV2.sol\":8055:8061  router */\n      immutable(\"0x4ef9663edb9c329328f496fd120170da080941f0172e11759a68143dba082cd8\")\n        /* \"zap/ZapUniV2.sol\":8055:8074  router.getAmountOut */\n      0xffffffffffffffffffffffffffffffffffffffff\n      and\n      0x054d50d4\n        /* \"zap/ZapUniV2.sol\":8075:8087  swapAmountIn */\n      dup9\n        /* \"zap/ZapUniV2.sol\":8089:8097  reserveA */\n      dup5\n        /* \"zap/ZapUniV2.sol\":8099:8107  reserveB */\n      dup5\n        /* \"zap/ZapUniV2.sol\":8055:8108  router.getAmountOut(swapAmountIn, reserveA, reserveB) */\n      mload(0x40)\n      dup5\n      0xffffffff\n      and\n      0xe0\n      shl\n      dup2\n      mstore\n      0x04\n      add\n      tag_99\n      swap4\n      swap3\n      swap2\n      swap1\n      tag_100\n      jump\t// in\n    tag_99:\n      0x20\n      mload(0x40)\n      dup1\n      dup4\n      sub\n      dup2\n      dup7\n      dup1\n      extcodesize\n      iszero\n      dup1\n      iszero\n      tag_101\n      jumpi\n      0x00\n      dup1\n      revert\n    tag_101:\n      pop\n      gas\n      staticcall\n      iszero\n      dup1\n      iszero\n      tag_103\n      jumpi\n      returndatasize\n      0x00\n      dup1\n      returndatacopy\n      revert(0x00, returndatasize)\n    tag_103:\n      pop\n      pop\n      pop\n      pop\n      mload(0x40)\n      returndatasize\n      not(0x1f)\n      0x1f\n      dup3\n      add\n      and\n      dup3\n      add\n      dup1\n      0x40\n      mstore\n      pop\n      dup2\n      add\n      swap1\n      tag_104\n      swap2\n      swap1\n      tag_105\n      jump\t// in\n    tag_104:\n        /* \"zap/ZapUniV2.sol\":8039:8108  swapAmountOut = router.getAmountOut(swapAmountIn, reserveA, reserveB) */\n      swap6\n      pop\n        /* \"zap/ZapUniV2.sol\":8133:8141  isInputA */\n      dup3\n        /* \"zap/ZapUniV2.sol\":8133:8173  isInputA ? pair.token1() : pair.token0() */\n      tag_106\n      jumpi\n        /* \"zap/ZapUniV2.sol\":8160:8164  pair */\n      dup4\n        /* \"zap/ZapUniV2.sol\":8160:8171  pair.token0 */\n      0xffffffffffffffffffffffffffffffffffffffff\n      and\n      0x0dfe1681\n        /* \"zap/ZapUniV2.sol\":8160:8173  pair.token0() */\n      mload(0x40)\n      dup2\n      0xffffffff\n      and\n      0xe0\n      shl\n      dup2\n      mstore\n      0x04\n      add\n      0x20\n      mload(0x40)\n      dup1\n      dup4\n      sub\n      dup2\n      dup7\n      dup1\n      extcodesize\n      iszero\n      dup1\n      iszero\n      tag_107\n      jumpi\n      0x00\n      dup1\n      revert\n    tag_107:\n      pop\n      gas\n      staticcall\n      iszero\n      dup1\n      iszero\n      tag_109\n      jumpi\n      returndatasize\n      0x00\n      dup1\n      returndatacopy\n      revert(0x00, returndatasize)\n    tag_109:\n      pop\n      pop\n      pop\n      pop\n      mload(0x40)\n      returndatasize\n      not(0x1f)\n      0x1f\n      dup3\n      add\n      and\n      dup3\n      add\n      dup1\n      0x40\n      mstore\n      pop\n      dup2\n      add\n      swap1\n      tag_110\n      swap2\n      swap1\n      tag_81\n      jump\t// in\n    tag_110:\n        /* \"zap/ZapUniV2.sol\":8133:8173  isInputA ? pair.token1() : pair.token0() */\n      jump(tag_111)\n    tag_106:\n        /* \"zap/ZapUniV2.sol\":8144:8148  pair */\n      dup4\n        /* \"zap/ZapUniV2.sol\":8144:8155  pair.token1 */\n      0xffffffffffffffffffffffffffffffffffffffff\n      and\n      0xd21220a7\n        /* \"zap/ZapUniV2.sol\":8144:8157  pair.token1() */\n      mload(0x40)\n      dup2\n      0xffffffff\n      and\n      0xe0\n      shl\n      dup2\n      mstore\n      0x04\n      add\n      0x20\n      mload(0x40)\n      dup1\n      dup4\n      sub\n      dup2\n      dup7\n      dup1\n      extcodesize\n      iszero\n      dup1\n      iszero\n      tag_112\n      jumpi\n      0x00\n      dup1\n      revert\n    tag_112:\n      pop\n      gas\n      staticcall\n      iszero\n      dup1\n      iszero\n      tag_114\n      jumpi\n      returndatasize\n      0x00\n      dup1\n      returndatacopy\n      revert(0x00, returndatasize)\n    tag_114:\n      pop\n      pop\n      pop\n      pop\n      mload(0x40)\n      returndatasize\n      not(0x1f)\n      0x1f\n      dup3\n      add\n      and\n      dup3\n      add\n      dup1\n      0x40\n      mstore\n      pop\n      dup2\n      add\n      swap1\n      tag_115\n      swap2\n      swap1\n      tag_81\n      jump\t// in\n    tag_115:\n        /* \"zap/ZapUniV2.sol\":8133:8173  isInputA ? pair.token1() : pair.token0() */\n    tag_111:\n        /* \"zap/ZapUniV2.sol\":8118:8173  swapTokenOut = isInputA ? pair.token1() : pair.token0() */\n      swap5\n      pop\n        /* \"zap/ZapUniV2.sol\":7558:8180  {... */\n      pop\n      pop\n      pop\n      pop\n        /* \"zap/ZapUniV2.sol\":7387:8180  function estimateSwap(address dyosVault, address tokenIn, uint256 fullInvestmentIn) public view returns(uint256 swapAmountIn, uint256 swapAmountOut, address swapTokenOut) {... */\n      swap4\n      pop\n      swap4\n      pop\n      swap4\n      swap1\n      pop\n      jump\t// out\n        /* \"zap/ZapUniV2.sol\":1757:2233  function zapIn (address dyosVault, uint256 tokenAmountOutMin, address tokenIn, uint256 tokenInAmount) external {... */\n    tag_36:\n        /* \"zap/ZapUniV2.sol\":1171:1175  1000 */\n      0x03e8\n        /* \"zap/ZapUniV2.sol\":1886:1899  tokenInAmount */\n      dup2\n        /* \"zap/ZapUniV2.sol\":1886:1916  tokenInAmount >= minimumAmount */\n      lt\n      iszero\n        /* \"zap/ZapUniV2.sol\":1878:1953  require(tokenInAmount >= minimumAmount, 'Dyos: Insignificant input amount') */\n      tag_117\n      jumpi\n      mload(0x40)\n      0x08c379a000000000000000000000000000000000000000000000000000000000\n      dup2\n      mstore\n      0x04\n      add\n      tag_118\n      swap1\n      tag_119\n      jump\t// in\n    tag_118:\n      mload(0x40)\n      dup1\n      swap2\n      sub\n      swap1\n      revert\n    tag_117:\n        /* \"zap/ZapUniV2.sol\":2027:2040  tokenInAmount */\n      dup1\n        /* \"zap/ZapUniV2.sol\":1978:1985  tokenIn */\n      dup3\n        /* \"zap/ZapUniV2.sol\":1971:1996  IERC20(tokenIn).allowance */\n      0xffffffffffffffffffffffffffffffffffffffff\n      and\n      0xdd62ed3e\n        /* \"zap/ZapUniV2.sol\":1997:2007  msg.sender */\n      caller\n        /* \"zap/ZapUniV2.sol\":2017:2021  this */\n      address\n        /* \"zap/ZapUniV2.sol\":1971:2023  IERC20(tokenIn).allowance(msg.sender, address(this)) */\n      mload(0x40)\n      dup4\n      0xffffffff\n      and\n      0xe0\n      shl\n      dup2\n      mstore\n      0x04\n      add\n      tag_120\n      swap3\n      swap2\n      swap1\n      tag_121\n      jump\t// in\n    tag_120:\n      0x20\n      mload(0x40)\n      dup1\n      dup4\n      sub\n      dup2\n      dup7\n      dup1\n      extcodesize\n      iszero\n      dup1\n      iszero\n      tag_122\n      jumpi\n      0x00\n      dup1\n      revert\n    tag_122:\n      pop\n      gas\n      staticcall\n      iszero\n      dup1\n      iszero\n      tag_124\n      jumpi\n      returndatasize\n      0x00\n      dup1\n      returndatacopy\n      revert(0x00, returndatasize)\n    tag_124:\n      pop\n      pop\n      pop\n      pop\n      mload(0x40)\n      returndatasize\n      not(0x1f)\n      0x1f\n      dup3\n      add\n      and\n      dup3\n      add\n      dup1\n      0x40\n      mstore\n      pop\n      dup2\n      add\n      swap1\n      tag_125\n      swap2\n      swap1\n      tag_105\n      jump\t// in\n    tag_125:\n        /* \"zap/ZapUniV2.sol\":1971:2040  IERC20(tokenIn).allowance(msg.sender, address(this)) >= tokenInAmount */\n      lt\n      iszero\n        /* \"zap/ZapUniV2.sol\":1963:2078  require(IERC20(tokenIn).allowance(msg.sender, address(this)) >= tokenInAmount, 'Dyos: Input token is not approved') */\n      tag_126\n      jumpi\n      mload(0x40)\n      0x08c379a000000000000000000000000000000000000000000000000000000000\n      dup2\n      mstore\n      0x04\n      add\n      tag_127\n      swap1\n      tag_128\n      jump\t// in\n    tag_127:\n      mload(0x40)\n      dup1\n      swap2\n      sub\n      swap1\n      revert\n    tag_126:\n        /* \"zap/ZapUniV2.sol\":2089:2163  IERC20(tokenIn).safeTransferFrom(msg.sender, address(this), tokenInAmount) */\n      tag_129\n        /* \"zap/ZapUniV2.sol\":2122:2132  msg.sender */\n      caller\n        /* \"zap/ZapUniV2.sol\":2142:2146  this */\n      address\n        /* \"zap/ZapUniV2.sol\":2149:2162  tokenInAmount */\n      dup4\n        /* \"zap/ZapUniV2.sol\":2096:2103  tokenIn */\n      dup6\n        /* \"zap/ZapUniV2.sol\":2089:2121  IERC20(tokenIn).safeTransferFrom */\n      0xffffffffffffffffffffffffffffffffffffffff\n      and\n      tag_130\n      swap1\n        /* \"zap/ZapUniV2.sol\":2089:2163  IERC20(tokenIn).safeTransferFrom(msg.sender, address(this), tokenInAmount) */\n      swap4\n      swap3\n      swap2\n      swap1\n      0xffffffff\n      and\n      jump\t// in\n    tag_129:\n        /* \"zap/ZapUniV2.sol\":2174:2226  _swapAndStake(dyosVault, tokenAmountOutMin, tokenIn) */\n      tag_131\n        /* \"zap/ZapUniV2.sol\":2188:2197  dyosVault */\n      dup5\n        /* \"zap/ZapUniV2.sol\":2199:2216  tokenAmountOutMin */\n      dup5\n        /* \"zap/ZapUniV2.sol\":2218:2225  tokenIn */\n      dup5\n        /* \"zap/ZapUniV2.sol\":2174:2187  _swapAndStake */\n      tag_132\n        /* \"zap/ZapUniV2.sol\":2174:2226  _swapAndStake(dyosVault, tokenAmountOutMin, tokenIn) */\n      jump\t// in\n    tag_131:\n        /* \"zap/ZapUniV2.sol\":1757:2233  function zapIn (address dyosVault, uint256 tokenAmountOutMin, address tokenIn, uint256 tokenInAmount) external {... */\n      pop\n      pop\n      pop\n      pop\n      jump\t// out\n        /* \"zap/ZapUniV2.sol\":1471:1751  function zapInETH (address dyosVault, uint256 tokenAmountOutMin) external payable {... */\n    tag_40:\n        /* \"zap/ZapUniV2.sol\":1171:1175  1000 */\n      0x03e8\n        /* \"zap/ZapUniV2.sol\":1571:1580  msg.value */\n      callvalue\n        /* \"zap/ZapUniV2.sol\":1571:1597  msg.value >= minimumAmount */\n      lt\n      iszero\n        /* \"zap/ZapUniV2.sol\":1563:1634  require(msg.value >= minimumAmount, 'Dyos: Insignificant input amount') */\n      tag_134\n      jumpi\n      mload(0x40)\n      0x08c379a000000000000000000000000000000000000000000000000000000000\n      dup2\n      mstore\n      0x04\n      add\n      tag_135\n      swap1\n      tag_119\n      jump\t// in\n    tag_135:\n      mload(0x40)\n      dup1\n      swap2\n      sub\n      swap1\n      revert\n    tag_134:\n        /* \"zap/ZapUniV2.sol\":1651:1655  WETH */\n      immutable(\"0x4dbb9504d97152ac1bba73ee1b129519aaf8f560d232be004d9f12a192fbfd84\")\n        /* \"zap/ZapUniV2.sol\":1645:1664  IWETH(WETH).deposit */\n      0xffffffffffffffffffffffffffffffffffffffff\n      and\n      0xd0e30db0\n        /* \"zap/ZapUniV2.sol\":1672:1681  msg.value */\n      callvalue\n        /* \"zap/ZapUniV2.sol\":1645:1684  IWETH(WETH).deposit{value: msg.value}() */\n      mload(0x40)\n      dup3\n      0xffffffff\n      and\n      0xe0\n      shl\n      dup2\n      mstore\n      0x04\n      add\n      0x00\n      mload(0x40)\n      dup1\n      dup4\n      sub\n      dup2\n      dup6\n      dup9\n      dup1\n      extcodesize\n      iszero\n      dup1\n      iszero\n      tag_136\n      jumpi\n      0x00\n      dup1\n      revert\n    tag_136:\n      pop\n      gas\n      call\n      iszero\n      dup1\n      iszero\n      tag_138\n      jumpi\n      returndatasize\n      0x00\n      dup1\n      returndatacopy\n      revert(0x00, returndatasize)\n    tag_138:\n      pop\n      pop\n      pop\n      pop\n      pop\n        /* \"zap/ZapUniV2.sol\":1695:1744  _swapAndStake(dyosVault, tokenAmountOutMin, WETH) */\n      tag_139\n        /* \"zap/ZapUniV2.sol\":1709:1718  dyosVault */\n      dup3\n        /* \"zap/ZapUniV2.sol\":1720:1737  tokenAmountOutMin */\n      dup3\n        /* \"zap/ZapUniV2.sol\":1739:1743  WETH */\n      immutable(\"0x4dbb9504d97152ac1bba73ee1b129519aaf8f560d232be004d9f12a192fbfd84\")\n        /* \"zap/ZapUniV2.sol\":1695:1708  _swapAndStake */\n      tag_132\n        /* \"zap/ZapUniV2.sol\":1695:1744  _swapAndStake(dyosVault, tokenAmountOutMin, WETH) */\n      jump\t// in\n    tag_139:\n        /* \"zap/ZapUniV2.sol\":1471:1751  function zapInETH (address dyosVault, uint256 tokenAmountOutMin) external payable {... */\n      pop\n      pop\n      jump\t// out\n        /* \"zap/ZapUniV2.sol\":8186:8365  function checkWETH() public view returns (bool isValid) {... */\n    tag_43:\n        /* \"zap/ZapUniV2.sol\":8228:8240  bool isValid */\n      0x00\n        /* \"zap/ZapUniV2.sol\":8270:8276  router */\n      immutable(\"0x4ef9663edb9c329328f496fd120170da080941f0172e11759a68143dba082cd8\")\n        /* \"zap/ZapUniV2.sol\":8270:8281  router.WETH */\n      0xffffffffffffffffffffffffffffffffffffffff\n      and\n      0xad5c4648\n        /* \"zap/ZapUniV2.sol\":8270:8283  router.WETH() */\n      mload(0x40)\n      dup2\n      0xffffffff\n      and\n      0xe0\n      shl\n      dup2\n      mstore\n      0x04\n      add\n      0x20\n      mload(0x40)\n      dup1\n      dup4\n      sub\n      dup2\n      dup7\n      dup1\n      extcodesize\n      iszero\n      dup1\n      iszero\n      tag_141\n      jumpi\n      0x00\n      dup1\n      revert\n    tag_141:\n      pop\n      gas\n      staticcall\n      iszero\n      dup1\n      iszero\n      tag_143\n      jumpi\n      returndatasize\n      0x00\n      dup1\n      returndatacopy\n      revert(0x00, returndatasize)\n    tag_143:\n      pop\n      pop\n      pop\n      pop\n      mload(0x40)\n      returndatasize\n      not(0x1f)\n      0x1f\n      dup3\n      add\n      and\n      dup3\n      add\n      dup1\n      0x40\n      mstore\n      pop\n      dup2\n      add\n      swap1\n      tag_144\n      swap2\n      swap1\n      tag_81\n      jump\t// in\n    tag_144:\n        /* \"zap/ZapUniV2.sol\":8262:8283  WETH == router.WETH() */\n      0xffffffffffffffffffffffffffffffffffffffff\n      and\n        /* \"zap/ZapUniV2.sol\":8262:8266  WETH */\n      immutable(\"0x4dbb9504d97152ac1bba73ee1b129519aaf8f560d232be004d9f12a192fbfd84\")\n        /* \"zap/ZapUniV2.sol\":8262:8283  WETH == router.WETH() */\n      0xffffffffffffffffffffffffffffffffffffffff\n      and\n      eq\n        /* \"zap/ZapUniV2.sol\":8252:8283  isValid = WETH == router.WETH() */\n      swap1\n      pop\n        /* \"zap/ZapUniV2.sol\":8301:8308  isValid */\n      dup1\n        /* \"zap/ZapUniV2.sol\":8293:8358  require(isValid, 'Dyos: WETH address not matching Router.WETH()') */\n      tag_145\n      jumpi\n      mload(0x40)\n      0x08c379a000000000000000000000000000000000000000000000000000000000\n      dup2\n      mstore\n      0x04\n      add\n      tag_146\n      swap1\n      tag_147\n      jump\t// in\n    tag_146:\n      mload(0x40)\n      dup1\n      swap2\n      sub\n      swap1\n      revert\n    tag_145:\n        /* \"zap/ZapUniV2.sol\":8186:8365  function checkWETH() public view returns (bool isValid) {... */\n      swap1\n      jump\t// out\n        /* \"zap/ZapUniV2.sol\":1064:1093  address public immutable WETH */\n    tag_48:\n      immutable(\"0x4dbb9504d97152ac1bba73ee1b129519aaf8f560d232be004d9f12a192fbfd84\")\n      dup2\n      jump\t// out\n        /* \"zap/ZapUniV2.sol\":1131:1175  uint256 public constant minimumAmount = 1000 */\n    tag_53:\n        /* \"zap/ZapUniV2.sol\":1171:1175  1000 */\n      0x03e8\n        /* \"zap/ZapUniV2.sol\":1131:1175  uint256 public constant minimumAmount = 1000 */\n      dup2\n      jump\t// out\n        /* \"zap/ZapUniV2.sol\":2239:2862  function zapOut (address dyosVault, uint256 withdrawAmount) external {... */\n    tag_59:\n        /* \"zap/ZapUniV2.sol\":2319:2331  IVault vault */\n      0x00\n        /* \"zap/ZapUniV2.sol\":2333:2352  IUniswapV2Pair pair */\n      dup1\n        /* \"zap/ZapUniV2.sol\":2356:2380  _getVaultPair(dyosVault) */\n      tag_149\n        /* \"zap/ZapUniV2.sol\":2370:2379  dyosVault */\n      dup5\n        /* \"zap/ZapUniV2.sol\":2356:2369  _getVaultPair */\n      tag_76\n        /* \"zap/ZapUniV2.sol\":2356:2380  _getVaultPair(dyosVault) */\n      jump\t// in\n    tag_149:\n        /* \"zap/ZapUniV2.sol\":2318:2380  (IVault vault, IUniswapV2Pair pair) = _getVaultPair(dyosVault) */\n      swap2\n      pop\n      swap2\n      pop\n        /* \"zap/ZapUniV2.sol\":2391:2468  IERC20(dyosVault).safeTransferFrom(msg.sender, address(this), withdrawAmount) */\n      tag_150\n        /* \"zap/ZapUniV2.sol\":2426:2436  msg.sender */\n      caller\n        /* \"zap/ZapUniV2.sol\":2446:2450  this */\n      address\n        /* \"zap/ZapUniV2.sol\":2453:2467  withdrawAmount */\n      dup6\n        /* \"zap/ZapUniV2.sol\":2398:2407  dyosVault */\n      dup8\n        /* \"zap/ZapUniV2.sol\":2391:2425  IERC20(dyosVault).safeTransferFrom */\n      0xffffffffffffffffffffffffffffffffffffffff\n      and\n      tag_130\n      swap1\n        /* \"zap/ZapUniV2.sol\":2391:2468  IERC20(dyosVault).safeTransferFrom(msg.sender, address(this), withdrawAmount) */\n      swap4\n      swap3\n      swap2\n      swap1\n      0xffffffff\n      and\n      jump\t// in\n    tag_150:\n        /* \"zap/ZapUniV2.sol\":2478:2483  vault */\n      dup2\n        /* \"zap/ZapUniV2.sol\":2478:2492  vault.withdraw */\n      0xffffffffffffffffffffffffffffffffffffffff\n      and\n      0x2e1a7d4d\n        /* \"zap/ZapUniV2.sol\":2493:2507  withdrawAmount */\n      dup5\n        /* \"zap/ZapUniV2.sol\":2478:2508  vault.withdraw(withdrawAmount) */\n      mload(0x40)\n      dup3\n      0xffffffff\n      and\n      0xe0\n      shl\n      dup2\n      mstore\n      0x04\n      add\n      tag_151\n      swap2\n      swap1\n      tag_55\n      jump\t// in\n    tag_151:\n      0x00\n      mload(0x40)\n      dup1\n      dup4\n      sub\n      dup2\n      0x00\n      dup8\n      dup1\n      extcodesize\n      iszero\n      dup1\n      iszero\n      tag_152\n      jumpi\n      0x00\n      dup1\n      revert\n    tag_152:\n      pop\n      gas\n      call\n      iszero\n      dup1\n      iszero\n      tag_154\n      jumpi\n      returndatasize\n      0x00\n      dup1\n      returndatacopy\n      revert(0x00, returndatasize)\n    tag_154:\n      pop\n      pop\n      pop\n      pop\n        /* \"zap/ZapUniV2.sol\":2540:2544  WETH */\n      immutable(\"0x4dbb9504d97152ac1bba73ee1b129519aaf8f560d232be004d9f12a192fbfd84\")\n        /* \"zap/ZapUniV2.sol\":2523:2544  pair.token0() != WETH */\n      0xffffffffffffffffffffffffffffffffffffffff\n      and\n        /* \"zap/ZapUniV2.sol\":2523:2527  pair */\n      dup2\n        /* \"zap/ZapUniV2.sol\":2523:2534  pair.token0 */\n      0xffffffffffffffffffffffffffffffffffffffff\n      and\n      0x0dfe1681\n        /* \"zap/ZapUniV2.sol\":2523:2536  pair.token0() */\n      mload(0x40)\n      dup2\n      0xffffffff\n      and\n      0xe0\n      shl\n      dup2\n      mstore\n      0x04\n      add\n      0x20\n      mload(0x40)\n      dup1\n      dup4\n      sub\n      dup2\n      dup7\n      dup1\n      extcodesize\n      iszero\n      dup1\n      iszero\n      tag_155\n      jumpi\n      0x00\n      dup1\n      revert\n    tag_155:\n      pop\n      gas\n      staticcall\n      iszero\n      dup1\n      iszero\n      tag_157\n      jumpi\n      returndatasize\n      0x00\n      dup1\n      returndatacopy\n      revert(0x00, returndatasize)\n    tag_157:\n      pop\n      pop\n      pop\n      pop\n      mload(0x40)\n      returndatasize\n      not(0x1f)\n      0x1f\n      dup3\n      add\n      and\n      dup3\n      add\n      dup1\n      0x40\n      mstore\n      pop\n      dup2\n      add\n      swap1\n      tag_158\n      swap2\n      swap1\n      tag_81\n      jump\t// in\n    tag_158:\n        /* \"zap/ZapUniV2.sol\":2523:2544  pair.token0() != WETH */\n      0xffffffffffffffffffffffffffffffffffffffff\n      and\n      eq\n      iszero\n        /* \"zap/ZapUniV2.sol\":2523:2569  pair.token0() != WETH && pair.token1() != WETH */\n      dup1\n      iszero\n      tag_159\n      jumpi\n      pop\n        /* \"zap/ZapUniV2.sol\":2565:2569  WETH */\n      immutable(\"0x4dbb9504d97152ac1bba73ee1b129519aaf8f560d232be004d9f12a192fbfd84\")\n        /* \"zap/ZapUniV2.sol\":2548:2569  pair.token1() != WETH */\n      0xffffffffffffffffffffffffffffffffffffffff\n      and\n        /* \"zap/ZapUniV2.sol\":2548:2552  pair */\n      dup2\n        /* \"zap/ZapUniV2.sol\":2548:2559  pair.token1 */\n      0xffffffffffffffffffffffffffffffffffffffff\n      and\n      0xd21220a7\n        /* \"zap/ZapUniV2.sol\":2548:2561  pair.token1() */\n      mload(0x40)\n      dup2\n      0xffffffff\n      and\n      0xe0\n      shl\n      dup2\n      mstore\n      0x04\n      add\n      0x20\n      mload(0x40)\n      dup1\n      dup4\n      sub\n      dup2\n      dup7\n      dup1\n      extcodesize\n      iszero\n      dup1\n      iszero\n      tag_160\n      jumpi\n      0x00\n      dup1\n      revert\n    tag_160:\n      pop\n      gas\n      staticcall\n      iszero\n      dup1\n      iszero\n      tag_162\n      jumpi\n      returndatasize\n      0x00\n      dup1\n      returndatacopy\n      revert(0x00, returndatasize)\n    tag_162:\n      pop\n      pop\n      pop\n      pop\n      mload(0x40)\n      returndatasize\n      not(0x1f)\n      0x1f\n      dup3\n      add\n      and\n      dup3\n      add\n      dup1\n      0x40\n      mstore\n      pop\n      dup2\n      add\n      swap1\n      tag_163\n      swap2\n      swap1\n      tag_81\n      jump\t// in\n    tag_163:\n        /* \"zap/ZapUniV2.sol\":2548:2569  pair.token1() != WETH */\n      0xffffffffffffffffffffffffffffffffffffffff\n      and\n      eq\n      iszero\n        /* \"zap/ZapUniV2.sol\":2523:2569  pair.token0() != WETH && pair.token1() != WETH */\n    tag_159:\n        /* \"zap/ZapUniV2.sol\":2519:2645  if (pair.token0() != WETH && pair.token1() != WETH) {... */\n      iszero\n      tag_164\n      jumpi\n        /* \"zap/ZapUniV2.sol\":2592:2634  _removeLiqudity(address(pair), msg.sender) */\n      tag_165\n        /* \"zap/ZapUniV2.sol\":2616:2620  pair */\n      dup2\n        /* \"zap/ZapUniV2.sol\":2623:2633  msg.sender */\n      caller\n        /* \"zap/ZapUniV2.sol\":2592:2607  _removeLiqudity */\n      tag_166\n        /* \"zap/ZapUniV2.sol\":2592:2634  _removeLiqudity(address(pair), msg.sender) */\n      jump\t// in\n    tag_165:\n        /* \"zap/ZapUniV2.sol\":2585:2634  return _removeLiqudity(address(pair), msg.sender) */\n      pop\n      pop\n      jump(tag_148)\n        /* \"zap/ZapUniV2.sol\":2519:2645  if (pair.token0() != WETH && pair.token1() != WETH) {... */\n    tag_164:\n        /* \"zap/ZapUniV2.sol\":2655:2700  _removeLiqudity(address(pair), address(this)) */\n      tag_167\n        /* \"zap/ZapUniV2.sol\":2679:2683  pair */\n      dup2\n        /* \"zap/ZapUniV2.sol\":2694:2698  this */\n      address\n        /* \"zap/ZapUniV2.sol\":2655:2670  _removeLiqudity */\n      tag_166\n        /* \"zap/ZapUniV2.sol\":2655:2700  _removeLiqudity(address(pair), address(this)) */\n      jump\t// in\n    tag_167:\n        /* \"zap/ZapUniV2.sol\":2711:2734  address[] memory tokens */\n      0x00\n        /* \"zap/ZapUniV2.sol\":2751:2752  2 */\n      0x02\n        /* \"zap/ZapUniV2.sol\":2737:2753  new address[](2) */\n      0xffffffffffffffff\n      dup2\n      gt\n      iszero\n      tag_168\n      jumpi\n      tag_169\n      tag_170\n      jump\t// in\n    tag_169:\n    tag_168:\n      mload(0x40)\n      swap1\n      dup1\n      dup3\n      mstore\n      dup1\n      0x20\n      mul\n      0x20\n      add\n      dup3\n      add\n      0x40\n      mstore\n      dup1\n      iszero\n      tag_171\n      jumpi\n      dup2\n      0x20\n      add\n      0x20\n      dup3\n      mul\n      dup1\n      calldatasize\n      dup4\n      calldatacopy\n      dup1\n      dup3\n      add\n      swap2\n      pop\n      pop\n      swap1\n      pop\n    tag_171:\n      pop\n        /* \"zap/ZapUniV2.sol\":2711:2753  address[] memory tokens = new address[](2) */\n      swap1\n      pop\n        /* \"zap/ZapUniV2.sol\":2775:2779  pair */\n      dup2\n        /* \"zap/ZapUniV2.sol\":2775:2786  pair.token0 */\n      0xffffffffffffffffffffffffffffffffffffffff\n      and\n      0x0dfe1681\n        /* \"zap/ZapUniV2.sol\":2775:2788  pair.token0() */\n      mload(0x40)\n      dup2\n      0xffffffff\n      and\n      0xe0\n      shl\n      dup2\n      mstore\n      0x04\n      add\n      0x20\n      mload(0x40)\n      dup1\n      dup4\n      sub\n      dup2\n      dup7\n      dup1\n      extcodesize\n      iszero\n      dup1\n      iszero\n      tag_172\n      jumpi\n      0x00\n      dup1\n      revert\n    tag_172:\n      pop\n      gas\n      staticcall\n      iszero\n      dup1\n      iszero\n      tag_174\n      jumpi\n      returndatasize\n      0x00\n      dup1\n      returndatacopy\n      revert(0x00, returndatasize)\n    tag_174:\n      pop\n      pop\n      pop\n      pop\n      mload(0x40)\n      returndatasize\n      not(0x1f)\n      0x1f\n      dup3\n      add\n      and\n      dup3\n      add\n      dup1\n      0x40\n      mstore\n      pop\n      dup2\n      add\n      swap1\n      tag_175\n      swap2\n      swap1\n      tag_81\n      jump\t// in\n    tag_175:\n        /* \"zap/ZapUniV2.sol\":2763:2769  tokens */\n      dup2\n        /* \"zap/ZapUniV2.sol\":2770:2771  0 */\n      0x00\n        /* \"zap/ZapUniV2.sol\":2763:2772  tokens[0] */\n      dup2\n      mload\n      dup2\n      lt\n      tag_176\n      jumpi\n      tag_177\n      tag_178\n      jump\t// in\n    tag_177:\n    tag_176:\n      0x20\n      mul\n      0x20\n      add\n      add\n        /* \"zap/ZapUniV2.sol\":2763:2788  tokens[0] = pair.token0() */\n      swap1\n      0xffffffffffffffffffffffffffffffffffffffff\n      and\n      swap1\n      dup2\n      0xffffffffffffffffffffffffffffffffffffffff\n      and\n      dup2\n      mstore\n      pop\n      pop\n        /* \"zap/ZapUniV2.sol\":2810:2814  pair */\n      dup2\n        /* \"zap/ZapUniV2.sol\":2810:2821  pair.token1 */\n      0xffffffffffffffffffffffffffffffffffffffff\n      and\n      0xd21220a7\n        /* \"zap/ZapUniV2.sol\":2810:2823  pair.token1() */\n      mload(0x40)\n      dup2\n      0xffffffff\n      and\n      0xe0\n      shl\n      dup2\n      mstore\n      0x04\n      add\n      0x20\n      mload(0x40)\n      dup1\n      dup4\n      sub\n      dup2\n      dup7\n      dup1\n      extcodesize\n      iszero\n      dup1\n      iszero\n      tag_179\n      jumpi\n      0x00\n      dup1\n      revert\n    tag_179:\n      pop\n      gas\n      staticcall\n      iszero\n      dup1\n      iszero\n      tag_181\n      jumpi\n      returndatasize\n      0x00\n      dup1\n      returndatacopy\n      revert(0x00, returndatasize)\n    tag_181:\n      pop\n      pop\n      pop\n      pop\n      mload(0x40)\n      returndatasize\n      not(0x1f)\n      0x1f\n      dup3\n      add\n      and\n      dup3\n      add\n      dup1\n      0x40\n      mstore\n      pop\n      dup2\n      add\n      swap1\n      tag_182\n      swap2\n      swap1\n      tag_81\n      jump\t// in\n    tag_182:\n        /* \"zap/ZapUniV2.sol\":2798:2804  tokens */\n      dup2\n        /* \"zap/ZapUniV2.sol\":2805:2806  1 */\n      0x01\n        /* \"zap/ZapUniV2.sol\":2798:2807  tokens[1] */\n      dup2\n      mload\n      dup2\n      lt\n      tag_183\n      jumpi\n      tag_184\n      tag_178\n      jump\t// in\n    tag_184:\n    tag_183:\n      0x20\n      mul\n      0x20\n      add\n      add\n        /* \"zap/ZapUniV2.sol\":2798:2823  tokens[1] = pair.token1() */\n      swap1\n      0xffffffffffffffffffffffffffffffffffffffff\n      and\n      swap1\n      dup2\n      0xffffffffffffffffffffffffffffffffffffffff\n      and\n      dup2\n      mstore\n      pop\n      pop\n        /* \"zap/ZapUniV2.sol\":2834:2855  _returnAssets(tokens) */\n      tag_185\n        /* \"zap/ZapUniV2.sol\":2848:2854  tokens */\n      dup2\n        /* \"zap/ZapUniV2.sol\":2834:2847  _returnAssets */\n      tag_186\n        /* \"zap/ZapUniV2.sol\":2834:2855  _returnAssets(tokens) */\n      jump\t// in\n    tag_185:\n        /* \"zap/ZapUniV2.sol\":2308:2862  {... */\n      pop\n      pop\n      pop\n        /* \"zap/ZapUniV2.sol\":2239:2862  function zapOut (address dyosVault, uint256 withdrawAmount) external {... */\n    tag_148:\n      pop\n      pop\n      jump\t// out\n        /* \"zap/ZapUniV2.sol\":1181:1212  uint256 public constant fee = 1 */\n    tag_62:\n        /* \"zap/ZapUniV2.sol\":1211:1212  1 */\n      0x01\n        /* \"zap/ZapUniV2.sol\":1181:1212  uint256 public constant fee = 1 */\n      dup2\n      jump\t// out\n        /* \"zap/ZapUniV2.sol\":2868:3855  function zapOutAndSwap(address dyosVault, uint256 withdrawAmount, address desiredToken, uint256 desiredTokenOutMin) external {... */\n    tag_67:\n        /* \"zap/ZapUniV2.sol\":3004:3016  IVault vault */\n      0x00\n        /* \"zap/ZapUniV2.sol\":3018:3037  IUniswapV2Pair pair */\n      dup1\n        /* \"zap/ZapUniV2.sol\":3041:3065  _getVaultPair(dyosVault) */\n      tag_188\n        /* \"zap/ZapUniV2.sol\":3055:3064  dyosVault */\n      dup7\n        /* \"zap/ZapUniV2.sol\":3041:3054  _getVaultPair */\n      tag_76\n        /* \"zap/ZapUniV2.sol\":3041:3065  _getVaultPair(dyosVault) */\n      jump\t// in\n    tag_188:\n        /* \"zap/ZapUniV2.sol\":3003:3065  (IVault vault, IUniswapV2Pair pair) = _getVaultPair(dyosVault) */\n      swap2\n      pop\n      swap2\n      pop\n        /* \"zap/ZapUniV2.sol\":3075:3089  address token0 */\n      0x00\n        /* \"zap/ZapUniV2.sol\":3092:3096  pair */\n      dup2\n        /* \"zap/ZapUniV2.sol\":3092:3103  pair.token0 */\n      0xffffffffffffffffffffffffffffffffffffffff\n      and\n      0x0dfe1681\n        /* \"zap/ZapUniV2.sol\":3092:3105  pair.token0() */\n      mload(0x40)\n      dup2\n      0xffffffff\n      and\n      0xe0\n      shl\n      dup2\n      mstore\n      0x04\n      add\n      0x20\n      mload(0x40)\n      dup1\n      dup4\n      sub\n      dup2\n      dup7\n      dup1\n      extcodesize\n      iszero\n      dup1\n      iszero\n      tag_189\n      jumpi\n      0x00\n      dup1\n      revert\n    tag_189:\n      pop\n      gas\n      staticcall\n      iszero\n      dup1\n      iszero\n      tag_191\n      jumpi\n      returndatasize\n      0x00\n      dup1\n      returndatacopy\n      revert(0x00, returndatasize)\n    tag_191:\n      pop\n      pop\n      pop\n      pop\n      mload(0x40)\n      returndatasize\n      not(0x1f)\n      0x1f\n      dup3\n      add\n      and\n      dup3\n      add\n      dup1\n      0x40\n      mstore\n      pop\n      dup2\n      add\n      swap1\n      tag_192\n      swap2\n      swap1\n      tag_81\n      jump\t// in\n    tag_192:\n        /* \"zap/ZapUniV2.sol\":3075:3105  address token0 = pair.token0() */\n      swap1\n      pop\n        /* \"zap/ZapUniV2.sol\":3115:3129  address token1 */\n      0x00\n        /* \"zap/ZapUniV2.sol\":3132:3136  pair */\n      dup3\n        /* \"zap/ZapUniV2.sol\":3132:3143  pair.token1 */\n      0xffffffffffffffffffffffffffffffffffffffff\n      and\n      0xd21220a7\n        /* \"zap/ZapUniV2.sol\":3132:3145  pair.token1() */\n      mload(0x40)\n      dup2\n      0xffffffff\n      and\n      0xe0\n      shl\n      dup2\n      mstore\n      0x04\n      add\n      0x20\n      mload(0x40)\n      dup1\n      dup4\n      sub\n      dup2\n      dup7\n      dup1\n      extcodesize\n      iszero\n      dup1\n      iszero\n      tag_193\n      jumpi\n      0x00\n      dup1\n      revert\n    tag_193:\n      pop\n      gas\n      staticcall\n      iszero\n      dup1\n      iszero\n      tag_195\n      jumpi\n      returndatasize\n      0x00\n      dup1\n      returndatacopy\n      revert(0x00, returndatasize)\n    tag_195:\n      pop\n      pop\n      pop\n      pop\n      mload(0x40)\n      returndatasize\n      not(0x1f)\n      0x1f\n      dup3\n      add\n      and\n      dup3\n      add\n      dup1\n      0x40\n      mstore\n      pop\n      dup2\n      add\n      swap1\n      tag_196\n      swap2\n      swap1\n      tag_81\n      jump\t// in\n    tag_196:\n        /* \"zap/ZapUniV2.sol\":3115:3145  address token1 = pair.token1() */\n      swap1\n      pop\n        /* \"zap/ZapUniV2.sol\":3173:3185  desiredToken */\n      dup6\n        /* \"zap/ZapUniV2.sol\":3163:3185  token0 == desiredToken */\n      0xffffffffffffffffffffffffffffffffffffffff\n      and\n        /* \"zap/ZapUniV2.sol\":3163:3169  token0 */\n      dup3\n        /* \"zap/ZapUniV2.sol\":3163:3185  token0 == desiredToken */\n      0xffffffffffffffffffffffffffffffffffffffff\n      and\n      eq\n        /* \"zap/ZapUniV2.sol\":3163:3211  token0 == desiredToken || token1 == desiredToken */\n      dup1\n      tag_197\n      jumpi\n      pop\n        /* \"zap/ZapUniV2.sol\":3199:3211  desiredToken */\n      dup6\n        /* \"zap/ZapUniV2.sol\":3189:3211  token1 == desiredToken */\n      0xffffffffffffffffffffffffffffffffffffffff\n      and\n        /* \"zap/ZapUniV2.sol\":3189:3195  token1 */\n      dup2\n        /* \"zap/ZapUniV2.sol\":3189:3211  token1 == desiredToken */\n      0xffffffffffffffffffffffffffffffffffffffff\n      and\n      eq\n        /* \"zap/ZapUniV2.sol\":3163:3211  token0 == desiredToken || token1 == desiredToken */\n    tag_197:\n        /* \"zap/ZapUniV2.sol\":3155:3264  require(token0 == desiredToken || token1 == desiredToken, 'Dyos: desired token not present in liqudity pair') */\n      tag_198\n      jumpi\n      mload(0x40)\n      0x08c379a000000000000000000000000000000000000000000000000000000000\n      dup2\n      mstore\n      0x04\n      add\n      tag_199\n      swap1\n      tag_200\n      jump\t// in\n    tag_199:\n      mload(0x40)\n      dup1\n      swap2\n      sub\n      swap1\n      revert\n    tag_198:\n        /* \"zap/ZapUniV2.sol\":3275:3340  vault.safeTransferFrom(msg.sender, address(this), withdrawAmount) */\n      tag_201\n        /* \"zap/ZapUniV2.sol\":3298:3308  msg.sender */\n      caller\n        /* \"zap/ZapUniV2.sol\":3318:3322  this */\n      address\n        /* \"zap/ZapUniV2.sol\":3325:3339  withdrawAmount */\n      dup10\n        /* \"zap/ZapUniV2.sol\":3275:3280  vault */\n      dup8\n        /* \"zap/ZapUniV2.sol\":3275:3297  vault.safeTransferFrom */\n      0xffffffffffffffffffffffffffffffffffffffff\n      and\n      tag_130\n      swap1\n        /* \"zap/ZapUniV2.sol\":3275:3340  vault.safeTransferFrom(msg.sender, address(this), withdrawAmount) */\n      swap4\n      swap3\n      swap2\n      swap1\n      0xffffffff\n      and\n      jump\t// in\n    tag_201:\n        /* \"zap/ZapUniV2.sol\":3350:3355  vault */\n      dup4\n        /* \"zap/ZapUniV2.sol\":3350:3364  vault.withdraw */\n      0xffffffffffffffffffffffffffffffffffffffff\n      and\n      0x2e1a7d4d\n        /* \"zap/ZapUniV2.sol\":3365:3379  withdrawAmount */\n      dup9\n        /* \"zap/ZapUniV2.sol\":3350:3380  vault.withdraw(withdrawAmount) */\n      mload(0x40)\n      dup3\n      0xffffffff\n      and\n      0xe0\n      shl\n      dup2\n      mstore\n      0x04\n      add\n      tag_202\n      swap2\n      swap1\n      tag_55\n      jump\t// in\n    tag_202:\n      0x00\n      mload(0x40)\n      dup1\n      dup4\n      sub\n      dup2\n      0x00\n      dup8\n      dup1\n      extcodesize\n      iszero\n      dup1\n      iszero\n      tag_203\n      jumpi\n      0x00\n      dup1\n      revert\n    tag_203:\n      pop\n      gas\n      call\n      iszero\n      dup1\n      iszero\n      tag_205\n      jumpi\n      returndatasize\n      0x00\n      dup1\n      returndatacopy\n      revert(0x00, returndatasize)\n    tag_205:\n      pop\n      pop\n      pop\n      pop\n        /* \"zap/ZapUniV2.sol\":3390:3435  _removeLiqudity(address(pair), address(this)) */\n      tag_206\n        /* \"zap/ZapUniV2.sol\":3414:3418  pair */\n      dup4\n        /* \"zap/ZapUniV2.sol\":3429:3433  this */\n      address\n        /* \"zap/ZapUniV2.sol\":3390:3405  _removeLiqudity */\n      tag_166\n        /* \"zap/ZapUniV2.sol\":3390:3435  _removeLiqudity(address(pair), address(this)) */\n      jump\t// in\n    tag_206:\n        /* \"zap/ZapUniV2.sol\":3446:3463  address swapToken */\n      0x00\n        /* \"zap/ZapUniV2.sol\":3476:3488  desiredToken */\n      dup7\n        /* \"zap/ZapUniV2.sol\":3466:3488  token1 == desiredToken */\n      0xffffffffffffffffffffffffffffffffffffffff\n      and\n        /* \"zap/ZapUniV2.sol\":3466:3472  token1 */\n      dup3\n        /* \"zap/ZapUniV2.sol\":3466:3488  token1 == desiredToken */\n      0xffffffffffffffffffffffffffffffffffffffff\n      and\n      eq\n        /* \"zap/ZapUniV2.sol\":3466:3506  token1 == desiredToken ? token0 : token1 */\n      tag_207\n      jumpi\n        /* \"zap/ZapUniV2.sol\":3500:3506  token1 */\n      dup2\n        /* \"zap/ZapUniV2.sol\":3466:3506  token1 == desiredToken ? token0 : token1 */\n      jump(tag_208)\n    tag_207:\n        /* \"zap/ZapUniV2.sol\":3491:3497  token0 */\n      dup3\n        /* \"zap/ZapUniV2.sol\":3466:3506  token1 == desiredToken ? token0 : token1 */\n    tag_208:\n        /* \"zap/ZapUniV2.sol\":3446:3506  address swapToken = token1 == desiredToken ? token0 : token1 */\n      swap1\n      pop\n        /* \"zap/ZapUniV2.sol\":3516:3537  address[] memory path */\n      0x00\n        /* \"zap/ZapUniV2.sol\":3554:3555  2 */\n      0x02\n        /* \"zap/ZapUniV2.sol\":3540:3556  new address[](2) */\n      0xffffffffffffffff\n      dup2\n      gt\n      iszero\n      tag_209\n      jumpi\n      tag_210\n      tag_170\n      jump\t// in\n    tag_210:\n    tag_209:\n      mload(0x40)\n      swap1\n      dup1\n      dup3\n      mstore\n      dup1\n      0x20\n      mul\n      0x20\n      add\n      dup3\n      add\n      0x40\n      mstore\n      dup1\n      iszero\n      tag_211\n      jumpi\n      dup2\n      0x20\n      add\n      0x20\n      dup3\n      mul\n      dup1\n      calldatasize\n      dup4\n      calldatacopy\n      dup1\n      dup3\n      add\n      swap2\n      pop\n      pop\n      swap1\n      pop\n    tag_211:\n      pop\n        /* \"zap/ZapUniV2.sol\":3516:3556  address[] memory path = new address[](2) */\n      swap1\n      pop\n        /* \"zap/ZapUniV2.sol\":3576:3585  swapToken */\n      dup2\n        /* \"zap/ZapUniV2.sol\":3566:3570  path */\n      dup2\n        /* \"zap/ZapUniV2.sol\":3571:3572  0 */\n      0x00\n        /* \"zap/ZapUniV2.sol\":3566:3573  path[0] */\n      dup2\n      mload\n      dup2\n      lt\n      tag_212\n      jumpi\n      tag_213\n      tag_178\n      jump\t// in\n    tag_213:\n    tag_212:\n      0x20\n      mul\n      0x20\n      add\n      add\n        /* \"zap/ZapUniV2.sol\":3566:3585  path[0] = swapToken */\n      swap1\n      0xffffffffffffffffffffffffffffffffffffffff\n      and\n      swap1\n      dup2\n      0xffffffffffffffffffffffffffffffffffffffff\n      and\n      dup2\n      mstore\n      pop\n      pop\n        /* \"zap/ZapUniV2.sol\":3605:3617  desiredToken */\n      dup8\n        /* \"zap/ZapUniV2.sol\":3595:3599  path */\n      dup2\n        /* \"zap/ZapUniV2.sol\":3600:3601  1 */\n      0x01\n        /* \"zap/ZapUniV2.sol\":3595:3602  path[1] */\n      dup2\n      mload\n      dup2\n      lt\n      tag_214\n      jumpi\n      tag_215\n      tag_178\n      jump\t// in\n    tag_215:\n    tag_214:\n      0x20\n      mul\n      0x20\n      add\n      add\n        /* \"zap/ZapUniV2.sol\":3595:3617  path[1] = desiredToken */\n      swap1\n      0xffffffffffffffffffffffffffffffffffffffff\n      and\n      swap1\n      dup2\n      0xffffffffffffffffffffffffffffffffffffffff\n      and\n      dup2\n      mstore\n      pop\n      pop\n        /* \"zap/ZapUniV2.sol\":3628:3675  _approveTokenIfNeeded(path[0], address(router)) */\n      tag_216\n        /* \"zap/ZapUniV2.sol\":3650:3654  path */\n      dup2\n        /* \"zap/ZapUniV2.sol\":3655:3656  0 */\n      0x00\n        /* \"zap/ZapUniV2.sol\":3650:3657  path[0] */\n      dup2\n      mload\n      dup2\n      lt\n      tag_217\n      jumpi\n      tag_218\n      tag_178\n      jump\t// in\n    tag_218:\n    tag_217:\n      0x20\n      mul\n      0x20\n      add\n      add\n      mload\n        /* \"zap/ZapUniV2.sol\":3667:3673  router */\n      immutable(\"0x4ef9663edb9c329328f496fd120170da080941f0172e11759a68143dba082cd8\")\n        /* \"zap/ZapUniV2.sol\":3628:3649  _approveTokenIfNeeded */\n      tag_219\n        /* \"zap/ZapUniV2.sol\":3628:3675  _approveTokenIfNeeded(path[0], address(router)) */\n      jump\t// in\n    tag_216:\n        /* \"zap/ZapUniV2.sol\":3685:3691  router */\n      immutable(\"0x4ef9663edb9c329328f496fd120170da080941f0172e11759a68143dba082cd8\")\n        /* \"zap/ZapUniV2.sol\":3685:3716  router.swapExactTokensForTokens */\n      0xffffffffffffffffffffffffffffffffffffffff\n      and\n      0x38ed1739\n        /* \"zap/ZapUniV2.sol\":3724:3733  swapToken */\n      dup4\n        /* \"zap/ZapUniV2.sol\":3717:3744  IERC20(swapToken).balanceOf */\n      0xffffffffffffffffffffffffffffffffffffffff\n      and\n      0x70a08231\n        /* \"zap/ZapUniV2.sol\":3753:3757  this */\n      address\n        /* \"zap/ZapUniV2.sol\":3717:3759  IERC20(swapToken).balanceOf(address(this)) */\n      mload(0x40)\n      dup3\n      0xffffffff\n      and\n      0xe0\n      shl\n      dup2\n      mstore\n      0x04\n      add\n      tag_220\n      swap2\n      swap1\n      tag_50\n      jump\t// in\n    tag_220:\n      0x20\n      mload(0x40)\n      dup1\n      dup4\n      sub\n      dup2\n      dup7\n      dup1\n      extcodesize\n      iszero\n      dup1\n      iszero\n      tag_221\n      jumpi\n      0x00\n      dup1\n      revert\n    tag_221:\n      pop\n      gas\n      staticcall\n      iszero\n      dup1\n      iszero\n      tag_223\n      jumpi\n      returndatasize\n      0x00\n      dup1\n      returndatacopy\n      revert(0x00, returndatasize)\n    tag_223:\n      pop\n      pop\n      pop\n      pop\n      mload(0x40)\n      returndatasize\n      not(0x1f)\n      0x1f\n      dup3\n      add\n      and\n      dup3\n      add\n      dup1\n      0x40\n      mstore\n      pop\n      dup2\n      add\n      swap1\n      tag_224\n      swap2\n      swap1\n      tag_105\n      jump\t// in\n    tag_224:\n        /* \"zap/ZapUniV2.sol\":3761:3779  desiredTokenOutMin */\n      dup10\n        /* \"zap/ZapUniV2.sol\":3781:3785  path */\n      dup5\n        /* \"zap/ZapUniV2.sol\":3795:3799  this */\n      address\n        /* \"zap/ZapUniV2.sol\":3802:3817  block.timestamp */\n      timestamp\n        /* \"zap/ZapUniV2.sol\":3685:3818  router.swapExactTokensForTokens(IERC20(swapToken).balanceOf(address(this)), desiredTokenOutMin, path, address(this), block.timestamp) */\n      mload(0x40)\n      dup7\n      0xffffffff\n      and\n      0xe0\n      shl\n      dup2\n      mstore\n      0x04\n      add\n      tag_225\n      swap6\n      swap5\n      swap4\n      swap3\n      swap2\n      swap1\n      tag_226\n      jump\t// in\n    tag_225:\n      0x00\n      mload(0x40)\n      dup1\n      dup4\n      sub\n      dup2\n      0x00\n      dup8\n      dup1\n      extcodesize\n      iszero\n      dup1\n      iszero\n      tag_227\n      jumpi\n      0x00\n      dup1\n      revert\n    tag_227:\n      pop\n      gas\n      call\n      iszero\n      dup1\n      iszero\n      tag_229\n      jumpi\n      returndatasize\n      0x00\n      dup1\n      returndatacopy\n      revert(0x00, returndatasize)\n    tag_229:\n      pop\n      pop\n      pop\n      pop\n      mload(0x40)\n      returndatasize\n      0x00\n      dup3\n      returndatacopy\n      returndatasize\n      not(0x1f)\n      0x1f\n      dup3\n      add\n      and\n      dup3\n      add\n      dup1\n      0x40\n      mstore\n      pop\n      dup2\n      add\n      swap1\n      tag_230\n      swap2\n      swap1\n      tag_231\n      jump\t// in\n    tag_230:\n      pop\n        /* \"zap/ZapUniV2.sol\":3829:3848  _returnAssets(path) */\n      tag_232\n        /* \"zap/ZapUniV2.sol\":3843:3847  path */\n      dup2\n        /* \"zap/ZapUniV2.sol\":3829:3842  _returnAssets */\n      tag_186\n        /* \"zap/ZapUniV2.sol\":3829:3848  _returnAssets(path) */\n      jump\t// in\n    tag_232:\n        /* \"zap/ZapUniV2.sol\":2993:3855  {... */\n      pop\n      pop\n      pop\n      pop\n      pop\n      pop\n        /* \"zap/ZapUniV2.sol\":2868:3855  function zapOutAndSwap(address dyosVault, uint256 withdrawAmount, address desiredToken, uint256 desiredTokenOutMin) external {... */\n      pop\n      pop\n      pop\n      pop\n      jump\t// out\n        /* \"zap/ZapUniV2.sol\":1016:1058  IUniswapV2Router02 public immutable router */\n    tag_70:\n      immutable(\"0x4ef9663edb9c329328f496fd120170da080941f0172e11759a68143dba082cd8\")\n      dup2\n      jump\t// out\n        /* \"zap/ZapUniV2.sol\":4260:4545  function _getVaultPair (address dyosVault) private view returns (IVault vault, IUniswapV2Pair pair) {... */\n    tag_76:\n        /* \"zap/ZapUniV2.sol\":4325:4337  IVault vault */\n      0x00\n        /* \"zap/ZapUniV2.sol\":4339:4358  IUniswapV2Pair pair */\n      dup1\n        /* \"zap/ZapUniV2.sol\":4385:4394  dyosVault */\n      dup3\n        /* \"zap/ZapUniV2.sol\":4370:4395  vault = IVault(dyosVault) */\n      swap2\n      pop\n        /* \"zap/ZapUniV2.sol\":4427:4432  vault */\n      dup2\n        /* \"zap/ZapUniV2.sol\":4427:4437  vault.want */\n      0xffffffffffffffffffffffffffffffffffffffff\n      and\n      0x1f1fcd51\n        /* \"zap/ZapUniV2.sol\":4427:4439  vault.want() */\n      mload(0x40)\n      dup2\n      0xffffffff\n      and\n      0xe0\n      shl\n      dup2\n      mstore\n      0x04\n      add\n      0x20\n      mload(0x40)\n      dup1\n      dup4\n      sub\n      dup2\n      dup7\n      dup1\n      extcodesize\n      iszero\n      dup1\n      iszero\n      tag_234\n      jumpi\n      0x00\n      dup1\n      revert\n    tag_234:\n      pop\n      gas\n      staticcall\n      iszero\n      dup1\n      iszero\n      tag_236\n      jumpi\n      returndatasize\n      0x00\n      dup1\n      returndatacopy\n      revert(0x00, returndatasize)\n    tag_236:\n      pop\n      pop\n      pop\n      pop\n      mload(0x40)\n      returndatasize\n      not(0x1f)\n      0x1f\n      dup3\n      add\n      and\n      dup3\n      add\n      dup1\n      0x40\n      mstore\n      pop\n      dup2\n      add\n      swap1\n      tag_237\n      swap2\n      swap1\n      tag_81\n      jump\t// in\n    tag_237:\n        /* \"zap/ZapUniV2.sol\":4405:4440  pair = IUniswapV2Pair(vault.want()) */\n      swap1\n      pop\n        /* \"zap/ZapUniV2.sol\":4476:4482  router */\n      immutable(\"0x4ef9663edb9c329328f496fd120170da080941f0172e11759a68143dba082cd8\")\n        /* \"zap/ZapUniV2.sol\":4476:4490  router.factory */\n      0xffffffffffffffffffffffffffffffffffffffff\n      and\n      0xc45a0155\n        /* \"zap/ZapUniV2.sol\":4476:4492  router.factory() */\n      mload(0x40)\n      dup2\n      0xffffffff\n      and\n      0xe0\n      shl\n      dup2\n      mstore\n      0x04\n      add\n      0x20\n      mload(0x40)\n      dup1\n      dup4\n      sub\n      dup2\n      dup7\n      dup1\n      extcodesize\n      iszero\n      dup1\n      iszero\n      tag_238\n      jumpi\n      0x00\n      dup1\n      revert\n    tag_238:\n      pop\n      gas\n      staticcall\n      iszero\n      dup1\n      iszero\n      tag_240\n      jumpi\n      returndatasize\n      0x00\n      dup1\n      returndatacopy\n      revert(0x00, returndatasize)\n    tag_240:\n      pop\n      pop\n      pop\n      pop\n      mload(0x40)\n      returndatasize\n      not(0x1f)\n      0x1f\n      dup3\n      add\n      and\n      dup3\n      add\n      dup1\n      0x40\n      mstore\n      pop\n      dup2\n      add\n      swap1\n      tag_241\n      swap2\n      swap1\n      tag_81\n      jump\t// in\n    tag_241:\n        /* \"zap/ZapUniV2.sol\":4458:4492  pair.factory() == router.factory() */\n      0xffffffffffffffffffffffffffffffffffffffff\n      and\n        /* \"zap/ZapUniV2.sol\":4458:4462  pair */\n      dup2\n        /* \"zap/ZapUniV2.sol\":4458:4470  pair.factory */\n      0xffffffffffffffffffffffffffffffffffffffff\n      and\n      0xc45a0155\n        /* \"zap/ZapUniV2.sol\":4458:4472  pair.factory() */\n      mload(0x40)\n      dup2\n      0xffffffff\n      and\n      0xe0\n      shl\n      dup2\n      mstore\n      0x04\n      add\n      0x20\n      mload(0x40)\n      dup1\n      dup4\n      sub\n      dup2\n      dup7\n      dup1\n      extcodesize\n      iszero\n      dup1\n      iszero\n      tag_242\n      jumpi\n      0x00\n      dup1\n      revert\n    tag_242:\n      pop\n      gas\n      staticcall\n      iszero\n      dup1\n      iszero\n      tag_244\n      jumpi\n      returndatasize\n      0x00\n      dup1\n      returndatacopy\n      revert(0x00, returndatasize)\n    tag_244:\n      pop\n      pop\n      pop\n      pop\n      mload(0x40)\n      returndatasize\n      not(0x1f)\n      0x1f\n      dup3\n      add\n      and\n      dup3\n      add\n      dup1\n      0x40\n      mstore\n      pop\n      dup2\n      add\n      swap1\n      tag_245\n      swap2\n      swap1\n      tag_81\n      jump\t// in\n    tag_245:\n        /* \"zap/ZapUniV2.sol\":4458:4492  pair.factory() == router.factory() */\n      0xffffffffffffffffffffffffffffffffffffffff\n      and\n      eq\n        /* \"zap/ZapUniV2.sol\":4450:4538  require(pair.factory() == router.factory(), 'Dyos: Incompatible liquidity pair factory') */\n      tag_246\n      jumpi\n      mload(0x40)\n      0x08c379a000000000000000000000000000000000000000000000000000000000\n      dup2\n      mstore\n      0x04\n      add\n      tag_247\n      swap1\n      tag_248\n      jump\t// in\n    tag_247:\n      mload(0x40)\n      dup1\n      swap2\n      sub\n      swap1\n      revert\n    tag_246:\n        /* \"zap/ZapUniV2.sol\":4260:4545  function _getVaultPair (address dyosVault) private view returns (IVault vault, IUniswapV2Pair pair) {... */\n      swap2\n      pop\n      swap2\n      jump\t// out\n        /* \"zap/ZapUniV2.sol\":6887:7381  function _getSwapAmount(uint256 investmentA, uint256 reserveA, uint256 reserveB) private view returns (uint256 swapAmount) {... */\n    tag_98:\n        /* \"zap/ZapUniV2.sol\":6990:7008  uint256 swapAmount */\n      0x00\n        /* \"zap/ZapUniV2.sol\":7020:7042  uint256 halfInvestment */\n      dup1\n        /* \"zap/ZapUniV2.sol\":7059:7060  2 */\n      0x02\n        /* \"zap/ZapUniV2.sol\":7045:7056  investmentA */\n      dup6\n        /* \"zap/ZapUniV2.sol\":7045:7060  investmentA / 2 */\n      tag_250\n      swap2\n      swap1\n      tag_251\n      jump\t// in\n    tag_250:\n        /* \"zap/ZapUniV2.sol\":7020:7060  uint256 halfInvestment = investmentA / 2 */\n      swap1\n      pop\n        /* \"zap/ZapUniV2.sol\":7070:7087  uint256 nominator */\n      0x00\n        /* \"zap/ZapUniV2.sol\":7090:7096  router */\n      immutable(\"0x4ef9663edb9c329328f496fd120170da080941f0172e11759a68143dba082cd8\")\n        /* \"zap/ZapUniV2.sol\":7090:7109  router.getAmountOut */\n      0xffffffffffffffffffffffffffffffffffffffff\n      and\n      0x054d50d4\n        /* \"zap/ZapUniV2.sol\":7110:7124  halfInvestment */\n      dup4\n        /* \"zap/ZapUniV2.sol\":7126:7134  reserveA */\n      dup8\n        /* \"zap/ZapUniV2.sol\":7136:7144  reserveB */\n      dup8\n        /* \"zap/ZapUniV2.sol\":7090:7145  router.getAmountOut(halfInvestment, reserveA, reserveB) */\n      mload(0x40)\n      dup5\n      0xffffffff\n      and\n      0xe0\n      shl\n      dup2\n      mstore\n      0x04\n      add\n      tag_252\n      swap4\n      swap3\n      swap2\n      swap1\n      tag_100\n      jump\t// in\n    tag_252:\n      0x20\n      mload(0x40)\n      dup1\n      dup4\n      sub\n      dup2\n      dup7\n      dup1\n      extcodesize\n      iszero\n      dup1\n      iszero\n      tag_253\n      jumpi\n      0x00\n      dup1\n      revert\n    tag_253:\n      pop\n      gas\n      staticcall\n      iszero\n      dup1\n      iszero\n      tag_255\n      jumpi\n      returndatasize\n      0x00\n      dup1\n      returndatacopy\n      revert(0x00, returndatasize)\n    tag_255:\n      pop\n      pop\n      pop\n      pop\n      mload(0x40)\n      returndatasize\n      not(0x1f)\n      0x1f\n      dup3\n      add\n      and\n      dup3\n      add\n      dup1\n      0x40\n      mstore\n      pop\n      dup2\n      add\n      swap1\n      tag_256\n      swap2\n      swap1\n      tag_105\n      jump\t// in\n    tag_256:\n        /* \"zap/ZapUniV2.sol\":7070:7145  uint256 nominator = router.getAmountOut(halfInvestment, reserveA, reserveB) */\n      swap1\n      pop\n        /* \"zap/ZapUniV2.sol\":7155:7174  uint256 denominator */\n      0x00\n        /* \"zap/ZapUniV2.sol\":7177:7183  router */\n      immutable(\"0x4ef9663edb9c329328f496fd120170da080941f0172e11759a68143dba082cd8\")\n        /* \"zap/ZapUniV2.sol\":7177:7189  router.quote */\n      0xffffffffffffffffffffffffffffffffffffffff\n      and\n      0xad615dec\n        /* \"zap/ZapUniV2.sol\":7190:7204  halfInvestment */\n      dup5\n        /* \"zap/ZapUniV2.sol\":7206:7234  reserveA.add(halfInvestment) */\n      tag_257\n        /* \"zap/ZapUniV2.sol\":7219:7233  halfInvestment */\n      dup7\n        /* \"zap/ZapUniV2.sol\":7206:7214  reserveA */\n      dup11\n        /* \"zap/ZapUniV2.sol\":7206:7218  reserveA.add */\n      tag_258\n      swap1\n        /* \"zap/ZapUniV2.sol\":7206:7234  reserveA.add(halfInvestment) */\n      swap2\n      swap1\n      0xffffffff\n      and\n      jump\t// in\n    tag_257:\n        /* \"zap/ZapUniV2.sol\":7236:7259  reserveB.sub(nominator) */\n      tag_259\n        /* \"zap/ZapUniV2.sol\":7249:7258  nominator */\n      dup7\n        /* \"zap/ZapUniV2.sol\":7236:7244  reserveB */\n      dup11\n        /* \"zap/ZapUniV2.sol\":7236:7248  reserveB.sub */\n      tag_260\n      swap1\n        /* \"zap/ZapUniV2.sol\":7236:7259  reserveB.sub(nominator) */\n      swap2\n      swap1\n      0xffffffff\n      and\n      jump\t// in\n    tag_259:\n        /* \"zap/ZapUniV2.sol\":7177:7260  router.quote(halfInvestment, reserveA.add(halfInvestment), reserveB.sub(nominator)) */\n      mload(0x40)\n      dup5\n      0xffffffff\n      and\n      0xe0\n      shl\n      dup2\n      mstore\n      0x04\n      add\n      tag_261\n      swap4\n      swap3\n      swap2\n      swap1\n      tag_100\n      jump\t// in\n    tag_261:\n      0x20\n      mload(0x40)\n      dup1\n      dup4\n      sub\n      dup2\n      dup7\n      dup1\n      extcodesize\n      iszero\n      dup1\n      iszero\n      tag_262\n      jumpi\n      0x00\n      dup1\n      revert\n    tag_262:\n      pop\n      gas\n      staticcall\n      iszero\n      dup1\n      iszero\n      tag_264\n      jumpi\n      returndatasize\n      0x00\n      dup1\n      returndatacopy\n      revert(0x00, returndatasize)\n    tag_264:\n      pop\n      pop\n      pop\n      pop\n      mload(0x40)\n      returndatasize\n      not(0x1f)\n      0x1f\n      dup3\n      add\n      and\n      dup3\n      add\n      dup1\n      0x40\n      mstore\n      pop\n      dup2\n      add\n      swap1\n      tag_265\n      swap2\n      swap1\n      tag_105\n      jump\t// in\n    tag_265:\n        /* \"zap/ZapUniV2.sol\":7155:7260  uint256 denominator = router.quote(halfInvestment, reserveA.add(halfInvestment), reserveB.sub(nominator)) */\n      swap1\n      pop\n        /* \"zap/ZapUniV2.sol\":7283:7374  investmentA.sub(Babylonian.sqrt(halfInvestment * halfInvestment * nominator / denominator)) */\n      tag_266\n        /* \"zap/ZapUniV2.sol\":7299:7373  Babylonian.sqrt(halfInvestment * halfInvestment * nominator / denominator) */\n      tag_267\n        /* \"zap/ZapUniV2.sol\":7361:7372  denominator */\n      dup3\n        /* \"zap/ZapUniV2.sol\":7349:7358  nominator */\n      dup5\n        /* \"zap/ZapUniV2.sol\":7332:7346  halfInvestment */\n      dup7\n        /* \"zap/ZapUniV2.sol\":7315:7329  halfInvestment */\n      dup8\n        /* \"zap/ZapUniV2.sol\":7315:7346  halfInvestment * halfInvestment */\n      tag_268\n      swap2\n      swap1\n      tag_269\n      jump\t// in\n    tag_268:\n        /* \"zap/ZapUniV2.sol\":7315:7358  halfInvestment * halfInvestment * nominator */\n      tag_270\n      swap2\n      swap1\n      tag_269\n      jump\t// in\n    tag_270:\n        /* \"zap/ZapUniV2.sol\":7315:7372  halfInvestment * halfInvestment * nominator / denominator */\n      tag_271\n      swap2\n      swap1\n      tag_251\n      jump\t// in\n    tag_271:\n        /* \"zap/ZapUniV2.sol\":7299:7314  Babylonian.sqrt */\n      tag_272\n        /* \"zap/ZapUniV2.sol\":7299:7373  Babylonian.sqrt(halfInvestment * halfInvestment * nominator / denominator) */\n      jump\t// in\n    tag_267:\n        /* \"zap/ZapUniV2.sol\":7283:7294  investmentA */\n      dup9\n        /* \"zap/ZapUniV2.sol\":7283:7298  investmentA.sub */\n      tag_260\n      swap1\n        /* \"zap/ZapUniV2.sol\":7283:7374  investmentA.sub(Babylonian.sqrt(halfInvestment * halfInvestment * nominator / denominator)) */\n      swap2\n      swap1\n      0xffffffff\n      and\n      jump\t// in\n    tag_266:\n        /* \"zap/ZapUniV2.sol\":7270:7374  swapAmount = investmentA.sub(Babylonian.sqrt(halfInvestment * halfInvestment * nominator / denominator)) */\n      swap4\n      pop\n        /* \"zap/ZapUniV2.sol\":7010:7381  {... */\n      pop\n      pop\n      pop\n        /* \"zap/ZapUniV2.sol\":6887:7381  function _getSwapAmount(uint256 investmentA, uint256 reserveA, uint256 reserveB) private view returns (uint256 swapAmount) {... */\n      swap4\n      swap3\n      pop\n      pop\n      pop\n      jump\t// out\n        /* \"@openzeppelin/contracts/token/ERC20/utils/SafeERC20.sol\":974:1215  function safeTransferFrom(... */\n    tag_130:\n        /* \"@openzeppelin/contracts/token/ERC20/utils/SafeERC20.sol\":1112:1208  _callOptionalReturn(token, abi.encodeWithSelector(token.transferFrom.selector, from, to, value)) */\n      tag_274\n        /* \"@openzeppelin/contracts/token/ERC20/utils/SafeERC20.sol\":1132:1137  token */\n      dup5\n        /* \"@openzeppelin/contracts/token/ERC20/utils/SafeERC20.sol\":1162:1189  token.transferFrom.selector */\n      shl(0xe0, 0x23b872dd)\n        /* \"@openzeppelin/contracts/token/ERC20/utils/SafeERC20.sol\":1191:1195  from */\n      dup6\n        /* \"@openzeppelin/contracts/token/ERC20/utils/SafeERC20.sol\":1197:1199  to */\n      dup6\n        /* \"@openzeppelin/contracts/token/ERC20/utils/SafeERC20.sol\":1201:1206  value */\n      dup6\n        /* \"@openzeppelin/contracts/token/ERC20/utils/SafeERC20.sol\":1139:1207  abi.encodeWithSelector(token.transferFrom.selector, from, to, value) */\n      add(0x24, mload(0x40))\n      tag_275\n      swap4\n      swap3\n      swap2\n      swap1\n      tag_276\n      jump\t// in\n    tag_275:\n      mload(0x40)\n      0x20\n      dup2\n      dup4\n      sub\n      sub\n      dup2\n      mstore\n      swap1\n      0x40\n      mstore\n      swap1\n      not(0xffffffffffffffffffffffffffffffffffffffffffffffffffffffff)\n      and\n      0x20\n      dup3\n      add\n      dup1\n      mload\n      0xffffffffffffffffffffffffffffffffffffffffffffffffffffffff\n      dup4\n      dup2\n      dup4\n      and\n      or\n      dup4\n      mstore\n      pop\n      pop\n      pop\n      pop\n        /* \"@openzeppelin/contracts/token/ERC20/utils/SafeERC20.sol\":1112:1131  _callOptionalReturn */\n      tag_277\n        /* \"@openzeppelin/contracts/token/ERC20/utils/SafeERC20.sol\":1112:1208  _callOptionalReturn(token, abi.encodeWithSelector(token.transferFrom.selector, from, to, value)) */\n      jump\t// in\n    tag_274:\n        /* \"@openzeppelin/contracts/token/ERC20/utils/SafeERC20.sol\":974:1215  function safeTransferFrom(... */\n      pop\n      pop\n      pop\n      pop\n      jump\t// out\n        /* \"zap/ZapUniV2.sol\":4551:6255  function _swapAndStake(address dyosVault, uint256 tokenAmountOutMin, address tokenIn) private {... */\n    tag_132:\n        /* \"zap/ZapUniV2.sol\":4656:4668  IVault vault */\n      0x00\n        /* \"zap/ZapUniV2.sol\":4670:4689  IUniswapV2Pair pair */\n      dup1\n        /* \"zap/ZapUniV2.sol\":4693:4717  _getVaultPair(dyosVault) */\n      tag_279\n        /* \"zap/ZapUniV2.sol\":4707:4716  dyosVault */\n      dup6\n        /* \"zap/ZapUniV2.sol\":4693:4706  _getVaultPair */\n      tag_76\n        /* \"zap/ZapUniV2.sol\":4693:4717  _getVaultPair(dyosVault) */\n      jump\t// in\n    tag_279:\n        /* \"zap/ZapUniV2.sol\":4655:4717  (IVault vault, IUniswapV2Pair pair) = _getVaultPair(dyosVault) */\n      swap2\n      pop\n      swap2\n      pop\n        /* \"zap/ZapUniV2.sol\":4729:4745  uint256 reserveA */\n      0x00\n        /* \"zap/ZapUniV2.sol\":4747:4763  uint256 reserveB */\n      dup1\n        /* \"zap/ZapUniV2.sol\":4768:4772  pair */\n      dup3\n        /* \"zap/ZapUniV2.sol\":4768:4784  pair.getReserves */\n      0xffffffffffffffffffffffffffffffffffffffff\n      and\n      0x0902f1ac\n        /* \"zap/ZapUniV2.sol\":4768:4786  pair.getReserves() */\n      mload(0x40)\n      dup2\n      0xffffffff\n      and\n      0xe0\n      shl\n      dup2\n      mstore\n      0x04\n      add\n      0x60\n      mload(0x40)\n      dup1\n      dup4\n      sub\n      dup2\n      dup7\n      dup1\n      extcodesize\n      iszero\n      dup1\n      iszero\n      tag_280\n      jumpi\n      0x00\n      dup1\n      revert\n    tag_280:\n      pop\n      gas\n      staticcall\n      iszero\n      dup1\n      iszero\n      tag_282\n      jumpi\n      returndatasize\n      0x00\n      dup1\n      returndatacopy\n      revert(0x00, returndatasize)\n    tag_282:\n      pop\n      pop\n      pop\n      pop\n      mload(0x40)\n      returndatasize\n      not(0x1f)\n      0x1f\n      dup3\n      add\n      and\n      dup3\n      add\n      dup1\n      0x40\n      mstore\n      pop\n      dup2\n      add\n      swap1\n      tag_283\n      swap2\n      swap1\n      tag_94\n      jump\t// in\n    tag_283:\n        /* \"zap/ZapUniV2.sol\":4728:4786  (uint256 reserveA, uint256 reserveB,) = pair.getReserves() */\n      pop\n      0xffffffffffffffffffffffffffff\n      and\n      swap2\n      pop\n      0xffffffffffffffffffffffffffff\n      and\n      swap2\n      pop\n        /* \"zap/ZapUniV2.sol\":1171:1175  1000 */\n      0x03e8\n        /* \"zap/ZapUniV2.sol\":4804:4812  reserveA */\n      dup3\n        /* \"zap/ZapUniV2.sol\":4804:4828  reserveA > minimumAmount */\n      gt\n        /* \"zap/ZapUniV2.sol\":4804:4856  reserveA > minimumAmount && reserveB > minimumAmount */\n      dup1\n      iszero\n      tag_284\n      jumpi\n      pop\n        /* \"zap/ZapUniV2.sol\":1171:1175  1000 */\n      0x03e8\n        /* \"zap/ZapUniV2.sol\":4832:4840  reserveB */\n      dup2\n        /* \"zap/ZapUniV2.sol\":4832:4856  reserveB > minimumAmount */\n      gt\n        /* \"zap/ZapUniV2.sol\":4804:4856  reserveA > minimumAmount && reserveB > minimumAmount */\n    tag_284:\n        /* \"zap/ZapUniV2.sol\":4796:4898  require(reserveA > minimumAmount && reserveB > minimumAmount, 'Dyos: Liquidity pair reserves too low') */\n      tag_285\n      jumpi\n      mload(0x40)\n      0x08c379a000000000000000000000000000000000000000000000000000000000\n      dup2\n      mstore\n      0x04\n      add\n      tag_286\n      swap1\n      tag_287\n      jump\t// in\n    tag_286:\n      mload(0x40)\n      dup1\n      swap2\n      sub\n      swap1\n      revert\n    tag_285:\n        /* \"zap/ZapUniV2.sol\":4909:4922  bool isInputA */\n      0x00\n        /* \"zap/ZapUniV2.sol\":4942:4949  tokenIn */\n      dup6\n        /* \"zap/ZapUniV2.sol\":4925:4949  pair.token0() == tokenIn */\n      0xffffffffffffffffffffffffffffffffffffffff\n      and\n        /* \"zap/ZapUniV2.sol\":4925:4929  pair */\n      dup5\n        /* \"zap/ZapUniV2.sol\":4925:4936  pair.token0 */\n      0xffffffffffffffffffffffffffffffffffffffff\n      and\n      0x0dfe1681\n        /* \"zap/ZapUniV2.sol\":4925:4938  pair.token0() */\n      mload(0x40)\n      dup2\n      0xffffffff\n      and\n      0xe0\n      shl\n      dup2\n      mstore\n      0x04\n      add\n      0x20\n      mload(0x40)\n      dup1\n      dup4\n      sub\n      dup2\n      dup7\n      dup1\n      extcodesize\n      iszero\n      dup1\n      iszero\n      tag_288\n      jumpi\n      0x00\n      dup1\n      revert\n    tag_288:\n      pop\n      gas\n      staticcall\n      iszero\n      dup1\n      iszero\n      tag_290\n      jumpi\n      returndatasize\n      0x00\n      dup1\n      returndatacopy\n      revert(0x00, returndatasize)\n    tag_290:\n      pop\n      pop\n      pop\n      pop\n      mload(0x40)\n      returndatasize\n      not(0x1f)\n      0x1f\n      dup3\n      add\n      and\n      dup3\n      add\n      dup1\n      0x40\n      mstore\n      pop\n      dup2\n      add\n      swap1\n      tag_291\n      swap2\n      swap1\n      tag_81\n      jump\t// in\n    tag_291:\n        /* \"zap/ZapUniV2.sol\":4925:4949  pair.token0() == tokenIn */\n      0xffffffffffffffffffffffffffffffffffffffff\n      and\n      eq\n        /* \"zap/ZapUniV2.sol\":4909:4949  bool isInputA = pair.token0() == tokenIn */\n      swap1\n      pop\n        /* \"zap/ZapUniV2.sol\":4967:4975  isInputA */\n      dup1\n        /* \"zap/ZapUniV2.sol\":4967:5003  isInputA || pair.token1() == tokenIn */\n      dup1\n      tag_292\n      jumpi\n      pop\n        /* \"zap/ZapUniV2.sol\":4996:5003  tokenIn */\n      dup6\n        /* \"zap/ZapUniV2.sol\":4979:5003  pair.token1() == tokenIn */\n      0xffffffffffffffffffffffffffffffffffffffff\n      and\n        /* \"zap/ZapUniV2.sol\":4979:4983  pair */\n      dup5\n        /* \"zap/ZapUniV2.sol\":4979:4990  pair.token1 */\n      0xffffffffffffffffffffffffffffffffffffffff\n      and\n      0xd21220a7\n        /* \"zap/ZapUniV2.sol\":4979:4992  pair.token1() */\n      mload(0x40)\n      dup2\n      0xffffffff\n      and\n      0xe0\n      shl\n      dup2\n      mstore\n      0x04\n      add\n      0x20\n      mload(0x40)\n      dup1\n      dup4\n      sub\n      dup2\n      dup7\n      dup1\n      extcodesize\n      iszero\n      dup1\n      iszero\n      tag_293\n      jumpi\n      0x00\n      dup1\n      revert\n    tag_293:\n      pop\n      gas\n      staticcall\n      iszero\n      dup1\n      iszero\n      tag_295\n      jumpi\n      returndatasize\n      0x00\n      dup1\n      returndatacopy\n      revert(0x00, returndatasize)\n    tag_295:\n      pop\n      pop\n      pop\n      pop\n      mload(0x40)\n      returndatasize\n      not(0x1f)\n      0x1f\n      dup3\n      add\n      and\n      dup3\n      add\n      dup1\n      0x40\n      mstore\n      pop\n      dup2\n      add\n      swap1\n      tag_296\n      swap2\n      swap1\n      tag_81\n      jump\t// in\n    tag_296:\n        /* \"zap/ZapUniV2.sol\":4979:5003  pair.token1() == tokenIn */\n      0xffffffffffffffffffffffffffffffffffffffff\n      and\n      eq\n        /* \"zap/ZapUniV2.sol\":4967:5003  isInputA || pair.token1() == tokenIn */\n    tag_292:\n        /* \"zap/ZapUniV2.sol\":4959:5054  require(isInputA || pair.token1() == tokenIn, 'Dyos: Input token not present in liqudity pair') */\n      tag_297\n      jumpi\n      mload(0x40)\n      0x08c379a000000000000000000000000000000000000000000000000000000000\n      dup2\n      mstore\n      0x04\n      add\n      tag_298\n      swap1\n      tag_89\n      jump\t// in\n    tag_298:\n      mload(0x40)\n      dup1\n      swap2\n      sub\n      swap1\n      revert\n    tag_297:\n        /* \"zap/ZapUniV2.sol\":5065:5086  address[] memory path */\n      0x00\n        /* \"zap/ZapUniV2.sol\":5103:5104  2 */\n      0x02\n        /* \"zap/ZapUniV2.sol\":5089:5105  new address[](2) */\n      0xffffffffffffffff\n      dup2\n      gt\n      iszero\n      tag_299\n      jumpi\n      tag_300\n      tag_170\n      jump\t// in\n    tag_300:\n    tag_299:\n      mload(0x40)\n      swap1\n      dup1\n      dup3\n      mstore\n      dup1\n      0x20\n      mul\n      0x20\n      add\n      dup3\n      add\n      0x40\n      mstore\n      dup1\n      iszero\n      tag_301\n      jumpi\n      dup2\n      0x20\n      add\n      0x20\n      dup3\n      mul\n      dup1\n      calldatasize\n      dup4\n      calldatacopy\n      dup1\n      dup3\n      add\n      swap2\n      pop\n      pop\n      swap1\n      pop\n    tag_301:\n      pop\n        /* \"zap/ZapUniV2.sol\":5065:5105  address[] memory path = new address[](2) */\n      swap1\n      pop\n        /* \"zap/ZapUniV2.sol\":5125:5132  tokenIn */\n      dup7\n        /* \"zap/ZapUniV2.sol\":5115:5119  path */\n      dup2\n        /* \"zap/ZapUniV2.sol\":5120:5121  0 */\n      0x00\n        /* \"zap/ZapUniV2.sol\":5115:5122  path[0] */\n      dup2\n      mload\n      dup2\n      lt\n      tag_302\n      jumpi\n      tag_303\n      tag_178\n      jump\t// in\n    tag_303:\n    tag_302:\n      0x20\n      mul\n      0x20\n      add\n      add\n        /* \"zap/ZapUniV2.sol\":5115:5132  path[0] = tokenIn */\n      swap1\n      0xffffffffffffffffffffffffffffffffffffffff\n      and\n      swap1\n      dup2\n      0xffffffffffffffffffffffffffffffffffffffff\n      and\n      dup2\n      mstore\n      pop\n      pop\n        /* \"zap/ZapUniV2.sol\":5152:5160  isInputA */\n      dup2\n        /* \"zap/ZapUniV2.sol\":5152:5192  isInputA ? pair.token1() : pair.token0() */\n      tag_304\n      jumpi\n        /* \"zap/ZapUniV2.sol\":5179:5183  pair */\n      dup5\n        /* \"zap/ZapUniV2.sol\":5179:5190  pair.token0 */\n      0xffffffffffffffffffffffffffffffffffffffff\n      and\n      0x0dfe1681\n        /* \"zap/ZapUniV2.sol\":5179:5192  pair.token0() */\n      mload(0x40)\n      dup2\n      0xffffffff\n      and\n      0xe0\n      shl\n      dup2\n      mstore\n      0x04\n      add\n      0x20\n      mload(0x40)\n      dup1\n      dup4\n      sub\n      dup2\n      dup7\n      dup1\n      extcodesize\n      iszero\n      dup1\n      iszero\n      tag_305\n      jumpi\n      0x00\n      dup1\n      revert\n    tag_305:\n      pop\n      gas\n      staticcall\n      iszero\n      dup1\n      iszero\n      tag_307\n      jumpi\n      returndatasize\n      0x00\n      dup1\n      returndatacopy\n      revert(0x00, returndatasize)\n    tag_307:\n      pop\n      pop\n      pop\n      pop\n      mload(0x40)\n      returndatasize\n      not(0x1f)\n      0x1f\n      dup3\n      add\n      and\n      dup3\n      add\n      dup1\n      0x40\n      mstore\n      pop\n      dup2\n      add\n      swap1\n      tag_308\n      swap2\n      swap1\n      tag_81\n      jump\t// in\n    tag_308:\n        /* \"zap/ZapUniV2.sol\":5152:5192  isInputA ? pair.token1() : pair.token0() */\n      jump(tag_309)\n    tag_304:\n        /* \"zap/ZapUniV2.sol\":5163:5167  pair */\n      dup5\n        /* \"zap/ZapUniV2.sol\":5163:5174  pair.token1 */\n      0xffffffffffffffffffffffffffffffffffffffff\n      and\n      0xd21220a7\n        /* \"zap/ZapUniV2.sol\":5163:5176  pair.token1() */\n      mload(0x40)\n      dup2\n      0xffffffff\n      and\n      0xe0\n      shl\n      dup2\n      mstore\n      0x04\n      add\n      0x20\n      mload(0x40)\n      dup1\n      dup4\n      sub\n      dup2\n      dup7\n      dup1\n      extcodesize\n      iszero\n      dup1\n      iszero\n      tag_310\n      jumpi\n      0x00\n      dup1\n      revert\n    tag_310:\n      pop\n      gas\n      staticcall\n      iszero\n      dup1\n      iszero\n      tag_312\n      jumpi\n      returndatasize\n      0x00\n      dup1\n      returndatacopy\n      revert(0x00, returndatasize)\n    tag_312:\n      pop\n      pop\n      pop\n      pop\n      mload(0x40)\n      returndatasize\n      not(0x1f)\n      0x1f\n      dup3\n      add\n      and\n      dup3\n      add\n      dup1\n      0x40\n      mstore\n      pop\n      dup2\n      add\n      swap1\n      tag_313\n      swap2\n      swap1\n      tag_81\n      jump\t// in\n    tag_313:\n        /* \"zap/ZapUniV2.sol\":5152:5192  isInputA ? pair.token1() : pair.token0() */\n    tag_309:\n        /* \"zap/ZapUniV2.sol\":5142:5146  path */\n      dup2\n        /* \"zap/ZapUniV2.sol\":5147:5148  1 */\n      0x01\n        /* \"zap/ZapUniV2.sol\":5142:5149  path[1] */\n      dup2\n      mload\n      dup2\n      lt\n      tag_314\n      jumpi\n      tag_315\n      tag_178\n      jump\t// in\n    tag_315:\n    tag_314:\n      0x20\n      mul\n      0x20\n      add\n      add\n        /* \"zap/ZapUniV2.sol\":5142:5192  path[1] = isInputA ? pair.token1() : pair.token0() */\n      swap1\n      0xffffffffffffffffffffffffffffffffffffffff\n      and\n      swap1\n      dup2\n      0xffffffffffffffffffffffffffffffffffffffff\n      and\n      dup2\n      mstore\n      pop\n      pop\n        /* \"zap/ZapUniV2.sol\":5203:5225  uint256 fullInvestment */\n      0x00\n        /* \"zap/ZapUniV2.sol\":5235:5242  tokenIn */\n      dup8\n        /* \"zap/ZapUniV2.sol\":5228:5253  IERC20(tokenIn).balanceOf */\n      0xffffffffffffffffffffffffffffffffffffffff\n      and\n      0x70a08231\n        /* \"zap/ZapUniV2.sol\":5262:5266  this */\n      address\n        /* \"zap/ZapUniV2.sol\":5228:5268  IERC20(tokenIn).balanceOf(address(this)) */\n      mload(0x40)\n      dup3\n      0xffffffff\n      and\n      0xe0\n      shl\n      dup2\n      mstore\n      0x04\n      add\n      tag_316\n      swap2\n      swap1\n      tag_50\n      jump\t// in\n    tag_316:\n      0x20\n      mload(0x40)\n      dup1\n      dup4\n      sub\n      dup2\n      dup7\n      dup1\n      extcodesize\n      iszero\n      dup1\n      iszero\n      tag_317\n      jumpi\n      0x00\n      dup1\n      revert\n    tag_317:\n      pop\n      gas\n      staticcall\n      iszero\n      dup1\n      iszero\n      tag_319\n      jumpi\n      returndatasize\n      0x00\n      dup1\n      returndatacopy\n      revert(0x00, returndatasize)\n    tag_319:\n      pop\n      pop\n      pop\n      pop\n      mload(0x40)\n      returndatasize\n      not(0x1f)\n      0x1f\n      dup3\n      add\n      and\n      dup3\n      add\n      dup1\n      0x40\n      mstore\n      pop\n      dup2\n      add\n      swap1\n      tag_320\n      swap2\n      swap1\n      tag_105\n      jump\t// in\n    tag_320:\n        /* \"zap/ZapUniV2.sol\":5203:5268  uint256 fullInvestment = IERC20(tokenIn).balanceOf(address(this)) */\n      swap1\n      pop\n        /* \"zap/ZapUniV2.sol\":5278:5298  uint256 swapAmountIn */\n      0x00\n        /* \"zap/ZapUniV2.sol\":5312:5320  isInputA */\n      dup4\n        /* \"zap/ZapUniV2.sol\":5308:5508  if (isInputA) {... */\n      iszero\n      tag_321\n      jumpi\n        /* \"zap/ZapUniV2.sol\":5351:5401  _getSwapAmount(fullInvestment, reserveA, reserveB) */\n      tag_322\n        /* \"zap/ZapUniV2.sol\":5366:5380  fullInvestment */\n      dup3\n        /* \"zap/ZapUniV2.sol\":5382:5390  reserveA */\n      dup8\n        /* \"zap/ZapUniV2.sol\":5392:5400  reserveB */\n      dup8\n        /* \"zap/ZapUniV2.sol\":5351:5365  _getSwapAmount */\n      tag_98\n        /* \"zap/ZapUniV2.sol\":5351:5401  _getSwapAmount(fullInvestment, reserveA, reserveB) */\n      jump\t// in\n    tag_322:\n        /* \"zap/ZapUniV2.sol\":5336:5401  swapAmountIn = _getSwapAmount(fullInvestment, reserveA, reserveB) */\n      swap1\n      pop\n        /* \"zap/ZapUniV2.sol\":5308:5508  if (isInputA) {... */\n      jump(tag_323)\n    tag_321:\n        /* \"zap/ZapUniV2.sol\":5447:5497  _getSwapAmount(fullInvestment, reserveB, reserveA) */\n      tag_324\n        /* \"zap/ZapUniV2.sol\":5462:5476  fullInvestment */\n      dup3\n        /* \"zap/ZapUniV2.sol\":5478:5486  reserveB */\n      dup7\n        /* \"zap/ZapUniV2.sol\":5488:5496  reserveA */\n      dup9\n        /* \"zap/ZapUniV2.sol\":5447:5461  _getSwapAmount */\n      tag_98\n        /* \"zap/ZapUniV2.sol\":5447:5497  _getSwapAmount(fullInvestment, reserveB, reserveA) */\n      jump\t// in\n    tag_324:\n        /* \"zap/ZapUniV2.sol\":5432:5497  swapAmountIn = _getSwapAmount(fullInvestment, reserveB, reserveA) */\n      swap1\n      pop\n        /* \"zap/ZapUniV2.sol\":5308:5508  if (isInputA) {... */\n    tag_323:\n        /* \"zap/ZapUniV2.sol\":5518:5565  _approveTokenIfNeeded(path[0], address(router)) */\n      tag_325\n        /* \"zap/ZapUniV2.sol\":5540:5544  path */\n      dup4\n        /* \"zap/ZapUniV2.sol\":5545:5546  0 */\n      0x00\n        /* \"zap/ZapUniV2.sol\":5540:5547  path[0] */\n      dup2\n      mload\n      dup2\n      lt\n      tag_326\n      jumpi\n      tag_327\n      tag_178\n      jump\t// in\n    tag_327:\n    tag_326:\n      0x20\n      mul\n      0x20\n      add\n      add\n      mload\n        /* \"zap/ZapUniV2.sol\":5557:5563  router */\n      immutable(\"0x4ef9663edb9c329328f496fd120170da080941f0172e11759a68143dba082cd8\")\n        /* \"zap/ZapUniV2.sol\":5518:5539  _approveTokenIfNeeded */\n      tag_219\n        /* \"zap/ZapUniV2.sol\":5518:5565  _approveTokenIfNeeded(path[0], address(router)) */\n      jump\t// in\n    tag_325:\n        /* \"zap/ZapUniV2.sol\":5575:5605  uint256[] memory swapedAmounts */\n      0x00\n        /* \"zap/ZapUniV2.sol\":5608:5614  router */\n      immutable(\"0x4ef9663edb9c329328f496fd120170da080941f0172e11759a68143dba082cd8\")\n        /* \"zap/ZapUniV2.sol\":5608:5652  router... */\n      0xffffffffffffffffffffffffffffffffffffffff\n      and\n      0x38ed1739\n        /* \"zap/ZapUniV2.sol\":5653:5665  swapAmountIn */\n      dup4\n        /* \"zap/ZapUniV2.sol\":5667:5684  tokenAmountOutMin */\n      dup14\n        /* \"zap/ZapUniV2.sol\":5686:5690  path */\n      dup8\n        /* \"zap/ZapUniV2.sol\":5700:5704  this */\n      address\n        /* \"zap/ZapUniV2.sol\":5707:5722  block.timestamp */\n      timestamp\n        /* \"zap/ZapUniV2.sol\":5608:5723  router... */\n      mload(0x40)\n      dup7\n      0xffffffff\n      and\n      0xe0\n      shl\n      dup2\n      mstore\n      0x04\n      add\n      tag_328\n      swap6\n      swap5\n      swap4\n      swap3\n      swap2\n      swap1\n      tag_226\n      jump\t// in\n    tag_328:\n      0x00\n      mload(0x40)\n      dup1\n      dup4\n      sub\n      dup2\n      0x00\n      dup8\n      dup1\n      extcodesize\n      iszero\n      dup1\n      iszero\n      tag_329\n      jumpi\n      0x00\n      dup1\n      revert\n    tag_329:\n      pop\n      gas\n      call\n      iszero\n      dup1\n      iszero\n      tag_331\n      jumpi\n      returndatasize\n      0x00\n      dup1\n      returndatacopy\n      revert(0x00, returndatasize)\n    tag_331:\n      pop\n      pop\n      pop\n      pop\n      mload(0x40)\n      returndatasize\n      0x00\n      dup3\n      returndatacopy\n      returndatasize\n      not(0x1f)\n      0x1f\n      dup3\n      add\n      and\n      dup3\n      add\n      dup1\n      0x40\n      mstore\n      pop\n      dup2\n      add\n      swap1\n      tag_332\n      swap2\n      swap1\n      tag_231\n      jump\t// in\n    tag_332:\n        /* \"zap/ZapUniV2.sol\":5575:5723  uint256[] memory swapedAmounts = router... */\n      swap1\n      pop\n        /* \"zap/ZapUniV2.sol\":5734:5781  _approveTokenIfNeeded(path[1], address(router)) */\n      tag_333\n        /* \"zap/ZapUniV2.sol\":5756:5760  path */\n      dup5\n        /* \"zap/ZapUniV2.sol\":5761:5762  1 */\n      0x01\n        /* \"zap/ZapUniV2.sol\":5756:5763  path[1] */\n      dup2\n      mload\n      dup2\n      lt\n      tag_334\n      jumpi\n      tag_335\n      tag_178\n      jump\t// in\n    tag_335:\n    tag_334:\n      0x20\n      mul\n      0x20\n      add\n      add\n      mload\n        /* \"zap/ZapUniV2.sol\":5773:5779  router */\n      immutable(\"0x4ef9663edb9c329328f496fd120170da080941f0172e11759a68143dba082cd8\")\n        /* \"zap/ZapUniV2.sol\":5734:5755  _approveTokenIfNeeded */\n      tag_219\n        /* \"zap/ZapUniV2.sol\":5734:5781  _approveTokenIfNeeded(path[1], address(router)) */\n      jump\t// in\n    tag_333:\n        /* \"zap/ZapUniV2.sol\":5795:5818  uint256 amountLiquidity */\n      0x00\n        /* \"zap/ZapUniV2.sol\":5822:5828  router */\n      immutable(\"0x4ef9663edb9c329328f496fd120170da080941f0172e11759a68143dba082cd8\")\n        /* \"zap/ZapUniV2.sol\":5822:5854  router... */\n      0xffffffffffffffffffffffffffffffffffffffff\n      and\n      0xe8e33700\n        /* \"zap/ZapUniV2.sol\":5855:5859  path */\n      dup7\n        /* \"zap/ZapUniV2.sol\":5860:5861  0 */\n      0x00\n        /* \"zap/ZapUniV2.sol\":5855:5862  path[0] */\n      dup2\n      mload\n      dup2\n      lt\n      tag_336\n      jumpi\n      tag_337\n      tag_178\n      jump\t// in\n    tag_337:\n    tag_336:\n      0x20\n      mul\n      0x20\n      add\n      add\n      mload\n        /* \"zap/ZapUniV2.sol\":5864:5868  path */\n      dup8\n        /* \"zap/ZapUniV2.sol\":5869:5870  1 */\n      0x01\n        /* \"zap/ZapUniV2.sol\":5864:5871  path[1] */\n      dup2\n      mload\n      dup2\n      lt\n      tag_338\n      jumpi\n      tag_339\n      tag_178\n      jump\t// in\n    tag_339:\n    tag_338:\n      0x20\n      mul\n      0x20\n      add\n      add\n      mload\n        /* \"zap/ZapUniV2.sol\":5873:5909  fullInvestment.sub(swapedAmounts[0]) */\n      tag_340\n        /* \"zap/ZapUniV2.sol\":5892:5905  swapedAmounts */\n      dup7\n        /* \"zap/ZapUniV2.sol\":5906:5907  0 */\n      0x00\n        /* \"zap/ZapUniV2.sol\":5892:5908  swapedAmounts[0] */\n      dup2\n      mload\n      dup2\n      lt\n      tag_341\n      jumpi\n      tag_342\n      tag_178\n      jump\t// in\n    tag_342:\n    tag_341:\n      0x20\n      mul\n      0x20\n      add\n      add\n      mload\n        /* \"zap/ZapUniV2.sol\":5873:5887  fullInvestment */\n      dup10\n        /* \"zap/ZapUniV2.sol\":5873:5891  fullInvestment.sub */\n      tag_260\n      swap1\n        /* \"zap/ZapUniV2.sol\":5873:5909  fullInvestment.sub(swapedAmounts[0]) */\n      swap2\n      swap1\n      0xffffffff\n      and\n      jump\t// in\n    tag_340:\n        /* \"zap/ZapUniV2.sol\":5911:5924  swapedAmounts */\n      dup7\n        /* \"zap/ZapUniV2.sol\":5925:5926  1 */\n      0x01\n        /* \"zap/ZapUniV2.sol\":5911:5927  swapedAmounts[1] */\n      dup2\n      mload\n      dup2\n      lt\n      tag_343\n      jumpi\n      tag_344\n      tag_178\n      jump\t// in\n    tag_344:\n    tag_343:\n      0x20\n      mul\n      0x20\n      add\n      add\n      mload\n        /* \"zap/ZapUniV2.sol\":5929:5930  1 */\n      0x01\n        /* \"zap/ZapUniV2.sol\":5932:5933  1 */\n      dup1\n        /* \"zap/ZapUniV2.sol\":5943:5947  this */\n      address\n        /* \"zap/ZapUniV2.sol\":5950:5965  block.timestamp */\n      timestamp\n        /* \"zap/ZapUniV2.sol\":5822:5966  router... */\n      mload(0x40)\n      dup10\n      0xffffffff\n      and\n      0xe0\n      shl\n      dup2\n      mstore\n      0x04\n      add\n      tag_345\n      swap9\n      swap8\n      swap7\n      swap6\n      swap5\n      swap4\n      swap3\n      swap2\n      swap1\n      tag_346\n      jump\t// in\n    tag_345:\n      0x60\n      mload(0x40)\n      dup1\n      dup4\n      sub\n      dup2\n      0x00\n      dup8\n      dup1\n      extcodesize\n      iszero\n      dup1\n      iszero\n      tag_347\n      jumpi\n      0x00\n      dup1\n      revert\n    tag_347:\n      pop\n      gas\n      call\n      iszero\n      dup1\n      iszero\n      tag_349\n      jumpi\n      returndatasize\n      0x00\n      dup1\n      returndatacopy\n      revert(0x00, returndatasize)\n    tag_349:\n      pop\n      pop\n      pop\n      pop\n      mload(0x40)\n      returndatasize\n      not(0x1f)\n      0x1f\n      dup3\n      add\n      and\n      dup3\n      add\n      dup1\n      0x40\n      mstore\n      pop\n      dup2\n      add\n      swap1\n      tag_350\n      swap2\n      swap1\n      tag_351\n      jump\t// in\n    tag_350:\n        /* \"zap/ZapUniV2.sol\":5791:5966  (,, uint256 amountLiquidity) = router... */\n      swap3\n      pop\n      pop\n      pop\n        /* \"zap/ZapUniV2.sol\":5977:6029  _approveTokenIfNeeded(address(pair), address(vault)) */\n      tag_352\n        /* \"zap/ZapUniV2.sol\":6007:6011  pair */\n      dup10\n        /* \"zap/ZapUniV2.sol\":6022:6027  vault */\n      dup12\n        /* \"zap/ZapUniV2.sol\":5977:5998  _approveTokenIfNeeded */\n      tag_219\n        /* \"zap/ZapUniV2.sol\":5977:6029  _approveTokenIfNeeded(address(pair), address(vault)) */\n      jump\t// in\n    tag_352:\n        /* \"zap/ZapUniV2.sol\":6039:6044  vault */\n      dup10\n        /* \"zap/ZapUniV2.sol\":6039:6052  vault.deposit */\n      0xffffffffffffffffffffffffffffffffffffffff\n      and\n      0xb6b55f25\n        /* \"zap/ZapUniV2.sol\":6053:6068  amountLiquidity */\n      dup3\n        /* \"zap/ZapUniV2.sol\":6039:6069  vault.deposit(amountLiquidity) */\n      mload(0x40)\n      dup3\n      0xffffffff\n      and\n      0xe0\n      shl\n      dup2\n      mstore\n      0x04\n      add\n      tag_353\n      swap2\n      swap1\n      tag_55\n      jump\t// in\n    tag_353:\n      0x00\n      mload(0x40)\n      dup1\n      dup4\n      sub\n      dup2\n      0x00\n      dup8\n      dup1\n      extcodesize\n      iszero\n      dup1\n      iszero\n      tag_354\n      jumpi\n      0x00\n      dup1\n      revert\n    tag_354:\n      pop\n      gas\n      call\n      iszero\n      dup1\n      iszero\n      tag_356\n      jumpi\n      returndatasize\n      0x00\n      dup1\n      returndatacopy\n      revert(0x00, returndatasize)\n    tag_356:\n      pop\n      pop\n      pop\n      pop\n        /* \"zap/ZapUniV2.sol\":6080:6142  vault.safeTransfer(msg.sender, vault.balanceOf(address(this))) */\n      tag_357\n        /* \"zap/ZapUniV2.sol\":6099:6109  msg.sender */\n      caller\n        /* \"zap/ZapUniV2.sol\":6111:6116  vault */\n      dup12\n        /* \"zap/ZapUniV2.sol\":6111:6126  vault.balanceOf */\n      0xffffffffffffffffffffffffffffffffffffffff\n      and\n      0x70a08231\n        /* \"zap/ZapUniV2.sol\":6135:6139  this */\n      address\n        /* \"zap/ZapUniV2.sol\":6111:6141  vault.balanceOf(address(this)) */\n      mload(0x40)\n      dup3\n      0xffffffff\n      and\n      0xe0\n      shl\n      dup2\n      mstore\n      0x04\n      add\n      tag_358\n      swap2\n      swap1\n      tag_50\n      jump\t// in\n    tag_358:\n      0x20\n      mload(0x40)\n      dup1\n      dup4\n      sub\n      dup2\n      dup7\n      dup1\n      extcodesize\n      iszero\n      dup1\n      iszero\n      tag_359\n      jumpi\n      0x00\n      dup1\n      revert\n    tag_359:\n      pop\n      gas\n      staticcall\n      iszero\n      dup1\n      iszero\n      tag_361\n      jumpi\n      returndatasize\n      0x00\n      dup1\n      returndatacopy\n      revert(0x00, returndatasize)\n    tag_361:\n      pop\n      pop\n      pop\n      pop\n      mload(0x40)\n      returndatasize\n      not(0x1f)\n      0x1f\n      dup3\n      add\n      and\n      dup3\n      add\n      dup1\n      0x40\n      mstore\n      pop\n      dup2\n      add\n      swap1\n      tag_362\n      swap2\n      swap1\n      tag_105\n      jump\t// in\n    tag_362:\n        /* \"zap/ZapUniV2.sol\":6080:6085  vault */\n      dup13\n        /* \"zap/ZapUniV2.sol\":6080:6098  vault.safeTransfer */\n      0xffffffffffffffffffffffffffffffffffffffff\n      and\n      tag_363\n      swap1\n        /* \"zap/ZapUniV2.sol\":6080:6142  vault.safeTransfer(msg.sender, vault.balanceOf(address(this))) */\n      swap3\n      swap2\n      swap1\n      0xffffffff\n      and\n      jump\t// in\n    tag_357:\n        /* \"zap/ZapUniV2.sol\":6152:6219  govToken.safeTransfer(msg.sender,govToken.balanceOf(address(this))) */\n      tag_364\n        /* \"zap/ZapUniV2.sol\":6174:6184  msg.sender */\n      caller\n        /* \"zap/ZapUniV2.sol\":6185:6193  govToken */\n      0x00\n      dup1\n      sload\n      swap1\n      0x0100\n      exp\n      swap1\n      div\n      0xffffffffffffffffffffffffffffffffffffffff\n      and\n        /* \"zap/ZapUniV2.sol\":6185:6203  govToken.balanceOf */\n      0xffffffffffffffffffffffffffffffffffffffff\n      and\n      0x70a08231\n        /* \"zap/ZapUniV2.sol\":6212:6216  this */\n      address\n        /* \"zap/ZapUniV2.sol\":6185:6218  govToken.balanceOf(address(this)) */\n      mload(0x40)\n      dup3\n      0xffffffff\n      and\n      0xe0\n      shl\n      dup2\n      mstore\n      0x04\n      add\n      tag_365\n      swap2\n      swap1\n      tag_50\n      jump\t// in\n    tag_365:\n      0x20\n      mload(0x40)\n      dup1\n      dup4\n      sub\n      dup2\n      dup7\n      dup1\n      extcodesize\n      iszero\n      dup1\n      iszero\n      tag_366\n      jumpi\n      0x00\n      dup1\n      revert\n    tag_366:\n      pop\n      gas\n      staticcall\n      iszero\n      dup1\n      iszero\n      tag_368\n      jumpi\n      returndatasize\n      0x00\n      dup1\n      returndatacopy\n      revert(0x00, returndatasize)\n    tag_368:\n      pop\n      pop\n      pop\n      pop\n      mload(0x40)\n      returndatasize\n      not(0x1f)\n      0x1f\n      dup3\n      add\n      and\n      dup3\n      add\n      dup1\n      0x40\n      mstore\n      pop\n      dup2\n      add\n      swap1\n      tag_369\n      swap2\n      swap1\n      tag_105\n      jump\t// in\n    tag_369:\n        /* \"zap/ZapUniV2.sol\":6152:6160  govToken */\n      0x00\n      dup1\n      sload\n      swap1\n      0x0100\n      exp\n      swap1\n      div\n      0xffffffffffffffffffffffffffffffffffffffff\n      and\n        /* \"zap/ZapUniV2.sol\":6152:6173  govToken.safeTransfer */\n      0xffffffffffffffffffffffffffffffffffffffff\n      and\n      tag_363\n      swap1\n        /* \"zap/ZapUniV2.sol\":6152:6219  govToken.safeTransfer(msg.sender,govToken.balanceOf(address(this))) */\n      swap3\n      swap2\n      swap1\n      0xffffffff\n      and\n      jump\t// in\n    tag_364:\n        /* \"zap/ZapUniV2.sol\":6229:6248  _returnAssets(path) */\n      tag_370\n        /* \"zap/ZapUniV2.sol\":6243:6247  path */\n      dup6\n        /* \"zap/ZapUniV2.sol\":6229:6242  _returnAssets */\n      tag_186\n        /* \"zap/ZapUniV2.sol\":6229:6248  _returnAssets(path) */\n      jump\t// in\n    tag_370:\n        /* \"zap/ZapUniV2.sol\":4645:6255  {... */\n      pop\n      pop\n      pop\n      pop\n      pop\n      pop\n      pop\n      pop\n      pop\n      pop\n        /* \"zap/ZapUniV2.sol\":4551:6255  function _swapAndStake(address dyosVault, uint256 tokenAmountOutMin, address tokenIn) private {... */\n      pop\n      pop\n      pop\n      jump\t// out\n        /* \"zap/ZapUniV2.sol\":3861:4254  function _removeLiqudity(address pair, address to) private {... */\n    tag_166:\n        /* \"zap/ZapUniV2.sol\":3930:4000  IERC20(pair).safeTransfer(pair, IERC20(pair).balanceOf(address(this))) */\n      tag_372\n        /* \"zap/ZapUniV2.sol\":3956:3960  pair */\n      dup3\n        /* \"zap/ZapUniV2.sol\":3969:3973  pair */\n      dup4\n        /* \"zap/ZapUniV2.sol\":3962:3984  IERC20(pair).balanceOf */\n      0xffffffffffffffffffffffffffffffffffffffff\n      and\n      0x70a08231\n        /* \"zap/ZapUniV2.sol\":3993:3997  this */\n      address\n        /* \"zap/ZapUniV2.sol\":3962:3999  IERC20(pair).balanceOf(address(this)) */\n      mload(0x40)\n      dup3\n      0xffffffff\n      and\n      0xe0\n      shl\n      dup2\n      mstore\n      0x04\n      add\n      tag_373\n      swap2\n      swap1\n      tag_50\n      jump\t// in\n    tag_373:\n      0x20\n      mload(0x40)\n      dup1\n      dup4\n      sub\n      dup2\n      dup7\n      dup1\n      extcodesize\n      iszero\n      dup1\n      iszero\n      tag_374\n      jumpi\n      0x00\n      dup1\n      revert\n    tag_374:\n      pop\n      gas\n      staticcall\n      iszero\n      dup1\n      iszero\n      tag_376\n      jumpi\n      returndatasize\n      0x00\n      dup1\n      returndatacopy\n      revert(0x00, returndatasize)\n    tag_376:\n      pop\n      pop\n      pop\n      pop\n      mload(0x40)\n      returndatasize\n      not(0x1f)\n      0x1f\n      dup3\n      add\n      and\n      dup3\n      add\n      dup1\n      0x40\n      mstore\n      pop\n      dup2\n      add\n      swap1\n      tag_377\n      swap2\n      swap1\n      tag_105\n      jump\t// in\n    tag_377:\n        /* \"zap/ZapUniV2.sol\":3937:3941  pair */\n      dup5\n        /* \"zap/ZapUniV2.sol\":3930:3955  IERC20(pair).safeTransfer */\n      0xffffffffffffffffffffffffffffffffffffffff\n      and\n      tag_363\n      swap1\n        /* \"zap/ZapUniV2.sol\":3930:4000  IERC20(pair).safeTransfer(pair, IERC20(pair).balanceOf(address(this))) */\n      swap3\n      swap2\n      swap1\n      0xffffffff\n      and\n      jump\t// in\n    tag_372:\n        /* \"zap/ZapUniV2.sol\":4011:4026  uint256 amount0 */\n      0x00\n        /* \"zap/ZapUniV2.sol\":4028:4043  uint256 amount1 */\n      dup1\n        /* \"zap/ZapUniV2.sol\":4062:4066  pair */\n      dup4\n        /* \"zap/ZapUniV2.sol\":4047:4072  IUniswapV2Pair(pair).burn */\n      0xffffffffffffffffffffffffffffffffffffffff\n      and\n      0x89afcb44\n        /* \"zap/ZapUniV2.sol\":4073:4075  to */\n      dup5\n        /* \"zap/ZapUniV2.sol\":4047:4076  IUniswapV2Pair(pair).burn(to) */\n      mload(0x40)\n      dup3\n      0xffffffff\n      and\n      0xe0\n      shl\n      dup2\n      mstore\n      0x04\n      add\n      tag_378\n      swap2\n      swap1\n      tag_50\n      jump\t// in\n    tag_378:\n      0x40\n      dup1\n      mload\n      dup1\n      dup4\n      sub\n      dup2\n      0x00\n      dup8\n      dup1\n      extcodesize\n      iszero\n      dup1\n      iszero\n      tag_379\n      jumpi\n      0x00\n      dup1\n      revert\n    tag_379:\n      pop\n      gas\n      call\n      iszero\n      dup1\n      iszero\n      tag_381\n      jumpi\n      returndatasize\n      0x00\n      dup1\n      returndatacopy\n      revert(0x00, returndatasize)\n    tag_381:\n      pop\n      pop\n      pop\n      pop\n      mload(0x40)\n      returndatasize\n      not(0x1f)\n      0x1f\n      dup3\n      add\n      and\n      dup3\n      add\n      dup1\n      0x40\n      mstore\n      pop\n      dup2\n      add\n      swap1\n      tag_382\n      swap2\n      swap1\n      tag_383\n      jump\t// in\n    tag_382:\n        /* \"zap/ZapUniV2.sol\":4010:4076  (uint256 amount0, uint256 amount1) = IUniswapV2Pair(pair).burn(to) */\n      swap2\n      pop\n      swap2\n      pop\n        /* \"zap/ZapUniV2.sol\":1171:1175  1000 */\n      0x03e8\n        /* \"zap/ZapUniV2.sol\":4095:4102  amount0 */\n      dup3\n        /* \"zap/ZapUniV2.sol\":4095:4119  amount0 >= minimumAmount */\n      lt\n      iszero\n        /* \"zap/ZapUniV2.sol\":4087:4162  require(amount0 >= minimumAmount, 'UniswapV2Router: INSUFFICIENT_A_AMOUNT') */\n      tag_384\n      jumpi\n      mload(0x40)\n      0x08c379a000000000000000000000000000000000000000000000000000000000\n      dup2\n      mstore\n      0x04\n      add\n      tag_385\n      swap1\n      tag_386\n      jump\t// in\n    tag_385:\n      mload(0x40)\n      dup1\n      swap2\n      sub\n      swap1\n      revert\n    tag_384:\n        /* \"zap/ZapUniV2.sol\":1171:1175  1000 */\n      0x03e8\n        /* \"zap/ZapUniV2.sol\":4180:4187  amount1 */\n      dup2\n        /* \"zap/ZapUniV2.sol\":4180:4204  amount1 >= minimumAmount */\n      lt\n      iszero\n        /* \"zap/ZapUniV2.sol\":4172:4247  require(amount1 >= minimumAmount, 'UniswapV2Router: INSUFFICIENT_B_AMOUNT') */\n      tag_387\n      jumpi\n      mload(0x40)\n      0x08c379a000000000000000000000000000000000000000000000000000000000\n      dup2\n      mstore\n      0x04\n      add\n      tag_388\n      swap1\n      tag_389\n      jump\t// in\n    tag_388:\n      mload(0x40)\n      dup1\n      swap2\n      sub\n      swap1\n      revert\n    tag_387:\n        /* \"zap/ZapUniV2.sol\":3920:4254  {... */\n      pop\n      pop\n        /* \"zap/ZapUniV2.sol\":3861:4254  function _removeLiqudity(address pair, address to) private {... */\n      pop\n      pop\n      jump\t// out\n        /* \"zap/ZapUniV2.sol\":6261:6881  function _returnAssets(address[] memory tokens) private {... */\n    tag_186:\n        /* \"zap/ZapUniV2.sol\":6327:6342  uint256 balance */\n      0x00\n        /* \"zap/ZapUniV2.sol\":6357:6366  uint256 i */\n      dup1\n        /* \"zap/ZapUniV2.sol\":6352:6875  for (uint256 i; i < tokens.length; i++) {... */\n    tag_391:\n        /* \"zap/ZapUniV2.sol\":6372:6378  tokens */\n      dup3\n        /* \"zap/ZapUniV2.sol\":6372:6385  tokens.length */\n      mload\n        /* \"zap/ZapUniV2.sol\":6368:6369  i */\n      dup2\n        /* \"zap/ZapUniV2.sol\":6368:6385  i < tokens.length */\n      lt\n        /* \"zap/ZapUniV2.sol\":6352:6875  for (uint256 i; i < tokens.length; i++) {... */\n      iszero\n      tag_392\n      jumpi\n        /* \"zap/ZapUniV2.sol\":6423:6429  tokens */\n      dup3\n        /* \"zap/ZapUniV2.sol\":6430:6431  i */\n      dup2\n        /* \"zap/ZapUniV2.sol\":6423:6432  tokens[i] */\n      dup2\n      mload\n      dup2\n      lt\n      tag_394\n      jumpi\n      tag_395\n      tag_178\n      jump\t// in\n    tag_395:\n    tag_394:\n      0x20\n      mul\n      0x20\n      add\n      add\n      mload\n        /* \"zap/ZapUniV2.sol\":6416:6443  IERC20(tokens[i]).balanceOf */\n      0xffffffffffffffffffffffffffffffffffffffff\n      and\n      0x70a08231\n        /* \"zap/ZapUniV2.sol\":6452:6456  this */\n      address\n        /* \"zap/ZapUniV2.sol\":6416:6458  IERC20(tokens[i]).balanceOf(address(this)) */\n      mload(0x40)\n      dup3\n      0xffffffff\n      and\n      0xe0\n      shl\n      dup2\n      mstore\n      0x04\n      add\n      tag_396\n      swap2\n      swap1\n      tag_50\n      jump\t// in\n    tag_396:\n      0x20\n      mload(0x40)\n      dup1\n      dup4\n      sub\n      dup2\n      dup7\n      dup1\n      extcodesize\n      iszero\n      dup1\n      iszero\n      tag_397\n      jumpi\n      0x00\n      dup1\n      revert\n    tag_397:\n      pop\n      gas\n      staticcall\n      iszero\n      dup1\n      iszero\n      tag_399\n      jumpi\n      returndatasize\n      0x00\n      dup1\n      returndatacopy\n      revert(0x00, returndatasize)\n    tag_399:\n      pop\n      pop\n      pop\n      pop\n      mload(0x40)\n      returndatasize\n      not(0x1f)\n      0x1f\n      dup3\n      add\n      and\n      dup3\n      add\n      dup1\n      0x40\n      mstore\n      pop\n      dup2\n      add\n      swap1\n      tag_400\n      swap2\n      swap1\n      tag_105\n      jump\t// in\n    tag_400:\n        /* \"zap/ZapUniV2.sol\":6406:6458  balance = IERC20(tokens[i]).balanceOf(address(this)) */\n      swap2\n      pop\n        /* \"zap/ZapUniV2.sol\":6486:6487  0 */\n      0x00\n        /* \"zap/ZapUniV2.sol\":6476:6483  balance */\n      dup3\n        /* \"zap/ZapUniV2.sol\":6476:6487  balance > 0 */\n      gt\n        /* \"zap/ZapUniV2.sol\":6472:6865  if (balance > 0) {... */\n      iszero\n      tag_401\n      jumpi\n        /* \"zap/ZapUniV2.sol\":6524:6528  WETH */\n      immutable(\"0x4dbb9504d97152ac1bba73ee1b129519aaf8f560d232be004d9f12a192fbfd84\")\n        /* \"zap/ZapUniV2.sol\":6511:6528  tokens[i] == WETH */\n      0xffffffffffffffffffffffffffffffffffffffff\n      and\n        /* \"zap/ZapUniV2.sol\":6511:6517  tokens */\n      dup4\n        /* \"zap/ZapUniV2.sol\":6518:6519  i */\n      dup3\n        /* \"zap/ZapUniV2.sol\":6511:6520  tokens[i] */\n      dup2\n      mload\n      dup2\n      lt\n      tag_402\n      jumpi\n      tag_403\n      tag_178\n      jump\t// in\n    tag_403:\n    tag_402:\n      0x20\n      mul\n      0x20\n      add\n      add\n      mload\n        /* \"zap/ZapUniV2.sol\":6511:6528  tokens[i] == WETH */\n      0xffffffffffffffffffffffffffffffffffffffff\n      and\n      eq\n        /* \"zap/ZapUniV2.sol\":6507:6851  if (tokens[i] == WETH) {... */\n      iszero\n      tag_404\n      jumpi\n        /* \"zap/ZapUniV2.sol\":6558:6562  WETH */\n      immutable(\"0x4dbb9504d97152ac1bba73ee1b129519aaf8f560d232be004d9f12a192fbfd84\")\n        /* \"zap/ZapUniV2.sol\":6552:6572  IWETH(WETH).withdraw */\n      0xffffffffffffffffffffffffffffffffffffffff\n      and\n      0x2e1a7d4d\n        /* \"zap/ZapUniV2.sol\":6573:6580  balance */\n      dup4\n        /* \"zap/ZapUniV2.sol\":6552:6581  IWETH(WETH).withdraw(balance) */\n      mload(0x40)\n      dup3\n      0xffffffff\n      and\n      0xe0\n      shl\n      dup2\n      mstore\n      0x04\n      add\n      tag_405\n      swap2\n      swap1\n      tag_55\n      jump\t// in\n    tag_405:\n      0x00\n      mload(0x40)\n      dup1\n      dup4\n      sub\n      dup2\n      0x00\n      dup8\n      dup1\n      extcodesize\n      iszero\n      dup1\n      iszero\n      tag_406\n      jumpi\n      0x00\n      dup1\n      revert\n    tag_406:\n      pop\n      gas\n      call\n      iszero\n      dup1\n      iszero\n      tag_408\n      jumpi\n      returndatasize\n      0x00\n      dup1\n      returndatacopy\n      revert(0x00, returndatasize)\n    tag_408:\n      pop\n      pop\n      pop\n      pop\n        /* \"zap/ZapUniV2.sol\":6604:6616  bool success */\n      0x00\n        /* \"zap/ZapUniV2.sol\":6621:6631  msg.sender */\n      caller\n        /* \"zap/ZapUniV2.sol\":6621:6636  msg.sender.call */\n      0xffffffffffffffffffffffffffffffffffffffff\n      and\n        /* \"zap/ZapUniV2.sol\":6644:6651  balance */\n      dup4\n        /* \"zap/ZapUniV2.sol\":6663:6664  0 */\n      0x00\n        /* \"zap/ZapUniV2.sol\":6653:6665  new bytes(0) */\n      0xffffffffffffffff\n      dup2\n      gt\n      iszero\n      tag_409\n      jumpi\n      tag_410\n      tag_170\n      jump\t// in\n    tag_410:\n    tag_409:\n      mload(0x40)\n      swap1\n      dup1\n      dup3\n      mstore\n      dup1\n      0x1f\n      add\n      not(0x1f)\n      and\n      0x20\n      add\n      dup3\n      add\n      0x40\n      mstore\n      dup1\n      iszero\n      tag_411\n      jumpi\n      dup2\n      0x20\n      add\n      0x01\n      dup3\n      mul\n      dup1\n      calldatasize\n      dup4\n      calldatacopy\n      dup1\n      dup3\n      add\n      swap2\n      pop\n      pop\n      swap1\n      pop\n    tag_411:\n      pop\n        /* \"zap/ZapUniV2.sol\":6621:6666  msg.sender.call{value: balance}(new bytes(0)) */\n      mload(0x40)\n      tag_412\n      swap2\n      swap1\n      tag_413\n      jump\t// in\n    tag_412:\n      0x00\n      mload(0x40)\n      dup1\n      dup4\n      sub\n      dup2\n      dup6\n      dup8\n      gas\n      call\n      swap3\n      pop\n      pop\n      pop\n      returndatasize\n      dup1\n      0x00\n      dup2\n      eq\n      tag_416\n      jumpi\n      mload(0x40)\n      swap2\n      pop\n      and(add(returndatasize, 0x3f), not(0x1f))\n      dup3\n      add\n      0x40\n      mstore\n      returndatasize\n      dup3\n      mstore\n      returndatasize\n      0x00\n      0x20\n      dup5\n      add\n      returndatacopy\n      jump(tag_415)\n    tag_416:\n      0x60\n      swap2\n      pop\n    tag_415:\n      pop\n        /* \"zap/ZapUniV2.sol\":6603:6666  (bool success,) = msg.sender.call{value: balance}(new bytes(0)) */\n      pop\n      swap1\n      pop\n        /* \"zap/ZapUniV2.sol\":6696:6703  success */\n      dup1\n        /* \"zap/ZapUniV2.sol\":6688:6734  require(success, 'Beefy: ETH transfer failed') */\n      tag_417\n      jumpi\n      mload(0x40)\n      0x08c379a000000000000000000000000000000000000000000000000000000000\n      dup2\n      mstore\n      0x04\n      add\n      tag_418\n      swap1\n      tag_419\n      jump\t// in\n    tag_418:\n      mload(0x40)\n      dup1\n      swap2\n      sub\n      swap1\n      revert\n    tag_417:\n        /* \"zap/ZapUniV2.sol\":6530:6753  {... */\n      pop\n        /* \"zap/ZapUniV2.sol\":6507:6851  if (tokens[i] == WETH) {... */\n      jump(tag_420)\n    tag_404:\n        /* \"zap/ZapUniV2.sol\":6781:6832  IERC20(tokens[i]).safeTransfer(msg.sender, balance) */\n      tag_421\n        /* \"zap/ZapUniV2.sol\":6812:6822  msg.sender */\n      caller\n        /* \"zap/ZapUniV2.sol\":6824:6831  balance */\n      dup4\n        /* \"zap/ZapUniV2.sol\":6788:6794  tokens */\n      dup6\n        /* \"zap/ZapUniV2.sol\":6795:6796  i */\n      dup5\n        /* \"zap/ZapUniV2.sol\":6788:6797  tokens[i] */\n      dup2\n      mload\n      dup2\n      lt\n      tag_422\n      jumpi\n      tag_423\n      tag_178\n      jump\t// in\n    tag_423:\n    tag_422:\n      0x20\n      mul\n      0x20\n      add\n      add\n      mload\n        /* \"zap/ZapUniV2.sol\":6781:6811  IERC20(tokens[i]).safeTransfer */\n      0xffffffffffffffffffffffffffffffffffffffff\n      and\n      tag_363\n      swap1\n        /* \"zap/ZapUniV2.sol\":6781:6832  IERC20(tokens[i]).safeTransfer(msg.sender, balance) */\n      swap3\n      swap2\n      swap1\n      0xffffffff\n      and\n      jump\t// in\n    tag_421:\n        /* \"zap/ZapUniV2.sol\":6507:6851  if (tokens[i] == WETH) {... */\n    tag_420:\n        /* \"zap/ZapUniV2.sol\":6472:6865  if (balance > 0) {... */\n    tag_401:\n        /* \"zap/ZapUniV2.sol\":6387:6390  i++ */\n      dup1\n      dup1\n      tag_424\n      swap1\n      tag_425\n      jump\t// in\n    tag_424:\n      swap2\n      pop\n      pop\n        /* \"zap/ZapUniV2.sol\":6352:6875  for (uint256 i; i < tokens.length; i++) {... */\n      jump(tag_391)\n    tag_392:\n      pop\n        /* \"zap/ZapUniV2.sol\":6317:6881  {... */\n      pop\n        /* \"zap/ZapUniV2.sol\":6261:6881  function _returnAssets(address[] memory tokens) private {... */\n      pop\n      jump\t// out\n        /* \"zap/ZapUniV2.sol\":8371:8591  function _approveTokenIfNeeded(address token, address spender) private {... */\n    tag_219:\n        /* \"zap/ZapUniV2.sol\":8507:8508  0 */\n      0x00\n        /* \"zap/ZapUniV2.sol\":8463:8468  token */\n      dup3\n        /* \"zap/ZapUniV2.sol\":8456:8479  IERC20(token).allowance */\n      0xffffffffffffffffffffffffffffffffffffffff\n      and\n      0xdd62ed3e\n        /* \"zap/ZapUniV2.sol\":8488:8492  this */\n      address\n        /* \"zap/ZapUniV2.sol\":8495:8502  spender */\n      dup5\n        /* \"zap/ZapUniV2.sol\":8456:8503  IERC20(token).allowance(address(this), spender) */\n      mload(0x40)\n      dup4\n      0xffffffff\n      and\n      0xe0\n      shl\n      dup2\n      mstore\n      0x04\n      add\n      tag_427\n      swap3\n      swap2\n      swap1\n      tag_121\n      jump\t// in\n    tag_427:\n      0x20\n      mload(0x40)\n      dup1\n      dup4\n      sub\n      dup2\n      dup7\n      dup1\n      extcodesize\n      iszero\n      dup1\n      iszero\n      tag_428\n      jumpi\n      0x00\n      dup1\n      revert\n    tag_428:\n      pop\n      gas\n      staticcall\n      iszero\n      dup1\n      iszero\n      tag_430\n      jumpi\n      returndatasize\n      0x00\n      dup1\n      returndatacopy\n      revert(0x00, returndatasize)\n    tag_430:\n      pop\n      pop\n      pop\n      pop\n      mload(0x40)\n      returndatasize\n      not(0x1f)\n      0x1f\n      dup3\n      add\n      and\n      dup3\n      add\n      dup1\n      0x40\n      mstore\n      pop\n      dup2\n      add\n      swap1\n      tag_431\n      swap2\n      swap1\n      tag_105\n      jump\t// in\n    tag_431:\n        /* \"zap/ZapUniV2.sol\":8456:8508  IERC20(token).allowance(address(this), spender) == 0 */\n      eq\n        /* \"zap/ZapUniV2.sol\":8452:8585  if (IERC20(token).allowance(address(this), spender) == 0) {... */\n      iszero\n      tag_432\n      jumpi\n        /* \"zap/ZapUniV2.sol\":8524:8574  IERC20(token).safeApprove(spender, type(uint).max) */\n      tag_433\n        /* \"zap/ZapUniV2.sol\":8550:8557  spender */\n      dup2\n        /* \"zap/ZapUniV2.sol\":8559:8573  type(uint).max */\n      0xffffffffffffffffffffffffffffffffffffffffffffffffffffffffffffffff\n        /* \"zap/ZapUniV2.sol\":8531:8536  token */\n      dup5\n        /* \"zap/ZapUniV2.sol\":8524:8549  IERC20(token).safeApprove */\n      0xffffffffffffffffffffffffffffffffffffffff\n      and\n      tag_434\n      swap1\n        /* \"zap/ZapUniV2.sol\":8524:8574  IERC20(token).safeApprove(spender, type(uint).max) */\n      swap3\n      swap2\n      swap1\n      0xffffffff\n      and\n      jump\t// in\n    tag_433:\n        /* \"zap/ZapUniV2.sol\":8452:8585  if (IERC20(token).allowance(address(this), spender) == 0) {... */\n    tag_432:\n        /* \"zap/ZapUniV2.sol\":8371:8591  function _approveTokenIfNeeded(address token, address spender) private {... */\n      pop\n      pop\n      jump\t// out\n        /* \"@uniswap/v3-core/contracts/libraries/LowGasSafeMath.sol\":435:546  function add(uint256 x, uint256 y) internal pure returns (uint256 z) {... */\n    tag_258:\n        /* \"@uniswap/v3-core/contracts/libraries/LowGasSafeMath.sol\":493:502  uint256 z */\n      0x00\n        /* \"@uniswap/v3-core/contracts/libraries/LowGasSafeMath.sol\":537:538  x */\n      dup3\n        /* \"@uniswap/v3-core/contracts/libraries/LowGasSafeMath.sol\":531:532  y */\n      dup3\n        /* \"@uniswap/v3-core/contracts/libraries/LowGasSafeMath.sol\":527:528  x */\n      dup5\n        /* \"@uniswap/v3-core/contracts/libraries/LowGasSafeMath.sol\":527:532  x + y */\n      tag_436\n      swap2\n      swap1\n      tag_437\n      jump\t// in\n    tag_436:\n        /* \"@uniswap/v3-core/contracts/libraries/LowGasSafeMath.sol\":523:532  z = x + y */\n      swap2\n      pop\n      dup2\n        /* \"@uniswap/v3-core/contracts/libraries/LowGasSafeMath.sol\":522:538  (z = x + y) >= x */\n      lt\n      iszero\n        /* \"@uniswap/v3-core/contracts/libraries/LowGasSafeMath.sol\":514:539  require((z = x + y) >= x) */\n      tag_438\n      jumpi\n      0x00\n      dup1\n      revert\n    tag_438:\n        /* \"@uniswap/v3-core/contracts/libraries/LowGasSafeMath.sol\":435:546  function add(uint256 x, uint256 y) internal pure returns (uint256 z) {... */\n      swap3\n      swap2\n      pop\n      pop\n      jump\t// out\n        /* \"@uniswap/v3-core/contracts/libraries/LowGasSafeMath.sol\":710:821  function sub(uint256 x, uint256 y) internal pure returns (uint256 z) {... */\n    tag_260:\n        /* \"@uniswap/v3-core/contracts/libraries/LowGasSafeMath.sol\":768:777  uint256 z */\n      0x00\n        /* \"@uniswap/v3-core/contracts/libraries/LowGasSafeMath.sol\":812:813  x */\n      dup3\n        /* \"@uniswap/v3-core/contracts/libraries/LowGasSafeMath.sol\":806:807  y */\n      dup3\n        /* \"@uniswap/v3-core/contracts/libraries/LowGasSafeMath.sol\":802:803  x */\n      dup5\n        /* \"@uniswap/v3-core/contracts/libraries/LowGasSafeMath.sol\":802:807  x - y */\n      tag_440\n      swap2\n      swap1\n      tag_441\n      jump\t// in\n    tag_440:\n        /* \"@uniswap/v3-core/contracts/libraries/LowGasSafeMath.sol\":798:807  z = x - y */\n      swap2\n      pop\n      dup2\n        /* \"@uniswap/v3-core/contracts/libraries/LowGasSafeMath.sol\":797:813  (z = x - y) <= x */\n      gt\n      iszero\n        /* \"@uniswap/v3-core/contracts/libraries/LowGasSafeMath.sol\":789:814  require((z = x - y) <= x) */\n      tag_442\n      jumpi\n      0x00\n      dup1\n      revert\n    tag_442:\n        /* \"@uniswap/v3-core/contracts/libraries/LowGasSafeMath.sol\":710:821  function sub(uint256 x, uint256 y) internal pure returns (uint256 z) {... */\n      swap3\n      swap2\n      pop\n      pop\n      jump\t// out\n        /* \"@uniswap/lib/contracts/libraries/Babylonian.sol\":382:1579  function sqrt(uint256 x) internal pure returns (uint256) {... */\n    tag_272:\n        /* \"@uniswap/lib/contracts/libraries/Babylonian.sol\":430:437  uint256 */\n      0x00\n        /* \"@uniswap/lib/contracts/libraries/Babylonian.sol\":458:459  0 */\n      dup1\n        /* \"@uniswap/lib/contracts/libraries/Babylonian.sol\":453:454  x */\n      dup3\n        /* \"@uniswap/lib/contracts/libraries/Babylonian.sol\":453:459  x == 0 */\n      eq\n        /* \"@uniswap/lib/contracts/libraries/Babylonian.sol\":449:469  if (x == 0) return 0 */\n      iszero\n      tag_444\n      jumpi\n        /* \"@uniswap/lib/contracts/libraries/Babylonian.sol\":468:469  0 */\n      0x00\n        /* \"@uniswap/lib/contracts/libraries/Babylonian.sol\":461:469  return 0 */\n      swap1\n      pop\n      jump(tag_443)\n        /* \"@uniswap/lib/contracts/libraries/Babylonian.sol\":449:469  if (x == 0) return 0 */\n    tag_444:\n        /* \"@uniswap/lib/contracts/libraries/Babylonian.sol\":631:641  uint256 xx */\n      0x00\n        /* \"@uniswap/lib/contracts/libraries/Babylonian.sol\":644:645  x */\n      dup3\n        /* \"@uniswap/lib/contracts/libraries/Babylonian.sol\":631:645  uint256 xx = x */\n      swap1\n      pop\n        /* \"@uniswap/lib/contracts/libraries/Babylonian.sol\":655:664  uint256 r */\n      0x00\n        /* \"@uniswap/lib/contracts/libraries/Babylonian.sol\":667:668  1 */\n      0x01\n        /* \"@uniswap/lib/contracts/libraries/Babylonian.sol\":655:668  uint256 r = 1 */\n      swap1\n      pop\n        /* \"@uniswap/lib/contracts/libraries/Babylonian.sol\":688:723  0x100000000000000000000000000000000 */\n      0x0100000000000000000000000000000000\n        /* \"@uniswap/lib/contracts/libraries/Babylonian.sol\":682:684  xx */\n      dup3\n        /* \"@uniswap/lib/contracts/libraries/Babylonian.sol\":682:723  xx >= 0x100000000000000000000000000000000 */\n      lt\n        /* \"@uniswap/lib/contracts/libraries/Babylonian.sol\":678:782  if (xx >= 0x100000000000000000000000000000000) {... */\n      tag_445\n      jumpi\n        /* \"@uniswap/lib/contracts/libraries/Babylonian.sol\":746:749  128 */\n      0x80\n        /* \"@uniswap/lib/contracts/libraries/Babylonian.sol\":739:749  xx >>= 128 */\n      dup3\n      swap1\n      shr\n      swap2\n      pop\n        /* \"@uniswap/lib/contracts/libraries/Babylonian.sol\":769:771  64 */\n      0x40\n        /* \"@uniswap/lib/contracts/libraries/Babylonian.sol\":763:771  r <<= 64 */\n      dup2\n      swap1\n      shl\n      swap1\n      pop\n        /* \"@uniswap/lib/contracts/libraries/Babylonian.sol\":678:782  if (xx >= 0x100000000000000000000000000000000) {... */\n    tag_445:\n        /* \"@uniswap/lib/contracts/libraries/Babylonian.sol\":801:820  0x10000000000000000 */\n      0x010000000000000000\n        /* \"@uniswap/lib/contracts/libraries/Babylonian.sol\":795:797  xx */\n      dup3\n        /* \"@uniswap/lib/contracts/libraries/Babylonian.sol\":795:820  xx >= 0x10000000000000000 */\n      lt\n        /* \"@uniswap/lib/contracts/libraries/Babylonian.sol\":791:878  if (xx >= 0x10000000000000000) {... */\n      tag_446\n      jumpi\n        /* \"@uniswap/lib/contracts/libraries/Babylonian.sol\":843:845  64 */\n      0x40\n        /* \"@uniswap/lib/contracts/libraries/Babylonian.sol\":836:845  xx >>= 64 */\n      dup3\n      swap1\n      shr\n      swap2\n      pop\n        /* \"@uniswap/lib/contracts/libraries/Babylonian.sol\":865:867  32 */\n      0x20\n        /* \"@uniswap/lib/contracts/libraries/Babylonian.sol\":859:867  r <<= 32 */\n      dup2\n      swap1\n      shl\n      swap1\n      pop\n        /* \"@uniswap/lib/contracts/libraries/Babylonian.sol\":791:878  if (xx >= 0x10000000000000000) {... */\n    tag_446:\n        /* \"@uniswap/lib/contracts/libraries/Babylonian.sol\":897:908  0x100000000 */\n      0x0100000000\n        /* \"@uniswap/lib/contracts/libraries/Babylonian.sol\":891:893  xx */\n      dup3\n        /* \"@uniswap/lib/contracts/libraries/Babylonian.sol\":891:908  xx >= 0x100000000 */\n      lt\n        /* \"@uniswap/lib/contracts/libraries/Babylonian.sol\":887:966  if (xx >= 0x100000000) {... */\n      tag_447\n      jumpi\n        /* \"@uniswap/lib/contracts/libraries/Babylonian.sol\":931:933  32 */\n      0x20\n        /* \"@uniswap/lib/contracts/libraries/Babylonian.sol\":924:933  xx >>= 32 */\n      dup3\n      swap1\n      shr\n      swap2\n      pop\n        /* \"@uniswap/lib/contracts/libraries/Babylonian.sol\":953:955  16 */\n      0x10\n        /* \"@uniswap/lib/contracts/libraries/Babylonian.sol\":947:955  r <<= 16 */\n      dup2\n      swap1\n      shl\n      swap1\n      pop\n        /* \"@uniswap/lib/contracts/libraries/Babylonian.sol\":887:966  if (xx >= 0x100000000) {... */\n    tag_447:\n        /* \"@uniswap/lib/contracts/libraries/Babylonian.sol\":985:992  0x10000 */\n      0x010000\n        /* \"@uniswap/lib/contracts/libraries/Babylonian.sol\":979:981  xx */\n      dup3\n        /* \"@uniswap/lib/contracts/libraries/Babylonian.sol\":979:992  xx >= 0x10000 */\n      lt\n        /* \"@uniswap/lib/contracts/libraries/Babylonian.sol\":975:1049  if (xx >= 0x10000) {... */\n      tag_448\n      jumpi\n        /* \"@uniswap/lib/contracts/libraries/Babylonian.sol\":1015:1017  16 */\n      0x10\n        /* \"@uniswap/lib/contracts/libraries/Babylonian.sol\":1008:1017  xx >>= 16 */\n      dup3\n      swap1\n      shr\n      swap2\n      pop\n        /* \"@uniswap/lib/contracts/libraries/Babylonian.sol\":1037:1038  8 */\n      0x08\n        /* \"@uniswap/lib/contracts/libraries/Babylonian.sol\":1031:1038  r <<= 8 */\n      dup2\n      swap1\n      shl\n      swap1\n      pop\n        /* \"@uniswap/lib/contracts/libraries/Babylonian.sol\":975:1049  if (xx >= 0x10000) {... */\n    tag_448:\n        /* \"@uniswap/lib/contracts/libraries/Babylonian.sol\":1068:1073  0x100 */\n      0x0100\n        /* \"@uniswap/lib/contracts/libraries/Babylonian.sol\":1062:1064  xx */\n      dup3\n        /* \"@uniswap/lib/contracts/libraries/Babylonian.sol\":1062:1073  xx >= 0x100 */\n      lt\n        /* \"@uniswap/lib/contracts/libraries/Babylonian.sol\":1058:1129  if (xx >= 0x100) {... */\n      tag_449\n      jumpi\n        /* \"@uniswap/lib/contracts/libraries/Babylonian.sol\":1096:1097  8 */\n      0x08\n        /* \"@uniswap/lib/contracts/libraries/Babylonian.sol\":1089:1097  xx >>= 8 */\n      dup3\n      swap1\n      shr\n      swap2\n      pop\n        /* \"@uniswap/lib/contracts/libraries/Babylonian.sol\":1117:1118  4 */\n      0x04\n        /* \"@uniswap/lib/contracts/libraries/Babylonian.sol\":1111:1118  r <<= 4 */\n      dup2\n      swap1\n      shl\n      swap1\n      pop\n        /* \"@uniswap/lib/contracts/libraries/Babylonian.sol\":1058:1129  if (xx >= 0x100) {... */\n    tag_449:\n        /* \"@uniswap/lib/contracts/libraries/Babylonian.sol\":1148:1152  0x10 */\n      0x10\n        /* \"@uniswap/lib/contracts/libraries/Babylonian.sol\":1142:1144  xx */\n      dup3\n        /* \"@uniswap/lib/contracts/libraries/Babylonian.sol\":1142:1152  xx >= 0x10 */\n      lt\n        /* \"@uniswap/lib/contracts/libraries/Babylonian.sol\":1138:1208  if (xx >= 0x10) {... */\n      tag_450\n      jumpi\n        /* \"@uniswap/lib/contracts/libraries/Babylonian.sol\":1175:1176  4 */\n      0x04\n        /* \"@uniswap/lib/contracts/libraries/Babylonian.sol\":1168:1176  xx >>= 4 */\n      dup3\n      swap1\n      shr\n      swap2\n      pop\n        /* \"@uniswap/lib/contracts/libraries/Babylonian.sol\":1196:1197  2 */\n      0x02\n        /* \"@uniswap/lib/contracts/libraries/Babylonian.sol\":1190:1197  r <<= 2 */\n      dup2\n      swap1\n      shl\n      swap1\n      pop\n        /* \"@uniswap/lib/contracts/libraries/Babylonian.sol\":1138:1208  if (xx >= 0x10) {... */\n    tag_450:\n        /* \"@uniswap/lib/contracts/libraries/Babylonian.sol\":1227:1230  0x8 */\n      0x08\n        /* \"@uniswap/lib/contracts/libraries/Babylonian.sol\":1221:1223  xx */\n      dup3\n        /* \"@uniswap/lib/contracts/libraries/Babylonian.sol\":1221:1230  xx >= 0x8 */\n      lt\n        /* \"@uniswap/lib/contracts/libraries/Babylonian.sol\":1217:1264  if (xx >= 0x8) {... */\n      tag_451\n      jumpi\n        /* \"@uniswap/lib/contracts/libraries/Babylonian.sol\":1252:1253  1 */\n      0x01\n        /* \"@uniswap/lib/contracts/libraries/Babylonian.sol\":1246:1253  r <<= 1 */\n      dup2\n      swap1\n      shl\n      swap1\n      pop\n        /* \"@uniswap/lib/contracts/libraries/Babylonian.sol\":1217:1264  if (xx >= 0x8) {... */\n    tag_451:\n        /* \"@uniswap/lib/contracts/libraries/Babylonian.sol\":1292:1293  1 */\n      0x01\n        /* \"@uniswap/lib/contracts/libraries/Babylonian.sol\":1286:1287  r */\n      dup2\n        /* \"@uniswap/lib/contracts/libraries/Babylonian.sol\":1282:1283  x */\n      dup6\n        /* \"@uniswap/lib/contracts/libraries/Babylonian.sol\":1282:1287  x / r */\n      tag_452\n      swap2\n      swap1\n      tag_251\n      jump\t// in\n    tag_452:\n        /* \"@uniswap/lib/contracts/libraries/Babylonian.sol\":1278:1279  r */\n      dup3\n        /* \"@uniswap/lib/contracts/libraries/Babylonian.sol\":1278:1287  r + x / r */\n      tag_453\n      swap2\n      swap1\n      tag_437\n      jump\t// in\n    tag_453:\n        /* \"@uniswap/lib/contracts/libraries/Babylonian.sol\":1277:1293  (r + x / r) >> 1 */\n      swap1\n      shr\n        /* \"@uniswap/lib/contracts/libraries/Babylonian.sol\":1273:1293  r = (r + x / r) >> 1 */\n      swap1\n      pop\n        /* \"@uniswap/lib/contracts/libraries/Babylonian.sol\":1322:1323  1 */\n      0x01\n        /* \"@uniswap/lib/contracts/libraries/Babylonian.sol\":1316:1317  r */\n      dup2\n        /* \"@uniswap/lib/contracts/libraries/Babylonian.sol\":1312:1313  x */\n      dup6\n        /* \"@uniswap/lib/contracts/libraries/Babylonian.sol\":1312:1317  x / r */\n      tag_454\n      swap2\n      swap1\n      tag_251\n      jump\t// in\n    tag_454:\n        /* \"@uniswap/lib/contracts/libraries/Babylonian.sol\":1308:1309  r */\n      dup3\n        /* \"@uniswap/lib/contracts/libraries/Babylonian.sol\":1308:1317  r + x / r */\n      tag_455\n      swap2\n      swap1\n      tag_437\n      jump\t// in\n    tag_455:\n        /* \"@uniswap/lib/contracts/libraries/Babylonian.sol\":1307:1323  (r + x / r) >> 1 */\n      swap1\n      shr\n        /* \"@uniswap/lib/contracts/libraries/Babylonian.sol\":1303:1323  r = (r + x / r) >> 1 */\n      swap1\n      pop\n        /* \"@uniswap/lib/contracts/libraries/Babylonian.sol\":1352:1353  1 */\n      0x01\n        /* \"@uniswap/lib/contracts/libraries/Babylonian.sol\":1346:1347  r */\n      dup2\n        /* \"@uniswap/lib/contracts/libraries/Babylonian.sol\":1342:1343  x */\n      dup6\n        /* \"@uniswap/lib/contracts/libraries/Babylonian.sol\":1342:1347  x / r */\n      tag_456\n      swap2\n      swap1\n      tag_251\n      jump\t// in\n    tag_456:\n        /* \"@uniswap/lib/contracts/libraries/Babylonian.sol\":1338:1339  r */\n      dup3\n        /* \"@uniswap/lib/contracts/libraries/Babylonian.sol\":1338:1347  r + x / r */\n      tag_457\n      swap2\n      swap1\n      tag_437\n      jump\t// in\n    tag_457:\n        /* \"@uniswap/lib/contracts/libraries/Babylonian.sol\":1337:1353  (r + x / r) >> 1 */\n      swap1\n      shr\n        /* \"@uniswap/lib/contracts/libraries/Babylonian.sol\":1333:1353  r = (r + x / r) >> 1 */\n      swap1\n      pop\n        /* \"@uniswap/lib/contracts/libraries/Babylonian.sol\":1382:1383  1 */\n      0x01\n        /* \"@uniswap/lib/contracts/libraries/Babylonian.sol\":1376:1377  r */\n      dup2\n        /* \"@uniswap/lib/contracts/libraries/Babylonian.sol\":1372:1373  x */\n      dup6\n        /* \"@uniswap/lib/contracts/libraries/Babylonian.sol\":1372:1377  x / r */\n      tag_458\n      swap2\n      swap1\n      tag_251\n      jump\t// in\n    tag_458:\n        /* \"@uniswap/lib/contracts/libraries/Babylonian.sol\":1368:1369  r */\n      dup3\n        /* \"@uniswap/lib/contracts/libraries/Babylonian.sol\":1368:1377  r + x / r */\n      tag_459\n      swap2\n      swap1\n      tag_437\n      jump\t// in\n    tag_459:\n        /* \"@uniswap/lib/contracts/libraries/Babylonian.sol\":1367:1383  (r + x / r) >> 1 */\n      swap1\n      shr\n        /* \"@uniswap/lib/contracts/libraries/Babylonian.sol\":1363:1383  r = (r + x / r) >> 1 */\n      swap1\n      pop\n        /* \"@uniswap/lib/contracts/libraries/Babylonian.sol\":1412:1413  1 */\n      0x01\n        /* \"@uniswap/lib/contracts/libraries/Babylonian.sol\":1406:1407  r */\n      dup2\n        /* \"@uniswap/lib/contracts/libraries/Babylonian.sol\":1402:1403  x */\n      dup6\n        /* \"@uniswap/lib/contracts/libraries/Babylonian.sol\":1402:1407  x / r */\n      tag_460\n      swap2\n      swap1\n      tag_251\n      jump\t// in\n    tag_460:\n        /* \"@uniswap/lib/contracts/libraries/Babylonian.sol\":1398:1399  r */\n      dup3\n        /* \"@uniswap/lib/contracts/libraries/Babylonian.sol\":1398:1407  r + x / r */\n      tag_461\n      swap2\n      swap1\n      tag_437\n      jump\t// in\n    tag_461:\n        /* \"@uniswap/lib/contracts/libraries/Babylonian.sol\":1397:1413  (r + x / r) >> 1 */\n      swap1\n      shr\n        /* \"@uniswap/lib/contracts/libraries/Babylonian.sol\":1393:1413  r = (r + x / r) >> 1 */\n      swap1\n      pop\n        /* \"@uniswap/lib/contracts/libraries/Babylonian.sol\":1442:1443  1 */\n      0x01\n        /* \"@uniswap/lib/contracts/libraries/Babylonian.sol\":1436:1437  r */\n      dup2\n        /* \"@uniswap/lib/contracts/libraries/Babylonian.sol\":1432:1433  x */\n      dup6\n        /* \"@uniswap/lib/contracts/libraries/Babylonian.sol\":1432:1437  x / r */\n      tag_462\n      swap2\n      swap1\n      tag_251\n      jump\t// in\n    tag_462:\n        /* \"@uniswap/lib/contracts/libraries/Babylonian.sol\":1428:1429  r */\n      dup3\n        /* \"@uniswap/lib/contracts/libraries/Babylonian.sol\":1428:1437  r + x / r */\n      tag_463\n      swap2\n      swap1\n      tag_437\n      jump\t// in\n    tag_463:\n        /* \"@uniswap/lib/contracts/libraries/Babylonian.sol\":1427:1443  (r + x / r) >> 1 */\n      swap1\n      shr\n        /* \"@uniswap/lib/contracts/libraries/Babylonian.sol\":1423:1443  r = (r + x / r) >> 1 */\n      swap1\n      pop\n        /* \"@uniswap/lib/contracts/libraries/Babylonian.sol\":1472:1473  1 */\n      0x01\n        /* \"@uniswap/lib/contracts/libraries/Babylonian.sol\":1466:1467  r */\n      dup2\n        /* \"@uniswap/lib/contracts/libraries/Babylonian.sol\":1462:1463  x */\n      dup6\n        /* \"@uniswap/lib/contracts/libraries/Babylonian.sol\":1462:1467  x / r */\n      tag_464\n      swap2\n      swap1\n      tag_251\n      jump\t// in\n    tag_464:\n        /* \"@uniswap/lib/contracts/libraries/Babylonian.sol\":1458:1459  r */\n      dup3\n        /* \"@uniswap/lib/contracts/libraries/Babylonian.sol\":1458:1467  r + x / r */\n      tag_465\n      swap2\n      swap1\n      tag_437\n      jump\t// in\n    tag_465:\n        /* \"@uniswap/lib/contracts/libraries/Babylonian.sol\":1457:1473  (r + x / r) >> 1 */\n      swap1\n      shr\n        /* \"@uniswap/lib/contracts/libraries/Babylonian.sol\":1453:1473  r = (r + x / r) >> 1 */\n      swap1\n      pop\n        /* \"@uniswap/lib/contracts/libraries/Babylonian.sol\":1520:1530  uint256 r1 */\n      0x00\n        /* \"@uniswap/lib/contracts/libraries/Babylonian.sol\":1537:1538  r */\n      dup2\n        /* \"@uniswap/lib/contracts/libraries/Babylonian.sol\":1533:1534  x */\n      dup6\n        /* \"@uniswap/lib/contracts/libraries/Babylonian.sol\":1533:1538  x / r */\n      tag_466\n      swap2\n      swap1\n      tag_251\n      jump\t// in\n    tag_466:\n        /* \"@uniswap/lib/contracts/libraries/Babylonian.sol\":1520:1538  uint256 r1 = x / r */\n      swap1\n      pop\n        /* \"@uniswap/lib/contracts/libraries/Babylonian.sol\":1560:1562  r1 */\n      dup1\n        /* \"@uniswap/lib/contracts/libraries/Babylonian.sol\":1556:1557  r */\n      dup3\n        /* \"@uniswap/lib/contracts/libraries/Babylonian.sol\":1556:1562  r < r1 */\n      lt\n        /* \"@uniswap/lib/contracts/libraries/Babylonian.sol\":1556:1571  r < r1 ? r : r1 */\n      tag_467\n      jumpi\n        /* \"@uniswap/lib/contracts/libraries/Babylonian.sol\":1569:1571  r1 */\n      dup1\n        /* \"@uniswap/lib/contracts/libraries/Babylonian.sol\":1556:1571  r < r1 ? r : r1 */\n      jump(tag_468)\n    tag_467:\n        /* \"@uniswap/lib/contracts/libraries/Babylonian.sol\":1565:1566  r */\n      dup2\n        /* \"@uniswap/lib/contracts/libraries/Babylonian.sol\":1556:1571  r < r1 ? r : r1 */\n    tag_468:\n        /* \"@uniswap/lib/contracts/libraries/Babylonian.sol\":1548:1572  return (r < r1 ? r : r1) */\n      swap4\n      pop\n      pop\n      pop\n      pop\n        /* \"@uniswap/lib/contracts/libraries/Babylonian.sol\":382:1579  function sqrt(uint256 x) internal pure returns (uint256) {... */\n    tag_443:\n      swap2\n      swap1\n      pop\n      jump\t// out\n        /* \"@openzeppelin/contracts/token/ERC20/utils/SafeERC20.sol\":3747:4453  function _callOptionalReturn(IERC20 token, bytes memory data) private {... */\n    tag_277:\n        /* \"@openzeppelin/contracts/token/ERC20/utils/SafeERC20.sol\":4166:4189  bytes memory returndata */\n      0x00\n        /* \"@openzeppelin/contracts/token/ERC20/utils/SafeERC20.sol\":4192:4261  address(token).functionCall(data, \"SafeERC20: low-level call failed\") */\n      tag_470\n        /* \"@openzeppelin/contracts/token/ERC20/utils/SafeERC20.sol\":4220:4224  data */\n      dup3\n        /* \"@openzeppelin/contracts/token/ERC20/utils/SafeERC20.sol\":4192:4261  address(token).functionCall(data, \"SafeERC20: low-level call failed\") */\n      mload(0x40)\n      dup1\n      0x40\n      add\n      0x40\n      mstore\n      dup1\n      0x20\n      dup2\n      mstore\n      0x20\n      add\n      0x5361666545524332303a206c6f772d6c6576656c2063616c6c206661696c6564\n      dup2\n      mstore\n      pop\n        /* \"@openzeppelin/contracts/token/ERC20/utils/SafeERC20.sol\":4200:4205  token */\n      dup6\n        /* \"@openzeppelin/contracts/token/ERC20/utils/SafeERC20.sol\":4192:4219  address(token).functionCall */\n      0xffffffffffffffffffffffffffffffffffffffff\n      and\n      tag_471\n      swap1\n        /* \"@openzeppelin/contracts/token/ERC20/utils/SafeERC20.sol\":4192:4261  address(token).functionCall(data, \"SafeERC20: low-level call failed\") */\n      swap3\n      swap2\n      swap1\n      0xffffffff\n      and\n      jump\t// in\n    tag_470:\n        /* \"@openzeppelin/contracts/token/ERC20/utils/SafeERC20.sol\":4166:4261  bytes memory returndata = address(token).functionCall(data, \"SafeERC20: low-level call failed\") */\n      swap1\n      pop\n        /* \"@openzeppelin/contracts/token/ERC20/utils/SafeERC20.sol\":4295:4296  0 */\n      0x00\n        /* \"@openzeppelin/contracts/token/ERC20/utils/SafeERC20.sol\":4275:4285  returndata */\n      dup2\n        /* \"@openzeppelin/contracts/token/ERC20/utils/SafeERC20.sol\":4275:4292  returndata.length */\n      mload\n        /* \"@openzeppelin/contracts/token/ERC20/utils/SafeERC20.sol\":4275:4296  returndata.length > 0 */\n      gt\n        /* \"@openzeppelin/contracts/token/ERC20/utils/SafeERC20.sol\":4271:4447  if (returndata.length > 0) {... */\n      iszero\n      tag_472\n      jumpi\n        /* \"@openzeppelin/contracts/token/ERC20/utils/SafeERC20.sol\":4370:4380  returndata */\n      dup1\n        /* \"@openzeppelin/contracts/token/ERC20/utils/SafeERC20.sol\":4359:4389  abi.decode(returndata, (bool)) */\n      dup1\n      0x20\n      add\n      swap1\n      mload\n      dup2\n      add\n      swap1\n      tag_473\n      swap2\n      swap1\n      tag_474\n      jump\t// in\n    tag_473:\n        /* \"@openzeppelin/contracts/token/ERC20/utils/SafeERC20.sol\":4351:4436  require(abi.decode(returndata, (bool)), \"SafeERC20: ERC20 operation did not succeed\") */\n      tag_475\n      jumpi\n      mload(0x40)\n      0x08c379a000000000000000000000000000000000000000000000000000000000\n      dup2\n      mstore\n      0x04\n      add\n      tag_476\n      swap1\n      tag_477\n      jump\t// in\n    tag_476:\n      mload(0x40)\n      dup1\n      swap2\n      sub\n      swap1\n      revert\n    tag_475:\n        /* \"@openzeppelin/contracts/token/ERC20/utils/SafeERC20.sol\":4271:4447  if (returndata.length > 0) {... */\n    tag_472:\n        /* \"@openzeppelin/contracts/token/ERC20/utils/SafeERC20.sol\":3817:4453  {... */\n      pop\n        /* \"@openzeppelin/contracts/token/ERC20/utils/SafeERC20.sol\":3747:4453  function _callOptionalReturn(IERC20 token, bytes memory data) private {... */\n      pop\n      pop\n      jump\t// out\n        /* \"@openzeppelin/contracts/token/ERC20/utils/SafeERC20.sol\":763:968  function safeTransfer(... */\n    tag_363:\n        /* \"@openzeppelin/contracts/token/ERC20/utils/SafeERC20.sol\":875:961  _callOptionalReturn(token, abi.encodeWithSelector(token.transfer.selector, to, value)) */\n      tag_479\n        /* \"@openzeppelin/contracts/token/ERC20/utils/SafeERC20.sol\":895:900  token */\n      dup4\n        /* \"@openzeppelin/contracts/token/ERC20/utils/SafeERC20.sol\":925:948  token.transfer.selector */\n      shl(0xe0, 0xa9059cbb)\n        /* \"@openzeppelin/contracts/token/ERC20/utils/SafeERC20.sol\":950:952  to */\n      dup5\n        /* \"@openzeppelin/contracts/token/ERC20/utils/SafeERC20.sol\":954:959  value */\n      dup5\n        /* \"@openzeppelin/contracts/token/ERC20/utils/SafeERC20.sol\":902:960  abi.encodeWithSelector(token.transfer.selector, to, value) */\n      add(0x24, mload(0x40))\n      tag_480\n      swap3\n      swap2\n      swap1\n      tag_481\n      jump\t// in\n    tag_480:\n      mload(0x40)\n      0x20\n      dup2\n      dup4\n      sub\n      sub\n      dup2\n      mstore\n      swap1\n      0x40\n      mstore\n      swap1\n      not(0xffffffffffffffffffffffffffffffffffffffffffffffffffffffff)\n      and\n      0x20\n      dup3\n      add\n      dup1\n      mload\n      0xffffffffffffffffffffffffffffffffffffffffffffffffffffffff\n      dup4\n      dup2\n      dup4\n      and\n      or\n      dup4\n      mstore\n      pop\n      pop\n      pop\n      pop\n        /* \"@openzeppelin/contracts/token/ERC20/utils/SafeERC20.sol\":875:894  _callOptionalReturn */\n      tag_277\n        /* \"@openzeppelin/contracts/token/ERC20/utils/SafeERC20.sol\":875:961  _callOptionalReturn(token, abi.encodeWithSelector(token.transfer.selector, to, value)) */\n      jump\t// in\n    tag_479:\n        /* \"@openzeppelin/contracts/token/ERC20/utils/SafeERC20.sol\":763:968  function safeTransfer(... */\n      pop\n      pop\n      pop\n      jump\t// out\n        /* \"@openzeppelin/contracts/token/ERC20/utils/SafeERC20.sol\":1475:2078  function safeApprove(... */\n    tag_434:\n        /* \"@openzeppelin/contracts/token/ERC20/utils/SafeERC20.sol\":1839:1840  0 */\n      0x00\n        /* \"@openzeppelin/contracts/token/ERC20/utils/SafeERC20.sol\":1830:1835  value */\n      dup2\n        /* \"@openzeppelin/contracts/token/ERC20/utils/SafeERC20.sol\":1830:1840  value == 0 */\n      eq\n        /* \"@openzeppelin/contracts/token/ERC20/utils/SafeERC20.sol\":1829:1891  (value == 0) || (token.allowance(address(this), spender) == 0) */\n      dup1\n      tag_483\n      jumpi\n      pop\n        /* \"@openzeppelin/contracts/token/ERC20/utils/SafeERC20.sol\":1889:1890  0 */\n      0x00\n        /* \"@openzeppelin/contracts/token/ERC20/utils/SafeERC20.sol\":1846:1851  token */\n      dup4\n        /* \"@openzeppelin/contracts/token/ERC20/utils/SafeERC20.sol\":1846:1861  token.allowance */\n      0xffffffffffffffffffffffffffffffffffffffff\n      and\n      0xdd62ed3e\n        /* \"@openzeppelin/contracts/token/ERC20/utils/SafeERC20.sol\":1870:1874  this */\n      address\n        /* \"@openzeppelin/contracts/token/ERC20/utils/SafeERC20.sol\":1877:1884  spender */\n      dup6\n        /* \"@openzeppelin/contracts/token/ERC20/utils/SafeERC20.sol\":1846:1885  token.allowance(address(this), spender) */\n      mload(0x40)\n      dup4\n      0xffffffff\n      and\n      0xe0\n      shl\n      dup2\n      mstore\n      0x04\n      add\n      tag_484\n      swap3\n      swap2\n      swap1\n      tag_121\n      jump\t// in\n    tag_484:\n      0x20\n      mload(0x40)\n      dup1\n      dup4\n      sub\n      dup2\n      dup7\n      dup1\n      extcodesize\n      iszero\n      dup1\n      iszero\n      tag_485\n      jumpi\n      0x00\n      dup1\n      revert\n    tag_485:\n      pop\n      gas\n      staticcall\n      iszero\n      dup1\n      iszero\n      tag_487\n      jumpi\n      returndatasize\n      0x00\n      dup1\n      returndatacopy\n      revert(0x00, returndatasize)\n    tag_487:\n      pop\n      pop\n      pop\n      pop\n      mload(0x40)\n      returndatasize\n      not(0x1f)\n      0x1f\n      dup3\n      add\n      and\n      dup3\n      add\n      dup1\n      0x40\n      mstore\n      pop\n      dup2\n      add\n      swap1\n      tag_488\n      swap2\n      swap1\n      tag_105\n      jump\t// in\n    tag_488:\n        /* \"@openzeppelin/contracts/token/ERC20/utils/SafeERC20.sol\":1846:1890  token.allowance(address(this), spender) == 0 */\n      eq\n        /* \"@openzeppelin/contracts/token/ERC20/utils/SafeERC20.sol\":1829:1891  (value == 0) || (token.allowance(address(this), spender) == 0) */\n    tag_483:\n        /* \"@openzeppelin/contracts/token/ERC20/utils/SafeERC20.sol\":1808:1971  require(... */\n      tag_489\n      jumpi\n      mload(0x40)\n      0x08c379a000000000000000000000000000000000000000000000000000000000\n      dup2\n      mstore\n      0x04\n      add\n      tag_490\n      swap1\n      tag_491\n      jump\t// in\n    tag_490:\n      mload(0x40)\n      dup1\n      swap2\n      sub\n      swap1\n      revert\n    tag_489:\n        /* \"@openzeppelin/contracts/token/ERC20/utils/SafeERC20.sol\":1981:2071  _callOptionalReturn(token, abi.encodeWithSelector(token.approve.selector, spender, value)) */\n      tag_492\n        /* \"@openzeppelin/contracts/token/ERC20/utils/SafeERC20.sol\":2001:2006  token */\n      dup4\n        /* \"@openzeppelin/contracts/token/ERC20/utils/SafeERC20.sol\":2031:2053  token.approve.selector */\n      shl(0xe0, 0x095ea7b3)\n        /* \"@openzeppelin/contracts/token/ERC20/utils/SafeERC20.sol\":2055:2062  spender */\n      dup5\n        /* \"@openzeppelin/contracts/token/ERC20/utils/SafeERC20.sol\":2064:2069  value */\n      dup5\n        /* \"@openzeppelin/contracts/token/ERC20/utils/SafeERC20.sol\":2008:2070  abi.encodeWithSelector(token.approve.selector, spender, value) */\n      add(0x24, mload(0x40))\n      tag_493\n      swap3\n      swap2\n      swap1\n      tag_481\n      jump\t// in\n    tag_493:\n      mload(0x40)\n      0x20\n      dup2\n      dup4\n      sub\n      sub\n      dup2\n      mstore\n      swap1\n      0x40\n      mstore\n      swap1\n      not(0xffffffffffffffffffffffffffffffffffffffffffffffffffffffff)\n      and\n      0x20\n      dup3\n      add\n      dup1\n      mload\n      0xffffffffffffffffffffffffffffffffffffffffffffffffffffffff\n      dup4\n      dup2\n      dup4\n      and\n      or\n      dup4\n      mstore\n      pop\n      pop\n      pop\n      pop\n        /* \"@openzeppelin/contracts/token/ERC20/utils/SafeERC20.sol\":1981:2000  _callOptionalReturn */\n      tag_277\n        /* \"@openzeppelin/contracts/token/ERC20/utils/SafeERC20.sol\":1981:2071  _callOptionalReturn(token, abi.encodeWithSelector(token.approve.selector, spender, value)) */\n      jump\t// in\n    tag_492:\n        /* \"@openzeppelin/contracts/token/ERC20/utils/SafeERC20.sol\":1475:2078  function safeApprove(... */\n      pop\n      pop\n      pop\n      jump\t// out\n        /* \"@openzeppelin/contracts/utils/Address.sol\":3861:4084  function functionCall(... */\n    tag_471:\n        /* \"@openzeppelin/contracts/utils/Address.sol\":3994:4006  bytes memory */\n      0x60\n        /* \"@openzeppelin/contracts/utils/Address.sol\":4025:4077  functionCallWithValue(target, data, 0, errorMessage) */\n      tag_495\n        /* \"@openzeppelin/contracts/utils/Address.sol\":4047:4053  target */\n      dup5\n        /* \"@openzeppelin/contracts/utils/Address.sol\":4055:4059  data */\n      dup5\n        /* \"@openzeppelin/contracts/utils/Address.sol\":4061:4062  0 */\n      0x00\n        /* \"@openzeppelin/contracts/utils/Address.sol\":4064:4076  errorMessage */\n      dup6\n        /* \"@openzeppelin/contracts/utils/Address.sol\":4025:4046  functionCallWithValue */\n      tag_496\n        /* \"@openzeppelin/contracts/utils/Address.sol\":4025:4077  functionCallWithValue(target, data, 0, errorMessage) */\n      jump\t// in\n    tag_495:\n        /* \"@openzeppelin/contracts/utils/Address.sol\":4018:4077  return functionCallWithValue(target, data, 0, errorMessage) */\n      swap1\n      pop\n        /* \"@openzeppelin/contracts/utils/Address.sol\":3861:4084  function functionCall(... */\n      swap4\n      swap3\n      pop\n      pop\n      pop\n      jump\t// out\n        /* \"@openzeppelin/contracts/utils/Address.sol\":4948:5447  function functionCallWithValue(... */\n    tag_496:\n        /* \"@openzeppelin/contracts/utils/Address.sol\":5113:5125  bytes memory */\n      0x60\n        /* \"@openzeppelin/contracts/utils/Address.sol\":5170:5175  value */\n      dup3\n        /* \"@openzeppelin/contracts/utils/Address.sol\":5145:5166  address(this).balance */\n      selfbalance\n        /* \"@openzeppelin/contracts/utils/Address.sol\":5145:5175  address(this).balance >= value */\n      lt\n      iszero\n        /* \"@openzeppelin/contracts/utils/Address.sol\":5137:5218  require(address(this).balance >= value, \"Address: insufficient balance for call\") */\n      tag_498\n      jumpi\n      mload(0x40)\n      0x08c379a000000000000000000000000000000000000000000000000000000000\n      dup2\n      mstore\n      0x04\n      add\n      tag_499\n      swap1\n      tag_500\n      jump\t// in\n    tag_499:\n      mload(0x40)\n      dup1\n      swap2\n      sub\n      swap1\n      revert\n    tag_498:\n        /* \"@openzeppelin/contracts/utils/Address.sol\":5236:5254  isContract(target) */\n      tag_501\n        /* \"@openzeppelin/contracts/utils/Address.sol\":5247:5253  target */\n      dup6\n        /* \"@openzeppelin/contracts/utils/Address.sol\":5236:5246  isContract */\n      tag_502\n        /* \"@openzeppelin/contracts/utils/Address.sol\":5236:5254  isContract(target) */\n      jump\t// in\n    tag_501:\n        /* \"@openzeppelin/contracts/utils/Address.sol\":5228:5288  require(isContract(target), \"Address: call to non-contract\") */\n      tag_503\n      jumpi\n      mload(0x40)\n      0x08c379a000000000000000000000000000000000000000000000000000000000\n      dup2\n      mstore\n      0x04\n      add\n      tag_504\n      swap1\n      tag_505\n      jump\t// in\n    tag_504:\n      mload(0x40)\n      dup1\n      swap2\n      sub\n      swap1\n      revert\n    tag_503:\n        /* \"@openzeppelin/contracts/utils/Address.sol\":5300:5312  bool success */\n      0x00\n        /* \"@openzeppelin/contracts/utils/Address.sol\":5314:5337  bytes memory returndata */\n      dup1\n        /* \"@openzeppelin/contracts/utils/Address.sol\":5341:5347  target */\n      dup7\n        /* \"@openzeppelin/contracts/utils/Address.sol\":5341:5352  target.call */\n      0xffffffffffffffffffffffffffffffffffffffff\n      and\n        /* \"@openzeppelin/contracts/utils/Address.sol\":5360:5365  value */\n      dup6\n        /* \"@openzeppelin/contracts/utils/Address.sol\":5367:5371  data */\n      dup8\n        /* \"@openzeppelin/contracts/utils/Address.sol\":5341:5372  target.call{value: value}(data) */\n      mload(0x40)\n      tag_506\n      swap2\n      swap1\n      tag_413\n      jump\t// in\n    tag_506:\n      0x00\n      mload(0x40)\n      dup1\n      dup4\n      sub\n      dup2\n      dup6\n      dup8\n      gas\n      call\n      swap3\n      pop\n      pop\n      pop\n      returndatasize\n      dup1\n      0x00\n      dup2\n      eq\n      tag_509\n      jumpi\n      mload(0x40)\n      swap2\n      pop\n      and(add(returndatasize, 0x3f), not(0x1f))\n      dup3\n      add\n      0x40\n      mstore\n      returndatasize\n      dup3\n      mstore\n      returndatasize\n      0x00\n      0x20\n      dup5\n      add\n      returndatacopy\n      jump(tag_508)\n    tag_509:\n      0x60\n      swap2\n      pop\n    tag_508:\n      pop\n        /* \"@openzeppelin/contracts/utils/Address.sol\":5299:5372  (bool success, bytes memory returndata) = target.call{value: value}(data) */\n      swap2\n      pop\n      swap2\n      pop\n        /* \"@openzeppelin/contracts/utils/Address.sol\":5389:5440  verifyCallResult(success, returndata, errorMessage) */\n      tag_510\n        /* \"@openzeppelin/contracts/utils/Address.sol\":5406:5413  success */\n      dup3\n        /* \"@openzeppelin/contracts/utils/Address.sol\":5415:5425  returndata */\n      dup3\n        /* \"@openzeppelin/contracts/utils/Address.sol\":5427:5439  errorMessage */\n      dup7\n        /* \"@openzeppelin/contracts/utils/Address.sol\":5389:5405  verifyCallResult */\n      tag_511\n        /* \"@openzeppelin/contracts/utils/Address.sol\":5389:5440  verifyCallResult(success, returndata, errorMessage) */\n      jump\t// in\n    tag_510:\n        /* \"@openzeppelin/contracts/utils/Address.sol\":5382:5440  return verifyCallResult(success, returndata, errorMessage) */\n      swap3\n      pop\n      pop\n      pop\n        /* \"@openzeppelin/contracts/utils/Address.sol\":4948:5447  function functionCallWithValue(... */\n      swap5\n      swap4\n      pop\n      pop\n      pop\n      pop\n      jump\t// out\n        /* \"@openzeppelin/contracts/utils/Address.sol\":1175:1495  function isContract(address account) internal view returns (bool) {... */\n    tag_502:\n        /* \"@openzeppelin/contracts/utils/Address.sol\":1235:1239  bool */\n      0x00\n        /* \"@openzeppelin/contracts/utils/Address.sol\":1487:1488  0 */\n      dup1\n        /* \"@openzeppelin/contracts/utils/Address.sol\":1465:1472  account */\n      dup3\n        /* \"@openzeppelin/contracts/utils/Address.sol\":1465:1484  account.code.length */\n      0xffffffffffffffffffffffffffffffffffffffff\n      and\n      extcodesize\n        /* \"@openzeppelin/contracts/utils/Address.sol\":1465:1488  account.code.length > 0 */\n      gt\n        /* \"@openzeppelin/contracts/utils/Address.sol\":1458:1488  return account.code.length > 0 */\n      swap1\n      pop\n        /* \"@openzeppelin/contracts/utils/Address.sol\":1175:1495  function isContract(address account) internal view returns (bool) {... */\n      swap2\n      swap1\n      pop\n      jump\t// out\n        /* \"@openzeppelin/contracts/utils/Address.sol\":7561:8303  function verifyCallResult(... */\n    tag_511:\n        /* \"@openzeppelin/contracts/utils/Address.sol\":7707:7719  bytes memory */\n      0x60\n        /* \"@openzeppelin/contracts/utils/Address.sol\":7735:7742  success */\n      dup4\n        /* \"@openzeppelin/contracts/utils/Address.sol\":7731:8297  if (success) {... */\n      iszero\n      tag_514\n      jumpi\n        /* \"@openzeppelin/contracts/utils/Address.sol\":7765:7775  returndata */\n      dup3\n        /* \"@openzeppelin/contracts/utils/Address.sol\":7758:7775  return returndata */\n      swap1\n      pop\n      jump(tag_513)\n        /* \"@openzeppelin/contracts/utils/Address.sol\":7731:8297  if (success) {... */\n    tag_514:\n        /* \"@openzeppelin/contracts/utils/Address.sol\":7896:7897  0 */\n      0x00\n        /* \"@openzeppelin/contracts/utils/Address.sol\":7876:7886  returndata */\n      dup4\n        /* \"@openzeppelin/contracts/utils/Address.sol\":7876:7893  returndata.length */\n      mload\n        /* \"@openzeppelin/contracts/utils/Address.sol\":7876:7897  returndata.length > 0 */\n      gt\n        /* \"@openzeppelin/contracts/utils/Address.sol\":7872:8287  if (returndata.length > 0) {... */\n      iszero\n      tag_516\n      jumpi\n        /* \"@openzeppelin/contracts/utils/Address.sol\":8120:8130  returndata */\n      dup3\n        /* \"@openzeppelin/contracts/utils/Address.sol\":8114:8131  mload(returndata) */\n      mload\n        /* \"@openzeppelin/contracts/utils/Address.sol\":8180:8195  returndata_size */\n      dup1\n        /* \"@openzeppelin/contracts/utils/Address.sol\":8167:8177  returndata */\n      dup5\n        /* \"@openzeppelin/contracts/utils/Address.sol\":8163:8165  32 */\n      0x20\n        /* \"@openzeppelin/contracts/utils/Address.sol\":8159:8178  add(32, returndata) */\n      add\n        /* \"@openzeppelin/contracts/utils/Address.sol\":8152:8196  revert(add(32, returndata), returndata_size) */\n      revert\n        /* \"@openzeppelin/contracts/utils/Address.sol\":7872:8287  if (returndata.length > 0) {... */\n    tag_516:\n        /* \"@openzeppelin/contracts/utils/Address.sol\":8259:8271  errorMessage */\n      dup2\n        /* \"@openzeppelin/contracts/utils/Address.sol\":8252:8272  revert(errorMessage) */\n      mload(0x40)\n      0x08c379a000000000000000000000000000000000000000000000000000000000\n      dup2\n      mstore\n      0x04\n      add\n      tag_518\n      swap2\n      swap1\n      tag_519\n      jump\t// in\n    tag_518:\n      mload(0x40)\n      dup1\n      swap2\n      sub\n      swap1\n      revert\n        /* \"@openzeppelin/contracts/utils/Address.sol\":7561:8303  function verifyCallResult(... */\n    tag_513:\n      swap4\n      swap3\n      pop\n      pop\n      pop\n      jump\t// out\n        /* \"#utility.yul\":24:768   */\n    tag_521:\n        /* \"#utility.yul\":131:136   */\n      0x00\n        /* \"#utility.yul\":156:237   */\n      tag_523\n        /* \"#utility.yul\":172:236   */\n      tag_524\n        /* \"#utility.yul\":229:235   */\n      dup5\n        /* \"#utility.yul\":172:236   */\n      tag_525\n      jump\t// in\n    tag_524:\n        /* \"#utility.yul\":156:237   */\n      tag_526\n      jump\t// in\n    tag_523:\n        /* \"#utility.yul\":147:237   */\n      swap1\n      pop\n        /* \"#utility.yul\":257:262   */\n      dup1\n        /* \"#utility.yul\":286:292   */\n      dup4\n        /* \"#utility.yul\":279:284   */\n      dup3\n        /* \"#utility.yul\":272:293   */\n      mstore\n        /* \"#utility.yul\":320:324   */\n      0x20\n        /* \"#utility.yul\":313:318   */\n      dup3\n        /* \"#utility.yul\":309:325   */\n      add\n        /* \"#utility.yul\":302:325   */\n      swap1\n      pop\n        /* \"#utility.yul\":346:352   */\n      dup3\n        /* \"#utility.yul\":396:399   */\n      dup6\n        /* \"#utility.yul\":388:392   */\n      0x20\n        /* \"#utility.yul\":380:386   */\n      dup7\n        /* \"#utility.yul\":376:393   */\n      mul\n        /* \"#utility.yul\":371:374   */\n      dup3\n        /* \"#utility.yul\":367:394   */\n      add\n        /* \"#utility.yul\":364:400   */\n      gt\n        /* \"#utility.yul\":361:504   */\n      iszero\n      tag_527\n      jumpi\n        /* \"#utility.yul\":415:494   */\n      tag_528\n      tag_529\n      jump\t// in\n    tag_528:\n        /* \"#utility.yul\":361:504   */\n    tag_527:\n        /* \"#utility.yul\":528:529   */\n      0x00\n        /* \"#utility.yul\":513:762   */\n    tag_530:\n        /* \"#utility.yul\":538:544   */\n      dup6\n        /* \"#utility.yul\":535:536   */\n      dup2\n        /* \"#utility.yul\":532:545   */\n      lt\n        /* \"#utility.yul\":513:762   */\n      iszero\n      tag_532\n      jumpi\n        /* \"#utility.yul\":606:609   */\n      dup2\n        /* \"#utility.yul\":635:683   */\n      tag_533\n        /* \"#utility.yul\":679:682   */\n      dup9\n        /* \"#utility.yul\":667:677   */\n      dup3\n        /* \"#utility.yul\":635:683   */\n      tag_534\n      jump\t// in\n    tag_533:\n        /* \"#utility.yul\":630:633   */\n      dup5\n        /* \"#utility.yul\":623:684   */\n      mstore\n        /* \"#utility.yul\":713:717   */\n      0x20\n        /* \"#utility.yul\":708:711   */\n      dup5\n        /* \"#utility.yul\":704:718   */\n      add\n        /* \"#utility.yul\":697:718   */\n      swap4\n      pop\n        /* \"#utility.yul\":747:751   */\n      0x20\n        /* \"#utility.yul\":742:745   */\n      dup4\n        /* \"#utility.yul\":738:752   */\n      add\n        /* \"#utility.yul\":731:752   */\n      swap3\n      pop\n        /* \"#utility.yul\":573:762   */\n      pop\n        /* \"#utility.yul\":560:561   */\n      0x01\n        /* \"#utility.yul\":557:558   */\n      dup2\n        /* \"#utility.yul\":553:562   */\n      add\n        /* \"#utility.yul\":548:562   */\n      swap1\n      pop\n        /* \"#utility.yul\":513:762   */\n      jump(tag_530)\n    tag_532:\n        /* \"#utility.yul\":517:531   */\n      pop\n        /* \"#utility.yul\":137:768   */\n      pop\n      pop\n        /* \"#utility.yul\":24:768   */\n      swap4\n      swap3\n      pop\n      pop\n      pop\n      jump\t// out\n        /* \"#utility.yul\":774:913   */\n    tag_535:\n        /* \"#utility.yul\":820:825   */\n      0x00\n        /* \"#utility.yul\":858:864   */\n      dup2\n        /* \"#utility.yul\":845:865   */\n      calldataload\n        /* \"#utility.yul\":836:865   */\n      swap1\n      pop\n        /* \"#utility.yul\":874:907   */\n      tag_537\n        /* \"#utility.yul\":901:906   */\n      dup2\n        /* \"#utility.yul\":874:907   */\n      tag_538\n      jump\t// in\n    tag_537:\n        /* \"#utility.yul\":774:913   */\n      swap3\n      swap2\n      pop\n      pop\n      jump\t// out\n        /* \"#utility.yul\":919:1062   */\n    tag_539:\n        /* \"#utility.yul\":976:981   */\n      0x00\n        /* \"#utility.yul\":1007:1013   */\n      dup2\n        /* \"#utility.yul\":1001:1014   */\n      mload\n        /* \"#utility.yul\":992:1014   */\n      swap1\n      pop\n        /* \"#utility.yul\":1023:1056   */\n      tag_541\n        /* \"#utility.yul\":1050:1055   */\n      dup2\n        /* \"#utility.yul\":1023:1056   */\n      tag_538\n      jump\t// in\n    tag_541:\n        /* \"#utility.yul\":919:1062   */\n      swap3\n      swap2\n      pop\n      pop\n      jump\t// out\n        /* \"#utility.yul\":1085:1470   */\n    tag_542:\n        /* \"#utility.yul\":1167:1172   */\n      0x00\n        /* \"#utility.yul\":1216:1219   */\n      dup3\n        /* \"#utility.yul\":1209:1213   */\n      0x1f\n        /* \"#utility.yul\":1201:1207   */\n      dup4\n        /* \"#utility.yul\":1197:1214   */\n      add\n        /* \"#utility.yul\":1193:1220   */\n      slt\n        /* \"#utility.yul\":1183:1305   */\n      tag_544\n      jumpi\n        /* \"#utility.yul\":1224:1303   */\n      tag_545\n      tag_546\n      jump\t// in\n    tag_545:\n        /* \"#utility.yul\":1183:1305   */\n    tag_544:\n        /* \"#utility.yul\":1334:1340   */\n      dup2\n        /* \"#utility.yul\":1328:1341   */\n      mload\n        /* \"#utility.yul\":1359:1464   */\n      tag_547\n        /* \"#utility.yul\":1460:1463   */\n      dup5\n        /* \"#utility.yul\":1452:1458   */\n      dup3\n        /* \"#utility.yul\":1445:1449   */\n      0x20\n        /* \"#utility.yul\":1437:1443   */\n      dup7\n        /* \"#utility.yul\":1433:1450   */\n      add\n        /* \"#utility.yul\":1359:1464   */\n      tag_521\n      jump\t// in\n    tag_547:\n        /* \"#utility.yul\":1350:1464   */\n      swap2\n      pop\n        /* \"#utility.yul\":1173:1470   */\n      pop\n        /* \"#utility.yul\":1085:1470   */\n      swap3\n      swap2\n      pop\n      pop\n      jump\t// out\n        /* \"#utility.yul\":1476:1613   */\n    tag_548:\n        /* \"#utility.yul\":1530:1535   */\n      0x00\n        /* \"#utility.yul\":1561:1567   */\n      dup2\n        /* \"#utility.yul\":1555:1568   */\n      mload\n        /* \"#utility.yul\":1546:1568   */\n      swap1\n      pop\n        /* \"#utility.yul\":1577:1607   */\n      tag_550\n        /* \"#utility.yul\":1601:1606   */\n      dup2\n        /* \"#utility.yul\":1577:1607   */\n      tag_551\n      jump\t// in\n    tag_550:\n        /* \"#utility.yul\":1476:1613   */\n      swap3\n      swap2\n      pop\n      pop\n      jump\t// out\n        /* \"#utility.yul\":1619:1762   */\n    tag_552:\n        /* \"#utility.yul\":1676:1681   */\n      0x00\n        /* \"#utility.yul\":1707:1713   */\n      dup2\n        /* \"#utility.yul\":1701:1714   */\n      mload\n        /* \"#utility.yul\":1692:1714   */\n      swap1\n      pop\n        /* \"#utility.yul\":1723:1756   */\n      tag_554\n        /* \"#utility.yul\":1750:1755   */\n      dup2\n        /* \"#utility.yul\":1723:1756   */\n      tag_555\n      jump\t// in\n    tag_554:\n        /* \"#utility.yul\":1619:1762   */\n      swap3\n      swap2\n      pop\n      pop\n      jump\t// out\n        /* \"#utility.yul\":1768:1907   */\n    tag_556:\n        /* \"#utility.yul\":1814:1819   */\n      0x00\n        /* \"#utility.yul\":1852:1858   */\n      dup2\n        /* \"#utility.yul\":1839:1859   */\n      calldataload\n        /* \"#utility.yul\":1830:1859   */\n      swap1\n      pop\n        /* \"#utility.yul\":1868:1901   */\n      tag_558\n        /* \"#utility.yul\":1895:1900   */\n      dup2\n        /* \"#utility.yul\":1868:1901   */\n      tag_559\n      jump\t// in\n    tag_558:\n        /* \"#utility.yul\":1768:1907   */\n      swap3\n      swap2\n      pop\n      pop\n      jump\t// out\n        /* \"#utility.yul\":1913:2056   */\n    tag_534:\n        /* \"#utility.yul\":1970:1975   */\n      0x00\n        /* \"#utility.yul\":2001:2007   */\n      dup2\n        /* \"#utility.yul\":1995:2008   */\n      mload\n        /* \"#utility.yul\":1986:2008   */\n      swap1\n      pop\n        /* \"#utility.yul\":2017:2050   */\n      tag_561\n        /* \"#utility.yul\":2044:2049   */\n      dup2\n        /* \"#utility.yul\":2017:2050   */\n      tag_559\n      jump\t// in\n    tag_561:\n        /* \"#utility.yul\":1913:2056   */\n      swap3\n      swap2\n      pop\n      pop\n      jump\t// out\n        /* \"#utility.yul\":2062:2203   */\n    tag_562:\n        /* \"#utility.yul\":2118:2123   */\n      0x00\n        /* \"#utility.yul\":2149:2155   */\n      dup2\n        /* \"#utility.yul\":2143:2156   */\n      mload\n        /* \"#utility.yul\":2134:2156   */\n      swap1\n      pop\n        /* \"#utility.yul\":2165:2197   */\n      tag_564\n        /* \"#utility.yul\":2191:2196   */\n      dup2\n        /* \"#utility.yul\":2165:2197   */\n      tag_565\n      jump\t// in\n    tag_564:\n        /* \"#utility.yul\":2062:2203   */\n      swap3\n      swap2\n      pop\n      pop\n      jump\t// out\n        /* \"#utility.yul\":2209:2560   */\n    tag_81:\n        /* \"#utility.yul\":2279:2285   */\n      0x00\n        /* \"#utility.yul\":2328:2330   */\n      0x20\n        /* \"#utility.yul\":2316:2325   */\n      dup3\n        /* \"#utility.yul\":2307:2314   */\n      dup5\n        /* \"#utility.yul\":2303:2326   */\n      sub\n        /* \"#utility.yul\":2299:2331   */\n      slt\n        /* \"#utility.yul\":2296:2415   */\n      iszero\n      tag_567\n      jumpi\n        /* \"#utility.yul\":2334:2413   */\n      tag_568\n      tag_569\n      jump\t// in\n    tag_568:\n        /* \"#utility.yul\":2296:2415   */\n    tag_567:\n        /* \"#utility.yul\":2454:2455   */\n      0x00\n        /* \"#utility.yul\":2479:2543   */\n      tag_570\n        /* \"#utility.yul\":2535:2542   */\n      dup5\n        /* \"#utility.yul\":2526:2532   */\n      dup3\n        /* \"#utility.yul\":2515:2524   */\n      dup6\n        /* \"#utility.yul\":2511:2533   */\n      add\n        /* \"#utility.yul\":2479:2543   */\n      tag_539\n      jump\t// in\n    tag_570:\n        /* \"#utility.yul\":2469:2543   */\n      swap2\n      pop\n        /* \"#utility.yul\":2425:2553   */\n      pop\n        /* \"#utility.yul\":2209:2560   */\n      swap3\n      swap2\n      pop\n      pop\n      jump\t// out\n        /* \"#utility.yul\":2566:3185   */\n    tag_28:\n        /* \"#utility.yul\":2643:2649   */\n      0x00\n        /* \"#utility.yul\":2651:2657   */\n      dup1\n        /* \"#utility.yul\":2659:2665   */\n      0x00\n        /* \"#utility.yul\":2708:2710   */\n      0x60\n        /* \"#utility.yul\":2696:2705   */\n      dup5\n        /* \"#utility.yul\":2687:2694   */\n      dup7\n        /* \"#utility.yul\":2683:2706   */\n      sub\n        /* \"#utility.yul\":2679:2711   */\n      slt\n        /* \"#utility.yul\":2676:2795   */\n      iszero\n      tag_572\n      jumpi\n        /* \"#utility.yul\":2714:2793   */\n      tag_573\n      tag_569\n      jump\t// in\n    tag_573:\n        /* \"#utility.yul\":2676:2795   */\n    tag_572:\n        /* \"#utility.yul\":2834:2835   */\n      0x00\n        /* \"#utility.yul\":2859:2912   */\n      tag_574\n        /* \"#utility.yul\":2904:2911   */\n      dup7\n        /* \"#utility.yul\":2895:2901   */\n      dup3\n        /* \"#utility.yul\":2884:2893   */\n      dup8\n        /* \"#utility.yul\":2880:2902   */\n      add\n        /* \"#utility.yul\":2859:2912   */\n      tag_535\n      jump\t// in\n    tag_574:\n        /* \"#utility.yul\":2849:2912   */\n      swap4\n      pop\n        /* \"#utility.yul\":2805:2922   */\n      pop\n        /* \"#utility.yul\":2961:2963   */\n      0x20\n        /* \"#utility.yul\":2987:3040   */\n      tag_575\n        /* \"#utility.yul\":3032:3039   */\n      dup7\n        /* \"#utility.yul\":3023:3029   */\n      dup3\n        /* \"#utility.yul\":3012:3021   */\n      dup8\n        /* \"#utility.yul\":3008:3030   */\n      add\n        /* \"#utility.yul\":2987:3040   */\n      tag_535\n      jump\t// in\n    tag_575:\n        /* \"#utility.yul\":2977:3040   */\n      swap3\n      pop\n        /* \"#utility.yul\":2932:3050   */\n      pop\n        /* \"#utility.yul\":3089:3091   */\n      0x40\n        /* \"#utility.yul\":3115:3168   */\n      tag_576\n        /* \"#utility.yul\":3160:3167   */\n      dup7\n        /* \"#utility.yul\":3151:3157   */\n      dup3\n        /* \"#utility.yul\":3140:3149   */\n      dup8\n        /* \"#utility.yul\":3136:3158   */\n      add\n        /* \"#utility.yul\":3115:3168   */\n      tag_556\n      jump\t// in\n    tag_576:\n        /* \"#utility.yul\":3105:3168   */\n      swap2\n      pop\n        /* \"#utility.yul\":3060:3178   */\n      pop\n        /* \"#utility.yul\":2566:3185   */\n      swap3\n      pop\n      swap3\n      pop\n      swap3\n      jump\t// out\n        /* \"#utility.yul\":3191:3665   */\n    tag_39:\n        /* \"#utility.yul\":3259:3265   */\n      0x00\n        /* \"#utility.yul\":3267:3273   */\n      dup1\n        /* \"#utility.yul\":3316:3318   */\n      0x40\n        /* \"#utility.yul\":3304:3313   */\n      dup4\n        /* \"#utility.yul\":3295:3302   */\n      dup6\n        /* \"#utility.yul\":3291:3314   */\n      sub\n        /* \"#utility.yul\":3287:3319   */\n      slt\n        /* \"#utility.yul\":3284:3403   */\n      iszero\n      tag_578\n      jumpi\n        /* \"#utility.yul\":3322:3401   */\n      tag_579\n      tag_569\n      jump\t// in\n    tag_579:\n        /* \"#utility.yul\":3284:3403   */\n    tag_578:\n        /* \"#utility.yul\":3442:3443   */\n      0x00\n        /* \"#utility.yul\":3467:3520   */\n      tag_580\n        /* \"#utility.yul\":3512:3519   */\n      dup6\n        /* \"#utility.yul\":3503:3509   */\n      dup3\n        /* \"#utility.yul\":3492:3501   */\n      dup7\n        /* \"#utility.yul\":3488:3510   */\n      add\n        /* \"#utility.yul\":3467:3520   */\n      tag_535\n      jump\t// in\n    tag_580:\n        /* \"#utility.yul\":3457:3520   */\n      swap3\n      pop\n        /* \"#utility.yul\":3413:3530   */\n      pop\n        /* \"#utility.yul\":3569:3571   */\n      0x20\n        /* \"#utility.yul\":3595:3648   */\n      tag_581\n        /* \"#utility.yul\":3640:3647   */\n      dup6\n        /* \"#utility.yul\":3631:3637   */\n      dup3\n        /* \"#utility.yul\":3620:3629   */\n      dup7\n        /* \"#utility.yul\":3616:3638   */\n      add\n        /* \"#utility.yul\":3595:3648   */\n      tag_556\n      jump\t// in\n    tag_581:\n        /* \"#utility.yul\":3585:3648   */\n      swap2\n      pop\n        /* \"#utility.yul\":3540:3658   */\n      pop\n        /* \"#utility.yul\":3191:3665   */\n      swap3\n      pop\n      swap3\n      swap1\n      pop\n      jump\t// out\n        /* \"#utility.yul\":3671:4436   */\n    tag_35:\n        /* \"#utility.yul\":3757:3763   */\n      0x00\n        /* \"#utility.yul\":3765:3771   */\n      dup1\n        /* \"#utility.yul\":3773:3779   */\n      0x00\n        /* \"#utility.yul\":3781:3787   */\n      dup1\n        /* \"#utility.yul\":3830:3833   */\n      0x80\n        /* \"#utility.yul\":3818:3827   */\n      dup6\n        /* \"#utility.yul\":3809:3816   */\n      dup8\n        /* \"#utility.yul\":3805:3828   */\n      sub\n        /* \"#utility.yul\":3801:3834   */\n      slt\n        /* \"#utility.yul\":3798:3918   */\n      iszero\n      tag_583\n      jumpi\n        /* \"#utility.yul\":3837:3916   */\n      tag_584\n      tag_569\n      jump\t// in\n    tag_584:\n        /* \"#utility.yul\":3798:3918   */\n    tag_583:\n        /* \"#utility.yul\":3957:3958   */\n      0x00\n        /* \"#utility.yul\":3982:4035   */\n      tag_585\n        /* \"#utility.yul\":4027:4034   */\n      dup8\n        /* \"#utility.yul\":4018:4024   */\n      dup3\n        /* \"#utility.yul\":4007:4016   */\n      dup9\n        /* \"#utility.yul\":4003:4025   */\n      add\n        /* \"#utility.yul\":3982:4035   */\n      tag_535\n      jump\t// in\n    tag_585:\n        /* \"#utility.yul\":3972:4035   */\n      swap5\n      pop\n        /* \"#utility.yul\":3928:4045   */\n      pop\n        /* \"#utility.yul\":4084:4086   */\n      0x20\n        /* \"#utility.yul\":4110:4163   */\n      tag_586\n        /* \"#utility.yul\":4155:4162   */\n      dup8\n        /* \"#utility.yul\":4146:4152   */\n      dup3\n        /* \"#utility.yul\":4135:4144   */\n      dup9\n        /* \"#utility.yul\":4131:4153   */\n      add\n        /* \"#utility.yul\":4110:4163   */\n      tag_556\n      jump\t// in\n    tag_586:\n        /* \"#utility.yul\":4100:4163   */\n      swap4\n      pop\n        /* \"#utility.yul\":4055:4173   */\n      pop\n        /* \"#utility.yul\":4212:4214   */\n      0x40\n        /* \"#utility.yul\":4238:4291   */\n      tag_587\n        /* \"#utility.yul\":4283:4290   */\n      dup8\n        /* \"#utility.yul\":4274:4280   */\n      dup3\n        /* \"#utility.yul\":4263:4272   */\n      dup9\n        /* \"#utility.yul\":4259:4281   */\n      add\n        /* \"#utility.yul\":4238:4291   */\n      tag_535\n      jump\t// in\n    tag_587:\n        /* \"#utility.yul\":4228:4291   */\n      swap3\n      pop\n        /* \"#utility.yul\":4183:4301   */\n      pop\n        /* \"#utility.yul\":4340:4342   */\n      0x60\n        /* \"#utility.yul\":4366:4419   */\n      tag_588\n        /* \"#utility.yul\":4411:4418   */\n      dup8\n        /* \"#utility.yul\":4402:4408   */\n      dup3\n        /* \"#utility.yul\":4391:4400   */\n      dup9\n        /* \"#utility.yul\":4387:4409   */\n      add\n        /* \"#utility.yul\":4366:4419   */\n      tag_556\n      jump\t// in\n    tag_588:\n        /* \"#utility.yul\":4356:4419   */\n      swap2\n      pop\n        /* \"#utility.yul\":4311:4429   */\n      pop\n        /* \"#utility.yul\":3671:4436   */\n      swap3\n      swap6\n      swap2\n      swap5\n      pop\n      swap3\n      pop\n      jump\t// out\n        /* \"#utility.yul\":4442:4996   */\n    tag_231:\n        /* \"#utility.yul\":4537:4543   */\n      0x00\n        /* \"#utility.yul\":4586:4588   */\n      0x20\n        /* \"#utility.yul\":4574:4583   */\n      dup3\n        /* \"#utility.yul\":4565:4572   */\n      dup5\n        /* \"#utility.yul\":4561:4584   */\n      sub\n        /* \"#utility.yul\":4557:4589   */\n      slt\n        /* \"#utility.yul\":4554:4673   */\n      iszero\n      tag_590\n      jumpi\n        /* \"#utility.yul\":4592:4671   */\n      tag_591\n      tag_569\n      jump\t// in\n    tag_591:\n        /* \"#utility.yul\":4554:4673   */\n    tag_590:\n        /* \"#utility.yul\":4733:4734   */\n      0x00\n        /* \"#utility.yul\":4722:4731   */\n      dup3\n        /* \"#utility.yul\":4718:4735   */\n      add\n        /* \"#utility.yul\":4712:4736   */\n      mload\n        /* \"#utility.yul\":4763:4781   */\n      0xffffffffffffffff\n        /* \"#utility.yul\":4755:4761   */\n      dup2\n        /* \"#utility.yul\":4752:4782   */\n      gt\n        /* \"#utility.yul\":4749:4866   */\n      iszero\n      tag_592\n      jumpi\n        /* \"#utility.yul\":4785:4864   */\n      tag_593\n      tag_594\n      jump\t// in\n    tag_593:\n        /* \"#utility.yul\":4749:4866   */\n    tag_592:\n        /* \"#utility.yul\":4890:4979   */\n      tag_595\n        /* \"#utility.yul\":4971:4978   */\n      dup5\n        /* \"#utility.yul\":4962:4968   */\n      dup3\n        /* \"#utility.yul\":4951:4960   */\n      dup6\n        /* \"#utility.yul\":4947:4969   */\n      add\n        /* \"#utility.yul\":4890:4979   */\n      tag_542\n      jump\t// in\n    tag_595:\n        /* \"#utility.yul\":4880:4979   */\n      swap2\n      pop\n        /* \"#utility.yul\":4683:4989   */\n      pop\n        /* \"#utility.yul\":4442:4996   */\n      swap3\n      swap2\n      pop\n      pop\n      jump\t// out\n        /* \"#utility.yul\":5002:5347   */\n    tag_474:\n        /* \"#utility.yul\":5069:5075   */\n      0x00\n        /* \"#utility.yul\":5118:5120   */\n      0x20\n        /* \"#utility.yul\":5106:5115   */\n      dup3\n        /* \"#utility.yul\":5097:5104   */\n      dup5\n        /* \"#utility.yul\":5093:5116   */\n      sub\n        /* \"#utility.yul\":5089:5121   */\n      slt\n        /* \"#utility.yul\":5086:5205   */\n      iszero\n      tag_597\n      jumpi\n        /* \"#utility.yul\":5124:5203   */\n      tag_598\n      tag_569\n      jump\t// in\n    tag_598:\n        /* \"#utility.yul\":5086:5205   */\n    tag_597:\n        /* \"#utility.yul\":5244:5245   */\n      0x00\n        /* \"#utility.yul\":5269:5330   */\n      tag_599\n        /* \"#utility.yul\":5322:5329   */\n      dup5\n        /* \"#utility.yul\":5313:5319   */\n      dup3\n        /* \"#utility.yul\":5302:5311   */\n      dup6\n        /* \"#utility.yul\":5298:5320   */\n      add\n        /* \"#utility.yul\":5269:5330   */\n      tag_548\n      jump\t// in\n    tag_599:\n        /* \"#utility.yul\":5259:5330   */\n      swap2\n      pop\n        /* \"#utility.yul\":5215:5340   */\n      pop\n        /* \"#utility.yul\":5002:5347   */\n      swap3\n      swap2\n      pop\n      pop\n      jump\t// out\n        /* \"#utility.yul\":5353:6014   */\n    tag_94:\n        /* \"#utility.yul\":5440:5446   */\n      0x00\n        /* \"#utility.yul\":5448:5454   */\n      dup1\n        /* \"#utility.yul\":5456:5462   */\n      0x00\n        /* \"#utility.yul\":5505:5507   */\n      0x60\n        /* \"#utility.yul\":5493:5502   */\n      dup5\n        /* \"#utility.yul\":5484:5491   */\n      dup7\n        /* \"#utility.yul\":5480:5503   */\n      sub\n        /* \"#utility.yul\":5476:5508   */\n      slt\n        /* \"#utility.yul\":5473:5592   */\n      iszero\n      tag_601\n      jumpi\n        /* \"#utility.yul\":5511:5590   */\n      tag_602\n      tag_569\n      jump\t// in\n    tag_602:\n        /* \"#utility.yul\":5473:5592   */\n    tag_601:\n        /* \"#utility.yul\":5631:5632   */\n      0x00\n        /* \"#utility.yul\":5656:5720   */\n      tag_603\n        /* \"#utility.yul\":5712:5719   */\n      dup7\n        /* \"#utility.yul\":5703:5709   */\n      dup3\n        /* \"#utility.yul\":5692:5701   */\n      dup8\n        /* \"#utility.yul\":5688:5710   */\n      add\n        /* \"#utility.yul\":5656:5720   */\n      tag_552\n      jump\t// in\n    tag_603:\n        /* \"#utility.yul\":5646:5720   */\n      swap4\n      pop\n        /* \"#utility.yul\":5602:5730   */\n      pop\n        /* \"#utility.yul\":5769:5771   */\n      0x20\n        /* \"#utility.yul\":5795:5859   */\n      tag_604\n        /* \"#utility.yul\":5851:5858   */\n      dup7\n        /* \"#utility.yul\":5842:5848   */\n      dup3\n        /* \"#utility.yul\":5831:5840   */\n      dup8\n        /* \"#utility.yul\":5827:5849   */\n      add\n        /* \"#utility.yul\":5795:5859   */\n      tag_552\n      jump\t// in\n    tag_604:\n        /* \"#utility.yul\":5785:5859   */\n      swap3\n      pop\n        /* \"#utility.yul\":5740:5869   */\n      pop\n        /* \"#utility.yul\":5908:5910   */\n      0x40\n        /* \"#utility.yul\":5934:5997   */\n      tag_605\n        /* \"#utility.yul\":5989:5996   */\n      dup7\n        /* \"#utility.yul\":5980:5986   */\n      dup3\n        /* \"#utility.yul\":5969:5978   */\n      dup8\n        /* \"#utility.yul\":5965:5987   */\n      add\n        /* \"#utility.yul\":5934:5997   */\n      tag_562\n      jump\t// in\n    tag_605:\n        /* \"#utility.yul\":5924:5997   */\n      swap2\n      pop\n        /* \"#utility.yul\":5879:6007   */\n      pop\n        /* \"#utility.yul\":5353:6014   */\n      swap3\n      pop\n      swap3\n      pop\n      swap3\n      jump\t// out\n        /* \"#utility.yul\":6020:6371   */\n    tag_105:\n        /* \"#utility.yul\":6090:6096   */\n      0x00\n        /* \"#utility.yul\":6139:6141   */\n      0x20\n        /* \"#utility.yul\":6127:6136   */\n      dup3\n        /* \"#utility.yul\":6118:6125   */\n      dup5\n        /* \"#utility.yul\":6114:6137   */\n      sub\n        /* \"#utility.yul\":6110:6142   */\n      slt\n        /* \"#utility.yul\":6107:6226   */\n      iszero\n      tag_607\n      jumpi\n        /* \"#utility.yul\":6145:6224   */\n      tag_608\n      tag_569\n      jump\t// in\n    tag_608:\n        /* \"#utility.yul\":6107:6226   */\n    tag_607:\n        /* \"#utility.yul\":6265:6266   */\n      0x00\n        /* \"#utility.yul\":6290:6354   */\n      tag_609\n        /* \"#utility.yul\":6346:6353   */\n      dup5\n        /* \"#utility.yul\":6337:6343   */\n      dup3\n        /* \"#utility.yul\":6326:6335   */\n      dup6\n        /* \"#utility.yul\":6322:6344   */\n      add\n        /* \"#utility.yul\":6290:6354   */\n      tag_534\n      jump\t// in\n    tag_609:\n        /* \"#utility.yul\":6280:6354   */\n      swap2\n      pop\n        /* \"#utility.yul\":6236:6364   */\n      pop\n        /* \"#utility.yul\":6020:6371   */\n      swap3\n      swap2\n      pop\n      pop\n      jump\t// out\n        /* \"#utility.yul\":6377:6884   */\n    tag_383:\n        /* \"#utility.yul\":6456:6462   */\n      0x00\n        /* \"#utility.yul\":6464:6470   */\n      dup1\n        /* \"#utility.yul\":6513:6515   */\n      0x40\n        /* \"#utility.yul\":6501:6510   */\n      dup4\n        /* \"#utility.yul\":6492:6499   */\n      dup6\n        /* \"#utility.yul\":6488:6511   */\n      sub\n        /* \"#utility.yul\":6484:6516   */\n      slt\n        /* \"#utility.yul\":6481:6600   */\n      iszero\n      tag_611\n      jumpi\n        /* \"#utility.yul\":6519:6598   */\n      tag_612\n      tag_569\n      jump\t// in\n    tag_612:\n        /* \"#utility.yul\":6481:6600   */\n    tag_611:\n        /* \"#utility.yul\":6639:6640   */\n      0x00\n        /* \"#utility.yul\":6664:6728   */\n      tag_613\n        /* \"#utility.yul\":6720:6727   */\n      dup6\n        /* \"#utility.yul\":6711:6717   */\n      dup3\n        /* \"#utility.yul\":6700:6709   */\n      dup7\n        /* \"#utility.yul\":6696:6718   */\n      add\n        /* \"#utility.yul\":6664:6728   */\n      tag_534\n      jump\t// in\n    tag_613:\n        /* \"#utility.yul\":6654:6728   */\n      swap3\n      pop\n        /* \"#utility.yul\":6610:6738   */\n      pop\n        /* \"#utility.yul\":6777:6779   */\n      0x20\n        /* \"#utility.yul\":6803:6867   */\n      tag_614\n        /* \"#utility.yul\":6859:6866   */\n      dup6\n        /* \"#utility.yul\":6850:6856   */\n      dup3\n        /* \"#utility.yul\":6839:6848   */\n      dup7\n        /* \"#utility.yul\":6835:6857   */\n      add\n        /* \"#utility.yul\":6803:6867   */\n      tag_534\n      jump\t// in\n    tag_614:\n        /* \"#utility.yul\":6793:6867   */\n      swap2\n      pop\n        /* \"#utility.yul\":6748:6877   */\n      pop\n        /* \"#utility.yul\":6377:6884   */\n      swap3\n      pop\n      swap3\n      swap1\n      pop\n      jump\t// out\n        /* \"#utility.yul\":6890:7553   */\n    tag_351:\n        /* \"#utility.yul\":6978:6984   */\n      0x00\n        /* \"#utility.yul\":6986:6992   */\n      dup1\n        /* \"#utility.yul\":6994:7000   */\n      0x00\n        /* \"#utility.yul\":7043:7045   */\n      0x60\n        /* \"#utility.yul\":7031:7040   */\n      dup5\n        /* \"#utility.yul\":7022:7029   */\n      dup7\n        /* \"#utility.yul\":7018:7041   */\n      sub\n        /* \"#utility.yul\":7014:7046   */\n      slt\n        /* \"#utility.yul\":7011:7130   */\n      iszero\n      tag_616\n      jumpi\n        /* \"#utility.yul\":7049:7128   */\n      tag_617\n      tag_569\n      jump\t// in\n    tag_617:\n        /* \"#utility.yul\":7011:7130   */\n    tag_616:\n        /* \"#utility.yul\":7169:7170   */\n      0x00\n        /* \"#utility.yul\":7194:7258   */\n      tag_618\n        /* \"#utility.yul\":7250:7257   */\n      dup7\n        /* \"#utility.yul\":7241:7247   */\n      dup3\n        /* \"#utility.yul\":7230:7239   */\n      dup8\n        /* \"#utility.yul\":7226:7248   */\n      add\n        /* \"#utility.yul\":7194:7258   */\n      tag_534\n      jump\t// in\n    tag_618:\n        /* \"#utility.yul\":7184:7258   */\n      swap4\n      pop\n        /* \"#utility.yul\":7140:7268   */\n      pop\n        /* \"#utility.yul\":7307:7309   */\n      0x20\n        /* \"#utility.yul\":7333:7397   */\n      tag_619\n        /* \"#utility.yul\":7389:7396   */\n      dup7\n        /* \"#utility.yul\":7380:7386   */\n      dup3\n        /* \"#utility.yul\":7369:7378   */\n      dup8\n        /* \"#utility.yul\":7365:7387   */\n      add\n        /* \"#utility.yul\":7333:7397   */\n      tag_534\n      jump\t// in\n    tag_619:\n        /* \"#utility.yul\":7323:7397   */\n      swap3\n      pop\n        /* \"#utility.yul\":7278:7407   */\n      pop\n        /* \"#utility.yul\":7446:7448   */\n      0x40\n        /* \"#utility.yul\":7472:7536   */\n      tag_620\n        /* \"#utility.yul\":7528:7535   */\n      dup7\n        /* \"#utility.yul\":7519:7525   */\n      dup3\n        /* \"#utility.yul\":7508:7517   */\n      dup8\n        /* \"#utility.yul\":7504:7526   */\n      add\n        /* \"#utility.yul\":7472:7536   */\n      tag_534\n      jump\t// in\n    tag_620:\n        /* \"#utility.yul\":7462:7536   */\n      swap2\n      pop\n        /* \"#utility.yul\":7417:7546   */\n      pop\n        /* \"#utility.yul\":6890:7553   */\n      swap3\n      pop\n      swap3\n      pop\n      swap3\n      jump\t// out\n        /* \"#utility.yul\":7559:7738   */\n    tag_621:\n        /* \"#utility.yul\":7628:7638   */\n      0x00\n        /* \"#utility.yul\":7649:7695   */\n      tag_623\n        /* \"#utility.yul\":7691:7694   */\n      dup4\n        /* \"#utility.yul\":7683:7689   */\n      dup4\n        /* \"#utility.yul\":7649:7695   */\n      tag_624\n      jump\t// in\n    tag_623:\n        /* \"#utility.yul\":7727:7731   */\n      0x20\n        /* \"#utility.yul\":7722:7725   */\n      dup4\n        /* \"#utility.yul\":7718:7732   */\n      add\n        /* \"#utility.yul\":7704:7732   */\n      swap1\n      pop\n        /* \"#utility.yul\":7559:7738   */\n      swap3\n      swap2\n      pop\n      pop\n      jump\t// out\n        /* \"#utility.yul\":7744:7852   */\n    tag_624:\n        /* \"#utility.yul\":7821:7845   */\n      tag_626\n        /* \"#utility.yul\":7839:7844   */\n      dup2\n        /* \"#utility.yul\":7821:7845   */\n      tag_627\n      jump\t// in\n    tag_626:\n        /* \"#utility.yul\":7816:7819   */\n      dup3\n        /* \"#utility.yul\":7809:7846   */\n      mstore\n        /* \"#utility.yul\":7744:7852   */\n      pop\n      pop\n      jump\t// out\n        /* \"#utility.yul\":7858:7976   */\n    tag_628:\n        /* \"#utility.yul\":7945:7969   */\n      tag_630\n        /* \"#utility.yul\":7963:7968   */\n      dup2\n        /* \"#utility.yul\":7945:7969   */\n      tag_627\n      jump\t// in\n    tag_630:\n        /* \"#utility.yul\":7940:7943   */\n      dup3\n        /* \"#utility.yul\":7933:7970   */\n      mstore\n        /* \"#utility.yul\":7858:7976   */\n      pop\n      pop\n      jump\t// out\n        /* \"#utility.yul\":8012:8744   */\n    tag_631:\n        /* \"#utility.yul\":8131:8134   */\n      0x00\n        /* \"#utility.yul\":8160:8214   */\n      tag_633\n        /* \"#utility.yul\":8208:8213   */\n      dup3\n        /* \"#utility.yul\":8160:8214   */\n      tag_634\n      jump\t// in\n    tag_633:\n        /* \"#utility.yul\":8230:8316   */\n      tag_635\n        /* \"#utility.yul\":8309:8315   */\n      dup2\n        /* \"#utility.yul\":8304:8307   */\n      dup6\n        /* \"#utility.yul\":8230:8316   */\n      tag_636\n      jump\t// in\n    tag_635:\n        /* \"#utility.yul\":8223:8316   */\n      swap4\n      pop\n        /* \"#utility.yul\":8340:8396   */\n      tag_637\n        /* \"#utility.yul\":8390:8395   */\n      dup4\n        /* \"#utility.yul\":8340:8396   */\n      tag_638\n      jump\t// in\n    tag_637:\n        /* \"#utility.yul\":8419:8426   */\n      dup1\n        /* \"#utility.yul\":8450:8451   */\n      0x00\n        /* \"#utility.yul\":8435:8719   */\n    tag_639:\n        /* \"#utility.yul\":8460:8466   */\n      dup4\n        /* \"#utility.yul\":8457:8458   */\n      dup2\n        /* \"#utility.yul\":8454:8467   */\n      lt\n        /* \"#utility.yul\":8435:8719   */\n      iszero\n      tag_641\n      jumpi\n        /* \"#utility.yul\":8536:8542   */\n      dup2\n        /* \"#utility.yul\":8530:8543   */\n      mload\n        /* \"#utility.yul\":8563:8626   */\n      tag_642\n        /* \"#utility.yul\":8622:8625   */\n      dup9\n        /* \"#utility.yul\":8607:8620   */\n      dup3\n        /* \"#utility.yul\":8563:8626   */\n      tag_621\n      jump\t// in\n    tag_642:\n        /* \"#utility.yul\":8556:8626   */\n      swap8\n      pop\n        /* \"#utility.yul\":8649:8709   */\n      tag_643\n        /* \"#utility.yul\":8702:8708   */\n      dup4\n        /* \"#utility.yul\":8649:8709   */\n      tag_644\n      jump\t// in\n    tag_643:\n        /* \"#utility.yul\":8639:8709   */\n      swap3\n      pop\n        /* \"#utility.yul\":8495:8719   */\n      pop\n        /* \"#utility.yul\":8482:8483   */\n      0x01\n        /* \"#utility.yul\":8479:8480   */\n      dup2\n        /* \"#utility.yul\":8475:8484   */\n      add\n        /* \"#utility.yul\":8470:8484   */\n      swap1\n      pop\n        /* \"#utility.yul\":8435:8719   */\n      jump(tag_639)\n    tag_641:\n        /* \"#utility.yul\":8439:8453   */\n      pop\n        /* \"#utility.yul\":8735:8738   */\n      dup6\n        /* \"#utility.yul\":8728:8738   */\n      swap4\n      pop\n        /* \"#utility.yul\":8136:8744   */\n      pop\n      pop\n      pop\n        /* \"#utility.yul\":8012:8744   */\n      swap3\n      swap2\n      pop\n      pop\n      jump\t// out\n        /* \"#utility.yul\":8750:8859   */\n    tag_645:\n        /* \"#utility.yul\":8831:8852   */\n      tag_647\n        /* \"#utility.yul\":8846:8851   */\n      dup2\n        /* \"#utility.yul\":8831:8852   */\n      tag_648\n      jump\t// in\n    tag_647:\n        /* \"#utility.yul\":8826:8829   */\n      dup3\n        /* \"#utility.yul\":8819:8853   */\n      mstore\n        /* \"#utility.yul\":8750:8859   */\n      pop\n      pop\n      jump\t// out\n        /* \"#utility.yul\":8865:9238   */\n    tag_649:\n        /* \"#utility.yul\":8969:8972   */\n      0x00\n        /* \"#utility.yul\":8997:9035   */\n      tag_651\n        /* \"#utility.yul\":9029:9034   */\n      dup3\n        /* \"#utility.yul\":8997:9035   */\n      tag_652\n      jump\t// in\n    tag_651:\n        /* \"#utility.yul\":9051:9139   */\n      tag_653\n        /* \"#utility.yul\":9132:9138   */\n      dup2\n        /* \"#utility.yul\":9127:9130   */\n      dup6\n        /* \"#utility.yul\":9051:9139   */\n      tag_654\n      jump\t// in\n    tag_653:\n        /* \"#utility.yul\":9044:9139   */\n      swap4\n      pop\n        /* \"#utility.yul\":9148:9200   */\n      tag_655\n        /* \"#utility.yul\":9193:9199   */\n      dup2\n        /* \"#utility.yul\":9188:9191   */\n      dup6\n        /* \"#utility.yul\":9181:9185   */\n      0x20\n        /* \"#utility.yul\":9174:9179   */\n      dup7\n        /* \"#utility.yul\":9170:9186   */\n      add\n        /* \"#utility.yul\":9148:9200   */\n      tag_656\n      jump\t// in\n    tag_655:\n        /* \"#utility.yul\":9225:9231   */\n      dup1\n        /* \"#utility.yul\":9220:9223   */\n      dup5\n        /* \"#utility.yul\":9216:9232   */\n      add\n        /* \"#utility.yul\":9209:9232   */\n      swap2\n      pop\n        /* \"#utility.yul\":8973:9238   */\n      pop\n        /* \"#utility.yul\":8865:9238   */\n      swap3\n      swap2\n      pop\n      pop\n      jump\t// out\n        /* \"#utility.yul\":9244:9413   */\n    tag_657:\n        /* \"#utility.yul\":9350:9406   */\n      tag_659\n        /* \"#utility.yul\":9400:9405   */\n      dup2\n        /* \"#utility.yul\":9350:9406   */\n      tag_660\n      jump\t// in\n    tag_659:\n        /* \"#utility.yul\":9345:9348   */\n      dup3\n        /* \"#utility.yul\":9338:9407   */\n      mstore\n        /* \"#utility.yul\":9244:9413   */\n      pop\n      pop\n      jump\t// out\n        /* \"#utility.yul\":9419:9604   */\n    tag_661:\n        /* \"#utility.yul\":9533:9597   */\n      tag_663\n        /* \"#utility.yul\":9591:9596   */\n      dup2\n        /* \"#utility.yul\":9533:9597   */\n      tag_664\n      jump\t// in\n    tag_663:\n        /* \"#utility.yul\":9528:9531   */\n      dup3\n        /* \"#utility.yul\":9521:9598   */\n      mstore\n        /* \"#utility.yul\":9419:9604   */\n      pop\n      pop\n      jump\t// out\n        /* \"#utility.yul\":9610:9757   */\n    tag_665:\n        /* \"#utility.yul\":9705:9750   */\n      tag_667\n        /* \"#utility.yul\":9744:9749   */\n      dup2\n        /* \"#utility.yul\":9705:9750   */\n      tag_668\n      jump\t// in\n    tag_667:\n        /* \"#utility.yul\":9700:9703   */\n      dup3\n        /* \"#utility.yul\":9693:9751   */\n      mstore\n        /* \"#utility.yul\":9610:9757   */\n      pop\n      pop\n      jump\t// out\n        /* \"#utility.yul\":9763:10127   */\n    tag_669:\n        /* \"#utility.yul\":9851:9854   */\n      0x00\n        /* \"#utility.yul\":9879:9918   */\n      tag_671\n        /* \"#utility.yul\":9912:9917   */\n      dup3\n        /* \"#utility.yul\":9879:9918   */\n      tag_672\n      jump\t// in\n    tag_671:\n        /* \"#utility.yul\":9934:10005   */\n      tag_673\n        /* \"#utility.yul\":9998:10004   */\n      dup2\n        /* \"#utility.yul\":9993:9996   */\n      dup6\n        /* \"#utility.yul\":9934:10005   */\n      tag_674\n      jump\t// in\n    tag_673:\n        /* \"#utility.yul\":9927:10005   */\n      swap4\n      pop\n        /* \"#utility.yul\":10014:10066   */\n      tag_675\n        /* \"#utility.yul\":10059:10065   */\n      dup2\n        /* \"#utility.yul\":10054:10057   */\n      dup6\n        /* \"#utility.yul\":10047:10051   */\n      0x20\n        /* \"#utility.yul\":10040:10045   */\n      dup7\n        /* \"#utility.yul\":10036:10052   */\n      add\n        /* \"#utility.yul\":10014:10066   */\n      tag_656\n      jump\t// in\n    tag_675:\n        /* \"#utility.yul\":10091:10120   */\n      tag_676\n        /* \"#utility.yul\":10113:10119   */\n      dup2\n        /* \"#utility.yul\":10091:10120   */\n      tag_677\n      jump\t// in\n    tag_676:\n        /* \"#utility.yul\":10086:10089   */\n      dup5\n        /* \"#utility.yul\":10082:10121   */\n      add\n        /* \"#utility.yul\":10075:10121   */\n      swap2\n      pop\n        /* \"#utility.yul\":9855:10127   */\n      pop\n        /* \"#utility.yul\":9763:10127   */\n      swap3\n      swap2\n      pop\n      pop\n      jump\t// out\n        /* \"#utility.yul\":10133:10499   */\n    tag_678:\n        /* \"#utility.yul\":10275:10278   */\n      0x00\n        /* \"#utility.yul\":10296:10363   */\n      tag_680\n        /* \"#utility.yul\":10360:10362   */\n      0x29\n        /* \"#utility.yul\":10355:10358   */\n      dup4\n        /* \"#utility.yul\":10296:10363   */\n      tag_674\n      jump\t// in\n    tag_680:\n        /* \"#utility.yul\":10289:10363   */\n      swap2\n      pop\n        /* \"#utility.yul\":10372:10465   */\n      tag_681\n        /* \"#utility.yul\":10461:10464   */\n      dup3\n        /* \"#utility.yul\":10372:10465   */\n      tag_682\n      jump\t// in\n    tag_681:\n        /* \"#utility.yul\":10490:10492   */\n      0x40\n        /* \"#utility.yul\":10485:10488   */\n      dup3\n        /* \"#utility.yul\":10481:10493   */\n      add\n        /* \"#utility.yul\":10474:10493   */\n      swap1\n      pop\n        /* \"#utility.yul\":10133:10499   */\n      swap2\n      swap1\n      pop\n      jump\t// out\n        /* \"#utility.yul\":10505:10871   */\n    tag_683:\n        /* \"#utility.yul\":10647:10650   */\n      0x00\n        /* \"#utility.yul\":10668:10735   */\n      tag_685\n        /* \"#utility.yul\":10732:10734   */\n      0x20\n        /* \"#utility.yul\":10727:10730   */\n      dup4\n        /* \"#utility.yul\":10668:10735   */\n      tag_674\n      jump\t// in\n    tag_685:\n        /* \"#utility.yul\":10661:10735   */\n      swap2\n      pop\n        /* \"#utility.yul\":10744:10837   */\n      tag_686\n        /* \"#utility.yul\":10833:10836   */\n      dup3\n        /* \"#utility.yul\":10744:10837   */\n      tag_687\n      jump\t// in\n    tag_686:\n        /* \"#utility.yul\":10862:10864   */\n      0x20\n        /* \"#utility.yul\":10857:10860   */\n      dup3\n        /* \"#utility.yul\":10853:10865   */\n      add\n        /* \"#utility.yul\":10846:10865   */\n      swap1\n      pop\n        /* \"#utility.yul\":10505:10871   */\n      swap2\n      swap1\n      pop\n      jump\t// out\n        /* \"#utility.yul\":10877:11243   */\n    tag_688:\n        /* \"#utility.yul\":11019:11022   */\n      0x00\n        /* \"#utility.yul\":11040:11107   */\n      tag_690\n        /* \"#utility.yul\":11104:11106   */\n      0x1a\n        /* \"#utility.yul\":11099:11102   */\n      dup4\n        /* \"#utility.yul\":11040:11107   */\n      tag_674\n      jump\t// in\n    tag_690:\n        /* \"#utility.yul\":11033:11107   */\n      swap2\n      pop\n        /* \"#utility.yul\":11116:11209   */\n      tag_691\n        /* \"#utility.yul\":11205:11208   */\n      dup3\n        /* \"#utility.yul\":11116:11209   */\n      tag_692\n      jump\t// in\n    tag_691:\n        /* \"#utility.yul\":11234:11236   */\n      0x20\n        /* \"#utility.yul\":11229:11232   */\n      dup3\n        /* \"#utility.yul\":11225:11237   */\n      add\n        /* \"#utility.yul\":11218:11237   */\n      swap1\n      pop\n        /* \"#utility.yul\":10877:11243   */\n      swap2\n      swap1\n      pop\n      jump\t// out\n        /* \"#utility.yul\":11249:11615   */\n    tag_693:\n        /* \"#utility.yul\":11391:11394   */\n      0x00\n        /* \"#utility.yul\":11412:11479   */\n      tag_695\n        /* \"#utility.yul\":11476:11478   */\n      0x2e\n        /* \"#utility.yul\":11471:11474   */\n      dup4\n        /* \"#utility.yul\":11412:11479   */\n      tag_674\n      jump\t// in\n    tag_695:\n        /* \"#utility.yul\":11405:11479   */\n      swap2\n      pop\n        /* \"#utility.yul\":11488:11581   */\n      tag_696\n        /* \"#utility.yul\":11577:11580   */\n      dup3\n        /* \"#utility.yul\":11488:11581   */\n      tag_697\n      jump\t// in\n    tag_696:\n        /* \"#utility.yul\":11606:11608   */\n      0x40\n        /* \"#utility.yul\":11601:11604   */\n      dup3\n        /* \"#utility.yul\":11597:11609   */\n      add\n        /* \"#utility.yul\":11590:11609   */\n      swap1\n      pop\n        /* \"#utility.yul\":11249:11615   */\n      swap2\n      swap1\n      pop\n      jump\t// out\n        /* \"#utility.yul\":11621:11987   */\n    tag_698:\n        /* \"#utility.yul\":11763:11766   */\n      0x00\n        /* \"#utility.yul\":11784:11851   */\n      tag_700\n        /* \"#utility.yul\":11848:11850   */\n      0x26\n        /* \"#utility.yul\":11843:11846   */\n      dup4\n        /* \"#utility.yul\":11784:11851   */\n      tag_674\n      jump\t// in\n    tag_700:\n        /* \"#utility.yul\":11777:11851   */\n      swap2\n      pop\n        /* \"#utility.yul\":11860:11953   */\n      tag_701\n        /* \"#utility.yul\":11949:11952   */\n      dup3\n        /* \"#utility.yul\":11860:11953   */\n      tag_702\n      jump\t// in\n    tag_701:\n        /* \"#utility.yul\":11978:11980   */\n      0x40\n        /* \"#utility.yul\":11973:11976   */\n      dup3\n        /* \"#utility.yul\":11969:11981   */\n      add\n        /* \"#utility.yul\":11962:11981   */\n      swap1\n      pop\n        /* \"#utility.yul\":11621:11987   */\n      swap2\n      swap1\n      pop\n      jump\t// out\n        /* \"#utility.yul\":11993:12359   */\n    tag_703:\n        /* \"#utility.yul\":12135:12138   */\n      0x00\n        /* \"#utility.yul\":12156:12223   */\n      tag_705\n        /* \"#utility.yul\":12220:12222   */\n      0x26\n        /* \"#utility.yul\":12215:12218   */\n      dup4\n        /* \"#utility.yul\":12156:12223   */\n      tag_674\n      jump\t// in\n    tag_705:\n        /* \"#utility.yul\":12149:12223   */\n      swap2\n      pop\n        /* \"#utility.yul\":12232:12325   */\n      tag_706\n        /* \"#utility.yul\":12321:12324   */\n      dup3\n        /* \"#utility.yul\":12232:12325   */\n      tag_707\n      jump\t// in\n    tag_706:\n        /* \"#utility.yul\":12350:12352   */\n      0x40\n        /* \"#utility.yul\":12345:12348   */\n      dup3\n        /* \"#utility.yul\":12341:12353   */\n      add\n        /* \"#utility.yul\":12334:12353   */\n      swap1\n      pop\n        /* \"#utility.yul\":11993:12359   */\n      swap2\n      swap1\n      pop\n      jump\t// out\n        /* \"#utility.yul\":12365:12731   */\n    tag_708:\n        /* \"#utility.yul\":12507:12510   */\n      0x00\n        /* \"#utility.yul\":12528:12595   */\n      tag_710\n        /* \"#utility.yul\":12592:12594   */\n      0x21\n        /* \"#utility.yul\":12587:12590   */\n      dup4\n        /* \"#utility.yul\":12528:12595   */\n      tag_674\n      jump\t// in\n    tag_710:\n        /* \"#utility.yul\":12521:12595   */\n      swap2\n      pop\n        /* \"#utility.yul\":12604:12697   */\n      tag_711\n        /* \"#utility.yul\":12693:12696   */\n      dup3\n        /* \"#utility.yul\":12604:12697   */\n      tag_712\n      jump\t// in\n    tag_711:\n        /* \"#utility.yul\":12722:12724   */\n      0x40\n        /* \"#utility.yul\":12717:12720   */\n      dup3\n        /* \"#utility.yul\":12713:12725   */\n      add\n        /* \"#utility.yul\":12706:12725   */\n      swap1\n      pop\n        /* \"#utility.yul\":12365:12731   */\n      swap2\n      swap1\n      pop\n      jump\t// out\n        /* \"#utility.yul\":12737:13103   */\n    tag_713:\n        /* \"#utility.yul\":12879:12882   */\n      0x00\n        /* \"#utility.yul\":12900:12967   */\n      tag_715\n        /* \"#utility.yul\":12964:12966   */\n      0x25\n        /* \"#utility.yul\":12959:12962   */\n      dup4\n        /* \"#utility.yul\":12900:12967   */\n      tag_674\n      jump\t// in\n    tag_715:\n        /* \"#utility.yul\":12893:12967   */\n      swap2\n      pop\n        /* \"#utility.yul\":12976:13069   */\n      tag_716\n        /* \"#utility.yul\":13065:13068   */\n      dup3\n        /* \"#utility.yul\":12976:13069   */\n      tag_717\n      jump\t// in\n    tag_716:\n        /* \"#utility.yul\":13094:13096   */\n      0x40\n        /* \"#utility.yul\":13089:13092   */\n      dup3\n        /* \"#utility.yul\":13085:13097   */\n      add\n        /* \"#utility.yul\":13078:13097   */\n      swap1\n      pop\n        /* \"#utility.yul\":12737:13103   */\n      swap2\n      swap1\n      pop\n      jump\t// out\n        /* \"#utility.yul\":13109:13475   */\n    tag_718:\n        /* \"#utility.yul\":13251:13254   */\n      0x00\n        /* \"#utility.yul\":13272:13339   */\n      tag_720\n        /* \"#utility.yul\":13336:13338   */\n      0x2d\n        /* \"#utility.yul\":13331:13334   */\n      dup4\n        /* \"#utility.yul\":13272:13339   */\n      tag_674\n      jump\t// in\n    tag_720:\n        /* \"#utility.yul\":13265:13339   */\n      swap2\n      pop\n        /* \"#utility.yul\":13348:13441   */\n      tag_721\n        /* \"#utility.yul\":13437:13440   */\n      dup3\n        /* \"#utility.yul\":13348:13441   */\n      tag_722\n      jump\t// in\n    tag_721:\n        /* \"#utility.yul\":13466:13468   */\n      0x40\n        /* \"#utility.yul\":13461:13464   */\n      dup3\n        /* \"#utility.yul\":13457:13469   */\n      add\n        /* \"#utility.yul\":13450:13469   */\n      swap1\n      pop\n        /* \"#utility.yul\":13109:13475   */\n      swap2\n      swap1\n      pop\n      jump\t// out\n        /* \"#utility.yul\":13481:13847   */\n    tag_723:\n        /* \"#utility.yul\":13623:13626   */\n      0x00\n        /* \"#utility.yul\":13644:13711   */\n      tag_725\n        /* \"#utility.yul\":13708:13710   */\n      0x1d\n        /* \"#utility.yul\":13703:13706   */\n      dup4\n        /* \"#utility.yul\":13644:13711   */\n      tag_674\n      jump\t// in\n    tag_725:\n        /* \"#utility.yul\":13637:13711   */\n      swap2\n      pop\n        /* \"#utility.yul\":13720:13813   */\n      tag_726\n        /* \"#utility.yul\":13809:13812   */\n      dup3\n        /* \"#utility.yul\":13720:13813   */\n      tag_727\n      jump\t// in\n    tag_726:\n        /* \"#utility.yul\":13838:13840   */\n      0x20\n        /* \"#utility.yul\":13833:13836   */\n      dup3\n        /* \"#utility.yul\":13829:13841   */\n      add\n        /* \"#utility.yul\":13822:13841   */\n      swap1\n      pop\n        /* \"#utility.yul\":13481:13847   */\n      swap2\n      swap1\n      pop\n      jump\t// out\n        /* \"#utility.yul\":13853:14219   */\n    tag_728:\n        /* \"#utility.yul\":13995:13998   */\n      0x00\n        /* \"#utility.yul\":14016:14083   */\n      tag_730\n        /* \"#utility.yul\":14080:14082   */\n      0x26\n        /* \"#utility.yul\":14075:14078   */\n      dup4\n        /* \"#utility.yul\":14016:14083   */\n      tag_674\n      jump\t// in\n    tag_730:\n        /* \"#utility.yul\":14009:14083   */\n      swap2\n      pop\n        /* \"#utility.yul\":14092:14185   */\n      tag_731\n        /* \"#utility.yul\":14181:14184   */\n      dup3\n        /* \"#utility.yul\":14092:14185   */\n      tag_732\n      jump\t// in\n    tag_731:\n        /* \"#utility.yul\":14210:14212   */\n      0x40\n        /* \"#utility.yul\":14205:14208   */\n      dup3\n        /* \"#utility.yul\":14201:14213   */\n      add\n        /* \"#utility.yul\":14194:14213   */\n      swap1\n      pop\n        /* \"#utility.yul\":13853:14219   */\n      swap2\n      swap1\n      pop\n      jump\t// out\n        /* \"#utility.yul\":14225:14591   */\n    tag_733:\n        /* \"#utility.yul\":14367:14370   */\n      0x00\n        /* \"#utility.yul\":14388:14455   */\n      tag_735\n        /* \"#utility.yul\":14452:14454   */\n      0x2a\n        /* \"#utility.yul\":14447:14450   */\n      dup4\n        /* \"#utility.yul\":14388:14455   */\n      tag_674\n      jump\t// in\n    tag_735:\n        /* \"#utility.yul\":14381:14455   */\n      swap2\n      pop\n        /* \"#utility.yul\":14464:14557   */\n      tag_736\n        /* \"#utility.yul\":14553:14556   */\n      dup3\n        /* \"#utility.yul\":14464:14557   */\n      tag_737\n      jump\t// in\n    tag_736:\n        /* \"#utility.yul\":14582:14584   */\n      0x40\n        /* \"#utility.yul\":14577:14580   */\n      dup3\n        /* \"#utility.yul\":14573:14585   */\n      add\n        /* \"#utility.yul\":14566:14585   */\n      swap1\n      pop\n        /* \"#utility.yul\":14225:14591   */\n      swap2\n      swap1\n      pop\n      jump\t// out\n        /* \"#utility.yul\":14597:14963   */\n    tag_738:\n        /* \"#utility.yul\":14739:14742   */\n      0x00\n        /* \"#utility.yul\":14760:14827   */\n      tag_740\n        /* \"#utility.yul\":14824:14826   */\n      0x36\n        /* \"#utility.yul\":14819:14822   */\n      dup4\n        /* \"#utility.yul\":14760:14827   */\n      tag_674\n      jump\t// in\n    tag_740:\n        /* \"#utility.yul\":14753:14827   */\n      swap2\n      pop\n        /* \"#utility.yul\":14836:14929   */\n      tag_741\n        /* \"#utility.yul\":14925:14928   */\n      dup3\n        /* \"#utility.yul\":14836:14929   */\n      tag_742\n      jump\t// in\n    tag_741:\n        /* \"#utility.yul\":14954:14956   */\n      0x40\n        /* \"#utility.yul\":14949:14952   */\n      dup3\n        /* \"#utility.yul\":14945:14957   */\n      add\n        /* \"#utility.yul\":14938:14957   */\n      swap1\n      pop\n        /* \"#utility.yul\":14597:14963   */\n      swap2\n      swap1\n      pop\n      jump\t// out\n        /* \"#utility.yul\":14969:15335   */\n    tag_743:\n        /* \"#utility.yul\":15111:15114   */\n      0x00\n        /* \"#utility.yul\":15132:15199   */\n      tag_745\n        /* \"#utility.yul\":15196:15198   */\n      0x30\n        /* \"#utility.yul\":15191:15194   */\n      dup4\n        /* \"#utility.yul\":15132:15199   */\n      tag_674\n      jump\t// in\n    tag_745:\n        /* \"#utility.yul\":15125:15199   */\n      swap2\n      pop\n        /* \"#utility.yul\":15208:15301   */\n      tag_746\n        /* \"#utility.yul\":15297:15300   */\n      dup3\n        /* \"#utility.yul\":15208:15301   */\n      tag_747\n      jump\t// in\n    tag_746:\n        /* \"#utility.yul\":15326:15328   */\n      0x40\n        /* \"#utility.yul\":15321:15324   */\n      dup3\n        /* \"#utility.yul\":15317:15329   */\n      add\n        /* \"#utility.yul\":15310:15329   */\n      swap1\n      pop\n        /* \"#utility.yul\":14969:15335   */\n      swap2\n      swap1\n      pop\n      jump\t// out\n        /* \"#utility.yul\":15341:15459   */\n    tag_748:\n        /* \"#utility.yul\":15428:15452   */\n      tag_750\n        /* \"#utility.yul\":15446:15451   */\n      dup2\n        /* \"#utility.yul\":15428:15452   */\n      tag_751\n      jump\t// in\n    tag_750:\n        /* \"#utility.yul\":15423:15426   */\n      dup3\n        /* \"#utility.yul\":15416:15453   */\n      mstore\n        /* \"#utility.yul\":15341:15459   */\n      pop\n      pop\n      jump\t// out\n        /* \"#utility.yul\":15465:15736   */\n    tag_413:\n        /* \"#utility.yul\":15595:15598   */\n      0x00\n        /* \"#utility.yul\":15617:15710   */\n      tag_753\n        /* \"#utility.yul\":15706:15709   */\n      dup3\n        /* \"#utility.yul\":15697:15703   */\n      dup5\n        /* \"#utility.yul\":15617:15710   */\n      tag_649\n      jump\t// in\n    tag_753:\n        /* \"#utility.yul\":15610:15710   */\n      swap2\n      pop\n        /* \"#utility.yul\":15727:15730   */\n      dup2\n        /* \"#utility.yul\":15720:15730   */\n      swap1\n      pop\n        /* \"#utility.yul\":15465:15736   */\n      swap3\n      swap2\n      pop\n      pop\n      jump\t// out\n        /* \"#utility.yul\":15742:15964   */\n    tag_50:\n        /* \"#utility.yul\":15835:15839   */\n      0x00\n        /* \"#utility.yul\":15873:15875   */\n      0x20\n        /* \"#utility.yul\":15862:15871   */\n      dup3\n        /* \"#utility.yul\":15858:15876   */\n      add\n        /* \"#utility.yul\":15850:15876   */\n      swap1\n      pop\n        /* \"#utility.yul\":15886:15957   */\n      tag_755\n        /* \"#utility.yul\":15954:15955   */\n      0x00\n        /* \"#utility.yul\":15943:15952   */\n      dup4\n        /* \"#utility.yul\":15939:15956   */\n      add\n        /* \"#utility.yul\":15930:15936   */\n      dup5\n        /* \"#utility.yul\":15886:15957   */\n      tag_628\n      jump\t// in\n    tag_755:\n        /* \"#utility.yul\":15742:15964   */\n      swap3\n      swap2\n      pop\n      pop\n      jump\t// out\n        /* \"#utility.yul\":15970:16302   */\n    tag_121:\n        /* \"#utility.yul\":16091:16095   */\n      0x00\n        /* \"#utility.yul\":16129:16131   */\n      0x40\n        /* \"#utility.yul\":16118:16127   */\n      dup3\n        /* \"#utility.yul\":16114:16132   */\n      add\n        /* \"#utility.yul\":16106:16132   */\n      swap1\n      pop\n        /* \"#utility.yul\":16142:16213   */\n      tag_757\n        /* \"#utility.yul\":16210:16211   */\n      0x00\n        /* \"#utility.yul\":16199:16208   */\n      dup4\n        /* \"#utility.yul\":16195:16212   */\n      add\n        /* \"#utility.yul\":16186:16192   */\n      dup6\n        /* \"#utility.yul\":16142:16213   */\n      tag_628\n      jump\t// in\n    tag_757:\n        /* \"#utility.yul\":16223:16295   */\n      tag_758\n        /* \"#utility.yul\":16291:16293   */\n      0x20\n        /* \"#utility.yul\":16280:16289   */\n      dup4\n        /* \"#utility.yul\":16276:16294   */\n      add\n        /* \"#utility.yul\":16267:16273   */\n      dup5\n        /* \"#utility.yul\":16223:16295   */\n      tag_628\n      jump\t// in\n    tag_758:\n        /* \"#utility.yul\":15970:16302   */\n      swap4\n      swap3\n      pop\n      pop\n      pop\n      jump\t// out\n        /* \"#utility.yul\":16308:16750   */\n    tag_276:\n        /* \"#utility.yul\":16457:16461   */\n      0x00\n        /* \"#utility.yul\":16495:16497   */\n      0x60\n        /* \"#utility.yul\":16484:16493   */\n      dup3\n        /* \"#utility.yul\":16480:16498   */\n      add\n        /* \"#utility.yul\":16472:16498   */\n      swap1\n      pop\n        /* \"#utility.yul\":16508:16579   */\n      tag_760\n        /* \"#utility.yul\":16576:16577   */\n      0x00\n        /* \"#utility.yul\":16565:16574   */\n      dup4\n        /* \"#utility.yul\":16561:16578   */\n      add\n        /* \"#utility.yul\":16552:16558   */\n      dup7\n        /* \"#utility.yul\":16508:16579   */\n      tag_628\n      jump\t// in\n    tag_760:\n        /* \"#utility.yul\":16589:16661   */\n      tag_761\n        /* \"#utility.yul\":16657:16659   */\n      0x20\n        /* \"#utility.yul\":16646:16655   */\n      dup4\n        /* \"#utility.yul\":16642:16660   */\n      add\n        /* \"#utility.yul\":16633:16639   */\n      dup6\n        /* \"#utility.yul\":16589:16661   */\n      tag_628\n      jump\t// in\n    tag_761:\n        /* \"#utility.yul\":16671:16743   */\n      tag_762\n        /* \"#utility.yul\":16739:16741   */\n      0x40\n        /* \"#utility.yul\":16728:16737   */\n      dup4\n        /* \"#utility.yul\":16724:16742   */\n      add\n        /* \"#utility.yul\":16715:16721   */\n      dup5\n        /* \"#utility.yul\":16671:16743   */\n      tag_748\n      jump\t// in\n    tag_762:\n        /* \"#utility.yul\":16308:16750   */\n      swap5\n      swap4\n      pop\n      pop\n      pop\n      pop\n      jump\t// out\n        /* \"#utility.yul\":16756:17785   */\n    tag_346:\n        /* \"#utility.yul\":17061:17065   */\n      0x00\n        /* \"#utility.yul\":17099:17102   */\n      0x0100\n        /* \"#utility.yul\":17088:17097   */\n      dup3\n        /* \"#utility.yul\":17084:17103   */\n      add\n        /* \"#utility.yul\":17076:17103   */\n      swap1\n      pop\n        /* \"#utility.yul\":17113:17184   */\n      tag_764\n        /* \"#utility.yul\":17181:17182   */\n      0x00\n        /* \"#utility.yul\":17170:17179   */\n      dup4\n        /* \"#utility.yul\":17166:17183   */\n      add\n        /* \"#utility.yul\":17157:17163   */\n      dup12\n        /* \"#utility.yul\":17113:17184   */\n      tag_628\n      jump\t// in\n    tag_764:\n        /* \"#utility.yul\":17194:17266   */\n      tag_765\n        /* \"#utility.yul\":17262:17264   */\n      0x20\n        /* \"#utility.yul\":17251:17260   */\n      dup4\n        /* \"#utility.yul\":17247:17265   */\n      add\n        /* \"#utility.yul\":17238:17244   */\n      dup11\n        /* \"#utility.yul\":17194:17266   */\n      tag_628\n      jump\t// in\n    tag_765:\n        /* \"#utility.yul\":17276:17348   */\n      tag_766\n        /* \"#utility.yul\":17344:17346   */\n      0x40\n        /* \"#utility.yul\":17333:17342   */\n      dup4\n        /* \"#utility.yul\":17329:17347   */\n      add\n        /* \"#utility.yul\":17320:17326   */\n      dup10\n        /* \"#utility.yul\":17276:17348   */\n      tag_748\n      jump\t// in\n    tag_766:\n        /* \"#utility.yul\":17358:17430   */\n      tag_767\n        /* \"#utility.yul\":17426:17428   */\n      0x60\n        /* \"#utility.yul\":17415:17424   */\n      dup4\n        /* \"#utility.yul\":17411:17429   */\n      add\n        /* \"#utility.yul\":17402:17408   */\n      dup9\n        /* \"#utility.yul\":17358:17430   */\n      tag_748\n      jump\t// in\n    tag_767:\n        /* \"#utility.yul\":17440:17521   */\n      tag_768\n        /* \"#utility.yul\":17516:17519   */\n      0x80\n        /* \"#utility.yul\":17505:17514   */\n      dup4\n        /* \"#utility.yul\":17501:17520   */\n      add\n        /* \"#utility.yul\":17492:17498   */\n      dup8\n        /* \"#utility.yul\":17440:17521   */\n      tag_665\n      jump\t// in\n    tag_768:\n        /* \"#utility.yul\":17531:17612   */\n      tag_769\n        /* \"#utility.yul\":17607:17610   */\n      0xa0\n        /* \"#utility.yul\":17596:17605   */\n      dup4\n        /* \"#utility.yul\":17592:17611   */\n      add\n        /* \"#utility.yul\":17583:17589   */\n      dup7\n        /* \"#utility.yul\":17531:17612   */\n      tag_665\n      jump\t// in\n    tag_769:\n        /* \"#utility.yul\":17622:17695   */\n      tag_770\n        /* \"#utility.yul\":17690:17693   */\n      0xc0\n        /* \"#utility.yul\":17679:17688   */\n      dup4\n        /* \"#utility.yul\":17675:17694   */\n      add\n        /* \"#utility.yul\":17666:17672   */\n      dup6\n        /* \"#utility.yul\":17622:17695   */\n      tag_628\n      jump\t// in\n    tag_770:\n        /* \"#utility.yul\":17705:17778   */\n      tag_771\n        /* \"#utility.yul\":17773:17776   */\n      0xe0\n        /* \"#utility.yul\":17762:17771   */\n      dup4\n        /* \"#utility.yul\":17758:17777   */\n      add\n        /* \"#utility.yul\":17749:17755   */\n      dup5\n        /* \"#utility.yul\":17705:17778   */\n      tag_748\n      jump\t// in\n    tag_771:\n        /* \"#utility.yul\":16756:17785   */\n      swap10\n      swap9\n      pop\n      pop\n      pop\n      pop\n      pop\n      pop\n      pop\n      pop\n      pop\n      jump\t// out\n        /* \"#utility.yul\":17791:18123   */\n    tag_481:\n        /* \"#utility.yul\":17912:17916   */\n      0x00\n        /* \"#utility.yul\":17950:17952   */\n      0x40\n        /* \"#utility.yul\":17939:17948   */\n      dup3\n        /* \"#utility.yul\":17935:17953   */\n      add\n        /* \"#utility.yul\":17927:17953   */\n      swap1\n      pop\n        /* \"#utility.yul\":17963:18034   */\n      tag_773\n        /* \"#utility.yul\":18031:18032   */\n      0x00\n        /* \"#utility.yul\":18020:18029   */\n      dup4\n        /* \"#utility.yul\":18016:18033   */\n      add\n        /* \"#utility.yul\":18007:18013   */\n      dup6\n        /* \"#utility.yul\":17963:18034   */\n      tag_628\n      jump\t// in\n    tag_773:\n        /* \"#utility.yul\":18044:18116   */\n      tag_774\n        /* \"#utility.yul\":18112:18114   */\n      0x20\n        /* \"#utility.yul\":18101:18110   */\n      dup4\n        /* \"#utility.yul\":18097:18115   */\n      add\n        /* \"#utility.yul\":18088:18094   */\n      dup5\n        /* \"#utility.yul\":18044:18116   */\n      tag_748\n      jump\t// in\n    tag_774:\n        /* \"#utility.yul\":17791:18123   */\n      swap4\n      swap3\n      pop\n      pop\n      pop\n      jump\t// out\n        /* \"#utility.yul\":18129:18339   */\n    tag_45:\n        /* \"#utility.yul\":18216:18220   */\n      0x00\n        /* \"#utility.yul\":18254:18256   */\n      0x20\n        /* \"#utility.yul\":18243:18252   */\n      dup3\n        /* \"#utility.yul\":18239:18257   */\n      add\n        /* \"#utility.yul\":18231:18257   */\n      swap1\n      pop\n        /* \"#utility.yul\":18267:18332   */\n      tag_776\n        /* \"#utility.yul\":18329:18330   */\n      0x00\n        /* \"#utility.yul\":18318:18327   */\n      dup4\n        /* \"#utility.yul\":18314:18331   */\n      add\n        /* \"#utility.yul\":18305:18311   */\n      dup5\n        /* \"#utility.yul\":18267:18332   */\n      tag_645\n      jump\t// in\n    tag_776:\n        /* \"#utility.yul\":18129:18339   */\n      swap3\n      swap2\n      pop\n      pop\n      jump\t// out\n        /* \"#utility.yul\":18345:18605   */\n    tag_24:\n        /* \"#utility.yul\":18457:18461   */\n      0x00\n        /* \"#utility.yul\":18495:18497   */\n      0x20\n        /* \"#utility.yul\":18484:18493   */\n      dup3\n        /* \"#utility.yul\":18480:18498   */\n      add\n        /* \"#utility.yul\":18472:18498   */\n      swap1\n      pop\n        /* \"#utility.yul\":18508:18598   */\n      tag_778\n        /* \"#utility.yul\":18595:18596   */\n      0x00\n        /* \"#utility.yul\":18584:18593   */\n      dup4\n        /* \"#utility.yul\":18580:18597   */\n      add\n        /* \"#utility.yul\":18571:18577   */\n      dup5\n        /* \"#utility.yul\":18508:18598   */\n      tag_657\n      jump\t// in\n    tag_778:\n        /* \"#utility.yul\":18345:18605   */\n      swap3\n      swap2\n      pop\n      pop\n      jump\t// out\n        /* \"#utility.yul\":18611:18887   */\n    tag_72:\n        /* \"#utility.yul\":18731:18735   */\n      0x00\n        /* \"#utility.yul\":18769:18771   */\n      0x20\n        /* \"#utility.yul\":18758:18767   */\n      dup3\n        /* \"#utility.yul\":18754:18772   */\n      add\n        /* \"#utility.yul\":18746:18772   */\n      swap1\n      pop\n        /* \"#utility.yul\":18782:18880   */\n      tag_780\n        /* \"#utility.yul\":18877:18878   */\n      0x00\n        /* \"#utility.yul\":18866:18875   */\n      dup4\n        /* \"#utility.yul\":18862:18879   */\n      add\n        /* \"#utility.yul\":18853:18859   */\n      dup5\n        /* \"#utility.yul\":18782:18880   */\n      tag_661\n      jump\t// in\n    tag_780:\n        /* \"#utility.yul\":18611:18887   */\n      swap3\n      swap2\n      pop\n      pop\n      jump\t// out\n        /* \"#utility.yul\":18893:19206   */\n    tag_519:\n        /* \"#utility.yul\":19006:19010   */\n      0x00\n        /* \"#utility.yul\":19044:19046   */\n      0x20\n        /* \"#utility.yul\":19033:19042   */\n      dup3\n        /* \"#utility.yul\":19029:19047   */\n      add\n        /* \"#utility.yul\":19021:19047   */\n      swap1\n      pop\n        /* \"#utility.yul\":19093:19102   */\n      dup2\n        /* \"#utility.yul\":19087:19091   */\n      dup2\n        /* \"#utility.yul\":19083:19103   */\n      sub\n        /* \"#utility.yul\":19079:19080   */\n      0x00\n        /* \"#utility.yul\":19068:19077   */\n      dup4\n        /* \"#utility.yul\":19064:19081   */\n      add\n        /* \"#utility.yul\":19057:19104   */\n      mstore\n        /* \"#utility.yul\":19121:19199   */\n      tag_782\n        /* \"#utility.yul\":19194:19198   */\n      dup2\n        /* \"#utility.yul\":19185:19191   */\n      dup5\n        /* \"#utility.yul\":19121:19199   */\n      tag_669\n      jump\t// in\n    tag_782:\n        /* \"#utility.yul\":19113:19199   */\n      swap1\n      pop\n        /* \"#utility.yul\":18893:19206   */\n      swap3\n      swap2\n      pop\n      pop\n      jump\t// out\n        /* \"#utility.yul\":19212:19631   */\n    tag_248:\n        /* \"#utility.yul\":19378:19382   */\n      0x00\n        /* \"#utility.yul\":19416:19418   */\n      0x20\n        /* \"#utility.yul\":19405:19414   */\n      dup3\n        /* \"#utility.yul\":19401:19419   */\n      add\n        /* \"#utility.yul\":19393:19419   */\n      swap1\n      pop\n        /* \"#utility.yul\":19465:19474   */\n      dup2\n        /* \"#utility.yul\":19459:19463   */\n      dup2\n        /* \"#utility.yul\":19455:19475   */\n      sub\n        /* \"#utility.yul\":19451:19452   */\n      0x00\n        /* \"#utility.yul\":19440:19449   */\n      dup4\n        /* \"#utility.yul\":19436:19453   */\n      add\n        /* \"#utility.yul\":19429:19476   */\n      mstore\n        /* \"#utility.yul\":19493:19624   */\n      tag_784\n        /* \"#utility.yul\":19619:19623   */\n      dup2\n        /* \"#utility.yul\":19493:19624   */\n      tag_678\n      jump\t// in\n    tag_784:\n        /* \"#utility.yul\":19485:19624   */\n      swap1\n      pop\n        /* \"#utility.yul\":19212:19631   */\n      swap2\n      swap1\n      pop\n      jump\t// out\n        /* \"#utility.yul\":19637:20056   */\n    tag_119:\n        /* \"#utility.yul\":19803:19807   */\n      0x00\n        /* \"#utility.yul\":19841:19843   */\n      0x20\n        /* \"#utility.yul\":19830:19839   */\n      dup3\n        /* \"#utility.yul\":19826:19844   */\n      add\n        /* \"#utility.yul\":19818:19844   */\n      swap1\n      pop\n        /* \"#utility.yul\":19890:19899   */\n      dup2\n        /* \"#utility.yul\":19884:19888   */\n      dup2\n        /* \"#utility.yul\":19880:19900   */\n      sub\n        /* \"#utility.yul\":19876:19877   */\n      0x00\n        /* \"#utility.yul\":19865:19874   */\n      dup4\n        /* \"#utility.yul\":19861:19878   */\n      add\n        /* \"#utility.yul\":19854:19901   */\n      mstore\n        /* \"#utility.yul\":19918:20049   */\n      tag_786\n        /* \"#utility.yul\":20044:20048   */\n      dup2\n        /* \"#utility.yul\":19918:20049   */\n      tag_683\n      jump\t// in\n    tag_786:\n        /* \"#utility.yul\":19910:20049   */\n      swap1\n      pop\n        /* \"#utility.yul\":19637:20056   */\n      swap2\n      swap1\n      pop\n      jump\t// out\n        /* \"#utility.yul\":20062:20481   */\n    tag_419:\n        /* \"#utility.yul\":20228:20232   */\n      0x00\n        /* \"#utility.yul\":20266:20268   */\n      0x20\n        /* \"#utility.yul\":20255:20264   */\n      dup3\n        /* \"#utility.yul\":20251:20269   */\n      add\n        /* \"#utility.yul\":20243:20269   */\n      swap1\n      pop\n        /* \"#utility.yul\":20315:20324   */\n      dup2\n        /* \"#utility.yul\":20309:20313   */\n      dup2\n        /* \"#utility.yul\":20305:20325   */\n      sub\n        /* \"#utility.yul\":20301:20302   */\n      0x00\n        /* \"#utility.yul\":20290:20299   */\n      dup4\n        /* \"#utility.yul\":20286:20303   */\n      add\n        /* \"#utility.yul\":20279:20326   */\n      mstore\n        /* \"#utility.yul\":20343:20474   */\n      tag_788\n        /* \"#utility.yul\":20469:20473   */\n      dup2\n        /* \"#utility.yul\":20343:20474   */\n      tag_688\n      jump\t// in\n    tag_788:\n        /* \"#utility.yul\":20335:20474   */\n      swap1\n      pop\n        /* \"#utility.yul\":20062:20481   */\n      swap2\n      swap1\n      pop\n      jump\t// out\n        /* \"#utility.yul\":20487:20906   */\n    tag_89:\n        /* \"#utility.yul\":20653:20657   */\n      0x00\n        /* \"#utility.yul\":20691:20693   */\n      0x20\n        /* \"#utility.yul\":20680:20689   */\n      dup3\n        /* \"#utility.yul\":20676:20694   */\n      add\n        /* \"#utility.yul\":20668:20694   */\n      swap1\n      pop\n        /* \"#utility.yul\":20740:20749   */\n      dup2\n        /* \"#utility.yul\":20734:20738   */\n      dup2\n        /* \"#utility.yul\":20730:20750   */\n      sub\n        /* \"#utility.yul\":20726:20727   */\n      0x00\n        /* \"#utility.yul\":20715:20724   */\n      dup4\n        /* \"#utility.yul\":20711:20728   */\n      add\n        /* \"#utility.yul\":20704:20751   */\n      mstore\n        /* \"#utility.yul\":20768:20899   */\n      tag_790\n        /* \"#utility.yul\":20894:20898   */\n      dup2\n        /* \"#utility.yul\":20768:20899   */\n      tag_693\n      jump\t// in\n    tag_790:\n        /* \"#utility.yul\":20760:20899   */\n      swap1\n      pop\n        /* \"#utility.yul\":20487:20906   */\n      swap2\n      swap1\n      pop\n      jump\t// out\n        /* \"#utility.yul\":20912:21331   */\n    tag_389:\n        /* \"#utility.yul\":21078:21082   */\n      0x00\n        /* \"#utility.yul\":21116:21118   */\n      0x20\n        /* \"#utility.yul\":21105:21114   */\n      dup3\n        /* \"#utility.yul\":21101:21119   */\n      add\n        /* \"#utility.yul\":21093:21119   */\n      swap1\n      pop\n        /* \"#utility.yul\":21165:21174   */\n      dup2\n        /* \"#utility.yul\":21159:21163   */\n      dup2\n        /* \"#utility.yul\":21155:21175   */\n      sub\n        /* \"#utility.yul\":21151:21152   */\n      0x00\n        /* \"#utility.yul\":21140:21149   */\n      dup4\n        /* \"#utility.yul\":21136:21153   */\n      add\n        /* \"#utility.yul\":21129:21176   */\n      mstore\n        /* \"#utility.yul\":21193:21324   */\n      tag_792\n        /* \"#utility.yul\":21319:21323   */\n      dup2\n        /* \"#utility.yul\":21193:21324   */\n      tag_698\n      jump\t// in\n    tag_792:\n        /* \"#utility.yul\":21185:21324   */\n      swap1\n      pop\n        /* \"#utility.yul\":20912:21331   */\n      swap2\n      swap1\n      pop\n      jump\t// out\n        /* \"#utility.yul\":21337:21756   */\n    tag_500:\n        /* \"#utility.yul\":21503:21507   */\n      0x00\n        /* \"#utility.yul\":21541:21543   */\n      0x20\n        /* \"#utility.yul\":21530:21539   */\n      dup3\n        /* \"#utility.yul\":21526:21544   */\n      add\n        /* \"#utility.yul\":21518:21544   */\n      swap1\n      pop\n        /* \"#utility.yul\":21590:21599   */\n      dup2\n        /* \"#utility.yul\":21584:21588   */\n      dup2\n        /* \"#utility.yul\":21580:21600   */\n      sub\n        /* \"#utility.yul\":21576:21577   */\n      0x00\n        /* \"#utility.yul\":21565:21574   */\n      dup4\n        /* \"#utility.yul\":21561:21578   */\n      add\n        /* \"#utility.yul\":21554:21601   */\n      mstore\n        /* \"#utility.yul\":21618:21749   */\n      tag_794\n        /* \"#utility.yul\":21744:21748   */\n      dup2\n        /* \"#utility.yul\":21618:21749   */\n      tag_703\n      jump\t// in\n    tag_794:\n        /* \"#utility.yul\":21610:21749   */\n      swap1\n      pop\n        /* \"#utility.yul\":21337:21756   */\n      swap2\n      swap1\n      pop\n      jump\t// out\n        /* \"#utility.yul\":21762:22181   */\n    tag_128:\n        /* \"#utility.yul\":21928:21932   */\n      0x00\n        /* \"#utility.yul\":21966:21968   */\n      0x20\n        /* \"#utility.yul\":21955:21964   */\n      dup3\n        /* \"#utility.yul\":21951:21969   */\n      add\n        /* \"#utility.yul\":21943:21969   */\n      swap1\n      pop\n        /* \"#utility.yul\":22015:22024   */\n      dup2\n        /* \"#utility.yul\":22009:22013   */\n      dup2\n        /* \"#utility.yul\":22005:22025   */\n      sub\n        /* \"#utility.yul\":22001:22002   */\n      0x00\n        /* \"#utility.yul\":21990:21999   */\n      dup4\n        /* \"#utility.yul\":21986:22003   */\n      add\n        /* \"#utility.yul\":21979:22026   */\n      mstore\n        /* \"#utility.yul\":22043:22174   */\n      tag_796\n        /* \"#utility.yul\":22169:22173   */\n      dup2\n        /* \"#utility.yul\":22043:22174   */\n      tag_708\n      jump\t// in\n    tag_796:\n        /* \"#utility.yul\":22035:22174   */\n      swap1\n      pop\n        /* \"#utility.yul\":21762:22181   */\n      swap2\n      swap1\n      pop\n      jump\t// out\n        /* \"#utility.yul\":22187:22606   */\n    tag_287:\n        /* \"#utility.yul\":22353:22357   */\n      0x00\n        /* \"#utility.yul\":22391:22393   */\n      0x20\n        /* \"#utility.yul\":22380:22389   */\n      dup3\n        /* \"#utility.yul\":22376:22394   */\n      add\n        /* \"#utility.yul\":22368:22394   */\n      swap1\n      pop\n        /* \"#utility.yul\":22440:22449   */\n      dup2\n        /* \"#utility.yul\":22434:22438   */\n      dup2\n        /* \"#utility.yul\":22430:22450   */\n      sub\n        /* \"#utility.yul\":22426:22427   */\n      0x00\n        /* \"#utility.yul\":22415:22424   */\n      dup4\n        /* \"#utility.yul\":22411:22428   */\n      add\n        /* \"#utility.yul\":22404:22451   */\n      mstore\n        /* \"#utility.yul\":22468:22599   */\n      tag_798\n        /* \"#utility.yul\":22594:22598   */\n      dup2\n        /* \"#utility.yul\":22468:22599   */\n      tag_713\n      jump\t// in\n    tag_798:\n        /* \"#utility.yul\":22460:22599   */\n      swap1\n      pop\n        /* \"#utility.yul\":22187:22606   */\n      swap2\n      swap1\n      pop\n      jump\t// out\n        /* \"#utility.yul\":22612:23031   */\n    tag_147:\n        /* \"#utility.yul\":22778:22782   */\n      0x00\n        /* \"#utility.yul\":22816:22818   */\n      0x20\n        /* \"#utility.yul\":22805:22814   */\n      dup3\n        /* \"#utility.yul\":22801:22819   */\n      add\n        /* \"#utility.yul\":22793:22819   */\n      swap1\n      pop\n        /* \"#utility.yul\":22865:22874   */\n      dup2\n        /* \"#utility.yul\":22859:22863   */\n      dup2\n        /* \"#utility.yul\":22855:22875   */\n      sub\n        /* \"#utility.yul\":22851:22852   */\n      0x00\n        /* \"#utility.yul\":22840:22849   */\n      dup4\n        /* \"#utility.yul\":22836:22853   */\n      add\n        /* \"#utility.yul\":22829:22876   */\n      mstore\n        /* \"#utility.yul\":22893:23024   */\n      tag_800\n        /* \"#utility.yul\":23019:23023   */\n      dup2\n        /* \"#utility.yul\":22893:23024   */\n      tag_718\n      jump\t// in\n    tag_800:\n        /* \"#utility.yul\":22885:23024   */\n      swap1\n      pop\n        /* \"#utility.yul\":22612:23031   */\n      swap2\n      swap1\n      pop\n      jump\t// out\n        /* \"#utility.yul\":23037:23456   */\n    tag_505:\n        /* \"#utility.yul\":23203:23207   */\n      0x00\n        /* \"#utility.yul\":23241:23243   */\n      0x20\n        /* \"#utility.yul\":23230:23239   */\n      dup3\n        /* \"#utility.yul\":23226:23244   */\n      add\n        /* \"#utility.yul\":23218:23244   */\n      swap1\n      pop\n        /* \"#utility.yul\":23290:23299   */\n      dup2\n        /* \"#utility.yul\":23284:23288   */\n      dup2\n        /* \"#utility.yul\":23280:23300   */\n      sub\n        /* \"#utility.yul\":23276:23277   */\n      0x00\n        /* \"#utility.yul\":23265:23274   */\n      dup4\n        /* \"#utility.yul\":23261:23278   */\n      add\n        /* \"#utility.yul\":23254:23301   */\n      mstore\n        /* \"#utility.yul\":23318:23449   */\n      tag_802\n        /* \"#utility.yul\":23444:23448   */\n      dup2\n        /* \"#utility.yul\":23318:23449   */\n      tag_723\n      jump\t// in\n    tag_802:\n        /* \"#utility.yul\":23310:23449   */\n      swap1\n      pop\n        /* \"#utility.yul\":23037:23456   */\n      swap2\n      swap1\n      pop\n      jump\t// out\n        /* \"#utility.yul\":23462:23881   */\n    tag_386:\n        /* \"#utility.yul\":23628:23632   */\n      0x00\n        /* \"#utility.yul\":23666:23668   */\n      0x20\n        /* \"#utility.yul\":23655:23664   */\n      dup3\n        /* \"#utility.yul\":23651:23669   */\n      add\n        /* \"#utility.yul\":23643:23669   */\n      swap1\n      pop\n        /* \"#utility.yul\":23715:23724   */\n      dup2\n        /* \"#utility.yul\":23709:23713   */\n      dup2\n        /* \"#utility.yul\":23705:23725   */\n      sub\n        /* \"#utility.yul\":23701:23702   */\n      0x00\n        /* \"#utility.yul\":23690:23699   */\n      dup4\n        /* \"#utility.yul\":23686:23703   */\n      add\n        /* \"#utility.yul\":23679:23726   */\n      mstore\n        /* \"#utility.yul\":23743:23874   */\n      tag_804\n        /* \"#utility.yul\":23869:23873   */\n      dup2\n        /* \"#utility.yul\":23743:23874   */\n      tag_728\n      jump\t// in\n    tag_804:\n        /* \"#utility.yul\":23735:23874   */\n      swap1\n      pop\n        /* \"#utility.yul\":23462:23881   */\n      swap2\n      swap1\n      pop\n      jump\t// out\n        /* \"#utility.yul\":23887:24306   */\n    tag_477:\n        /* \"#utility.yul\":24053:24057   */\n      0x00\n        /* \"#utility.yul\":24091:24093   */\n      0x20\n        /* \"#utility.yul\":24080:24089   */\n      dup3\n        /* \"#utility.yul\":24076:24094   */\n      add\n        /* \"#utility.yul\":24068:24094   */\n      swap1\n      pop\n        /* \"#utility.yul\":24140:24149   */\n      dup2\n        /* \"#utility.yul\":24134:24138   */\n      dup2\n        /* \"#utility.yul\":24130:24150   */\n      sub\n        /* \"#utility.yul\":24126:24127   */\n      0x00\n        /* \"#utility.yul\":24115:24124   */\n      dup4\n        /* \"#utility.yul\":24111:24128   */\n      add\n        /* \"#utility.yul\":24104:24151   */\n      mstore\n        /* \"#utility.yul\":24168:24299   */\n      tag_806\n        /* \"#utility.yul\":24294:24298   */\n      dup2\n        /* \"#utility.yul\":24168:24299   */\n      tag_733\n      jump\t// in\n    tag_806:\n        /* \"#utility.yul\":24160:24299   */\n      swap1\n      pop\n        /* \"#utility.yul\":23887:24306   */\n      swap2\n      swap1\n      pop\n      jump\t// out\n        /* \"#utility.yul\":24312:24731   */\n    tag_491:\n        /* \"#utility.yul\":24478:24482   */\n      0x00\n        /* \"#utility.yul\":24516:24518   */\n      0x20\n        /* \"#utility.yul\":24505:24514   */\n      dup3\n        /* \"#utility.yul\":24501:24519   */\n      add\n        /* \"#utility.yul\":24493:24519   */\n      swap1\n      pop\n        /* \"#utility.yul\":24565:24574   */\n      dup2\n        /* \"#utility.yul\":24559:24563   */\n      dup2\n        /* \"#utility.yul\":24555:24575   */\n      sub\n        /* \"#utility.yul\":24551:24552   */\n      0x00\n        /* \"#utility.yul\":24540:24549   */\n      dup4\n        /* \"#utility.yul\":24536:24553   */\n      add\n        /* \"#utility.yul\":24529:24576   */\n      mstore\n        /* \"#utility.yul\":24593:24724   */\n      tag_808\n        /* \"#utility.yul\":24719:24723   */\n      dup2\n        /* \"#utility.yul\":24593:24724   */\n      tag_738\n      jump\t// in\n    tag_808:\n        /* \"#utility.yul\":24585:24724   */\n      swap1\n      pop\n        /* \"#utility.yul\":24312:24731   */\n      swap2\n      swap1\n      pop\n      jump\t// out\n        /* \"#utility.yul\":24737:25156   */\n    tag_200:\n        /* \"#utility.yul\":24903:24907   */\n      0x00\n        /* \"#utility.yul\":24941:24943   */\n      0x20\n        /* \"#utility.yul\":24930:24939   */\n      dup3\n        /* \"#utility.yul\":24926:24944   */\n      add\n        /* \"#utility.yul\":24918:24944   */\n      swap1\n      pop\n        /* \"#utility.yul\":24990:24999   */\n      dup2\n        /* \"#utility.yul\":24984:24988   */\n      dup2\n        /* \"#utility.yul\":24980:25000   */\n      sub\n        /* \"#utility.yul\":24976:24977   */\n      0x00\n        /* \"#utility.yul\":24965:24974   */\n      dup4\n        /* \"#utility.yul\":24961:24978   */\n      add\n        /* \"#utility.yul\":24954:25001   */\n      mstore\n        /* \"#utility.yul\":25018:25149   */\n      tag_810\n        /* \"#utility.yul\":25144:25148   */\n      dup2\n        /* \"#utility.yul\":25018:25149   */\n      tag_743\n      jump\t// in\n    tag_810:\n        /* \"#utility.yul\":25010:25149   */\n      swap1\n      pop\n        /* \"#utility.yul\":24737:25156   */\n      swap2\n      swap1\n      pop\n      jump\t// out\n        /* \"#utility.yul\":25162:25384   */\n    tag_55:\n        /* \"#utility.yul\":25255:25259   */\n      0x00\n        /* \"#utility.yul\":25293:25295   */\n      0x20\n        /* \"#utility.yul\":25282:25291   */\n      dup3\n        /* \"#utility.yul\":25278:25296   */\n      add\n        /* \"#utility.yul\":25270:25296   */\n      swap1\n      pop\n        /* \"#utility.yul\":25306:25377   */\n      tag_812\n        /* \"#utility.yul\":25374:25375   */\n      0x00\n        /* \"#utility.yul\":25363:25372   */\n      dup4\n        /* \"#utility.yul\":25359:25376   */\n      add\n        /* \"#utility.yul\":25350:25356   */\n      dup5\n        /* \"#utility.yul\":25306:25377   */\n      tag_748\n      jump\t// in\n    tag_812:\n        /* \"#utility.yul\":25162:25384   */\n      swap3\n      swap2\n      pop\n      pop\n      jump\t// out\n        /* \"#utility.yul\":25390:25832   */\n    tag_31:\n        /* \"#utility.yul\":25539:25543   */\n      0x00\n        /* \"#utility.yul\":25577:25579   */\n      0x60\n        /* \"#utility.yul\":25566:25575   */\n      dup3\n        /* \"#utility.yul\":25562:25580   */\n      add\n        /* \"#utility.yul\":25554:25580   */\n      swap1\n      pop\n        /* \"#utility.yul\":25590:25661   */\n      tag_814\n        /* \"#utility.yul\":25658:25659   */\n      0x00\n        /* \"#utility.yul\":25647:25656   */\n      dup4\n        /* \"#utility.yul\":25643:25660   */\n      add\n        /* \"#utility.yul\":25634:25640   */\n      dup7\n        /* \"#utility.yul\":25590:25661   */\n      tag_748\n      jump\t// in\n    tag_814:\n        /* \"#utility.yul\":25671:25743   */\n      tag_815\n        /* \"#utility.yul\":25739:25741   */\n      0x20\n        /* \"#utility.yul\":25728:25737   */\n      dup4\n        /* \"#utility.yul\":25724:25742   */\n      add\n        /* \"#utility.yul\":25715:25721   */\n      dup6\n        /* \"#utility.yul\":25671:25743   */\n      tag_748\n      jump\t// in\n    tag_815:\n        /* \"#utility.yul\":25753:25825   */\n      tag_816\n        /* \"#utility.yul\":25821:25823   */\n      0x40\n        /* \"#utility.yul\":25810:25819   */\n      dup4\n        /* \"#utility.yul\":25806:25824   */\n      add\n        /* \"#utility.yul\":25797:25803   */\n      dup5\n        /* \"#utility.yul\":25753:25825   */\n      tag_628\n      jump\t// in\n    tag_816:\n        /* \"#utility.yul\":25390:25832   */\n      swap5\n      swap4\n      pop\n      pop\n      pop\n      pop\n      jump\t// out\n        /* \"#utility.yul\":25838:26653   */\n    tag_226:\n        /* \"#utility.yul\":26093:26097   */\n      0x00\n        /* \"#utility.yul\":26131:26134   */\n      0xa0\n        /* \"#utility.yul\":26120:26129   */\n      dup3\n        /* \"#utility.yul\":26116:26135   */\n      add\n        /* \"#utility.yul\":26108:26135   */\n      swap1\n      pop\n        /* \"#utility.yul\":26145:26216   */\n      tag_818\n        /* \"#utility.yul\":26213:26214   */\n      0x00\n        /* \"#utility.yul\":26202:26211   */\n      dup4\n        /* \"#utility.yul\":26198:26215   */\n      add\n        /* \"#utility.yul\":26189:26195   */\n      dup9\n        /* \"#utility.yul\":26145:26216   */\n      tag_748\n      jump\t// in\n    tag_818:\n        /* \"#utility.yul\":26226:26298   */\n      tag_819\n        /* \"#utility.yul\":26294:26296   */\n      0x20\n        /* \"#utility.yul\":26283:26292   */\n      dup4\n        /* \"#utility.yul\":26279:26297   */\n      add\n        /* \"#utility.yul\":26270:26276   */\n      dup8\n        /* \"#utility.yul\":26226:26298   */\n      tag_748\n      jump\t// in\n    tag_819:\n        /* \"#utility.yul\":26345:26354   */\n      dup2\n        /* \"#utility.yul\":26339:26343   */\n      dup2\n        /* \"#utility.yul\":26335:26355   */\n      sub\n        /* \"#utility.yul\":26330:26332   */\n      0x40\n        /* \"#utility.yul\":26319:26328   */\n      dup4\n        /* \"#utility.yul\":26315:26333   */\n      add\n        /* \"#utility.yul\":26308:26356   */\n      mstore\n        /* \"#utility.yul\":26373:26481   */\n      tag_820\n        /* \"#utility.yul\":26476:26480   */\n      dup2\n        /* \"#utility.yul\":26467:26473   */\n      dup7\n        /* \"#utility.yul\":26373:26481   */\n      tag_631\n      jump\t// in\n    tag_820:\n        /* \"#utility.yul\":26365:26481   */\n      swap1\n      pop\n        /* \"#utility.yul\":26491:26563   */\n      tag_821\n        /* \"#utility.yul\":26559:26561   */\n      0x60\n        /* \"#utility.yul\":26548:26557   */\n      dup4\n        /* \"#utility.yul\":26544:26562   */\n      add\n        /* \"#utility.yul\":26535:26541   */\n      dup6\n        /* \"#utility.yul\":26491:26563   */\n      tag_628\n      jump\t// in\n    tag_821:\n        /* \"#utility.yul\":26573:26646   */\n      tag_822\n        /* \"#utility.yul\":26641:26644   */\n      0x80\n        /* \"#utility.yul\":26630:26639   */\n      dup4\n        /* \"#utility.yul\":26626:26645   */\n      add\n        /* \"#utility.yul\":26617:26623   */\n      dup5\n        /* \"#utility.yul\":26573:26646   */\n      tag_748\n      jump\t// in\n    tag_822:\n        /* \"#utility.yul\":25838:26653   */\n      swap7\n      swap6\n      pop\n      pop\n      pop\n      pop\n      pop\n      pop\n      jump\t// out\n        /* \"#utility.yul\":26659:27101   */\n    tag_100:\n        /* \"#utility.yul\":26808:26812   */\n      0x00\n        /* \"#utility.yul\":26846:26848   */\n      0x60\n        /* \"#utility.yul\":26835:26844   */\n      dup3\n        /* \"#utility.yul\":26831:26849   */\n      add\n        /* \"#utility.yul\":26823:26849   */\n      swap1\n      pop\n        /* \"#utility.yul\":26859:26930   */\n      tag_824\n        /* \"#utility.yul\":26927:26928   */\n      0x00\n        /* \"#utility.yul\":26916:26925   */\n      dup4\n        /* \"#utility.yul\":26912:26929   */\n      add\n        /* \"#utility.yul\":26903:26909   */\n      dup7\n        /* \"#utility.yul\":26859:26930   */\n      tag_748\n      jump\t// in\n    tag_824:\n        /* \"#utility.yul\":26940:27012   */\n      tag_825\n        /* \"#utility.yul\":27008:27010   */\n      0x20\n        /* \"#utility.yul\":26997:27006   */\n      dup4\n        /* \"#utility.yul\":26993:27011   */\n      add\n        /* \"#utility.yul\":26984:26990   */\n      dup6\n        /* \"#utility.yul\":26940:27012   */\n      tag_748\n      jump\t// in\n    tag_825:\n        /* \"#utility.yul\":27022:27094   */\n      tag_826\n        /* \"#utility.yul\":27090:27092   */\n      0x40\n        /* \"#utility.yul\":27079:27088   */\n      dup4\n        /* \"#utility.yul\":27075:27093   */\n      add\n        /* \"#utility.yul\":27066:27072   */\n      dup5\n        /* \"#utility.yul\":27022:27094   */\n      tag_748\n      jump\t// in\n    tag_826:\n        /* \"#utility.yul\":26659:27101   */\n      swap5\n      swap4\n      pop\n      pop\n      pop\n      pop\n      jump\t// out\n        /* \"#utility.yul\":27107:27236   */\n    tag_526:\n        /* \"#utility.yul\":27141:27147   */\n      0x00\n        /* \"#utility.yul\":27168:27188   */\n      tag_828\n      tag_829\n      jump\t// in\n    tag_828:\n        /* \"#utility.yul\":27158:27188   */\n      swap1\n      pop\n        /* \"#utility.yul\":27197:27230   */\n      tag_830\n        /* \"#utility.yul\":27225:27229   */\n      dup3\n        /* \"#utility.yul\":27217:27223   */\n      dup3\n        /* \"#utility.yul\":27197:27230   */\n      tag_831\n      jump\t// in\n    tag_830:\n        /* \"#utility.yul\":27107:27236   */\n      swap2\n      swap1\n      pop\n      jump\t// out\n        /* \"#utility.yul\":27242:27317   */\n    tag_829:\n        /* \"#utility.yul\":27275:27281   */\n      0x00\n        /* \"#utility.yul\":27308:27310   */\n      0x40\n        /* \"#utility.yul\":27302:27311   */\n      mload\n        /* \"#utility.yul\":27292:27311   */\n      swap1\n      pop\n        /* \"#utility.yul\":27242:27317   */\n      swap1\n      jump\t// out\n        /* \"#utility.yul\":27323:27634   */\n    tag_525:\n        /* \"#utility.yul\":27400:27404   */\n      0x00\n        /* \"#utility.yul\":27490:27508   */\n      0xffffffffffffffff\n        /* \"#utility.yul\":27482:27488   */\n      dup3\n        /* \"#utility.yul\":27479:27509   */\n      gt\n        /* \"#utility.yul\":27476:27532   */\n      iszero\n      tag_834\n      jumpi\n        /* \"#utility.yul\":27512:27530   */\n      tag_835\n      tag_170\n      jump\t// in\n    tag_835:\n        /* \"#utility.yul\":27476:27532   */\n    tag_834:\n        /* \"#utility.yul\":27562:27566   */\n      0x20\n        /* \"#utility.yul\":27554:27560   */\n      dup3\n        /* \"#utility.yul\":27550:27567   */\n      mul\n        /* \"#utility.yul\":27542:27567   */\n      swap1\n      pop\n        /* \"#utility.yul\":27622:27626   */\n      0x20\n        /* \"#utility.yul\":27616:27620   */\n      dup2\n        /* \"#utility.yul\":27612:27627   */\n      add\n        /* \"#utility.yul\":27604:27627   */\n      swap1\n      pop\n        /* \"#utility.yul\":27323:27634   */\n      swap2\n      swap1\n      pop\n      jump\t// out\n        /* \"#utility.yul\":27640:27772   */\n    tag_638:\n        /* \"#utility.yul\":27707:27711   */\n      0x00\n        /* \"#utility.yul\":27730:27733   */\n      dup2\n        /* \"#utility.yul\":27722:27733   */\n      swap1\n      pop\n        /* \"#utility.yul\":27760:27764   */\n      0x20\n        /* \"#utility.yul\":27755:27758   */\n      dup3\n        /* \"#utility.yul\":27751:27765   */\n      add\n        /* \"#utility.yul\":27743:27765   */\n      swap1\n      pop\n        /* \"#utility.yul\":27640:27772   */\n      swap2\n      swap1\n      pop\n      jump\t// out\n        /* \"#utility.yul\":27778:27892   */\n    tag_634:\n        /* \"#utility.yul\":27845:27851   */\n      0x00\n        /* \"#utility.yul\":27879:27884   */\n      dup2\n        /* \"#utility.yul\":27873:27885   */\n      mload\n        /* \"#utility.yul\":27863:27885   */\n      swap1\n      pop\n        /* \"#utility.yul\":27778:27892   */\n      swap2\n      swap1\n      pop\n      jump\t// out\n        /* \"#utility.yul\":27898:27996   */\n    tag_652:\n        /* \"#utility.yul\":27949:27955   */\n      0x00\n        /* \"#utility.yul\":27983:27988   */\n      dup2\n        /* \"#utility.yul\":27977:27989   */\n      mload\n        /* \"#utility.yul\":27967:27989   */\n      swap1\n      pop\n        /* \"#utility.yul\":27898:27996   */\n      swap2\n      swap1\n      pop\n      jump\t// out\n        /* \"#utility.yul\":28002:28101   */\n    tag_672:\n        /* \"#utility.yul\":28054:28060   */\n      0x00\n        /* \"#utility.yul\":28088:28093   */\n      dup2\n        /* \"#utility.yul\":28082:28094   */\n      mload\n        /* \"#utility.yul\":28072:28094   */\n      swap1\n      pop\n        /* \"#utility.yul\":28002:28101   */\n      swap2\n      swap1\n      pop\n      jump\t// out\n        /* \"#utility.yul\":28107:28220   */\n    tag_644:\n        /* \"#utility.yul\":28177:28181   */\n      0x00\n        /* \"#utility.yul\":28209:28213   */\n      0x20\n        /* \"#utility.yul\":28204:28207   */\n      dup3\n        /* \"#utility.yul\":28200:28214   */\n      add\n        /* \"#utility.yul\":28192:28214   */\n      swap1\n      pop\n        /* \"#utility.yul\":28107:28220   */\n      swap2\n      swap1\n      pop\n      jump\t// out\n        /* \"#utility.yul\":28226:28410   */\n    tag_636:\n        /* \"#utility.yul\":28325:28336   */\n      0x00\n        /* \"#utility.yul\":28359:28365   */\n      dup3\n        /* \"#utility.yul\":28354:28357   */\n      dup3\n        /* \"#utility.yul\":28347:28366   */\n      mstore\n        /* \"#utility.yul\":28399:28403   */\n      0x20\n        /* \"#utility.yul\":28394:28397   */\n      dup3\n        /* \"#utility.yul\":28390:28404   */\n      add\n        /* \"#utility.yul\":28375:28404   */\n      swap1\n      pop\n        /* \"#utility.yul\":28226:28410   */\n      swap3\n      swap2\n      pop\n      pop\n      jump\t// out\n        /* \"#utility.yul\":28416:28563   */\n    tag_654:\n        /* \"#utility.yul\":28517:28528   */\n      0x00\n        /* \"#utility.yul\":28554:28557   */\n      dup2\n        /* \"#utility.yul\":28539:28557   */\n      swap1\n      pop\n        /* \"#utility.yul\":28416:28563   */\n      swap3\n      swap2\n      pop\n      pop\n      jump\t// out\n        /* \"#utility.yul\":28569:28738   */\n    tag_674:\n        /* \"#utility.yul\":28653:28664   */\n      0x00\n        /* \"#utility.yul\":28687:28693   */\n      dup3\n        /* \"#utility.yul\":28682:28685   */\n      dup3\n        /* \"#utility.yul\":28675:28694   */\n      mstore\n        /* \"#utility.yul\":28727:28731   */\n      0x20\n        /* \"#utility.yul\":28722:28725   */\n      dup3\n        /* \"#utility.yul\":28718:28732   */\n      add\n        /* \"#utility.yul\":28703:28732   */\n      swap1\n      pop\n        /* \"#utility.yul\":28569:28738   */\n      swap3\n      swap2\n      pop\n      pop\n      jump\t// out\n        /* \"#utility.yul\":28744:29049   */\n    tag_437:\n        /* \"#utility.yul\":28784:28787   */\n      0x00\n        /* \"#utility.yul\":28803:28823   */\n      tag_845\n        /* \"#utility.yul\":28821:28822   */\n      dup3\n        /* \"#utility.yul\":28803:28823   */\n      tag_751\n      jump\t// in\n    tag_845:\n        /* \"#utility.yul\":28798:28823   */\n      swap2\n      pop\n        /* \"#utility.yul\":28837:28857   */\n      tag_846\n        /* \"#utility.yul\":28855:28856   */\n      dup4\n        /* \"#utility.yul\":28837:28857   */\n      tag_751\n      jump\t// in\n    tag_846:\n        /* \"#utility.yul\":28832:28857   */\n      swap3\n      pop\n        /* \"#utility.yul\":28991:28992   */\n      dup3\n        /* \"#utility.yul\":28923:28989   */\n      0xffffffffffffffffffffffffffffffffffffffffffffffffffffffffffffffff\n        /* \"#utility.yul\":28919:28993   */\n      sub\n        /* \"#utility.yul\":28916:28917   */\n      dup3\n        /* \"#utility.yul\":28913:28994   */\n      gt\n        /* \"#utility.yul\":28910:29017   */\n      iszero\n      tag_847\n      jumpi\n        /* \"#utility.yul\":28997:29015   */\n      tag_848\n      tag_849\n      jump\t// in\n    tag_848:\n        /* \"#utility.yul\":28910:29017   */\n    tag_847:\n        /* \"#utility.yul\":29041:29042   */\n      dup3\n        /* \"#utility.yul\":29038:29039   */\n      dup3\n        /* \"#utility.yul\":29034:29043   */\n      add\n        /* \"#utility.yul\":29027:29043   */\n      swap1\n      pop\n        /* \"#utility.yul\":28744:29049   */\n      swap3\n      swap2\n      pop\n      pop\n      jump\t// out\n        /* \"#utility.yul\":29055:29240   */\n    tag_251:\n        /* \"#utility.yul\":29095:29096   */\n      0x00\n        /* \"#utility.yul\":29112:29132   */\n      tag_851\n        /* \"#utility.yul\":29130:29131   */\n      dup3\n        /* \"#utility.yul\":29112:29132   */\n      tag_751\n      jump\t// in\n    tag_851:\n        /* \"#utility.yul\":29107:29132   */\n      swap2\n      pop\n        /* \"#utility.yul\":29146:29166   */\n      tag_852\n        /* \"#utility.yul\":29164:29165   */\n      dup4\n        /* \"#utility.yul\":29146:29166   */\n      tag_751\n      jump\t// in\n    tag_852:\n        /* \"#utility.yul\":29141:29166   */\n      swap3\n      pop\n        /* \"#utility.yul\":29185:29186   */\n      dup3\n        /* \"#utility.yul\":29175:29210   */\n      tag_853\n      jumpi\n        /* \"#utility.yul\":29190:29208   */\n      tag_854\n      tag_855\n      jump\t// in\n    tag_854:\n        /* \"#utility.yul\":29175:29210   */\n    tag_853:\n        /* \"#utility.yul\":29232:29233   */\n      dup3\n        /* \"#utility.yul\":29229:29230   */\n      dup3\n        /* \"#utility.yul\":29225:29234   */\n      div\n        /* \"#utility.yul\":29220:29234   */\n      swap1\n      pop\n        /* \"#utility.yul\":29055:29240   */\n      swap3\n      swap2\n      pop\n      pop\n      jump\t// out\n        /* \"#utility.yul\":29246:29594   */\n    tag_269:\n        /* \"#utility.yul\":29286:29293   */\n      0x00\n        /* \"#utility.yul\":29309:29329   */\n      tag_857\n        /* \"#utility.yul\":29327:29328   */\n      dup3\n        /* \"#utility.yul\":29309:29329   */\n      tag_751\n      jump\t// in\n    tag_857:\n        /* \"#utility.yul\":29304:29329   */\n      swap2\n      pop\n        /* \"#utility.yul\":29343:29363   */\n      tag_858\n        /* \"#utility.yul\":29361:29362   */\n      dup4\n        /* \"#utility.yul\":29343:29363   */\n      tag_751\n      jump\t// in\n    tag_858:\n        /* \"#utility.yul\":29338:29363   */\n      swap3\n      pop\n        /* \"#utility.yul\":29531:29532   */\n      dup2\n        /* \"#utility.yul\":29463:29529   */\n      0xffffffffffffffffffffffffffffffffffffffffffffffffffffffffffffffff\n        /* \"#utility.yul\":29459:29533   */\n      div\n        /* \"#utility.yul\":29456:29457   */\n      dup4\n        /* \"#utility.yul\":29453:29534   */\n      gt\n        /* \"#utility.yul\":29448:29449   */\n      dup3\n        /* \"#utility.yul\":29441:29450   */\n      iszero\n        /* \"#utility.yul\":29434:29451   */\n      iszero\n        /* \"#utility.yul\":29430:29535   */\n      and\n        /* \"#utility.yul\":29427:29558   */\n      iszero\n      tag_859\n      jumpi\n        /* \"#utility.yul\":29538:29556   */\n      tag_860\n      tag_849\n      jump\t// in\n    tag_860:\n        /* \"#utility.yul\":29427:29558   */\n    tag_859:\n        /* \"#utility.yul\":29586:29587   */\n      dup3\n        /* \"#utility.yul\":29583:29584   */\n      dup3\n        /* \"#utility.yul\":29579:29588   */\n      mul\n        /* \"#utility.yul\":29568:29588   */\n      swap1\n      pop\n        /* \"#utility.yul\":29246:29594   */\n      swap3\n      swap2\n      pop\n      pop\n      jump\t// out\n        /* \"#utility.yul\":29600:29791   */\n    tag_441:\n        /* \"#utility.yul\":29640:29644   */\n      0x00\n        /* \"#utility.yul\":29660:29680   */\n      tag_862\n        /* \"#utility.yul\":29678:29679   */\n      dup3\n        /* \"#utility.yul\":29660:29680   */\n      tag_751\n      jump\t// in\n    tag_862:\n        /* \"#utility.yul\":29655:29680   */\n      swap2\n      pop\n        /* \"#utility.yul\":29694:29714   */\n      tag_863\n        /* \"#utility.yul\":29712:29713   */\n      dup4\n        /* \"#utility.yul\":29694:29714   */\n      tag_751\n      jump\t// in\n    tag_863:\n        /* \"#utility.yul\":29689:29714   */\n      swap3\n      pop\n        /* \"#utility.yul\":29733:29734   */\n      dup3\n        /* \"#utility.yul\":29730:29731   */\n      dup3\n        /* \"#utility.yul\":29727:29735   */\n      lt\n        /* \"#utility.yul\":29724:29758   */\n      iszero\n      tag_864\n      jumpi\n        /* \"#utility.yul\":29738:29756   */\n      tag_865\n      tag_849\n      jump\t// in\n    tag_865:\n        /* \"#utility.yul\":29724:29758   */\n    tag_864:\n        /* \"#utility.yul\":29783:29784   */\n      dup3\n        /* \"#utility.yul\":29780:29781   */\n      dup3\n        /* \"#utility.yul\":29776:29785   */\n      sub\n        /* \"#utility.yul\":29768:29785   */\n      swap1\n      pop\n        /* \"#utility.yul\":29600:29791   */\n      swap3\n      swap2\n      pop\n      pop\n      jump\t// out\n        /* \"#utility.yul\":29797:29893   */\n    tag_627:\n        /* \"#utility.yul\":29834:29841   */\n      0x00\n        /* \"#utility.yul\":29863:29887   */\n      tag_867\n        /* \"#utility.yul\":29881:29886   */\n      dup3\n        /* \"#utility.yul\":29863:29887   */\n      tag_868\n      jump\t// in\n    tag_867:\n        /* \"#utility.yul\":29852:29887   */\n      swap1\n      pop\n        /* \"#utility.yul\":29797:29893   */\n      swap2\n      swap1\n      pop\n      jump\t// out\n        /* \"#utility.yul\":29899:29989   */\n    tag_648:\n        /* \"#utility.yul\":29933:29940   */\n      0x00\n        /* \"#utility.yul\":29976:29981   */\n      dup2\n        /* \"#utility.yul\":29969:29982   */\n      iszero\n        /* \"#utility.yul\":29962:29983   */\n      iszero\n        /* \"#utility.yul\":29951:29983   */\n      swap1\n      pop\n        /* \"#utility.yul\":29899:29989   */\n      swap2\n      swap1\n      pop\n      jump\t// out\n        /* \"#utility.yul\":29995:30109   */\n    tag_870:\n        /* \"#utility.yul\":30032:30039   */\n      0x00\n        /* \"#utility.yul\":30072:30102   */\n      0xffffffffffffffffffffffffffff\n        /* \"#utility.yul\":30065:30070   */\n      dup3\n        /* \"#utility.yul\":30061:30103   */\n      and\n        /* \"#utility.yul\":30050:30103   */\n      swap1\n      pop\n        /* \"#utility.yul\":29995:30109   */\n      swap2\n      swap1\n      pop\n      jump\t// out\n        /* \"#utility.yul\":30115:30241   */\n    tag_868:\n        /* \"#utility.yul\":30152:30159   */\n      0x00\n        /* \"#utility.yul\":30192:30234   */\n      0xffffffffffffffffffffffffffffffffffffffff\n        /* \"#utility.yul\":30185:30190   */\n      dup3\n        /* \"#utility.yul\":30181:30235   */\n      and\n        /* \"#utility.yul\":30170:30235   */\n      swap1\n      pop\n        /* \"#utility.yul\":30115:30241   */\n      swap2\n      swap1\n      pop\n      jump\t// out\n        /* \"#utility.yul\":30247:30324   */\n    tag_751:\n        /* \"#utility.yul\":30284:30291   */\n      0x00\n        /* \"#utility.yul\":30313:30318   */\n      dup2\n        /* \"#utility.yul\":30302:30318   */\n      swap1\n      pop\n        /* \"#utility.yul\":30247:30324   */\n      swap2\n      swap1\n      pop\n      jump\t// out\n        /* \"#utility.yul\":30330:30423   */\n    tag_874:\n        /* \"#utility.yul\":30366:30373   */\n      0x00\n        /* \"#utility.yul\":30406:30416   */\n      0xffffffff\n        /* \"#utility.yul\":30399:30404   */\n      dup3\n        /* \"#utility.yul\":30395:30417   */\n      and\n        /* \"#utility.yul\":30384:30417   */\n      swap1\n      pop\n        /* \"#utility.yul\":30330:30423   */\n      swap2\n      swap1\n      pop\n      jump\t// out\n        /* \"#utility.yul\":30429:30574   */\n    tag_660:\n        /* \"#utility.yul\":30498:30507   */\n      0x00\n        /* \"#utility.yul\":30531:30568   */\n      tag_877\n        /* \"#utility.yul\":30562:30567   */\n      dup3\n        /* \"#utility.yul\":30531:30568   */\n      tag_878\n      jump\t// in\n    tag_877:\n        /* \"#utility.yul\":30518:30568   */\n      swap1\n      pop\n        /* \"#utility.yul\":30429:30574   */\n      swap2\n      swap1\n      pop\n      jump\t// out\n        /* \"#utility.yul\":30580:30733   */\n    tag_664:\n        /* \"#utility.yul\":30657:30666   */\n      0x00\n        /* \"#utility.yul\":30690:30727   */\n      tag_880\n        /* \"#utility.yul\":30721:30726   */\n      dup3\n        /* \"#utility.yul\":30690:30727   */\n      tag_878\n      jump\t// in\n    tag_880:\n        /* \"#utility.yul\":30677:30727   */\n      swap1\n      pop\n        /* \"#utility.yul\":30580:30733   */\n      swap2\n      swap1\n      pop\n      jump\t// out\n        /* \"#utility.yul\":30739:30860   */\n    tag_668:\n        /* \"#utility.yul\":30797:30806   */\n      0x00\n        /* \"#utility.yul\":30830:30854   */\n      tag_882\n        /* \"#utility.yul\":30848:30853   */\n      dup3\n        /* \"#utility.yul\":30830:30854   */\n      tag_751\n      jump\t// in\n    tag_882:\n        /* \"#utility.yul\":30817:30854   */\n      swap1\n      pop\n        /* \"#utility.yul\":30739:30860   */\n      swap2\n      swap1\n      pop\n      jump\t// out\n        /* \"#utility.yul\":30866:30992   */\n    tag_878:\n        /* \"#utility.yul\":30916:30925   */\n      0x00\n        /* \"#utility.yul\":30949:30986   */\n      tag_884\n        /* \"#utility.yul\":30980:30985   */\n      dup3\n        /* \"#utility.yul\":30949:30986   */\n      tag_885\n      jump\t// in\n    tag_884:\n        /* \"#utility.yul\":30936:30986   */\n      swap1\n      pop\n        /* \"#utility.yul\":30866:30992   */\n      swap2\n      swap1\n      pop\n      jump\t// out\n        /* \"#utility.yul\":30998:31111   */\n    tag_885:\n        /* \"#utility.yul\":31048:31057   */\n      0x00\n        /* \"#utility.yul\":31081:31105   */\n      tag_887\n        /* \"#utility.yul\":31099:31104   */\n      dup3\n        /* \"#utility.yul\":31081:31105   */\n      tag_868\n      jump\t// in\n    tag_887:\n        /* \"#utility.yul\":31068:31105   */\n      swap1\n      pop\n        /* \"#utility.yul\":30998:31111   */\n      swap2\n      swap1\n      pop\n      jump\t// out\n        /* \"#utility.yul\":31117:31424   */\n    tag_656:\n        /* \"#utility.yul\":31185:31186   */\n      0x00\n        /* \"#utility.yul\":31195:31308   */\n    tag_889:\n        /* \"#utility.yul\":31209:31215   */\n      dup4\n        /* \"#utility.yul\":31206:31207   */\n      dup2\n        /* \"#utility.yul\":31203:31216   */\n      lt\n        /* \"#utility.yul\":31195:31308   */\n      iszero\n      tag_891\n      jumpi\n        /* \"#utility.yul\":31294:31295   */\n      dup1\n        /* \"#utility.yul\":31289:31292   */\n      dup3\n        /* \"#utility.yul\":31285:31296   */\n      add\n        /* \"#utility.yul\":31279:31297   */\n      mload\n        /* \"#utility.yul\":31275:31276   */\n      dup2\n        /* \"#utility.yul\":31270:31273   */\n      dup5\n        /* \"#utility.yul\":31266:31277   */\n      add\n        /* \"#utility.yul\":31259:31298   */\n      mstore\n        /* \"#utility.yul\":31231:31233   */\n      0x20\n        /* \"#utility.yul\":31228:31229   */\n      dup2\n        /* \"#utility.yul\":31224:31234   */\n      add\n        /* \"#utility.yul\":31219:31234   */\n      swap1\n      pop\n        /* \"#utility.yul\":31195:31308   */\n      jump(tag_889)\n    tag_891:\n        /* \"#utility.yul\":31326:31332   */\n      dup4\n        /* \"#utility.yul\":31323:31324   */\n      dup2\n        /* \"#utility.yul\":31320:31333   */\n      gt\n        /* \"#utility.yul\":31317:31418   */\n      iszero\n      tag_892\n      jumpi\n        /* \"#utility.yul\":31406:31407   */\n      0x00\n        /* \"#utility.yul\":31397:31403   */\n      dup5\n        /* \"#utility.yul\":31392:31395   */\n      dup5\n        /* \"#utility.yul\":31388:31404   */\n      add\n        /* \"#utility.yul\":31381:31408   */\n      mstore\n        /* \"#utility.yul\":31317:31418   */\n    tag_892:\n        /* \"#utility.yul\":31166:31424   */\n      pop\n        /* \"#utility.yul\":31117:31424   */\n      pop\n      pop\n      pop\n      jump\t// out\n        /* \"#utility.yul\":31430:31711   */\n    tag_831:\n        /* \"#utility.yul\":31513:31540   */\n      tag_894\n        /* \"#utility.yul\":31535:31539   */\n      dup3\n        /* \"#utility.yul\":31513:31540   */\n      tag_677\n      jump\t// in\n    tag_894:\n        /* \"#utility.yul\":31505:31511   */\n      dup2\n        /* \"#utility.yul\":31501:31541   */\n      add\n        /* \"#utility.yul\":31643:31649   */\n      dup2\n        /* \"#utility.yul\":31631:31641   */\n      dup2\n        /* \"#utility.yul\":31628:31650   */\n      lt\n        /* \"#utility.yul\":31607:31625   */\n      0xffffffffffffffff\n        /* \"#utility.yul\":31595:31605   */\n      dup3\n        /* \"#utility.yul\":31592:31626   */\n      gt\n        /* \"#utility.yul\":31589:31651   */\n      or\n        /* \"#utility.yul\":31586:31674   */\n      iszero\n      tag_895\n      jumpi\n        /* \"#utility.yul\":31654:31672   */\n      tag_896\n      tag_170\n      jump\t// in\n    tag_896:\n        /* \"#utility.yul\":31586:31674   */\n    tag_895:\n        /* \"#utility.yul\":31694:31704   */\n      dup1\n        /* \"#utility.yul\":31690:31692   */\n      0x40\n        /* \"#utility.yul\":31683:31705   */\n      mstore\n        /* \"#utility.yul\":31473:31711   */\n      pop\n        /* \"#utility.yul\":31430:31711   */\n      pop\n      pop\n      jump\t// out\n        /* \"#utility.yul\":31717:31950   */\n    tag_425:\n        /* \"#utility.yul\":31756:31759   */\n      0x00\n        /* \"#utility.yul\":31779:31803   */\n      tag_898\n        /* \"#utility.yul\":31797:31802   */\n      dup3\n        /* \"#utility.yul\":31779:31803   */\n      tag_751\n      jump\t// in\n    tag_898:\n        /* \"#utility.yul\":31770:31803   */\n      swap2\n      pop\n        /* \"#utility.yul\":31825:31891   */\n      0xffffffffffffffffffffffffffffffffffffffffffffffffffffffffffffffff\n        /* \"#utility.yul\":31818:31823   */\n      dup3\n        /* \"#utility.yul\":31815:31892   */\n      eq\n        /* \"#utility.yul\":31812:31915   */\n      iszero\n      tag_899\n      jumpi\n        /* \"#utility.yul\":31895:31913   */\n      tag_900\n      tag_849\n      jump\t// in\n    tag_900:\n        /* \"#utility.yul\":31812:31915   */\n    tag_899:\n        /* \"#utility.yul\":31942:31943   */\n      0x01\n        /* \"#utility.yul\":31935:31940   */\n      dup3\n        /* \"#utility.yul\":31931:31944   */\n      add\n        /* \"#utility.yul\":31924:31944   */\n      swap1\n      pop\n        /* \"#utility.yul\":31717:31950   */\n      swap2\n      swap1\n      pop\n      jump\t// out\n        /* \"#utility.yul\":31956:32136   */\n    tag_19:\n        /* \"#utility.yul\":32004:32081   */\n      0x4e487b7100000000000000000000000000000000000000000000000000000000\n        /* \"#utility.yul\":32001:32002   */\n      0x00\n        /* \"#utility.yul\":31994:32082   */\n      mstore\n        /* \"#utility.yul\":32101:32105   */\n      0x01\n        /* \"#utility.yul\":32098:32099   */\n      0x04\n        /* \"#utility.yul\":32091:32106   */\n      mstore\n        /* \"#utility.yul\":32125:32129   */\n      0x24\n        /* \"#utility.yul\":32122:32123   */\n      0x00\n        /* \"#utility.yul\":32115:32130   */\n      revert\n        /* \"#utility.yul\":32142:32322   */\n    tag_849:\n        /* \"#utility.yul\":32190:32267   */\n      0x4e487b7100000000000000000000000000000000000000000000000000000000\n        /* \"#utility.yul\":32187:32188   */\n      0x00\n        /* \"#utility.yul\":32180:32268   */\n      mstore\n        /* \"#utility.yul\":32287:32291   */\n      0x11\n        /* \"#utility.yul\":32284:32285   */\n      0x04\n        /* \"#utility.yul\":32277:32292   */\n      mstore\n        /* \"#utility.yul\":32311:32315   */\n      0x24\n        /* \"#utility.yul\":32308:32309   */\n      0x00\n        /* \"#utility.yul\":32301:32316   */\n      revert\n        /* \"#utility.yul\":32328:32508   */\n    tag_855:\n        /* \"#utility.yul\":32376:32453   */\n      0x4e487b7100000000000000000000000000000000000000000000000000000000\n        /* \"#utility.yul\":32373:32374   */\n      0x00\n        /* \"#utility.yul\":32366:32454   */\n      mstore\n        /* \"#utility.yul\":32473:32477   */\n      0x12\n        /* \"#utility.yul\":32470:32471   */\n      0x04\n        /* \"#utility.yul\":32463:32478   */\n      mstore\n        /* \"#utility.yul\":32497:32501   */\n      0x24\n        /* \"#utility.yul\":32494:32495   */\n      0x00\n        /* \"#utility.yul\":32487:32502   */\n      revert\n        /* \"#utility.yul\":32514:32694   */\n    tag_178:\n        /* \"#utility.yul\":32562:32639   */\n      0x4e487b7100000000000000000000000000000000000000000000000000000000\n        /* \"#utility.yul\":32559:32560   */\n      0x00\n        /* \"#utility.yul\":32552:32640   */\n      mstore\n        /* \"#utility.yul\":32659:32663   */\n      0x32\n        /* \"#utility.yul\":32656:32657   */\n      0x04\n        /* \"#utility.yul\":32649:32664   */\n      mstore\n        /* \"#utility.yul\":32683:32687   */\n      0x24\n        /* \"#utility.yul\":32680:32681   */\n      0x00\n        /* \"#utility.yul\":32673:32688   */\n      revert\n        /* \"#utility.yul\":32700:32880   */\n    tag_170:\n        /* \"#utility.yul\":32748:32825   */\n      0x4e487b7100000000000000000000000000000000000000000000000000000000\n        /* \"#utility.yul\":32745:32746   */\n      0x00\n        /* \"#utility.yul\":32738:32826   */\n      mstore\n        /* \"#utility.yul\":32845:32849   */\n      0x41\n        /* \"#utility.yul\":32842:32843   */\n      0x04\n        /* \"#utility.yul\":32835:32850   */\n      mstore\n        /* \"#utility.yul\":32869:32873   */\n      0x24\n        /* \"#utility.yul\":32866:32867   */\n      0x00\n        /* \"#utility.yul\":32859:32874   */\n      revert\n        /* \"#utility.yul\":32886:33003   */\n    tag_546:\n        /* \"#utility.yul\":32995:32996   */\n      0x00\n        /* \"#utility.yul\":32992:32993   */\n      dup1\n        /* \"#utility.yul\":32985:32997   */\n      revert\n        /* \"#utility.yul\":33009:33126   */\n    tag_529:\n        /* \"#utility.yul\":33118:33119   */\n      0x00\n        /* \"#utility.yul\":33115:33116   */\n      dup1\n        /* \"#utility.yul\":33108:33120   */\n      revert\n        /* \"#utility.yul\":33132:33249   */\n    tag_594:\n        /* \"#utility.yul\":33241:33242   */\n      0x00\n        /* \"#utility.yul\":33238:33239   */\n      dup1\n        /* \"#utility.yul\":33231:33243   */\n      revert\n        /* \"#utility.yul\":33255:33372   */\n    tag_569:\n        /* \"#utility.yul\":33364:33365   */\n      0x00\n        /* \"#utility.yul\":33361:33362   */\n      dup1\n        /* \"#utility.yul\":33354:33366   */\n      revert\n        /* \"#utility.yul\":33378:33480   */\n    tag_677:\n        /* \"#utility.yul\":33419:33425   */\n      0x00\n        /* \"#utility.yul\":33470:33472   */\n      0x1f\n        /* \"#utility.yul\":33466:33473   */\n      not\n        /* \"#utility.yul\":33461:33463   */\n      0x1f\n        /* \"#utility.yul\":33454:33459   */\n      dup4\n        /* \"#utility.yul\":33450:33464   */\n      add\n        /* \"#utility.yul\":33446:33474   */\n      and\n        /* \"#utility.yul\":33436:33474   */\n      swap1\n      pop\n        /* \"#utility.yul\":33378:33480   */\n      swap2\n      swap1\n      pop\n      jump\t// out\n        /* \"#utility.yul\":33486:33714   */\n    tag_682:\n        /* \"#utility.yul\":33626:33660   */\n      0x44796f733a20496e636f6d70617469626c65206c697175696469747920706169\n        /* \"#utility.yul\":33622:33623   */\n      0x00\n        /* \"#utility.yul\":33614:33620   */\n      dup3\n        /* \"#utility.yul\":33610:33624   */\n      add\n        /* \"#utility.yul\":33603:33661   */\n      mstore\n        /* \"#utility.yul\":33695:33706   */\n      0x7220666163746f72790000000000000000000000000000000000000000000000\n        /* \"#utility.yul\":33690:33692   */\n      0x20\n        /* \"#utility.yul\":33682:33688   */\n      dup3\n        /* \"#utility.yul\":33678:33693   */\n      add\n        /* \"#utility.yul\":33671:33707   */\n      mstore\n        /* \"#utility.yul\":33486:33714   */\n      pop\n      jump\t// out\n        /* \"#utility.yul\":33720:33902   */\n    tag_687:\n        /* \"#utility.yul\":33860:33894   */\n      0x44796f733a20496e7369676e69666963616e7420696e70757420616d6f756e74\n        /* \"#utility.yul\":33856:33857   */\n      0x00\n        /* \"#utility.yul\":33848:33854   */\n      dup3\n        /* \"#utility.yul\":33844:33858   */\n      add\n        /* \"#utility.yul\":33837:33895   */\n      mstore\n        /* \"#utility.yul\":33720:33902   */\n      pop\n      jump\t// out\n        /* \"#utility.yul\":33908:34084   */\n    tag_692:\n        /* \"#utility.yul\":34048:34076   */\n      0x42656566793a20455448207472616e73666572206661696c6564000000000000\n        /* \"#utility.yul\":34044:34045   */\n      0x00\n        /* \"#utility.yul\":34036:34042   */\n      dup3\n        /* \"#utility.yul\":34032:34046   */\n      add\n        /* \"#utility.yul\":34025:34077   */\n      mstore\n        /* \"#utility.yul\":33908:34084   */\n      pop\n      jump\t// out\n        /* \"#utility.yul\":34090:34323   */\n    tag_697:\n        /* \"#utility.yul\":34230:34264   */\n      0x44796f733a20496e70757420746f6b656e206e6f742070726573656e7420696e\n        /* \"#utility.yul\":34226:34227   */\n      0x00\n        /* \"#utility.yul\":34218:34224   */\n      dup3\n        /* \"#utility.yul\":34214:34228   */\n      add\n        /* \"#utility.yul\":34207:34265   */\n      mstore\n        /* \"#utility.yul\":34299:34315   */\n      0x206c697175646974792070616972000000000000000000000000000000000000\n        /* \"#utility.yul\":34294:34296   */\n      0x20\n        /* \"#utility.yul\":34286:34292   */\n      dup3\n        /* \"#utility.yul\":34282:34297   */\n      add\n        /* \"#utility.yul\":34275:34316   */\n      mstore\n        /* \"#utility.yul\":34090:34323   */\n      pop\n      jump\t// out\n        /* \"#utility.yul\":34329:34554   */\n    tag_702:\n        /* \"#utility.yul\":34469:34503   */\n      0x556e69737761705632526f757465723a20494e53554646494349454e545f425f\n        /* \"#utility.yul\":34465:34466   */\n      0x00\n        /* \"#utility.yul\":34457:34463   */\n      dup3\n        /* \"#utility.yul\":34453:34467   */\n      add\n        /* \"#utility.yul\":34446:34504   */\n      mstore\n        /* \"#utility.yul\":34538:34546   */\n      0x414d4f554e540000000000000000000000000000000000000000000000000000\n        /* \"#utility.yul\":34533:34535   */\n      0x20\n        /* \"#utility.yul\":34525:34531   */\n      dup3\n        /* \"#utility.yul\":34521:34536   */\n      add\n        /* \"#utility.yul\":34514:34547   */\n      mstore\n        /* \"#utility.yul\":34329:34554   */\n      pop\n      jump\t// out\n        /* \"#utility.yul\":34560:34785   */\n    tag_707:\n        /* \"#utility.yul\":34700:34734   */\n      0x416464726573733a20696e73756666696369656e742062616c616e636520666f\n        /* \"#utility.yul\":34696:34697   */\n      0x00\n        /* \"#utility.yul\":34688:34694   */\n      dup3\n        /* \"#utility.yul\":34684:34698   */\n      add\n        /* \"#utility.yul\":34677:34735   */\n      mstore\n        /* \"#utility.yul\":34769:34777   */\n      0x722063616c6c0000000000000000000000000000000000000000000000000000\n        /* \"#utility.yul\":34764:34766   */\n      0x20\n        /* \"#utility.yul\":34756:34762   */\n      dup3\n        /* \"#utility.yul\":34752:34767   */\n      add\n        /* \"#utility.yul\":34745:34778   */\n      mstore\n        /* \"#utility.yul\":34560:34785   */\n      pop\n      jump\t// out\n        /* \"#utility.yul\":34791:35011   */\n    tag_712:\n        /* \"#utility.yul\":34931:34965   */\n      0x44796f733a20496e70757420746f6b656e206973206e6f7420617070726f7665\n        /* \"#utility.yul\":34927:34928   */\n      0x00\n        /* \"#utility.yul\":34919:34925   */\n      dup3\n        /* \"#utility.yul\":34915:34929   */\n      add\n        /* \"#utility.yul\":34908:34966   */\n      mstore\n        /* \"#utility.yul\":35000:35003   */\n      0x6400000000000000000000000000000000000000000000000000000000000000\n        /* \"#utility.yul\":34995:34997   */\n      0x20\n        /* \"#utility.yul\":34987:34993   */\n      dup3\n        /* \"#utility.yul\":34983:34998   */\n      add\n        /* \"#utility.yul\":34976:35004   */\n      mstore\n        /* \"#utility.yul\":34791:35011   */\n      pop\n      jump\t// out\n        /* \"#utility.yul\":35017:35241   */\n    tag_717:\n        /* \"#utility.yul\":35157:35191   */\n      0x44796f733a204c6971756964697479207061697220726573657276657320746f\n        /* \"#utility.yul\":35153:35154   */\n      0x00\n        /* \"#utility.yul\":35145:35151   */\n      dup3\n        /* \"#utility.yul\":35141:35155   */\n      add\n        /* \"#utility.yul\":35134:35192   */\n      mstore\n        /* \"#utility.yul\":35226:35233   */\n      0x6f206c6f77000000000000000000000000000000000000000000000000000000\n        /* \"#utility.yul\":35221:35223   */\n      0x20\n        /* \"#utility.yul\":35213:35219   */\n      dup3\n        /* \"#utility.yul\":35209:35224   */\n      add\n        /* \"#utility.yul\":35202:35234   */\n      mstore\n        /* \"#utility.yul\":35017:35241   */\n      pop\n      jump\t// out\n        /* \"#utility.yul\":35247:35479   */\n    tag_722:\n        /* \"#utility.yul\":35387:35421   */\n      0x44796f733a20574554482061646472657373206e6f74206d61746368696e6720\n        /* \"#utility.yul\":35383:35384   */\n      0x00\n        /* \"#utility.yul\":35375:35381   */\n      dup3\n        /* \"#utility.yul\":35371:35385   */\n      add\n        /* \"#utility.yul\":35364:35422   */\n      mstore\n        /* \"#utility.yul\":35456:35471   */\n      0x526f757465722e57455448282900000000000000000000000000000000000000\n        /* \"#utility.yul\":35451:35453   */\n      0x20\n        /* \"#utility.yul\":35443:35449   */\n      dup3\n        /* \"#utility.yul\":35439:35454   */\n      add\n        /* \"#utility.yul\":35432:35472   */\n      mstore\n        /* \"#utility.yul\":35247:35479   */\n      pop\n      jump\t// out\n        /* \"#utility.yul\":35485:35664   */\n    tag_727:\n        /* \"#utility.yul\":35625:35656   */\n      0x416464726573733a2063616c6c20746f206e6f6e2d636f6e7472616374000000\n        /* \"#utility.yul\":35621:35622   */\n      0x00\n        /* \"#utility.yul\":35613:35619   */\n      dup3\n        /* \"#utility.yul\":35609:35623   */\n      add\n        /* \"#utility.yul\":35602:35657   */\n      mstore\n        /* \"#utility.yul\":35485:35664   */\n      pop\n      jump\t// out\n        /* \"#utility.yul\":35670:35895   */\n    tag_732:\n        /* \"#utility.yul\":35810:35844   */\n      0x556e69737761705632526f757465723a20494e53554646494349454e545f415f\n        /* \"#utility.yul\":35806:35807   */\n      0x00\n        /* \"#utility.yul\":35798:35804   */\n      dup3\n        /* \"#utility.yul\":35794:35808   */\n      add\n        /* \"#utility.yul\":35787:35845   */\n      mstore\n        /* \"#utility.yul\":35879:35887   */\n      0x414d4f554e540000000000000000000000000000000000000000000000000000\n        /* \"#utility.yul\":35874:35876   */\n      0x20\n        /* \"#utility.yul\":35866:35872   */\n      dup3\n        /* \"#utility.yul\":35862:35877   */\n      add\n        /* \"#utility.yul\":35855:35888   */\n      mstore\n        /* \"#utility.yul\":35670:35895   */\n      pop\n      jump\t// out\n        /* \"#utility.yul\":35901:36130   */\n    tag_737:\n        /* \"#utility.yul\":36041:36075   */\n      0x5361666545524332303a204552433230206f7065726174696f6e20646964206e\n        /* \"#utility.yul\":36037:36038   */\n      0x00\n        /* \"#utility.yul\":36029:36035   */\n      dup3\n        /* \"#utility.yul\":36025:36039   */\n      add\n        /* \"#utility.yul\":36018:36076   */\n      mstore\n        /* \"#utility.yul\":36110:36122   */\n      0x6f74207375636365656400000000000000000000000000000000000000000000\n        /* \"#utility.yul\":36105:36107   */\n      0x20\n        /* \"#utility.yul\":36097:36103   */\n      dup3\n        /* \"#utility.yul\":36093:36108   */\n      add\n        /* \"#utility.yul\":36086:36123   */\n      mstore\n        /* \"#utility.yul\":35901:36130   */\n      pop\n      jump\t// out\n        /* \"#utility.yul\":36136:36377   */\n    tag_742:\n        /* \"#utility.yul\":36276:36310   */\n      0x5361666545524332303a20617070726f76652066726f6d206e6f6e2d7a65726f\n        /* \"#utility.yul\":36272:36273   */\n      0x00\n        /* \"#utility.yul\":36264:36270   */\n      dup3\n        /* \"#utility.yul\":36260:36274   */\n      add\n        /* \"#utility.yul\":36253:36311   */\n      mstore\n        /* \"#utility.yul\":36345:36369   */\n      0x20746f206e6f6e2d7a65726f20616c6c6f77616e636500000000000000000000\n        /* \"#utility.yul\":36340:36342   */\n      0x20\n        /* \"#utility.yul\":36332:36338   */\n      dup3\n        /* \"#utility.yul\":36328:36343   */\n      add\n        /* \"#utility.yul\":36321:36370   */\n      mstore\n        /* \"#utility.yul\":36136:36377   */\n      pop\n      jump\t// out\n        /* \"#utility.yul\":36383:36618   */\n    tag_747:\n        /* \"#utility.yul\":36523:36557   */\n      0x44796f733a206465736972656420746f6b656e206e6f742070726573656e7420\n        /* \"#utility.yul\":36519:36520   */\n      0x00\n        /* \"#utility.yul\":36511:36517   */\n      dup3\n        /* \"#utility.yul\":36507:36521   */\n      add\n        /* \"#utility.yul\":36500:36558   */\n      mstore\n        /* \"#utility.yul\":36592:36610   */\n      0x696e206c69717564697479207061697200000000000000000000000000000000\n        /* \"#utility.yul\":36587:36589   */\n      0x20\n        /* \"#utility.yul\":36579:36585   */\n      dup3\n        /* \"#utility.yul\":36575:36590   */\n      add\n        /* \"#utility.yul\":36568:36611   */\n      mstore\n        /* \"#utility.yul\":36383:36618   */\n      pop\n      jump\t// out\n        /* \"#utility.yul\":36624:36746   */\n    tag_538:\n        /* \"#utility.yul\":36697:36721   */\n      tag_926\n        /* \"#utility.yul\":36715:36720   */\n      dup2\n        /* \"#utility.yul\":36697:36721   */\n      tag_627\n      jump\t// in\n    tag_926:\n        /* \"#utility.yul\":36690:36695   */\n      dup2\n        /* \"#utility.yul\":36687:36722   */\n      eq\n        /* \"#utility.yul\":36677:36740   */\n      tag_927\n      jumpi\n        /* \"#utility.yul\":36736:36737   */\n      0x00\n        /* \"#utility.yul\":36733:36734   */\n      dup1\n        /* \"#utility.yul\":36726:36738   */\n      revert\n        /* \"#utility.yul\":36677:36740   */\n    tag_927:\n        /* \"#utility.yul\":36624:36746   */\n      pop\n      jump\t// out\n        /* \"#utility.yul\":36752:36868   */\n    tag_551:\n        /* \"#utility.yul\":36822:36843   */\n      tag_929\n        /* \"#utility.yul\":36837:36842   */\n      dup2\n        /* \"#utility.yul\":36822:36843   */\n      tag_648\n      jump\t// in\n    tag_929:\n        /* \"#utility.yul\":36815:36820   */\n      dup2\n        /* \"#utility.yul\":36812:36844   */\n      eq\n        /* \"#utility.yul\":36802:36862   */\n      tag_930\n      jumpi\n        /* \"#utility.yul\":36858:36859   */\n      0x00\n        /* \"#utility.yul\":36855:36856   */\n      dup1\n        /* \"#utility.yul\":36848:36860   */\n      revert\n        /* \"#utility.yul\":36802:36862   */\n    tag_930:\n        /* \"#utility.yul\":36752:36868   */\n      pop\n      jump\t// out\n        /* \"#utility.yul\":36874:36996   */\n    tag_555:\n        /* \"#utility.yul\":36947:36971   */\n      tag_932\n        /* \"#utility.yul\":36965:36970   */\n      dup2\n        /* \"#utility.yul\":36947:36971   */\n      tag_870\n      jump\t// in\n    tag_932:\n        /* \"#utility.yul\":36940:36945   */\n      dup2\n        /* \"#utility.yul\":36937:36972   */\n      eq\n        /* \"#utility.yul\":36927:36990   */\n      tag_933\n      jumpi\n        /* \"#utility.yul\":36986:36987   */\n      0x00\n        /* \"#utility.yul\":36983:36984   */\n      dup1\n        /* \"#utility.yul\":36976:36988   */\n      revert\n        /* \"#utility.yul\":36927:36990   */\n    tag_933:\n        /* \"#utility.yul\":36874:36996   */\n      pop\n      jump\t// out\n        /* \"#utility.yul\":37002:37124   */\n    tag_559:\n        /* \"#utility.yul\":37075:37099   */\n      tag_935\n        /* \"#utility.yul\":37093:37098   */\n      dup2\n        /* \"#utility.yul\":37075:37099   */\n      tag_751\n      jump\t// in\n    tag_935:\n        /* \"#utility.yul\":37068:37073   */\n      dup2\n        /* \"#utility.yul\":37065:37100   */\n      eq\n        /* \"#utility.yul\":37055:37118   */\n      tag_936\n      jumpi\n        /* \"#utility.yul\":37114:37115   */\n      0x00\n        /* \"#utility.yul\":37111:37112   */\n      dup1\n        /* \"#utility.yul\":37104:37116   */\n      revert\n        /* \"#utility.yul\":37055:37118   */\n    tag_936:\n        /* \"#utility.yul\":37002:37124   */\n      pop\n      jump\t// out\n        /* \"#utility.yul\":37130:37250   */\n    tag_565:\n        /* \"#utility.yul\":37202:37225   */\n      tag_938\n        /* \"#utility.yul\":37219:37224   */\n      dup2\n        /* \"#utility.yul\":37202:37225   */\n      tag_874\n      jump\t// in\n    tag_938:\n        /* \"#utility.yul\":37195:37200   */\n      dup2\n        /* \"#utility.yul\":37192:37226   */\n      eq\n        /* \"#utility.yul\":37182:37244   */\n      tag_939\n      jumpi\n        /* \"#utility.yul\":37240:37241   */\n      0x00\n        /* \"#utility.yul\":37237:37238   */\n      dup1\n        /* \"#utility.yul\":37230:37242   */\n      revert\n        /* \"#utility.yul\":37182:37244   */\n    tag_939:\n        /* \"#utility.yul\":37130:37250   */\n      pop\n      jump\t// out\n\n    auxdata: 0xa2646970667358221220bb103dd3fc68f42a918f94eca9e646bf7bcf692753fe63bef83c4b257f9e1bca64736f6c63430008070033\n}\n",
				"bytecode": {
					"linkReferences": {},
					"object": "60c06040523480156200001157600080fd5b506040516200464f3803806200464f83398181016040528101906200003791906200011c565b8273ffffffffffffffffffffffffffffffffffffffff1660808173ffffffffffffffffffffffffffffffffffffffff1660601b815250508173ffffffffffffffffffffffffffffffffffffffff1660a08173ffffffffffffffffffffffffffffffffffffffff1660601b81525050806000806101000a81548173ffffffffffffffffffffffffffffffffffffffff021916908373ffffffffffffffffffffffffffffffffffffffff160217905550505050620001f9565b600081519050620000ff81620001c5565b92915050565b6000815190506200011681620001df565b92915050565b600080600060608486031215620001385762000137620001c0565b5b60006200014886828701620000ee565b93505060206200015b86828701620000ee565b92505060406200016e8682870162000105565b9150509250925092565b60006200018582620001a0565b9050919050565b6000620001998262000178565b9050919050565b600073ffffffffffffffffffffffffffffffffffffffff82169050919050565b600080fd5b620001d08162000178565b8114620001dc57600080fd5b50565b620001ea816200018c565b8114620001f657600080fd5b50565b60805160601c60a05160601c6143a6620002a96000396000818160a7015281816108e90152818161096f01528181610a4f01528181610acc01528181610b9e01528181610c72015281816125b3015261262101526000818161058f0152818161099b01528181611300015281816113260152818161147c01528181611526015281816116c70152818161177801528181611e8c01528181611eb401528181611f8d0152611fb501526143a66000f3fe6080604052600436106100a05760003560e01c8063ad5c464811610064578063ad5c4648146101e2578063bb0c82981461020d578063d9139f6314610238578063ddca3f4314610261578063f3cc669a1461028c578063f887ea40146102b557610103565b806305268cff146101085780633f2f869a1461013357806372f8b6cd146101725780637db9b1f41461019b5780638437fabe146101b757610103565b36610103577f000000000000000000000000000000000000000000000000000000000000000073ffffffffffffffffffffffffffffffffffffffff163373ffffffffffffffffffffffffffffffffffffffff161461010157610100613e0d565b5b005b600080fd5b34801561011457600080fd5b5061011d6102e0565b60405161012a91906137c8565b60405180910390f35b34801561013f57600080fd5b5061015a600480360381019061015591906130be565b610304565b604051610169939291906139fb565b60405180910390f35b34801561017e57600080fd5b5061019960048036038101906101949190613151565b610752565b005b6101b560048036038101906101b09190613111565b6108a2565b005b3480156101c357600080fd5b506101cc610997565b6040516101d991906137ad565b60405180910390f35b3480156101ee57600080fd5b506101f7610aca565b604051610204919061368b565b60405180910390f35b34801561021957600080fd5b50610222610aee565b60405161022f91906139e0565b60405180910390f35b34801561024457600080fd5b5061025f600480360381019061025a9190613111565b610af4565b005b34801561026d57600080fd5b50610276610f55565b60405161028391906139e0565b60405180910390f35b34801561029857600080fd5b506102b360048036038101906102ae9190613151565b610f5a565b005b3480156102c157600080fd5b506102ca61147a565b6040516102d791906137e3565b60405180910390f35b60008054906101000a900473ffffffffffffffffffffffffffffffffffffffff1681565b6000806000610311610997565b50600061031d8761149e565b91505060008673ffffffffffffffffffffffffffffffffffffffff168273ffffffffffffffffffffffffffffffffffffffff16630dfe16816040518163ffffffff1660e01b815260040160206040518083038186803b15801561037f57600080fd5b505afa158015610393573d6000803e3d6000fd5b505050506040513d601f19601f820116820180604052508101906103b79190613091565b73ffffffffffffffffffffffffffffffffffffffff16149050808061048457508673ffffffffffffffffffffffffffffffffffffffff168273ffffffffffffffffffffffffffffffffffffffff1663d21220a76040518163ffffffff1660e01b815260040160206040518083038186803b15801561043457600080fd5b505afa158015610448573d6000803e3d6000fd5b505050506040513d601f19601f8201168201806040525081019061046c9190613091565b73ffffffffffffffffffffffffffffffffffffffff16145b6104c3576040517f08c379a00000000000000000000000000000000000000000000000000000000081526004016104ba90613880565b60405180910390fd5b6000808373ffffffffffffffffffffffffffffffffffffffff16630902f1ac6040518163ffffffff1660e01b815260040160606040518083038186803b15801561050c57600080fd5b505afa158015610520573d6000803e3d6000fd5b505050506040513d601f19601f82011682018060405250810190610544919061322e565b506dffffffffffffffffffffffffffff1691506dffffffffffffffffffffffffffff16915082610575578082610578565b81815b809250819350505061058b8883836116b1565b96507f000000000000000000000000000000000000000000000000000000000000000073ffffffffffffffffffffffffffffffffffffffff1663054d50d48884846040518463ffffffff1660e01b81526004016105ea93929190613a8c565b60206040518083038186803b15801561060257600080fd5b505afa158015610616573d6000803e3d6000fd5b505050506040513d601f19601f8201168201806040525081019061063a9190613281565b9550826106c4578373ffffffffffffffffffffffffffffffffffffffff16630dfe16816040518163ffffffff1660e01b815260040160206040518083038186803b15801561068757600080fd5b505afa15801561069b573d6000803e3d6000fd5b505050506040513d601f19601f820116820180604052508101906106bf9190613091565b610743565b8373ffffffffffffffffffffffffffffffffffffffff1663d21220a76040518163ffffffff1660e01b815260040160206040518083038186803b15801561070a57600080fd5b505afa15801561071e573d6000803e3d6000fd5b505050506040513d601f19601f820116820180604052508101906107429190613091565b5b94505050505093509350939050565b6103e8811015610797576040517f08c379a000000000000000000000000000000000000000000000000000000000815260040161078e90613840565b60405180910390fd5b808273ffffffffffffffffffffffffffffffffffffffff1663dd62ed3e33306040518363ffffffff1660e01b81526004016107d39291906136a6565b60206040518083038186803b1580156107eb57600080fd5b505afa1580156107ff573d6000803e3d6000fd5b505050506040513d601f19601f820116820180604052508101906108239190613281565b1015610864576040517f08c379a000000000000000000000000000000000000000000000000000000000815260040161085b906138e0565b60405180910390fd5b6108913330838573ffffffffffffffffffffffffffffffffffffffff16611891909392919063ffffffff16565b61089c84848461191a565b50505050565b6103e83410156108e7576040517f08c379a00000000000000000000000000000000000000000000000000000000081526004016108de90613840565b60405180910390fd5b7f000000000000000000000000000000000000000000000000000000000000000073ffffffffffffffffffffffffffffffffffffffff1663d0e30db0346040518263ffffffff1660e01b81526004016000604051808303818588803b15801561094f57600080fd5b505af1158015610963573d6000803e3d6000fd5b505050505061099382827f000000000000000000000000000000000000000000000000000000000000000061191a565b5050565b60007f000000000000000000000000000000000000000000000000000000000000000073ffffffffffffffffffffffffffffffffffffffff1663ad5c46486040518163ffffffff1660e01b815260040160206040518083038186803b1580156109ff57600080fd5b505afa158015610a13573d6000803e3d6000fd5b505050506040513d601f19601f82011682018060405250810190610a379190613091565b73ffffffffffffffffffffffffffffffffffffffff167f000000000000000000000000000000000000000000000000000000000000000073ffffffffffffffffffffffffffffffffffffffff1614905080610ac7576040517f08c379a0000000000000000000000000000000000000000000000000000000008152600401610abe90613920565b60405180910390fd5b90565b7f000000000000000000000000000000000000000000000000000000000000000081565b6103e881565b600080610b008461149e565b91509150610b313330858773ffffffffffffffffffffffffffffffffffffffff16611891909392919063ffffffff16565b8173ffffffffffffffffffffffffffffffffffffffff16632e1a7d4d846040518263ffffffff1660e01b8152600401610b6a91906139e0565b600060405180830381600087803b158015610b8457600080fd5b505af1158015610b98573d6000803e3d6000fd5b505050507f000000000000000000000000000000000000000000000000000000000000000073ffffffffffffffffffffffffffffffffffffffff168173ffffffffffffffffffffffffffffffffffffffff16630dfe16816040518163ffffffff1660e01b815260040160206040518083038186803b158015610c1957600080fd5b505afa158015610c2d573d6000803e3d6000fd5b505050506040513d601f19601f82011682018060405250810190610c519190613091565b73ffffffffffffffffffffffffffffffffffffffff1614158015610d3e57507f000000000000000000000000000000000000000000000000000000000000000073ffffffffffffffffffffffffffffffffffffffff168173ffffffffffffffffffffffffffffffffffffffff1663d21220a76040518163ffffffff1660e01b815260040160206040518083038186803b158015610ced57600080fd5b505afa158015610d01573d6000803e3d6000fd5b505050506040513d601f19601f82011682018060405250810190610d259190613091565b73ffffffffffffffffffffffffffffffffffffffff1614155b15610d5457610d4d8133612322565b5050610f51565b610d5e8130612322565b6000600267ffffffffffffffff811115610d7b57610d7a613ec9565b5b604051908082528060200260200182016040528015610da95781602001602082028036833780820191505090505b5090508173ffffffffffffffffffffffffffffffffffffffff16630dfe16816040518163ffffffff1660e01b815260040160206040518083038186803b158015610df257600080fd5b505afa158015610e06573d6000803e3d6000fd5b505050506040513d601f19601f82011682018060405250810190610e2a9190613091565b81600081518110610e3e57610e3d613e9a565b5b602002602001019073ffffffffffffffffffffffffffffffffffffffff16908173ffffffffffffffffffffffffffffffffffffffff16815250508173ffffffffffffffffffffffffffffffffffffffff1663d21220a76040518163ffffffff1660e01b815260040160206040518083038186803b158015610ebe57600080fd5b505afa158015610ed2573d6000803e3d6000fd5b505050506040513d601f19601f82011682018060405250810190610ef69190613091565b81600181518110610f0a57610f09613e9a565b5b602002602001019073ffffffffffffffffffffffffffffffffffffffff16908173ffffffffffffffffffffffffffffffffffffffff1681525050610f4d816124f6565b5050505b5050565b600181565b600080610f668661149e565b9150915060008173ffffffffffffffffffffffffffffffffffffffff16630dfe16816040518163ffffffff1660e01b815260040160206040518083038186803b158015610fb257600080fd5b505afa158015610fc6573d6000803e3d6000fd5b505050506040513d601f19601f82011682018060405250810190610fea9190613091565b905060008273ffffffffffffffffffffffffffffffffffffffff1663d21220a76040518163ffffffff1660e01b815260040160206040518083038186803b15801561103457600080fd5b505afa158015611048573d6000803e3d6000fd5b505050506040513d601f19601f8201168201806040525081019061106c9190613091565b90508573ffffffffffffffffffffffffffffffffffffffff168273ffffffffffffffffffffffffffffffffffffffff1614806110d357508573ffffffffffffffffffffffffffffffffffffffff168173ffffffffffffffffffffffffffffffffffffffff16145b611112576040517f08c379a0000000000000000000000000000000000000000000000000000000008152600401611109906139c0565b60405180910390fd5b61113f3330898773ffffffffffffffffffffffffffffffffffffffff16611891909392919063ffffffff16565b8373ffffffffffffffffffffffffffffffffffffffff16632e1a7d4d886040518263ffffffff1660e01b815260040161117891906139e0565b600060405180830381600087803b15801561119257600080fd5b505af11580156111a6573d6000803e3d6000fd5b505050506111b48330612322565b60008673ffffffffffffffffffffffffffffffffffffffff168273ffffffffffffffffffffffffffffffffffffffff16146111ef57816111f1565b825b90506000600267ffffffffffffffff8111156112105761120f613ec9565b5b60405190808252806020026020018201604052801561123e5781602001602082028036833780820191505090505b509050818160008151811061125657611255613e9a565b5b602002602001019073ffffffffffffffffffffffffffffffffffffffff16908173ffffffffffffffffffffffffffffffffffffffff168152505087816001815181106112a5576112a4613e9a565b5b602002602001019073ffffffffffffffffffffffffffffffffffffffff16908173ffffffffffffffffffffffffffffffffffffffff1681525050611324816000815181106112f6576112f5613e9a565b5b60200260200101517f000000000000000000000000000000000000000000000000000000000000000061280a565b7f000000000000000000000000000000000000000000000000000000000000000073ffffffffffffffffffffffffffffffffffffffff166338ed17398373ffffffffffffffffffffffffffffffffffffffff166370a08231306040518263ffffffff1660e01b8152600401611399919061368b565b60206040518083038186803b1580156113b157600080fd5b505afa1580156113c5573d6000803e3d6000fd5b505050506040513d601f19601f820116820180604052508101906113e99190613281565b898430426040518663ffffffff1660e01b815260040161140d959493929190613a32565b600060405180830381600087803b15801561142757600080fd5b505af115801561143b573d6000803e3d6000fd5b505050506040513d6000823e3d601f19601f8201168201806040525081019061146491906131b8565b5061146e816124f6565b50505050505050505050565b7f000000000000000000000000000000000000000000000000000000000000000081565b6000808291508173ffffffffffffffffffffffffffffffffffffffff16631f1fcd516040518163ffffffff1660e01b815260040160206040518083038186803b1580156114ea57600080fd5b505afa1580156114fe573d6000803e3d6000fd5b505050506040513d601f19601f820116820180604052508101906115229190613091565b90507f000000000000000000000000000000000000000000000000000000000000000073ffffffffffffffffffffffffffffffffffffffff1663c45a01556040518163ffffffff1660e01b815260040160206040518083038186803b15801561158a57600080fd5b505afa15801561159e573d6000803e3d6000fd5b505050506040513d601f19601f820116820180604052508101906115c29190613091565b73ffffffffffffffffffffffffffffffffffffffff168173ffffffffffffffffffffffffffffffffffffffff1663c45a01556040518163ffffffff1660e01b815260040160206040518083038186803b15801561161e57600080fd5b505afa158015611632573d6000803e3d6000fd5b505050506040513d601f19601f820116820180604052508101906116569190613091565b73ffffffffffffffffffffffffffffffffffffffff16146116ac576040517f08c379a00000000000000000000000000000000000000000000000000000000081526004016116a390613820565b60405180910390fd5b915091565b6000806002856116c19190613bd5565b905060007f000000000000000000000000000000000000000000000000000000000000000073ffffffffffffffffffffffffffffffffffffffff1663054d50d48387876040518463ffffffff1660e01b815260040161172293929190613a8c565b60206040518083038186803b15801561173a57600080fd5b505afa15801561174e573d6000803e3d6000fd5b505050506040513d601f19601f820116820180604052508101906117729190613281565b905060007f000000000000000000000000000000000000000000000000000000000000000073ffffffffffffffffffffffffffffffffffffffff1663ad615dec846117c6868a6128ed90919063ffffffff16565b6117d9868a61291090919063ffffffff16565b6040518463ffffffff1660e01b81526004016117f793929190613a8c565b60206040518083038186803b15801561180f57600080fd5b505afa158015611823573d6000803e3d6000fd5b505050506040513d601f19601f820116820180604052508101906118479190613281565b90506118856118768284868761185d9190613c06565b6118679190613c06565b6118719190613bd5565b612933565b8861291090919063ffffffff16565b93505050509392505050565b611914846323b872dd60e01b8585856040516024016118b2939291906136cf565b604051602081830303815290604052907bffffffffffffffffffffffffffffffffffffffffffffffffffffffff19166020820180517bffffffffffffffffffffffffffffffffffffffffffffffffffffffff8381831617835250505050612aff565b50505050565b6000806119268561149e565b915091506000808273ffffffffffffffffffffffffffffffffffffffff16630902f1ac6040518163ffffffff1660e01b815260040160606040518083038186803b15801561197357600080fd5b505afa158015611987573d6000803e3d6000fd5b505050506040513d601f19601f820116820180604052508101906119ab919061322e565b506dffffffffffffffffffffffffffff1691506dffffffffffffffffffffffffffff1691506103e8821180156119e257506103e881115b611a21576040517f08c379a0000000000000000000000000000000000000000000000000000000008152600401611a1890613900565b60405180910390fd5b60008573ffffffffffffffffffffffffffffffffffffffff168473ffffffffffffffffffffffffffffffffffffffff16630dfe16816040518163ffffffff1660e01b815260040160206040518083038186803b158015611a8057600080fd5b505afa158015611a94573d6000803e3d6000fd5b505050506040513d601f19601f82011682018060405250810190611ab89190613091565b73ffffffffffffffffffffffffffffffffffffffff161490508080611b8557508573ffffffffffffffffffffffffffffffffffffffff168473ffffffffffffffffffffffffffffffffffffffff1663d21220a76040518163ffffffff1660e01b815260040160206040518083038186803b158015611b3557600080fd5b505afa158015611b49573d6000803e3d6000fd5b505050506040513d601f19601f82011682018060405250810190611b6d9190613091565b73ffffffffffffffffffffffffffffffffffffffff16145b611bc4576040517f08c379a0000000000000000000000000000000000000000000000000000000008152600401611bbb90613880565b60405180910390fd5b6000600267ffffffffffffffff811115611be157611be0613ec9565b5b604051908082528060200260200182016040528015611c0f5781602001602082028036833780820191505090505b5090508681600081518110611c2757611c26613e9a565b5b602002602001019073ffffffffffffffffffffffffffffffffffffffff16908173ffffffffffffffffffffffffffffffffffffffff168152505081611ce9578473ffffffffffffffffffffffffffffffffffffffff16630dfe16816040518163ffffffff1660e01b815260040160206040518083038186803b158015611cac57600080fd5b505afa158015611cc0573d6000803e3d6000fd5b505050506040513d601f19601f82011682018060405250810190611ce49190613091565b611d68565b8473ffffffffffffffffffffffffffffffffffffffff1663d21220a76040518163ffffffff1660e01b815260040160206040518083038186803b158015611d2f57600080fd5b505afa158015611d43573d6000803e3d6000fd5b505050506040513d601f19601f82011682018060405250810190611d679190613091565b5b81600181518110611d7c57611d7b613e9a565b5b602002602001019073ffffffffffffffffffffffffffffffffffffffff16908173ffffffffffffffffffffffffffffffffffffffff168152505060008773ffffffffffffffffffffffffffffffffffffffff166370a08231306040518263ffffffff1660e01b8152600401611df1919061368b565b60206040518083038186803b158015611e0957600080fd5b505afa158015611e1d573d6000803e3d6000fd5b505050506040513d601f19601f82011682018060405250810190611e419190613281565b905060008315611e5d57611e568287876116b1565b9050611e6b565b611e688286886116b1565b90505b611eb083600081518110611e8257611e81613e9a565b5b60200260200101517f000000000000000000000000000000000000000000000000000000000000000061280a565b60007f000000000000000000000000000000000000000000000000000000000000000073ffffffffffffffffffffffffffffffffffffffff166338ed1739838d8730426040518663ffffffff1660e01b8152600401611f13959493929190613a32565b600060405180830381600087803b158015611f2d57600080fd5b505af1158015611f41573d6000803e3d6000fd5b505050506040513d6000823e3d601f19601f82011682018060405250810190611f6a91906131b8565b9050611fb184600181518110611f8357611f82613e9a565b5b60200260200101517f000000000000000000000000000000000000000000000000000000000000000061280a565b60007f000000000000000000000000000000000000000000000000000000000000000073ffffffffffffffffffffffffffffffffffffffff1663e8e337008660008151811061200357612002613e9a565b5b60200260200101518760018151811061201f5761201e613e9a565b5b60200260200101516120558660008151811061203e5761203d613e9a565b5b60200260200101518961291090919063ffffffff16565b8660018151811061206957612068613e9a565b5b602002602001015160018030426040518963ffffffff1660e01b8152600401612099989796959493929190613706565b606060405180830381600087803b1580156120b357600080fd5b505af11580156120c7573d6000803e3d6000fd5b505050506040513d601f19601f820116820180604052508101906120eb91906132ee565b925050506120f9898b61280a565b8973ffffffffffffffffffffffffffffffffffffffff1663b6b55f25826040518263ffffffff1660e01b815260040161213291906139e0565b600060405180830381600087803b15801561214c57600080fd5b505af1158015612160573d6000803e3d6000fd5b50505050612217338b73ffffffffffffffffffffffffffffffffffffffff166370a08231306040518263ffffffff1660e01b81526004016121a1919061368b565b60206040518083038186803b1580156121b957600080fd5b505afa1580156121cd573d6000803e3d6000fd5b505050506040513d601f19601f820116820180604052508101906121f19190613281565b8c73ffffffffffffffffffffffffffffffffffffffff16612bc69092919063ffffffff16565b61230a3360008054906101000a900473ffffffffffffffffffffffffffffffffffffffff1673ffffffffffffffffffffffffffffffffffffffff166370a08231306040518263ffffffff1660e01b8152600401612274919061368b565b60206040518083038186803b15801561228c57600080fd5b505afa1580156122a0573d6000803e3d6000fd5b505050506040513d601f19601f820116820180604052508101906122c49190613281565b60008054906101000a900473ffffffffffffffffffffffffffffffffffffffff1673ffffffffffffffffffffffffffffffffffffffff16612bc69092919063ffffffff16565b612313856124f6565b50505050505050505050505050565b6123d5828373ffffffffffffffffffffffffffffffffffffffff166370a08231306040518263ffffffff1660e01b815260040161235f919061368b565b60206040518083038186803b15801561237757600080fd5b505afa15801561238b573d6000803e3d6000fd5b505050506040513d601f19601f820116820180604052508101906123af9190613281565b8473ffffffffffffffffffffffffffffffffffffffff16612bc69092919063ffffffff16565b6000808373ffffffffffffffffffffffffffffffffffffffff166389afcb44846040518263ffffffff1660e01b8152600401612411919061368b565b6040805180830381600087803b15801561242a57600080fd5b505af115801561243e573d6000803e3d6000fd5b505050506040513d601f19601f8201168201806040525081019061246291906132ae565b915091506103e88210156124ab576040517f08c379a00000000000000000000000000000000000000000000000000000000081526004016124a290613960565b60405180910390fd5b6103e88110156124f0576040517f08c379a00000000000000000000000000000000000000000000000000000000081526004016124e7906138a0565b60405180910390fd5b50505050565b6000805b82518110156128055782818151811061251657612515613e9a565b5b602002602001015173ffffffffffffffffffffffffffffffffffffffff166370a08231306040518263ffffffff1660e01b8152600401612556919061368b565b60206040518083038186803b15801561256e57600080fd5b505afa158015612582573d6000803e3d6000fd5b505050506040513d601f19601f820116820180604052508101906125a69190613281565b915060008211156127f2577f000000000000000000000000000000000000000000000000000000000000000073ffffffffffffffffffffffffffffffffffffffff168382815181106125fb576125fa613e9a565b5b602002602001015173ffffffffffffffffffffffffffffffffffffffff1614156127ab577f000000000000000000000000000000000000000000000000000000000000000073ffffffffffffffffffffffffffffffffffffffff16632e1a7d4d836040518263ffffffff1660e01b815260040161267891906139e0565b600060405180830381600087803b15801561269257600080fd5b505af11580156126a6573d6000803e3d6000fd5b5050505060003373ffffffffffffffffffffffffffffffffffffffff1683600067ffffffffffffffff8111156126df576126de613ec9565b5b6040519080825280601f01601f1916602001820160405280156127115781602001600182028036833780820191505090505b5060405161271f9190613674565b60006040518083038185875af1925050503d806000811461275c576040519150601f19603f3d011682016040523d82523d6000602084013e612761565b606091505b50509050806127a5576040517f08c379a000000000000000000000000000000000000000000000000000000000815260040161279c90613860565b60405180910390fd5b506127f1565b6127f033838584815181106127c3576127c2613e9a565b5b602002602001015173ffffffffffffffffffffffffffffffffffffffff16612bc69092919063ffffffff16565b5b5b80806127fd90613dc4565b9150506124fa565b505050565b60008273ffffffffffffffffffffffffffffffffffffffff1663dd62ed3e30846040518363ffffffff1660e01b81526004016128479291906136a6565b60206040518083038186803b15801561285f57600080fd5b505afa158015612873573d6000803e3d6000fd5b505050506040513d601f19601f820116820180604052508101906128979190613281565b14156128e9576128e8817fffffffffffffffffffffffffffffffffffffffffffffffffffffffffffffffff8473ffffffffffffffffffffffffffffffffffffffff16612c4c9092919063ffffffff16565b5b5050565b60008282846128fc9190613b7f565b915081101561290a57600080fd5b92915050565b600082828461291f9190613c60565b915081111561292d57600080fd5b92915050565b6000808214156129465760009050612afa565b6000829050600060019050700100000000000000000000000000000000821061297857608082901c9150604081901b90505b68010000000000000000821061299757604082901c9150602081901b90505b64010000000082106129b257602082901c9150601081901b90505b6201000082106129cb57601082901c9150600881901b90505b61010082106129e357600882901c9150600481901b90505b601082106129fa57600482901c9150600281901b90505b60088210612a0a57600181901b90505b60018185612a189190613bd5565b82612a239190613b7f565b901c905060018185612a359190613bd5565b82612a409190613b7f565b901c905060018185612a529190613bd5565b82612a5d9190613b7f565b901c905060018185612a6f9190613bd5565b82612a7a9190613b7f565b901c905060018185612a8c9190613bd5565b82612a979190613b7f565b901c905060018185612aa99190613bd5565b82612ab49190613b7f565b901c905060018185612ac69190613bd5565b82612ad19190613b7f565b901c905060008185612ae39190613bd5565b9050808210612af25780612af4565b815b93505050505b919050565b6000612b61826040518060400160405280602081526020017f5361666545524332303a206c6f772d6c6576656c2063616c6c206661696c65648152508573ffffffffffffffffffffffffffffffffffffffff16612daa9092919063ffffffff16565b9050600081511115612bc15780806020019051810190612b819190613201565b612bc0576040517f08c379a0000000000000000000000000000000000000000000000000000000008152600401612bb790613980565b60405180910390fd5b5b505050565b612c478363a9059cbb60e01b8484604051602401612be5929190613784565b604051602081830303815290604052907bffffffffffffffffffffffffffffffffffffffffffffffffffffffff19166020820180517bffffffffffffffffffffffffffffffffffffffffffffffffffffffff8381831617835250505050612aff565b505050565b6000811480612ce5575060008373ffffffffffffffffffffffffffffffffffffffff1663dd62ed3e30856040518363ffffffff1660e01b8152600401612c939291906136a6565b60206040518083038186803b158015612cab57600080fd5b505afa158015612cbf573d6000803e3d6000fd5b505050506040513d601f19601f82011682018060405250810190612ce39190613281565b145b612d24576040517f08c379a0000000000000000000000000000000000000000000000000000000008152600401612d1b906139a0565b60405180910390fd5b612da58363095ea7b360e01b8484604051602401612d43929190613784565b604051602081830303815290604052907bffffffffffffffffffffffffffffffffffffffffffffffffffffffff19166020820180517bffffffffffffffffffffffffffffffffffffffffffffffffffffffff8381831617835250505050612aff565b505050565b6060612db98484600085612dc2565b90509392505050565b606082471015612e07576040517f08c379a0000000000000000000000000000000000000000000000000000000008152600401612dfe906138c0565b60405180910390fd5b612e1085612ed6565b612e4f576040517f08c379a0000000000000000000000000000000000000000000000000000000008152600401612e4690613940565b60405180910390fd5b6000808673ffffffffffffffffffffffffffffffffffffffff168587604051612e789190613674565b60006040518083038185875af1925050503d8060008114612eb5576040519150601f19603f3d011682016040523d82523d6000602084013e612eba565b606091505b5091509150612eca828286612ef9565b92505050949350505050565b6000808273ffffffffffffffffffffffffffffffffffffffff163b119050919050565b60608315612f0957829050612f59565b600083511115612f1c5782518084602001fd5b816040517f08c379a0000000000000000000000000000000000000000000000000000000008152600401612f5091906137fe565b60405180910390fd5b9392505050565b6000612f73612f6e84613ae8565b613ac3565b90508083825260208201905082856020860282011115612f9657612f95613efd565b5b60005b85811015612fc65781612fac8882613067565b845260208401935060208301925050600181019050612f99565b5050509392505050565b600081359050612fdf816142fd565b92915050565b600081519050612ff4816142fd565b92915050565b600082601f83011261300f5761300e613ef8565b5b815161301f848260208601612f60565b91505092915050565b60008151905061303781614314565b92915050565b60008151905061304c8161432b565b92915050565b60008135905061306181614342565b92915050565b60008151905061307681614342565b92915050565b60008151905061308b81614359565b92915050565b6000602082840312156130a7576130a6613f07565b5b60006130b584828501612fe5565b91505092915050565b6000806000606084860312156130d7576130d6613f07565b5b60006130e586828701612fd0565b93505060206130f686828701612fd0565b925050604061310786828701613052565b9150509250925092565b6000806040838503121561312857613127613f07565b5b600061313685828601612fd0565b925050602061314785828601613052565b9150509250929050565b6000806000806080858703121561316b5761316a613f07565b5b600061317987828801612fd0565b945050602061318a87828801613052565b935050604061319b87828801612fd0565b92505060606131ac87828801613052565b91505092959194509250565b6000602082840312156131ce576131cd613f07565b5b600082015167ffffffffffffffff8111156131ec576131eb613f02565b5b6131f884828501612ffa565b91505092915050565b60006020828403121561321757613216613f07565b5b600061322584828501613028565b91505092915050565b60008060006060848603121561324757613246613f07565b5b60006132558682870161303d565b93505060206132668682870161303d565b92505060406132778682870161307c565b9150509250925092565b60006020828403121561329757613296613f07565b5b60006132a584828501613067565b91505092915050565b600080604083850312156132c5576132c4613f07565b5b60006132d385828601613067565b92505060206132e485828601613067565b9150509250929050565b60008060006060848603121561330757613306613f07565b5b600061331586828701613067565b935050602061332686828701613067565b925050604061333786828701613067565b9150509250925092565b600061334d8383613359565b60208301905092915050565b61336281613c94565b82525050565b61337181613c94565b82525050565b600061338282613b24565b61338c8185613b52565b935061339783613b14565b8060005b838110156133c85781516133af8882613341565b97506133ba83613b45565b92505060018101905061339b565b5085935050505092915050565b6133de81613ca6565b82525050565b60006133ef82613b2f565b6133f98185613b63565b9350613409818560208601613d60565b80840191505092915050565b61341e81613d06565b82525050565b61342d81613d18565b82525050565b61343c81613d2a565b82525050565b600061344d82613b3a565b6134578185613b6e565b9350613467818560208601613d60565b61347081613f0c565b840191505092915050565b6000613488602983613b6e565b915061349382613f1d565b604082019050919050565b60006134ab602083613b6e565b91506134b682613f6c565b602082019050919050565b60006134ce601a83613b6e565b91506134d982613f95565b602082019050919050565b60006134f1602e83613b6e565b91506134fc82613fbe565b604082019050919050565b6000613514602683613b6e565b915061351f8261400d565b604082019050919050565b6000613537602683613b6e565b91506135428261405c565b604082019050919050565b600061355a602183613b6e565b9150613565826140ab565b604082019050919050565b600061357d602583613b6e565b9150613588826140fa565b604082019050919050565b60006135a0602d83613b6e565b91506135ab82614149565b604082019050919050565b60006135c3601d83613b6e565b91506135ce82614198565b602082019050919050565b60006135e6602683613b6e565b91506135f1826141c1565b604082019050919050565b6000613609602a83613b6e565b915061361482614210565b604082019050919050565b600061362c603683613b6e565b91506136378261425f565b604082019050919050565b600061364f603083613b6e565b915061365a826142ae565b604082019050919050565b61366e81613cec565b82525050565b600061368082846133e4565b915081905092915050565b60006020820190506136a06000830184613368565b92915050565b60006040820190506136bb6000830185613368565b6136c86020830184613368565b9392505050565b60006060820190506136e46000830186613368565b6136f16020830185613368565b6136fe6040830184613665565b949350505050565b60006101008201905061371c600083018b613368565b613729602083018a613368565b6137366040830189613665565b6137436060830188613665565b6137506080830187613433565b61375d60a0830186613433565b61376a60c0830185613368565b61377760e0830184613665565b9998505050505050505050565b60006040820190506137996000830185613368565b6137a66020830184613665565b9392505050565b60006020820190506137c260008301846133d5565b92915050565b60006020820190506137dd6000830184613415565b92915050565b60006020820190506137f86000830184613424565b92915050565b600060208201905081810360008301526138188184613442565b905092915050565b600060208201905081810360008301526138398161347b565b9050919050565b600060208201905081810360008301526138598161349e565b9050919050565b60006020820190508181036000830152613879816134c1565b9050919050565b60006020820190508181036000830152613899816134e4565b9050919050565b600060208201905081810360008301526138b981613507565b9050919050565b600060208201905081810360008301526138d98161352a565b9050919050565b600060208201905081810360008301526138f98161354d565b9050919050565b6000602082019050818103600083015261391981613570565b9050919050565b6000602082019050818103600083015261393981613593565b9050919050565b60006020820190508181036000830152613959816135b6565b9050919050565b60006020820190508181036000830152613979816135d9565b9050919050565b60006020820190508181036000830152613999816135fc565b9050919050565b600060208201905081810360008301526139b98161361f565b9050919050565b600060208201905081810360008301526139d981613642565b9050919050565b60006020820190506139f56000830184613665565b92915050565b6000606082019050613a106000830186613665565b613a1d6020830185613665565b613a2a6040830184613368565b949350505050565b600060a082019050613a476000830188613665565b613a546020830187613665565b8181036040830152613a668186613377565b9050613a756060830185613368565b613a826080830184613665565b9695505050505050565b6000606082019050613aa16000830186613665565b613aae6020830185613665565b613abb6040830184613665565b949350505050565b6000613acd613ade565b9050613ad98282613d93565b919050565b6000604051905090565b600067ffffffffffffffff821115613b0357613b02613ec9565b5b602082029050602081019050919050565b6000819050602082019050919050565b600081519050919050565b600081519050919050565b600081519050919050565b6000602082019050919050565b600082825260208201905092915050565b600081905092915050565b600082825260208201905092915050565b6000613b8a82613cec565b9150613b9583613cec565b9250827fffffffffffffffffffffffffffffffffffffffffffffffffffffffffffffffff03821115613bca57613bc9613e3c565b5b828201905092915050565b6000613be082613cec565b9150613beb83613cec565b925082613bfb57613bfa613e6b565b5b828204905092915050565b6000613c1182613cec565b9150613c1c83613cec565b9250817fffffffffffffffffffffffffffffffffffffffffffffffffffffffffffffffff0483118215151615613c5557613c54613e3c565b5b828202905092915050565b6000613c6b82613cec565b9150613c7683613cec565b925082821015613c8957613c88613e3c565b5b828203905092915050565b6000613c9f82613ccc565b9050919050565b60008115159050919050565b60006dffffffffffffffffffffffffffff82169050919050565b600073ffffffffffffffffffffffffffffffffffffffff82169050919050565b6000819050919050565b600063ffffffff82169050919050565b6000613d1182613d3c565b9050919050565b6000613d2382613d3c565b9050919050565b6000613d3582613cec565b9050919050565b6000613d4782613d4e565b9050919050565b6000613d5982613ccc565b9050919050565b60005b83811015613d7e578082015181840152602081019050613d63565b83811115613d8d576000848401525b50505050565b613d9c82613f0c565b810181811067ffffffffffffffff82111715613dbb57613dba613ec9565b5b80604052505050565b6000613dcf82613cec565b91507fffffffffffffffffffffffffffffffffffffffffffffffffffffffffffffffff821415613e0257613e01613e3c565b5b600182019050919050565b7f4e487b7100000000000000000000000000000000000000000000000000000000600052600160045260246000fd5b7f4e487b7100000000000000000000000000000000000000000000000000000000600052601160045260246000fd5b7f4e487b7100000000000000000000000000000000000000000000000000000000600052601260045260246000fd5b7f4e487b7100000000000000000000000000000000000000000000000000000000600052603260045260246000fd5b7f4e487b7100000000000000000000000000000000000000000000000000000000600052604160045260246000fd5b600080fd5b600080fd5b600080fd5b600080fd5b6000601f19601f8301169050919050565b7f44796f733a20496e636f6d70617469626c65206c69717569646974792070616960008201527f7220666163746f72790000000000000000000000000000000000000000000000602082015250565b7f44796f733a20496e7369676e69666963616e7420696e70757420616d6f756e74600082015250565b7f42656566793a20455448207472616e73666572206661696c6564000000000000600082015250565b7f44796f733a20496e70757420746f6b656e206e6f742070726573656e7420696e60008201527f206c697175646974792070616972000000000000000000000000000000000000602082015250565b7f556e69737761705632526f757465723a20494e53554646494349454e545f425f60008201527f414d4f554e540000000000000000000000000000000000000000000000000000602082015250565b7f416464726573733a20696e73756666696369656e742062616c616e636520666f60008201527f722063616c6c0000000000000000000000000000000000000000000000000000602082015250565b7f44796f733a20496e70757420746f6b656e206973206e6f7420617070726f766560008201527f6400000000000000000000000000000000000000000000000000000000000000602082015250565b7f44796f733a204c6971756964697479207061697220726573657276657320746f60008201527f6f206c6f77000000000000000000000000000000000000000000000000000000602082015250565b7f44796f733a20574554482061646472657373206e6f74206d61746368696e672060008201527f526f757465722e57455448282900000000000000000000000000000000000000602082015250565b7f416464726573733a2063616c6c20746f206e6f6e2d636f6e7472616374000000600082015250565b7f556e69737761705632526f757465723a20494e53554646494349454e545f415f60008201527f414d4f554e540000000000000000000000000000000000000000000000000000602082015250565b7f5361666545524332303a204552433230206f7065726174696f6e20646964206e60008201527f6f74207375636365656400000000000000000000000000000000000000000000602082015250565b7f5361666545524332303a20617070726f76652066726f6d206e6f6e2d7a65726f60008201527f20746f206e6f6e2d7a65726f20616c6c6f77616e636500000000000000000000602082015250565b7f44796f733a206465736972656420746f6b656e206e6f742070726573656e742060008201527f696e206c69717564697479207061697200000000000000000000000000000000602082015250565b61430681613c94565b811461431157600080fd5b50565b61431d81613ca6565b811461432857600080fd5b50565b61433481613cb2565b811461433f57600080fd5b50565b61434b81613cec565b811461435657600080fd5b50565b61436281613cf6565b811461436d57600080fd5b5056fea2646970667358221220bb103dd3fc68f42a918f94eca9e646bf7bcf692753fe63bef83c4b257f9e1bca64736f6c63430008070033",
					"opcodes": "PUSH1 0xC0 PUSH1 0x40 MSTORE CALLVALUE DUP1 ISZERO PUSH3 0x11 JUMPI PUSH1 0x0 DUP1 REVERT JUMPDEST POP PUSH1 0x40 MLOAD PUSH3 0x464F CODESIZE SUB DUP1 PUSH3 0x464F DUP4 CODECOPY DUP2 DUP2 ADD PUSH1 0x40 MSTORE DUP2 ADD SWAP1 PUSH3 0x37 SWAP2 SWAP1 PUSH3 0x11C JUMP JUMPDEST DUP3 PUSH20 0xFFFFFFFFFFFFFFFFFFFFFFFFFFFFFFFFFFFFFFFF AND PUSH1 0x80 DUP2 PUSH20 0xFFFFFFFFFFFFFFFFFFFFFFFFFFFFFFFFFFFFFFFF AND PUSH1 0x60 SHL DUP2 MSTORE POP POP DUP2 PUSH20 0xFFFFFFFFFFFFFFFFFFFFFFFFFFFFFFFFFFFFFFFF AND PUSH1 0xA0 DUP2 PUSH20 0xFFFFFFFFFFFFFFFFFFFFFFFFFFFFFFFFFFFFFFFF AND PUSH1 0x60 SHL DUP2 MSTORE POP POP DUP1 PUSH1 0x0 DUP1 PUSH2 0x100 EXP DUP2 SLOAD DUP2 PUSH20 0xFFFFFFFFFFFFFFFFFFFFFFFFFFFFFFFFFFFFFFFF MUL NOT AND SWAP1 DUP4 PUSH20 0xFFFFFFFFFFFFFFFFFFFFFFFFFFFFFFFFFFFFFFFF AND MUL OR SWAP1 SSTORE POP POP POP POP PUSH3 0x1F9 JUMP JUMPDEST PUSH1 0x0 DUP2 MLOAD SWAP1 POP PUSH3 0xFF DUP2 PUSH3 0x1C5 JUMP JUMPDEST SWAP3 SWAP2 POP POP JUMP JUMPDEST PUSH1 0x0 DUP2 MLOAD SWAP1 POP PUSH3 0x116 DUP2 PUSH3 0x1DF JUMP JUMPDEST SWAP3 SWAP2 POP POP JUMP JUMPDEST PUSH1 0x0 DUP1 PUSH1 0x0 PUSH1 0x60 DUP5 DUP7 SUB SLT ISZERO PUSH3 0x138 JUMPI PUSH3 0x137 PUSH3 0x1C0 JUMP JUMPDEST JUMPDEST PUSH1 0x0 PUSH3 0x148 DUP7 DUP3 DUP8 ADD PUSH3 0xEE JUMP JUMPDEST SWAP4 POP POP PUSH1 0x20 PUSH3 0x15B DUP7 DUP3 DUP8 ADD PUSH3 0xEE JUMP JUMPDEST SWAP3 POP POP PUSH1 0x40 PUSH3 0x16E DUP7 DUP3 DUP8 ADD PUSH3 0x105 JUMP JUMPDEST SWAP2 POP POP SWAP3 POP SWAP3 POP SWAP3 JUMP JUMPDEST PUSH1 0x0 PUSH3 0x185 DUP3 PUSH3 0x1A0 JUMP JUMPDEST SWAP1 POP SWAP2 SWAP1 POP JUMP JUMPDEST PUSH1 0x0 PUSH3 0x199 DUP3 PUSH3 0x178 JUMP JUMPDEST SWAP1 POP SWAP2 SWAP1 POP JUMP JUMPDEST PUSH1 0x0 PUSH20 0xFFFFFFFFFFFFFFFFFFFFFFFFFFFFFFFFFFFFFFFF DUP3 AND SWAP1 POP SWAP2 SWAP1 POP JUMP JUMPDEST PUSH1 0x0 DUP1 REVERT JUMPDEST PUSH3 0x1D0 DUP2 PUSH3 0x178 JUMP JUMPDEST DUP2 EQ PUSH3 0x1DC JUMPI PUSH1 0x0 DUP1 REVERT JUMPDEST POP JUMP JUMPDEST PUSH3 0x1EA DUP2 PUSH3 0x18C JUMP JUMPDEST DUP2 EQ PUSH3 0x1F6 JUMPI PUSH1 0x0 DUP1 REVERT JUMPDEST POP JUMP JUMPDEST PUSH1 0x80 MLOAD PUSH1 0x60 SHR PUSH1 0xA0 MLOAD PUSH1 0x60 SHR PUSH2 0x43A6 PUSH3 0x2A9 PUSH1 0x0 CODECOPY PUSH1 0x0 DUP2 DUP2 PUSH1 0xA7 ADD MSTORE DUP2 DUP2 PUSH2 0x8E9 ADD MSTORE DUP2 DUP2 PUSH2 0x96F ADD MSTORE DUP2 DUP2 PUSH2 0xA4F ADD MSTORE DUP2 DUP2 PUSH2 0xACC ADD MSTORE DUP2 DUP2 PUSH2 0xB9E ADD MSTORE DUP2 DUP2 PUSH2 0xC72 ADD MSTORE DUP2 DUP2 PUSH2 0x25B3 ADD MSTORE PUSH2 0x2621 ADD MSTORE PUSH1 0x0 DUP2 DUP2 PUSH2 0x58F ADD MSTORE DUP2 DUP2 PUSH2 0x99B ADD MSTORE DUP2 DUP2 PUSH2 0x1300 ADD MSTORE DUP2 DUP2 PUSH2 0x1326 ADD MSTORE DUP2 DUP2 PUSH2 0x147C ADD MSTORE DUP2 DUP2 PUSH2 0x1526 ADD MSTORE DUP2 DUP2 PUSH2 0x16C7 ADD MSTORE DUP2 DUP2 PUSH2 0x1778 ADD MSTORE DUP2 DUP2 PUSH2 0x1E8C ADD MSTORE DUP2 DUP2 PUSH2 0x1EB4 ADD MSTORE DUP2 DUP2 PUSH2 0x1F8D ADD MSTORE PUSH2 0x1FB5 ADD MSTORE PUSH2 0x43A6 PUSH1 0x0 RETURN INVALID PUSH1 0x80 PUSH1 0x40 MSTORE PUSH1 0x4 CALLDATASIZE LT PUSH2 0xA0 JUMPI PUSH1 0x0 CALLDATALOAD PUSH1 0xE0 SHR DUP1 PUSH4 0xAD5C4648 GT PUSH2 0x64 JUMPI DUP1 PUSH4 0xAD5C4648 EQ PUSH2 0x1E2 JUMPI DUP1 PUSH4 0xBB0C8298 EQ PUSH2 0x20D JUMPI DUP1 PUSH4 0xD9139F63 EQ PUSH2 0x238 JUMPI DUP1 PUSH4 0xDDCA3F43 EQ PUSH2 0x261 JUMPI DUP1 PUSH4 0xF3CC669A EQ PUSH2 0x28C JUMPI DUP1 PUSH4 0xF887EA40 EQ PUSH2 0x2B5 JUMPI PUSH2 0x103 JUMP JUMPDEST DUP1 PUSH4 0x5268CFF EQ PUSH2 0x108 JUMPI DUP1 PUSH4 0x3F2F869A EQ PUSH2 0x133 JUMPI DUP1 PUSH4 0x72F8B6CD EQ PUSH2 0x172 JUMPI DUP1 PUSH4 0x7DB9B1F4 EQ PUSH2 0x19B JUMPI DUP1 PUSH4 0x8437FABE EQ PUSH2 0x1B7 JUMPI PUSH2 0x103 JUMP JUMPDEST CALLDATASIZE PUSH2 0x103 JUMPI PUSH32 0x0 PUSH20 0xFFFFFFFFFFFFFFFFFFFFFFFFFFFFFFFFFFFFFFFF AND CALLER PUSH20 0xFFFFFFFFFFFFFFFFFFFFFFFFFFFFFFFFFFFFFFFF AND EQ PUSH2 0x101 JUMPI PUSH2 0x100 PUSH2 0x3E0D JUMP JUMPDEST JUMPDEST STOP JUMPDEST PUSH1 0x0 DUP1 REVERT JUMPDEST CALLVALUE DUP1 ISZERO PUSH2 0x114 JUMPI PUSH1 0x0 DUP1 REVERT JUMPDEST POP PUSH2 0x11D PUSH2 0x2E0 JUMP JUMPDEST PUSH1 0x40 MLOAD PUSH2 0x12A SWAP2 SWAP1 PUSH2 0x37C8 JUMP JUMPDEST PUSH1 0x40 MLOAD DUP1 SWAP2 SUB SWAP1 RETURN JUMPDEST CALLVALUE DUP1 ISZERO PUSH2 0x13F JUMPI PUSH1 0x0 DUP1 REVERT JUMPDEST POP PUSH2 0x15A PUSH1 0x4 DUP1 CALLDATASIZE SUB DUP2 ADD SWAP1 PUSH2 0x155 SWAP2 SWAP1 PUSH2 0x30BE JUMP JUMPDEST PUSH2 0x304 JUMP JUMPDEST PUSH1 0x40 MLOAD PUSH2 0x169 SWAP4 SWAP3 SWAP2 SWAP1 PUSH2 0x39FB JUMP JUMPDEST PUSH1 0x40 MLOAD DUP1 SWAP2 SUB SWAP1 RETURN JUMPDEST CALLVALUE DUP1 ISZERO PUSH2 0x17E JUMPI PUSH1 0x0 DUP1 REVERT JUMPDEST POP PUSH2 0x199 PUSH1 0x4 DUP1 CALLDATASIZE SUB DUP2 ADD SWAP1 PUSH2 0x194 SWAP2 SWAP1 PUSH2 0x3151 JUMP JUMPDEST PUSH2 0x752 JUMP JUMPDEST STOP JUMPDEST PUSH2 0x1B5 PUSH1 0x4 DUP1 CALLDATASIZE SUB DUP2 ADD SWAP1 PUSH2 0x1B0 SWAP2 SWAP1 PUSH2 0x3111 JUMP JUMPDEST PUSH2 0x8A2 JUMP JUMPDEST STOP JUMPDEST CALLVALUE DUP1 ISZERO PUSH2 0x1C3 JUMPI PUSH1 0x0 DUP1 REVERT JUMPDEST POP PUSH2 0x1CC PUSH2 0x997 JUMP JUMPDEST PUSH1 0x40 MLOAD PUSH2 0x1D9 SWAP2 SWAP1 PUSH2 0x37AD JUMP JUMPDEST PUSH1 0x40 MLOAD DUP1 SWAP2 SUB SWAP1 RETURN JUMPDEST CALLVALUE DUP1 ISZERO PUSH2 0x1EE JUMPI PUSH1 0x0 DUP1 REVERT JUMPDEST POP PUSH2 0x1F7 PUSH2 0xACA JUMP JUMPDEST PUSH1 0x40 MLOAD PUSH2 0x204 SWAP2 SWAP1 PUSH2 0x368B JUMP JUMPDEST PUSH1 0x40 MLOAD DUP1 SWAP2 SUB SWAP1 RETURN JUMPDEST CALLVALUE DUP1 ISZERO PUSH2 0x219 JUMPI PUSH1 0x0 DUP1 REVERT JUMPDEST POP PUSH2 0x222 PUSH2 0xAEE JUMP JUMPDEST PUSH1 0x40 MLOAD PUSH2 0x22F SWAP2 SWAP1 PUSH2 0x39E0 JUMP JUMPDEST PUSH1 0x40 MLOAD DUP1 SWAP2 SUB SWAP1 RETURN JUMPDEST CALLVALUE DUP1 ISZERO PUSH2 0x244 JUMPI PUSH1 0x0 DUP1 REVERT JUMPDEST POP PUSH2 0x25F PUSH1 0x4 DUP1 CALLDATASIZE SUB DUP2 ADD SWAP1 PUSH2 0x25A SWAP2 SWAP1 PUSH2 0x3111 JUMP JUMPDEST PUSH2 0xAF4 JUMP JUMPDEST STOP JUMPDEST CALLVALUE DUP1 ISZERO PUSH2 0x26D JUMPI PUSH1 0x0 DUP1 REVERT JUMPDEST POP PUSH2 0x276 PUSH2 0xF55 JUMP JUMPDEST PUSH1 0x40 MLOAD PUSH2 0x283 SWAP2 SWAP1 PUSH2 0x39E0 JUMP JUMPDEST PUSH1 0x40 MLOAD DUP1 SWAP2 SUB SWAP1 RETURN JUMPDEST CALLVALUE DUP1 ISZERO PUSH2 0x298 JUMPI PUSH1 0x0 DUP1 REVERT JUMPDEST POP PUSH2 0x2B3 PUSH1 0x4 DUP1 CALLDATASIZE SUB DUP2 ADD SWAP1 PUSH2 0x2AE SWAP2 SWAP1 PUSH2 0x3151 JUMP JUMPDEST PUSH2 0xF5A JUMP JUMPDEST STOP JUMPDEST CALLVALUE DUP1 ISZERO PUSH2 0x2C1 JUMPI PUSH1 0x0 DUP1 REVERT JUMPDEST POP PUSH2 0x2CA PUSH2 0x147A JUMP JUMPDEST PUSH1 0x40 MLOAD PUSH2 0x2D7 SWAP2 SWAP1 PUSH2 0x37E3 JUMP JUMPDEST PUSH1 0x40 MLOAD DUP1 SWAP2 SUB SWAP1 RETURN JUMPDEST PUSH1 0x0 DUP1 SLOAD SWAP1 PUSH2 0x100 EXP SWAP1 DIV PUSH20 0xFFFFFFFFFFFFFFFFFFFFFFFFFFFFFFFFFFFFFFFF AND DUP2 JUMP JUMPDEST PUSH1 0x0 DUP1 PUSH1 0x0 PUSH2 0x311 PUSH2 0x997 JUMP JUMPDEST POP PUSH1 0x0 PUSH2 0x31D DUP8 PUSH2 0x149E JUMP JUMPDEST SWAP2 POP POP PUSH1 0x0 DUP7 PUSH20 0xFFFFFFFFFFFFFFFFFFFFFFFFFFFFFFFFFFFFFFFF AND DUP3 PUSH20 0xFFFFFFFFFFFFFFFFFFFFFFFFFFFFFFFFFFFFFFFF AND PUSH4 0xDFE1681 PUSH1 0x40 MLOAD DUP2 PUSH4 0xFFFFFFFF AND PUSH1 0xE0 SHL DUP2 MSTORE PUSH1 0x4 ADD PUSH1 0x20 PUSH1 0x40 MLOAD DUP1 DUP4 SUB DUP2 DUP7 DUP1 EXTCODESIZE ISZERO DUP1 ISZERO PUSH2 0x37F JUMPI PUSH1 0x0 DUP1 REVERT JUMPDEST POP GAS STATICCALL ISZERO DUP1 ISZERO PUSH2 0x393 JUMPI RETURNDATASIZE PUSH1 0x0 DUP1 RETURNDATACOPY RETURNDATASIZE PUSH1 0x0 REVERT JUMPDEST POP POP POP POP PUSH1 0x40 MLOAD RETURNDATASIZE PUSH1 0x1F NOT PUSH1 0x1F DUP3 ADD AND DUP3 ADD DUP1 PUSH1 0x40 MSTORE POP DUP2 ADD SWAP1 PUSH2 0x3B7 SWAP2 SWAP1 PUSH2 0x3091 JUMP JUMPDEST PUSH20 0xFFFFFFFFFFFFFFFFFFFFFFFFFFFFFFFFFFFFFFFF AND EQ SWAP1 POP DUP1 DUP1 PUSH2 0x484 JUMPI POP DUP7 PUSH20 0xFFFFFFFFFFFFFFFFFFFFFFFFFFFFFFFFFFFFFFFF AND DUP3 PUSH20 0xFFFFFFFFFFFFFFFFFFFFFFFFFFFFFFFFFFFFFFFF AND PUSH4 0xD21220A7 PUSH1 0x40 MLOAD DUP2 PUSH4 0xFFFFFFFF AND PUSH1 0xE0 SHL DUP2 MSTORE PUSH1 0x4 ADD PUSH1 0x20 PUSH1 0x40 MLOAD DUP1 DUP4 SUB DUP2 DUP7 DUP1 EXTCODESIZE ISZERO DUP1 ISZERO PUSH2 0x434 JUMPI PUSH1 0x0 DUP1 REVERT JUMPDEST POP GAS STATICCALL ISZERO DUP1 ISZERO PUSH2 0x448 JUMPI RETURNDATASIZE PUSH1 0x0 DUP1 RETURNDATACOPY RETURNDATASIZE PUSH1 0x0 REVERT JUMPDEST POP POP POP POP PUSH1 0x40 MLOAD RETURNDATASIZE PUSH1 0x1F NOT PUSH1 0x1F DUP3 ADD AND DUP3 ADD DUP1 PUSH1 0x40 MSTORE POP DUP2 ADD SWAP1 PUSH2 0x46C SWAP2 SWAP1 PUSH2 0x3091 JUMP JUMPDEST PUSH20 0xFFFFFFFFFFFFFFFFFFFFFFFFFFFFFFFFFFFFFFFF AND EQ JUMPDEST PUSH2 0x4C3 JUMPI PUSH1 0x40 MLOAD PUSH32 0x8C379A000000000000000000000000000000000000000000000000000000000 DUP2 MSTORE PUSH1 0x4 ADD PUSH2 0x4BA SWAP1 PUSH2 0x3880 JUMP JUMPDEST PUSH1 0x40 MLOAD DUP1 SWAP2 SUB SWAP1 REVERT JUMPDEST PUSH1 0x0 DUP1 DUP4 PUSH20 0xFFFFFFFFFFFFFFFFFFFFFFFFFFFFFFFFFFFFFFFF AND PUSH4 0x902F1AC PUSH1 0x40 MLOAD DUP2 PUSH4 0xFFFFFFFF AND PUSH1 0xE0 SHL DUP2 MSTORE PUSH1 0x4 ADD PUSH1 0x60 PUSH1 0x40 MLOAD DUP1 DUP4 SUB DUP2 DUP7 DUP1 EXTCODESIZE ISZERO DUP1 ISZERO PUSH2 0x50C JUMPI PUSH1 0x0 DUP1 REVERT JUMPDEST POP GAS STATICCALL ISZERO DUP1 ISZERO PUSH2 0x520 JUMPI RETURNDATASIZE PUSH1 0x0 DUP1 RETURNDATACOPY RETURNDATASIZE PUSH1 0x0 REVERT JUMPDEST POP POP POP POP PUSH1 0x40 MLOAD RETURNDATASIZE PUSH1 0x1F NOT PUSH1 0x1F DUP3 ADD AND DUP3 ADD DUP1 PUSH1 0x40 MSTORE POP DUP2 ADD SWAP1 PUSH2 0x544 SWAP2 SWAP1 PUSH2 0x322E JUMP JUMPDEST POP PUSH14 0xFFFFFFFFFFFFFFFFFFFFFFFFFFFF AND SWAP2 POP PUSH14 0xFFFFFFFFFFFFFFFFFFFFFFFFFFFF AND SWAP2 POP DUP3 PUSH2 0x575 JUMPI DUP1 DUP3 PUSH2 0x578 JUMP JUMPDEST DUP2 DUP2 JUMPDEST DUP1 SWAP3 POP DUP2 SWAP4 POP POP POP PUSH2 0x58B DUP9 DUP4 DUP4 PUSH2 0x16B1 JUMP JUMPDEST SWAP7 POP PUSH32 0x0 PUSH20 0xFFFFFFFFFFFFFFFFFFFFFFFFFFFFFFFFFFFFFFFF AND PUSH4 0x54D50D4 DUP9 DUP5 DUP5 PUSH1 0x40 MLOAD DUP5 PUSH4 0xFFFFFFFF AND PUSH1 0xE0 SHL DUP2 MSTORE PUSH1 0x4 ADD PUSH2 0x5EA SWAP4 SWAP3 SWAP2 SWAP1 PUSH2 0x3A8C JUMP JUMPDEST PUSH1 0x20 PUSH1 0x40 MLOAD DUP1 DUP4 SUB DUP2 DUP7 DUP1 EXTCODESIZE ISZERO DUP1 ISZERO PUSH2 0x602 JUMPI PUSH1 0x0 DUP1 REVERT JUMPDEST POP GAS STATICCALL ISZERO DUP1 ISZERO PUSH2 0x616 JUMPI RETURNDATASIZE PUSH1 0x0 DUP1 RETURNDATACOPY RETURNDATASIZE PUSH1 0x0 REVERT JUMPDEST POP POP POP POP PUSH1 0x40 MLOAD RETURNDATASIZE PUSH1 0x1F NOT PUSH1 0x1F DUP3 ADD AND DUP3 ADD DUP1 PUSH1 0x40 MSTORE POP DUP2 ADD SWAP1 PUSH2 0x63A SWAP2 SWAP1 PUSH2 0x3281 JUMP JUMPDEST SWAP6 POP DUP3 PUSH2 0x6C4 JUMPI DUP4 PUSH20 0xFFFFFFFFFFFFFFFFFFFFFFFFFFFFFFFFFFFFFFFF AND PUSH4 0xDFE1681 PUSH1 0x40 MLOAD DUP2 PUSH4 0xFFFFFFFF AND PUSH1 0xE0 SHL DUP2 MSTORE PUSH1 0x4 ADD PUSH1 0x20 PUSH1 0x40 MLOAD DUP1 DUP4 SUB DUP2 DUP7 DUP1 EXTCODESIZE ISZERO DUP1 ISZERO PUSH2 0x687 JUMPI PUSH1 0x0 DUP1 REVERT JUMPDEST POP GAS STATICCALL ISZERO DUP1 ISZERO PUSH2 0x69B JUMPI RETURNDATASIZE PUSH1 0x0 DUP1 RETURNDATACOPY RETURNDATASIZE PUSH1 0x0 REVERT JUMPDEST POP POP POP POP PUSH1 0x40 MLOAD RETURNDATASIZE PUSH1 0x1F NOT PUSH1 0x1F DUP3 ADD AND DUP3 ADD DUP1 PUSH1 0x40 MSTORE POP DUP2 ADD SWAP1 PUSH2 0x6BF SWAP2 SWAP1 PUSH2 0x3091 JUMP JUMPDEST PUSH2 0x743 JUMP JUMPDEST DUP4 PUSH20 0xFFFFFFFFFFFFFFFFFFFFFFFFFFFFFFFFFFFFFFFF AND PUSH4 0xD21220A7 PUSH1 0x40 MLOAD DUP2 PUSH4 0xFFFFFFFF AND PUSH1 0xE0 SHL DUP2 MSTORE PUSH1 0x4 ADD PUSH1 0x20 PUSH1 0x40 MLOAD DUP1 DUP4 SUB DUP2 DUP7 DUP1 EXTCODESIZE ISZERO DUP1 ISZERO PUSH2 0x70A JUMPI PUSH1 0x0 DUP1 REVERT JUMPDEST POP GAS STATICCALL ISZERO DUP1 ISZERO PUSH2 0x71E JUMPI RETURNDATASIZE PUSH1 0x0 DUP1 RETURNDATACOPY RETURNDATASIZE PUSH1 0x0 REVERT JUMPDEST POP POP POP POP PUSH1 0x40 MLOAD RETURNDATASIZE PUSH1 0x1F NOT PUSH1 0x1F DUP3 ADD AND DUP3 ADD DUP1 PUSH1 0x40 MSTORE POP DUP2 ADD SWAP1 PUSH2 0x742 SWAP2 SWAP1 PUSH2 0x3091 JUMP JUMPDEST JUMPDEST SWAP5 POP POP POP POP POP SWAP4 POP SWAP4 POP SWAP4 SWAP1 POP JUMP JUMPDEST PUSH2 0x3E8 DUP2 LT ISZERO PUSH2 0x797 JUMPI PUSH1 0x40 MLOAD PUSH32 0x8C379A000000000000000000000000000000000000000000000000000000000 DUP2 MSTORE PUSH1 0x4 ADD PUSH2 0x78E SWAP1 PUSH2 0x3840 JUMP JUMPDEST PUSH1 0x40 MLOAD DUP1 SWAP2 SUB SWAP1 REVERT JUMPDEST DUP1 DUP3 PUSH20 0xFFFFFFFFFFFFFFFFFFFFFFFFFFFFFFFFFFFFFFFF AND PUSH4 0xDD62ED3E CALLER ADDRESS PUSH1 0x40 MLOAD DUP4 PUSH4 0xFFFFFFFF AND PUSH1 0xE0 SHL DUP2 MSTORE PUSH1 0x4 ADD PUSH2 0x7D3 SWAP3 SWAP2 SWAP1 PUSH2 0x36A6 JUMP JUMPDEST PUSH1 0x20 PUSH1 0x40 MLOAD DUP1 DUP4 SUB DUP2 DUP7 DUP1 EXTCODESIZE ISZERO DUP1 ISZERO PUSH2 0x7EB JUMPI PUSH1 0x0 DUP1 REVERT JUMPDEST POP GAS STATICCALL ISZERO DUP1 ISZERO PUSH2 0x7FF JUMPI RETURNDATASIZE PUSH1 0x0 DUP1 RETURNDATACOPY RETURNDATASIZE PUSH1 0x0 REVERT JUMPDEST POP POP POP POP PUSH1 0x40 MLOAD RETURNDATASIZE PUSH1 0x1F NOT PUSH1 0x1F DUP3 ADD AND DUP3 ADD DUP1 PUSH1 0x40 MSTORE POP DUP2 ADD SWAP1 PUSH2 0x823 SWAP2 SWAP1 PUSH2 0x3281 JUMP JUMPDEST LT ISZERO PUSH2 0x864 JUMPI PUSH1 0x40 MLOAD PUSH32 0x8C379A000000000000000000000000000000000000000000000000000000000 DUP2 MSTORE PUSH1 0x4 ADD PUSH2 0x85B SWAP1 PUSH2 0x38E0 JUMP JUMPDEST PUSH1 0x40 MLOAD DUP1 SWAP2 SUB SWAP1 REVERT JUMPDEST PUSH2 0x891 CALLER ADDRESS DUP4 DUP6 PUSH20 0xFFFFFFFFFFFFFFFFFFFFFFFFFFFFFFFFFFFFFFFF AND PUSH2 0x1891 SWAP1 SWAP4 SWAP3 SWAP2 SWAP1 PUSH4 0xFFFFFFFF AND JUMP JUMPDEST PUSH2 0x89C DUP5 DUP5 DUP5 PUSH2 0x191A JUMP JUMPDEST POP POP POP POP JUMP JUMPDEST PUSH2 0x3E8 CALLVALUE LT ISZERO PUSH2 0x8E7 JUMPI PUSH1 0x40 MLOAD PUSH32 0x8C379A000000000000000000000000000000000000000000000000000000000 DUP2 MSTORE PUSH1 0x4 ADD PUSH2 0x8DE SWAP1 PUSH2 0x3840 JUMP JUMPDEST PUSH1 0x40 MLOAD DUP1 SWAP2 SUB SWAP1 REVERT JUMPDEST PUSH32 0x0 PUSH20 0xFFFFFFFFFFFFFFFFFFFFFFFFFFFFFFFFFFFFFFFF AND PUSH4 0xD0E30DB0 CALLVALUE PUSH1 0x40 MLOAD DUP3 PUSH4 0xFFFFFFFF AND PUSH1 0xE0 SHL DUP2 MSTORE PUSH1 0x4 ADD PUSH1 0x0 PUSH1 0x40 MLOAD DUP1 DUP4 SUB DUP2 DUP6 DUP9 DUP1 EXTCODESIZE ISZERO DUP1 ISZERO PUSH2 0x94F JUMPI PUSH1 0x0 DUP1 REVERT JUMPDEST POP GAS CALL ISZERO DUP1 ISZERO PUSH2 0x963 JUMPI RETURNDATASIZE PUSH1 0x0 DUP1 RETURNDATACOPY RETURNDATASIZE PUSH1 0x0 REVERT JUMPDEST POP POP POP POP POP PUSH2 0x993 DUP3 DUP3 PUSH32 0x0 PUSH2 0x191A JUMP JUMPDEST POP POP JUMP JUMPDEST PUSH1 0x0 PUSH32 0x0 PUSH20 0xFFFFFFFFFFFFFFFFFFFFFFFFFFFFFFFFFFFFFFFF AND PUSH4 0xAD5C4648 PUSH1 0x40 MLOAD DUP2 PUSH4 0xFFFFFFFF AND PUSH1 0xE0 SHL DUP2 MSTORE PUSH1 0x4 ADD PUSH1 0x20 PUSH1 0x40 MLOAD DUP1 DUP4 SUB DUP2 DUP7 DUP1 EXTCODESIZE ISZERO DUP1 ISZERO PUSH2 0x9FF JUMPI PUSH1 0x0 DUP1 REVERT JUMPDEST POP GAS STATICCALL ISZERO DUP1 ISZERO PUSH2 0xA13 JUMPI RETURNDATASIZE PUSH1 0x0 DUP1 RETURNDATACOPY RETURNDATASIZE PUSH1 0x0 REVERT JUMPDEST POP POP POP POP PUSH1 0x40 MLOAD RETURNDATASIZE PUSH1 0x1F NOT PUSH1 0x1F DUP3 ADD AND DUP3 ADD DUP1 PUSH1 0x40 MSTORE POP DUP2 ADD SWAP1 PUSH2 0xA37 SWAP2 SWAP1 PUSH2 0x3091 JUMP JUMPDEST PUSH20 0xFFFFFFFFFFFFFFFFFFFFFFFFFFFFFFFFFFFFFFFF AND PUSH32 0x0 PUSH20 0xFFFFFFFFFFFFFFFFFFFFFFFFFFFFFFFFFFFFFFFF AND EQ SWAP1 POP DUP1 PUSH2 0xAC7 JUMPI PUSH1 0x40 MLOAD PUSH32 0x8C379A000000000000000000000000000000000000000000000000000000000 DUP2 MSTORE PUSH1 0x4 ADD PUSH2 0xABE SWAP1 PUSH2 0x3920 JUMP JUMPDEST PUSH1 0x40 MLOAD DUP1 SWAP2 SUB SWAP1 REVERT JUMPDEST SWAP1 JUMP JUMPDEST PUSH32 0x0 DUP2 JUMP JUMPDEST PUSH2 0x3E8 DUP2 JUMP JUMPDEST PUSH1 0x0 DUP1 PUSH2 0xB00 DUP5 PUSH2 0x149E JUMP JUMPDEST SWAP2 POP SWAP2 POP PUSH2 0xB31 CALLER ADDRESS DUP6 DUP8 PUSH20 0xFFFFFFFFFFFFFFFFFFFFFFFFFFFFFFFFFFFFFFFF AND PUSH2 0x1891 SWAP1 SWAP4 SWAP3 SWAP2 SWAP1 PUSH4 0xFFFFFFFF AND JUMP JUMPDEST DUP2 PUSH20 0xFFFFFFFFFFFFFFFFFFFFFFFFFFFFFFFFFFFFFFFF AND PUSH4 0x2E1A7D4D DUP5 PUSH1 0x40 MLOAD DUP3 PUSH4 0xFFFFFFFF AND PUSH1 0xE0 SHL DUP2 MSTORE PUSH1 0x4 ADD PUSH2 0xB6A SWAP2 SWAP1 PUSH2 0x39E0 JUMP JUMPDEST PUSH1 0x0 PUSH1 0x40 MLOAD DUP1 DUP4 SUB DUP2 PUSH1 0x0 DUP8 DUP1 EXTCODESIZE ISZERO DUP1 ISZERO PUSH2 0xB84 JUMPI PUSH1 0x0 DUP1 REVERT JUMPDEST POP GAS CALL ISZERO DUP1 ISZERO PUSH2 0xB98 JUMPI RETURNDATASIZE PUSH1 0x0 DUP1 RETURNDATACOPY RETURNDATASIZE PUSH1 0x0 REVERT JUMPDEST POP POP POP POP PUSH32 0x0 PUSH20 0xFFFFFFFFFFFFFFFFFFFFFFFFFFFFFFFFFFFFFFFF AND DUP2 PUSH20 0xFFFFFFFFFFFFFFFFFFFFFFFFFFFFFFFFFFFFFFFF AND PUSH4 0xDFE1681 PUSH1 0x40 MLOAD DUP2 PUSH4 0xFFFFFFFF AND PUSH1 0xE0 SHL DUP2 MSTORE PUSH1 0x4 ADD PUSH1 0x20 PUSH1 0x40 MLOAD DUP1 DUP4 SUB DUP2 DUP7 DUP1 EXTCODESIZE ISZERO DUP1 ISZERO PUSH2 0xC19 JUMPI PUSH1 0x0 DUP1 REVERT JUMPDEST POP GAS STATICCALL ISZERO DUP1 ISZERO PUSH2 0xC2D JUMPI RETURNDATASIZE PUSH1 0x0 DUP1 RETURNDATACOPY RETURNDATASIZE PUSH1 0x0 REVERT JUMPDEST POP POP POP POP PUSH1 0x40 MLOAD RETURNDATASIZE PUSH1 0x1F NOT PUSH1 0x1F DUP3 ADD AND DUP3 ADD DUP1 PUSH1 0x40 MSTORE POP DUP2 ADD SWAP1 PUSH2 0xC51 SWAP2 SWAP1 PUSH2 0x3091 JUMP JUMPDEST PUSH20 0xFFFFFFFFFFFFFFFFFFFFFFFFFFFFFFFFFFFFFFFF AND EQ ISZERO DUP1 ISZERO PUSH2 0xD3E JUMPI POP PUSH32 0x0 PUSH20 0xFFFFFFFFFFFFFFFFFFFFFFFFFFFFFFFFFFFFFFFF AND DUP2 PUSH20 0xFFFFFFFFFFFFFFFFFFFFFFFFFFFFFFFFFFFFFFFF AND PUSH4 0xD21220A7 PUSH1 0x40 MLOAD DUP2 PUSH4 0xFFFFFFFF AND PUSH1 0xE0 SHL DUP2 MSTORE PUSH1 0x4 ADD PUSH1 0x20 PUSH1 0x40 MLOAD DUP1 DUP4 SUB DUP2 DUP7 DUP1 EXTCODESIZE ISZERO DUP1 ISZERO PUSH2 0xCED JUMPI PUSH1 0x0 DUP1 REVERT JUMPDEST POP GAS STATICCALL ISZERO DUP1 ISZERO PUSH2 0xD01 JUMPI RETURNDATASIZE PUSH1 0x0 DUP1 RETURNDATACOPY RETURNDATASIZE PUSH1 0x0 REVERT JUMPDEST POP POP POP POP PUSH1 0x40 MLOAD RETURNDATASIZE PUSH1 0x1F NOT PUSH1 0x1F DUP3 ADD AND DUP3 ADD DUP1 PUSH1 0x40 MSTORE POP DUP2 ADD SWAP1 PUSH2 0xD25 SWAP2 SWAP1 PUSH2 0x3091 JUMP JUMPDEST PUSH20 0xFFFFFFFFFFFFFFFFFFFFFFFFFFFFFFFFFFFFFFFF AND EQ ISZERO JUMPDEST ISZERO PUSH2 0xD54 JUMPI PUSH2 0xD4D DUP2 CALLER PUSH2 0x2322 JUMP JUMPDEST POP POP PUSH2 0xF51 JUMP JUMPDEST PUSH2 0xD5E DUP2 ADDRESS PUSH2 0x2322 JUMP JUMPDEST PUSH1 0x0 PUSH1 0x2 PUSH8 0xFFFFFFFFFFFFFFFF DUP2 GT ISZERO PUSH2 0xD7B JUMPI PUSH2 0xD7A PUSH2 0x3EC9 JUMP JUMPDEST JUMPDEST PUSH1 0x40 MLOAD SWAP1 DUP1 DUP3 MSTORE DUP1 PUSH1 0x20 MUL PUSH1 0x20 ADD DUP3 ADD PUSH1 0x40 MSTORE DUP1 ISZERO PUSH2 0xDA9 JUMPI DUP2 PUSH1 0x20 ADD PUSH1 0x20 DUP3 MUL DUP1 CALLDATASIZE DUP4 CALLDATACOPY DUP1 DUP3 ADD SWAP2 POP POP SWAP1 POP JUMPDEST POP SWAP1 POP DUP2 PUSH20 0xFFFFFFFFFFFFFFFFFFFFFFFFFFFFFFFFFFFFFFFF AND PUSH4 0xDFE1681 PUSH1 0x40 MLOAD DUP2 PUSH4 0xFFFFFFFF AND PUSH1 0xE0 SHL DUP2 MSTORE PUSH1 0x4 ADD PUSH1 0x20 PUSH1 0x40 MLOAD DUP1 DUP4 SUB DUP2 DUP7 DUP1 EXTCODESIZE ISZERO DUP1 ISZERO PUSH2 0xDF2 JUMPI PUSH1 0x0 DUP1 REVERT JUMPDEST POP GAS STATICCALL ISZERO DUP1 ISZERO PUSH2 0xE06 JUMPI RETURNDATASIZE PUSH1 0x0 DUP1 RETURNDATACOPY RETURNDATASIZE PUSH1 0x0 REVERT JUMPDEST POP POP POP POP PUSH1 0x40 MLOAD RETURNDATASIZE PUSH1 0x1F NOT PUSH1 0x1F DUP3 ADD AND DUP3 ADD DUP1 PUSH1 0x40 MSTORE POP DUP2 ADD SWAP1 PUSH2 0xE2A SWAP2 SWAP1 PUSH2 0x3091 JUMP JUMPDEST DUP2 PUSH1 0x0 DUP2 MLOAD DUP2 LT PUSH2 0xE3E JUMPI PUSH2 0xE3D PUSH2 0x3E9A JUMP JUMPDEST JUMPDEST PUSH1 0x20 MUL PUSH1 0x20 ADD ADD SWAP1 PUSH20 0xFFFFFFFFFFFFFFFFFFFFFFFFFFFFFFFFFFFFFFFF AND SWAP1 DUP2 PUSH20 0xFFFFFFFFFFFFFFFFFFFFFFFFFFFFFFFFFFFFFFFF AND DUP2 MSTORE POP POP DUP2 PUSH20 0xFFFFFFFFFFFFFFFFFFFFFFFFFFFFFFFFFFFFFFFF AND PUSH4 0xD21220A7 PUSH1 0x40 MLOAD DUP2 PUSH4 0xFFFFFFFF AND PUSH1 0xE0 SHL DUP2 MSTORE PUSH1 0x4 ADD PUSH1 0x20 PUSH1 0x40 MLOAD DUP1 DUP4 SUB DUP2 DUP7 DUP1 EXTCODESIZE ISZERO DUP1 ISZERO PUSH2 0xEBE JUMPI PUSH1 0x0 DUP1 REVERT JUMPDEST POP GAS STATICCALL ISZERO DUP1 ISZERO PUSH2 0xED2 JUMPI RETURNDATASIZE PUSH1 0x0 DUP1 RETURNDATACOPY RETURNDATASIZE PUSH1 0x0 REVERT JUMPDEST POP POP POP POP PUSH1 0x40 MLOAD RETURNDATASIZE PUSH1 0x1F NOT PUSH1 0x1F DUP3 ADD AND DUP3 ADD DUP1 PUSH1 0x40 MSTORE POP DUP2 ADD SWAP1 PUSH2 0xEF6 SWAP2 SWAP1 PUSH2 0x3091 JUMP JUMPDEST DUP2 PUSH1 0x1 DUP2 MLOAD DUP2 LT PUSH2 0xF0A JUMPI PUSH2 0xF09 PUSH2 0x3E9A JUMP JUMPDEST JUMPDEST PUSH1 0x20 MUL PUSH1 0x20 ADD ADD SWAP1 PUSH20 0xFFFFFFFFFFFFFFFFFFFFFFFFFFFFFFFFFFFFFFFF AND SWAP1 DUP2 PUSH20 0xFFFFFFFFFFFFFFFFFFFFFFFFFFFFFFFFFFFFFFFF AND DUP2 MSTORE POP POP PUSH2 0xF4D DUP2 PUSH2 0x24F6 JUMP JUMPDEST POP POP POP JUMPDEST POP POP JUMP JUMPDEST PUSH1 0x1 DUP2 JUMP JUMPDEST PUSH1 0x0 DUP1 PUSH2 0xF66 DUP7 PUSH2 0x149E JUMP JUMPDEST SWAP2 POP SWAP2 POP PUSH1 0x0 DUP2 PUSH20 0xFFFFFFFFFFFFFFFFFFFFFFFFFFFFFFFFFFFFFFFF AND PUSH4 0xDFE1681 PUSH1 0x40 MLOAD DUP2 PUSH4 0xFFFFFFFF AND PUSH1 0xE0 SHL DUP2 MSTORE PUSH1 0x4 ADD PUSH1 0x20 PUSH1 0x40 MLOAD DUP1 DUP4 SUB DUP2 DUP7 DUP1 EXTCODESIZE ISZERO DUP1 ISZERO PUSH2 0xFB2 JUMPI PUSH1 0x0 DUP1 REVERT JUMPDEST POP GAS STATICCALL ISZERO DUP1 ISZERO PUSH2 0xFC6 JUMPI RETURNDATASIZE PUSH1 0x0 DUP1 RETURNDATACOPY RETURNDATASIZE PUSH1 0x0 REVERT JUMPDEST POP POP POP POP PUSH1 0x40 MLOAD RETURNDATASIZE PUSH1 0x1F NOT PUSH1 0x1F DUP3 ADD AND DUP3 ADD DUP1 PUSH1 0x40 MSTORE POP DUP2 ADD SWAP1 PUSH2 0xFEA SWAP2 SWAP1 PUSH2 0x3091 JUMP JUMPDEST SWAP1 POP PUSH1 0x0 DUP3 PUSH20 0xFFFFFFFFFFFFFFFFFFFFFFFFFFFFFFFFFFFFFFFF AND PUSH4 0xD21220A7 PUSH1 0x40 MLOAD DUP2 PUSH4 0xFFFFFFFF AND PUSH1 0xE0 SHL DUP2 MSTORE PUSH1 0x4 ADD PUSH1 0x20 PUSH1 0x40 MLOAD DUP1 DUP4 SUB DUP2 DUP7 DUP1 EXTCODESIZE ISZERO DUP1 ISZERO PUSH2 0x1034 JUMPI PUSH1 0x0 DUP1 REVERT JUMPDEST POP GAS STATICCALL ISZERO DUP1 ISZERO PUSH2 0x1048 JUMPI RETURNDATASIZE PUSH1 0x0 DUP1 RETURNDATACOPY RETURNDATASIZE PUSH1 0x0 REVERT JUMPDEST POP POP POP POP PUSH1 0x40 MLOAD RETURNDATASIZE PUSH1 0x1F NOT PUSH1 0x1F DUP3 ADD AND DUP3 ADD DUP1 PUSH1 0x40 MSTORE POP DUP2 ADD SWAP1 PUSH2 0x106C SWAP2 SWAP1 PUSH2 0x3091 JUMP JUMPDEST SWAP1 POP DUP6 PUSH20 0xFFFFFFFFFFFFFFFFFFFFFFFFFFFFFFFFFFFFFFFF AND DUP3 PUSH20 0xFFFFFFFFFFFFFFFFFFFFFFFFFFFFFFFFFFFFFFFF AND EQ DUP1 PUSH2 0x10D3 JUMPI POP DUP6 PUSH20 0xFFFFFFFFFFFFFFFFFFFFFFFFFFFFFFFFFFFFFFFF AND DUP2 PUSH20 0xFFFFFFFFFFFFFFFFFFFFFFFFFFFFFFFFFFFFFFFF AND EQ JUMPDEST PUSH2 0x1112 JUMPI PUSH1 0x40 MLOAD PUSH32 0x8C379A000000000000000000000000000000000000000000000000000000000 DUP2 MSTORE PUSH1 0x4 ADD PUSH2 0x1109 SWAP1 PUSH2 0x39C0 JUMP JUMPDEST PUSH1 0x40 MLOAD DUP1 SWAP2 SUB SWAP1 REVERT JUMPDEST PUSH2 0x113F CALLER ADDRESS DUP10 DUP8 PUSH20 0xFFFFFFFFFFFFFFFFFFFFFFFFFFFFFFFFFFFFFFFF AND PUSH2 0x1891 SWAP1 SWAP4 SWAP3 SWAP2 SWAP1 PUSH4 0xFFFFFFFF AND JUMP JUMPDEST DUP4 PUSH20 0xFFFFFFFFFFFFFFFFFFFFFFFFFFFFFFFFFFFFFFFF AND PUSH4 0x2E1A7D4D DUP9 PUSH1 0x40 MLOAD DUP3 PUSH4 0xFFFFFFFF AND PUSH1 0xE0 SHL DUP2 MSTORE PUSH1 0x4 ADD PUSH2 0x1178 SWAP2 SWAP1 PUSH2 0x39E0 JUMP JUMPDEST PUSH1 0x0 PUSH1 0x40 MLOAD DUP1 DUP4 SUB DUP2 PUSH1 0x0 DUP8 DUP1 EXTCODESIZE ISZERO DUP1 ISZERO PUSH2 0x1192 JUMPI PUSH1 0x0 DUP1 REVERT JUMPDEST POP GAS CALL ISZERO DUP1 ISZERO PUSH2 0x11A6 JUMPI RETURNDATASIZE PUSH1 0x0 DUP1 RETURNDATACOPY RETURNDATASIZE PUSH1 0x0 REVERT JUMPDEST POP POP POP POP PUSH2 0x11B4 DUP4 ADDRESS PUSH2 0x2322 JUMP JUMPDEST PUSH1 0x0 DUP7 PUSH20 0xFFFFFFFFFFFFFFFFFFFFFFFFFFFFFFFFFFFFFFFF AND DUP3 PUSH20 0xFFFFFFFFFFFFFFFFFFFFFFFFFFFFFFFFFFFFFFFF AND EQ PUSH2 0x11EF JUMPI DUP2 PUSH2 0x11F1 JUMP JUMPDEST DUP3 JUMPDEST SWAP1 POP PUSH1 0x0 PUSH1 0x2 PUSH8 0xFFFFFFFFFFFFFFFF DUP2 GT ISZERO PUSH2 0x1210 JUMPI PUSH2 0x120F PUSH2 0x3EC9 JUMP JUMPDEST JUMPDEST PUSH1 0x40 MLOAD SWAP1 DUP1 DUP3 MSTORE DUP1 PUSH1 0x20 MUL PUSH1 0x20 ADD DUP3 ADD PUSH1 0x40 MSTORE DUP1 ISZERO PUSH2 0x123E JUMPI DUP2 PUSH1 0x20 ADD PUSH1 0x20 DUP3 MUL DUP1 CALLDATASIZE DUP4 CALLDATACOPY DUP1 DUP3 ADD SWAP2 POP POP SWAP1 POP JUMPDEST POP SWAP1 POP DUP2 DUP2 PUSH1 0x0 DUP2 MLOAD DUP2 LT PUSH2 0x1256 JUMPI PUSH2 0x1255 PUSH2 0x3E9A JUMP JUMPDEST JUMPDEST PUSH1 0x20 MUL PUSH1 0x20 ADD ADD SWAP1 PUSH20 0xFFFFFFFFFFFFFFFFFFFFFFFFFFFFFFFFFFFFFFFF AND SWAP1 DUP2 PUSH20 0xFFFFFFFFFFFFFFFFFFFFFFFFFFFFFFFFFFFFFFFF AND DUP2 MSTORE POP POP DUP8 DUP2 PUSH1 0x1 DUP2 MLOAD DUP2 LT PUSH2 0x12A5 JUMPI PUSH2 0x12A4 PUSH2 0x3E9A JUMP JUMPDEST JUMPDEST PUSH1 0x20 MUL PUSH1 0x20 ADD ADD SWAP1 PUSH20 0xFFFFFFFFFFFFFFFFFFFFFFFFFFFFFFFFFFFFFFFF AND SWAP1 DUP2 PUSH20 0xFFFFFFFFFFFFFFFFFFFFFFFFFFFFFFFFFFFFFFFF AND DUP2 MSTORE POP POP PUSH2 0x1324 DUP2 PUSH1 0x0 DUP2 MLOAD DUP2 LT PUSH2 0x12F6 JUMPI PUSH2 0x12F5 PUSH2 0x3E9A JUMP JUMPDEST JUMPDEST PUSH1 0x20 MUL PUSH1 0x20 ADD ADD MLOAD PUSH32 0x0 PUSH2 0x280A JUMP JUMPDEST PUSH32 0x0 PUSH20 0xFFFFFFFFFFFFFFFFFFFFFFFFFFFFFFFFFFFFFFFF AND PUSH4 0x38ED1739 DUP4 PUSH20 0xFFFFFFFFFFFFFFFFFFFFFFFFFFFFFFFFFFFFFFFF AND PUSH4 0x70A08231 ADDRESS PUSH1 0x40 MLOAD DUP3 PUSH4 0xFFFFFFFF AND PUSH1 0xE0 SHL DUP2 MSTORE PUSH1 0x4 ADD PUSH2 0x1399 SWAP2 SWAP1 PUSH2 0x368B JUMP JUMPDEST PUSH1 0x20 PUSH1 0x40 MLOAD DUP1 DUP4 SUB DUP2 DUP7 DUP1 EXTCODESIZE ISZERO DUP1 ISZERO PUSH2 0x13B1 JUMPI PUSH1 0x0 DUP1 REVERT JUMPDEST POP GAS STATICCALL ISZERO DUP1 ISZERO PUSH2 0x13C5 JUMPI RETURNDATASIZE PUSH1 0x0 DUP1 RETURNDATACOPY RETURNDATASIZE PUSH1 0x0 REVERT JUMPDEST POP POP POP POP PUSH1 0x40 MLOAD RETURNDATASIZE PUSH1 0x1F NOT PUSH1 0x1F DUP3 ADD AND DUP3 ADD DUP1 PUSH1 0x40 MSTORE POP DUP2 ADD SWAP1 PUSH2 0x13E9 SWAP2 SWAP1 PUSH2 0x3281 JUMP JUMPDEST DUP10 DUP5 ADDRESS TIMESTAMP PUSH1 0x40 MLOAD DUP7 PUSH4 0xFFFFFFFF AND PUSH1 0xE0 SHL DUP2 MSTORE PUSH1 0x4 ADD PUSH2 0x140D SWAP6 SWAP5 SWAP4 SWAP3 SWAP2 SWAP1 PUSH2 0x3A32 JUMP JUMPDEST PUSH1 0x0 PUSH1 0x40 MLOAD DUP1 DUP4 SUB DUP2 PUSH1 0x0 DUP8 DUP1 EXTCODESIZE ISZERO DUP1 ISZERO PUSH2 0x1427 JUMPI PUSH1 0x0 DUP1 REVERT JUMPDEST POP GAS CALL ISZERO DUP1 ISZERO PUSH2 0x143B JUMPI RETURNDATASIZE PUSH1 0x0 DUP1 RETURNDATACOPY RETURNDATASIZE PUSH1 0x0 REVERT JUMPDEST POP POP POP POP PUSH1 0x40 MLOAD RETURNDATASIZE PUSH1 0x0 DUP3 RETURNDATACOPY RETURNDATASIZE PUSH1 0x1F NOT PUSH1 0x1F DUP3 ADD AND DUP3 ADD DUP1 PUSH1 0x40 MSTORE POP DUP2 ADD SWAP1 PUSH2 0x1464 SWAP2 SWAP1 PUSH2 0x31B8 JUMP JUMPDEST POP PUSH2 0x146E DUP2 PUSH2 0x24F6 JUMP JUMPDEST POP POP POP POP POP POP POP POP POP POP JUMP JUMPDEST PUSH32 0x0 DUP2 JUMP JUMPDEST PUSH1 0x0 DUP1 DUP3 SWAP2 POP DUP2 PUSH20 0xFFFFFFFFFFFFFFFFFFFFFFFFFFFFFFFFFFFFFFFF AND PUSH4 0x1F1FCD51 PUSH1 0x40 MLOAD DUP2 PUSH4 0xFFFFFFFF AND PUSH1 0xE0 SHL DUP2 MSTORE PUSH1 0x4 ADD PUSH1 0x20 PUSH1 0x40 MLOAD DUP1 DUP4 SUB DUP2 DUP7 DUP1 EXTCODESIZE ISZERO DUP1 ISZERO PUSH2 0x14EA JUMPI PUSH1 0x0 DUP1 REVERT JUMPDEST POP GAS STATICCALL ISZERO DUP1 ISZERO PUSH2 0x14FE JUMPI RETURNDATASIZE PUSH1 0x0 DUP1 RETURNDATACOPY RETURNDATASIZE PUSH1 0x0 REVERT JUMPDEST POP POP POP POP PUSH1 0x40 MLOAD RETURNDATASIZE PUSH1 0x1F NOT PUSH1 0x1F DUP3 ADD AND DUP3 ADD DUP1 PUSH1 0x40 MSTORE POP DUP2 ADD SWAP1 PUSH2 0x1522 SWAP2 SWAP1 PUSH2 0x3091 JUMP JUMPDEST SWAP1 POP PUSH32 0x0 PUSH20 0xFFFFFFFFFFFFFFFFFFFFFFFFFFFFFFFFFFFFFFFF AND PUSH4 0xC45A0155 PUSH1 0x40 MLOAD DUP2 PUSH4 0xFFFFFFFF AND PUSH1 0xE0 SHL DUP2 MSTORE PUSH1 0x4 ADD PUSH1 0x20 PUSH1 0x40 MLOAD DUP1 DUP4 SUB DUP2 DUP7 DUP1 EXTCODESIZE ISZERO DUP1 ISZERO PUSH2 0x158A JUMPI PUSH1 0x0 DUP1 REVERT JUMPDEST POP GAS STATICCALL ISZERO DUP1 ISZERO PUSH2 0x159E JUMPI RETURNDATASIZE PUSH1 0x0 DUP1 RETURNDATACOPY RETURNDATASIZE PUSH1 0x0 REVERT JUMPDEST POP POP POP POP PUSH1 0x40 MLOAD RETURNDATASIZE PUSH1 0x1F NOT PUSH1 0x1F DUP3 ADD AND DUP3 ADD DUP1 PUSH1 0x40 MSTORE POP DUP2 ADD SWAP1 PUSH2 0x15C2 SWAP2 SWAP1 PUSH2 0x3091 JUMP JUMPDEST PUSH20 0xFFFFFFFFFFFFFFFFFFFFFFFFFFFFFFFFFFFFFFFF AND DUP2 PUSH20 0xFFFFFFFFFFFFFFFFFFFFFFFFFFFFFFFFFFFFFFFF AND PUSH4 0xC45A0155 PUSH1 0x40 MLOAD DUP2 PUSH4 0xFFFFFFFF AND PUSH1 0xE0 SHL DUP2 MSTORE PUSH1 0x4 ADD PUSH1 0x20 PUSH1 0x40 MLOAD DUP1 DUP4 SUB DUP2 DUP7 DUP1 EXTCODESIZE ISZERO DUP1 ISZERO PUSH2 0x161E JUMPI PUSH1 0x0 DUP1 REVERT JUMPDEST POP GAS STATICCALL ISZERO DUP1 ISZERO PUSH2 0x1632 JUMPI RETURNDATASIZE PUSH1 0x0 DUP1 RETURNDATACOPY RETURNDATASIZE PUSH1 0x0 REVERT JUMPDEST POP POP POP POP PUSH1 0x40 MLOAD RETURNDATASIZE PUSH1 0x1F NOT PUSH1 0x1F DUP3 ADD AND DUP3 ADD DUP1 PUSH1 0x40 MSTORE POP DUP2 ADD SWAP1 PUSH2 0x1656 SWAP2 SWAP1 PUSH2 0x3091 JUMP JUMPDEST PUSH20 0xFFFFFFFFFFFFFFFFFFFFFFFFFFFFFFFFFFFFFFFF AND EQ PUSH2 0x16AC JUMPI PUSH1 0x40 MLOAD PUSH32 0x8C379A000000000000000000000000000000000000000000000000000000000 DUP2 MSTORE PUSH1 0x4 ADD PUSH2 0x16A3 SWAP1 PUSH2 0x3820 JUMP JUMPDEST PUSH1 0x40 MLOAD DUP1 SWAP2 SUB SWAP1 REVERT JUMPDEST SWAP2 POP SWAP2 JUMP JUMPDEST PUSH1 0x0 DUP1 PUSH1 0x2 DUP6 PUSH2 0x16C1 SWAP2 SWAP1 PUSH2 0x3BD5 JUMP JUMPDEST SWAP1 POP PUSH1 0x0 PUSH32 0x0 PUSH20 0xFFFFFFFFFFFFFFFFFFFFFFFFFFFFFFFFFFFFFFFF AND PUSH4 0x54D50D4 DUP4 DUP8 DUP8 PUSH1 0x40 MLOAD DUP5 PUSH4 0xFFFFFFFF AND PUSH1 0xE0 SHL DUP2 MSTORE PUSH1 0x4 ADD PUSH2 0x1722 SWAP4 SWAP3 SWAP2 SWAP1 PUSH2 0x3A8C JUMP JUMPDEST PUSH1 0x20 PUSH1 0x40 MLOAD DUP1 DUP4 SUB DUP2 DUP7 DUP1 EXTCODESIZE ISZERO DUP1 ISZERO PUSH2 0x173A JUMPI PUSH1 0x0 DUP1 REVERT JUMPDEST POP GAS STATICCALL ISZERO DUP1 ISZERO PUSH2 0x174E JUMPI RETURNDATASIZE PUSH1 0x0 DUP1 RETURNDATACOPY RETURNDATASIZE PUSH1 0x0 REVERT JUMPDEST POP POP POP POP PUSH1 0x40 MLOAD RETURNDATASIZE PUSH1 0x1F NOT PUSH1 0x1F DUP3 ADD AND DUP3 ADD DUP1 PUSH1 0x40 MSTORE POP DUP2 ADD SWAP1 PUSH2 0x1772 SWAP2 SWAP1 PUSH2 0x3281 JUMP JUMPDEST SWAP1 POP PUSH1 0x0 PUSH32 0x0 PUSH20 0xFFFFFFFFFFFFFFFFFFFFFFFFFFFFFFFFFFFFFFFF AND PUSH4 0xAD615DEC DUP5 PUSH2 0x17C6 DUP7 DUP11 PUSH2 0x28ED SWAP1 SWAP2 SWAP1 PUSH4 0xFFFFFFFF AND JUMP JUMPDEST PUSH2 0x17D9 DUP7 DUP11 PUSH2 0x2910 SWAP1 SWAP2 SWAP1 PUSH4 0xFFFFFFFF AND JUMP JUMPDEST PUSH1 0x40 MLOAD DUP5 PUSH4 0xFFFFFFFF AND PUSH1 0xE0 SHL DUP2 MSTORE PUSH1 0x4 ADD PUSH2 0x17F7 SWAP4 SWAP3 SWAP2 SWAP1 PUSH2 0x3A8C JUMP JUMPDEST PUSH1 0x20 PUSH1 0x40 MLOAD DUP1 DUP4 SUB DUP2 DUP7 DUP1 EXTCODESIZE ISZERO DUP1 ISZERO PUSH2 0x180F JUMPI PUSH1 0x0 DUP1 REVERT JUMPDEST POP GAS STATICCALL ISZERO DUP1 ISZERO PUSH2 0x1823 JUMPI RETURNDATASIZE PUSH1 0x0 DUP1 RETURNDATACOPY RETURNDATASIZE PUSH1 0x0 REVERT JUMPDEST POP POP POP POP PUSH1 0x40 MLOAD RETURNDATASIZE PUSH1 0x1F NOT PUSH1 0x1F DUP3 ADD AND DUP3 ADD DUP1 PUSH1 0x40 MSTORE POP DUP2 ADD SWAP1 PUSH2 0x1847 SWAP2 SWAP1 PUSH2 0x3281 JUMP JUMPDEST SWAP1 POP PUSH2 0x1885 PUSH2 0x1876 DUP3 DUP5 DUP7 DUP8 PUSH2 0x185D SWAP2 SWAP1 PUSH2 0x3C06 JUMP JUMPDEST PUSH2 0x1867 SWAP2 SWAP1 PUSH2 0x3C06 JUMP JUMPDEST PUSH2 0x1871 SWAP2 SWAP1 PUSH2 0x3BD5 JUMP JUMPDEST PUSH2 0x2933 JUMP JUMPDEST DUP9 PUSH2 0x2910 SWAP1 SWAP2 SWAP1 PUSH4 0xFFFFFFFF AND JUMP JUMPDEST SWAP4 POP POP POP POP SWAP4 SWAP3 POP POP POP JUMP JUMPDEST PUSH2 0x1914 DUP5 PUSH4 0x23B872DD PUSH1 0xE0 SHL DUP6 DUP6 DUP6 PUSH1 0x40 MLOAD PUSH1 0x24 ADD PUSH2 0x18B2 SWAP4 SWAP3 SWAP2 SWAP1 PUSH2 0x36CF JUMP JUMPDEST PUSH1 0x40 MLOAD PUSH1 0x20 DUP2 DUP4 SUB SUB DUP2 MSTORE SWAP1 PUSH1 0x40 MSTORE SWAP1 PUSH28 0xFFFFFFFFFFFFFFFFFFFFFFFFFFFFFFFFFFFFFFFFFFFFFFFFFFFFFFFF NOT AND PUSH1 0x20 DUP3 ADD DUP1 MLOAD PUSH28 0xFFFFFFFFFFFFFFFFFFFFFFFFFFFFFFFFFFFFFFFFFFFFFFFFFFFFFFFF DUP4 DUP2 DUP4 AND OR DUP4 MSTORE POP POP POP POP PUSH2 0x2AFF JUMP JUMPDEST POP POP POP POP JUMP JUMPDEST PUSH1 0x0 DUP1 PUSH2 0x1926 DUP6 PUSH2 0x149E JUMP JUMPDEST SWAP2 POP SWAP2 POP PUSH1 0x0 DUP1 DUP3 PUSH20 0xFFFFFFFFFFFFFFFFFFFFFFFFFFFFFFFFFFFFFFFF AND PUSH4 0x902F1AC PUSH1 0x40 MLOAD DUP2 PUSH4 0xFFFFFFFF AND PUSH1 0xE0 SHL DUP2 MSTORE PUSH1 0x4 ADD PUSH1 0x60 PUSH1 0x40 MLOAD DUP1 DUP4 SUB DUP2 DUP7 DUP1 EXTCODESIZE ISZERO DUP1 ISZERO PUSH2 0x1973 JUMPI PUSH1 0x0 DUP1 REVERT JUMPDEST POP GAS STATICCALL ISZERO DUP1 ISZERO PUSH2 0x1987 JUMPI RETURNDATASIZE PUSH1 0x0 DUP1 RETURNDATACOPY RETURNDATASIZE PUSH1 0x0 REVERT JUMPDEST POP POP POP POP PUSH1 0x40 MLOAD RETURNDATASIZE PUSH1 0x1F NOT PUSH1 0x1F DUP3 ADD AND DUP3 ADD DUP1 PUSH1 0x40 MSTORE POP DUP2 ADD SWAP1 PUSH2 0x19AB SWAP2 SWAP1 PUSH2 0x322E JUMP JUMPDEST POP PUSH14 0xFFFFFFFFFFFFFFFFFFFFFFFFFFFF AND SWAP2 POP PUSH14 0xFFFFFFFFFFFFFFFFFFFFFFFFFFFF AND SWAP2 POP PUSH2 0x3E8 DUP3 GT DUP1 ISZERO PUSH2 0x19E2 JUMPI POP PUSH2 0x3E8 DUP2 GT JUMPDEST PUSH2 0x1A21 JUMPI PUSH1 0x40 MLOAD PUSH32 0x8C379A000000000000000000000000000000000000000000000000000000000 DUP2 MSTORE PUSH1 0x4 ADD PUSH2 0x1A18 SWAP1 PUSH2 0x3900 JUMP JUMPDEST PUSH1 0x40 MLOAD DUP1 SWAP2 SUB SWAP1 REVERT JUMPDEST PUSH1 0x0 DUP6 PUSH20 0xFFFFFFFFFFFFFFFFFFFFFFFFFFFFFFFFFFFFFFFF AND DUP5 PUSH20 0xFFFFFFFFFFFFFFFFFFFFFFFFFFFFFFFFFFFFFFFF AND PUSH4 0xDFE1681 PUSH1 0x40 MLOAD DUP2 PUSH4 0xFFFFFFFF AND PUSH1 0xE0 SHL DUP2 MSTORE PUSH1 0x4 ADD PUSH1 0x20 PUSH1 0x40 MLOAD DUP1 DUP4 SUB DUP2 DUP7 DUP1 EXTCODESIZE ISZERO DUP1 ISZERO PUSH2 0x1A80 JUMPI PUSH1 0x0 DUP1 REVERT JUMPDEST POP GAS STATICCALL ISZERO DUP1 ISZERO PUSH2 0x1A94 JUMPI RETURNDATASIZE PUSH1 0x0 DUP1 RETURNDATACOPY RETURNDATASIZE PUSH1 0x0 REVERT JUMPDEST POP POP POP POP PUSH1 0x40 MLOAD RETURNDATASIZE PUSH1 0x1F NOT PUSH1 0x1F DUP3 ADD AND DUP3 ADD DUP1 PUSH1 0x40 MSTORE POP DUP2 ADD SWAP1 PUSH2 0x1AB8 SWAP2 SWAP1 PUSH2 0x3091 JUMP JUMPDEST PUSH20 0xFFFFFFFFFFFFFFFFFFFFFFFFFFFFFFFFFFFFFFFF AND EQ SWAP1 POP DUP1 DUP1 PUSH2 0x1B85 JUMPI POP DUP6 PUSH20 0xFFFFFFFFFFFFFFFFFFFFFFFFFFFFFFFFFFFFFFFF AND DUP5 PUSH20 0xFFFFFFFFFFFFFFFFFFFFFFFFFFFFFFFFFFFFFFFF AND PUSH4 0xD21220A7 PUSH1 0x40 MLOAD DUP2 PUSH4 0xFFFFFFFF AND PUSH1 0xE0 SHL DUP2 MSTORE PUSH1 0x4 ADD PUSH1 0x20 PUSH1 0x40 MLOAD DUP1 DUP4 SUB DUP2 DUP7 DUP1 EXTCODESIZE ISZERO DUP1 ISZERO PUSH2 0x1B35 JUMPI PUSH1 0x0 DUP1 REVERT JUMPDEST POP GAS STATICCALL ISZERO DUP1 ISZERO PUSH2 0x1B49 JUMPI RETURNDATASIZE PUSH1 0x0 DUP1 RETURNDATACOPY RETURNDATASIZE PUSH1 0x0 REVERT JUMPDEST POP POP POP POP PUSH1 0x40 MLOAD RETURNDATASIZE PUSH1 0x1F NOT PUSH1 0x1F DUP3 ADD AND DUP3 ADD DUP1 PUSH1 0x40 MSTORE POP DUP2 ADD SWAP1 PUSH2 0x1B6D SWAP2 SWAP1 PUSH2 0x3091 JUMP JUMPDEST PUSH20 0xFFFFFFFFFFFFFFFFFFFFFFFFFFFFFFFFFFFFFFFF AND EQ JUMPDEST PUSH2 0x1BC4 JUMPI PUSH1 0x40 MLOAD PUSH32 0x8C379A000000000000000000000000000000000000000000000000000000000 DUP2 MSTORE PUSH1 0x4 ADD PUSH2 0x1BBB SWAP1 PUSH2 0x3880 JUMP JUMPDEST PUSH1 0x40 MLOAD DUP1 SWAP2 SUB SWAP1 REVERT JUMPDEST PUSH1 0x0 PUSH1 0x2 PUSH8 0xFFFFFFFFFFFFFFFF DUP2 GT ISZERO PUSH2 0x1BE1 JUMPI PUSH2 0x1BE0 PUSH2 0x3EC9 JUMP JUMPDEST JUMPDEST PUSH1 0x40 MLOAD SWAP1 DUP1 DUP3 MSTORE DUP1 PUSH1 0x20 MUL PUSH1 0x20 ADD DUP3 ADD PUSH1 0x40 MSTORE DUP1 ISZERO PUSH2 0x1C0F JUMPI DUP2 PUSH1 0x20 ADD PUSH1 0x20 DUP3 MUL DUP1 CALLDATASIZE DUP4 CALLDATACOPY DUP1 DUP3 ADD SWAP2 POP POP SWAP1 POP JUMPDEST POP SWAP1 POP DUP7 DUP2 PUSH1 0x0 DUP2 MLOAD DUP2 LT PUSH2 0x1C27 JUMPI PUSH2 0x1C26 PUSH2 0x3E9A JUMP JUMPDEST JUMPDEST PUSH1 0x20 MUL PUSH1 0x20 ADD ADD SWAP1 PUSH20 0xFFFFFFFFFFFFFFFFFFFFFFFFFFFFFFFFFFFFFFFF AND SWAP1 DUP2 PUSH20 0xFFFFFFFFFFFFFFFFFFFFFFFFFFFFFFFFFFFFFFFF AND DUP2 MSTORE POP POP DUP2 PUSH2 0x1CE9 JUMPI DUP5 PUSH20 0xFFFFFFFFFFFFFFFFFFFFFFFFFFFFFFFFFFFFFFFF AND PUSH4 0xDFE1681 PUSH1 0x40 MLOAD DUP2 PUSH4 0xFFFFFFFF AND PUSH1 0xE0 SHL DUP2 MSTORE PUSH1 0x4 ADD PUSH1 0x20 PUSH1 0x40 MLOAD DUP1 DUP4 SUB DUP2 DUP7 DUP1 EXTCODESIZE ISZERO DUP1 ISZERO PUSH2 0x1CAC JUMPI PUSH1 0x0 DUP1 REVERT JUMPDEST POP GAS STATICCALL ISZERO DUP1 ISZERO PUSH2 0x1CC0 JUMPI RETURNDATASIZE PUSH1 0x0 DUP1 RETURNDATACOPY RETURNDATASIZE PUSH1 0x0 REVERT JUMPDEST POP POP POP POP PUSH1 0x40 MLOAD RETURNDATASIZE PUSH1 0x1F NOT PUSH1 0x1F DUP3 ADD AND DUP3 ADD DUP1 PUSH1 0x40 MSTORE POP DUP2 ADD SWAP1 PUSH2 0x1CE4 SWAP2 SWAP1 PUSH2 0x3091 JUMP JUMPDEST PUSH2 0x1D68 JUMP JUMPDEST DUP5 PUSH20 0xFFFFFFFFFFFFFFFFFFFFFFFFFFFFFFFFFFFFFFFF AND PUSH4 0xD21220A7 PUSH1 0x40 MLOAD DUP2 PUSH4 0xFFFFFFFF AND PUSH1 0xE0 SHL DUP2 MSTORE PUSH1 0x4 ADD PUSH1 0x20 PUSH1 0x40 MLOAD DUP1 DUP4 SUB DUP2 DUP7 DUP1 EXTCODESIZE ISZERO DUP1 ISZERO PUSH2 0x1D2F JUMPI PUSH1 0x0 DUP1 REVERT JUMPDEST POP GAS STATICCALL ISZERO DUP1 ISZERO PUSH2 0x1D43 JUMPI RETURNDATASIZE PUSH1 0x0 DUP1 RETURNDATACOPY RETURNDATASIZE PUSH1 0x0 REVERT JUMPDEST POP POP POP POP PUSH1 0x40 MLOAD RETURNDATASIZE PUSH1 0x1F NOT PUSH1 0x1F DUP3 ADD AND DUP3 ADD DUP1 PUSH1 0x40 MSTORE POP DUP2 ADD SWAP1 PUSH2 0x1D67 SWAP2 SWAP1 PUSH2 0x3091 JUMP JUMPDEST JUMPDEST DUP2 PUSH1 0x1 DUP2 MLOAD DUP2 LT PUSH2 0x1D7C JUMPI PUSH2 0x1D7B PUSH2 0x3E9A JUMP JUMPDEST JUMPDEST PUSH1 0x20 MUL PUSH1 0x20 ADD ADD SWAP1 PUSH20 0xFFFFFFFFFFFFFFFFFFFFFFFFFFFFFFFFFFFFFFFF AND SWAP1 DUP2 PUSH20 0xFFFFFFFFFFFFFFFFFFFFFFFFFFFFFFFFFFFFFFFF AND DUP2 MSTORE POP POP PUSH1 0x0 DUP8 PUSH20 0xFFFFFFFFFFFFFFFFFFFFFFFFFFFFFFFFFFFFFFFF AND PUSH4 0x70A08231 ADDRESS PUSH1 0x40 MLOAD DUP3 PUSH4 0xFFFFFFFF AND PUSH1 0xE0 SHL DUP2 MSTORE PUSH1 0x4 ADD PUSH2 0x1DF1 SWAP2 SWAP1 PUSH2 0x368B JUMP JUMPDEST PUSH1 0x20 PUSH1 0x40 MLOAD DUP1 DUP4 SUB DUP2 DUP7 DUP1 EXTCODESIZE ISZERO DUP1 ISZERO PUSH2 0x1E09 JUMPI PUSH1 0x0 DUP1 REVERT JUMPDEST POP GAS STATICCALL ISZERO DUP1 ISZERO PUSH2 0x1E1D JUMPI RETURNDATASIZE PUSH1 0x0 DUP1 RETURNDATACOPY RETURNDATASIZE PUSH1 0x0 REVERT JUMPDEST POP POP POP POP PUSH1 0x40 MLOAD RETURNDATASIZE PUSH1 0x1F NOT PUSH1 0x1F DUP3 ADD AND DUP3 ADD DUP1 PUSH1 0x40 MSTORE POP DUP2 ADD SWAP1 PUSH2 0x1E41 SWAP2 SWAP1 PUSH2 0x3281 JUMP JUMPDEST SWAP1 POP PUSH1 0x0 DUP4 ISZERO PUSH2 0x1E5D JUMPI PUSH2 0x1E56 DUP3 DUP8 DUP8 PUSH2 0x16B1 JUMP JUMPDEST SWAP1 POP PUSH2 0x1E6B JUMP JUMPDEST PUSH2 0x1E68 DUP3 DUP7 DUP9 PUSH2 0x16B1 JUMP JUMPDEST SWAP1 POP JUMPDEST PUSH2 0x1EB0 DUP4 PUSH1 0x0 DUP2 MLOAD DUP2 LT PUSH2 0x1E82 JUMPI PUSH2 0x1E81 PUSH2 0x3E9A JUMP JUMPDEST JUMPDEST PUSH1 0x20 MUL PUSH1 0x20 ADD ADD MLOAD PUSH32 0x0 PUSH2 0x280A JUMP JUMPDEST PUSH1 0x0 PUSH32 0x0 PUSH20 0xFFFFFFFFFFFFFFFFFFFFFFFFFFFFFFFFFFFFFFFF AND PUSH4 0x38ED1739 DUP4 DUP14 DUP8 ADDRESS TIMESTAMP PUSH1 0x40 MLOAD DUP7 PUSH4 0xFFFFFFFF AND PUSH1 0xE0 SHL DUP2 MSTORE PUSH1 0x4 ADD PUSH2 0x1F13 SWAP6 SWAP5 SWAP4 SWAP3 SWAP2 SWAP1 PUSH2 0x3A32 JUMP JUMPDEST PUSH1 0x0 PUSH1 0x40 MLOAD DUP1 DUP4 SUB DUP2 PUSH1 0x0 DUP8 DUP1 EXTCODESIZE ISZERO DUP1 ISZERO PUSH2 0x1F2D JUMPI PUSH1 0x0 DUP1 REVERT JUMPDEST POP GAS CALL ISZERO DUP1 ISZERO PUSH2 0x1F41 JUMPI RETURNDATASIZE PUSH1 0x0 DUP1 RETURNDATACOPY RETURNDATASIZE PUSH1 0x0 REVERT JUMPDEST POP POP POP POP PUSH1 0x40 MLOAD RETURNDATASIZE PUSH1 0x0 DUP3 RETURNDATACOPY RETURNDATASIZE PUSH1 0x1F NOT PUSH1 0x1F DUP3 ADD AND DUP3 ADD DUP1 PUSH1 0x40 MSTORE POP DUP2 ADD SWAP1 PUSH2 0x1F6A SWAP2 SWAP1 PUSH2 0x31B8 JUMP JUMPDEST SWAP1 POP PUSH2 0x1FB1 DUP5 PUSH1 0x1 DUP2 MLOAD DUP2 LT PUSH2 0x1F83 JUMPI PUSH2 0x1F82 PUSH2 0x3E9A JUMP JUMPDEST JUMPDEST PUSH1 0x20 MUL PUSH1 0x20 ADD ADD MLOAD PUSH32 0x0 PUSH2 0x280A JUMP JUMPDEST PUSH1 0x0 PUSH32 0x0 PUSH20 0xFFFFFFFFFFFFFFFFFFFFFFFFFFFFFFFFFFFFFFFF AND PUSH4 0xE8E33700 DUP7 PUSH1 0x0 DUP2 MLOAD DUP2 LT PUSH2 0x2003 JUMPI PUSH2 0x2002 PUSH2 0x3E9A JUMP JUMPDEST JUMPDEST PUSH1 0x20 MUL PUSH1 0x20 ADD ADD MLOAD DUP8 PUSH1 0x1 DUP2 MLOAD DUP2 LT PUSH2 0x201F JUMPI PUSH2 0x201E PUSH2 0x3E9A JUMP JUMPDEST JUMPDEST PUSH1 0x20 MUL PUSH1 0x20 ADD ADD MLOAD PUSH2 0x2055 DUP7 PUSH1 0x0 DUP2 MLOAD DUP2 LT PUSH2 0x203E JUMPI PUSH2 0x203D PUSH2 0x3E9A JUMP JUMPDEST JUMPDEST PUSH1 0x20 MUL PUSH1 0x20 ADD ADD MLOAD DUP10 PUSH2 0x2910 SWAP1 SWAP2 SWAP1 PUSH4 0xFFFFFFFF AND JUMP JUMPDEST DUP7 PUSH1 0x1 DUP2 MLOAD DUP2 LT PUSH2 0x2069 JUMPI PUSH2 0x2068 PUSH2 0x3E9A JUMP JUMPDEST JUMPDEST PUSH1 0x20 MUL PUSH1 0x20 ADD ADD MLOAD PUSH1 0x1 DUP1 ADDRESS TIMESTAMP PUSH1 0x40 MLOAD DUP10 PUSH4 0xFFFFFFFF AND PUSH1 0xE0 SHL DUP2 MSTORE PUSH1 0x4 ADD PUSH2 0x2099 SWAP9 SWAP8 SWAP7 SWAP6 SWAP5 SWAP4 SWAP3 SWAP2 SWAP1 PUSH2 0x3706 JUMP JUMPDEST PUSH1 0x60 PUSH1 0x40 MLOAD DUP1 DUP4 SUB DUP2 PUSH1 0x0 DUP8 DUP1 EXTCODESIZE ISZERO DUP1 ISZERO PUSH2 0x20B3 JUMPI PUSH1 0x0 DUP1 REVERT JUMPDEST POP GAS CALL ISZERO DUP1 ISZERO PUSH2 0x20C7 JUMPI RETURNDATASIZE PUSH1 0x0 DUP1 RETURNDATACOPY RETURNDATASIZE PUSH1 0x0 REVERT JUMPDEST POP POP POP POP PUSH1 0x40 MLOAD RETURNDATASIZE PUSH1 0x1F NOT PUSH1 0x1F DUP3 ADD AND DUP3 ADD DUP1 PUSH1 0x40 MSTORE POP DUP2 ADD SWAP1 PUSH2 0x20EB SWAP2 SWAP1 PUSH2 0x32EE JUMP JUMPDEST SWAP3 POP POP POP PUSH2 0x20F9 DUP10 DUP12 PUSH2 0x280A JUMP JUMPDEST DUP10 PUSH20 0xFFFFFFFFFFFFFFFFFFFFFFFFFFFFFFFFFFFFFFFF AND PUSH4 0xB6B55F25 DUP3 PUSH1 0x40 MLOAD DUP3 PUSH4 0xFFFFFFFF AND PUSH1 0xE0 SHL DUP2 MSTORE PUSH1 0x4 ADD PUSH2 0x2132 SWAP2 SWAP1 PUSH2 0x39E0 JUMP JUMPDEST PUSH1 0x0 PUSH1 0x40 MLOAD DUP1 DUP4 SUB DUP2 PUSH1 0x0 DUP8 DUP1 EXTCODESIZE ISZERO DUP1 ISZERO PUSH2 0x214C JUMPI PUSH1 0x0 DUP1 REVERT JUMPDEST POP GAS CALL ISZERO DUP1 ISZERO PUSH2 0x2160 JUMPI RETURNDATASIZE PUSH1 0x0 DUP1 RETURNDATACOPY RETURNDATASIZE PUSH1 0x0 REVERT JUMPDEST POP POP POP POP PUSH2 0x2217 CALLER DUP12 PUSH20 0xFFFFFFFFFFFFFFFFFFFFFFFFFFFFFFFFFFFFFFFF AND PUSH4 0x70A08231 ADDRESS PUSH1 0x40 MLOAD DUP3 PUSH4 0xFFFFFFFF AND PUSH1 0xE0 SHL DUP2 MSTORE PUSH1 0x4 ADD PUSH2 0x21A1 SWAP2 SWAP1 PUSH2 0x368B JUMP JUMPDEST PUSH1 0x20 PUSH1 0x40 MLOAD DUP1 DUP4 SUB DUP2 DUP7 DUP1 EXTCODESIZE ISZERO DUP1 ISZERO PUSH2 0x21B9 JUMPI PUSH1 0x0 DUP1 REVERT JUMPDEST POP GAS STATICCALL ISZERO DUP1 ISZERO PUSH2 0x21CD JUMPI RETURNDATASIZE PUSH1 0x0 DUP1 RETURNDATACOPY RETURNDATASIZE PUSH1 0x0 REVERT JUMPDEST POP POP POP POP PUSH1 0x40 MLOAD RETURNDATASIZE PUSH1 0x1F NOT PUSH1 0x1F DUP3 ADD AND DUP3 ADD DUP1 PUSH1 0x40 MSTORE POP DUP2 ADD SWAP1 PUSH2 0x21F1 SWAP2 SWAP1 PUSH2 0x3281 JUMP JUMPDEST DUP13 PUSH20 0xFFFFFFFFFFFFFFFFFFFFFFFFFFFFFFFFFFFFFFFF AND PUSH2 0x2BC6 SWAP1 SWAP3 SWAP2 SWAP1 PUSH4 0xFFFFFFFF AND JUMP JUMPDEST PUSH2 0x230A CALLER PUSH1 0x0 DUP1 SLOAD SWAP1 PUSH2 0x100 EXP SWAP1 DIV PUSH20 0xFFFFFFFFFFFFFFFFFFFFFFFFFFFFFFFFFFFFFFFF AND PUSH20 0xFFFFFFFFFFFFFFFFFFFFFFFFFFFFFFFFFFFFFFFF AND PUSH4 0x70A08231 ADDRESS PUSH1 0x40 MLOAD DUP3 PUSH4 0xFFFFFFFF AND PUSH1 0xE0 SHL DUP2 MSTORE PUSH1 0x4 ADD PUSH2 0x2274 SWAP2 SWAP1 PUSH2 0x368B JUMP JUMPDEST PUSH1 0x20 PUSH1 0x40 MLOAD DUP1 DUP4 SUB DUP2 DUP7 DUP1 EXTCODESIZE ISZERO DUP1 ISZERO PUSH2 0x228C JUMPI PUSH1 0x0 DUP1 REVERT JUMPDEST POP GAS STATICCALL ISZERO DUP1 ISZERO PUSH2 0x22A0 JUMPI RETURNDATASIZE PUSH1 0x0 DUP1 RETURNDATACOPY RETURNDATASIZE PUSH1 0x0 REVERT JUMPDEST POP POP POP POP PUSH1 0x40 MLOAD RETURNDATASIZE PUSH1 0x1F NOT PUSH1 0x1F DUP3 ADD AND DUP3 ADD DUP1 PUSH1 0x40 MSTORE POP DUP2 ADD SWAP1 PUSH2 0x22C4 SWAP2 SWAP1 PUSH2 0x3281 JUMP JUMPDEST PUSH1 0x0 DUP1 SLOAD SWAP1 PUSH2 0x100 EXP SWAP1 DIV PUSH20 0xFFFFFFFFFFFFFFFFFFFFFFFFFFFFFFFFFFFFFFFF AND PUSH20 0xFFFFFFFFFFFFFFFFFFFFFFFFFFFFFFFFFFFFFFFF AND PUSH2 0x2BC6 SWAP1 SWAP3 SWAP2 SWAP1 PUSH4 0xFFFFFFFF AND JUMP JUMPDEST PUSH2 0x2313 DUP6 PUSH2 0x24F6 JUMP JUMPDEST POP POP POP POP POP POP POP POP POP POP POP POP POP JUMP JUMPDEST PUSH2 0x23D5 DUP3 DUP4 PUSH20 0xFFFFFFFFFFFFFFFFFFFFFFFFFFFFFFFFFFFFFFFF AND PUSH4 0x70A08231 ADDRESS PUSH1 0x40 MLOAD DUP3 PUSH4 0xFFFFFFFF AND PUSH1 0xE0 SHL DUP2 MSTORE PUSH1 0x4 ADD PUSH2 0x235F SWAP2 SWAP1 PUSH2 0x368B JUMP JUMPDEST PUSH1 0x20 PUSH1 0x40 MLOAD DUP1 DUP4 SUB DUP2 DUP7 DUP1 EXTCODESIZE ISZERO DUP1 ISZERO PUSH2 0x2377 JUMPI PUSH1 0x0 DUP1 REVERT JUMPDEST POP GAS STATICCALL ISZERO DUP1 ISZERO PUSH2 0x238B JUMPI RETURNDATASIZE PUSH1 0x0 DUP1 RETURNDATACOPY RETURNDATASIZE PUSH1 0x0 REVERT JUMPDEST POP POP POP POP PUSH1 0x40 MLOAD RETURNDATASIZE PUSH1 0x1F NOT PUSH1 0x1F DUP3 ADD AND DUP3 ADD DUP1 PUSH1 0x40 MSTORE POP DUP2 ADD SWAP1 PUSH2 0x23AF SWAP2 SWAP1 PUSH2 0x3281 JUMP JUMPDEST DUP5 PUSH20 0xFFFFFFFFFFFFFFFFFFFFFFFFFFFFFFFFFFFFFFFF AND PUSH2 0x2BC6 SWAP1 SWAP3 SWAP2 SWAP1 PUSH4 0xFFFFFFFF AND JUMP JUMPDEST PUSH1 0x0 DUP1 DUP4 PUSH20 0xFFFFFFFFFFFFFFFFFFFFFFFFFFFFFFFFFFFFFFFF AND PUSH4 0x89AFCB44 DUP5 PUSH1 0x40 MLOAD DUP3 PUSH4 0xFFFFFFFF AND PUSH1 0xE0 SHL DUP2 MSTORE PUSH1 0x4 ADD PUSH2 0x2411 SWAP2 SWAP1 PUSH2 0x368B JUMP JUMPDEST PUSH1 0x40 DUP1 MLOAD DUP1 DUP4 SUB DUP2 PUSH1 0x0 DUP8 DUP1 EXTCODESIZE ISZERO DUP1 ISZERO PUSH2 0x242A JUMPI PUSH1 0x0 DUP1 REVERT JUMPDEST POP GAS CALL ISZERO DUP1 ISZERO PUSH2 0x243E JUMPI RETURNDATASIZE PUSH1 0x0 DUP1 RETURNDATACOPY RETURNDATASIZE PUSH1 0x0 REVERT JUMPDEST POP POP POP POP PUSH1 0x40 MLOAD RETURNDATASIZE PUSH1 0x1F NOT PUSH1 0x1F DUP3 ADD AND DUP3 ADD DUP1 PUSH1 0x40 MSTORE POP DUP2 ADD SWAP1 PUSH2 0x2462 SWAP2 SWAP1 PUSH2 0x32AE JUMP JUMPDEST SWAP2 POP SWAP2 POP PUSH2 0x3E8 DUP3 LT ISZERO PUSH2 0x24AB JUMPI PUSH1 0x40 MLOAD PUSH32 0x8C379A000000000000000000000000000000000000000000000000000000000 DUP2 MSTORE PUSH1 0x4 ADD PUSH2 0x24A2 SWAP1 PUSH2 0x3960 JUMP JUMPDEST PUSH1 0x40 MLOAD DUP1 SWAP2 SUB SWAP1 REVERT JUMPDEST PUSH2 0x3E8 DUP2 LT ISZERO PUSH2 0x24F0 JUMPI PUSH1 0x40 MLOAD PUSH32 0x8C379A000000000000000000000000000000000000000000000000000000000 DUP2 MSTORE PUSH1 0x4 ADD PUSH2 0x24E7 SWAP1 PUSH2 0x38A0 JUMP JUMPDEST PUSH1 0x40 MLOAD DUP1 SWAP2 SUB SWAP1 REVERT JUMPDEST POP POP POP POP JUMP JUMPDEST PUSH1 0x0 DUP1 JUMPDEST DUP3 MLOAD DUP2 LT ISZERO PUSH2 0x2805 JUMPI DUP3 DUP2 DUP2 MLOAD DUP2 LT PUSH2 0x2516 JUMPI PUSH2 0x2515 PUSH2 0x3E9A JUMP JUMPDEST JUMPDEST PUSH1 0x20 MUL PUSH1 0x20 ADD ADD MLOAD PUSH20 0xFFFFFFFFFFFFFFFFFFFFFFFFFFFFFFFFFFFFFFFF AND PUSH4 0x70A08231 ADDRESS PUSH1 0x40 MLOAD DUP3 PUSH4 0xFFFFFFFF AND PUSH1 0xE0 SHL DUP2 MSTORE PUSH1 0x4 ADD PUSH2 0x2556 SWAP2 SWAP1 PUSH2 0x368B JUMP JUMPDEST PUSH1 0x20 PUSH1 0x40 MLOAD DUP1 DUP4 SUB DUP2 DUP7 DUP1 EXTCODESIZE ISZERO DUP1 ISZERO PUSH2 0x256E JUMPI PUSH1 0x0 DUP1 REVERT JUMPDEST POP GAS STATICCALL ISZERO DUP1 ISZERO PUSH2 0x2582 JUMPI RETURNDATASIZE PUSH1 0x0 DUP1 RETURNDATACOPY RETURNDATASIZE PUSH1 0x0 REVERT JUMPDEST POP POP POP POP PUSH1 0x40 MLOAD RETURNDATASIZE PUSH1 0x1F NOT PUSH1 0x1F DUP3 ADD AND DUP3 ADD DUP1 PUSH1 0x40 MSTORE POP DUP2 ADD SWAP1 PUSH2 0x25A6 SWAP2 SWAP1 PUSH2 0x3281 JUMP JUMPDEST SWAP2 POP PUSH1 0x0 DUP3 GT ISZERO PUSH2 0x27F2 JUMPI PUSH32 0x0 PUSH20 0xFFFFFFFFFFFFFFFFFFFFFFFFFFFFFFFFFFFFFFFF AND DUP4 DUP3 DUP2 MLOAD DUP2 LT PUSH2 0x25FB JUMPI PUSH2 0x25FA PUSH2 0x3E9A JUMP JUMPDEST JUMPDEST PUSH1 0x20 MUL PUSH1 0x20 ADD ADD MLOAD PUSH20 0xFFFFFFFFFFFFFFFFFFFFFFFFFFFFFFFFFFFFFFFF AND EQ ISZERO PUSH2 0x27AB JUMPI PUSH32 0x0 PUSH20 0xFFFFFFFFFFFFFFFFFFFFFFFFFFFFFFFFFFFFFFFF AND PUSH4 0x2E1A7D4D DUP4 PUSH1 0x40 MLOAD DUP3 PUSH4 0xFFFFFFFF AND PUSH1 0xE0 SHL DUP2 MSTORE PUSH1 0x4 ADD PUSH2 0x2678 SWAP2 SWAP1 PUSH2 0x39E0 JUMP JUMPDEST PUSH1 0x0 PUSH1 0x40 MLOAD DUP1 DUP4 SUB DUP2 PUSH1 0x0 DUP8 DUP1 EXTCODESIZE ISZERO DUP1 ISZERO PUSH2 0x2692 JUMPI PUSH1 0x0 DUP1 REVERT JUMPDEST POP GAS CALL ISZERO DUP1 ISZERO PUSH2 0x26A6 JUMPI RETURNDATASIZE PUSH1 0x0 DUP1 RETURNDATACOPY RETURNDATASIZE PUSH1 0x0 REVERT JUMPDEST POP POP POP POP PUSH1 0x0 CALLER PUSH20 0xFFFFFFFFFFFFFFFFFFFFFFFFFFFFFFFFFFFFFFFF AND DUP4 PUSH1 0x0 PUSH8 0xFFFFFFFFFFFFFFFF DUP2 GT ISZERO PUSH2 0x26DF JUMPI PUSH2 0x26DE PUSH2 0x3EC9 JUMP JUMPDEST JUMPDEST PUSH1 0x40 MLOAD SWAP1 DUP1 DUP3 MSTORE DUP1 PUSH1 0x1F ADD PUSH1 0x1F NOT AND PUSH1 0x20 ADD DUP3 ADD PUSH1 0x40 MSTORE DUP1 ISZERO PUSH2 0x2711 JUMPI DUP2 PUSH1 0x20 ADD PUSH1 0x1 DUP3 MUL DUP1 CALLDATASIZE DUP4 CALLDATACOPY DUP1 DUP3 ADD SWAP2 POP POP SWAP1 POP JUMPDEST POP PUSH1 0x40 MLOAD PUSH2 0x271F SWAP2 SWAP1 PUSH2 0x3674 JUMP JUMPDEST PUSH1 0x0 PUSH1 0x40 MLOAD DUP1 DUP4 SUB DUP2 DUP6 DUP8 GAS CALL SWAP3 POP POP POP RETURNDATASIZE DUP1 PUSH1 0x0 DUP2 EQ PUSH2 0x275C JUMPI PUSH1 0x40 MLOAD SWAP2 POP PUSH1 0x1F NOT PUSH1 0x3F RETURNDATASIZE ADD AND DUP3 ADD PUSH1 0x40 MSTORE RETURNDATASIZE DUP3 MSTORE RETURNDATASIZE PUSH1 0x0 PUSH1 0x20 DUP5 ADD RETURNDATACOPY PUSH2 0x2761 JUMP JUMPDEST PUSH1 0x60 SWAP2 POP JUMPDEST POP POP SWAP1 POP DUP1 PUSH2 0x27A5 JUMPI PUSH1 0x40 MLOAD PUSH32 0x8C379A000000000000000000000000000000000000000000000000000000000 DUP2 MSTORE PUSH1 0x4 ADD PUSH2 0x279C SWAP1 PUSH2 0x3860 JUMP JUMPDEST PUSH1 0x40 MLOAD DUP1 SWAP2 SUB SWAP1 REVERT JUMPDEST POP PUSH2 0x27F1 JUMP JUMPDEST PUSH2 0x27F0 CALLER DUP4 DUP6 DUP5 DUP2 MLOAD DUP2 LT PUSH2 0x27C3 JUMPI PUSH2 0x27C2 PUSH2 0x3E9A JUMP JUMPDEST JUMPDEST PUSH1 0x20 MUL PUSH1 0x20 ADD ADD MLOAD PUSH20 0xFFFFFFFFFFFFFFFFFFFFFFFFFFFFFFFFFFFFFFFF AND PUSH2 0x2BC6 SWAP1 SWAP3 SWAP2 SWAP1 PUSH4 0xFFFFFFFF AND JUMP JUMPDEST JUMPDEST JUMPDEST DUP1 DUP1 PUSH2 0x27FD SWAP1 PUSH2 0x3DC4 JUMP JUMPDEST SWAP2 POP POP PUSH2 0x24FA JUMP JUMPDEST POP POP POP JUMP JUMPDEST PUSH1 0x0 DUP3 PUSH20 0xFFFFFFFFFFFFFFFFFFFFFFFFFFFFFFFFFFFFFFFF AND PUSH4 0xDD62ED3E ADDRESS DUP5 PUSH1 0x40 MLOAD DUP4 PUSH4 0xFFFFFFFF AND PUSH1 0xE0 SHL DUP2 MSTORE PUSH1 0x4 ADD PUSH2 0x2847 SWAP3 SWAP2 SWAP1 PUSH2 0x36A6 JUMP JUMPDEST PUSH1 0x20 PUSH1 0x40 MLOAD DUP1 DUP4 SUB DUP2 DUP7 DUP1 EXTCODESIZE ISZERO DUP1 ISZERO PUSH2 0x285F JUMPI PUSH1 0x0 DUP1 REVERT JUMPDEST POP GAS STATICCALL ISZERO DUP1 ISZERO PUSH2 0x2873 JUMPI RETURNDATASIZE PUSH1 0x0 DUP1 RETURNDATACOPY RETURNDATASIZE PUSH1 0x0 REVERT JUMPDEST POP POP POP POP PUSH1 0x40 MLOAD RETURNDATASIZE PUSH1 0x1F NOT PUSH1 0x1F DUP3 ADD AND DUP3 ADD DUP1 PUSH1 0x40 MSTORE POP DUP2 ADD SWAP1 PUSH2 0x2897 SWAP2 SWAP1 PUSH2 0x3281 JUMP JUMPDEST EQ ISZERO PUSH2 0x28E9 JUMPI PUSH2 0x28E8 DUP2 PUSH32 0xFFFFFFFFFFFFFFFFFFFFFFFFFFFFFFFFFFFFFFFFFFFFFFFFFFFFFFFFFFFFFFFF DUP5 PUSH20 0xFFFFFFFFFFFFFFFFFFFFFFFFFFFFFFFFFFFFFFFF AND PUSH2 0x2C4C SWAP1 SWAP3 SWAP2 SWAP1 PUSH4 0xFFFFFFFF AND JUMP JUMPDEST JUMPDEST POP POP JUMP JUMPDEST PUSH1 0x0 DUP3 DUP3 DUP5 PUSH2 0x28FC SWAP2 SWAP1 PUSH2 0x3B7F JUMP JUMPDEST SWAP2 POP DUP2 LT ISZERO PUSH2 0x290A JUMPI PUSH1 0x0 DUP1 REVERT JUMPDEST SWAP3 SWAP2 POP POP JUMP JUMPDEST PUSH1 0x0 DUP3 DUP3 DUP5 PUSH2 0x291F SWAP2 SWAP1 PUSH2 0x3C60 JUMP JUMPDEST SWAP2 POP DUP2 GT ISZERO PUSH2 0x292D JUMPI PUSH1 0x0 DUP1 REVERT JUMPDEST SWAP3 SWAP2 POP POP JUMP JUMPDEST PUSH1 0x0 DUP1 DUP3 EQ ISZERO PUSH2 0x2946 JUMPI PUSH1 0x0 SWAP1 POP PUSH2 0x2AFA JUMP JUMPDEST PUSH1 0x0 DUP3 SWAP1 POP PUSH1 0x0 PUSH1 0x1 SWAP1 POP PUSH17 0x100000000000000000000000000000000 DUP3 LT PUSH2 0x2978 JUMPI PUSH1 0x80 DUP3 SWAP1 SHR SWAP2 POP PUSH1 0x40 DUP2 SWAP1 SHL SWAP1 POP JUMPDEST PUSH9 0x10000000000000000 DUP3 LT PUSH2 0x2997 JUMPI PUSH1 0x40 DUP3 SWAP1 SHR SWAP2 POP PUSH1 0x20 DUP2 SWAP1 SHL SWAP1 POP JUMPDEST PUSH5 0x100000000 DUP3 LT PUSH2 0x29B2 JUMPI PUSH1 0x20 DUP3 SWAP1 SHR SWAP2 POP PUSH1 0x10 DUP2 SWAP1 SHL SWAP1 POP JUMPDEST PUSH3 0x10000 DUP3 LT PUSH2 0x29CB JUMPI PUSH1 0x10 DUP3 SWAP1 SHR SWAP2 POP PUSH1 0x8 DUP2 SWAP1 SHL SWAP1 POP JUMPDEST PUSH2 0x100 DUP3 LT PUSH2 0x29E3 JUMPI PUSH1 0x8 DUP3 SWAP1 SHR SWAP2 POP PUSH1 0x4 DUP2 SWAP1 SHL SWAP1 POP JUMPDEST PUSH1 0x10 DUP3 LT PUSH2 0x29FA JUMPI PUSH1 0x4 DUP3 SWAP1 SHR SWAP2 POP PUSH1 0x2 DUP2 SWAP1 SHL SWAP1 POP JUMPDEST PUSH1 0x8 DUP3 LT PUSH2 0x2A0A JUMPI PUSH1 0x1 DUP2 SWAP1 SHL SWAP1 POP JUMPDEST PUSH1 0x1 DUP2 DUP6 PUSH2 0x2A18 SWAP2 SWAP1 PUSH2 0x3BD5 JUMP JUMPDEST DUP3 PUSH2 0x2A23 SWAP2 SWAP1 PUSH2 0x3B7F JUMP JUMPDEST SWAP1 SHR SWAP1 POP PUSH1 0x1 DUP2 DUP6 PUSH2 0x2A35 SWAP2 SWAP1 PUSH2 0x3BD5 JUMP JUMPDEST DUP3 PUSH2 0x2A40 SWAP2 SWAP1 PUSH2 0x3B7F JUMP JUMPDEST SWAP1 SHR SWAP1 POP PUSH1 0x1 DUP2 DUP6 PUSH2 0x2A52 SWAP2 SWAP1 PUSH2 0x3BD5 JUMP JUMPDEST DUP3 PUSH2 0x2A5D SWAP2 SWAP1 PUSH2 0x3B7F JUMP JUMPDEST SWAP1 SHR SWAP1 POP PUSH1 0x1 DUP2 DUP6 PUSH2 0x2A6F SWAP2 SWAP1 PUSH2 0x3BD5 JUMP JUMPDEST DUP3 PUSH2 0x2A7A SWAP2 SWAP1 PUSH2 0x3B7F JUMP JUMPDEST SWAP1 SHR SWAP1 POP PUSH1 0x1 DUP2 DUP6 PUSH2 0x2A8C SWAP2 SWAP1 PUSH2 0x3BD5 JUMP JUMPDEST DUP3 PUSH2 0x2A97 SWAP2 SWAP1 PUSH2 0x3B7F JUMP JUMPDEST SWAP1 SHR SWAP1 POP PUSH1 0x1 DUP2 DUP6 PUSH2 0x2AA9 SWAP2 SWAP1 PUSH2 0x3BD5 JUMP JUMPDEST DUP3 PUSH2 0x2AB4 SWAP2 SWAP1 PUSH2 0x3B7F JUMP JUMPDEST SWAP1 SHR SWAP1 POP PUSH1 0x1 DUP2 DUP6 PUSH2 0x2AC6 SWAP2 SWAP1 PUSH2 0x3BD5 JUMP JUMPDEST DUP3 PUSH2 0x2AD1 SWAP2 SWAP1 PUSH2 0x3B7F JUMP JUMPDEST SWAP1 SHR SWAP1 POP PUSH1 0x0 DUP2 DUP6 PUSH2 0x2AE3 SWAP2 SWAP1 PUSH2 0x3BD5 JUMP JUMPDEST SWAP1 POP DUP1 DUP3 LT PUSH2 0x2AF2 JUMPI DUP1 PUSH2 0x2AF4 JUMP JUMPDEST DUP2 JUMPDEST SWAP4 POP POP POP POP JUMPDEST SWAP2 SWAP1 POP JUMP JUMPDEST PUSH1 0x0 PUSH2 0x2B61 DUP3 PUSH1 0x40 MLOAD DUP1 PUSH1 0x40 ADD PUSH1 0x40 MSTORE DUP1 PUSH1 0x20 DUP2 MSTORE PUSH1 0x20 ADD PUSH32 0x5361666545524332303A206C6F772D6C6576656C2063616C6C206661696C6564 DUP2 MSTORE POP DUP6 PUSH20 0xFFFFFFFFFFFFFFFFFFFFFFFFFFFFFFFFFFFFFFFF AND PUSH2 0x2DAA SWAP1 SWAP3 SWAP2 SWAP1 PUSH4 0xFFFFFFFF AND JUMP JUMPDEST SWAP1 POP PUSH1 0x0 DUP2 MLOAD GT ISZERO PUSH2 0x2BC1 JUMPI DUP1 DUP1 PUSH1 0x20 ADD SWAP1 MLOAD DUP2 ADD SWAP1 PUSH2 0x2B81 SWAP2 SWAP1 PUSH2 0x3201 JUMP JUMPDEST PUSH2 0x2BC0 JUMPI PUSH1 0x40 MLOAD PUSH32 0x8C379A000000000000000000000000000000000000000000000000000000000 DUP2 MSTORE PUSH1 0x4 ADD PUSH2 0x2BB7 SWAP1 PUSH2 0x3980 JUMP JUMPDEST PUSH1 0x40 MLOAD DUP1 SWAP2 SUB SWAP1 REVERT JUMPDEST JUMPDEST POP POP POP JUMP JUMPDEST PUSH2 0x2C47 DUP4 PUSH4 0xA9059CBB PUSH1 0xE0 SHL DUP5 DUP5 PUSH1 0x40 MLOAD PUSH1 0x24 ADD PUSH2 0x2BE5 SWAP3 SWAP2 SWAP1 PUSH2 0x3784 JUMP JUMPDEST PUSH1 0x40 MLOAD PUSH1 0x20 DUP2 DUP4 SUB SUB DUP2 MSTORE SWAP1 PUSH1 0x40 MSTORE SWAP1 PUSH28 0xFFFFFFFFFFFFFFFFFFFFFFFFFFFFFFFFFFFFFFFFFFFFFFFFFFFFFFFF NOT AND PUSH1 0x20 DUP3 ADD DUP1 MLOAD PUSH28 0xFFFFFFFFFFFFFFFFFFFFFFFFFFFFFFFFFFFFFFFFFFFFFFFFFFFFFFFF DUP4 DUP2 DUP4 AND OR DUP4 MSTORE POP POP POP POP PUSH2 0x2AFF JUMP JUMPDEST POP POP POP JUMP JUMPDEST PUSH1 0x0 DUP2 EQ DUP1 PUSH2 0x2CE5 JUMPI POP PUSH1 0x0 DUP4 PUSH20 0xFFFFFFFFFFFFFFFFFFFFFFFFFFFFFFFFFFFFFFFF AND PUSH4 0xDD62ED3E ADDRESS DUP6 PUSH1 0x40 MLOAD DUP4 PUSH4 0xFFFFFFFF AND PUSH1 0xE0 SHL DUP2 MSTORE PUSH1 0x4 ADD PUSH2 0x2C93 SWAP3 SWAP2 SWAP1 PUSH2 0x36A6 JUMP JUMPDEST PUSH1 0x20 PUSH1 0x40 MLOAD DUP1 DUP4 SUB DUP2 DUP7 DUP1 EXTCODESIZE ISZERO DUP1 ISZERO PUSH2 0x2CAB JUMPI PUSH1 0x0 DUP1 REVERT JUMPDEST POP GAS STATICCALL ISZERO DUP1 ISZERO PUSH2 0x2CBF JUMPI RETURNDATASIZE PUSH1 0x0 DUP1 RETURNDATACOPY RETURNDATASIZE PUSH1 0x0 REVERT JUMPDEST POP POP POP POP PUSH1 0x40 MLOAD RETURNDATASIZE PUSH1 0x1F NOT PUSH1 0x1F DUP3 ADD AND DUP3 ADD DUP1 PUSH1 0x40 MSTORE POP DUP2 ADD SWAP1 PUSH2 0x2CE3 SWAP2 SWAP1 PUSH2 0x3281 JUMP JUMPDEST EQ JUMPDEST PUSH2 0x2D24 JUMPI PUSH1 0x40 MLOAD PUSH32 0x8C379A000000000000000000000000000000000000000000000000000000000 DUP2 MSTORE PUSH1 0x4 ADD PUSH2 0x2D1B SWAP1 PUSH2 0x39A0 JUMP JUMPDEST PUSH1 0x40 MLOAD DUP1 SWAP2 SUB SWAP1 REVERT JUMPDEST PUSH2 0x2DA5 DUP4 PUSH4 0x95EA7B3 PUSH1 0xE0 SHL DUP5 DUP5 PUSH1 0x40 MLOAD PUSH1 0x24 ADD PUSH2 0x2D43 SWAP3 SWAP2 SWAP1 PUSH2 0x3784 JUMP JUMPDEST PUSH1 0x40 MLOAD PUSH1 0x20 DUP2 DUP4 SUB SUB DUP2 MSTORE SWAP1 PUSH1 0x40 MSTORE SWAP1 PUSH28 0xFFFFFFFFFFFFFFFFFFFFFFFFFFFFFFFFFFFFFFFFFFFFFFFFFFFFFFFF NOT AND PUSH1 0x20 DUP3 ADD DUP1 MLOAD PUSH28 0xFFFFFFFFFFFFFFFFFFFFFFFFFFFFFFFFFFFFFFFFFFFFFFFFFFFFFFFF DUP4 DUP2 DUP4 AND OR DUP4 MSTORE POP POP POP POP PUSH2 0x2AFF JUMP JUMPDEST POP POP POP JUMP JUMPDEST PUSH1 0x60 PUSH2 0x2DB9 DUP5 DUP5 PUSH1 0x0 DUP6 PUSH2 0x2DC2 JUMP JUMPDEST SWAP1 POP SWAP4 SWAP3 POP POP POP JUMP JUMPDEST PUSH1 0x60 DUP3 SELFBALANCE LT ISZERO PUSH2 0x2E07 JUMPI PUSH1 0x40 MLOAD PUSH32 0x8C379A000000000000000000000000000000000000000000000000000000000 DUP2 MSTORE PUSH1 0x4 ADD PUSH2 0x2DFE SWAP1 PUSH2 0x38C0 JUMP JUMPDEST PUSH1 0x40 MLOAD DUP1 SWAP2 SUB SWAP1 REVERT JUMPDEST PUSH2 0x2E10 DUP6 PUSH2 0x2ED6 JUMP JUMPDEST PUSH2 0x2E4F JUMPI PUSH1 0x40 MLOAD PUSH32 0x8C379A000000000000000000000000000000000000000000000000000000000 DUP2 MSTORE PUSH1 0x4 ADD PUSH2 0x2E46 SWAP1 PUSH2 0x3940 JUMP JUMPDEST PUSH1 0x40 MLOAD DUP1 SWAP2 SUB SWAP1 REVERT JUMPDEST PUSH1 0x0 DUP1 DUP7 PUSH20 0xFFFFFFFFFFFFFFFFFFFFFFFFFFFFFFFFFFFFFFFF AND DUP6 DUP8 PUSH1 0x40 MLOAD PUSH2 0x2E78 SWAP2 SWAP1 PUSH2 0x3674 JUMP JUMPDEST PUSH1 0x0 PUSH1 0x40 MLOAD DUP1 DUP4 SUB DUP2 DUP6 DUP8 GAS CALL SWAP3 POP POP POP RETURNDATASIZE DUP1 PUSH1 0x0 DUP2 EQ PUSH2 0x2EB5 JUMPI PUSH1 0x40 MLOAD SWAP2 POP PUSH1 0x1F NOT PUSH1 0x3F RETURNDATASIZE ADD AND DUP3 ADD PUSH1 0x40 MSTORE RETURNDATASIZE DUP3 MSTORE RETURNDATASIZE PUSH1 0x0 PUSH1 0x20 DUP5 ADD RETURNDATACOPY PUSH2 0x2EBA JUMP JUMPDEST PUSH1 0x60 SWAP2 POP JUMPDEST POP SWAP2 POP SWAP2 POP PUSH2 0x2ECA DUP3 DUP3 DUP7 PUSH2 0x2EF9 JUMP JUMPDEST SWAP3 POP POP POP SWAP5 SWAP4 POP POP POP POP JUMP JUMPDEST PUSH1 0x0 DUP1 DUP3 PUSH20 0xFFFFFFFFFFFFFFFFFFFFFFFFFFFFFFFFFFFFFFFF AND EXTCODESIZE GT SWAP1 POP SWAP2 SWAP1 POP JUMP JUMPDEST PUSH1 0x60 DUP4 ISZERO PUSH2 0x2F09 JUMPI DUP3 SWAP1 POP PUSH2 0x2F59 JUMP JUMPDEST PUSH1 0x0 DUP4 MLOAD GT ISZERO PUSH2 0x2F1C JUMPI DUP3 MLOAD DUP1 DUP5 PUSH1 0x20 ADD REVERT JUMPDEST DUP2 PUSH1 0x40 MLOAD PUSH32 0x8C379A000000000000000000000000000000000000000000000000000000000 DUP2 MSTORE PUSH1 0x4 ADD PUSH2 0x2F50 SWAP2 SWAP1 PUSH2 0x37FE JUMP JUMPDEST PUSH1 0x40 MLOAD DUP1 SWAP2 SUB SWAP1 REVERT JUMPDEST SWAP4 SWAP3 POP POP POP JUMP JUMPDEST PUSH1 0x0 PUSH2 0x2F73 PUSH2 0x2F6E DUP5 PUSH2 0x3AE8 JUMP JUMPDEST PUSH2 0x3AC3 JUMP JUMPDEST SWAP1 POP DUP1 DUP4 DUP3 MSTORE PUSH1 0x20 DUP3 ADD SWAP1 POP DUP3 DUP6 PUSH1 0x20 DUP7 MUL DUP3 ADD GT ISZERO PUSH2 0x2F96 JUMPI PUSH2 0x2F95 PUSH2 0x3EFD JUMP JUMPDEST JUMPDEST PUSH1 0x0 JUMPDEST DUP6 DUP2 LT ISZERO PUSH2 0x2FC6 JUMPI DUP2 PUSH2 0x2FAC DUP9 DUP3 PUSH2 0x3067 JUMP JUMPDEST DUP5 MSTORE PUSH1 0x20 DUP5 ADD SWAP4 POP PUSH1 0x20 DUP4 ADD SWAP3 POP POP PUSH1 0x1 DUP2 ADD SWAP1 POP PUSH2 0x2F99 JUMP JUMPDEST POP POP POP SWAP4 SWAP3 POP POP POP JUMP JUMPDEST PUSH1 0x0 DUP2 CALLDATALOAD SWAP1 POP PUSH2 0x2FDF DUP2 PUSH2 0x42FD JUMP JUMPDEST SWAP3 SWAP2 POP POP JUMP JUMPDEST PUSH1 0x0 DUP2 MLOAD SWAP1 POP PUSH2 0x2FF4 DUP2 PUSH2 0x42FD JUMP JUMPDEST SWAP3 SWAP2 POP POP JUMP JUMPDEST PUSH1 0x0 DUP3 PUSH1 0x1F DUP4 ADD SLT PUSH2 0x300F JUMPI PUSH2 0x300E PUSH2 0x3EF8 JUMP JUMPDEST JUMPDEST DUP2 MLOAD PUSH2 0x301F DUP5 DUP3 PUSH1 0x20 DUP7 ADD PUSH2 0x2F60 JUMP JUMPDEST SWAP2 POP POP SWAP3 SWAP2 POP POP JUMP JUMPDEST PUSH1 0x0 DUP2 MLOAD SWAP1 POP PUSH2 0x3037 DUP2 PUSH2 0x4314 JUMP JUMPDEST SWAP3 SWAP2 POP POP JUMP JUMPDEST PUSH1 0x0 DUP2 MLOAD SWAP1 POP PUSH2 0x304C DUP2 PUSH2 0x432B JUMP JUMPDEST SWAP3 SWAP2 POP POP JUMP JUMPDEST PUSH1 0x0 DUP2 CALLDATALOAD SWAP1 POP PUSH2 0x3061 DUP2 PUSH2 0x4342 JUMP JUMPDEST SWAP3 SWAP2 POP POP JUMP JUMPDEST PUSH1 0x0 DUP2 MLOAD SWAP1 POP PUSH2 0x3076 DUP2 PUSH2 0x4342 JUMP JUMPDEST SWAP3 SWAP2 POP POP JUMP JUMPDEST PUSH1 0x0 DUP2 MLOAD SWAP1 POP PUSH2 0x308B DUP2 PUSH2 0x4359 JUMP JUMPDEST SWAP3 SWAP2 POP POP JUMP JUMPDEST PUSH1 0x0 PUSH1 0x20 DUP3 DUP5 SUB SLT ISZERO PUSH2 0x30A7 JUMPI PUSH2 0x30A6 PUSH2 0x3F07 JUMP JUMPDEST JUMPDEST PUSH1 0x0 PUSH2 0x30B5 DUP5 DUP3 DUP6 ADD PUSH2 0x2FE5 JUMP JUMPDEST SWAP2 POP POP SWAP3 SWAP2 POP POP JUMP JUMPDEST PUSH1 0x0 DUP1 PUSH1 0x0 PUSH1 0x60 DUP5 DUP7 SUB SLT ISZERO PUSH2 0x30D7 JUMPI PUSH2 0x30D6 PUSH2 0x3F07 JUMP JUMPDEST JUMPDEST PUSH1 0x0 PUSH2 0x30E5 DUP7 DUP3 DUP8 ADD PUSH2 0x2FD0 JUMP JUMPDEST SWAP4 POP POP PUSH1 0x20 PUSH2 0x30F6 DUP7 DUP3 DUP8 ADD PUSH2 0x2FD0 JUMP JUMPDEST SWAP3 POP POP PUSH1 0x40 PUSH2 0x3107 DUP7 DUP3 DUP8 ADD PUSH2 0x3052 JUMP JUMPDEST SWAP2 POP POP SWAP3 POP SWAP3 POP SWAP3 JUMP JUMPDEST PUSH1 0x0 DUP1 PUSH1 0x40 DUP4 DUP6 SUB SLT ISZERO PUSH2 0x3128 JUMPI PUSH2 0x3127 PUSH2 0x3F07 JUMP JUMPDEST JUMPDEST PUSH1 0x0 PUSH2 0x3136 DUP6 DUP3 DUP7 ADD PUSH2 0x2FD0 JUMP JUMPDEST SWAP3 POP POP PUSH1 0x20 PUSH2 0x3147 DUP6 DUP3 DUP7 ADD PUSH2 0x3052 JUMP JUMPDEST SWAP2 POP POP SWAP3 POP SWAP3 SWAP1 POP JUMP JUMPDEST PUSH1 0x0 DUP1 PUSH1 0x0 DUP1 PUSH1 0x80 DUP6 DUP8 SUB SLT ISZERO PUSH2 0x316B JUMPI PUSH2 0x316A PUSH2 0x3F07 JUMP JUMPDEST JUMPDEST PUSH1 0x0 PUSH2 0x3179 DUP8 DUP3 DUP9 ADD PUSH2 0x2FD0 JUMP JUMPDEST SWAP5 POP POP PUSH1 0x20 PUSH2 0x318A DUP8 DUP3 DUP9 ADD PUSH2 0x3052 JUMP JUMPDEST SWAP4 POP POP PUSH1 0x40 PUSH2 0x319B DUP8 DUP3 DUP9 ADD PUSH2 0x2FD0 JUMP JUMPDEST SWAP3 POP POP PUSH1 0x60 PUSH2 0x31AC DUP8 DUP3 DUP9 ADD PUSH2 0x3052 JUMP JUMPDEST SWAP2 POP POP SWAP3 SWAP6 SWAP2 SWAP5 POP SWAP3 POP JUMP JUMPDEST PUSH1 0x0 PUSH1 0x20 DUP3 DUP5 SUB SLT ISZERO PUSH2 0x31CE JUMPI PUSH2 0x31CD PUSH2 0x3F07 JUMP JUMPDEST JUMPDEST PUSH1 0x0 DUP3 ADD MLOAD PUSH8 0xFFFFFFFFFFFFFFFF DUP2 GT ISZERO PUSH2 0x31EC JUMPI PUSH2 0x31EB PUSH2 0x3F02 JUMP JUMPDEST JUMPDEST PUSH2 0x31F8 DUP5 DUP3 DUP6 ADD PUSH2 0x2FFA JUMP JUMPDEST SWAP2 POP POP SWAP3 SWAP2 POP POP JUMP JUMPDEST PUSH1 0x0 PUSH1 0x20 DUP3 DUP5 SUB SLT ISZERO PUSH2 0x3217 JUMPI PUSH2 0x3216 PUSH2 0x3F07 JUMP JUMPDEST JUMPDEST PUSH1 0x0 PUSH2 0x3225 DUP5 DUP3 DUP6 ADD PUSH2 0x3028 JUMP JUMPDEST SWAP2 POP POP SWAP3 SWAP2 POP POP JUMP JUMPDEST PUSH1 0x0 DUP1 PUSH1 0x0 PUSH1 0x60 DUP5 DUP7 SUB SLT ISZERO PUSH2 0x3247 JUMPI PUSH2 0x3246 PUSH2 0x3F07 JUMP JUMPDEST JUMPDEST PUSH1 0x0 PUSH2 0x3255 DUP7 DUP3 DUP8 ADD PUSH2 0x303D JUMP JUMPDEST SWAP4 POP POP PUSH1 0x20 PUSH2 0x3266 DUP7 DUP3 DUP8 ADD PUSH2 0x303D JUMP JUMPDEST SWAP3 POP POP PUSH1 0x40 PUSH2 0x3277 DUP7 DUP3 DUP8 ADD PUSH2 0x307C JUMP JUMPDEST SWAP2 POP POP SWAP3 POP SWAP3 POP SWAP3 JUMP JUMPDEST PUSH1 0x0 PUSH1 0x20 DUP3 DUP5 SUB SLT ISZERO PUSH2 0x3297 JUMPI PUSH2 0x3296 PUSH2 0x3F07 JUMP JUMPDEST JUMPDEST PUSH1 0x0 PUSH2 0x32A5 DUP5 DUP3 DUP6 ADD PUSH2 0x3067 JUMP JUMPDEST SWAP2 POP POP SWAP3 SWAP2 POP POP JUMP JUMPDEST PUSH1 0x0 DUP1 PUSH1 0x40 DUP4 DUP6 SUB SLT ISZERO PUSH2 0x32C5 JUMPI PUSH2 0x32C4 PUSH2 0x3F07 JUMP JUMPDEST JUMPDEST PUSH1 0x0 PUSH2 0x32D3 DUP6 DUP3 DUP7 ADD PUSH2 0x3067 JUMP JUMPDEST SWAP3 POP POP PUSH1 0x20 PUSH2 0x32E4 DUP6 DUP3 DUP7 ADD PUSH2 0x3067 JUMP JUMPDEST SWAP2 POP POP SWAP3 POP SWAP3 SWAP1 POP JUMP JUMPDEST PUSH1 0x0 DUP1 PUSH1 0x0 PUSH1 0x60 DUP5 DUP7 SUB SLT ISZERO PUSH2 0x3307 JUMPI PUSH2 0x3306 PUSH2 0x3F07 JUMP JUMPDEST JUMPDEST PUSH1 0x0 PUSH2 0x3315 DUP7 DUP3 DUP8 ADD PUSH2 0x3067 JUMP JUMPDEST SWAP4 POP POP PUSH1 0x20 PUSH2 0x3326 DUP7 DUP3 DUP8 ADD PUSH2 0x3067 JUMP JUMPDEST SWAP3 POP POP PUSH1 0x40 PUSH2 0x3337 DUP7 DUP3 DUP8 ADD PUSH2 0x3067 JUMP JUMPDEST SWAP2 POP POP SWAP3 POP SWAP3 POP SWAP3 JUMP JUMPDEST PUSH1 0x0 PUSH2 0x334D DUP4 DUP4 PUSH2 0x3359 JUMP JUMPDEST PUSH1 0x20 DUP4 ADD SWAP1 POP SWAP3 SWAP2 POP POP JUMP JUMPDEST PUSH2 0x3362 DUP2 PUSH2 0x3C94 JUMP JUMPDEST DUP3 MSTORE POP POP JUMP JUMPDEST PUSH2 0x3371 DUP2 PUSH2 0x3C94 JUMP JUMPDEST DUP3 MSTORE POP POP JUMP JUMPDEST PUSH1 0x0 PUSH2 0x3382 DUP3 PUSH2 0x3B24 JUMP JUMPDEST PUSH2 0x338C DUP2 DUP6 PUSH2 0x3B52 JUMP JUMPDEST SWAP4 POP PUSH2 0x3397 DUP4 PUSH2 0x3B14 JUMP JUMPDEST DUP1 PUSH1 0x0 JUMPDEST DUP4 DUP2 LT ISZERO PUSH2 0x33C8 JUMPI DUP2 MLOAD PUSH2 0x33AF DUP9 DUP3 PUSH2 0x3341 JUMP JUMPDEST SWAP8 POP PUSH2 0x33BA DUP4 PUSH2 0x3B45 JUMP JUMPDEST SWAP3 POP POP PUSH1 0x1 DUP2 ADD SWAP1 POP PUSH2 0x339B JUMP JUMPDEST POP DUP6 SWAP4 POP POP POP POP SWAP3 SWAP2 POP POP JUMP JUMPDEST PUSH2 0x33DE DUP2 PUSH2 0x3CA6 JUMP JUMPDEST DUP3 MSTORE POP POP JUMP JUMPDEST PUSH1 0x0 PUSH2 0x33EF DUP3 PUSH2 0x3B2F JUMP JUMPDEST PUSH2 0x33F9 DUP2 DUP6 PUSH2 0x3B63 JUMP JUMPDEST SWAP4 POP PUSH2 0x3409 DUP2 DUP6 PUSH1 0x20 DUP7 ADD PUSH2 0x3D60 JUMP JUMPDEST DUP1 DUP5 ADD SWAP2 POP POP SWAP3 SWAP2 POP POP JUMP JUMPDEST PUSH2 0x341E DUP2 PUSH2 0x3D06 JUMP JUMPDEST DUP3 MSTORE POP POP JUMP JUMPDEST PUSH2 0x342D DUP2 PUSH2 0x3D18 JUMP JUMPDEST DUP3 MSTORE POP POP JUMP JUMPDEST PUSH2 0x343C DUP2 PUSH2 0x3D2A JUMP JUMPDEST DUP3 MSTORE POP POP JUMP JUMPDEST PUSH1 0x0 PUSH2 0x344D DUP3 PUSH2 0x3B3A JUMP JUMPDEST PUSH2 0x3457 DUP2 DUP6 PUSH2 0x3B6E JUMP JUMPDEST SWAP4 POP PUSH2 0x3467 DUP2 DUP6 PUSH1 0x20 DUP7 ADD PUSH2 0x3D60 JUMP JUMPDEST PUSH2 0x3470 DUP2 PUSH2 0x3F0C JUMP JUMPDEST DUP5 ADD SWAP2 POP POP SWAP3 SWAP2 POP POP JUMP JUMPDEST PUSH1 0x0 PUSH2 0x3488 PUSH1 0x29 DUP4 PUSH2 0x3B6E JUMP JUMPDEST SWAP2 POP PUSH2 0x3493 DUP3 PUSH2 0x3F1D JUMP JUMPDEST PUSH1 0x40 DUP3 ADD SWAP1 POP SWAP2 SWAP1 POP JUMP JUMPDEST PUSH1 0x0 PUSH2 0x34AB PUSH1 0x20 DUP4 PUSH2 0x3B6E JUMP JUMPDEST SWAP2 POP PUSH2 0x34B6 DUP3 PUSH2 0x3F6C JUMP JUMPDEST PUSH1 0x20 DUP3 ADD SWAP1 POP SWAP2 SWAP1 POP JUMP JUMPDEST PUSH1 0x0 PUSH2 0x34CE PUSH1 0x1A DUP4 PUSH2 0x3B6E JUMP JUMPDEST SWAP2 POP PUSH2 0x34D9 DUP3 PUSH2 0x3F95 JUMP JUMPDEST PUSH1 0x20 DUP3 ADD SWAP1 POP SWAP2 SWAP1 POP JUMP JUMPDEST PUSH1 0x0 PUSH2 0x34F1 PUSH1 0x2E DUP4 PUSH2 0x3B6E JUMP JUMPDEST SWAP2 POP PUSH2 0x34FC DUP3 PUSH2 0x3FBE JUMP JUMPDEST PUSH1 0x40 DUP3 ADD SWAP1 POP SWAP2 SWAP1 POP JUMP JUMPDEST PUSH1 0x0 PUSH2 0x3514 PUSH1 0x26 DUP4 PUSH2 0x3B6E JUMP JUMPDEST SWAP2 POP PUSH2 0x351F DUP3 PUSH2 0x400D JUMP JUMPDEST PUSH1 0x40 DUP3 ADD SWAP1 POP SWAP2 SWAP1 POP JUMP JUMPDEST PUSH1 0x0 PUSH2 0x3537 PUSH1 0x26 DUP4 PUSH2 0x3B6E JUMP JUMPDEST SWAP2 POP PUSH2 0x3542 DUP3 PUSH2 0x405C JUMP JUMPDEST PUSH1 0x40 DUP3 ADD SWAP1 POP SWAP2 SWAP1 POP JUMP JUMPDEST PUSH1 0x0 PUSH2 0x355A PUSH1 0x21 DUP4 PUSH2 0x3B6E JUMP JUMPDEST SWAP2 POP PUSH2 0x3565 DUP3 PUSH2 0x40AB JUMP JUMPDEST PUSH1 0x40 DUP3 ADD SWAP1 POP SWAP2 SWAP1 POP JUMP JUMPDEST PUSH1 0x0 PUSH2 0x357D PUSH1 0x25 DUP4 PUSH2 0x3B6E JUMP JUMPDEST SWAP2 POP PUSH2 0x3588 DUP3 PUSH2 0x40FA JUMP JUMPDEST PUSH1 0x40 DUP3 ADD SWAP1 POP SWAP2 SWAP1 POP JUMP JUMPDEST PUSH1 0x0 PUSH2 0x35A0 PUSH1 0x2D DUP4 PUSH2 0x3B6E JUMP JUMPDEST SWAP2 POP PUSH2 0x35AB DUP3 PUSH2 0x4149 JUMP JUMPDEST PUSH1 0x40 DUP3 ADD SWAP1 POP SWAP2 SWAP1 POP JUMP JUMPDEST PUSH1 0x0 PUSH2 0x35C3 PUSH1 0x1D DUP4 PUSH2 0x3B6E JUMP JUMPDEST SWAP2 POP PUSH2 0x35CE DUP3 PUSH2 0x4198 JUMP JUMPDEST PUSH1 0x20 DUP3 ADD SWAP1 POP SWAP2 SWAP1 POP JUMP JUMPDEST PUSH1 0x0 PUSH2 0x35E6 PUSH1 0x26 DUP4 PUSH2 0x3B6E JUMP JUMPDEST SWAP2 POP PUSH2 0x35F1 DUP3 PUSH2 0x41C1 JUMP JUMPDEST PUSH1 0x40 DUP3 ADD SWAP1 POP SWAP2 SWAP1 POP JUMP JUMPDEST PUSH1 0x0 PUSH2 0x3609 PUSH1 0x2A DUP4 PUSH2 0x3B6E JUMP JUMPDEST SWAP2 POP PUSH2 0x3614 DUP3 PUSH2 0x4210 JUMP JUMPDEST PUSH1 0x40 DUP3 ADD SWAP1 POP SWAP2 SWAP1 POP JUMP JUMPDEST PUSH1 0x0 PUSH2 0x362C PUSH1 0x36 DUP4 PUSH2 0x3B6E JUMP JUMPDEST SWAP2 POP PUSH2 0x3637 DUP3 PUSH2 0x425F JUMP JUMPDEST PUSH1 0x40 DUP3 ADD SWAP1 POP SWAP2 SWAP1 POP JUMP JUMPDEST PUSH1 0x0 PUSH2 0x364F PUSH1 0x30 DUP4 PUSH2 0x3B6E JUMP JUMPDEST SWAP2 POP PUSH2 0x365A DUP3 PUSH2 0x42AE JUMP JUMPDEST PUSH1 0x40 DUP3 ADD SWAP1 POP SWAP2 SWAP1 POP JUMP JUMPDEST PUSH2 0x366E DUP2 PUSH2 0x3CEC JUMP JUMPDEST DUP3 MSTORE POP POP JUMP JUMPDEST PUSH1 0x0 PUSH2 0x3680 DUP3 DUP5 PUSH2 0x33E4 JUMP JUMPDEST SWAP2 POP DUP2 SWAP1 POP SWAP3 SWAP2 POP POP JUMP JUMPDEST PUSH1 0x0 PUSH1 0x20 DUP3 ADD SWAP1 POP PUSH2 0x36A0 PUSH1 0x0 DUP4 ADD DUP5 PUSH2 0x3368 JUMP JUMPDEST SWAP3 SWAP2 POP POP JUMP JUMPDEST PUSH1 0x0 PUSH1 0x40 DUP3 ADD SWAP1 POP PUSH2 0x36BB PUSH1 0x0 DUP4 ADD DUP6 PUSH2 0x3368 JUMP JUMPDEST PUSH2 0x36C8 PUSH1 0x20 DUP4 ADD DUP5 PUSH2 0x3368 JUMP JUMPDEST SWAP4 SWAP3 POP POP POP JUMP JUMPDEST PUSH1 0x0 PUSH1 0x60 DUP3 ADD SWAP1 POP PUSH2 0x36E4 PUSH1 0x0 DUP4 ADD DUP7 PUSH2 0x3368 JUMP JUMPDEST PUSH2 0x36F1 PUSH1 0x20 DUP4 ADD DUP6 PUSH2 0x3368 JUMP JUMPDEST PUSH2 0x36FE PUSH1 0x40 DUP4 ADD DUP5 PUSH2 0x3665 JUMP JUMPDEST SWAP5 SWAP4 POP POP POP POP JUMP JUMPDEST PUSH1 0x0 PUSH2 0x100 DUP3 ADD SWAP1 POP PUSH2 0x371C PUSH1 0x0 DUP4 ADD DUP12 PUSH2 0x3368 JUMP JUMPDEST PUSH2 0x3729 PUSH1 0x20 DUP4 ADD DUP11 PUSH2 0x3368 JUMP JUMPDEST PUSH2 0x3736 PUSH1 0x40 DUP4 ADD DUP10 PUSH2 0x3665 JUMP JUMPDEST PUSH2 0x3743 PUSH1 0x60 DUP4 ADD DUP9 PUSH2 0x3665 JUMP JUMPDEST PUSH2 0x3750 PUSH1 0x80 DUP4 ADD DUP8 PUSH2 0x3433 JUMP JUMPDEST PUSH2 0x375D PUSH1 0xA0 DUP4 ADD DUP7 PUSH2 0x3433 JUMP JUMPDEST PUSH2 0x376A PUSH1 0xC0 DUP4 ADD DUP6 PUSH2 0x3368 JUMP JUMPDEST PUSH2 0x3777 PUSH1 0xE0 DUP4 ADD DUP5 PUSH2 0x3665 JUMP JUMPDEST SWAP10 SWAP9 POP POP POP POP POP POP POP POP POP JUMP JUMPDEST PUSH1 0x0 PUSH1 0x40 DUP3 ADD SWAP1 POP PUSH2 0x3799 PUSH1 0x0 DUP4 ADD DUP6 PUSH2 0x3368 JUMP JUMPDEST PUSH2 0x37A6 PUSH1 0x20 DUP4 ADD DUP5 PUSH2 0x3665 JUMP JUMPDEST SWAP4 SWAP3 POP POP POP JUMP JUMPDEST PUSH1 0x0 PUSH1 0x20 DUP3 ADD SWAP1 POP PUSH2 0x37C2 PUSH1 0x0 DUP4 ADD DUP5 PUSH2 0x33D5 JUMP JUMPDEST SWAP3 SWAP2 POP POP JUMP JUMPDEST PUSH1 0x0 PUSH1 0x20 DUP3 ADD SWAP1 POP PUSH2 0x37DD PUSH1 0x0 DUP4 ADD DUP5 PUSH2 0x3415 JUMP JUMPDEST SWAP3 SWAP2 POP POP JUMP JUMPDEST PUSH1 0x0 PUSH1 0x20 DUP3 ADD SWAP1 POP PUSH2 0x37F8 PUSH1 0x0 DUP4 ADD DUP5 PUSH2 0x3424 JUMP JUMPDEST SWAP3 SWAP2 POP POP JUMP JUMPDEST PUSH1 0x0 PUSH1 0x20 DUP3 ADD SWAP1 POP DUP2 DUP2 SUB PUSH1 0x0 DUP4 ADD MSTORE PUSH2 0x3818 DUP2 DUP5 PUSH2 0x3442 JUMP JUMPDEST SWAP1 POP SWAP3 SWAP2 POP POP JUMP JUMPDEST PUSH1 0x0 PUSH1 0x20 DUP3 ADD SWAP1 POP DUP2 DUP2 SUB PUSH1 0x0 DUP4 ADD MSTORE PUSH2 0x3839 DUP2 PUSH2 0x347B JUMP JUMPDEST SWAP1 POP SWAP2 SWAP1 POP JUMP JUMPDEST PUSH1 0x0 PUSH1 0x20 DUP3 ADD SWAP1 POP DUP2 DUP2 SUB PUSH1 0x0 DUP4 ADD MSTORE PUSH2 0x3859 DUP2 PUSH2 0x349E JUMP JUMPDEST SWAP1 POP SWAP2 SWAP1 POP JUMP JUMPDEST PUSH1 0x0 PUSH1 0x20 DUP3 ADD SWAP1 POP DUP2 DUP2 SUB PUSH1 0x0 DUP4 ADD MSTORE PUSH2 0x3879 DUP2 PUSH2 0x34C1 JUMP JUMPDEST SWAP1 POP SWAP2 SWAP1 POP JUMP JUMPDEST PUSH1 0x0 PUSH1 0x20 DUP3 ADD SWAP1 POP DUP2 DUP2 SUB PUSH1 0x0 DUP4 ADD MSTORE PUSH2 0x3899 DUP2 PUSH2 0x34E4 JUMP JUMPDEST SWAP1 POP SWAP2 SWAP1 POP JUMP JUMPDEST PUSH1 0x0 PUSH1 0x20 DUP3 ADD SWAP1 POP DUP2 DUP2 SUB PUSH1 0x0 DUP4 ADD MSTORE PUSH2 0x38B9 DUP2 PUSH2 0x3507 JUMP JUMPDEST SWAP1 POP SWAP2 SWAP1 POP JUMP JUMPDEST PUSH1 0x0 PUSH1 0x20 DUP3 ADD SWAP1 POP DUP2 DUP2 SUB PUSH1 0x0 DUP4 ADD MSTORE PUSH2 0x38D9 DUP2 PUSH2 0x352A JUMP JUMPDEST SWAP1 POP SWAP2 SWAP1 POP JUMP JUMPDEST PUSH1 0x0 PUSH1 0x20 DUP3 ADD SWAP1 POP DUP2 DUP2 SUB PUSH1 0x0 DUP4 ADD MSTORE PUSH2 0x38F9 DUP2 PUSH2 0x354D JUMP JUMPDEST SWAP1 POP SWAP2 SWAP1 POP JUMP JUMPDEST PUSH1 0x0 PUSH1 0x20 DUP3 ADD SWAP1 POP DUP2 DUP2 SUB PUSH1 0x0 DUP4 ADD MSTORE PUSH2 0x3919 DUP2 PUSH2 0x3570 JUMP JUMPDEST SWAP1 POP SWAP2 SWAP1 POP JUMP JUMPDEST PUSH1 0x0 PUSH1 0x20 DUP3 ADD SWAP1 POP DUP2 DUP2 SUB PUSH1 0x0 DUP4 ADD MSTORE PUSH2 0x3939 DUP2 PUSH2 0x3593 JUMP JUMPDEST SWAP1 POP SWAP2 SWAP1 POP JUMP JUMPDEST PUSH1 0x0 PUSH1 0x20 DUP3 ADD SWAP1 POP DUP2 DUP2 SUB PUSH1 0x0 DUP4 ADD MSTORE PUSH2 0x3959 DUP2 PUSH2 0x35B6 JUMP JUMPDEST SWAP1 POP SWAP2 SWAP1 POP JUMP JUMPDEST PUSH1 0x0 PUSH1 0x20 DUP3 ADD SWAP1 POP DUP2 DUP2 SUB PUSH1 0x0 DUP4 ADD MSTORE PUSH2 0x3979 DUP2 PUSH2 0x35D9 JUMP JUMPDEST SWAP1 POP SWAP2 SWAP1 POP JUMP JUMPDEST PUSH1 0x0 PUSH1 0x20 DUP3 ADD SWAP1 POP DUP2 DUP2 SUB PUSH1 0x0 DUP4 ADD MSTORE PUSH2 0x3999 DUP2 PUSH2 0x35FC JUMP JUMPDEST SWAP1 POP SWAP2 SWAP1 POP JUMP JUMPDEST PUSH1 0x0 PUSH1 0x20 DUP3 ADD SWAP1 POP DUP2 DUP2 SUB PUSH1 0x0 DUP4 ADD MSTORE PUSH2 0x39B9 DUP2 PUSH2 0x361F JUMP JUMPDEST SWAP1 POP SWAP2 SWAP1 POP JUMP JUMPDEST PUSH1 0x0 PUSH1 0x20 DUP3 ADD SWAP1 POP DUP2 DUP2 SUB PUSH1 0x0 DUP4 ADD MSTORE PUSH2 0x39D9 DUP2 PUSH2 0x3642 JUMP JUMPDEST SWAP1 POP SWAP2 SWAP1 POP JUMP JUMPDEST PUSH1 0x0 PUSH1 0x20 DUP3 ADD SWAP1 POP PUSH2 0x39F5 PUSH1 0x0 DUP4 ADD DUP5 PUSH2 0x3665 JUMP JUMPDEST SWAP3 SWAP2 POP POP JUMP JUMPDEST PUSH1 0x0 PUSH1 0x60 DUP3 ADD SWAP1 POP PUSH2 0x3A10 PUSH1 0x0 DUP4 ADD DUP7 PUSH2 0x3665 JUMP JUMPDEST PUSH2 0x3A1D PUSH1 0x20 DUP4 ADD DUP6 PUSH2 0x3665 JUMP JUMPDEST PUSH2 0x3A2A PUSH1 0x40 DUP4 ADD DUP5 PUSH2 0x3368 JUMP JUMPDEST SWAP5 SWAP4 POP POP POP POP JUMP JUMPDEST PUSH1 0x0 PUSH1 0xA0 DUP3 ADD SWAP1 POP PUSH2 0x3A47 PUSH1 0x0 DUP4 ADD DUP9 PUSH2 0x3665 JUMP JUMPDEST PUSH2 0x3A54 PUSH1 0x20 DUP4 ADD DUP8 PUSH2 0x3665 JUMP JUMPDEST DUP2 DUP2 SUB PUSH1 0x40 DUP4 ADD MSTORE PUSH2 0x3A66 DUP2 DUP7 PUSH2 0x3377 JUMP JUMPDEST SWAP1 POP PUSH2 0x3A75 PUSH1 0x60 DUP4 ADD DUP6 PUSH2 0x3368 JUMP JUMPDEST PUSH2 0x3A82 PUSH1 0x80 DUP4 ADD DUP5 PUSH2 0x3665 JUMP JUMPDEST SWAP7 SWAP6 POP POP POP POP POP POP JUMP JUMPDEST PUSH1 0x0 PUSH1 0x60 DUP3 ADD SWAP1 POP PUSH2 0x3AA1 PUSH1 0x0 DUP4 ADD DUP7 PUSH2 0x3665 JUMP JUMPDEST PUSH2 0x3AAE PUSH1 0x20 DUP4 ADD DUP6 PUSH2 0x3665 JUMP JUMPDEST PUSH2 0x3ABB PUSH1 0x40 DUP4 ADD DUP5 PUSH2 0x3665 JUMP JUMPDEST SWAP5 SWAP4 POP POP POP POP JUMP JUMPDEST PUSH1 0x0 PUSH2 0x3ACD PUSH2 0x3ADE JUMP JUMPDEST SWAP1 POP PUSH2 0x3AD9 DUP3 DUP3 PUSH2 0x3D93 JUMP JUMPDEST SWAP2 SWAP1 POP JUMP JUMPDEST PUSH1 0x0 PUSH1 0x40 MLOAD SWAP1 POP SWAP1 JUMP JUMPDEST PUSH1 0x0 PUSH8 0xFFFFFFFFFFFFFFFF DUP3 GT ISZERO PUSH2 0x3B03 JUMPI PUSH2 0x3B02 PUSH2 0x3EC9 JUMP JUMPDEST JUMPDEST PUSH1 0x20 DUP3 MUL SWAP1 POP PUSH1 0x20 DUP2 ADD SWAP1 POP SWAP2 SWAP1 POP JUMP JUMPDEST PUSH1 0x0 DUP2 SWAP1 POP PUSH1 0x20 DUP3 ADD SWAP1 POP SWAP2 SWAP1 POP JUMP JUMPDEST PUSH1 0x0 DUP2 MLOAD SWAP1 POP SWAP2 SWAP1 POP JUMP JUMPDEST PUSH1 0x0 DUP2 MLOAD SWAP1 POP SWAP2 SWAP1 POP JUMP JUMPDEST PUSH1 0x0 DUP2 MLOAD SWAP1 POP SWAP2 SWAP1 POP JUMP JUMPDEST PUSH1 0x0 PUSH1 0x20 DUP3 ADD SWAP1 POP SWAP2 SWAP1 POP JUMP JUMPDEST PUSH1 0x0 DUP3 DUP3 MSTORE PUSH1 0x20 DUP3 ADD SWAP1 POP SWAP3 SWAP2 POP POP JUMP JUMPDEST PUSH1 0x0 DUP2 SWAP1 POP SWAP3 SWAP2 POP POP JUMP JUMPDEST PUSH1 0x0 DUP3 DUP3 MSTORE PUSH1 0x20 DUP3 ADD SWAP1 POP SWAP3 SWAP2 POP POP JUMP JUMPDEST PUSH1 0x0 PUSH2 0x3B8A DUP3 PUSH2 0x3CEC JUMP JUMPDEST SWAP2 POP PUSH2 0x3B95 DUP4 PUSH2 0x3CEC JUMP JUMPDEST SWAP3 POP DUP3 PUSH32 0xFFFFFFFFFFFFFFFFFFFFFFFFFFFFFFFFFFFFFFFFFFFFFFFFFFFFFFFFFFFFFFFF SUB DUP3 GT ISZERO PUSH2 0x3BCA JUMPI PUSH2 0x3BC9 PUSH2 0x3E3C JUMP JUMPDEST JUMPDEST DUP3 DUP3 ADD SWAP1 POP SWAP3 SWAP2 POP POP JUMP JUMPDEST PUSH1 0x0 PUSH2 0x3BE0 DUP3 PUSH2 0x3CEC JUMP JUMPDEST SWAP2 POP PUSH2 0x3BEB DUP4 PUSH2 0x3CEC JUMP JUMPDEST SWAP3 POP DUP3 PUSH2 0x3BFB JUMPI PUSH2 0x3BFA PUSH2 0x3E6B JUMP JUMPDEST JUMPDEST DUP3 DUP3 DIV SWAP1 POP SWAP3 SWAP2 POP POP JUMP JUMPDEST PUSH1 0x0 PUSH2 0x3C11 DUP3 PUSH2 0x3CEC JUMP JUMPDEST SWAP2 POP PUSH2 0x3C1C DUP4 PUSH2 0x3CEC JUMP JUMPDEST SWAP3 POP DUP2 PUSH32 0xFFFFFFFFFFFFFFFFFFFFFFFFFFFFFFFFFFFFFFFFFFFFFFFFFFFFFFFFFFFFFFFF DIV DUP4 GT DUP3 ISZERO ISZERO AND ISZERO PUSH2 0x3C55 JUMPI PUSH2 0x3C54 PUSH2 0x3E3C JUMP JUMPDEST JUMPDEST DUP3 DUP3 MUL SWAP1 POP SWAP3 SWAP2 POP POP JUMP JUMPDEST PUSH1 0x0 PUSH2 0x3C6B DUP3 PUSH2 0x3CEC JUMP JUMPDEST SWAP2 POP PUSH2 0x3C76 DUP4 PUSH2 0x3CEC JUMP JUMPDEST SWAP3 POP DUP3 DUP3 LT ISZERO PUSH2 0x3C89 JUMPI PUSH2 0x3C88 PUSH2 0x3E3C JUMP JUMPDEST JUMPDEST DUP3 DUP3 SUB SWAP1 POP SWAP3 SWAP2 POP POP JUMP JUMPDEST PUSH1 0x0 PUSH2 0x3C9F DUP3 PUSH2 0x3CCC JUMP JUMPDEST SWAP1 POP SWAP2 SWAP1 POP JUMP JUMPDEST PUSH1 0x0 DUP2 ISZERO ISZERO SWAP1 POP SWAP2 SWAP1 POP JUMP JUMPDEST PUSH1 0x0 PUSH14 0xFFFFFFFFFFFFFFFFFFFFFFFFFFFF DUP3 AND SWAP1 POP SWAP2 SWAP1 POP JUMP JUMPDEST PUSH1 0x0 PUSH20 0xFFFFFFFFFFFFFFFFFFFFFFFFFFFFFFFFFFFFFFFF DUP3 AND SWAP1 POP SWAP2 SWAP1 POP JUMP JUMPDEST PUSH1 0x0 DUP2 SWAP1 POP SWAP2 SWAP1 POP JUMP JUMPDEST PUSH1 0x0 PUSH4 0xFFFFFFFF DUP3 AND SWAP1 POP SWAP2 SWAP1 POP JUMP JUMPDEST PUSH1 0x0 PUSH2 0x3D11 DUP3 PUSH2 0x3D3C JUMP JUMPDEST SWAP1 POP SWAP2 SWAP1 POP JUMP JUMPDEST PUSH1 0x0 PUSH2 0x3D23 DUP3 PUSH2 0x3D3C JUMP JUMPDEST SWAP1 POP SWAP2 SWAP1 POP JUMP JUMPDEST PUSH1 0x0 PUSH2 0x3D35 DUP3 PUSH2 0x3CEC JUMP JUMPDEST SWAP1 POP SWAP2 SWAP1 POP JUMP JUMPDEST PUSH1 0x0 PUSH2 0x3D47 DUP3 PUSH2 0x3D4E JUMP JUMPDEST SWAP1 POP SWAP2 SWAP1 POP JUMP JUMPDEST PUSH1 0x0 PUSH2 0x3D59 DUP3 PUSH2 0x3CCC JUMP JUMPDEST SWAP1 POP SWAP2 SWAP1 POP JUMP JUMPDEST PUSH1 0x0 JUMPDEST DUP4 DUP2 LT ISZERO PUSH2 0x3D7E JUMPI DUP1 DUP3 ADD MLOAD DUP2 DUP5 ADD MSTORE PUSH1 0x20 DUP2 ADD SWAP1 POP PUSH2 0x3D63 JUMP JUMPDEST DUP4 DUP2 GT ISZERO PUSH2 0x3D8D JUMPI PUSH1 0x0 DUP5 DUP5 ADD MSTORE JUMPDEST POP POP POP POP JUMP JUMPDEST PUSH2 0x3D9C DUP3 PUSH2 0x3F0C JUMP JUMPDEST DUP2 ADD DUP2 DUP2 LT PUSH8 0xFFFFFFFFFFFFFFFF DUP3 GT OR ISZERO PUSH2 0x3DBB JUMPI PUSH2 0x3DBA PUSH2 0x3EC9 JUMP JUMPDEST JUMPDEST DUP1 PUSH1 0x40 MSTORE POP POP POP JUMP JUMPDEST PUSH1 0x0 PUSH2 0x3DCF DUP3 PUSH2 0x3CEC JUMP JUMPDEST SWAP2 POP PUSH32 0xFFFFFFFFFFFFFFFFFFFFFFFFFFFFFFFFFFFFFFFFFFFFFFFFFFFFFFFFFFFFFFFF DUP3 EQ ISZERO PUSH2 0x3E02 JUMPI PUSH2 0x3E01 PUSH2 0x3E3C JUMP JUMPDEST JUMPDEST PUSH1 0x1 DUP3 ADD SWAP1 POP SWAP2 SWAP1 POP JUMP JUMPDEST PUSH32 0x4E487B7100000000000000000000000000000000000000000000000000000000 PUSH1 0x0 MSTORE PUSH1 0x1 PUSH1 0x4 MSTORE PUSH1 0x24 PUSH1 0x0 REVERT JUMPDEST PUSH32 0x4E487B7100000000000000000000000000000000000000000000000000000000 PUSH1 0x0 MSTORE PUSH1 0x11 PUSH1 0x4 MSTORE PUSH1 0x24 PUSH1 0x0 REVERT JUMPDEST PUSH32 0x4E487B7100000000000000000000000000000000000000000000000000000000 PUSH1 0x0 MSTORE PUSH1 0x12 PUSH1 0x4 MSTORE PUSH1 0x24 PUSH1 0x0 REVERT JUMPDEST PUSH32 0x4E487B7100000000000000000000000000000000000000000000000000000000 PUSH1 0x0 MSTORE PUSH1 0x32 PUSH1 0x4 MSTORE PUSH1 0x24 PUSH1 0x0 REVERT JUMPDEST PUSH32 0x4E487B7100000000000000000000000000000000000000000000000000000000 PUSH1 0x0 MSTORE PUSH1 0x41 PUSH1 0x4 MSTORE PUSH1 0x24 PUSH1 0x0 REVERT JUMPDEST PUSH1 0x0 DUP1 REVERT JUMPDEST PUSH1 0x0 DUP1 REVERT JUMPDEST PUSH1 0x0 DUP1 REVERT JUMPDEST PUSH1 0x0 DUP1 REVERT JUMPDEST PUSH1 0x0 PUSH1 0x1F NOT PUSH1 0x1F DUP4 ADD AND SWAP1 POP SWAP2 SWAP1 POP JUMP JUMPDEST PUSH32 0x44796F733A20496E636F6D70617469626C65206C697175696469747920706169 PUSH1 0x0 DUP3 ADD MSTORE PUSH32 0x7220666163746F72790000000000000000000000000000000000000000000000 PUSH1 0x20 DUP3 ADD MSTORE POP JUMP JUMPDEST PUSH32 0x44796F733A20496E7369676E69666963616E7420696E70757420616D6F756E74 PUSH1 0x0 DUP3 ADD MSTORE POP JUMP JUMPDEST PUSH32 0x42656566793A20455448207472616E73666572206661696C6564000000000000 PUSH1 0x0 DUP3 ADD MSTORE POP JUMP JUMPDEST PUSH32 0x44796F733A20496E70757420746F6B656E206E6F742070726573656E7420696E PUSH1 0x0 DUP3 ADD MSTORE PUSH32 0x206C697175646974792070616972000000000000000000000000000000000000 PUSH1 0x20 DUP3 ADD MSTORE POP JUMP JUMPDEST PUSH32 0x556E69737761705632526F757465723A20494E53554646494349454E545F425F PUSH1 0x0 DUP3 ADD MSTORE PUSH32 0x414D4F554E540000000000000000000000000000000000000000000000000000 PUSH1 0x20 DUP3 ADD MSTORE POP JUMP JUMPDEST PUSH32 0x416464726573733A20696E73756666696369656E742062616C616E636520666F PUSH1 0x0 DUP3 ADD MSTORE PUSH32 0x722063616C6C0000000000000000000000000000000000000000000000000000 PUSH1 0x20 DUP3 ADD MSTORE POP JUMP JUMPDEST PUSH32 0x44796F733A20496E70757420746F6B656E206973206E6F7420617070726F7665 PUSH1 0x0 DUP3 ADD MSTORE PUSH32 0x6400000000000000000000000000000000000000000000000000000000000000 PUSH1 0x20 DUP3 ADD MSTORE POP JUMP JUMPDEST PUSH32 0x44796F733A204C6971756964697479207061697220726573657276657320746F PUSH1 0x0 DUP3 ADD MSTORE PUSH32 0x6F206C6F77000000000000000000000000000000000000000000000000000000 PUSH1 0x20 DUP3 ADD MSTORE POP JUMP JUMPDEST PUSH32 0x44796F733A20574554482061646472657373206E6F74206D61746368696E6720 PUSH1 0x0 DUP3 ADD MSTORE PUSH32 0x526F757465722E57455448282900000000000000000000000000000000000000 PUSH1 0x20 DUP3 ADD MSTORE POP JUMP JUMPDEST PUSH32 0x416464726573733A2063616C6C20746F206E6F6E2D636F6E7472616374000000 PUSH1 0x0 DUP3 ADD MSTORE POP JUMP JUMPDEST PUSH32 0x556E69737761705632526F757465723A20494E53554646494349454E545F415F PUSH1 0x0 DUP3 ADD MSTORE PUSH32 0x414D4F554E540000000000000000000000000000000000000000000000000000 PUSH1 0x20 DUP3 ADD MSTORE POP JUMP JUMPDEST PUSH32 0x5361666545524332303A204552433230206F7065726174696F6E20646964206E PUSH1 0x0 DUP3 ADD MSTORE PUSH32 0x6F74207375636365656400000000000000000000000000000000000000000000 PUSH1 0x20 DUP3 ADD MSTORE POP JUMP JUMPDEST PUSH32 0x5361666545524332303A20617070726F76652066726F6D206E6F6E2D7A65726F PUSH1 0x0 DUP3 ADD MSTORE PUSH32 0x20746F206E6F6E2D7A65726F20616C6C6F77616E636500000000000000000000 PUSH1 0x20 DUP3 ADD MSTORE POP JUMP JUMPDEST PUSH32 0x44796F733A206465736972656420746F6B656E206E6F742070726573656E7420 PUSH1 0x0 DUP3 ADD MSTORE PUSH32 0x696E206C69717564697479207061697200000000000000000000000000000000 PUSH1 0x20 DUP3 ADD MSTORE POP JUMP JUMPDEST PUSH2 0x4306 DUP2 PUSH2 0x3C94 JUMP JUMPDEST DUP2 EQ PUSH2 0x4311 JUMPI PUSH1 0x0 DUP1 REVERT JUMPDEST POP JUMP JUMPDEST PUSH2 0x431D DUP2 PUSH2 0x3CA6 JUMP JUMPDEST DUP2 EQ PUSH2 0x4328 JUMPI PUSH1 0x0 DUP1 REVERT JUMPDEST POP JUMP JUMPDEST PUSH2 0x4334 DUP2 PUSH2 0x3CB2 JUMP JUMPDEST DUP2 EQ PUSH2 0x433F JUMPI PUSH1 0x0 DUP1 REVERT JUMPDEST POP JUMP JUMPDEST PUSH2 0x434B DUP2 PUSH2 0x3CEC JUMP JUMPDEST DUP2 EQ PUSH2 0x4356 JUMPI PUSH1 0x0 DUP1 REVERT JUMPDEST POP JUMP JUMPDEST PUSH2 0x4362 DUP2 PUSH2 0x3CF6 JUMP JUMPDEST DUP2 EQ PUSH2 0x436D JUMPI PUSH1 0x0 DUP1 REVERT JUMPDEST POP JUMP INVALID LOG2 PUSH5 0x6970667358 0x22 SLT KECCAK256 0xBB LT RETURNDATASIZE 0xD3 0xFC PUSH9 0xF42A918F94ECA9E646 0xBF PUSH28 0xCF692753FE63BEF83C4B257F9E1BCA64736F6C634300080700330000 "
				},
				"gasEstimates": {
					"creation": {
						"codeDepositCost": "3463600",
						"executionCost": "infinite",
						"totalCost": "infinite"
					},
					"external": {
						"WETH()": "infinite",
						"checkWETH()": "infinite",
						"estimateSwap(address,address,uint256)": "infinite",
						"fee()": "395",
						"govToken()": "2598",
						"minimumAmount()": "351",
						"router()": "infinite",
						"zapIn(address,uint256,address,uint256)": "infinite",
						"zapInETH(address,uint256)": "infinite",
						"zapOut(address,uint256)": "infinite",
						"zapOutAndSwap(address,uint256,address,uint256)": "infinite"
					},
					"internal": {
						"_approveTokenIfNeeded(address,address)": "infinite",
						"_getSwapAmount(uint256,uint256,uint256)": "infinite",
						"_getVaultPair(address)": "infinite",
						"_removeLiqudity(address,address)": "infinite",
						"_returnAssets(address[] memory)": "infinite",
						"_swapAndStake(address,uint256,address)": "infinite"
					}
				},
				"methodIdentifiers": {
					"WETH()": "ad5c4648",
					"checkWETH()": "8437fabe",
					"estimateSwap(address,address,uint256)": "3f2f869a",
					"fee()": "ddca3f43",
					"govToken()": "05268cff",
					"minimumAmount()": "bb0c8298",
					"router()": "f887ea40",
					"zapIn(address,uint256,address,uint256)": "72f8b6cd",
					"zapInETH(address,uint256)": "7db9b1f4",
					"zapOut(address,uint256)": "d9139f63",
					"zapOutAndSwap(address,uint256,address,uint256)": "f3cc669a"
				}
			},
			"storageLayout": {
				"storage": [
					{
						"astId": 1734,
						"contract": "zap/ZapUniV2.sol:ZapUniswapV2",
						"label": "govToken",
						"offset": 0,
						"slot": "0",
						"type": "t_contract(IDyosToken)1711"
					}
				],
				"types": {
					"t_contract(IDyosToken)1711": {
						"encoding": "inplace",
						"label": "contract IDyosToken",
						"numberOfBytes": "20"
					}
				}
			},
			"userdoc": {
				"kind": "user",
				"methods": {},
				"version": 1
			}
		}
	}
}