{
	"zap/ZapUniV2.sol": {
		"ZapUniswapV2": {
			"abi": [
				{
					"inputs": [
						{
							"internalType": "address",
							"name": "_router",
							"type": "address"
						},
						{
							"internalType": "address",
							"name": "_WETH",
							"type": "address"
						}
					],
					"stateMutability": "nonpayable",
					"type": "constructor"
				},
				{
					"inputs": [],
					"name": "WETH",
					"outputs": [
						{
							"internalType": "address",
							"name": "",
							"type": "address"
						}
					],
					"stateMutability": "view",
					"type": "function"
				},
				{
					"inputs": [],
					"name": "checkWETH",
					"outputs": [
						{
							"internalType": "bool",
							"name": "isValid",
							"type": "bool"
						}
					],
					"stateMutability": "view",
					"type": "function"
				},
				{
					"inputs": [
						{
							"internalType": "address",
							"name": "dyosVault",
							"type": "address"
						},
						{
							"internalType": "address",
							"name": "tokenIn",
							"type": "address"
						},
						{
							"internalType": "uint256",
							"name": "fullInvestmentIn",
							"type": "uint256"
						}
					],
					"name": "estimateSwap",
					"outputs": [
						{
							"internalType": "uint256",
							"name": "swapAmountIn",
							"type": "uint256"
						},
						{
							"internalType": "uint256",
							"name": "swapAmountOut",
							"type": "uint256"
						},
						{
							"internalType": "address",
							"name": "swapTokenOut",
							"type": "address"
						}
					],
					"stateMutability": "view",
					"type": "function"
				},
				{
					"inputs": [],
					"name": "fee",
					"outputs": [
						{
							"internalType": "uint256",
							"name": "",
							"type": "uint256"
						}
					],
					"stateMutability": "view",
					"type": "function"
				},
				{
					"inputs": [],
					"name": "minimumAmount",
					"outputs": [
						{
							"internalType": "uint256",
							"name": "",
							"type": "uint256"
						}
					],
					"stateMutability": "view",
					"type": "function"
				},
				{
					"inputs": [],
					"name": "router",
					"outputs": [
						{
							"internalType": "contract IUniswapV2Router02",
							"name": "",
							"type": "address"
						}
					],
					"stateMutability": "view",
					"type": "function"
				},
				{
					"inputs": [
						{
							"internalType": "address",
							"name": "dyosVault",
							"type": "address"
						},
						{
							"internalType": "uint256",
							"name": "tokenAmountOutMin",
							"type": "uint256"
						},
						{
							"internalType": "address",
							"name": "tokenIn",
							"type": "address"
						},
						{
							"internalType": "uint256",
							"name": "tokenInAmount",
							"type": "uint256"
						}
					],
					"name": "zapIn",
					"outputs": [],
					"stateMutability": "nonpayable",
					"type": "function"
				},
				{
					"inputs": [
						{
							"internalType": "address",
							"name": "dyosVault",
							"type": "address"
						},
						{
							"internalType": "uint256",
							"name": "tokenAmountOutMin",
							"type": "uint256"
						}
					],
					"name": "zapInETH",
					"outputs": [],
					"stateMutability": "payable",
					"type": "function"
				},
				{
					"inputs": [
						{
							"internalType": "address",
							"name": "dyosVault",
							"type": "address"
						},
						{
							"internalType": "uint256",
							"name": "withdrawAmount",
							"type": "uint256"
						}
					],
					"name": "zapOut",
					"outputs": [],
					"stateMutability": "nonpayable",
					"type": "function"
				},
				{
					"inputs": [
						{
							"internalType": "address",
							"name": "dyosVault",
							"type": "address"
						},
						{
							"internalType": "uint256",
							"name": "withdrawAmount",
							"type": "uint256"
						},
						{
							"internalType": "address",
							"name": "desiredToken",
							"type": "address"
						},
						{
							"internalType": "uint256",
							"name": "desiredTokenOutMin",
							"type": "uint256"
						}
					],
					"name": "zapOutAndSwap",
					"outputs": [],
					"stateMutability": "nonpayable",
					"type": "function"
				},
				{
					"stateMutability": "payable",
					"type": "receive"
				}
			],
			"devdoc": {
				"kind": "dev",
				"methods": {},
				"version": 1
			},
			"evm": {
				"assembly": "    /* \"zap/ZapUniV2.sol\":753:8301  contract ZapUniswapV2 {... */\n  mstore(0x40, 0xc0)\n    /* \"zap/ZapUniV2.sol\":1054:1173  constructor(address _router, address _WETH) {... */\n  callvalue\n  dup1\n  iszero\n  tag_1\n  jumpi\n  0x00\n  dup1\n  revert\ntag_1:\n  pop\n  mload(0x40)\n  sub(codesize, bytecodeSize)\n  dup1\n  bytecodeSize\n  dup4\n  codecopy\n  dup2\n  dup2\n  add\n  0x40\n  mstore\n  dup2\n  add\n  swap1\n  tag_2\n  swap2\n  swap1\n  tag_3\n  jump\t// in\ntag_2:\n    /* \"zap/ZapUniV2.sol\":1136:1143  _router */\n  dup2\n    /* \"zap/ZapUniV2.sol\":1108:1144  router = IUniswapV2Router02(_router) */\n  0xffffffffffffffffffffffffffffffffffffffff\n  and\n  0x80\n  dup2\n  0xffffffffffffffffffffffffffffffffffffffff\n  and\n  0x60\n  shl\n  dup2\n  mstore\n  pop\n  pop\n    /* \"zap/ZapUniV2.sol\":1161:1166  _WETH */\n  dup1\n    /* \"zap/ZapUniV2.sol\":1154:1166  WETH = _WETH */\n  0xffffffffffffffffffffffffffffffffffffffff\n  and\n  0xa0\n  dup2\n  0xffffffffffffffffffffffffffffffffffffffff\n  and\n  0x60\n  shl\n  dup2\n  mstore\n  pop\n  pop\n    /* \"zap/ZapUniV2.sol\":1054:1173  constructor(address _router, address _WETH) {... */\n  pop\n  pop\n    /* \"zap/ZapUniV2.sol\":753:8301  contract ZapUniswapV2 {... */\n  jump(tag_6)\n    /* \"#utility.yul\":7:150   */\ntag_8:\n    /* \"#utility.yul\":64:69   */\n  0x00\n    /* \"#utility.yul\":95:101   */\n  dup2\n    /* \"#utility.yul\":89:102   */\n  mload\n    /* \"#utility.yul\":80:102   */\n  swap1\n  pop\n    /* \"#utility.yul\":111:144   */\n  tag_10\n    /* \"#utility.yul\":138:143   */\n  dup2\n    /* \"#utility.yul\":111:144   */\n  tag_11\n  jump\t// in\ntag_10:\n    /* \"#utility.yul\":7:150   */\n  swap3\n  swap2\n  pop\n  pop\n  jump\t// out\n    /* \"#utility.yul\":156:663   */\ntag_3:\n    /* \"#utility.yul\":235:241   */\n  0x00\n    /* \"#utility.yul\":243:249   */\n  dup1\n    /* \"#utility.yul\":292:294   */\n  0x40\n    /* \"#utility.yul\":280:289   */\n  dup4\n    /* \"#utility.yul\":271:278   */\n  dup6\n    /* \"#utility.yul\":267:290   */\n  sub\n    /* \"#utility.yul\":263:295   */\n  slt\n    /* \"#utility.yul\":260:379   */\n  iszero\n  tag_13\n  jumpi\n    /* \"#utility.yul\":298:377   */\n  tag_14\n  tag_15\n  jump\t// in\ntag_14:\n    /* \"#utility.yul\":260:379   */\ntag_13:\n    /* \"#utility.yul\":418:419   */\n  0x00\n    /* \"#utility.yul\":443:507   */\n  tag_16\n    /* \"#utility.yul\":499:506   */\n  dup6\n    /* \"#utility.yul\":490:496   */\n  dup3\n    /* \"#utility.yul\":479:488   */\n  dup7\n    /* \"#utility.yul\":475:497   */\n  add\n    /* \"#utility.yul\":443:507   */\n  tag_8\n  jump\t// in\ntag_16:\n    /* \"#utility.yul\":433:507   */\n  swap3\n  pop\n    /* \"#utility.yul\":389:517   */\n  pop\n    /* \"#utility.yul\":556:558   */\n  0x20\n    /* \"#utility.yul\":582:646   */\n  tag_17\n    /* \"#utility.yul\":638:645   */\n  dup6\n    /* \"#utility.yul\":629:635   */\n  dup3\n    /* \"#utility.yul\":618:627   */\n  dup7\n    /* \"#utility.yul\":614:636   */\n  add\n    /* \"#utility.yul\":582:646   */\n  tag_8\n  jump\t// in\ntag_17:\n    /* \"#utility.yul\":572:646   */\n  swap2\n  pop\n    /* \"#utility.yul\":527:656   */\n  pop\n    /* \"#utility.yul\":156:663   */\n  swap3\n  pop\n  swap3\n  swap1\n  pop\n  jump\t// out\n    /* \"#utility.yul\":750:846   */\ntag_20:\n    /* \"#utility.yul\":787:794   */\n  0x00\n    /* \"#utility.yul\":816:840   */\n  tag_22\n    /* \"#utility.yul\":834:839   */\n  dup3\n    /* \"#utility.yul\":816:840   */\n  tag_23\n  jump\t// in\ntag_22:\n    /* \"#utility.yul\":805:840   */\n  swap1\n  pop\n    /* \"#utility.yul\":750:846   */\n  swap2\n  swap1\n  pop\n  jump\t// out\n    /* \"#utility.yul\":852:978   */\ntag_23:\n    /* \"#utility.yul\":889:896   */\n  0x00\n    /* \"#utility.yul\":929:971   */\n  0xffffffffffffffffffffffffffffffffffffffff\n    /* \"#utility.yul\":922:927   */\n  dup3\n    /* \"#utility.yul\":918:972   */\n  and\n    /* \"#utility.yul\":907:972   */\n  swap1\n  pop\n    /* \"#utility.yul\":852:978   */\n  swap2\n  swap1\n  pop\n  jump\t// out\n    /* \"#utility.yul\":1107:1224   */\ntag_15:\n    /* \"#utility.yul\":1216:1217   */\n  0x00\n    /* \"#utility.yul\":1213:1214   */\n  dup1\n    /* \"#utility.yul\":1206:1218   */\n  revert\n    /* \"#utility.yul\":1230:1352   */\ntag_11:\n    /* \"#utility.yul\":1303:1327   */\n  tag_29\n    /* \"#utility.yul\":1321:1326   */\n  dup2\n    /* \"#utility.yul\":1303:1327   */\n  tag_20\n  jump\t// in\ntag_29:\n    /* \"#utility.yul\":1296:1301   */\n  dup2\n    /* \"#utility.yul\":1293:1328   */\n  eq\n    /* \"#utility.yul\":1283:1346   */\n  tag_30\n  jumpi\n    /* \"#utility.yul\":1342:1343   */\n  0x00\n    /* \"#utility.yul\":1339:1340   */\n  dup1\n    /* \"#utility.yul\":1332:1344   */\n  revert\n    /* \"#utility.yul\":1283:1346   */\ntag_30:\n    /* \"#utility.yul\":1230:1352   */\n  pop\n  jump\t// out\n    /* \"zap/ZapUniV2.sol\":753:8301  contract ZapUniswapV2 {... */\ntag_6:\n  shr(0x60, mload(0x80))\n  shr(0x60, mload(0xa0))\n  codecopy(0x00, dataOffset(sub_0), dataSize(sub_0))\n  0x00\n  assignImmutable(\"0x974fa91be4a01ae658ab2b81485f950cb5053a0ea0c508a8c0eab1d35bd483b6\")\n  0x00\n  assignImmutable(\"0x9b210b267865dedfbeb7a86b51a05bc5eacedf2f38cba09998c3299230e560a6\")\n  return(0x00, dataSize(sub_0))\nstop\n\nsub_0: assembly {\n        /* \"zap/ZapUniV2.sol\":753:8301  contract ZapUniswapV2 {... */\n      mstore(0x40, 0x80)\n      jumpi(tag_1, lt(calldatasize, 0x04))\n      shr(0xe0, calldataload(0x00))\n      dup1\n      0xbb0c8298\n      gt\n      tag_13\n      jumpi\n      dup1\n      0xbb0c8298\n      eq\n      tag_8\n      jumpi\n      dup1\n      0xd9139f63\n      eq\n      tag_9\n      jumpi\n      dup1\n      0xddca3f43\n      eq\n      tag_10\n      jumpi\n      dup1\n      0xf3cc669a\n      eq\n      tag_11\n      jumpi\n      dup1\n      0xf887ea40\n      eq\n      tag_12\n      jumpi\n      jump(tag_2)\n    tag_13:\n      dup1\n      0x3f2f869a\n      eq\n      tag_3\n      jumpi\n      dup1\n      0x72f8b6cd\n      eq\n      tag_4\n      jumpi\n      dup1\n      0x7db9b1f4\n      eq\n      tag_5\n      jumpi\n      dup1\n      0x8437fabe\n      eq\n      tag_6\n      jumpi\n      dup1\n      0xad5c4648\n      eq\n      tag_7\n      jumpi\n      jump(tag_2)\n    tag_1:\n      jumpi(tag_2, calldatasize)\n        /* \"zap/ZapUniV2.sol\":1237:1241  WETH */\n      immutable(\"0x974fa91be4a01ae658ab2b81485f950cb5053a0ea0c508a8c0eab1d35bd483b6\")\n        /* \"zap/ZapUniV2.sol\":1223:1241  msg.sender == WETH */\n      0xffffffffffffffffffffffffffffffffffffffff\n      and\n        /* \"zap/ZapUniV2.sol\":1223:1233  msg.sender */\n      caller\n        /* \"zap/ZapUniV2.sol\":1223:1241  msg.sender == WETH */\n      0xffffffffffffffffffffffffffffffffffffffff\n      and\n      eq\n        /* \"zap/ZapUniV2.sol\":1216:1242  assert(msg.sender == WETH) */\n      tag_16\n      jumpi\n      tag_17\n      tag_18\n      jump\t// in\n    tag_17:\n    tag_16:\n        /* \"zap/ZapUniV2.sol\":753:8301  contract ZapUniswapV2 {... */\n      stop\n    tag_2:\n      0x00\n      dup1\n      revert\n        /* \"zap/ZapUniV2.sol\":7094:7887  function estimateSwap(address dyosVault, address tokenIn, uint256 fullInvestmentIn) public view returns(uint256 swapAmountIn, uint256 swapAmountOut, address swapTokenOut) {... */\n    tag_3:\n      callvalue\n      dup1\n      iszero\n      tag_19\n      jumpi\n      0x00\n      dup1\n      revert\n    tag_19:\n      pop\n      tag_20\n      0x04\n      dup1\n      calldatasize\n      sub\n      dup2\n      add\n      swap1\n      tag_21\n      swap2\n      swap1\n      tag_22\n      jump\t// in\n    tag_21:\n      tag_23\n      jump\t// in\n    tag_20:\n      mload(0x40)\n      tag_24\n      swap4\n      swap3\n      swap2\n      swap1\n      tag_25\n      jump\t// in\n    tag_24:\n      mload(0x40)\n      dup1\n      swap2\n      sub\n      swap1\n      return\n        /* \"zap/ZapUniV2.sol\":1541:2017  function zapIn (address dyosVault, uint256 tokenAmountOutMin, address tokenIn, uint256 tokenInAmount) external {... */\n    tag_4:\n      callvalue\n      dup1\n      iszero\n      tag_26\n      jumpi\n      0x00\n      dup1\n      revert\n    tag_26:\n      pop\n      tag_27\n      0x04\n      dup1\n      calldatasize\n      sub\n      dup2\n      add\n      swap1\n      tag_28\n      swap2\n      swap1\n      tag_29\n      jump\t// in\n    tag_28:\n      tag_30\n      jump\t// in\n    tag_27:\n      stop\n        /* \"zap/ZapUniV2.sol\":1255:1535  function zapInETH (address dyosVault, uint256 tokenAmountOutMin) external payable {... */\n    tag_5:\n      tag_31\n      0x04\n      dup1\n      calldatasize\n      sub\n      dup2\n      add\n      swap1\n      tag_32\n      swap2\n      swap1\n      tag_33\n      jump\t// in\n    tag_32:\n      tag_34\n      jump\t// in\n    tag_31:\n      stop\n        /* \"zap/ZapUniV2.sol\":7893:8072  function checkWETH() public view returns (bool isValid) {... */\n    tag_6:\n      callvalue\n      dup1\n      iszero\n      tag_35\n      jumpi\n      0x00\n      dup1\n      revert\n    tag_35:\n      pop\n      tag_36\n      tag_37\n      jump\t// in\n    tag_36:\n      mload(0x40)\n      tag_38\n      swap2\n      swap1\n      tag_39\n      jump\t// in\n    tag_38:\n      mload(0x40)\n      dup1\n      swap2\n      sub\n      swap1\n      return\n        /* \"zap/ZapUniV2.sol\":931:960  address public immutable WETH */\n    tag_7:\n      callvalue\n      dup1\n      iszero\n      tag_40\n      jumpi\n      0x00\n      dup1\n      revert\n    tag_40:\n      pop\n      tag_41\n      tag_42\n      jump\t// in\n    tag_41:\n      mload(0x40)\n      tag_43\n      swap2\n      swap1\n      tag_44\n      jump\t// in\n    tag_43:\n      mload(0x40)\n      dup1\n      swap2\n      sub\n      swap1\n      return\n        /* \"zap/ZapUniV2.sol\":966:1010  uint256 public constant minimumAmount = 1000 */\n    tag_8:\n      callvalue\n      dup1\n      iszero\n      tag_45\n      jumpi\n      0x00\n      dup1\n      revert\n    tag_45:\n      pop\n      tag_46\n      tag_47\n      jump\t// in\n    tag_46:\n      mload(0x40)\n      tag_48\n      swap2\n      swap1\n      tag_49\n      jump\t// in\n    tag_48:\n      mload(0x40)\n      dup1\n      swap2\n      sub\n      swap1\n      return\n        /* \"zap/ZapUniV2.sol\":2023:2646  function zapOut (address dyosVault, uint256 withdrawAmount) external {... */\n    tag_9:\n      callvalue\n      dup1\n      iszero\n      tag_50\n      jumpi\n      0x00\n      dup1\n      revert\n    tag_50:\n      pop\n      tag_51\n      0x04\n      dup1\n      calldatasize\n      sub\n      dup2\n      add\n      swap1\n      tag_52\n      swap2\n      swap1\n      tag_33\n      jump\t// in\n    tag_52:\n      tag_53\n      jump\t// in\n    tag_51:\n      stop\n        /* \"zap/ZapUniV2.sol\":1016:1047  uint256 public constant fee = 1 */\n    tag_10:\n      callvalue\n      dup1\n      iszero\n      tag_54\n      jumpi\n      0x00\n      dup1\n      revert\n    tag_54:\n      pop\n      tag_55\n      tag_56\n      jump\t// in\n    tag_55:\n      mload(0x40)\n      tag_57\n      swap2\n      swap1\n      tag_49\n      jump\t// in\n    tag_57:\n      mload(0x40)\n      dup1\n      swap2\n      sub\n      swap1\n      return\n        /* \"zap/ZapUniV2.sol\":2652:3639  function zapOutAndSwap(address dyosVault, uint256 withdrawAmount, address desiredToken, uint256 desiredTokenOutMin) external {... */\n    tag_11:\n      callvalue\n      dup1\n      iszero\n      tag_58\n      jumpi\n      0x00\n      dup1\n      revert\n    tag_58:\n      pop\n      tag_59\n      0x04\n      dup1\n      calldatasize\n      sub\n      dup2\n      add\n      swap1\n      tag_60\n      swap2\n      swap1\n      tag_29\n      jump\t// in\n    tag_60:\n      tag_61\n      jump\t// in\n    tag_59:\n      stop\n        /* \"zap/ZapUniV2.sol\":883:925  IUniswapV2Router02 public immutable router */\n    tag_12:\n      callvalue\n      dup1\n      iszero\n      tag_62\n      jumpi\n      0x00\n      dup1\n      revert\n    tag_62:\n      pop\n      tag_63\n      tag_64\n      jump\t// in\n    tag_63:\n      mload(0x40)\n      tag_65\n      swap2\n      swap1\n      tag_66\n      jump\t// in\n    tag_65:\n      mload(0x40)\n      dup1\n      swap2\n      sub\n      swap1\n      return\n        /* \"zap/ZapUniV2.sol\":7094:7887  function estimateSwap(address dyosVault, address tokenIn, uint256 fullInvestmentIn) public view returns(uint256 swapAmountIn, uint256 swapAmountOut, address swapTokenOut) {... */\n    tag_23:\n        /* \"zap/ZapUniV2.sol\":7198:7218  uint256 swapAmountIn */\n      0x00\n        /* \"zap/ZapUniV2.sol\":7220:7241  uint256 swapAmountOut */\n      dup1\n        /* \"zap/ZapUniV2.sol\":7243:7263  address swapTokenOut */\n      0x00\n        /* \"zap/ZapUniV2.sol\":7275:7286  checkWETH() */\n      tag_68\n        /* \"zap/ZapUniV2.sol\":7275:7284  checkWETH */\n      tag_37\n        /* \"zap/ZapUniV2.sol\":7275:7286  checkWETH() */\n      jump\t// in\n    tag_68:\n      pop\n        /* \"zap/ZapUniV2.sol\":7299:7318  IUniswapV2Pair pair */\n      0x00\n        /* \"zap/ZapUniV2.sol\":7322:7346  _getVaultPair(dyosVault) */\n      tag_69\n        /* \"zap/ZapUniV2.sol\":7336:7345  dyosVault */\n      dup8\n        /* \"zap/ZapUniV2.sol\":7322:7335  _getVaultPair */\n      tag_70\n        /* \"zap/ZapUniV2.sol\":7322:7346  _getVaultPair(dyosVault) */\n      jump\t// in\n    tag_69:\n        /* \"zap/ZapUniV2.sol\":7296:7346  (, IUniswapV2Pair pair) = _getVaultPair(dyosVault) */\n      swap2\n      pop\n      pop\n        /* \"zap/ZapUniV2.sol\":7357:7370  bool isInputA */\n      0x00\n        /* \"zap/ZapUniV2.sol\":7390:7397  tokenIn */\n      dup7\n        /* \"zap/ZapUniV2.sol\":7373:7397  pair.token0() == tokenIn */\n      0xffffffffffffffffffffffffffffffffffffffff\n      and\n        /* \"zap/ZapUniV2.sol\":7373:7377  pair */\n      dup3\n        /* \"zap/ZapUniV2.sol\":7373:7384  pair.token0 */\n      0xffffffffffffffffffffffffffffffffffffffff\n      and\n      0x0dfe1681\n        /* \"zap/ZapUniV2.sol\":7373:7386  pair.token0() */\n      mload(0x40)\n      dup2\n      0xffffffff\n      and\n      0xe0\n      shl\n      dup2\n      mstore\n      0x04\n      add\n      0x20\n      mload(0x40)\n      dup1\n      dup4\n      sub\n      dup2\n      dup7\n      dup1\n      extcodesize\n      iszero\n      dup1\n      iszero\n      tag_71\n      jumpi\n      0x00\n      dup1\n      revert\n    tag_71:\n      pop\n      gas\n      staticcall\n      iszero\n      dup1\n      iszero\n      tag_73\n      jumpi\n      returndatasize\n      0x00\n      dup1\n      returndatacopy\n      revert(0x00, returndatasize)\n    tag_73:\n      pop\n      pop\n      pop\n      pop\n      mload(0x40)\n      returndatasize\n      not(0x1f)\n      0x1f\n      dup3\n      add\n      and\n      dup3\n      add\n      dup1\n      0x40\n      mstore\n      pop\n      dup2\n      add\n      swap1\n      tag_74\n      swap2\n      swap1\n      tag_75\n      jump\t// in\n    tag_74:\n        /* \"zap/ZapUniV2.sol\":7373:7397  pair.token0() == tokenIn */\n      0xffffffffffffffffffffffffffffffffffffffff\n      and\n      eq\n        /* \"zap/ZapUniV2.sol\":7357:7397  bool isInputA = pair.token0() == tokenIn */\n      swap1\n      pop\n        /* \"zap/ZapUniV2.sol\":7415:7423  isInputA */\n      dup1\n        /* \"zap/ZapUniV2.sol\":7415:7451  isInputA || pair.token1() == tokenIn */\n      dup1\n      tag_76\n      jumpi\n      pop\n        /* \"zap/ZapUniV2.sol\":7444:7451  tokenIn */\n      dup7\n        /* \"zap/ZapUniV2.sol\":7427:7451  pair.token1() == tokenIn */\n      0xffffffffffffffffffffffffffffffffffffffff\n      and\n        /* \"zap/ZapUniV2.sol\":7427:7431  pair */\n      dup3\n        /* \"zap/ZapUniV2.sol\":7427:7438  pair.token1 */\n      0xffffffffffffffffffffffffffffffffffffffff\n      and\n      0xd21220a7\n        /* \"zap/ZapUniV2.sol\":7427:7440  pair.token1() */\n      mload(0x40)\n      dup2\n      0xffffffff\n      and\n      0xe0\n      shl\n      dup2\n      mstore\n      0x04\n      add\n      0x20\n      mload(0x40)\n      dup1\n      dup4\n      sub\n      dup2\n      dup7\n      dup1\n      extcodesize\n      iszero\n      dup1\n      iszero\n      tag_77\n      jumpi\n      0x00\n      dup1\n      revert\n    tag_77:\n      pop\n      gas\n      staticcall\n      iszero\n      dup1\n      iszero\n      tag_79\n      jumpi\n      returndatasize\n      0x00\n      dup1\n      returndatacopy\n      revert(0x00, returndatasize)\n    tag_79:\n      pop\n      pop\n      pop\n      pop\n      mload(0x40)\n      returndatasize\n      not(0x1f)\n      0x1f\n      dup3\n      add\n      and\n      dup3\n      add\n      dup1\n      0x40\n      mstore\n      pop\n      dup2\n      add\n      swap1\n      tag_80\n      swap2\n      swap1\n      tag_75\n      jump\t// in\n    tag_80:\n        /* \"zap/ZapUniV2.sol\":7427:7451  pair.token1() == tokenIn */\n      0xffffffffffffffffffffffffffffffffffffffff\n      and\n      eq\n        /* \"zap/ZapUniV2.sol\":7415:7451  isInputA || pair.token1() == tokenIn */\n    tag_76:\n        /* \"zap/ZapUniV2.sol\":7407:7502  require(isInputA || pair.token1() == tokenIn, 'Dyos: Input token not present in liqudity pair') */\n      tag_81\n      jumpi\n      mload(0x40)\n      0x08c379a000000000000000000000000000000000000000000000000000000000\n      dup2\n      mstore\n      0x04\n      add\n      tag_82\n      swap1\n      tag_83\n      jump\t// in\n    tag_82:\n      mload(0x40)\n      dup1\n      swap2\n      sub\n      swap1\n      revert\n    tag_81:\n        /* \"zap/ZapUniV2.sol\":7514:7530  uint256 reserveA */\n      0x00\n        /* \"zap/ZapUniV2.sol\":7532:7548  uint256 reserveB */\n      dup1\n        /* \"zap/ZapUniV2.sol\":7553:7557  pair */\n      dup4\n        /* \"zap/ZapUniV2.sol\":7553:7569  pair.getReserves */\n      0xffffffffffffffffffffffffffffffffffffffff\n      and\n      0x0902f1ac\n        /* \"zap/ZapUniV2.sol\":7553:7571  pair.getReserves() */\n      mload(0x40)\n      dup2\n      0xffffffff\n      and\n      0xe0\n      shl\n      dup2\n      mstore\n      0x04\n      add\n      0x60\n      mload(0x40)\n      dup1\n      dup4\n      sub\n      dup2\n      dup7\n      dup1\n      extcodesize\n      iszero\n      dup1\n      iszero\n      tag_84\n      jumpi\n      0x00\n      dup1\n      revert\n    tag_84:\n      pop\n      gas\n      staticcall\n      iszero\n      dup1\n      iszero\n      tag_86\n      jumpi\n      returndatasize\n      0x00\n      dup1\n      returndatacopy\n      revert(0x00, returndatasize)\n    tag_86:\n      pop\n      pop\n      pop\n      pop\n      mload(0x40)\n      returndatasize\n      not(0x1f)\n      0x1f\n      dup3\n      add\n      and\n      dup3\n      add\n      dup1\n      0x40\n      mstore\n      pop\n      dup2\n      add\n      swap1\n      tag_87\n      swap2\n      swap1\n      tag_88\n      jump\t// in\n    tag_87:\n        /* \"zap/ZapUniV2.sol\":7513:7571  (uint256 reserveA, uint256 reserveB,) = pair.getReserves() */\n      pop\n      0xffffffffffffffffffffffffffff\n      and\n      swap2\n      pop\n      0xffffffffffffffffffffffffffff\n      and\n      swap2\n      pop\n        /* \"zap/ZapUniV2.sol\":7604:7612  isInputA */\n      dup3\n        /* \"zap/ZapUniV2.sol\":7604:7658  isInputA ? (reserveA, reserveB) : (reserveB, reserveA) */\n      tag_89\n      jumpi\n        /* \"zap/ZapUniV2.sol\":7639:7647  reserveB */\n      dup1\n        /* \"zap/ZapUniV2.sol\":7649:7657  reserveA */\n      dup3\n        /* \"zap/ZapUniV2.sol\":7604:7658  isInputA ? (reserveA, reserveB) : (reserveB, reserveA) */\n      jump(tag_90)\n    tag_89:\n        /* \"zap/ZapUniV2.sol\":7616:7624  reserveA */\n      dup2\n        /* \"zap/ZapUniV2.sol\":7626:7634  reserveB */\n      dup2\n        /* \"zap/ZapUniV2.sol\":7604:7658  isInputA ? (reserveA, reserveB) : (reserveB, reserveA) */\n    tag_90:\n        /* \"zap/ZapUniV2.sol\":7581:7658  (reserveA, reserveB) = isInputA ? (reserveA, reserveB) : (reserveB, reserveA) */\n      dup1\n      swap3\n      pop\n      dup2\n      swap4\n      pop\n      pop\n      pop\n        /* \"zap/ZapUniV2.sol\":7684:7736  _getSwapAmount(fullInvestmentIn, reserveA, reserveB) */\n      tag_91\n        /* \"zap/ZapUniV2.sol\":7699:7715  fullInvestmentIn */\n      dup9\n        /* \"zap/ZapUniV2.sol\":7717:7725  reserveA */\n      dup4\n        /* \"zap/ZapUniV2.sol\":7727:7735  reserveB */\n      dup4\n        /* \"zap/ZapUniV2.sol\":7684:7698  _getSwapAmount */\n      tag_92\n        /* \"zap/ZapUniV2.sol\":7684:7736  _getSwapAmount(fullInvestmentIn, reserveA, reserveB) */\n      jump\t// in\n    tag_91:\n        /* \"zap/ZapUniV2.sol\":7669:7736  swapAmountIn = _getSwapAmount(fullInvestmentIn, reserveA, reserveB) */\n      swap7\n      pop\n        /* \"zap/ZapUniV2.sol\":7762:7768  router */\n      immutable(\"0x9b210b267865dedfbeb7a86b51a05bc5eacedf2f38cba09998c3299230e560a6\")\n        /* \"zap/ZapUniV2.sol\":7762:7781  router.getAmountOut */\n      0xffffffffffffffffffffffffffffffffffffffff\n      and\n      0x054d50d4\n        /* \"zap/ZapUniV2.sol\":7782:7794  swapAmountIn */\n      dup9\n        /* \"zap/ZapUniV2.sol\":7796:7804  reserveA */\n      dup5\n        /* \"zap/ZapUniV2.sol\":7806:7814  reserveB */\n      dup5\n        /* \"zap/ZapUniV2.sol\":7762:7815  router.getAmountOut(swapAmountIn, reserveA, reserveB) */\n      mload(0x40)\n      dup5\n      0xffffffff\n      and\n      0xe0\n      shl\n      dup2\n      mstore\n      0x04\n      add\n      tag_93\n      swap4\n      swap3\n      swap2\n      swap1\n      tag_94\n      jump\t// in\n    tag_93:\n      0x20\n      mload(0x40)\n      dup1\n      dup4\n      sub\n      dup2\n      dup7\n      dup1\n      extcodesize\n      iszero\n      dup1\n      iszero\n      tag_95\n      jumpi\n      0x00\n      dup1\n      revert\n    tag_95:\n      pop\n      gas\n      staticcall\n      iszero\n      dup1\n      iszero\n      tag_97\n      jumpi\n      returndatasize\n      0x00\n      dup1\n      returndatacopy\n      revert(0x00, returndatasize)\n    tag_97:\n      pop\n      pop\n      pop\n      pop\n      mload(0x40)\n      returndatasize\n      not(0x1f)\n      0x1f\n      dup3\n      add\n      and\n      dup3\n      add\n      dup1\n      0x40\n      mstore\n      pop\n      dup2\n      add\n      swap1\n      tag_98\n      swap2\n      swap1\n      tag_99\n      jump\t// in\n    tag_98:\n        /* \"zap/ZapUniV2.sol\":7746:7815  swapAmountOut = router.getAmountOut(swapAmountIn, reserveA, reserveB) */\n      swap6\n      pop\n        /* \"zap/ZapUniV2.sol\":7840:7848  isInputA */\n      dup3\n        /* \"zap/ZapUniV2.sol\":7840:7880  isInputA ? pair.token1() : pair.token0() */\n      tag_100\n      jumpi\n        /* \"zap/ZapUniV2.sol\":7867:7871  pair */\n      dup4\n        /* \"zap/ZapUniV2.sol\":7867:7878  pair.token0 */\n      0xffffffffffffffffffffffffffffffffffffffff\n      and\n      0x0dfe1681\n        /* \"zap/ZapUniV2.sol\":7867:7880  pair.token0() */\n      mload(0x40)\n      dup2\n      0xffffffff\n      and\n      0xe0\n      shl\n      dup2\n      mstore\n      0x04\n      add\n      0x20\n      mload(0x40)\n      dup1\n      dup4\n      sub\n      dup2\n      dup7\n      dup1\n      extcodesize\n      iszero\n      dup1\n      iszero\n      tag_101\n      jumpi\n      0x00\n      dup1\n      revert\n    tag_101:\n      pop\n      gas\n      staticcall\n      iszero\n      dup1\n      iszero\n      tag_103\n      jumpi\n      returndatasize\n      0x00\n      dup1\n      returndatacopy\n      revert(0x00, returndatasize)\n    tag_103:\n      pop\n      pop\n      pop\n      pop\n      mload(0x40)\n      returndatasize\n      not(0x1f)\n      0x1f\n      dup3\n      add\n      and\n      dup3\n      add\n      dup1\n      0x40\n      mstore\n      pop\n      dup2\n      add\n      swap1\n      tag_104\n      swap2\n      swap1\n      tag_75\n      jump\t// in\n    tag_104:\n        /* \"zap/ZapUniV2.sol\":7840:7880  isInputA ? pair.token1() : pair.token0() */\n      jump(tag_105)\n    tag_100:\n        /* \"zap/ZapUniV2.sol\":7851:7855  pair */\n      dup4\n        /* \"zap/ZapUniV2.sol\":7851:7862  pair.token1 */\n      0xffffffffffffffffffffffffffffffffffffffff\n      and\n      0xd21220a7\n        /* \"zap/ZapUniV2.sol\":7851:7864  pair.token1() */\n      mload(0x40)\n      dup2\n      0xffffffff\n      and\n      0xe0\n      shl\n      dup2\n      mstore\n      0x04\n      add\n      0x20\n      mload(0x40)\n      dup1\n      dup4\n      sub\n      dup2\n      dup7\n      dup1\n      extcodesize\n      iszero\n      dup1\n      iszero\n      tag_106\n      jumpi\n      0x00\n      dup1\n      revert\n    tag_106:\n      pop\n      gas\n      staticcall\n      iszero\n      dup1\n      iszero\n      tag_108\n      jumpi\n      returndatasize\n      0x00\n      dup1\n      returndatacopy\n      revert(0x00, returndatasize)\n    tag_108:\n      pop\n      pop\n      pop\n      pop\n      mload(0x40)\n      returndatasize\n      not(0x1f)\n      0x1f\n      dup3\n      add\n      and\n      dup3\n      add\n      dup1\n      0x40\n      mstore\n      pop\n      dup2\n      add\n      swap1\n      tag_109\n      swap2\n      swap1\n      tag_75\n      jump\t// in\n    tag_109:\n        /* \"zap/ZapUniV2.sol\":7840:7880  isInputA ? pair.token1() : pair.token0() */\n    tag_105:\n        /* \"zap/ZapUniV2.sol\":7825:7880  swapTokenOut = isInputA ? pair.token1() : pair.token0() */\n      swap5\n      pop\n        /* \"zap/ZapUniV2.sol\":7265:7887  {... */\n      pop\n      pop\n      pop\n      pop\n        /* \"zap/ZapUniV2.sol\":7094:7887  function estimateSwap(address dyosVault, address tokenIn, uint256 fullInvestmentIn) public view returns(uint256 swapAmountIn, uint256 swapAmountOut, address swapTokenOut) {... */\n      swap4\n      pop\n      swap4\n      pop\n      swap4\n      swap1\n      pop\n      jump\t// out\n        /* \"zap/ZapUniV2.sol\":1541:2017  function zapIn (address dyosVault, uint256 tokenAmountOutMin, address tokenIn, uint256 tokenInAmount) external {... */\n    tag_30:\n        /* \"zap/ZapUniV2.sol\":1006:1010  1000 */\n      0x03e8\n        /* \"zap/ZapUniV2.sol\":1670:1683  tokenInAmount */\n      dup2\n        /* \"zap/ZapUniV2.sol\":1670:1700  tokenInAmount >= minimumAmount */\n      lt\n      iszero\n        /* \"zap/ZapUniV2.sol\":1662:1737  require(tokenInAmount >= minimumAmount, 'Dyos: Insignificant input amount') */\n      tag_111\n      jumpi\n      mload(0x40)\n      0x08c379a000000000000000000000000000000000000000000000000000000000\n      dup2\n      mstore\n      0x04\n      add\n      tag_112\n      swap1\n      tag_113\n      jump\t// in\n    tag_112:\n      mload(0x40)\n      dup1\n      swap2\n      sub\n      swap1\n      revert\n    tag_111:\n        /* \"zap/ZapUniV2.sol\":1811:1824  tokenInAmount */\n      dup1\n        /* \"zap/ZapUniV2.sol\":1762:1769  tokenIn */\n      dup3\n        /* \"zap/ZapUniV2.sol\":1755:1780  IERC20(tokenIn).allowance */\n      0xffffffffffffffffffffffffffffffffffffffff\n      and\n      0xdd62ed3e\n        /* \"zap/ZapUniV2.sol\":1781:1791  msg.sender */\n      caller\n        /* \"zap/ZapUniV2.sol\":1801:1805  this */\n      address\n        /* \"zap/ZapUniV2.sol\":1755:1807  IERC20(tokenIn).allowance(msg.sender, address(this)) */\n      mload(0x40)\n      dup4\n      0xffffffff\n      and\n      0xe0\n      shl\n      dup2\n      mstore\n      0x04\n      add\n      tag_114\n      swap3\n      swap2\n      swap1\n      tag_115\n      jump\t// in\n    tag_114:\n      0x20\n      mload(0x40)\n      dup1\n      dup4\n      sub\n      dup2\n      dup7\n      dup1\n      extcodesize\n      iszero\n      dup1\n      iszero\n      tag_116\n      jumpi\n      0x00\n      dup1\n      revert\n    tag_116:\n      pop\n      gas\n      staticcall\n      iszero\n      dup1\n      iszero\n      tag_118\n      jumpi\n      returndatasize\n      0x00\n      dup1\n      returndatacopy\n      revert(0x00, returndatasize)\n    tag_118:\n      pop\n      pop\n      pop\n      pop\n      mload(0x40)\n      returndatasize\n      not(0x1f)\n      0x1f\n      dup3\n      add\n      and\n      dup3\n      add\n      dup1\n      0x40\n      mstore\n      pop\n      dup2\n      add\n      swap1\n      tag_119\n      swap2\n      swap1\n      tag_99\n      jump\t// in\n    tag_119:\n        /* \"zap/ZapUniV2.sol\":1755:1824  IERC20(tokenIn).allowance(msg.sender, address(this)) >= tokenInAmount */\n      lt\n      iszero\n        /* \"zap/ZapUniV2.sol\":1747:1862  require(IERC20(tokenIn).allowance(msg.sender, address(this)) >= tokenInAmount, 'Dyos: Input token is not approved') */\n      tag_120\n      jumpi\n      mload(0x40)\n      0x08c379a000000000000000000000000000000000000000000000000000000000\n      dup2\n      mstore\n      0x04\n      add\n      tag_121\n      swap1\n      tag_122\n      jump\t// in\n    tag_121:\n      mload(0x40)\n      dup1\n      swap2\n      sub\n      swap1\n      revert\n    tag_120:\n        /* \"zap/ZapUniV2.sol\":1873:1947  IERC20(tokenIn).safeTransferFrom(msg.sender, address(this), tokenInAmount) */\n      tag_123\n        /* \"zap/ZapUniV2.sol\":1906:1916  msg.sender */\n      caller\n        /* \"zap/ZapUniV2.sol\":1926:1930  this */\n      address\n        /* \"zap/ZapUniV2.sol\":1933:1946  tokenInAmount */\n      dup4\n        /* \"zap/ZapUniV2.sol\":1880:1887  tokenIn */\n      dup6\n        /* \"zap/ZapUniV2.sol\":1873:1905  IERC20(tokenIn).safeTransferFrom */\n      0xffffffffffffffffffffffffffffffffffffffff\n      and\n      tag_124\n      swap1\n        /* \"zap/ZapUniV2.sol\":1873:1947  IERC20(tokenIn).safeTransferFrom(msg.sender, address(this), tokenInAmount) */\n      swap4\n      swap3\n      swap2\n      swap1\n      0xffffffff\n      and\n      jump\t// in\n    tag_123:\n        /* \"zap/ZapUniV2.sol\":1958:2010  _swapAndStake(dyosVault, tokenAmountOutMin, tokenIn) */\n      tag_125\n        /* \"zap/ZapUniV2.sol\":1972:1981  dyosVault */\n      dup5\n        /* \"zap/ZapUniV2.sol\":1983:2000  tokenAmountOutMin */\n      dup5\n        /* \"zap/ZapUniV2.sol\":2002:2009  tokenIn */\n      dup5\n        /* \"zap/ZapUniV2.sol\":1958:1971  _swapAndStake */\n      tag_126\n        /* \"zap/ZapUniV2.sol\":1958:2010  _swapAndStake(dyosVault, tokenAmountOutMin, tokenIn) */\n      jump\t// in\n    tag_125:\n        /* \"zap/ZapUniV2.sol\":1541:2017  function zapIn (address dyosVault, uint256 tokenAmountOutMin, address tokenIn, uint256 tokenInAmount) external {... */\n      pop\n      pop\n      pop\n      pop\n      jump\t// out\n        /* \"zap/ZapUniV2.sol\":1255:1535  function zapInETH (address dyosVault, uint256 tokenAmountOutMin) external payable {... */\n    tag_34:\n        /* \"zap/ZapUniV2.sol\":1006:1010  1000 */\n      0x03e8\n        /* \"zap/ZapUniV2.sol\":1355:1364  msg.value */\n      callvalue\n        /* \"zap/ZapUniV2.sol\":1355:1381  msg.value >= minimumAmount */\n      lt\n      iszero\n        /* \"zap/ZapUniV2.sol\":1347:1418  require(msg.value >= minimumAmount, 'Dyos: Insignificant input amount') */\n      tag_128\n      jumpi\n      mload(0x40)\n      0x08c379a000000000000000000000000000000000000000000000000000000000\n      dup2\n      mstore\n      0x04\n      add\n      tag_129\n      swap1\n      tag_113\n      jump\t// in\n    tag_129:\n      mload(0x40)\n      dup1\n      swap2\n      sub\n      swap1\n      revert\n    tag_128:\n        /* \"zap/ZapUniV2.sol\":1435:1439  WETH */\n      immutable(\"0x974fa91be4a01ae658ab2b81485f950cb5053a0ea0c508a8c0eab1d35bd483b6\")\n        /* \"zap/ZapUniV2.sol\":1429:1448  IWETH(WETH).deposit */\n      0xffffffffffffffffffffffffffffffffffffffff\n      and\n      0xd0e30db0\n        /* \"zap/ZapUniV2.sol\":1456:1465  msg.value */\n      callvalue\n        /* \"zap/ZapUniV2.sol\":1429:1468  IWETH(WETH).deposit{value: msg.value}() */\n      mload(0x40)\n      dup3\n      0xffffffff\n      and\n      0xe0\n      shl\n      dup2\n      mstore\n      0x04\n      add\n      0x00\n      mload(0x40)\n      dup1\n      dup4\n      sub\n      dup2\n      dup6\n      dup9\n      dup1\n      extcodesize\n      iszero\n      dup1\n      iszero\n      tag_130\n      jumpi\n      0x00\n      dup1\n      revert\n    tag_130:\n      pop\n      gas\n      call\n      iszero\n      dup1\n      iszero\n      tag_132\n      jumpi\n      returndatasize\n      0x00\n      dup1\n      returndatacopy\n      revert(0x00, returndatasize)\n    tag_132:\n      pop\n      pop\n      pop\n      pop\n      pop\n        /* \"zap/ZapUniV2.sol\":1479:1528  _swapAndStake(dyosVault, tokenAmountOutMin, WETH) */\n      tag_133\n        /* \"zap/ZapUniV2.sol\":1493:1502  dyosVault */\n      dup3\n        /* \"zap/ZapUniV2.sol\":1504:1521  tokenAmountOutMin */\n      dup3\n        /* \"zap/ZapUniV2.sol\":1523:1527  WETH */\n      immutable(\"0x974fa91be4a01ae658ab2b81485f950cb5053a0ea0c508a8c0eab1d35bd483b6\")\n        /* \"zap/ZapUniV2.sol\":1479:1492  _swapAndStake */\n      tag_126\n        /* \"zap/ZapUniV2.sol\":1479:1528  _swapAndStake(dyosVault, tokenAmountOutMin, WETH) */\n      jump\t// in\n    tag_133:\n        /* \"zap/ZapUniV2.sol\":1255:1535  function zapInETH (address dyosVault, uint256 tokenAmountOutMin) external payable {... */\n      pop\n      pop\n      jump\t// out\n        /* \"zap/ZapUniV2.sol\":7893:8072  function checkWETH() public view returns (bool isValid) {... */\n    tag_37:\n        /* \"zap/ZapUniV2.sol\":7935:7947  bool isValid */\n      0x00\n        /* \"zap/ZapUniV2.sol\":7977:7983  router */\n      immutable(\"0x9b210b267865dedfbeb7a86b51a05bc5eacedf2f38cba09998c3299230e560a6\")\n        /* \"zap/ZapUniV2.sol\":7977:7988  router.WETH */\n      0xffffffffffffffffffffffffffffffffffffffff\n      and\n      0xad5c4648\n        /* \"zap/ZapUniV2.sol\":7977:7990  router.WETH() */\n      mload(0x40)\n      dup2\n      0xffffffff\n      and\n      0xe0\n      shl\n      dup2\n      mstore\n      0x04\n      add\n      0x20\n      mload(0x40)\n      dup1\n      dup4\n      sub\n      dup2\n      dup7\n      dup1\n      extcodesize\n      iszero\n      dup1\n      iszero\n      tag_135\n      jumpi\n      0x00\n      dup1\n      revert\n    tag_135:\n      pop\n      gas\n      staticcall\n      iszero\n      dup1\n      iszero\n      tag_137\n      jumpi\n      returndatasize\n      0x00\n      dup1\n      returndatacopy\n      revert(0x00, returndatasize)\n    tag_137:\n      pop\n      pop\n      pop\n      pop\n      mload(0x40)\n      returndatasize\n      not(0x1f)\n      0x1f\n      dup3\n      add\n      and\n      dup3\n      add\n      dup1\n      0x40\n      mstore\n      pop\n      dup2\n      add\n      swap1\n      tag_138\n      swap2\n      swap1\n      tag_75\n      jump\t// in\n    tag_138:\n        /* \"zap/ZapUniV2.sol\":7969:7990  WETH == router.WETH() */\n      0xffffffffffffffffffffffffffffffffffffffff\n      and\n        /* \"zap/ZapUniV2.sol\":7969:7973  WETH */\n      immutable(\"0x974fa91be4a01ae658ab2b81485f950cb5053a0ea0c508a8c0eab1d35bd483b6\")\n        /* \"zap/ZapUniV2.sol\":7969:7990  WETH == router.WETH() */\n      0xffffffffffffffffffffffffffffffffffffffff\n      and\n      eq\n        /* \"zap/ZapUniV2.sol\":7959:7990  isValid = WETH == router.WETH() */\n      swap1\n      pop\n        /* \"zap/ZapUniV2.sol\":8008:8015  isValid */\n      dup1\n        /* \"zap/ZapUniV2.sol\":8000:8065  require(isValid, 'Dyos: WETH address not matching Router.WETH()') */\n      tag_139\n      jumpi\n      mload(0x40)\n      0x08c379a000000000000000000000000000000000000000000000000000000000\n      dup2\n      mstore\n      0x04\n      add\n      tag_140\n      swap1\n      tag_141\n      jump\t// in\n    tag_140:\n      mload(0x40)\n      dup1\n      swap2\n      sub\n      swap1\n      revert\n    tag_139:\n        /* \"zap/ZapUniV2.sol\":7893:8072  function checkWETH() public view returns (bool isValid) {... */\n      swap1\n      jump\t// out\n        /* \"zap/ZapUniV2.sol\":931:960  address public immutable WETH */\n    tag_42:\n      immutable(\"0x974fa91be4a01ae658ab2b81485f950cb5053a0ea0c508a8c0eab1d35bd483b6\")\n      dup2\n      jump\t// out\n        /* \"zap/ZapUniV2.sol\":966:1010  uint256 public constant minimumAmount = 1000 */\n    tag_47:\n        /* \"zap/ZapUniV2.sol\":1006:1010  1000 */\n      0x03e8\n        /* \"zap/ZapUniV2.sol\":966:1010  uint256 public constant minimumAmount = 1000 */\n      dup2\n      jump\t// out\n        /* \"zap/ZapUniV2.sol\":2023:2646  function zapOut (address dyosVault, uint256 withdrawAmount) external {... */\n    tag_53:\n        /* \"zap/ZapUniV2.sol\":2103:2115  IVault vault */\n      0x00\n        /* \"zap/ZapUniV2.sol\":2117:2136  IUniswapV2Pair pair */\n      dup1\n        /* \"zap/ZapUniV2.sol\":2140:2164  _getVaultPair(dyosVault) */\n      tag_143\n        /* \"zap/ZapUniV2.sol\":2154:2163  dyosVault */\n      dup5\n        /* \"zap/ZapUniV2.sol\":2140:2153  _getVaultPair */\n      tag_70\n        /* \"zap/ZapUniV2.sol\":2140:2164  _getVaultPair(dyosVault) */\n      jump\t// in\n    tag_143:\n        /* \"zap/ZapUniV2.sol\":2102:2164  (IVault vault, IUniswapV2Pair pair) = _getVaultPair(dyosVault) */\n      swap2\n      pop\n      swap2\n      pop\n        /* \"zap/ZapUniV2.sol\":2175:2252  IERC20(dyosVault).safeTransferFrom(msg.sender, address(this), withdrawAmount) */\n      tag_144\n        /* \"zap/ZapUniV2.sol\":2210:2220  msg.sender */\n      caller\n        /* \"zap/ZapUniV2.sol\":2230:2234  this */\n      address\n        /* \"zap/ZapUniV2.sol\":2237:2251  withdrawAmount */\n      dup6\n        /* \"zap/ZapUniV2.sol\":2182:2191  dyosVault */\n      dup8\n        /* \"zap/ZapUniV2.sol\":2175:2209  IERC20(dyosVault).safeTransferFrom */\n      0xffffffffffffffffffffffffffffffffffffffff\n      and\n      tag_124\n      swap1\n        /* \"zap/ZapUniV2.sol\":2175:2252  IERC20(dyosVault).safeTransferFrom(msg.sender, address(this), withdrawAmount) */\n      swap4\n      swap3\n      swap2\n      swap1\n      0xffffffff\n      and\n      jump\t// in\n    tag_144:\n        /* \"zap/ZapUniV2.sol\":2262:2267  vault */\n      dup2\n        /* \"zap/ZapUniV2.sol\":2262:2276  vault.withdraw */\n      0xffffffffffffffffffffffffffffffffffffffff\n      and\n      0x2e1a7d4d\n        /* \"zap/ZapUniV2.sol\":2277:2291  withdrawAmount */\n      dup5\n        /* \"zap/ZapUniV2.sol\":2262:2292  vault.withdraw(withdrawAmount) */\n      mload(0x40)\n      dup3\n      0xffffffff\n      and\n      0xe0\n      shl\n      dup2\n      mstore\n      0x04\n      add\n      tag_145\n      swap2\n      swap1\n      tag_49\n      jump\t// in\n    tag_145:\n      0x00\n      mload(0x40)\n      dup1\n      dup4\n      sub\n      dup2\n      0x00\n      dup8\n      dup1\n      extcodesize\n      iszero\n      dup1\n      iszero\n      tag_146\n      jumpi\n      0x00\n      dup1\n      revert\n    tag_146:\n      pop\n      gas\n      call\n      iszero\n      dup1\n      iszero\n      tag_148\n      jumpi\n      returndatasize\n      0x00\n      dup1\n      returndatacopy\n      revert(0x00, returndatasize)\n    tag_148:\n      pop\n      pop\n      pop\n      pop\n        /* \"zap/ZapUniV2.sol\":2324:2328  WETH */\n      immutable(\"0x974fa91be4a01ae658ab2b81485f950cb5053a0ea0c508a8c0eab1d35bd483b6\")\n        /* \"zap/ZapUniV2.sol\":2307:2328  pair.token0() != WETH */\n      0xffffffffffffffffffffffffffffffffffffffff\n      and\n        /* \"zap/ZapUniV2.sol\":2307:2311  pair */\n      dup2\n        /* \"zap/ZapUniV2.sol\":2307:2318  pair.token0 */\n      0xffffffffffffffffffffffffffffffffffffffff\n      and\n      0x0dfe1681\n        /* \"zap/ZapUniV2.sol\":2307:2320  pair.token0() */\n      mload(0x40)\n      dup2\n      0xffffffff\n      and\n      0xe0\n      shl\n      dup2\n      mstore\n      0x04\n      add\n      0x20\n      mload(0x40)\n      dup1\n      dup4\n      sub\n      dup2\n      dup7\n      dup1\n      extcodesize\n      iszero\n      dup1\n      iszero\n      tag_149\n      jumpi\n      0x00\n      dup1\n      revert\n    tag_149:\n      pop\n      gas\n      staticcall\n      iszero\n      dup1\n      iszero\n      tag_151\n      jumpi\n      returndatasize\n      0x00\n      dup1\n      returndatacopy\n      revert(0x00, returndatasize)\n    tag_151:\n      pop\n      pop\n      pop\n      pop\n      mload(0x40)\n      returndatasize\n      not(0x1f)\n      0x1f\n      dup3\n      add\n      and\n      dup3\n      add\n      dup1\n      0x40\n      mstore\n      pop\n      dup2\n      add\n      swap1\n      tag_152\n      swap2\n      swap1\n      tag_75\n      jump\t// in\n    tag_152:\n        /* \"zap/ZapUniV2.sol\":2307:2328  pair.token0() != WETH */\n      0xffffffffffffffffffffffffffffffffffffffff\n      and\n      eq\n      iszero\n        /* \"zap/ZapUniV2.sol\":2307:2353  pair.token0() != WETH && pair.token1() != WETH */\n      dup1\n      iszero\n      tag_153\n      jumpi\n      pop\n        /* \"zap/ZapUniV2.sol\":2349:2353  WETH */\n      immutable(\"0x974fa91be4a01ae658ab2b81485f950cb5053a0ea0c508a8c0eab1d35bd483b6\")\n        /* \"zap/ZapUniV2.sol\":2332:2353  pair.token1() != WETH */\n      0xffffffffffffffffffffffffffffffffffffffff\n      and\n        /* \"zap/ZapUniV2.sol\":2332:2336  pair */\n      dup2\n        /* \"zap/ZapUniV2.sol\":2332:2343  pair.token1 */\n      0xffffffffffffffffffffffffffffffffffffffff\n      and\n      0xd21220a7\n        /* \"zap/ZapUniV2.sol\":2332:2345  pair.token1() */\n      mload(0x40)\n      dup2\n      0xffffffff\n      and\n      0xe0\n      shl\n      dup2\n      mstore\n      0x04\n      add\n      0x20\n      mload(0x40)\n      dup1\n      dup4\n      sub\n      dup2\n      dup7\n      dup1\n      extcodesize\n      iszero\n      dup1\n      iszero\n      tag_154\n      jumpi\n      0x00\n      dup1\n      revert\n    tag_154:\n      pop\n      gas\n      staticcall\n      iszero\n      dup1\n      iszero\n      tag_156\n      jumpi\n      returndatasize\n      0x00\n      dup1\n      returndatacopy\n      revert(0x00, returndatasize)\n    tag_156:\n      pop\n      pop\n      pop\n      pop\n      mload(0x40)\n      returndatasize\n      not(0x1f)\n      0x1f\n      dup3\n      add\n      and\n      dup3\n      add\n      dup1\n      0x40\n      mstore\n      pop\n      dup2\n      add\n      swap1\n      tag_157\n      swap2\n      swap1\n      tag_75\n      jump\t// in\n    tag_157:\n        /* \"zap/ZapUniV2.sol\":2332:2353  pair.token1() != WETH */\n      0xffffffffffffffffffffffffffffffffffffffff\n      and\n      eq\n      iszero\n        /* \"zap/ZapUniV2.sol\":2307:2353  pair.token0() != WETH && pair.token1() != WETH */\n    tag_153:\n        /* \"zap/ZapUniV2.sol\":2303:2429  if (pair.token0() != WETH && pair.token1() != WETH) {... */\n      iszero\n      tag_158\n      jumpi\n        /* \"zap/ZapUniV2.sol\":2376:2418  _removeLiqudity(address(pair), msg.sender) */\n      tag_159\n        /* \"zap/ZapUniV2.sol\":2400:2404  pair */\n      dup2\n        /* \"zap/ZapUniV2.sol\":2407:2417  msg.sender */\n      caller\n        /* \"zap/ZapUniV2.sol\":2376:2391  _removeLiqudity */\n      tag_160\n        /* \"zap/ZapUniV2.sol\":2376:2418  _removeLiqudity(address(pair), msg.sender) */\n      jump\t// in\n    tag_159:\n        /* \"zap/ZapUniV2.sol\":2369:2418  return _removeLiqudity(address(pair), msg.sender) */\n      pop\n      pop\n      jump(tag_142)\n        /* \"zap/ZapUniV2.sol\":2303:2429  if (pair.token0() != WETH && pair.token1() != WETH) {... */\n    tag_158:\n        /* \"zap/ZapUniV2.sol\":2439:2484  _removeLiqudity(address(pair), address(this)) */\n      tag_161\n        /* \"zap/ZapUniV2.sol\":2463:2467  pair */\n      dup2\n        /* \"zap/ZapUniV2.sol\":2478:2482  this */\n      address\n        /* \"zap/ZapUniV2.sol\":2439:2454  _removeLiqudity */\n      tag_160\n        /* \"zap/ZapUniV2.sol\":2439:2484  _removeLiqudity(address(pair), address(this)) */\n      jump\t// in\n    tag_161:\n        /* \"zap/ZapUniV2.sol\":2495:2518  address[] memory tokens */\n      0x00\n        /* \"zap/ZapUniV2.sol\":2535:2536  2 */\n      0x02\n        /* \"zap/ZapUniV2.sol\":2521:2537  new address[](2) */\n      0xffffffffffffffff\n      dup2\n      gt\n      iszero\n      tag_162\n      jumpi\n      tag_163\n      tag_164\n      jump\t// in\n    tag_163:\n    tag_162:\n      mload(0x40)\n      swap1\n      dup1\n      dup3\n      mstore\n      dup1\n      0x20\n      mul\n      0x20\n      add\n      dup3\n      add\n      0x40\n      mstore\n      dup1\n      iszero\n      tag_165\n      jumpi\n      dup2\n      0x20\n      add\n      0x20\n      dup3\n      mul\n      dup1\n      calldatasize\n      dup4\n      calldatacopy\n      dup1\n      dup3\n      add\n      swap2\n      pop\n      pop\n      swap1\n      pop\n    tag_165:\n      pop\n        /* \"zap/ZapUniV2.sol\":2495:2537  address[] memory tokens = new address[](2) */\n      swap1\n      pop\n        /* \"zap/ZapUniV2.sol\":2559:2563  pair */\n      dup2\n        /* \"zap/ZapUniV2.sol\":2559:2570  pair.token0 */\n      0xffffffffffffffffffffffffffffffffffffffff\n      and\n      0x0dfe1681\n        /* \"zap/ZapUniV2.sol\":2559:2572  pair.token0() */\n      mload(0x40)\n      dup2\n      0xffffffff\n      and\n      0xe0\n      shl\n      dup2\n      mstore\n      0x04\n      add\n      0x20\n      mload(0x40)\n      dup1\n      dup4\n      sub\n      dup2\n      dup7\n      dup1\n      extcodesize\n      iszero\n      dup1\n      iszero\n      tag_166\n      jumpi\n      0x00\n      dup1\n      revert\n    tag_166:\n      pop\n      gas\n      staticcall\n      iszero\n      dup1\n      iszero\n      tag_168\n      jumpi\n      returndatasize\n      0x00\n      dup1\n      returndatacopy\n      revert(0x00, returndatasize)\n    tag_168:\n      pop\n      pop\n      pop\n      pop\n      mload(0x40)\n      returndatasize\n      not(0x1f)\n      0x1f\n      dup3\n      add\n      and\n      dup3\n      add\n      dup1\n      0x40\n      mstore\n      pop\n      dup2\n      add\n      swap1\n      tag_169\n      swap2\n      swap1\n      tag_75\n      jump\t// in\n    tag_169:\n        /* \"zap/ZapUniV2.sol\":2547:2553  tokens */\n      dup2\n        /* \"zap/ZapUniV2.sol\":2554:2555  0 */\n      0x00\n        /* \"zap/ZapUniV2.sol\":2547:2556  tokens[0] */\n      dup2\n      mload\n      dup2\n      lt\n      tag_170\n      jumpi\n      tag_171\n      tag_172\n      jump\t// in\n    tag_171:\n    tag_170:\n      0x20\n      mul\n      0x20\n      add\n      add\n        /* \"zap/ZapUniV2.sol\":2547:2572  tokens[0] = pair.token0() */\n      swap1\n      0xffffffffffffffffffffffffffffffffffffffff\n      and\n      swap1\n      dup2\n      0xffffffffffffffffffffffffffffffffffffffff\n      and\n      dup2\n      mstore\n      pop\n      pop\n        /* \"zap/ZapUniV2.sol\":2594:2598  pair */\n      dup2\n        /* \"zap/ZapUniV2.sol\":2594:2605  pair.token1 */\n      0xffffffffffffffffffffffffffffffffffffffff\n      and\n      0xd21220a7\n        /* \"zap/ZapUniV2.sol\":2594:2607  pair.token1() */\n      mload(0x40)\n      dup2\n      0xffffffff\n      and\n      0xe0\n      shl\n      dup2\n      mstore\n      0x04\n      add\n      0x20\n      mload(0x40)\n      dup1\n      dup4\n      sub\n      dup2\n      dup7\n      dup1\n      extcodesize\n      iszero\n      dup1\n      iszero\n      tag_173\n      jumpi\n      0x00\n      dup1\n      revert\n    tag_173:\n      pop\n      gas\n      staticcall\n      iszero\n      dup1\n      iszero\n      tag_175\n      jumpi\n      returndatasize\n      0x00\n      dup1\n      returndatacopy\n      revert(0x00, returndatasize)\n    tag_175:\n      pop\n      pop\n      pop\n      pop\n      mload(0x40)\n      returndatasize\n      not(0x1f)\n      0x1f\n      dup3\n      add\n      and\n      dup3\n      add\n      dup1\n      0x40\n      mstore\n      pop\n      dup2\n      add\n      swap1\n      tag_176\n      swap2\n      swap1\n      tag_75\n      jump\t// in\n    tag_176:\n        /* \"zap/ZapUniV2.sol\":2582:2588  tokens */\n      dup2\n        /* \"zap/ZapUniV2.sol\":2589:2590  1 */\n      0x01\n        /* \"zap/ZapUniV2.sol\":2582:2591  tokens[1] */\n      dup2\n      mload\n      dup2\n      lt\n      tag_177\n      jumpi\n      tag_178\n      tag_172\n      jump\t// in\n    tag_178:\n    tag_177:\n      0x20\n      mul\n      0x20\n      add\n      add\n        /* \"zap/ZapUniV2.sol\":2582:2607  tokens[1] = pair.token1() */\n      swap1\n      0xffffffffffffffffffffffffffffffffffffffff\n      and\n      swap1\n      dup2\n      0xffffffffffffffffffffffffffffffffffffffff\n      and\n      dup2\n      mstore\n      pop\n      pop\n        /* \"zap/ZapUniV2.sol\":2618:2639  _returnAssets(tokens) */\n      tag_179\n        /* \"zap/ZapUniV2.sol\":2632:2638  tokens */\n      dup2\n        /* \"zap/ZapUniV2.sol\":2618:2631  _returnAssets */\n      tag_180\n        /* \"zap/ZapUniV2.sol\":2618:2639  _returnAssets(tokens) */\n      jump\t// in\n    tag_179:\n        /* \"zap/ZapUniV2.sol\":2092:2646  {... */\n      pop\n      pop\n      pop\n        /* \"zap/ZapUniV2.sol\":2023:2646  function zapOut (address dyosVault, uint256 withdrawAmount) external {... */\n    tag_142:\n      pop\n      pop\n      jump\t// out\n        /* \"zap/ZapUniV2.sol\":1016:1047  uint256 public constant fee = 1 */\n    tag_56:\n        /* \"zap/ZapUniV2.sol\":1046:1047  1 */\n      0x01\n        /* \"zap/ZapUniV2.sol\":1016:1047  uint256 public constant fee = 1 */\n      dup2\n      jump\t// out\n        /* \"zap/ZapUniV2.sol\":2652:3639  function zapOutAndSwap(address dyosVault, uint256 withdrawAmount, address desiredToken, uint256 desiredTokenOutMin) external {... */\n    tag_61:\n        /* \"zap/ZapUniV2.sol\":2788:2800  IVault vault */\n      0x00\n        /* \"zap/ZapUniV2.sol\":2802:2821  IUniswapV2Pair pair */\n      dup1\n        /* \"zap/ZapUniV2.sol\":2825:2849  _getVaultPair(dyosVault) */\n      tag_182\n        /* \"zap/ZapUniV2.sol\":2839:2848  dyosVault */\n      dup7\n        /* \"zap/ZapUniV2.sol\":2825:2838  _getVaultPair */\n      tag_70\n        /* \"zap/ZapUniV2.sol\":2825:2849  _getVaultPair(dyosVault) */\n      jump\t// in\n    tag_182:\n        /* \"zap/ZapUniV2.sol\":2787:2849  (IVault vault, IUniswapV2Pair pair) = _getVaultPair(dyosVault) */\n      swap2\n      pop\n      swap2\n      pop\n        /* \"zap/ZapUniV2.sol\":2859:2873  address token0 */\n      0x00\n        /* \"zap/ZapUniV2.sol\":2876:2880  pair */\n      dup2\n        /* \"zap/ZapUniV2.sol\":2876:2887  pair.token0 */\n      0xffffffffffffffffffffffffffffffffffffffff\n      and\n      0x0dfe1681\n        /* \"zap/ZapUniV2.sol\":2876:2889  pair.token0() */\n      mload(0x40)\n      dup2\n      0xffffffff\n      and\n      0xe0\n      shl\n      dup2\n      mstore\n      0x04\n      add\n      0x20\n      mload(0x40)\n      dup1\n      dup4\n      sub\n      dup2\n      dup7\n      dup1\n      extcodesize\n      iszero\n      dup1\n      iszero\n      tag_183\n      jumpi\n      0x00\n      dup1\n      revert\n    tag_183:\n      pop\n      gas\n      staticcall\n      iszero\n      dup1\n      iszero\n      tag_185\n      jumpi\n      returndatasize\n      0x00\n      dup1\n      returndatacopy\n      revert(0x00, returndatasize)\n    tag_185:\n      pop\n      pop\n      pop\n      pop\n      mload(0x40)\n      returndatasize\n      not(0x1f)\n      0x1f\n      dup3\n      add\n      and\n      dup3\n      add\n      dup1\n      0x40\n      mstore\n      pop\n      dup2\n      add\n      swap1\n      tag_186\n      swap2\n      swap1\n      tag_75\n      jump\t// in\n    tag_186:\n        /* \"zap/ZapUniV2.sol\":2859:2889  address token0 = pair.token0() */\n      swap1\n      pop\n        /* \"zap/ZapUniV2.sol\":2899:2913  address token1 */\n      0x00\n        /* \"zap/ZapUniV2.sol\":2916:2920  pair */\n      dup3\n        /* \"zap/ZapUniV2.sol\":2916:2927  pair.token1 */\n      0xffffffffffffffffffffffffffffffffffffffff\n      and\n      0xd21220a7\n        /* \"zap/ZapUniV2.sol\":2916:2929  pair.token1() */\n      mload(0x40)\n      dup2\n      0xffffffff\n      and\n      0xe0\n      shl\n      dup2\n      mstore\n      0x04\n      add\n      0x20\n      mload(0x40)\n      dup1\n      dup4\n      sub\n      dup2\n      dup7\n      dup1\n      extcodesize\n      iszero\n      dup1\n      iszero\n      tag_187\n      jumpi\n      0x00\n      dup1\n      revert\n    tag_187:\n      pop\n      gas\n      staticcall\n      iszero\n      dup1\n      iszero\n      tag_189\n      jumpi\n      returndatasize\n      0x00\n      dup1\n      returndatacopy\n      revert(0x00, returndatasize)\n    tag_189:\n      pop\n      pop\n      pop\n      pop\n      mload(0x40)\n      returndatasize\n      not(0x1f)\n      0x1f\n      dup3\n      add\n      and\n      dup3\n      add\n      dup1\n      0x40\n      mstore\n      pop\n      dup2\n      add\n      swap1\n      tag_190\n      swap2\n      swap1\n      tag_75\n      jump\t// in\n    tag_190:\n        /* \"zap/ZapUniV2.sol\":2899:2929  address token1 = pair.token1() */\n      swap1\n      pop\n        /* \"zap/ZapUniV2.sol\":2957:2969  desiredToken */\n      dup6\n        /* \"zap/ZapUniV2.sol\":2947:2969  token0 == desiredToken */\n      0xffffffffffffffffffffffffffffffffffffffff\n      and\n        /* \"zap/ZapUniV2.sol\":2947:2953  token0 */\n      dup3\n        /* \"zap/ZapUniV2.sol\":2947:2969  token0 == desiredToken */\n      0xffffffffffffffffffffffffffffffffffffffff\n      and\n      eq\n        /* \"zap/ZapUniV2.sol\":2947:2995  token0 == desiredToken || token1 == desiredToken */\n      dup1\n      tag_191\n      jumpi\n      pop\n        /* \"zap/ZapUniV2.sol\":2983:2995  desiredToken */\n      dup6\n        /* \"zap/ZapUniV2.sol\":2973:2995  token1 == desiredToken */\n      0xffffffffffffffffffffffffffffffffffffffff\n      and\n        /* \"zap/ZapUniV2.sol\":2973:2979  token1 */\n      dup2\n        /* \"zap/ZapUniV2.sol\":2973:2995  token1 == desiredToken */\n      0xffffffffffffffffffffffffffffffffffffffff\n      and\n      eq\n        /* \"zap/ZapUniV2.sol\":2947:2995  token0 == desiredToken || token1 == desiredToken */\n    tag_191:\n        /* \"zap/ZapUniV2.sol\":2939:3048  require(token0 == desiredToken || token1 == desiredToken, 'Dyos: desired token not present in liqudity pair') */\n      tag_192\n      jumpi\n      mload(0x40)\n      0x08c379a000000000000000000000000000000000000000000000000000000000\n      dup2\n      mstore\n      0x04\n      add\n      tag_193\n      swap1\n      tag_194\n      jump\t// in\n    tag_193:\n      mload(0x40)\n      dup1\n      swap2\n      sub\n      swap1\n      revert\n    tag_192:\n        /* \"zap/ZapUniV2.sol\":3059:3124  vault.safeTransferFrom(msg.sender, address(this), withdrawAmount) */\n      tag_195\n        /* \"zap/ZapUniV2.sol\":3082:3092  msg.sender */\n      caller\n        /* \"zap/ZapUniV2.sol\":3102:3106  this */\n      address\n        /* \"zap/ZapUniV2.sol\":3109:3123  withdrawAmount */\n      dup10\n        /* \"zap/ZapUniV2.sol\":3059:3064  vault */\n      dup8\n        /* \"zap/ZapUniV2.sol\":3059:3081  vault.safeTransferFrom */\n      0xffffffffffffffffffffffffffffffffffffffff\n      and\n      tag_124\n      swap1\n        /* \"zap/ZapUniV2.sol\":3059:3124  vault.safeTransferFrom(msg.sender, address(this), withdrawAmount) */\n      swap4\n      swap3\n      swap2\n      swap1\n      0xffffffff\n      and\n      jump\t// in\n    tag_195:\n        /* \"zap/ZapUniV2.sol\":3134:3139  vault */\n      dup4\n        /* \"zap/ZapUniV2.sol\":3134:3148  vault.withdraw */\n      0xffffffffffffffffffffffffffffffffffffffff\n      and\n      0x2e1a7d4d\n        /* \"zap/ZapUniV2.sol\":3149:3163  withdrawAmount */\n      dup9\n        /* \"zap/ZapUniV2.sol\":3134:3164  vault.withdraw(withdrawAmount) */\n      mload(0x40)\n      dup3\n      0xffffffff\n      and\n      0xe0\n      shl\n      dup2\n      mstore\n      0x04\n      add\n      tag_196\n      swap2\n      swap1\n      tag_49\n      jump\t// in\n    tag_196:\n      0x00\n      mload(0x40)\n      dup1\n      dup4\n      sub\n      dup2\n      0x00\n      dup8\n      dup1\n      extcodesize\n      iszero\n      dup1\n      iszero\n      tag_197\n      jumpi\n      0x00\n      dup1\n      revert\n    tag_197:\n      pop\n      gas\n      call\n      iszero\n      dup1\n      iszero\n      tag_199\n      jumpi\n      returndatasize\n      0x00\n      dup1\n      returndatacopy\n      revert(0x00, returndatasize)\n    tag_199:\n      pop\n      pop\n      pop\n      pop\n        /* \"zap/ZapUniV2.sol\":3174:3219  _removeLiqudity(address(pair), address(this)) */\n      tag_200\n        /* \"zap/ZapUniV2.sol\":3198:3202  pair */\n      dup4\n        /* \"zap/ZapUniV2.sol\":3213:3217  this */\n      address\n        /* \"zap/ZapUniV2.sol\":3174:3189  _removeLiqudity */\n      tag_160\n        /* \"zap/ZapUniV2.sol\":3174:3219  _removeLiqudity(address(pair), address(this)) */\n      jump\t// in\n    tag_200:\n        /* \"zap/ZapUniV2.sol\":3230:3247  address swapToken */\n      0x00\n        /* \"zap/ZapUniV2.sol\":3260:3272  desiredToken */\n      dup7\n        /* \"zap/ZapUniV2.sol\":3250:3272  token1 == desiredToken */\n      0xffffffffffffffffffffffffffffffffffffffff\n      and\n        /* \"zap/ZapUniV2.sol\":3250:3256  token1 */\n      dup3\n        /* \"zap/ZapUniV2.sol\":3250:3272  token1 == desiredToken */\n      0xffffffffffffffffffffffffffffffffffffffff\n      and\n      eq\n        /* \"zap/ZapUniV2.sol\":3250:3290  token1 == desiredToken ? token0 : token1 */\n      tag_201\n      jumpi\n        /* \"zap/ZapUniV2.sol\":3284:3290  token1 */\n      dup2\n        /* \"zap/ZapUniV2.sol\":3250:3290  token1 == desiredToken ? token0 : token1 */\n      jump(tag_202)\n    tag_201:\n        /* \"zap/ZapUniV2.sol\":3275:3281  token0 */\n      dup3\n        /* \"zap/ZapUniV2.sol\":3250:3290  token1 == desiredToken ? token0 : token1 */\n    tag_202:\n        /* \"zap/ZapUniV2.sol\":3230:3290  address swapToken = token1 == desiredToken ? token0 : token1 */\n      swap1\n      pop\n        /* \"zap/ZapUniV2.sol\":3300:3321  address[] memory path */\n      0x00\n        /* \"zap/ZapUniV2.sol\":3338:3339  2 */\n      0x02\n        /* \"zap/ZapUniV2.sol\":3324:3340  new address[](2) */\n      0xffffffffffffffff\n      dup2\n      gt\n      iszero\n      tag_203\n      jumpi\n      tag_204\n      tag_164\n      jump\t// in\n    tag_204:\n    tag_203:\n      mload(0x40)\n      swap1\n      dup1\n      dup3\n      mstore\n      dup1\n      0x20\n      mul\n      0x20\n      add\n      dup3\n      add\n      0x40\n      mstore\n      dup1\n      iszero\n      tag_205\n      jumpi\n      dup2\n      0x20\n      add\n      0x20\n      dup3\n      mul\n      dup1\n      calldatasize\n      dup4\n      calldatacopy\n      dup1\n      dup3\n      add\n      swap2\n      pop\n      pop\n      swap1\n      pop\n    tag_205:\n      pop\n        /* \"zap/ZapUniV2.sol\":3300:3340  address[] memory path = new address[](2) */\n      swap1\n      pop\n        /* \"zap/ZapUniV2.sol\":3360:3369  swapToken */\n      dup2\n        /* \"zap/ZapUniV2.sol\":3350:3354  path */\n      dup2\n        /* \"zap/ZapUniV2.sol\":3355:3356  0 */\n      0x00\n        /* \"zap/ZapUniV2.sol\":3350:3357  path[0] */\n      dup2\n      mload\n      dup2\n      lt\n      tag_206\n      jumpi\n      tag_207\n      tag_172\n      jump\t// in\n    tag_207:\n    tag_206:\n      0x20\n      mul\n      0x20\n      add\n      add\n        /* \"zap/ZapUniV2.sol\":3350:3369  path[0] = swapToken */\n      swap1\n      0xffffffffffffffffffffffffffffffffffffffff\n      and\n      swap1\n      dup2\n      0xffffffffffffffffffffffffffffffffffffffff\n      and\n      dup2\n      mstore\n      pop\n      pop\n        /* \"zap/ZapUniV2.sol\":3389:3401  desiredToken */\n      dup8\n        /* \"zap/ZapUniV2.sol\":3379:3383  path */\n      dup2\n        /* \"zap/ZapUniV2.sol\":3384:3385  1 */\n      0x01\n        /* \"zap/ZapUniV2.sol\":3379:3386  path[1] */\n      dup2\n      mload\n      dup2\n      lt\n      tag_208\n      jumpi\n      tag_209\n      tag_172\n      jump\t// in\n    tag_209:\n    tag_208:\n      0x20\n      mul\n      0x20\n      add\n      add\n        /* \"zap/ZapUniV2.sol\":3379:3401  path[1] = desiredToken */\n      swap1\n      0xffffffffffffffffffffffffffffffffffffffff\n      and\n      swap1\n      dup2\n      0xffffffffffffffffffffffffffffffffffffffff\n      and\n      dup2\n      mstore\n      pop\n      pop\n        /* \"zap/ZapUniV2.sol\":3412:3459  _approveTokenIfNeeded(path[0], address(router)) */\n      tag_210\n        /* \"zap/ZapUniV2.sol\":3434:3438  path */\n      dup2\n        /* \"zap/ZapUniV2.sol\":3439:3440  0 */\n      0x00\n        /* \"zap/ZapUniV2.sol\":3434:3441  path[0] */\n      dup2\n      mload\n      dup2\n      lt\n      tag_211\n      jumpi\n      tag_212\n      tag_172\n      jump\t// in\n    tag_212:\n    tag_211:\n      0x20\n      mul\n      0x20\n      add\n      add\n      mload\n        /* \"zap/ZapUniV2.sol\":3451:3457  router */\n      immutable(\"0x9b210b267865dedfbeb7a86b51a05bc5eacedf2f38cba09998c3299230e560a6\")\n        /* \"zap/ZapUniV2.sol\":3412:3433  _approveTokenIfNeeded */\n      tag_213\n        /* \"zap/ZapUniV2.sol\":3412:3459  _approveTokenIfNeeded(path[0], address(router)) */\n      jump\t// in\n    tag_210:\n        /* \"zap/ZapUniV2.sol\":3469:3475  router */\n      immutable(\"0x9b210b267865dedfbeb7a86b51a05bc5eacedf2f38cba09998c3299230e560a6\")\n        /* \"zap/ZapUniV2.sol\":3469:3500  router.swapExactTokensForTokens */\n      0xffffffffffffffffffffffffffffffffffffffff\n      and\n      0x38ed1739\n        /* \"zap/ZapUniV2.sol\":3508:3517  swapToken */\n      dup4\n        /* \"zap/ZapUniV2.sol\":3501:3528  IERC20(swapToken).balanceOf */\n      0xffffffffffffffffffffffffffffffffffffffff\n      and\n      0x70a08231\n        /* \"zap/ZapUniV2.sol\":3537:3541  this */\n      address\n        /* \"zap/ZapUniV2.sol\":3501:3543  IERC20(swapToken).balanceOf(address(this)) */\n      mload(0x40)\n      dup3\n      0xffffffff\n      and\n      0xe0\n      shl\n      dup2\n      mstore\n      0x04\n      add\n      tag_214\n      swap2\n      swap1\n      tag_44\n      jump\t// in\n    tag_214:\n      0x20\n      mload(0x40)\n      dup1\n      dup4\n      sub\n      dup2\n      dup7\n      dup1\n      extcodesize\n      iszero\n      dup1\n      iszero\n      tag_215\n      jumpi\n      0x00\n      dup1\n      revert\n    tag_215:\n      pop\n      gas\n      staticcall\n      iszero\n      dup1\n      iszero\n      tag_217\n      jumpi\n      returndatasize\n      0x00\n      dup1\n      returndatacopy\n      revert(0x00, returndatasize)\n    tag_217:\n      pop\n      pop\n      pop\n      pop\n      mload(0x40)\n      returndatasize\n      not(0x1f)\n      0x1f\n      dup3\n      add\n      and\n      dup3\n      add\n      dup1\n      0x40\n      mstore\n      pop\n      dup2\n      add\n      swap1\n      tag_218\n      swap2\n      swap1\n      tag_99\n      jump\t// in\n    tag_218:\n        /* \"zap/ZapUniV2.sol\":3545:3563  desiredTokenOutMin */\n      dup10\n        /* \"zap/ZapUniV2.sol\":3565:3569  path */\n      dup5\n        /* \"zap/ZapUniV2.sol\":3579:3583  this */\n      address\n        /* \"zap/ZapUniV2.sol\":3586:3601  block.timestamp */\n      timestamp\n        /* \"zap/ZapUniV2.sol\":3469:3602  router.swapExactTokensForTokens(IERC20(swapToken).balanceOf(address(this)), desiredTokenOutMin, path, address(this), block.timestamp) */\n      mload(0x40)\n      dup7\n      0xffffffff\n      and\n      0xe0\n      shl\n      dup2\n      mstore\n      0x04\n      add\n      tag_219\n      swap6\n      swap5\n      swap4\n      swap3\n      swap2\n      swap1\n      tag_220\n      jump\t// in\n    tag_219:\n      0x00\n      mload(0x40)\n      dup1\n      dup4\n      sub\n      dup2\n      0x00\n      dup8\n      dup1\n      extcodesize\n      iszero\n      dup1\n      iszero\n      tag_221\n      jumpi\n      0x00\n      dup1\n      revert\n    tag_221:\n      pop\n      gas\n      call\n      iszero\n      dup1\n      iszero\n      tag_223\n      jumpi\n      returndatasize\n      0x00\n      dup1\n      returndatacopy\n      revert(0x00, returndatasize)\n    tag_223:\n      pop\n      pop\n      pop\n      pop\n      mload(0x40)\n      returndatasize\n      0x00\n      dup3\n      returndatacopy\n      returndatasize\n      not(0x1f)\n      0x1f\n      dup3\n      add\n      and\n      dup3\n      add\n      dup1\n      0x40\n      mstore\n      pop\n      dup2\n      add\n      swap1\n      tag_224\n      swap2\n      swap1\n      tag_225\n      jump\t// in\n    tag_224:\n      pop\n        /* \"zap/ZapUniV2.sol\":3613:3632  _returnAssets(path) */\n      tag_226\n        /* \"zap/ZapUniV2.sol\":3627:3631  path */\n      dup2\n        /* \"zap/ZapUniV2.sol\":3613:3626  _returnAssets */\n      tag_180\n        /* \"zap/ZapUniV2.sol\":3613:3632  _returnAssets(path) */\n      jump\t// in\n    tag_226:\n        /* \"zap/ZapUniV2.sol\":2777:3639  {... */\n      pop\n      pop\n      pop\n      pop\n      pop\n      pop\n        /* \"zap/ZapUniV2.sol\":2652:3639  function zapOutAndSwap(address dyosVault, uint256 withdrawAmount, address desiredToken, uint256 desiredTokenOutMin) external {... */\n      pop\n      pop\n      pop\n      pop\n      jump\t// out\n        /* \"zap/ZapUniV2.sol\":883:925  IUniswapV2Router02 public immutable router */\n    tag_64:\n      immutable(\"0x9b210b267865dedfbeb7a86b51a05bc5eacedf2f38cba09998c3299230e560a6\")\n      dup2\n      jump\t// out\n        /* \"zap/ZapUniV2.sol\":4044:4329  function _getVaultPair (address dyosVault) private view returns (IVault vault, IUniswapV2Pair pair) {... */\n    tag_70:\n        /* \"zap/ZapUniV2.sol\":4109:4121  IVault vault */\n      0x00\n        /* \"zap/ZapUniV2.sol\":4123:4142  IUniswapV2Pair pair */\n      dup1\n        /* \"zap/ZapUniV2.sol\":4169:4178  dyosVault */\n      dup3\n        /* \"zap/ZapUniV2.sol\":4154:4179  vault = IVault(dyosVault) */\n      swap2\n      pop\n        /* \"zap/ZapUniV2.sol\":4211:4216  vault */\n      dup2\n        /* \"zap/ZapUniV2.sol\":4211:4221  vault.want */\n      0xffffffffffffffffffffffffffffffffffffffff\n      and\n      0x1f1fcd51\n        /* \"zap/ZapUniV2.sol\":4211:4223  vault.want() */\n      mload(0x40)\n      dup2\n      0xffffffff\n      and\n      0xe0\n      shl\n      dup2\n      mstore\n      0x04\n      add\n      0x20\n      mload(0x40)\n      dup1\n      dup4\n      sub\n      dup2\n      dup7\n      dup1\n      extcodesize\n      iszero\n      dup1\n      iszero\n      tag_228\n      jumpi\n      0x00\n      dup1\n      revert\n    tag_228:\n      pop\n      gas\n      staticcall\n      iszero\n      dup1\n      iszero\n      tag_230\n      jumpi\n      returndatasize\n      0x00\n      dup1\n      returndatacopy\n      revert(0x00, returndatasize)\n    tag_230:\n      pop\n      pop\n      pop\n      pop\n      mload(0x40)\n      returndatasize\n      not(0x1f)\n      0x1f\n      dup3\n      add\n      and\n      dup3\n      add\n      dup1\n      0x40\n      mstore\n      pop\n      dup2\n      add\n      swap1\n      tag_231\n      swap2\n      swap1\n      tag_75\n      jump\t// in\n    tag_231:\n        /* \"zap/ZapUniV2.sol\":4189:4224  pair = IUniswapV2Pair(vault.want()) */\n      swap1\n      pop\n        /* \"zap/ZapUniV2.sol\":4260:4266  router */\n      immutable(\"0x9b210b267865dedfbeb7a86b51a05bc5eacedf2f38cba09998c3299230e560a6\")\n        /* \"zap/ZapUniV2.sol\":4260:4274  router.factory */\n      0xffffffffffffffffffffffffffffffffffffffff\n      and\n      0xc45a0155\n        /* \"zap/ZapUniV2.sol\":4260:4276  router.factory() */\n      mload(0x40)\n      dup2\n      0xffffffff\n      and\n      0xe0\n      shl\n      dup2\n      mstore\n      0x04\n      add\n      0x20\n      mload(0x40)\n      dup1\n      dup4\n      sub\n      dup2\n      dup7\n      dup1\n      extcodesize\n      iszero\n      dup1\n      iszero\n      tag_232\n      jumpi\n      0x00\n      dup1\n      revert\n    tag_232:\n      pop\n      gas\n      staticcall\n      iszero\n      dup1\n      iszero\n      tag_234\n      jumpi\n      returndatasize\n      0x00\n      dup1\n      returndatacopy\n      revert(0x00, returndatasize)\n    tag_234:\n      pop\n      pop\n      pop\n      pop\n      mload(0x40)\n      returndatasize\n      not(0x1f)\n      0x1f\n      dup3\n      add\n      and\n      dup3\n      add\n      dup1\n      0x40\n      mstore\n      pop\n      dup2\n      add\n      swap1\n      tag_235\n      swap2\n      swap1\n      tag_75\n      jump\t// in\n    tag_235:\n        /* \"zap/ZapUniV2.sol\":4242:4276  pair.factory() == router.factory() */\n      0xffffffffffffffffffffffffffffffffffffffff\n      and\n        /* \"zap/ZapUniV2.sol\":4242:4246  pair */\n      dup2\n        /* \"zap/ZapUniV2.sol\":4242:4254  pair.factory */\n      0xffffffffffffffffffffffffffffffffffffffff\n      and\n      0xc45a0155\n        /* \"zap/ZapUniV2.sol\":4242:4256  pair.factory() */\n      mload(0x40)\n      dup2\n      0xffffffff\n      and\n      0xe0\n      shl\n      dup2\n      mstore\n      0x04\n      add\n      0x20\n      mload(0x40)\n      dup1\n      dup4\n      sub\n      dup2\n      dup7\n      dup1\n      extcodesize\n      iszero\n      dup1\n      iszero\n      tag_236\n      jumpi\n      0x00\n      dup1\n      revert\n    tag_236:\n      pop\n      gas\n      staticcall\n      iszero\n      dup1\n      iszero\n      tag_238\n      jumpi\n      returndatasize\n      0x00\n      dup1\n      returndatacopy\n      revert(0x00, returndatasize)\n    tag_238:\n      pop\n      pop\n      pop\n      pop\n      mload(0x40)\n      returndatasize\n      not(0x1f)\n      0x1f\n      dup3\n      add\n      and\n      dup3\n      add\n      dup1\n      0x40\n      mstore\n      pop\n      dup2\n      add\n      swap1\n      tag_239\n      swap2\n      swap1\n      tag_75\n      jump\t// in\n    tag_239:\n        /* \"zap/ZapUniV2.sol\":4242:4276  pair.factory() == router.factory() */\n      0xffffffffffffffffffffffffffffffffffffffff\n      and\n      eq\n        /* \"zap/ZapUniV2.sol\":4234:4322  require(pair.factory() == router.factory(), 'Dyos: Incompatible liquidity pair factory') */\n      tag_240\n      jumpi\n      mload(0x40)\n      0x08c379a000000000000000000000000000000000000000000000000000000000\n      dup2\n      mstore\n      0x04\n      add\n      tag_241\n      swap1\n      tag_242\n      jump\t// in\n    tag_241:\n      mload(0x40)\n      dup1\n      swap2\n      sub\n      swap1\n      revert\n    tag_240:\n        /* \"zap/ZapUniV2.sol\":4044:4329  function _getVaultPair (address dyosVault) private view returns (IVault vault, IUniswapV2Pair pair) {... */\n      swap2\n      pop\n      swap2\n      jump\t// out\n        /* \"zap/ZapUniV2.sol\":6594:7088  function _getSwapAmount(uint256 investmentA, uint256 reserveA, uint256 reserveB) private view returns (uint256 swapAmount) {... */\n    tag_92:\n        /* \"zap/ZapUniV2.sol\":6697:6715  uint256 swapAmount */\n      0x00\n        /* \"zap/ZapUniV2.sol\":6727:6749  uint256 halfInvestment */\n      dup1\n        /* \"zap/ZapUniV2.sol\":6766:6767  2 */\n      0x02\n        /* \"zap/ZapUniV2.sol\":6752:6763  investmentA */\n      dup6\n        /* \"zap/ZapUniV2.sol\":6752:6767  investmentA / 2 */\n      tag_244\n      swap2\n      swap1\n      tag_245\n      jump\t// in\n    tag_244:\n        /* \"zap/ZapUniV2.sol\":6727:6767  uint256 halfInvestment = investmentA / 2 */\n      swap1\n      pop\n        /* \"zap/ZapUniV2.sol\":6777:6794  uint256 nominator */\n      0x00\n        /* \"zap/ZapUniV2.sol\":6797:6803  router */\n      immutable(\"0x9b210b267865dedfbeb7a86b51a05bc5eacedf2f38cba09998c3299230e560a6\")\n        /* \"zap/ZapUniV2.sol\":6797:6816  router.getAmountOut */\n      0xffffffffffffffffffffffffffffffffffffffff\n      and\n      0x054d50d4\n        /* \"zap/ZapUniV2.sol\":6817:6831  halfInvestment */\n      dup4\n        /* \"zap/ZapUniV2.sol\":6833:6841  reserveA */\n      dup8\n        /* \"zap/ZapUniV2.sol\":6843:6851  reserveB */\n      dup8\n        /* \"zap/ZapUniV2.sol\":6797:6852  router.getAmountOut(halfInvestment, reserveA, reserveB) */\n      mload(0x40)\n      dup5\n      0xffffffff\n      and\n      0xe0\n      shl\n      dup2\n      mstore\n      0x04\n      add\n      tag_246\n      swap4\n      swap3\n      swap2\n      swap1\n      tag_94\n      jump\t// in\n    tag_246:\n      0x20\n      mload(0x40)\n      dup1\n      dup4\n      sub\n      dup2\n      dup7\n      dup1\n      extcodesize\n      iszero\n      dup1\n      iszero\n      tag_247\n      jumpi\n      0x00\n      dup1\n      revert\n    tag_247:\n      pop\n      gas\n      staticcall\n      iszero\n      dup1\n      iszero\n      tag_249\n      jumpi\n      returndatasize\n      0x00\n      dup1\n      returndatacopy\n      revert(0x00, returndatasize)\n    tag_249:\n      pop\n      pop\n      pop\n      pop\n      mload(0x40)\n      returndatasize\n      not(0x1f)\n      0x1f\n      dup3\n      add\n      and\n      dup3\n      add\n      dup1\n      0x40\n      mstore\n      pop\n      dup2\n      add\n      swap1\n      tag_250\n      swap2\n      swap1\n      tag_99\n      jump\t// in\n    tag_250:\n        /* \"zap/ZapUniV2.sol\":6777:6852  uint256 nominator = router.getAmountOut(halfInvestment, reserveA, reserveB) */\n      swap1\n      pop\n        /* \"zap/ZapUniV2.sol\":6862:6881  uint256 denominator */\n      0x00\n        /* \"zap/ZapUniV2.sol\":6884:6890  router */\n      immutable(\"0x9b210b267865dedfbeb7a86b51a05bc5eacedf2f38cba09998c3299230e560a6\")\n        /* \"zap/ZapUniV2.sol\":6884:6896  router.quote */\n      0xffffffffffffffffffffffffffffffffffffffff\n      and\n      0xad615dec\n        /* \"zap/ZapUniV2.sol\":6897:6911  halfInvestment */\n      dup5\n        /* \"zap/ZapUniV2.sol\":6913:6941  reserveA.add(halfInvestment) */\n      tag_251\n        /* \"zap/ZapUniV2.sol\":6926:6940  halfInvestment */\n      dup7\n        /* \"zap/ZapUniV2.sol\":6913:6921  reserveA */\n      dup11\n        /* \"zap/ZapUniV2.sol\":6913:6925  reserveA.add */\n      tag_252\n      swap1\n        /* \"zap/ZapUniV2.sol\":6913:6941  reserveA.add(halfInvestment) */\n      swap2\n      swap1\n      0xffffffff\n      and\n      jump\t// in\n    tag_251:\n        /* \"zap/ZapUniV2.sol\":6943:6966  reserveB.sub(nominator) */\n      tag_253\n        /* \"zap/ZapUniV2.sol\":6956:6965  nominator */\n      dup7\n        /* \"zap/ZapUniV2.sol\":6943:6951  reserveB */\n      dup11\n        /* \"zap/ZapUniV2.sol\":6943:6955  reserveB.sub */\n      tag_254\n      swap1\n        /* \"zap/ZapUniV2.sol\":6943:6966  reserveB.sub(nominator) */\n      swap2\n      swap1\n      0xffffffff\n      and\n      jump\t// in\n    tag_253:\n        /* \"zap/ZapUniV2.sol\":6884:6967  router.quote(halfInvestment, reserveA.add(halfInvestment), reserveB.sub(nominator)) */\n      mload(0x40)\n      dup5\n      0xffffffff\n      and\n      0xe0\n      shl\n      dup2\n      mstore\n      0x04\n      add\n      tag_255\n      swap4\n      swap3\n      swap2\n      swap1\n      tag_94\n      jump\t// in\n    tag_255:\n      0x20\n      mload(0x40)\n      dup1\n      dup4\n      sub\n      dup2\n      dup7\n      dup1\n      extcodesize\n      iszero\n      dup1\n      iszero\n      tag_256\n      jumpi\n      0x00\n      dup1\n      revert\n    tag_256:\n      pop\n      gas\n      staticcall\n      iszero\n      dup1\n      iszero\n      tag_258\n      jumpi\n      returndatasize\n      0x00\n      dup1\n      returndatacopy\n      revert(0x00, returndatasize)\n    tag_258:\n      pop\n      pop\n      pop\n      pop\n      mload(0x40)\n      returndatasize\n      not(0x1f)\n      0x1f\n      dup3\n      add\n      and\n      dup3\n      add\n      dup1\n      0x40\n      mstore\n      pop\n      dup2\n      add\n      swap1\n      tag_259\n      swap2\n      swap1\n      tag_99\n      jump\t// in\n    tag_259:\n        /* \"zap/ZapUniV2.sol\":6862:6967  uint256 denominator = router.quote(halfInvestment, reserveA.add(halfInvestment), reserveB.sub(nominator)) */\n      swap1\n      pop\n        /* \"zap/ZapUniV2.sol\":6990:7081  investmentA.sub(Babylonian.sqrt(halfInvestment * halfInvestment * nominator / denominator)) */\n      tag_260\n        /* \"zap/ZapUniV2.sol\":7006:7080  Babylonian.sqrt(halfInvestment * halfInvestment * nominator / denominator) */\n      tag_261\n        /* \"zap/ZapUniV2.sol\":7068:7079  denominator */\n      dup3\n        /* \"zap/ZapUniV2.sol\":7056:7065  nominator */\n      dup5\n        /* \"zap/ZapUniV2.sol\":7039:7053  halfInvestment */\n      dup7\n        /* \"zap/ZapUniV2.sol\":7022:7036  halfInvestment */\n      dup8\n        /* \"zap/ZapUniV2.sol\":7022:7053  halfInvestment * halfInvestment */\n      tag_262\n      swap2\n      swap1\n      tag_263\n      jump\t// in\n    tag_262:\n        /* \"zap/ZapUniV2.sol\":7022:7065  halfInvestment * halfInvestment * nominator */\n      tag_264\n      swap2\n      swap1\n      tag_263\n      jump\t// in\n    tag_264:\n        /* \"zap/ZapUniV2.sol\":7022:7079  halfInvestment * halfInvestment * nominator / denominator */\n      tag_265\n      swap2\n      swap1\n      tag_245\n      jump\t// in\n    tag_265:\n        /* \"zap/ZapUniV2.sol\":7006:7021  Babylonian.sqrt */\n      tag_266\n        /* \"zap/ZapUniV2.sol\":7006:7080  Babylonian.sqrt(halfInvestment * halfInvestment * nominator / denominator) */\n      jump\t// in\n    tag_261:\n        /* \"zap/ZapUniV2.sol\":6990:7001  investmentA */\n      dup9\n        /* \"zap/ZapUniV2.sol\":6990:7005  investmentA.sub */\n      tag_254\n      swap1\n        /* \"zap/ZapUniV2.sol\":6990:7081  investmentA.sub(Babylonian.sqrt(halfInvestment * halfInvestment * nominator / denominator)) */\n      swap2\n      swap1\n      0xffffffff\n      and\n      jump\t// in\n    tag_260:\n        /* \"zap/ZapUniV2.sol\":6977:7081  swapAmount = investmentA.sub(Babylonian.sqrt(halfInvestment * halfInvestment * nominator / denominator)) */\n      swap4\n      pop\n        /* \"zap/ZapUniV2.sol\":6717:7088  {... */\n      pop\n      pop\n      pop\n        /* \"zap/ZapUniV2.sol\":6594:7088  function _getSwapAmount(uint256 investmentA, uint256 reserveA, uint256 reserveB) private view returns (uint256 swapAmount) {... */\n      swap4\n      swap3\n      pop\n      pop\n      pop\n      jump\t// out\n        /* \"@openzeppelin/contracts/token/ERC20/utils/SafeERC20.sol\":974:1215  function safeTransferFrom(... */\n    tag_124:\n        /* \"@openzeppelin/contracts/token/ERC20/utils/SafeERC20.sol\":1112:1208  _callOptionalReturn(token, abi.encodeWithSelector(token.transferFrom.selector, from, to, value)) */\n      tag_268\n        /* \"@openzeppelin/contracts/token/ERC20/utils/SafeERC20.sol\":1132:1137  token */\n      dup5\n        /* \"@openzeppelin/contracts/token/ERC20/utils/SafeERC20.sol\":1162:1189  token.transferFrom.selector */\n      shl(0xe0, 0x23b872dd)\n        /* \"@openzeppelin/contracts/token/ERC20/utils/SafeERC20.sol\":1191:1195  from */\n      dup6\n        /* \"@openzeppelin/contracts/token/ERC20/utils/SafeERC20.sol\":1197:1199  to */\n      dup6\n        /* \"@openzeppelin/contracts/token/ERC20/utils/SafeERC20.sol\":1201:1206  value */\n      dup6\n        /* \"@openzeppelin/contracts/token/ERC20/utils/SafeERC20.sol\":1139:1207  abi.encodeWithSelector(token.transferFrom.selector, from, to, value) */\n      add(0x24, mload(0x40))\n      tag_269\n      swap4\n      swap3\n      swap2\n      swap1\n      tag_270\n      jump\t// in\n    tag_269:\n      mload(0x40)\n      0x20\n      dup2\n      dup4\n      sub\n      sub\n      dup2\n      mstore\n      swap1\n      0x40\n      mstore\n      swap1\n      not(0xffffffffffffffffffffffffffffffffffffffffffffffffffffffff)\n      and\n      0x20\n      dup3\n      add\n      dup1\n      mload\n      0xffffffffffffffffffffffffffffffffffffffffffffffffffffffff\n      dup4\n      dup2\n      dup4\n      and\n      or\n      dup4\n      mstore\n      pop\n      pop\n      pop\n      pop\n        /* \"@openzeppelin/contracts/token/ERC20/utils/SafeERC20.sol\":1112:1131  _callOptionalReturn */\n      tag_271\n        /* \"@openzeppelin/contracts/token/ERC20/utils/SafeERC20.sol\":1112:1208  _callOptionalReturn(token, abi.encodeWithSelector(token.transferFrom.selector, from, to, value)) */\n      jump\t// in\n    tag_268:\n        /* \"@openzeppelin/contracts/token/ERC20/utils/SafeERC20.sol\":974:1215  function safeTransferFrom(... */\n      pop\n      pop\n      pop\n      pop\n      jump\t// out\n        /* \"zap/ZapUniV2.sol\":4335:5962  function _swapAndStake(address dyosVault, uint256 tokenAmountOutMin, address tokenIn) private {... */\n    tag_126:\n        /* \"zap/ZapUniV2.sol\":4440:4452  IVault vault */\n      0x00\n        /* \"zap/ZapUniV2.sol\":4454:4473  IUniswapV2Pair pair */\n      dup1\n        /* \"zap/ZapUniV2.sol\":4477:4501  _getVaultPair(dyosVault) */\n      tag_273\n        /* \"zap/ZapUniV2.sol\":4491:4500  dyosVault */\n      dup6\n        /* \"zap/ZapUniV2.sol\":4477:4490  _getVaultPair */\n      tag_70\n        /* \"zap/ZapUniV2.sol\":4477:4501  _getVaultPair(dyosVault) */\n      jump\t// in\n    tag_273:\n        /* \"zap/ZapUniV2.sol\":4439:4501  (IVault vault, IUniswapV2Pair pair) = _getVaultPair(dyosVault) */\n      swap2\n      pop\n      swap2\n      pop\n        /* \"zap/ZapUniV2.sol\":4513:4529  uint256 reserveA */\n      0x00\n        /* \"zap/ZapUniV2.sol\":4531:4547  uint256 reserveB */\n      dup1\n        /* \"zap/ZapUniV2.sol\":4552:4556  pair */\n      dup3\n        /* \"zap/ZapUniV2.sol\":4552:4568  pair.getReserves */\n      0xffffffffffffffffffffffffffffffffffffffff\n      and\n      0x0902f1ac\n        /* \"zap/ZapUniV2.sol\":4552:4570  pair.getReserves() */\n      mload(0x40)\n      dup2\n      0xffffffff\n      and\n      0xe0\n      shl\n      dup2\n      mstore\n      0x04\n      add\n      0x60\n      mload(0x40)\n      dup1\n      dup4\n      sub\n      dup2\n      dup7\n      dup1\n      extcodesize\n      iszero\n      dup1\n      iszero\n      tag_274\n      jumpi\n      0x00\n      dup1\n      revert\n    tag_274:\n      pop\n      gas\n      staticcall\n      iszero\n      dup1\n      iszero\n      tag_276\n      jumpi\n      returndatasize\n      0x00\n      dup1\n      returndatacopy\n      revert(0x00, returndatasize)\n    tag_276:\n      pop\n      pop\n      pop\n      pop\n      mload(0x40)\n      returndatasize\n      not(0x1f)\n      0x1f\n      dup3\n      add\n      and\n      dup3\n      add\n      dup1\n      0x40\n      mstore\n      pop\n      dup2\n      add\n      swap1\n      tag_277\n      swap2\n      swap1\n      tag_88\n      jump\t// in\n    tag_277:\n        /* \"zap/ZapUniV2.sol\":4512:4570  (uint256 reserveA, uint256 reserveB,) = pair.getReserves() */\n      pop\n      0xffffffffffffffffffffffffffff\n      and\n      swap2\n      pop\n      0xffffffffffffffffffffffffffff\n      and\n      swap2\n      pop\n        /* \"zap/ZapUniV2.sol\":1006:1010  1000 */\n      0x03e8\n        /* \"zap/ZapUniV2.sol\":4588:4596  reserveA */\n      dup3\n        /* \"zap/ZapUniV2.sol\":4588:4612  reserveA > minimumAmount */\n      gt\n        /* \"zap/ZapUniV2.sol\":4588:4640  reserveA > minimumAmount && reserveB > minimumAmount */\n      dup1\n      iszero\n      tag_278\n      jumpi\n      pop\n        /* \"zap/ZapUniV2.sol\":1006:1010  1000 */\n      0x03e8\n        /* \"zap/ZapUniV2.sol\":4616:4624  reserveB */\n      dup2\n        /* \"zap/ZapUniV2.sol\":4616:4640  reserveB > minimumAmount */\n      gt\n        /* \"zap/ZapUniV2.sol\":4588:4640  reserveA > minimumAmount && reserveB > minimumAmount */\n    tag_278:\n        /* \"zap/ZapUniV2.sol\":4580:4682  require(reserveA > minimumAmount && reserveB > minimumAmount, 'Dyos: Liquidity pair reserves too low') */\n      tag_279\n      jumpi\n      mload(0x40)\n      0x08c379a000000000000000000000000000000000000000000000000000000000\n      dup2\n      mstore\n      0x04\n      add\n      tag_280\n      swap1\n      tag_281\n      jump\t// in\n    tag_280:\n      mload(0x40)\n      dup1\n      swap2\n      sub\n      swap1\n      revert\n    tag_279:\n        /* \"zap/ZapUniV2.sol\":4693:4706  bool isInputA */\n      0x00\n        /* \"zap/ZapUniV2.sol\":4726:4733  tokenIn */\n      dup6\n        /* \"zap/ZapUniV2.sol\":4709:4733  pair.token0() == tokenIn */\n      0xffffffffffffffffffffffffffffffffffffffff\n      and\n        /* \"zap/ZapUniV2.sol\":4709:4713  pair */\n      dup5\n        /* \"zap/ZapUniV2.sol\":4709:4720  pair.token0 */\n      0xffffffffffffffffffffffffffffffffffffffff\n      and\n      0x0dfe1681\n        /* \"zap/ZapUniV2.sol\":4709:4722  pair.token0() */\n      mload(0x40)\n      dup2\n      0xffffffff\n      and\n      0xe0\n      shl\n      dup2\n      mstore\n      0x04\n      add\n      0x20\n      mload(0x40)\n      dup1\n      dup4\n      sub\n      dup2\n      dup7\n      dup1\n      extcodesize\n      iszero\n      dup1\n      iszero\n      tag_282\n      jumpi\n      0x00\n      dup1\n      revert\n    tag_282:\n      pop\n      gas\n      staticcall\n      iszero\n      dup1\n      iszero\n      tag_284\n      jumpi\n      returndatasize\n      0x00\n      dup1\n      returndatacopy\n      revert(0x00, returndatasize)\n    tag_284:\n      pop\n      pop\n      pop\n      pop\n      mload(0x40)\n      returndatasize\n      not(0x1f)\n      0x1f\n      dup3\n      add\n      and\n      dup3\n      add\n      dup1\n      0x40\n      mstore\n      pop\n      dup2\n      add\n      swap1\n      tag_285\n      swap2\n      swap1\n      tag_75\n      jump\t// in\n    tag_285:\n        /* \"zap/ZapUniV2.sol\":4709:4733  pair.token0() == tokenIn */\n      0xffffffffffffffffffffffffffffffffffffffff\n      and\n      eq\n        /* \"zap/ZapUniV2.sol\":4693:4733  bool isInputA = pair.token0() == tokenIn */\n      swap1\n      pop\n        /* \"zap/ZapUniV2.sol\":4751:4759  isInputA */\n      dup1\n        /* \"zap/ZapUniV2.sol\":4751:4787  isInputA || pair.token1() == tokenIn */\n      dup1\n      tag_286\n      jumpi\n      pop\n        /* \"zap/ZapUniV2.sol\":4780:4787  tokenIn */\n      dup6\n        /* \"zap/ZapUniV2.sol\":4763:4787  pair.token1() == tokenIn */\n      0xffffffffffffffffffffffffffffffffffffffff\n      and\n        /* \"zap/ZapUniV2.sol\":4763:4767  pair */\n      dup5\n        /* \"zap/ZapUniV2.sol\":4763:4774  pair.token1 */\n      0xffffffffffffffffffffffffffffffffffffffff\n      and\n      0xd21220a7\n        /* \"zap/ZapUniV2.sol\":4763:4776  pair.token1() */\n      mload(0x40)\n      dup2\n      0xffffffff\n      and\n      0xe0\n      shl\n      dup2\n      mstore\n      0x04\n      add\n      0x20\n      mload(0x40)\n      dup1\n      dup4\n      sub\n      dup2\n      dup7\n      dup1\n      extcodesize\n      iszero\n      dup1\n      iszero\n      tag_287\n      jumpi\n      0x00\n      dup1\n      revert\n    tag_287:\n      pop\n      gas\n      staticcall\n      iszero\n      dup1\n      iszero\n      tag_289\n      jumpi\n      returndatasize\n      0x00\n      dup1\n      returndatacopy\n      revert(0x00, returndatasize)\n    tag_289:\n      pop\n      pop\n      pop\n      pop\n      mload(0x40)\n      returndatasize\n      not(0x1f)\n      0x1f\n      dup3\n      add\n      and\n      dup3\n      add\n      dup1\n      0x40\n      mstore\n      pop\n      dup2\n      add\n      swap1\n      tag_290\n      swap2\n      swap1\n      tag_75\n      jump\t// in\n    tag_290:\n        /* \"zap/ZapUniV2.sol\":4763:4787  pair.token1() == tokenIn */\n      0xffffffffffffffffffffffffffffffffffffffff\n      and\n      eq\n        /* \"zap/ZapUniV2.sol\":4751:4787  isInputA || pair.token1() == tokenIn */\n    tag_286:\n        /* \"zap/ZapUniV2.sol\":4743:4838  require(isInputA || pair.token1() == tokenIn, 'Dyos: Input token not present in liqudity pair') */\n      tag_291\n      jumpi\n      mload(0x40)\n      0x08c379a000000000000000000000000000000000000000000000000000000000\n      dup2\n      mstore\n      0x04\n      add\n      tag_292\n      swap1\n      tag_83\n      jump\t// in\n    tag_292:\n      mload(0x40)\n      dup1\n      swap2\n      sub\n      swap1\n      revert\n    tag_291:\n        /* \"zap/ZapUniV2.sol\":4849:4870  address[] memory path */\n      0x00\n        /* \"zap/ZapUniV2.sol\":4887:4888  2 */\n      0x02\n        /* \"zap/ZapUniV2.sol\":4873:4889  new address[](2) */\n      0xffffffffffffffff\n      dup2\n      gt\n      iszero\n      tag_293\n      jumpi\n      tag_294\n      tag_164\n      jump\t// in\n    tag_294:\n    tag_293:\n      mload(0x40)\n      swap1\n      dup1\n      dup3\n      mstore\n      dup1\n      0x20\n      mul\n      0x20\n      add\n      dup3\n      add\n      0x40\n      mstore\n      dup1\n      iszero\n      tag_295\n      jumpi\n      dup2\n      0x20\n      add\n      0x20\n      dup3\n      mul\n      dup1\n      calldatasize\n      dup4\n      calldatacopy\n      dup1\n      dup3\n      add\n      swap2\n      pop\n      pop\n      swap1\n      pop\n    tag_295:\n      pop\n        /* \"zap/ZapUniV2.sol\":4849:4889  address[] memory path = new address[](2) */\n      swap1\n      pop\n        /* \"zap/ZapUniV2.sol\":4909:4916  tokenIn */\n      dup7\n        /* \"zap/ZapUniV2.sol\":4899:4903  path */\n      dup2\n        /* \"zap/ZapUniV2.sol\":4904:4905  0 */\n      0x00\n        /* \"zap/ZapUniV2.sol\":4899:4906  path[0] */\n      dup2\n      mload\n      dup2\n      lt\n      tag_296\n      jumpi\n      tag_297\n      tag_172\n      jump\t// in\n    tag_297:\n    tag_296:\n      0x20\n      mul\n      0x20\n      add\n      add\n        /* \"zap/ZapUniV2.sol\":4899:4916  path[0] = tokenIn */\n      swap1\n      0xffffffffffffffffffffffffffffffffffffffff\n      and\n      swap1\n      dup2\n      0xffffffffffffffffffffffffffffffffffffffff\n      and\n      dup2\n      mstore\n      pop\n      pop\n        /* \"zap/ZapUniV2.sol\":4936:4944  isInputA */\n      dup2\n        /* \"zap/ZapUniV2.sol\":4936:4976  isInputA ? pair.token1() : pair.token0() */\n      tag_298\n      jumpi\n        /* \"zap/ZapUniV2.sol\":4963:4967  pair */\n      dup5\n        /* \"zap/ZapUniV2.sol\":4963:4974  pair.token0 */\n      0xffffffffffffffffffffffffffffffffffffffff\n      and\n      0x0dfe1681\n        /* \"zap/ZapUniV2.sol\":4963:4976  pair.token0() */\n      mload(0x40)\n      dup2\n      0xffffffff\n      and\n      0xe0\n      shl\n      dup2\n      mstore\n      0x04\n      add\n      0x20\n      mload(0x40)\n      dup1\n      dup4\n      sub\n      dup2\n      dup7\n      dup1\n      extcodesize\n      iszero\n      dup1\n      iszero\n      tag_299\n      jumpi\n      0x00\n      dup1\n      revert\n    tag_299:\n      pop\n      gas\n      staticcall\n      iszero\n      dup1\n      iszero\n      tag_301\n      jumpi\n      returndatasize\n      0x00\n      dup1\n      returndatacopy\n      revert(0x00, returndatasize)\n    tag_301:\n      pop\n      pop\n      pop\n      pop\n      mload(0x40)\n      returndatasize\n      not(0x1f)\n      0x1f\n      dup3\n      add\n      and\n      dup3\n      add\n      dup1\n      0x40\n      mstore\n      pop\n      dup2\n      add\n      swap1\n      tag_302\n      swap2\n      swap1\n      tag_75\n      jump\t// in\n    tag_302:\n        /* \"zap/ZapUniV2.sol\":4936:4976  isInputA ? pair.token1() : pair.token0() */\n      jump(tag_303)\n    tag_298:\n        /* \"zap/ZapUniV2.sol\":4947:4951  pair */\n      dup5\n        /* \"zap/ZapUniV2.sol\":4947:4958  pair.token1 */\n      0xffffffffffffffffffffffffffffffffffffffff\n      and\n      0xd21220a7\n        /* \"zap/ZapUniV2.sol\":4947:4960  pair.token1() */\n      mload(0x40)\n      dup2\n      0xffffffff\n      and\n      0xe0\n      shl\n      dup2\n      mstore\n      0x04\n      add\n      0x20\n      mload(0x40)\n      dup1\n      dup4\n      sub\n      dup2\n      dup7\n      dup1\n      extcodesize\n      iszero\n      dup1\n      iszero\n      tag_304\n      jumpi\n      0x00\n      dup1\n      revert\n    tag_304:\n      pop\n      gas\n      staticcall\n      iszero\n      dup1\n      iszero\n      tag_306\n      jumpi\n      returndatasize\n      0x00\n      dup1\n      returndatacopy\n      revert(0x00, returndatasize)\n    tag_306:\n      pop\n      pop\n      pop\n      pop\n      mload(0x40)\n      returndatasize\n      not(0x1f)\n      0x1f\n      dup3\n      add\n      and\n      dup3\n      add\n      dup1\n      0x40\n      mstore\n      pop\n      dup2\n      add\n      swap1\n      tag_307\n      swap2\n      swap1\n      tag_75\n      jump\t// in\n    tag_307:\n        /* \"zap/ZapUniV2.sol\":4936:4976  isInputA ? pair.token1() : pair.token0() */\n    tag_303:\n        /* \"zap/ZapUniV2.sol\":4926:4930  path */\n      dup2\n        /* \"zap/ZapUniV2.sol\":4931:4932  1 */\n      0x01\n        /* \"zap/ZapUniV2.sol\":4926:4933  path[1] */\n      dup2\n      mload\n      dup2\n      lt\n      tag_308\n      jumpi\n      tag_309\n      tag_172\n      jump\t// in\n    tag_309:\n    tag_308:\n      0x20\n      mul\n      0x20\n      add\n      add\n        /* \"zap/ZapUniV2.sol\":4926:4976  path[1] = isInputA ? pair.token1() : pair.token0() */\n      swap1\n      0xffffffffffffffffffffffffffffffffffffffff\n      and\n      swap1\n      dup2\n      0xffffffffffffffffffffffffffffffffffffffff\n      and\n      dup2\n      mstore\n      pop\n      pop\n        /* \"zap/ZapUniV2.sol\":4987:5009  uint256 fullInvestment */\n      0x00\n        /* \"zap/ZapUniV2.sol\":5019:5026  tokenIn */\n      dup8\n        /* \"zap/ZapUniV2.sol\":5012:5037  IERC20(tokenIn).balanceOf */\n      0xffffffffffffffffffffffffffffffffffffffff\n      and\n      0x70a08231\n        /* \"zap/ZapUniV2.sol\":5046:5050  this */\n      address\n        /* \"zap/ZapUniV2.sol\":5012:5052  IERC20(tokenIn).balanceOf(address(this)) */\n      mload(0x40)\n      dup3\n      0xffffffff\n      and\n      0xe0\n      shl\n      dup2\n      mstore\n      0x04\n      add\n      tag_310\n      swap2\n      swap1\n      tag_44\n      jump\t// in\n    tag_310:\n      0x20\n      mload(0x40)\n      dup1\n      dup4\n      sub\n      dup2\n      dup7\n      dup1\n      extcodesize\n      iszero\n      dup1\n      iszero\n      tag_311\n      jumpi\n      0x00\n      dup1\n      revert\n    tag_311:\n      pop\n      gas\n      staticcall\n      iszero\n      dup1\n      iszero\n      tag_313\n      jumpi\n      returndatasize\n      0x00\n      dup1\n      returndatacopy\n      revert(0x00, returndatasize)\n    tag_313:\n      pop\n      pop\n      pop\n      pop\n      mload(0x40)\n      returndatasize\n      not(0x1f)\n      0x1f\n      dup3\n      add\n      and\n      dup3\n      add\n      dup1\n      0x40\n      mstore\n      pop\n      dup2\n      add\n      swap1\n      tag_314\n      swap2\n      swap1\n      tag_99\n      jump\t// in\n    tag_314:\n        /* \"zap/ZapUniV2.sol\":4987:5052  uint256 fullInvestment = IERC20(tokenIn).balanceOf(address(this)) */\n      swap1\n      pop\n        /* \"zap/ZapUniV2.sol\":5062:5082  uint256 swapAmountIn */\n      0x00\n        /* \"zap/ZapUniV2.sol\":5096:5104  isInputA */\n      dup4\n        /* \"zap/ZapUniV2.sol\":5092:5292  if (isInputA) {... */\n      iszero\n      tag_315\n      jumpi\n        /* \"zap/ZapUniV2.sol\":5135:5185  _getSwapAmount(fullInvestment, reserveA, reserveB) */\n      tag_316\n        /* \"zap/ZapUniV2.sol\":5150:5164  fullInvestment */\n      dup3\n        /* \"zap/ZapUniV2.sol\":5166:5174  reserveA */\n      dup8\n        /* \"zap/ZapUniV2.sol\":5176:5184  reserveB */\n      dup8\n        /* \"zap/ZapUniV2.sol\":5135:5149  _getSwapAmount */\n      tag_92\n        /* \"zap/ZapUniV2.sol\":5135:5185  _getSwapAmount(fullInvestment, reserveA, reserveB) */\n      jump\t// in\n    tag_316:\n        /* \"zap/ZapUniV2.sol\":5120:5185  swapAmountIn = _getSwapAmount(fullInvestment, reserveA, reserveB) */\n      swap1\n      pop\n        /* \"zap/ZapUniV2.sol\":5092:5292  if (isInputA) {... */\n      jump(tag_317)\n    tag_315:\n        /* \"zap/ZapUniV2.sol\":5231:5281  _getSwapAmount(fullInvestment, reserveB, reserveA) */\n      tag_318\n        /* \"zap/ZapUniV2.sol\":5246:5260  fullInvestment */\n      dup3\n        /* \"zap/ZapUniV2.sol\":5262:5270  reserveB */\n      dup7\n        /* \"zap/ZapUniV2.sol\":5272:5280  reserveA */\n      dup9\n        /* \"zap/ZapUniV2.sol\":5231:5245  _getSwapAmount */\n      tag_92\n        /* \"zap/ZapUniV2.sol\":5231:5281  _getSwapAmount(fullInvestment, reserveB, reserveA) */\n      jump\t// in\n    tag_318:\n        /* \"zap/ZapUniV2.sol\":5216:5281  swapAmountIn = _getSwapAmount(fullInvestment, reserveB, reserveA) */\n      swap1\n      pop\n        /* \"zap/ZapUniV2.sol\":5092:5292  if (isInputA) {... */\n    tag_317:\n        /* \"zap/ZapUniV2.sol\":5302:5349  _approveTokenIfNeeded(path[0], address(router)) */\n      tag_319\n        /* \"zap/ZapUniV2.sol\":5324:5328  path */\n      dup4\n        /* \"zap/ZapUniV2.sol\":5329:5330  0 */\n      0x00\n        /* \"zap/ZapUniV2.sol\":5324:5331  path[0] */\n      dup2\n      mload\n      dup2\n      lt\n      tag_320\n      jumpi\n      tag_321\n      tag_172\n      jump\t// in\n    tag_321:\n    tag_320:\n      0x20\n      mul\n      0x20\n      add\n      add\n      mload\n        /* \"zap/ZapUniV2.sol\":5341:5347  router */\n      immutable(\"0x9b210b267865dedfbeb7a86b51a05bc5eacedf2f38cba09998c3299230e560a6\")\n        /* \"zap/ZapUniV2.sol\":5302:5323  _approveTokenIfNeeded */\n      tag_213\n        /* \"zap/ZapUniV2.sol\":5302:5349  _approveTokenIfNeeded(path[0], address(router)) */\n      jump\t// in\n    tag_319:\n        /* \"zap/ZapUniV2.sol\":5359:5389  uint256[] memory swapedAmounts */\n      0x00\n        /* \"zap/ZapUniV2.sol\":5392:5398  router */\n      immutable(\"0x9b210b267865dedfbeb7a86b51a05bc5eacedf2f38cba09998c3299230e560a6\")\n        /* \"zap/ZapUniV2.sol\":5392:5436  router... */\n      0xffffffffffffffffffffffffffffffffffffffff\n      and\n      0x38ed1739\n        /* \"zap/ZapUniV2.sol\":5437:5449  swapAmountIn */\n      dup4\n        /* \"zap/ZapUniV2.sol\":5451:5468  tokenAmountOutMin */\n      dup14\n        /* \"zap/ZapUniV2.sol\":5470:5474  path */\n      dup8\n        /* \"zap/ZapUniV2.sol\":5484:5488  this */\n      address\n        /* \"zap/ZapUniV2.sol\":5491:5506  block.timestamp */\n      timestamp\n        /* \"zap/ZapUniV2.sol\":5392:5507  router... */\n      mload(0x40)\n      dup7\n      0xffffffff\n      and\n      0xe0\n      shl\n      dup2\n      mstore\n      0x04\n      add\n      tag_322\n      swap6\n      swap5\n      swap4\n      swap3\n      swap2\n      swap1\n      tag_220\n      jump\t// in\n    tag_322:\n      0x00\n      mload(0x40)\n      dup1\n      dup4\n      sub\n      dup2\n      0x00\n      dup8\n      dup1\n      extcodesize\n      iszero\n      dup1\n      iszero\n      tag_323\n      jumpi\n      0x00\n      dup1\n      revert\n    tag_323:\n      pop\n      gas\n      call\n      iszero\n      dup1\n      iszero\n      tag_325\n      jumpi\n      returndatasize\n      0x00\n      dup1\n      returndatacopy\n      revert(0x00, returndatasize)\n    tag_325:\n      pop\n      pop\n      pop\n      pop\n      mload(0x40)\n      returndatasize\n      0x00\n      dup3\n      returndatacopy\n      returndatasize\n      not(0x1f)\n      0x1f\n      dup3\n      add\n      and\n      dup3\n      add\n      dup1\n      0x40\n      mstore\n      pop\n      dup2\n      add\n      swap1\n      tag_326\n      swap2\n      swap1\n      tag_225\n      jump\t// in\n    tag_326:\n        /* \"zap/ZapUniV2.sol\":5359:5507  uint256[] memory swapedAmounts = router... */\n      swap1\n      pop\n        /* \"zap/ZapUniV2.sol\":5518:5565  _approveTokenIfNeeded(path[1], address(router)) */\n      tag_327\n        /* \"zap/ZapUniV2.sol\":5540:5544  path */\n      dup5\n        /* \"zap/ZapUniV2.sol\":5545:5546  1 */\n      0x01\n        /* \"zap/ZapUniV2.sol\":5540:5547  path[1] */\n      dup2\n      mload\n      dup2\n      lt\n      tag_328\n      jumpi\n      tag_329\n      tag_172\n      jump\t// in\n    tag_329:\n    tag_328:\n      0x20\n      mul\n      0x20\n      add\n      add\n      mload\n        /* \"zap/ZapUniV2.sol\":5557:5563  router */\n      immutable(\"0x9b210b267865dedfbeb7a86b51a05bc5eacedf2f38cba09998c3299230e560a6\")\n        /* \"zap/ZapUniV2.sol\":5518:5539  _approveTokenIfNeeded */\n      tag_213\n        /* \"zap/ZapUniV2.sol\":5518:5565  _approveTokenIfNeeded(path[1], address(router)) */\n      jump\t// in\n    tag_327:\n        /* \"zap/ZapUniV2.sol\":5579:5602  uint256 amountLiquidity */\n      0x00\n        /* \"zap/ZapUniV2.sol\":5606:5612  router */\n      immutable(\"0x9b210b267865dedfbeb7a86b51a05bc5eacedf2f38cba09998c3299230e560a6\")\n        /* \"zap/ZapUniV2.sol\":5606:5638  router... */\n      0xffffffffffffffffffffffffffffffffffffffff\n      and\n      0xe8e33700\n        /* \"zap/ZapUniV2.sol\":5639:5643  path */\n      dup7\n        /* \"zap/ZapUniV2.sol\":5644:5645  0 */\n      0x00\n        /* \"zap/ZapUniV2.sol\":5639:5646  path[0] */\n      dup2\n      mload\n      dup2\n      lt\n      tag_330\n      jumpi\n      tag_331\n      tag_172\n      jump\t// in\n    tag_331:\n    tag_330:\n      0x20\n      mul\n      0x20\n      add\n      add\n      mload\n        /* \"zap/ZapUniV2.sol\":5648:5652  path */\n      dup8\n        /* \"zap/ZapUniV2.sol\":5653:5654  1 */\n      0x01\n        /* \"zap/ZapUniV2.sol\":5648:5655  path[1] */\n      dup2\n      mload\n      dup2\n      lt\n      tag_332\n      jumpi\n      tag_333\n      tag_172\n      jump\t// in\n    tag_333:\n    tag_332:\n      0x20\n      mul\n      0x20\n      add\n      add\n      mload\n        /* \"zap/ZapUniV2.sol\":5657:5693  fullInvestment.sub(swapedAmounts[0]) */\n      tag_334\n        /* \"zap/ZapUniV2.sol\":5676:5689  swapedAmounts */\n      dup7\n        /* \"zap/ZapUniV2.sol\":5690:5691  0 */\n      0x00\n        /* \"zap/ZapUniV2.sol\":5676:5692  swapedAmounts[0] */\n      dup2\n      mload\n      dup2\n      lt\n      tag_335\n      jumpi\n      tag_336\n      tag_172\n      jump\t// in\n    tag_336:\n    tag_335:\n      0x20\n      mul\n      0x20\n      add\n      add\n      mload\n        /* \"zap/ZapUniV2.sol\":5657:5671  fullInvestment */\n      dup10\n        /* \"zap/ZapUniV2.sol\":5657:5675  fullInvestment.sub */\n      tag_254\n      swap1\n        /* \"zap/ZapUniV2.sol\":5657:5693  fullInvestment.sub(swapedAmounts[0]) */\n      swap2\n      swap1\n      0xffffffff\n      and\n      jump\t// in\n    tag_334:\n        /* \"zap/ZapUniV2.sol\":5695:5708  swapedAmounts */\n      dup7\n        /* \"zap/ZapUniV2.sol\":5709:5710  1 */\n      0x01\n        /* \"zap/ZapUniV2.sol\":5695:5711  swapedAmounts[1] */\n      dup2\n      mload\n      dup2\n      lt\n      tag_337\n      jumpi\n      tag_338\n      tag_172\n      jump\t// in\n    tag_338:\n    tag_337:\n      0x20\n      mul\n      0x20\n      add\n      add\n      mload\n        /* \"zap/ZapUniV2.sol\":5713:5714  1 */\n      0x01\n        /* \"zap/ZapUniV2.sol\":5716:5717  1 */\n      dup1\n        /* \"zap/ZapUniV2.sol\":5727:5731  this */\n      address\n        /* \"zap/ZapUniV2.sol\":5734:5749  block.timestamp */\n      timestamp\n        /* \"zap/ZapUniV2.sol\":5606:5750  router... */\n      mload(0x40)\n      dup10\n      0xffffffff\n      and\n      0xe0\n      shl\n      dup2\n      mstore\n      0x04\n      add\n      tag_339\n      swap9\n      swap8\n      swap7\n      swap6\n      swap5\n      swap4\n      swap3\n      swap2\n      swap1\n      tag_340\n      jump\t// in\n    tag_339:\n      0x60\n      mload(0x40)\n      dup1\n      dup4\n      sub\n      dup2\n      0x00\n      dup8\n      dup1\n      extcodesize\n      iszero\n      dup1\n      iszero\n      tag_341\n      jumpi\n      0x00\n      dup1\n      revert\n    tag_341:\n      pop\n      gas\n      call\n      iszero\n      dup1\n      iszero\n      tag_343\n      jumpi\n      returndatasize\n      0x00\n      dup1\n      returndatacopy\n      revert(0x00, returndatasize)\n    tag_343:\n      pop\n      pop\n      pop\n      pop\n      mload(0x40)\n      returndatasize\n      not(0x1f)\n      0x1f\n      dup3\n      add\n      and\n      dup3\n      add\n      dup1\n      0x40\n      mstore\n      pop\n      dup2\n      add\n      swap1\n      tag_344\n      swap2\n      swap1\n      tag_345\n      jump\t// in\n    tag_344:\n        /* \"zap/ZapUniV2.sol\":5575:5750  (,, uint256 amountLiquidity) = router... */\n      swap3\n      pop\n      pop\n      pop\n        /* \"zap/ZapUniV2.sol\":5761:5813  _approveTokenIfNeeded(address(pair), address(vault)) */\n      tag_346\n        /* \"zap/ZapUniV2.sol\":5791:5795  pair */\n      dup10\n        /* \"zap/ZapUniV2.sol\":5806:5811  vault */\n      dup12\n        /* \"zap/ZapUniV2.sol\":5761:5782  _approveTokenIfNeeded */\n      tag_213\n        /* \"zap/ZapUniV2.sol\":5761:5813  _approveTokenIfNeeded(address(pair), address(vault)) */\n      jump\t// in\n    tag_346:\n        /* \"zap/ZapUniV2.sol\":5823:5828  vault */\n      dup10\n        /* \"zap/ZapUniV2.sol\":5823:5836  vault.deposit */\n      0xffffffffffffffffffffffffffffffffffffffff\n      and\n      0xb6b55f25\n        /* \"zap/ZapUniV2.sol\":5837:5852  amountLiquidity */\n      dup3\n        /* \"zap/ZapUniV2.sol\":5823:5853  vault.deposit(amountLiquidity) */\n      mload(0x40)\n      dup3\n      0xffffffff\n      and\n      0xe0\n      shl\n      dup2\n      mstore\n      0x04\n      add\n      tag_347\n      swap2\n      swap1\n      tag_49\n      jump\t// in\n    tag_347:\n      0x00\n      mload(0x40)\n      dup1\n      dup4\n      sub\n      dup2\n      0x00\n      dup8\n      dup1\n      extcodesize\n      iszero\n      dup1\n      iszero\n      tag_348\n      jumpi\n      0x00\n      dup1\n      revert\n    tag_348:\n      pop\n      gas\n      call\n      iszero\n      dup1\n      iszero\n      tag_350\n      jumpi\n      returndatasize\n      0x00\n      dup1\n      returndatacopy\n      revert(0x00, returndatasize)\n    tag_350:\n      pop\n      pop\n      pop\n      pop\n        /* \"zap/ZapUniV2.sol\":5864:5926  vault.safeTransfer(msg.sender, vault.balanceOf(address(this))) */\n      tag_351\n        /* \"zap/ZapUniV2.sol\":5883:5893  msg.sender */\n      caller\n        /* \"zap/ZapUniV2.sol\":5895:5900  vault */\n      dup12\n        /* \"zap/ZapUniV2.sol\":5895:5910  vault.balanceOf */\n      0xffffffffffffffffffffffffffffffffffffffff\n      and\n      0x70a08231\n        /* \"zap/ZapUniV2.sol\":5919:5923  this */\n      address\n        /* \"zap/ZapUniV2.sol\":5895:5925  vault.balanceOf(address(this)) */\n      mload(0x40)\n      dup3\n      0xffffffff\n      and\n      0xe0\n      shl\n      dup2\n      mstore\n      0x04\n      add\n      tag_352\n      swap2\n      swap1\n      tag_44\n      jump\t// in\n    tag_352:\n      0x20\n      mload(0x40)\n      dup1\n      dup4\n      sub\n      dup2\n      dup7\n      dup1\n      extcodesize\n      iszero\n      dup1\n      iszero\n      tag_353\n      jumpi\n      0x00\n      dup1\n      revert\n    tag_353:\n      pop\n      gas\n      staticcall\n      iszero\n      dup1\n      iszero\n      tag_355\n      jumpi\n      returndatasize\n      0x00\n      dup1\n      returndatacopy\n      revert(0x00, returndatasize)\n    tag_355:\n      pop\n      pop\n      pop\n      pop\n      mload(0x40)\n      returndatasize\n      not(0x1f)\n      0x1f\n      dup3\n      add\n      and\n      dup3\n      add\n      dup1\n      0x40\n      mstore\n      pop\n      dup2\n      add\n      swap1\n      tag_356\n      swap2\n      swap1\n      tag_99\n      jump\t// in\n    tag_356:\n        /* \"zap/ZapUniV2.sol\":5864:5869  vault */\n      dup13\n        /* \"zap/ZapUniV2.sol\":5864:5882  vault.safeTransfer */\n      0xffffffffffffffffffffffffffffffffffffffff\n      and\n      tag_357\n      swap1\n        /* \"zap/ZapUniV2.sol\":5864:5926  vault.safeTransfer(msg.sender, vault.balanceOf(address(this))) */\n      swap3\n      swap2\n      swap1\n      0xffffffff\n      and\n      jump\t// in\n    tag_351:\n        /* \"zap/ZapUniV2.sol\":5936:5955  _returnAssets(path) */\n      tag_358\n        /* \"zap/ZapUniV2.sol\":5950:5954  path */\n      dup6\n        /* \"zap/ZapUniV2.sol\":5936:5949  _returnAssets */\n      tag_180\n        /* \"zap/ZapUniV2.sol\":5936:5955  _returnAssets(path) */\n      jump\t// in\n    tag_358:\n        /* \"zap/ZapUniV2.sol\":4429:5962  {... */\n      pop\n      pop\n      pop\n      pop\n      pop\n      pop\n      pop\n      pop\n      pop\n      pop\n        /* \"zap/ZapUniV2.sol\":4335:5962  function _swapAndStake(address dyosVault, uint256 tokenAmountOutMin, address tokenIn) private {... */\n      pop\n      pop\n      pop\n      jump\t// out\n        /* \"zap/ZapUniV2.sol\":3645:4038  function _removeLiqudity(address pair, address to) private {... */\n    tag_160:\n        /* \"zap/ZapUniV2.sol\":3714:3784  IERC20(pair).safeTransfer(pair, IERC20(pair).balanceOf(address(this))) */\n      tag_360\n        /* \"zap/ZapUniV2.sol\":3740:3744  pair */\n      dup3\n        /* \"zap/ZapUniV2.sol\":3753:3757  pair */\n      dup4\n        /* \"zap/ZapUniV2.sol\":3746:3768  IERC20(pair).balanceOf */\n      0xffffffffffffffffffffffffffffffffffffffff\n      and\n      0x70a08231\n        /* \"zap/ZapUniV2.sol\":3777:3781  this */\n      address\n        /* \"zap/ZapUniV2.sol\":3746:3783  IERC20(pair).balanceOf(address(this)) */\n      mload(0x40)\n      dup3\n      0xffffffff\n      and\n      0xe0\n      shl\n      dup2\n      mstore\n      0x04\n      add\n      tag_361\n      swap2\n      swap1\n      tag_44\n      jump\t// in\n    tag_361:\n      0x20\n      mload(0x40)\n      dup1\n      dup4\n      sub\n      dup2\n      dup7\n      dup1\n      extcodesize\n      iszero\n      dup1\n      iszero\n      tag_362\n      jumpi\n      0x00\n      dup1\n      revert\n    tag_362:\n      pop\n      gas\n      staticcall\n      iszero\n      dup1\n      iszero\n      tag_364\n      jumpi\n      returndatasize\n      0x00\n      dup1\n      returndatacopy\n      revert(0x00, returndatasize)\n    tag_364:\n      pop\n      pop\n      pop\n      pop\n      mload(0x40)\n      returndatasize\n      not(0x1f)\n      0x1f\n      dup3\n      add\n      and\n      dup3\n      add\n      dup1\n      0x40\n      mstore\n      pop\n      dup2\n      add\n      swap1\n      tag_365\n      swap2\n      swap1\n      tag_99\n      jump\t// in\n    tag_365:\n        /* \"zap/ZapUniV2.sol\":3721:3725  pair */\n      dup5\n        /* \"zap/ZapUniV2.sol\":3714:3739  IERC20(pair).safeTransfer */\n      0xffffffffffffffffffffffffffffffffffffffff\n      and\n      tag_357\n      swap1\n        /* \"zap/ZapUniV2.sol\":3714:3784  IERC20(pair).safeTransfer(pair, IERC20(pair).balanceOf(address(this))) */\n      swap3\n      swap2\n      swap1\n      0xffffffff\n      and\n      jump\t// in\n    tag_360:\n        /* \"zap/ZapUniV2.sol\":3795:3810  uint256 amount0 */\n      0x00\n        /* \"zap/ZapUniV2.sol\":3812:3827  uint256 amount1 */\n      dup1\n        /* \"zap/ZapUniV2.sol\":3846:3850  pair */\n      dup4\n        /* \"zap/ZapUniV2.sol\":3831:3856  IUniswapV2Pair(pair).burn */\n      0xffffffffffffffffffffffffffffffffffffffff\n      and\n      0x89afcb44\n        /* \"zap/ZapUniV2.sol\":3857:3859  to */\n      dup5\n        /* \"zap/ZapUniV2.sol\":3831:3860  IUniswapV2Pair(pair).burn(to) */\n      mload(0x40)\n      dup3\n      0xffffffff\n      and\n      0xe0\n      shl\n      dup2\n      mstore\n      0x04\n      add\n      tag_366\n      swap2\n      swap1\n      tag_44\n      jump\t// in\n    tag_366:\n      0x40\n      dup1\n      mload\n      dup1\n      dup4\n      sub\n      dup2\n      0x00\n      dup8\n      dup1\n      extcodesize\n      iszero\n      dup1\n      iszero\n      tag_367\n      jumpi\n      0x00\n      dup1\n      revert\n    tag_367:\n      pop\n      gas\n      call\n      iszero\n      dup1\n      iszero\n      tag_369\n      jumpi\n      returndatasize\n      0x00\n      dup1\n      returndatacopy\n      revert(0x00, returndatasize)\n    tag_369:\n      pop\n      pop\n      pop\n      pop\n      mload(0x40)\n      returndatasize\n      not(0x1f)\n      0x1f\n      dup3\n      add\n      and\n      dup3\n      add\n      dup1\n      0x40\n      mstore\n      pop\n      dup2\n      add\n      swap1\n      tag_370\n      swap2\n      swap1\n      tag_371\n      jump\t// in\n    tag_370:\n        /* \"zap/ZapUniV2.sol\":3794:3860  (uint256 amount0, uint256 amount1) = IUniswapV2Pair(pair).burn(to) */\n      swap2\n      pop\n      swap2\n      pop\n        /* \"zap/ZapUniV2.sol\":1006:1010  1000 */\n      0x03e8\n        /* \"zap/ZapUniV2.sol\":3879:3886  amount0 */\n      dup3\n        /* \"zap/ZapUniV2.sol\":3879:3903  amount0 >= minimumAmount */\n      lt\n      iszero\n        /* \"zap/ZapUniV2.sol\":3871:3946  require(amount0 >= minimumAmount, 'UniswapV2Router: INSUFFICIENT_A_AMOUNT') */\n      tag_372\n      jumpi\n      mload(0x40)\n      0x08c379a000000000000000000000000000000000000000000000000000000000\n      dup2\n      mstore\n      0x04\n      add\n      tag_373\n      swap1\n      tag_374\n      jump\t// in\n    tag_373:\n      mload(0x40)\n      dup1\n      swap2\n      sub\n      swap1\n      revert\n    tag_372:\n        /* \"zap/ZapUniV2.sol\":1006:1010  1000 */\n      0x03e8\n        /* \"zap/ZapUniV2.sol\":3964:3971  amount1 */\n      dup2\n        /* \"zap/ZapUniV2.sol\":3964:3988  amount1 >= minimumAmount */\n      lt\n      iszero\n        /* \"zap/ZapUniV2.sol\":3956:4031  require(amount1 >= minimumAmount, 'UniswapV2Router: INSUFFICIENT_B_AMOUNT') */\n      tag_375\n      jumpi\n      mload(0x40)\n      0x08c379a000000000000000000000000000000000000000000000000000000000\n      dup2\n      mstore\n      0x04\n      add\n      tag_376\n      swap1\n      tag_377\n      jump\t// in\n    tag_376:\n      mload(0x40)\n      dup1\n      swap2\n      sub\n      swap1\n      revert\n    tag_375:\n        /* \"zap/ZapUniV2.sol\":3704:4038  {... */\n      pop\n      pop\n        /* \"zap/ZapUniV2.sol\":3645:4038  function _removeLiqudity(address pair, address to) private {... */\n      pop\n      pop\n      jump\t// out\n        /* \"zap/ZapUniV2.sol\":5968:6588  function _returnAssets(address[] memory tokens) private {... */\n    tag_180:\n        /* \"zap/ZapUniV2.sol\":6034:6049  uint256 balance */\n      0x00\n        /* \"zap/ZapUniV2.sol\":6064:6073  uint256 i */\n      dup1\n        /* \"zap/ZapUniV2.sol\":6059:6582  for (uint256 i; i < tokens.length; i++) {... */\n    tag_379:\n        /* \"zap/ZapUniV2.sol\":6079:6085  tokens */\n      dup3\n        /* \"zap/ZapUniV2.sol\":6079:6092  tokens.length */\n      mload\n        /* \"zap/ZapUniV2.sol\":6075:6076  i */\n      dup2\n        /* \"zap/ZapUniV2.sol\":6075:6092  i < tokens.length */\n      lt\n        /* \"zap/ZapUniV2.sol\":6059:6582  for (uint256 i; i < tokens.length; i++) {... */\n      iszero\n      tag_380\n      jumpi\n        /* \"zap/ZapUniV2.sol\":6130:6136  tokens */\n      dup3\n        /* \"zap/ZapUniV2.sol\":6137:6138  i */\n      dup2\n        /* \"zap/ZapUniV2.sol\":6130:6139  tokens[i] */\n      dup2\n      mload\n      dup2\n      lt\n      tag_382\n      jumpi\n      tag_383\n      tag_172\n      jump\t// in\n    tag_383:\n    tag_382:\n      0x20\n      mul\n      0x20\n      add\n      add\n      mload\n        /* \"zap/ZapUniV2.sol\":6123:6150  IERC20(tokens[i]).balanceOf */\n      0xffffffffffffffffffffffffffffffffffffffff\n      and\n      0x70a08231\n        /* \"zap/ZapUniV2.sol\":6159:6163  this */\n      address\n        /* \"zap/ZapUniV2.sol\":6123:6165  IERC20(tokens[i]).balanceOf(address(this)) */\n      mload(0x40)\n      dup3\n      0xffffffff\n      and\n      0xe0\n      shl\n      dup2\n      mstore\n      0x04\n      add\n      tag_384\n      swap2\n      swap1\n      tag_44\n      jump\t// in\n    tag_384:\n      0x20\n      mload(0x40)\n      dup1\n      dup4\n      sub\n      dup2\n      dup7\n      dup1\n      extcodesize\n      iszero\n      dup1\n      iszero\n      tag_385\n      jumpi\n      0x00\n      dup1\n      revert\n    tag_385:\n      pop\n      gas\n      staticcall\n      iszero\n      dup1\n      iszero\n      tag_387\n      jumpi\n      returndatasize\n      0x00\n      dup1\n      returndatacopy\n      revert(0x00, returndatasize)\n    tag_387:\n      pop\n      pop\n      pop\n      pop\n      mload(0x40)\n      returndatasize\n      not(0x1f)\n      0x1f\n      dup3\n      add\n      and\n      dup3\n      add\n      dup1\n      0x40\n      mstore\n      pop\n      dup2\n      add\n      swap1\n      tag_388\n      swap2\n      swap1\n      tag_99\n      jump\t// in\n    tag_388:\n        /* \"zap/ZapUniV2.sol\":6113:6165  balance = IERC20(tokens[i]).balanceOf(address(this)) */\n      swap2\n      pop\n        /* \"zap/ZapUniV2.sol\":6193:6194  0 */\n      0x00\n        /* \"zap/ZapUniV2.sol\":6183:6190  balance */\n      dup3\n        /* \"zap/ZapUniV2.sol\":6183:6194  balance > 0 */\n      gt\n        /* \"zap/ZapUniV2.sol\":6179:6572  if (balance > 0) {... */\n      iszero\n      tag_389\n      jumpi\n        /* \"zap/ZapUniV2.sol\":6231:6235  WETH */\n      immutable(\"0x974fa91be4a01ae658ab2b81485f950cb5053a0ea0c508a8c0eab1d35bd483b6\")\n        /* \"zap/ZapUniV2.sol\":6218:6235  tokens[i] == WETH */\n      0xffffffffffffffffffffffffffffffffffffffff\n      and\n        /* \"zap/ZapUniV2.sol\":6218:6224  tokens */\n      dup4\n        /* \"zap/ZapUniV2.sol\":6225:6226  i */\n      dup3\n        /* \"zap/ZapUniV2.sol\":6218:6227  tokens[i] */\n      dup2\n      mload\n      dup2\n      lt\n      tag_390\n      jumpi\n      tag_391\n      tag_172\n      jump\t// in\n    tag_391:\n    tag_390:\n      0x20\n      mul\n      0x20\n      add\n      add\n      mload\n        /* \"zap/ZapUniV2.sol\":6218:6235  tokens[i] == WETH */\n      0xffffffffffffffffffffffffffffffffffffffff\n      and\n      eq\n        /* \"zap/ZapUniV2.sol\":6214:6558  if (tokens[i] == WETH) {... */\n      iszero\n      tag_392\n      jumpi\n        /* \"zap/ZapUniV2.sol\":6265:6269  WETH */\n      immutable(\"0x974fa91be4a01ae658ab2b81485f950cb5053a0ea0c508a8c0eab1d35bd483b6\")\n        /* \"zap/ZapUniV2.sol\":6259:6279  IWETH(WETH).withdraw */\n      0xffffffffffffffffffffffffffffffffffffffff\n      and\n      0x2e1a7d4d\n        /* \"zap/ZapUniV2.sol\":6280:6287  balance */\n      dup4\n        /* \"zap/ZapUniV2.sol\":6259:6288  IWETH(WETH).withdraw(balance) */\n      mload(0x40)\n      dup3\n      0xffffffff\n      and\n      0xe0\n      shl\n      dup2\n      mstore\n      0x04\n      add\n      tag_393\n      swap2\n      swap1\n      tag_49\n      jump\t// in\n    tag_393:\n      0x00\n      mload(0x40)\n      dup1\n      dup4\n      sub\n      dup2\n      0x00\n      dup8\n      dup1\n      extcodesize\n      iszero\n      dup1\n      iszero\n      tag_394\n      jumpi\n      0x00\n      dup1\n      revert\n    tag_394:\n      pop\n      gas\n      call\n      iszero\n      dup1\n      iszero\n      tag_396\n      jumpi\n      returndatasize\n      0x00\n      dup1\n      returndatacopy\n      revert(0x00, returndatasize)\n    tag_396:\n      pop\n      pop\n      pop\n      pop\n        /* \"zap/ZapUniV2.sol\":6311:6323  bool success */\n      0x00\n        /* \"zap/ZapUniV2.sol\":6328:6338  msg.sender */\n      caller\n        /* \"zap/ZapUniV2.sol\":6328:6343  msg.sender.call */\n      0xffffffffffffffffffffffffffffffffffffffff\n      and\n        /* \"zap/ZapUniV2.sol\":6351:6358  balance */\n      dup4\n        /* \"zap/ZapUniV2.sol\":6370:6371  0 */\n      0x00\n        /* \"zap/ZapUniV2.sol\":6360:6372  new bytes(0) */\n      0xffffffffffffffff\n      dup2\n      gt\n      iszero\n      tag_397\n      jumpi\n      tag_398\n      tag_164\n      jump\t// in\n    tag_398:\n    tag_397:\n      mload(0x40)\n      swap1\n      dup1\n      dup3\n      mstore\n      dup1\n      0x1f\n      add\n      not(0x1f)\n      and\n      0x20\n      add\n      dup3\n      add\n      0x40\n      mstore\n      dup1\n      iszero\n      tag_399\n      jumpi\n      dup2\n      0x20\n      add\n      0x01\n      dup3\n      mul\n      dup1\n      calldatasize\n      dup4\n      calldatacopy\n      dup1\n      dup3\n      add\n      swap2\n      pop\n      pop\n      swap1\n      pop\n    tag_399:\n      pop\n        /* \"zap/ZapUniV2.sol\":6328:6373  msg.sender.call{value: balance}(new bytes(0)) */\n      mload(0x40)\n      tag_400\n      swap2\n      swap1\n      tag_401\n      jump\t// in\n    tag_400:\n      0x00\n      mload(0x40)\n      dup1\n      dup4\n      sub\n      dup2\n      dup6\n      dup8\n      gas\n      call\n      swap3\n      pop\n      pop\n      pop\n      returndatasize\n      dup1\n      0x00\n      dup2\n      eq\n      tag_404\n      jumpi\n      mload(0x40)\n      swap2\n      pop\n      and(add(returndatasize, 0x3f), not(0x1f))\n      dup3\n      add\n      0x40\n      mstore\n      returndatasize\n      dup3\n      mstore\n      returndatasize\n      0x00\n      0x20\n      dup5\n      add\n      returndatacopy\n      jump(tag_403)\n    tag_404:\n      0x60\n      swap2\n      pop\n    tag_403:\n      pop\n        /* \"zap/ZapUniV2.sol\":6310:6373  (bool success,) = msg.sender.call{value: balance}(new bytes(0)) */\n      pop\n      swap1\n      pop\n        /* \"zap/ZapUniV2.sol\":6403:6410  success */\n      dup1\n        /* \"zap/ZapUniV2.sol\":6395:6441  require(success, 'Beefy: ETH transfer failed') */\n      tag_405\n      jumpi\n      mload(0x40)\n      0x08c379a000000000000000000000000000000000000000000000000000000000\n      dup2\n      mstore\n      0x04\n      add\n      tag_406\n      swap1\n      tag_407\n      jump\t// in\n    tag_406:\n      mload(0x40)\n      dup1\n      swap2\n      sub\n      swap1\n      revert\n    tag_405:\n        /* \"zap/ZapUniV2.sol\":6237:6460  {... */\n      pop\n        /* \"zap/ZapUniV2.sol\":6214:6558  if (tokens[i] == WETH) {... */\n      jump(tag_408)\n    tag_392:\n        /* \"zap/ZapUniV2.sol\":6488:6539  IERC20(tokens[i]).safeTransfer(msg.sender, balance) */\n      tag_409\n        /* \"zap/ZapUniV2.sol\":6519:6529  msg.sender */\n      caller\n        /* \"zap/ZapUniV2.sol\":6531:6538  balance */\n      dup4\n        /* \"zap/ZapUniV2.sol\":6495:6501  tokens */\n      dup6\n        /* \"zap/ZapUniV2.sol\":6502:6503  i */\n      dup5\n        /* \"zap/ZapUniV2.sol\":6495:6504  tokens[i] */\n      dup2\n      mload\n      dup2\n      lt\n      tag_410\n      jumpi\n      tag_411\n      tag_172\n      jump\t// in\n    tag_411:\n    tag_410:\n      0x20\n      mul\n      0x20\n      add\n      add\n      mload\n        /* \"zap/ZapUniV2.sol\":6488:6518  IERC20(tokens[i]).safeTransfer */\n      0xffffffffffffffffffffffffffffffffffffffff\n      and\n      tag_357\n      swap1\n        /* \"zap/ZapUniV2.sol\":6488:6539  IERC20(tokens[i]).safeTransfer(msg.sender, balance) */\n      swap3\n      swap2\n      swap1\n      0xffffffff\n      and\n      jump\t// in\n    tag_409:\n        /* \"zap/ZapUniV2.sol\":6214:6558  if (tokens[i] == WETH) {... */\n    tag_408:\n        /* \"zap/ZapUniV2.sol\":6179:6572  if (balance > 0) {... */\n    tag_389:\n        /* \"zap/ZapUniV2.sol\":6094:6097  i++ */\n      dup1\n      dup1\n      tag_412\n      swap1\n      tag_413\n      jump\t// in\n    tag_412:\n      swap2\n      pop\n      pop\n        /* \"zap/ZapUniV2.sol\":6059:6582  for (uint256 i; i < tokens.length; i++) {... */\n      jump(tag_379)\n    tag_380:\n      pop\n        /* \"zap/ZapUniV2.sol\":6024:6588  {... */\n      pop\n        /* \"zap/ZapUniV2.sol\":5968:6588  function _returnAssets(address[] memory tokens) private {... */\n      pop\n      jump\t// out\n        /* \"zap/ZapUniV2.sol\":8078:8298  function _approveTokenIfNeeded(address token, address spender) private {... */\n    tag_213:\n        /* \"zap/ZapUniV2.sol\":8214:8215  0 */\n      0x00\n        /* \"zap/ZapUniV2.sol\":8170:8175  token */\n      dup3\n        /* \"zap/ZapUniV2.sol\":8163:8186  IERC20(token).allowance */\n      0xffffffffffffffffffffffffffffffffffffffff\n      and\n      0xdd62ed3e\n        /* \"zap/ZapUniV2.sol\":8195:8199  this */\n      address\n        /* \"zap/ZapUniV2.sol\":8202:8209  spender */\n      dup5\n        /* \"zap/ZapUniV2.sol\":8163:8210  IERC20(token).allowance(address(this), spender) */\n      mload(0x40)\n      dup4\n      0xffffffff\n      and\n      0xe0\n      shl\n      dup2\n      mstore\n      0x04\n      add\n      tag_415\n      swap3\n      swap2\n      swap1\n      tag_115\n      jump\t// in\n    tag_415:\n      0x20\n      mload(0x40)\n      dup1\n      dup4\n      sub\n      dup2\n      dup7\n      dup1\n      extcodesize\n      iszero\n      dup1\n      iszero\n      tag_416\n      jumpi\n      0x00\n      dup1\n      revert\n    tag_416:\n      pop\n      gas\n      staticcall\n      iszero\n      dup1\n      iszero\n      tag_418\n      jumpi\n      returndatasize\n      0x00\n      dup1\n      returndatacopy\n      revert(0x00, returndatasize)\n    tag_418:\n      pop\n      pop\n      pop\n      pop\n      mload(0x40)\n      returndatasize\n      not(0x1f)\n      0x1f\n      dup3\n      add\n      and\n      dup3\n      add\n      dup1\n      0x40\n      mstore\n      pop\n      dup2\n      add\n      swap1\n      tag_419\n      swap2\n      swap1\n      tag_99\n      jump\t// in\n    tag_419:\n        /* \"zap/ZapUniV2.sol\":8163:8215  IERC20(token).allowance(address(this), spender) == 0 */\n      eq\n        /* \"zap/ZapUniV2.sol\":8159:8292  if (IERC20(token).allowance(address(this), spender) == 0) {... */\n      iszero\n      tag_420\n      jumpi\n        /* \"zap/ZapUniV2.sol\":8231:8281  IERC20(token).safeApprove(spender, type(uint).max) */\n      tag_421\n        /* \"zap/ZapUniV2.sol\":8257:8264  spender */\n      dup2\n        /* \"zap/ZapUniV2.sol\":8266:8280  type(uint).max */\n      0xffffffffffffffffffffffffffffffffffffffffffffffffffffffffffffffff\n        /* \"zap/ZapUniV2.sol\":8238:8243  token */\n      dup5\n        /* \"zap/ZapUniV2.sol\":8231:8256  IERC20(token).safeApprove */\n      0xffffffffffffffffffffffffffffffffffffffff\n      and\n      tag_422\n      swap1\n        /* \"zap/ZapUniV2.sol\":8231:8281  IERC20(token).safeApprove(spender, type(uint).max) */\n      swap3\n      swap2\n      swap1\n      0xffffffff\n      and\n      jump\t// in\n    tag_421:\n        /* \"zap/ZapUniV2.sol\":8159:8292  if (IERC20(token).allowance(address(this), spender) == 0) {... */\n    tag_420:\n        /* \"zap/ZapUniV2.sol\":8078:8298  function _approveTokenIfNeeded(address token, address spender) private {... */\n      pop\n      pop\n      jump\t// out\n        /* \"@uniswap/v3-core/contracts/libraries/LowGasSafeMath.sol\":435:546  function add(uint256 x, uint256 y) internal pure returns (uint256 z) {... */\n    tag_252:\n        /* \"@uniswap/v3-core/contracts/libraries/LowGasSafeMath.sol\":493:502  uint256 z */\n      0x00\n        /* \"@uniswap/v3-core/contracts/libraries/LowGasSafeMath.sol\":537:538  x */\n      dup3\n        /* \"@uniswap/v3-core/contracts/libraries/LowGasSafeMath.sol\":531:532  y */\n      dup3\n        /* \"@uniswap/v3-core/contracts/libraries/LowGasSafeMath.sol\":527:528  x */\n      dup5\n        /* \"@uniswap/v3-core/contracts/libraries/LowGasSafeMath.sol\":527:532  x + y */\n      tag_424\n      swap2\n      swap1\n      tag_425\n      jump\t// in\n    tag_424:\n        /* \"@uniswap/v3-core/contracts/libraries/LowGasSafeMath.sol\":523:532  z = x + y */\n      swap2\n      pop\n      dup2\n        /* \"@uniswap/v3-core/contracts/libraries/LowGasSafeMath.sol\":522:538  (z = x + y) >= x */\n      lt\n      iszero\n        /* \"@uniswap/v3-core/contracts/libraries/LowGasSafeMath.sol\":514:539  require((z = x + y) >= x) */\n      tag_426\n      jumpi\n      0x00\n      dup1\n      revert\n    tag_426:\n        /* \"@uniswap/v3-core/contracts/libraries/LowGasSafeMath.sol\":435:546  function add(uint256 x, uint256 y) internal pure returns (uint256 z) {... */\n      swap3\n      swap2\n      pop\n      pop\n      jump\t// out\n        /* \"@uniswap/v3-core/contracts/libraries/LowGasSafeMath.sol\":710:821  function sub(uint256 x, uint256 y) internal pure returns (uint256 z) {... */\n    tag_254:\n        /* \"@uniswap/v3-core/contracts/libraries/LowGasSafeMath.sol\":768:777  uint256 z */\n      0x00\n        /* \"@uniswap/v3-core/contracts/libraries/LowGasSafeMath.sol\":812:813  x */\n      dup3\n        /* \"@uniswap/v3-core/contracts/libraries/LowGasSafeMath.sol\":806:807  y */\n      dup3\n        /* \"@uniswap/v3-core/contracts/libraries/LowGasSafeMath.sol\":802:803  x */\n      dup5\n        /* \"@uniswap/v3-core/contracts/libraries/LowGasSafeMath.sol\":802:807  x - y */\n      tag_428\n      swap2\n      swap1\n      tag_429\n      jump\t// in\n    tag_428:\n        /* \"@uniswap/v3-core/contracts/libraries/LowGasSafeMath.sol\":798:807  z = x - y */\n      swap2\n      pop\n      dup2\n        /* \"@uniswap/v3-core/contracts/libraries/LowGasSafeMath.sol\":797:813  (z = x - y) <= x */\n      gt\n      iszero\n        /* \"@uniswap/v3-core/contracts/libraries/LowGasSafeMath.sol\":789:814  require((z = x - y) <= x) */\n      tag_430\n      jumpi\n      0x00\n      dup1\n      revert\n    tag_430:\n        /* \"@uniswap/v3-core/contracts/libraries/LowGasSafeMath.sol\":710:821  function sub(uint256 x, uint256 y) internal pure returns (uint256 z) {... */\n      swap3\n      swap2\n      pop\n      pop\n      jump\t// out\n        /* \"@uniswap/lib/contracts/libraries/Babylonian.sol\":382:1579  function sqrt(uint256 x) internal pure returns (uint256) {... */\n    tag_266:\n        /* \"@uniswap/lib/contracts/libraries/Babylonian.sol\":430:437  uint256 */\n      0x00\n        /* \"@uniswap/lib/contracts/libraries/Babylonian.sol\":458:459  0 */\n      dup1\n        /* \"@uniswap/lib/contracts/libraries/Babylonian.sol\":453:454  x */\n      dup3\n        /* \"@uniswap/lib/contracts/libraries/Babylonian.sol\":453:459  x == 0 */\n      eq\n        /* \"@uniswap/lib/contracts/libraries/Babylonian.sol\":449:469  if (x == 0) return 0 */\n      iszero\n      tag_432\n      jumpi\n        /* \"@uniswap/lib/contracts/libraries/Babylonian.sol\":468:469  0 */\n      0x00\n        /* \"@uniswap/lib/contracts/libraries/Babylonian.sol\":461:469  return 0 */\n      swap1\n      pop\n      jump(tag_431)\n        /* \"@uniswap/lib/contracts/libraries/Babylonian.sol\":449:469  if (x == 0) return 0 */\n    tag_432:\n        /* \"@uniswap/lib/contracts/libraries/Babylonian.sol\":631:641  uint256 xx */\n      0x00\n        /* \"@uniswap/lib/contracts/libraries/Babylonian.sol\":644:645  x */\n      dup3\n        /* \"@uniswap/lib/contracts/libraries/Babylonian.sol\":631:645  uint256 xx = x */\n      swap1\n      pop\n        /* \"@uniswap/lib/contracts/libraries/Babylonian.sol\":655:664  uint256 r */\n      0x00\n        /* \"@uniswap/lib/contracts/libraries/Babylonian.sol\":667:668  1 */\n      0x01\n        /* \"@uniswap/lib/contracts/libraries/Babylonian.sol\":655:668  uint256 r = 1 */\n      swap1\n      pop\n        /* \"@uniswap/lib/contracts/libraries/Babylonian.sol\":688:723  0x100000000000000000000000000000000 */\n      0x0100000000000000000000000000000000\n        /* \"@uniswap/lib/contracts/libraries/Babylonian.sol\":682:684  xx */\n      dup3\n        /* \"@uniswap/lib/contracts/libraries/Babylonian.sol\":682:723  xx >= 0x100000000000000000000000000000000 */\n      lt\n        /* \"@uniswap/lib/contracts/libraries/Babylonian.sol\":678:782  if (xx >= 0x100000000000000000000000000000000) {... */\n      tag_433\n      jumpi\n        /* \"@uniswap/lib/contracts/libraries/Babylonian.sol\":746:749  128 */\n      0x80\n        /* \"@uniswap/lib/contracts/libraries/Babylonian.sol\":739:749  xx >>= 128 */\n      dup3\n      swap1\n      shr\n      swap2\n      pop\n        /* \"@uniswap/lib/contracts/libraries/Babylonian.sol\":769:771  64 */\n      0x40\n        /* \"@uniswap/lib/contracts/libraries/Babylonian.sol\":763:771  r <<= 64 */\n      dup2\n      swap1\n      shl\n      swap1\n      pop\n        /* \"@uniswap/lib/contracts/libraries/Babylonian.sol\":678:782  if (xx >= 0x100000000000000000000000000000000) {... */\n    tag_433:\n        /* \"@uniswap/lib/contracts/libraries/Babylonian.sol\":801:820  0x10000000000000000 */\n      0x010000000000000000\n        /* \"@uniswap/lib/contracts/libraries/Babylonian.sol\":795:797  xx */\n      dup3\n        /* \"@uniswap/lib/contracts/libraries/Babylonian.sol\":795:820  xx >= 0x10000000000000000 */\n      lt\n        /* \"@uniswap/lib/contracts/libraries/Babylonian.sol\":791:878  if (xx >= 0x10000000000000000) {... */\n      tag_434\n      jumpi\n        /* \"@uniswap/lib/contracts/libraries/Babylonian.sol\":843:845  64 */\n      0x40\n        /* \"@uniswap/lib/contracts/libraries/Babylonian.sol\":836:845  xx >>= 64 */\n      dup3\n      swap1\n      shr\n      swap2\n      pop\n        /* \"@uniswap/lib/contracts/libraries/Babylonian.sol\":865:867  32 */\n      0x20\n        /* \"@uniswap/lib/contracts/libraries/Babylonian.sol\":859:867  r <<= 32 */\n      dup2\n      swap1\n      shl\n      swap1\n      pop\n        /* \"@uniswap/lib/contracts/libraries/Babylonian.sol\":791:878  if (xx >= 0x10000000000000000) {... */\n    tag_434:\n        /* \"@uniswap/lib/contracts/libraries/Babylonian.sol\":897:908  0x100000000 */\n      0x0100000000\n        /* \"@uniswap/lib/contracts/libraries/Babylonian.sol\":891:893  xx */\n      dup3\n        /* \"@uniswap/lib/contracts/libraries/Babylonian.sol\":891:908  xx >= 0x100000000 */\n      lt\n        /* \"@uniswap/lib/contracts/libraries/Babylonian.sol\":887:966  if (xx >= 0x100000000) {... */\n      tag_435\n      jumpi\n        /* \"@uniswap/lib/contracts/libraries/Babylonian.sol\":931:933  32 */\n      0x20\n        /* \"@uniswap/lib/contracts/libraries/Babylonian.sol\":924:933  xx >>= 32 */\n      dup3\n      swap1\n      shr\n      swap2\n      pop\n        /* \"@uniswap/lib/contracts/libraries/Babylonian.sol\":953:955  16 */\n      0x10\n        /* \"@uniswap/lib/contracts/libraries/Babylonian.sol\":947:955  r <<= 16 */\n      dup2\n      swap1\n      shl\n      swap1\n      pop\n        /* \"@uniswap/lib/contracts/libraries/Babylonian.sol\":887:966  if (xx >= 0x100000000) {... */\n    tag_435:\n        /* \"@uniswap/lib/contracts/libraries/Babylonian.sol\":985:992  0x10000 */\n      0x010000\n        /* \"@uniswap/lib/contracts/libraries/Babylonian.sol\":979:981  xx */\n      dup3\n        /* \"@uniswap/lib/contracts/libraries/Babylonian.sol\":979:992  xx >= 0x10000 */\n      lt\n        /* \"@uniswap/lib/contracts/libraries/Babylonian.sol\":975:1049  if (xx >= 0x10000) {... */\n      tag_436\n      jumpi\n        /* \"@uniswap/lib/contracts/libraries/Babylonian.sol\":1015:1017  16 */\n      0x10\n        /* \"@uniswap/lib/contracts/libraries/Babylonian.sol\":1008:1017  xx >>= 16 */\n      dup3\n      swap1\n      shr\n      swap2\n      pop\n        /* \"@uniswap/lib/contracts/libraries/Babylonian.sol\":1037:1038  8 */\n      0x08\n        /* \"@uniswap/lib/contracts/libraries/Babylonian.sol\":1031:1038  r <<= 8 */\n      dup2\n      swap1\n      shl\n      swap1\n      pop\n        /* \"@uniswap/lib/contracts/libraries/Babylonian.sol\":975:1049  if (xx >= 0x10000) {... */\n    tag_436:\n        /* \"@uniswap/lib/contracts/libraries/Babylonian.sol\":1068:1073  0x100 */\n      0x0100\n        /* \"@uniswap/lib/contracts/libraries/Babylonian.sol\":1062:1064  xx */\n      dup3\n        /* \"@uniswap/lib/contracts/libraries/Babylonian.sol\":1062:1073  xx >= 0x100 */\n      lt\n        /* \"@uniswap/lib/contracts/libraries/Babylonian.sol\":1058:1129  if (xx >= 0x100) {... */\n      tag_437\n      jumpi\n        /* \"@uniswap/lib/contracts/libraries/Babylonian.sol\":1096:1097  8 */\n      0x08\n        /* \"@uniswap/lib/contracts/libraries/Babylonian.sol\":1089:1097  xx >>= 8 */\n      dup3\n      swap1\n      shr\n      swap2\n      pop\n        /* \"@uniswap/lib/contracts/libraries/Babylonian.sol\":1117:1118  4 */\n      0x04\n        /* \"@uniswap/lib/contracts/libraries/Babylonian.sol\":1111:1118  r <<= 4 */\n      dup2\n      swap1\n      shl\n      swap1\n      pop\n        /* \"@uniswap/lib/contracts/libraries/Babylonian.sol\":1058:1129  if (xx >= 0x100) {... */\n    tag_437:\n        /* \"@uniswap/lib/contracts/libraries/Babylonian.sol\":1148:1152  0x10 */\n      0x10\n        /* \"@uniswap/lib/contracts/libraries/Babylonian.sol\":1142:1144  xx */\n      dup3\n        /* \"@uniswap/lib/contracts/libraries/Babylonian.sol\":1142:1152  xx >= 0x10 */\n      lt\n        /* \"@uniswap/lib/contracts/libraries/Babylonian.sol\":1138:1208  if (xx >= 0x10) {... */\n      tag_438\n      jumpi\n        /* \"@uniswap/lib/contracts/libraries/Babylonian.sol\":1175:1176  4 */\n      0x04\n        /* \"@uniswap/lib/contracts/libraries/Babylonian.sol\":1168:1176  xx >>= 4 */\n      dup3\n      swap1\n      shr\n      swap2\n      pop\n        /* \"@uniswap/lib/contracts/libraries/Babylonian.sol\":1196:1197  2 */\n      0x02\n        /* \"@uniswap/lib/contracts/libraries/Babylonian.sol\":1190:1197  r <<= 2 */\n      dup2\n      swap1\n      shl\n      swap1\n      pop\n        /* \"@uniswap/lib/contracts/libraries/Babylonian.sol\":1138:1208  if (xx >= 0x10) {... */\n    tag_438:\n        /* \"@uniswap/lib/contracts/libraries/Babylonian.sol\":1227:1230  0x8 */\n      0x08\n        /* \"@uniswap/lib/contracts/libraries/Babylonian.sol\":1221:1223  xx */\n      dup3\n        /* \"@uniswap/lib/contracts/libraries/Babylonian.sol\":1221:1230  xx >= 0x8 */\n      lt\n        /* \"@uniswap/lib/contracts/libraries/Babylonian.sol\":1217:1264  if (xx >= 0x8) {... */\n      tag_439\n      jumpi\n        /* \"@uniswap/lib/contracts/libraries/Babylonian.sol\":1252:1253  1 */\n      0x01\n        /* \"@uniswap/lib/contracts/libraries/Babylonian.sol\":1246:1253  r <<= 1 */\n      dup2\n      swap1\n      shl\n      swap1\n      pop\n        /* \"@uniswap/lib/contracts/libraries/Babylonian.sol\":1217:1264  if (xx >= 0x8) {... */\n    tag_439:\n        /* \"@uniswap/lib/contracts/libraries/Babylonian.sol\":1292:1293  1 */\n      0x01\n        /* \"@uniswap/lib/contracts/libraries/Babylonian.sol\":1286:1287  r */\n      dup2\n        /* \"@uniswap/lib/contracts/libraries/Babylonian.sol\":1282:1283  x */\n      dup6\n        /* \"@uniswap/lib/contracts/libraries/Babylonian.sol\":1282:1287  x / r */\n      tag_440\n      swap2\n      swap1\n      tag_245\n      jump\t// in\n    tag_440:\n        /* \"@uniswap/lib/contracts/libraries/Babylonian.sol\":1278:1279  r */\n      dup3\n        /* \"@uniswap/lib/contracts/libraries/Babylonian.sol\":1278:1287  r + x / r */\n      tag_441\n      swap2\n      swap1\n      tag_425\n      jump\t// in\n    tag_441:\n        /* \"@uniswap/lib/contracts/libraries/Babylonian.sol\":1277:1293  (r + x / r) >> 1 */\n      swap1\n      shr\n        /* \"@uniswap/lib/contracts/libraries/Babylonian.sol\":1273:1293  r = (r + x / r) >> 1 */\n      swap1\n      pop\n        /* \"@uniswap/lib/contracts/libraries/Babylonian.sol\":1322:1323  1 */\n      0x01\n        /* \"@uniswap/lib/contracts/libraries/Babylonian.sol\":1316:1317  r */\n      dup2\n        /* \"@uniswap/lib/contracts/libraries/Babylonian.sol\":1312:1313  x */\n      dup6\n        /* \"@uniswap/lib/contracts/libraries/Babylonian.sol\":1312:1317  x / r */\n      tag_442\n      swap2\n      swap1\n      tag_245\n      jump\t// in\n    tag_442:\n        /* \"@uniswap/lib/contracts/libraries/Babylonian.sol\":1308:1309  r */\n      dup3\n        /* \"@uniswap/lib/contracts/libraries/Babylonian.sol\":1308:1317  r + x / r */\n      tag_443\n      swap2\n      swap1\n      tag_425\n      jump\t// in\n    tag_443:\n        /* \"@uniswap/lib/contracts/libraries/Babylonian.sol\":1307:1323  (r + x / r) >> 1 */\n      swap1\n      shr\n        /* \"@uniswap/lib/contracts/libraries/Babylonian.sol\":1303:1323  r = (r + x / r) >> 1 */\n      swap1\n      pop\n        /* \"@uniswap/lib/contracts/libraries/Babylonian.sol\":1352:1353  1 */\n      0x01\n        /* \"@uniswap/lib/contracts/libraries/Babylonian.sol\":1346:1347  r */\n      dup2\n        /* \"@uniswap/lib/contracts/libraries/Babylonian.sol\":1342:1343  x */\n      dup6\n        /* \"@uniswap/lib/contracts/libraries/Babylonian.sol\":1342:1347  x / r */\n      tag_444\n      swap2\n      swap1\n      tag_245\n      jump\t// in\n    tag_444:\n        /* \"@uniswap/lib/contracts/libraries/Babylonian.sol\":1338:1339  r */\n      dup3\n        /* \"@uniswap/lib/contracts/libraries/Babylonian.sol\":1338:1347  r + x / r */\n      tag_445\n      swap2\n      swap1\n      tag_425\n      jump\t// in\n    tag_445:\n        /* \"@uniswap/lib/contracts/libraries/Babylonian.sol\":1337:1353  (r + x / r) >> 1 */\n      swap1\n      shr\n        /* \"@uniswap/lib/contracts/libraries/Babylonian.sol\":1333:1353  r = (r + x / r) >> 1 */\n      swap1\n      pop\n        /* \"@uniswap/lib/contracts/libraries/Babylonian.sol\":1382:1383  1 */\n      0x01\n        /* \"@uniswap/lib/contracts/libraries/Babylonian.sol\":1376:1377  r */\n      dup2\n        /* \"@uniswap/lib/contracts/libraries/Babylonian.sol\":1372:1373  x */\n      dup6\n        /* \"@uniswap/lib/contracts/libraries/Babylonian.sol\":1372:1377  x / r */\n      tag_446\n      swap2\n      swap1\n      tag_245\n      jump\t// in\n    tag_446:\n        /* \"@uniswap/lib/contracts/libraries/Babylonian.sol\":1368:1369  r */\n      dup3\n        /* \"@uniswap/lib/contracts/libraries/Babylonian.sol\":1368:1377  r + x / r */\n      tag_447\n      swap2\n      swap1\n      tag_425\n      jump\t// in\n    tag_447:\n        /* \"@uniswap/lib/contracts/libraries/Babylonian.sol\":1367:1383  (r + x / r) >> 1 */\n      swap1\n      shr\n        /* \"@uniswap/lib/contracts/libraries/Babylonian.sol\":1363:1383  r = (r + x / r) >> 1 */\n      swap1\n      pop\n        /* \"@uniswap/lib/contracts/libraries/Babylonian.sol\":1412:1413  1 */\n      0x01\n        /* \"@uniswap/lib/contracts/libraries/Babylonian.sol\":1406:1407  r */\n      dup2\n        /* \"@uniswap/lib/contracts/libraries/Babylonian.sol\":1402:1403  x */\n      dup6\n        /* \"@uniswap/lib/contracts/libraries/Babylonian.sol\":1402:1407  x / r */\n      tag_448\n      swap2\n      swap1\n      tag_245\n      jump\t// in\n    tag_448:\n        /* \"@uniswap/lib/contracts/libraries/Babylonian.sol\":1398:1399  r */\n      dup3\n        /* \"@uniswap/lib/contracts/libraries/Babylonian.sol\":1398:1407  r + x / r */\n      tag_449\n      swap2\n      swap1\n      tag_425\n      jump\t// in\n    tag_449:\n        /* \"@uniswap/lib/contracts/libraries/Babylonian.sol\":1397:1413  (r + x / r) >> 1 */\n      swap1\n      shr\n        /* \"@uniswap/lib/contracts/libraries/Babylonian.sol\":1393:1413  r = (r + x / r) >> 1 */\n      swap1\n      pop\n        /* \"@uniswap/lib/contracts/libraries/Babylonian.sol\":1442:1443  1 */\n      0x01\n        /* \"@uniswap/lib/contracts/libraries/Babylonian.sol\":1436:1437  r */\n      dup2\n        /* \"@uniswap/lib/contracts/libraries/Babylonian.sol\":1432:1433  x */\n      dup6\n        /* \"@uniswap/lib/contracts/libraries/Babylonian.sol\":1432:1437  x / r */\n      tag_450\n      swap2\n      swap1\n      tag_245\n      jump\t// in\n    tag_450:\n        /* \"@uniswap/lib/contracts/libraries/Babylonian.sol\":1428:1429  r */\n      dup3\n        /* \"@uniswap/lib/contracts/libraries/Babylonian.sol\":1428:1437  r + x / r */\n      tag_451\n      swap2\n      swap1\n      tag_425\n      jump\t// in\n    tag_451:\n        /* \"@uniswap/lib/contracts/libraries/Babylonian.sol\":1427:1443  (r + x / r) >> 1 */\n      swap1\n      shr\n        /* \"@uniswap/lib/contracts/libraries/Babylonian.sol\":1423:1443  r = (r + x / r) >> 1 */\n      swap1\n      pop\n        /* \"@uniswap/lib/contracts/libraries/Babylonian.sol\":1472:1473  1 */\n      0x01\n        /* \"@uniswap/lib/contracts/libraries/Babylonian.sol\":1466:1467  r */\n      dup2\n        /* \"@uniswap/lib/contracts/libraries/Babylonian.sol\":1462:1463  x */\n      dup6\n        /* \"@uniswap/lib/contracts/libraries/Babylonian.sol\":1462:1467  x / r */\n      tag_452\n      swap2\n      swap1\n      tag_245\n      jump\t// in\n    tag_452:\n        /* \"@uniswap/lib/contracts/libraries/Babylonian.sol\":1458:1459  r */\n      dup3\n        /* \"@uniswap/lib/contracts/libraries/Babylonian.sol\":1458:1467  r + x / r */\n      tag_453\n      swap2\n      swap1\n      tag_425\n      jump\t// in\n    tag_453:\n        /* \"@uniswap/lib/contracts/libraries/Babylonian.sol\":1457:1473  (r + x / r) >> 1 */\n      swap1\n      shr\n        /* \"@uniswap/lib/contracts/libraries/Babylonian.sol\":1453:1473  r = (r + x / r) >> 1 */\n      swap1\n      pop\n        /* \"@uniswap/lib/contracts/libraries/Babylonian.sol\":1520:1530  uint256 r1 */\n      0x00\n        /* \"@uniswap/lib/contracts/libraries/Babylonian.sol\":1537:1538  r */\n      dup2\n        /* \"@uniswap/lib/contracts/libraries/Babylonian.sol\":1533:1534  x */\n      dup6\n        /* \"@uniswap/lib/contracts/libraries/Babylonian.sol\":1533:1538  x / r */\n      tag_454\n      swap2\n      swap1\n      tag_245\n      jump\t// in\n    tag_454:\n        /* \"@uniswap/lib/contracts/libraries/Babylonian.sol\":1520:1538  uint256 r1 = x / r */\n      swap1\n      pop\n        /* \"@uniswap/lib/contracts/libraries/Babylonian.sol\":1560:1562  r1 */\n      dup1\n        /* \"@uniswap/lib/contracts/libraries/Babylonian.sol\":1556:1557  r */\n      dup3\n        /* \"@uniswap/lib/contracts/libraries/Babylonian.sol\":1556:1562  r < r1 */\n      lt\n        /* \"@uniswap/lib/contracts/libraries/Babylonian.sol\":1556:1571  r < r1 ? r : r1 */\n      tag_455\n      jumpi\n        /* \"@uniswap/lib/contracts/libraries/Babylonian.sol\":1569:1571  r1 */\n      dup1\n        /* \"@uniswap/lib/contracts/libraries/Babylonian.sol\":1556:1571  r < r1 ? r : r1 */\n      jump(tag_456)\n    tag_455:\n        /* \"@uniswap/lib/contracts/libraries/Babylonian.sol\":1565:1566  r */\n      dup2\n        /* \"@uniswap/lib/contracts/libraries/Babylonian.sol\":1556:1571  r < r1 ? r : r1 */\n    tag_456:\n        /* \"@uniswap/lib/contracts/libraries/Babylonian.sol\":1548:1572  return (r < r1 ? r : r1) */\n      swap4\n      pop\n      pop\n      pop\n      pop\n        /* \"@uniswap/lib/contracts/libraries/Babylonian.sol\":382:1579  function sqrt(uint256 x) internal pure returns (uint256) {... */\n    tag_431:\n      swap2\n      swap1\n      pop\n      jump\t// out\n        /* \"@openzeppelin/contracts/token/ERC20/utils/SafeERC20.sol\":3747:4453  function _callOptionalReturn(IERC20 token, bytes memory data) private {... */\n    tag_271:\n        /* \"@openzeppelin/contracts/token/ERC20/utils/SafeERC20.sol\":4166:4189  bytes memory returndata */\n      0x00\n        /* \"@openzeppelin/contracts/token/ERC20/utils/SafeERC20.sol\":4192:4261  address(token).functionCall(data, \"SafeERC20: low-level call failed\") */\n      tag_458\n        /* \"@openzeppelin/contracts/token/ERC20/utils/SafeERC20.sol\":4220:4224  data */\n      dup3\n        /* \"@openzeppelin/contracts/token/ERC20/utils/SafeERC20.sol\":4192:4261  address(token).functionCall(data, \"SafeERC20: low-level call failed\") */\n      mload(0x40)\n      dup1\n      0x40\n      add\n      0x40\n      mstore\n      dup1\n      0x20\n      dup2\n      mstore\n      0x20\n      add\n      0x5361666545524332303a206c6f772d6c6576656c2063616c6c206661696c6564\n      dup2\n      mstore\n      pop\n        /* \"@openzeppelin/contracts/token/ERC20/utils/SafeERC20.sol\":4200:4205  token */\n      dup6\n        /* \"@openzeppelin/contracts/token/ERC20/utils/SafeERC20.sol\":4192:4219  address(token).functionCall */\n      0xffffffffffffffffffffffffffffffffffffffff\n      and\n      tag_459\n      swap1\n        /* \"@openzeppelin/contracts/token/ERC20/utils/SafeERC20.sol\":4192:4261  address(token).functionCall(data, \"SafeERC20: low-level call failed\") */\n      swap3\n      swap2\n      swap1\n      0xffffffff\n      and\n      jump\t// in\n    tag_458:\n        /* \"@openzeppelin/contracts/token/ERC20/utils/SafeERC20.sol\":4166:4261  bytes memory returndata = address(token).functionCall(data, \"SafeERC20: low-level call failed\") */\n      swap1\n      pop\n        /* \"@openzeppelin/contracts/token/ERC20/utils/SafeERC20.sol\":4295:4296  0 */\n      0x00\n        /* \"@openzeppelin/contracts/token/ERC20/utils/SafeERC20.sol\":4275:4285  returndata */\n      dup2\n        /* \"@openzeppelin/contracts/token/ERC20/utils/SafeERC20.sol\":4275:4292  returndata.length */\n      mload\n        /* \"@openzeppelin/contracts/token/ERC20/utils/SafeERC20.sol\":4275:4296  returndata.length > 0 */\n      gt\n        /* \"@openzeppelin/contracts/token/ERC20/utils/SafeERC20.sol\":4271:4447  if (returndata.length > 0) {... */\n      iszero\n      tag_460\n      jumpi\n        /* \"@openzeppelin/contracts/token/ERC20/utils/SafeERC20.sol\":4370:4380  returndata */\n      dup1\n        /* \"@openzeppelin/contracts/token/ERC20/utils/SafeERC20.sol\":4359:4389  abi.decode(returndata, (bool)) */\n      dup1\n      0x20\n      add\n      swap1\n      mload\n      dup2\n      add\n      swap1\n      tag_461\n      swap2\n      swap1\n      tag_462\n      jump\t// in\n    tag_461:\n        /* \"@openzeppelin/contracts/token/ERC20/utils/SafeERC20.sol\":4351:4436  require(abi.decode(returndata, (bool)), \"SafeERC20: ERC20 operation did not succeed\") */\n      tag_463\n      jumpi\n      mload(0x40)\n      0x08c379a000000000000000000000000000000000000000000000000000000000\n      dup2\n      mstore\n      0x04\n      add\n      tag_464\n      swap1\n      tag_465\n      jump\t// in\n    tag_464:\n      mload(0x40)\n      dup1\n      swap2\n      sub\n      swap1\n      revert\n    tag_463:\n        /* \"@openzeppelin/contracts/token/ERC20/utils/SafeERC20.sol\":4271:4447  if (returndata.length > 0) {... */\n    tag_460:\n        /* \"@openzeppelin/contracts/token/ERC20/utils/SafeERC20.sol\":3817:4453  {... */\n      pop\n        /* \"@openzeppelin/contracts/token/ERC20/utils/SafeERC20.sol\":3747:4453  function _callOptionalReturn(IERC20 token, bytes memory data) private {... */\n      pop\n      pop\n      jump\t// out\n        /* \"@openzeppelin/contracts/token/ERC20/utils/SafeERC20.sol\":763:968  function safeTransfer(... */\n    tag_357:\n        /* \"@openzeppelin/contracts/token/ERC20/utils/SafeERC20.sol\":875:961  _callOptionalReturn(token, abi.encodeWithSelector(token.transfer.selector, to, value)) */\n      tag_467\n        /* \"@openzeppelin/contracts/token/ERC20/utils/SafeERC20.sol\":895:900  token */\n      dup4\n        /* \"@openzeppelin/contracts/token/ERC20/utils/SafeERC20.sol\":925:948  token.transfer.selector */\n      shl(0xe0, 0xa9059cbb)\n        /* \"@openzeppelin/contracts/token/ERC20/utils/SafeERC20.sol\":950:952  to */\n      dup5\n        /* \"@openzeppelin/contracts/token/ERC20/utils/SafeERC20.sol\":954:959  value */\n      dup5\n        /* \"@openzeppelin/contracts/token/ERC20/utils/SafeERC20.sol\":902:960  abi.encodeWithSelector(token.transfer.selector, to, value) */\n      add(0x24, mload(0x40))\n      tag_468\n      swap3\n      swap2\n      swap1\n      tag_469\n      jump\t// in\n    tag_468:\n      mload(0x40)\n      0x20\n      dup2\n      dup4\n      sub\n      sub\n      dup2\n      mstore\n      swap1\n      0x40\n      mstore\n      swap1\n      not(0xffffffffffffffffffffffffffffffffffffffffffffffffffffffff)\n      and\n      0x20\n      dup3\n      add\n      dup1\n      mload\n      0xffffffffffffffffffffffffffffffffffffffffffffffffffffffff\n      dup4\n      dup2\n      dup4\n      and\n      or\n      dup4\n      mstore\n      pop\n      pop\n      pop\n      pop\n        /* \"@openzeppelin/contracts/token/ERC20/utils/SafeERC20.sol\":875:894  _callOptionalReturn */\n      tag_271\n        /* \"@openzeppelin/contracts/token/ERC20/utils/SafeERC20.sol\":875:961  _callOptionalReturn(token, abi.encodeWithSelector(token.transfer.selector, to, value)) */\n      jump\t// in\n    tag_467:\n        /* \"@openzeppelin/contracts/token/ERC20/utils/SafeERC20.sol\":763:968  function safeTransfer(... */\n      pop\n      pop\n      pop\n      jump\t// out\n        /* \"@openzeppelin/contracts/token/ERC20/utils/SafeERC20.sol\":1475:2078  function safeApprove(... */\n    tag_422:\n        /* \"@openzeppelin/contracts/token/ERC20/utils/SafeERC20.sol\":1839:1840  0 */\n      0x00\n        /* \"@openzeppelin/contracts/token/ERC20/utils/SafeERC20.sol\":1830:1835  value */\n      dup2\n        /* \"@openzeppelin/contracts/token/ERC20/utils/SafeERC20.sol\":1830:1840  value == 0 */\n      eq\n        /* \"@openzeppelin/contracts/token/ERC20/utils/SafeERC20.sol\":1829:1891  (value == 0) || (token.allowance(address(this), spender) == 0) */\n      dup1\n      tag_471\n      jumpi\n      pop\n        /* \"@openzeppelin/contracts/token/ERC20/utils/SafeERC20.sol\":1889:1890  0 */\n      0x00\n        /* \"@openzeppelin/contracts/token/ERC20/utils/SafeERC20.sol\":1846:1851  token */\n      dup4\n        /* \"@openzeppelin/contracts/token/ERC20/utils/SafeERC20.sol\":1846:1861  token.allowance */\n      0xffffffffffffffffffffffffffffffffffffffff\n      and\n      0xdd62ed3e\n        /* \"@openzeppelin/contracts/token/ERC20/utils/SafeERC20.sol\":1870:1874  this */\n      address\n        /* \"@openzeppelin/contracts/token/ERC20/utils/SafeERC20.sol\":1877:1884  spender */\n      dup6\n        /* \"@openzeppelin/contracts/token/ERC20/utils/SafeERC20.sol\":1846:1885  token.allowance(address(this), spender) */\n      mload(0x40)\n      dup4\n      0xffffffff\n      and\n      0xe0\n      shl\n      dup2\n      mstore\n      0x04\n      add\n      tag_472\n      swap3\n      swap2\n      swap1\n      tag_115\n      jump\t// in\n    tag_472:\n      0x20\n      mload(0x40)\n      dup1\n      dup4\n      sub\n      dup2\n      dup7\n      dup1\n      extcodesize\n      iszero\n      dup1\n      iszero\n      tag_473\n      jumpi\n      0x00\n      dup1\n      revert\n    tag_473:\n      pop\n      gas\n      staticcall\n      iszero\n      dup1\n      iszero\n      tag_475\n      jumpi\n      returndatasize\n      0x00\n      dup1\n      returndatacopy\n      revert(0x00, returndatasize)\n    tag_475:\n      pop\n      pop\n      pop\n      pop\n      mload(0x40)\n      returndatasize\n      not(0x1f)\n      0x1f\n      dup3\n      add\n      and\n      dup3\n      add\n      dup1\n      0x40\n      mstore\n      pop\n      dup2\n      add\n      swap1\n      tag_476\n      swap2\n      swap1\n      tag_99\n      jump\t// in\n    tag_476:\n        /* \"@openzeppelin/contracts/token/ERC20/utils/SafeERC20.sol\":1846:1890  token.allowance(address(this), spender) == 0 */\n      eq\n        /* \"@openzeppelin/contracts/token/ERC20/utils/SafeERC20.sol\":1829:1891  (value == 0) || (token.allowance(address(this), spender) == 0) */\n    tag_471:\n        /* \"@openzeppelin/contracts/token/ERC20/utils/SafeERC20.sol\":1808:1971  require(... */\n      tag_477\n      jumpi\n      mload(0x40)\n      0x08c379a000000000000000000000000000000000000000000000000000000000\n      dup2\n      mstore\n      0x04\n      add\n      tag_478\n      swap1\n      tag_479\n      jump\t// in\n    tag_478:\n      mload(0x40)\n      dup1\n      swap2\n      sub\n      swap1\n      revert\n    tag_477:\n        /* \"@openzeppelin/contracts/token/ERC20/utils/SafeERC20.sol\":1981:2071  _callOptionalReturn(token, abi.encodeWithSelector(token.approve.selector, spender, value)) */\n      tag_480\n        /* \"@openzeppelin/contracts/token/ERC20/utils/SafeERC20.sol\":2001:2006  token */\n      dup4\n        /* \"@openzeppelin/contracts/token/ERC20/utils/SafeERC20.sol\":2031:2053  token.approve.selector */\n      shl(0xe0, 0x095ea7b3)\n        /* \"@openzeppelin/contracts/token/ERC20/utils/SafeERC20.sol\":2055:2062  spender */\n      dup5\n        /* \"@openzeppelin/contracts/token/ERC20/utils/SafeERC20.sol\":2064:2069  value */\n      dup5\n        /* \"@openzeppelin/contracts/token/ERC20/utils/SafeERC20.sol\":2008:2070  abi.encodeWithSelector(token.approve.selector, spender, value) */\n      add(0x24, mload(0x40))\n      tag_481\n      swap3\n      swap2\n      swap1\n      tag_469\n      jump\t// in\n    tag_481:\n      mload(0x40)\n      0x20\n      dup2\n      dup4\n      sub\n      sub\n      dup2\n      mstore\n      swap1\n      0x40\n      mstore\n      swap1\n      not(0xffffffffffffffffffffffffffffffffffffffffffffffffffffffff)\n      and\n      0x20\n      dup3\n      add\n      dup1\n      mload\n      0xffffffffffffffffffffffffffffffffffffffffffffffffffffffff\n      dup4\n      dup2\n      dup4\n      and\n      or\n      dup4\n      mstore\n      pop\n      pop\n      pop\n      pop\n        /* \"@openzeppelin/contracts/token/ERC20/utils/SafeERC20.sol\":1981:2000  _callOptionalReturn */\n      tag_271\n        /* \"@openzeppelin/contracts/token/ERC20/utils/SafeERC20.sol\":1981:2071  _callOptionalReturn(token, abi.encodeWithSelector(token.approve.selector, spender, value)) */\n      jump\t// in\n    tag_480:\n        /* \"@openzeppelin/contracts/token/ERC20/utils/SafeERC20.sol\":1475:2078  function safeApprove(... */\n      pop\n      pop\n      pop\n      jump\t// out\n        /* \"@openzeppelin/contracts/utils/Address.sol\":3861:4084  function functionCall(... */\n    tag_459:\n        /* \"@openzeppelin/contracts/utils/Address.sol\":3994:4006  bytes memory */\n      0x60\n        /* \"@openzeppelin/contracts/utils/Address.sol\":4025:4077  functionCallWithValue(target, data, 0, errorMessage) */\n      tag_483\n        /* \"@openzeppelin/contracts/utils/Address.sol\":4047:4053  target */\n      dup5\n        /* \"@openzeppelin/contracts/utils/Address.sol\":4055:4059  data */\n      dup5\n        /* \"@openzeppelin/contracts/utils/Address.sol\":4061:4062  0 */\n      0x00\n        /* \"@openzeppelin/contracts/utils/Address.sol\":4064:4076  errorMessage */\n      dup6\n        /* \"@openzeppelin/contracts/utils/Address.sol\":4025:4046  functionCallWithValue */\n      tag_484\n        /* \"@openzeppelin/contracts/utils/Address.sol\":4025:4077  functionCallWithValue(target, data, 0, errorMessage) */\n      jump\t// in\n    tag_483:\n        /* \"@openzeppelin/contracts/utils/Address.sol\":4018:4077  return functionCallWithValue(target, data, 0, errorMessage) */\n      swap1\n      pop\n        /* \"@openzeppelin/contracts/utils/Address.sol\":3861:4084  function functionCall(... */\n      swap4\n      swap3\n      pop\n      pop\n      pop\n      jump\t// out\n        /* \"@openzeppelin/contracts/utils/Address.sol\":4948:5447  function functionCallWithValue(... */\n    tag_484:\n        /* \"@openzeppelin/contracts/utils/Address.sol\":5113:5125  bytes memory */\n      0x60\n        /* \"@openzeppelin/contracts/utils/Address.sol\":5170:5175  value */\n      dup3\n        /* \"@openzeppelin/contracts/utils/Address.sol\":5145:5166  address(this).balance */\n      selfbalance\n        /* \"@openzeppelin/contracts/utils/Address.sol\":5145:5175  address(this).balance >= value */\n      lt\n      iszero\n        /* \"@openzeppelin/contracts/utils/Address.sol\":5137:5218  require(address(this).balance >= value, \"Address: insufficient balance for call\") */\n      tag_486\n      jumpi\n      mload(0x40)\n      0x08c379a000000000000000000000000000000000000000000000000000000000\n      dup2\n      mstore\n      0x04\n      add\n      tag_487\n      swap1\n      tag_488\n      jump\t// in\n    tag_487:\n      mload(0x40)\n      dup1\n      swap2\n      sub\n      swap1\n      revert\n    tag_486:\n        /* \"@openzeppelin/contracts/utils/Address.sol\":5236:5254  isContract(target) */\n      tag_489\n        /* \"@openzeppelin/contracts/utils/Address.sol\":5247:5253  target */\n      dup6\n        /* \"@openzeppelin/contracts/utils/Address.sol\":5236:5246  isContract */\n      tag_490\n        /* \"@openzeppelin/contracts/utils/Address.sol\":5236:5254  isContract(target) */\n      jump\t// in\n    tag_489:\n        /* \"@openzeppelin/contracts/utils/Address.sol\":5228:5288  require(isContract(target), \"Address: call to non-contract\") */\n      tag_491\n      jumpi\n      mload(0x40)\n      0x08c379a000000000000000000000000000000000000000000000000000000000\n      dup2\n      mstore\n      0x04\n      add\n      tag_492\n      swap1\n      tag_493\n      jump\t// in\n    tag_492:\n      mload(0x40)\n      dup1\n      swap2\n      sub\n      swap1\n      revert\n    tag_491:\n        /* \"@openzeppelin/contracts/utils/Address.sol\":5300:5312  bool success */\n      0x00\n        /* \"@openzeppelin/contracts/utils/Address.sol\":5314:5337  bytes memory returndata */\n      dup1\n        /* \"@openzeppelin/contracts/utils/Address.sol\":5341:5347  target */\n      dup7\n        /* \"@openzeppelin/contracts/utils/Address.sol\":5341:5352  target.call */\n      0xffffffffffffffffffffffffffffffffffffffff\n      and\n        /* \"@openzeppelin/contracts/utils/Address.sol\":5360:5365  value */\n      dup6\n        /* \"@openzeppelin/contracts/utils/Address.sol\":5367:5371  data */\n      dup8\n        /* \"@openzeppelin/contracts/utils/Address.sol\":5341:5372  target.call{value: value}(data) */\n      mload(0x40)\n      tag_494\n      swap2\n      swap1\n      tag_401\n      jump\t// in\n    tag_494:\n      0x00\n      mload(0x40)\n      dup1\n      dup4\n      sub\n      dup2\n      dup6\n      dup8\n      gas\n      call\n      swap3\n      pop\n      pop\n      pop\n      returndatasize\n      dup1\n      0x00\n      dup2\n      eq\n      tag_497\n      jumpi\n      mload(0x40)\n      swap2\n      pop\n      and(add(returndatasize, 0x3f), not(0x1f))\n      dup3\n      add\n      0x40\n      mstore\n      returndatasize\n      dup3\n      mstore\n      returndatasize\n      0x00\n      0x20\n      dup5\n      add\n      returndatacopy\n      jump(tag_496)\n    tag_497:\n      0x60\n      swap2\n      pop\n    tag_496:\n      pop\n        /* \"@openzeppelin/contracts/utils/Address.sol\":5299:5372  (bool success, bytes memory returndata) = target.call{value: value}(data) */\n      swap2\n      pop\n      swap2\n      pop\n        /* \"@openzeppelin/contracts/utils/Address.sol\":5389:5440  verifyCallResult(success, returndata, errorMessage) */\n      tag_498\n        /* \"@openzeppelin/contracts/utils/Address.sol\":5406:5413  success */\n      dup3\n        /* \"@openzeppelin/contracts/utils/Address.sol\":5415:5425  returndata */\n      dup3\n        /* \"@openzeppelin/contracts/utils/Address.sol\":5427:5439  errorMessage */\n      dup7\n        /* \"@openzeppelin/contracts/utils/Address.sol\":5389:5405  verifyCallResult */\n      tag_499\n        /* \"@openzeppelin/contracts/utils/Address.sol\":5389:5440  verifyCallResult(success, returndata, errorMessage) */\n      jump\t// in\n    tag_498:\n        /* \"@openzeppelin/contracts/utils/Address.sol\":5382:5440  return verifyCallResult(success, returndata, errorMessage) */\n      swap3\n      pop\n      pop\n      pop\n        /* \"@openzeppelin/contracts/utils/Address.sol\":4948:5447  function functionCallWithValue(... */\n      swap5\n      swap4\n      pop\n      pop\n      pop\n      pop\n      jump\t// out\n        /* \"@openzeppelin/contracts/utils/Address.sol\":1175:1495  function isContract(address account) internal view returns (bool) {... */\n    tag_490:\n        /* \"@openzeppelin/contracts/utils/Address.sol\":1235:1239  bool */\n      0x00\n        /* \"@openzeppelin/contracts/utils/Address.sol\":1487:1488  0 */\n      dup1\n        /* \"@openzeppelin/contracts/utils/Address.sol\":1465:1472  account */\n      dup3\n        /* \"@openzeppelin/contracts/utils/Address.sol\":1465:1484  account.code.length */\n      0xffffffffffffffffffffffffffffffffffffffff\n      and\n      extcodesize\n        /* \"@openzeppelin/contracts/utils/Address.sol\":1465:1488  account.code.length > 0 */\n      gt\n        /* \"@openzeppelin/contracts/utils/Address.sol\":1458:1488  return account.code.length > 0 */\n      swap1\n      pop\n        /* \"@openzeppelin/contracts/utils/Address.sol\":1175:1495  function isContract(address account) internal view returns (bool) {... */\n      swap2\n      swap1\n      pop\n      jump\t// out\n        /* \"@openzeppelin/contracts/utils/Address.sol\":7561:8303  function verifyCallResult(... */\n    tag_499:\n        /* \"@openzeppelin/contracts/utils/Address.sol\":7707:7719  bytes memory */\n      0x60\n        /* \"@openzeppelin/contracts/utils/Address.sol\":7735:7742  success */\n      dup4\n        /* \"@openzeppelin/contracts/utils/Address.sol\":7731:8297  if (success) {... */\n      iszero\n      tag_502\n      jumpi\n        /* \"@openzeppelin/contracts/utils/Address.sol\":7765:7775  returndata */\n      dup3\n        /* \"@openzeppelin/contracts/utils/Address.sol\":7758:7775  return returndata */\n      swap1\n      pop\n      jump(tag_501)\n        /* \"@openzeppelin/contracts/utils/Address.sol\":7731:8297  if (success) {... */\n    tag_502:\n        /* \"@openzeppelin/contracts/utils/Address.sol\":7896:7897  0 */\n      0x00\n        /* \"@openzeppelin/contracts/utils/Address.sol\":7876:7886  returndata */\n      dup4\n        /* \"@openzeppelin/contracts/utils/Address.sol\":7876:7893  returndata.length */\n      mload\n        /* \"@openzeppelin/contracts/utils/Address.sol\":7876:7897  returndata.length > 0 */\n      gt\n        /* \"@openzeppelin/contracts/utils/Address.sol\":7872:8287  if (returndata.length > 0) {... */\n      iszero\n      tag_504\n      jumpi\n        /* \"@openzeppelin/contracts/utils/Address.sol\":8120:8130  returndata */\n      dup3\n        /* \"@openzeppelin/contracts/utils/Address.sol\":8114:8131  mload(returndata) */\n      mload\n        /* \"@openzeppelin/contracts/utils/Address.sol\":8180:8195  returndata_size */\n      dup1\n        /* \"@openzeppelin/contracts/utils/Address.sol\":8167:8177  returndata */\n      dup5\n        /* \"@openzeppelin/contracts/utils/Address.sol\":8163:8165  32 */\n      0x20\n        /* \"@openzeppelin/contracts/utils/Address.sol\":8159:8178  add(32, returndata) */\n      add\n        /* \"@openzeppelin/contracts/utils/Address.sol\":8152:8196  revert(add(32, returndata), returndata_size) */\n      revert\n        /* \"@openzeppelin/contracts/utils/Address.sol\":7872:8287  if (returndata.length > 0) {... */\n    tag_504:\n        /* \"@openzeppelin/contracts/utils/Address.sol\":8259:8271  errorMessage */\n      dup2\n        /* \"@openzeppelin/contracts/utils/Address.sol\":8252:8272  revert(errorMessage) */\n      mload(0x40)\n      0x08c379a000000000000000000000000000000000000000000000000000000000\n      dup2\n      mstore\n      0x04\n      add\n      tag_506\n      swap2\n      swap1\n      tag_507\n      jump\t// in\n    tag_506:\n      mload(0x40)\n      dup1\n      swap2\n      sub\n      swap1\n      revert\n        /* \"@openzeppelin/contracts/utils/Address.sol\":7561:8303  function verifyCallResult(... */\n    tag_501:\n      swap4\n      swap3\n      pop\n      pop\n      pop\n      jump\t// out\n        /* \"#utility.yul\":24:768   */\n    tag_509:\n        /* \"#utility.yul\":131:136   */\n      0x00\n        /* \"#utility.yul\":156:237   */\n      tag_511\n        /* \"#utility.yul\":172:236   */\n      tag_512\n        /* \"#utility.yul\":229:235   */\n      dup5\n        /* \"#utility.yul\":172:236   */\n      tag_513\n      jump\t// in\n    tag_512:\n        /* \"#utility.yul\":156:237   */\n      tag_514\n      jump\t// in\n    tag_511:\n        /* \"#utility.yul\":147:237   */\n      swap1\n      pop\n        /* \"#utility.yul\":257:262   */\n      dup1\n        /* \"#utility.yul\":286:292   */\n      dup4\n        /* \"#utility.yul\":279:284   */\n      dup3\n        /* \"#utility.yul\":272:293   */\n      mstore\n        /* \"#utility.yul\":320:324   */\n      0x20\n        /* \"#utility.yul\":313:318   */\n      dup3\n        /* \"#utility.yul\":309:325   */\n      add\n        /* \"#utility.yul\":302:325   */\n      swap1\n      pop\n        /* \"#utility.yul\":346:352   */\n      dup3\n        /* \"#utility.yul\":396:399   */\n      dup6\n        /* \"#utility.yul\":388:392   */\n      0x20\n        /* \"#utility.yul\":380:386   */\n      dup7\n        /* \"#utility.yul\":376:393   */\n      mul\n        /* \"#utility.yul\":371:374   */\n      dup3\n        /* \"#utility.yul\":367:394   */\n      add\n        /* \"#utility.yul\":364:400   */\n      gt\n        /* \"#utility.yul\":361:504   */\n      iszero\n      tag_515\n      jumpi\n        /* \"#utility.yul\":415:494   */\n      tag_516\n      tag_517\n      jump\t// in\n    tag_516:\n        /* \"#utility.yul\":361:504   */\n    tag_515:\n        /* \"#utility.yul\":528:529   */\n      0x00\n        /* \"#utility.yul\":513:762   */\n    tag_518:\n        /* \"#utility.yul\":538:544   */\n      dup6\n        /* \"#utility.yul\":535:536   */\n      dup2\n        /* \"#utility.yul\":532:545   */\n      lt\n        /* \"#utility.yul\":513:762   */\n      iszero\n      tag_520\n      jumpi\n        /* \"#utility.yul\":606:609   */\n      dup2\n        /* \"#utility.yul\":635:683   */\n      tag_521\n        /* \"#utility.yul\":679:682   */\n      dup9\n        /* \"#utility.yul\":667:677   */\n      dup3\n        /* \"#utility.yul\":635:683   */\n      tag_522\n      jump\t// in\n    tag_521:\n        /* \"#utility.yul\":630:633   */\n      dup5\n        /* \"#utility.yul\":623:684   */\n      mstore\n        /* \"#utility.yul\":713:717   */\n      0x20\n        /* \"#utility.yul\":708:711   */\n      dup5\n        /* \"#utility.yul\":704:718   */\n      add\n        /* \"#utility.yul\":697:718   */\n      swap4\n      pop\n        /* \"#utility.yul\":747:751   */\n      0x20\n        /* \"#utility.yul\":742:745   */\n      dup4\n        /* \"#utility.yul\":738:752   */\n      add\n        /* \"#utility.yul\":731:752   */\n      swap3\n      pop\n        /* \"#utility.yul\":573:762   */\n      pop\n        /* \"#utility.yul\":560:561   */\n      0x01\n        /* \"#utility.yul\":557:558   */\n      dup2\n        /* \"#utility.yul\":553:562   */\n      add\n        /* \"#utility.yul\":548:562   */\n      swap1\n      pop\n        /* \"#utility.yul\":513:762   */\n      jump(tag_518)\n    tag_520:\n        /* \"#utility.yul\":517:531   */\n      pop\n        /* \"#utility.yul\":137:768   */\n      pop\n      pop\n        /* \"#utility.yul\":24:768   */\n      swap4\n      swap3\n      pop\n      pop\n      pop\n      jump\t// out\n        /* \"#utility.yul\":774:913   */\n    tag_523:\n        /* \"#utility.yul\":820:825   */\n      0x00\n        /* \"#utility.yul\":858:864   */\n      dup2\n        /* \"#utility.yul\":845:865   */\n      calldataload\n        /* \"#utility.yul\":836:865   */\n      swap1\n      pop\n        /* \"#utility.yul\":874:907   */\n      tag_525\n        /* \"#utility.yul\":901:906   */\n      dup2\n        /* \"#utility.yul\":874:907   */\n      tag_526\n      jump\t// in\n    tag_525:\n        /* \"#utility.yul\":774:913   */\n      swap3\n      swap2\n      pop\n      pop\n      jump\t// out\n        /* \"#utility.yul\":919:1062   */\n    tag_527:\n        /* \"#utility.yul\":976:981   */\n      0x00\n        /* \"#utility.yul\":1007:1013   */\n      dup2\n        /* \"#utility.yul\":1001:1014   */\n      mload\n        /* \"#utility.yul\":992:1014   */\n      swap1\n      pop\n        /* \"#utility.yul\":1023:1056   */\n      tag_529\n        /* \"#utility.yul\":1050:1055   */\n      dup2\n        /* \"#utility.yul\":1023:1056   */\n      tag_526\n      jump\t// in\n    tag_529:\n        /* \"#utility.yul\":919:1062   */\n      swap3\n      swap2\n      pop\n      pop\n      jump\t// out\n        /* \"#utility.yul\":1085:1470   */\n    tag_530:\n        /* \"#utility.yul\":1167:1172   */\n      0x00\n        /* \"#utility.yul\":1216:1219   */\n      dup3\n        /* \"#utility.yul\":1209:1213   */\n      0x1f\n        /* \"#utility.yul\":1201:1207   */\n      dup4\n        /* \"#utility.yul\":1197:1214   */\n      add\n        /* \"#utility.yul\":1193:1220   */\n      slt\n        /* \"#utility.yul\":1183:1305   */\n      tag_532\n      jumpi\n        /* \"#utility.yul\":1224:1303   */\n      tag_533\n      tag_534\n      jump\t// in\n    tag_533:\n        /* \"#utility.yul\":1183:1305   */\n    tag_532:\n        /* \"#utility.yul\":1334:1340   */\n      dup2\n        /* \"#utility.yul\":1328:1341   */\n      mload\n        /* \"#utility.yul\":1359:1464   */\n      tag_535\n        /* \"#utility.yul\":1460:1463   */\n      dup5\n        /* \"#utility.yul\":1452:1458   */\n      dup3\n        /* \"#utility.yul\":1445:1449   */\n      0x20\n        /* \"#utility.yul\":1437:1443   */\n      dup7\n        /* \"#utility.yul\":1433:1450   */\n      add\n        /* \"#utility.yul\":1359:1464   */\n      tag_509\n      jump\t// in\n    tag_535:\n        /* \"#utility.yul\":1350:1464   */\n      swap2\n      pop\n        /* \"#utility.yul\":1173:1470   */\n      pop\n        /* \"#utility.yul\":1085:1470   */\n      swap3\n      swap2\n      pop\n      pop\n      jump\t// out\n        /* \"#utility.yul\":1476:1613   */\n    tag_536:\n        /* \"#utility.yul\":1530:1535   */\n      0x00\n        /* \"#utility.yul\":1561:1567   */\n      dup2\n        /* \"#utility.yul\":1555:1568   */\n      mload\n        /* \"#utility.yul\":1546:1568   */\n      swap1\n      pop\n        /* \"#utility.yul\":1577:1607   */\n      tag_538\n        /* \"#utility.yul\":1601:1606   */\n      dup2\n        /* \"#utility.yul\":1577:1607   */\n      tag_539\n      jump\t// in\n    tag_538:\n        /* \"#utility.yul\":1476:1613   */\n      swap3\n      swap2\n      pop\n      pop\n      jump\t// out\n        /* \"#utility.yul\":1619:1762   */\n    tag_540:\n        /* \"#utility.yul\":1676:1681   */\n      0x00\n        /* \"#utility.yul\":1707:1713   */\n      dup2\n        /* \"#utility.yul\":1701:1714   */\n      mload\n        /* \"#utility.yul\":1692:1714   */\n      swap1\n      pop\n        /* \"#utility.yul\":1723:1756   */\n      tag_542\n        /* \"#utility.yul\":1750:1755   */\n      dup2\n        /* \"#utility.yul\":1723:1756   */\n      tag_543\n      jump\t// in\n    tag_542:\n        /* \"#utility.yul\":1619:1762   */\n      swap3\n      swap2\n      pop\n      pop\n      jump\t// out\n        /* \"#utility.yul\":1768:1907   */\n    tag_544:\n        /* \"#utility.yul\":1814:1819   */\n      0x00\n        /* \"#utility.yul\":1852:1858   */\n      dup2\n        /* \"#utility.yul\":1839:1859   */\n      calldataload\n        /* \"#utility.yul\":1830:1859   */\n      swap1\n      pop\n        /* \"#utility.yul\":1868:1901   */\n      tag_546\n        /* \"#utility.yul\":1895:1900   */\n      dup2\n        /* \"#utility.yul\":1868:1901   */\n      tag_547\n      jump\t// in\n    tag_546:\n        /* \"#utility.yul\":1768:1907   */\n      swap3\n      swap2\n      pop\n      pop\n      jump\t// out\n        /* \"#utility.yul\":1913:2056   */\n    tag_522:\n        /* \"#utility.yul\":1970:1975   */\n      0x00\n        /* \"#utility.yul\":2001:2007   */\n      dup2\n        /* \"#utility.yul\":1995:2008   */\n      mload\n        /* \"#utility.yul\":1986:2008   */\n      swap1\n      pop\n        /* \"#utility.yul\":2017:2050   */\n      tag_549\n        /* \"#utility.yul\":2044:2049   */\n      dup2\n        /* \"#utility.yul\":2017:2050   */\n      tag_547\n      jump\t// in\n    tag_549:\n        /* \"#utility.yul\":1913:2056   */\n      swap3\n      swap2\n      pop\n      pop\n      jump\t// out\n        /* \"#utility.yul\":2062:2203   */\n    tag_550:\n        /* \"#utility.yul\":2118:2123   */\n      0x00\n        /* \"#utility.yul\":2149:2155   */\n      dup2\n        /* \"#utility.yul\":2143:2156   */\n      mload\n        /* \"#utility.yul\":2134:2156   */\n      swap1\n      pop\n        /* \"#utility.yul\":2165:2197   */\n      tag_552\n        /* \"#utility.yul\":2191:2196   */\n      dup2\n        /* \"#utility.yul\":2165:2197   */\n      tag_553\n      jump\t// in\n    tag_552:\n        /* \"#utility.yul\":2062:2203   */\n      swap3\n      swap2\n      pop\n      pop\n      jump\t// out\n        /* \"#utility.yul\":2209:2560   */\n    tag_75:\n        /* \"#utility.yul\":2279:2285   */\n      0x00\n        /* \"#utility.yul\":2328:2330   */\n      0x20\n        /* \"#utility.yul\":2316:2325   */\n      dup3\n        /* \"#utility.yul\":2307:2314   */\n      dup5\n        /* \"#utility.yul\":2303:2326   */\n      sub\n        /* \"#utility.yul\":2299:2331   */\n      slt\n        /* \"#utility.yul\":2296:2415   */\n      iszero\n      tag_555\n      jumpi\n        /* \"#utility.yul\":2334:2413   */\n      tag_556\n      tag_557\n      jump\t// in\n    tag_556:\n        /* \"#utility.yul\":2296:2415   */\n    tag_555:\n        /* \"#utility.yul\":2454:2455   */\n      0x00\n        /* \"#utility.yul\":2479:2543   */\n      tag_558\n        /* \"#utility.yul\":2535:2542   */\n      dup5\n        /* \"#utility.yul\":2526:2532   */\n      dup3\n        /* \"#utility.yul\":2515:2524   */\n      dup6\n        /* \"#utility.yul\":2511:2533   */\n      add\n        /* \"#utility.yul\":2479:2543   */\n      tag_527\n      jump\t// in\n    tag_558:\n        /* \"#utility.yul\":2469:2543   */\n      swap2\n      pop\n        /* \"#utility.yul\":2425:2553   */\n      pop\n        /* \"#utility.yul\":2209:2560   */\n      swap3\n      swap2\n      pop\n      pop\n      jump\t// out\n        /* \"#utility.yul\":2566:3185   */\n    tag_22:\n        /* \"#utility.yul\":2643:2649   */\n      0x00\n        /* \"#utility.yul\":2651:2657   */\n      dup1\n        /* \"#utility.yul\":2659:2665   */\n      0x00\n        /* \"#utility.yul\":2708:2710   */\n      0x60\n        /* \"#utility.yul\":2696:2705   */\n      dup5\n        /* \"#utility.yul\":2687:2694   */\n      dup7\n        /* \"#utility.yul\":2683:2706   */\n      sub\n        /* \"#utility.yul\":2679:2711   */\n      slt\n        /* \"#utility.yul\":2676:2795   */\n      iszero\n      tag_560\n      jumpi\n        /* \"#utility.yul\":2714:2793   */\n      tag_561\n      tag_557\n      jump\t// in\n    tag_561:\n        /* \"#utility.yul\":2676:2795   */\n    tag_560:\n        /* \"#utility.yul\":2834:2835   */\n      0x00\n        /* \"#utility.yul\":2859:2912   */\n      tag_562\n        /* \"#utility.yul\":2904:2911   */\n      dup7\n        /* \"#utility.yul\":2895:2901   */\n      dup3\n        /* \"#utility.yul\":2884:2893   */\n      dup8\n        /* \"#utility.yul\":2880:2902   */\n      add\n        /* \"#utility.yul\":2859:2912   */\n      tag_523\n      jump\t// in\n    tag_562:\n        /* \"#utility.yul\":2849:2912   */\n      swap4\n      pop\n        /* \"#utility.yul\":2805:2922   */\n      pop\n        /* \"#utility.yul\":2961:2963   */\n      0x20\n        /* \"#utility.yul\":2987:3040   */\n      tag_563\n        /* \"#utility.yul\":3032:3039   */\n      dup7\n        /* \"#utility.yul\":3023:3029   */\n      dup3\n        /* \"#utility.yul\":3012:3021   */\n      dup8\n        /* \"#utility.yul\":3008:3030   */\n      add\n        /* \"#utility.yul\":2987:3040   */\n      tag_523\n      jump\t// in\n    tag_563:\n        /* \"#utility.yul\":2977:3040   */\n      swap3\n      pop\n        /* \"#utility.yul\":2932:3050   */\n      pop\n        /* \"#utility.yul\":3089:3091   */\n      0x40\n        /* \"#utility.yul\":3115:3168   */\n      tag_564\n        /* \"#utility.yul\":3160:3167   */\n      dup7\n        /* \"#utility.yul\":3151:3157   */\n      dup3\n        /* \"#utility.yul\":3140:3149   */\n      dup8\n        /* \"#utility.yul\":3136:3158   */\n      add\n        /* \"#utility.yul\":3115:3168   */\n      tag_544\n      jump\t// in\n    tag_564:\n        /* \"#utility.yul\":3105:3168   */\n      swap2\n      pop\n        /* \"#utility.yul\":3060:3178   */\n      pop\n        /* \"#utility.yul\":2566:3185   */\n      swap3\n      pop\n      swap3\n      pop\n      swap3\n      jump\t// out\n        /* \"#utility.yul\":3191:3665   */\n    tag_33:\n        /* \"#utility.yul\":3259:3265   */\n      0x00\n        /* \"#utility.yul\":3267:3273   */\n      dup1\n        /* \"#utility.yul\":3316:3318   */\n      0x40\n        /* \"#utility.yul\":3304:3313   */\n      dup4\n        /* \"#utility.yul\":3295:3302   */\n      dup6\n        /* \"#utility.yul\":3291:3314   */\n      sub\n        /* \"#utility.yul\":3287:3319   */\n      slt\n        /* \"#utility.yul\":3284:3403   */\n      iszero\n      tag_566\n      jumpi\n        /* \"#utility.yul\":3322:3401   */\n      tag_567\n      tag_557\n      jump\t// in\n    tag_567:\n        /* \"#utility.yul\":3284:3403   */\n    tag_566:\n        /* \"#utility.yul\":3442:3443   */\n      0x00\n        /* \"#utility.yul\":3467:3520   */\n      tag_568\n        /* \"#utility.yul\":3512:3519   */\n      dup6\n        /* \"#utility.yul\":3503:3509   */\n      dup3\n        /* \"#utility.yul\":3492:3501   */\n      dup7\n        /* \"#utility.yul\":3488:3510   */\n      add\n        /* \"#utility.yul\":3467:3520   */\n      tag_523\n      jump\t// in\n    tag_568:\n        /* \"#utility.yul\":3457:3520   */\n      swap3\n      pop\n        /* \"#utility.yul\":3413:3530   */\n      pop\n        /* \"#utility.yul\":3569:3571   */\n      0x20\n        /* \"#utility.yul\":3595:3648   */\n      tag_569\n        /* \"#utility.yul\":3640:3647   */\n      dup6\n        /* \"#utility.yul\":3631:3637   */\n      dup3\n        /* \"#utility.yul\":3620:3629   */\n      dup7\n        /* \"#utility.yul\":3616:3638   */\n      add\n        /* \"#utility.yul\":3595:3648   */\n      tag_544\n      jump\t// in\n    tag_569:\n        /* \"#utility.yul\":3585:3648   */\n      swap2\n      pop\n        /* \"#utility.yul\":3540:3658   */\n      pop\n        /* \"#utility.yul\":3191:3665   */\n      swap3\n      pop\n      swap3\n      swap1\n      pop\n      jump\t// out\n        /* \"#utility.yul\":3671:4436   */\n    tag_29:\n        /* \"#utility.yul\":3757:3763   */\n      0x00\n        /* \"#utility.yul\":3765:3771   */\n      dup1\n        /* \"#utility.yul\":3773:3779   */\n      0x00\n        /* \"#utility.yul\":3781:3787   */\n      dup1\n        /* \"#utility.yul\":3830:3833   */\n      0x80\n        /* \"#utility.yul\":3818:3827   */\n      dup6\n        /* \"#utility.yul\":3809:3816   */\n      dup8\n        /* \"#utility.yul\":3805:3828   */\n      sub\n        /* \"#utility.yul\":3801:3834   */\n      slt\n        /* \"#utility.yul\":3798:3918   */\n      iszero\n      tag_571\n      jumpi\n        /* \"#utility.yul\":3837:3916   */\n      tag_572\n      tag_557\n      jump\t// in\n    tag_572:\n        /* \"#utility.yul\":3798:3918   */\n    tag_571:\n        /* \"#utility.yul\":3957:3958   */\n      0x00\n        /* \"#utility.yul\":3982:4035   */\n      tag_573\n        /* \"#utility.yul\":4027:4034   */\n      dup8\n        /* \"#utility.yul\":4018:4024   */\n      dup3\n        /* \"#utility.yul\":4007:4016   */\n      dup9\n        /* \"#utility.yul\":4003:4025   */\n      add\n        /* \"#utility.yul\":3982:4035   */\n      tag_523\n      jump\t// in\n    tag_573:\n        /* \"#utility.yul\":3972:4035   */\n      swap5\n      pop\n        /* \"#utility.yul\":3928:4045   */\n      pop\n        /* \"#utility.yul\":4084:4086   */\n      0x20\n        /* \"#utility.yul\":4110:4163   */\n      tag_574\n        /* \"#utility.yul\":4155:4162   */\n      dup8\n        /* \"#utility.yul\":4146:4152   */\n      dup3\n        /* \"#utility.yul\":4135:4144   */\n      dup9\n        /* \"#utility.yul\":4131:4153   */\n      add\n        /* \"#utility.yul\":4110:4163   */\n      tag_544\n      jump\t// in\n    tag_574:\n        /* \"#utility.yul\":4100:4163   */\n      swap4\n      pop\n        /* \"#utility.yul\":4055:4173   */\n      pop\n        /* \"#utility.yul\":4212:4214   */\n      0x40\n        /* \"#utility.yul\":4238:4291   */\n      tag_575\n        /* \"#utility.yul\":4283:4290   */\n      dup8\n        /* \"#utility.yul\":4274:4280   */\n      dup3\n        /* \"#utility.yul\":4263:4272   */\n      dup9\n        /* \"#utility.yul\":4259:4281   */\n      add\n        /* \"#utility.yul\":4238:4291   */\n      tag_523\n      jump\t// in\n    tag_575:\n        /* \"#utility.yul\":4228:4291   */\n      swap3\n      pop\n        /* \"#utility.yul\":4183:4301   */\n      pop\n        /* \"#utility.yul\":4340:4342   */\n      0x60\n        /* \"#utility.yul\":4366:4419   */\n      tag_576\n        /* \"#utility.yul\":4411:4418   */\n      dup8\n        /* \"#utility.yul\":4402:4408   */\n      dup3\n        /* \"#utility.yul\":4391:4400   */\n      dup9\n        /* \"#utility.yul\":4387:4409   */\n      add\n        /* \"#utility.yul\":4366:4419   */\n      tag_544\n      jump\t// in\n    tag_576:\n        /* \"#utility.yul\":4356:4419   */\n      swap2\n      pop\n        /* \"#utility.yul\":4311:4429   */\n      pop\n        /* \"#utility.yul\":3671:4436   */\n      swap3\n      swap6\n      swap2\n      swap5\n      pop\n      swap3\n      pop\n      jump\t// out\n        /* \"#utility.yul\":4442:4996   */\n    tag_225:\n        /* \"#utility.yul\":4537:4543   */\n      0x00\n        /* \"#utility.yul\":4586:4588   */\n      0x20\n        /* \"#utility.yul\":4574:4583   */\n      dup3\n        /* \"#utility.yul\":4565:4572   */\n      dup5\n        /* \"#utility.yul\":4561:4584   */\n      sub\n        /* \"#utility.yul\":4557:4589   */\n      slt\n        /* \"#utility.yul\":4554:4673   */\n      iszero\n      tag_578\n      jumpi\n        /* \"#utility.yul\":4592:4671   */\n      tag_579\n      tag_557\n      jump\t// in\n    tag_579:\n        /* \"#utility.yul\":4554:4673   */\n    tag_578:\n        /* \"#utility.yul\":4733:4734   */\n      0x00\n        /* \"#utility.yul\":4722:4731   */\n      dup3\n        /* \"#utility.yul\":4718:4735   */\n      add\n        /* \"#utility.yul\":4712:4736   */\n      mload\n        /* \"#utility.yul\":4763:4781   */\n      0xffffffffffffffff\n        /* \"#utility.yul\":4755:4761   */\n      dup2\n        /* \"#utility.yul\":4752:4782   */\n      gt\n        /* \"#utility.yul\":4749:4866   */\n      iszero\n      tag_580\n      jumpi\n        /* \"#utility.yul\":4785:4864   */\n      tag_581\n      tag_582\n      jump\t// in\n    tag_581:\n        /* \"#utility.yul\":4749:4866   */\n    tag_580:\n        /* \"#utility.yul\":4890:4979   */\n      tag_583\n        /* \"#utility.yul\":4971:4978   */\n      dup5\n        /* \"#utility.yul\":4962:4968   */\n      dup3\n        /* \"#utility.yul\":4951:4960   */\n      dup6\n        /* \"#utility.yul\":4947:4969   */\n      add\n        /* \"#utility.yul\":4890:4979   */\n      tag_530\n      jump\t// in\n    tag_583:\n        /* \"#utility.yul\":4880:4979   */\n      swap2\n      pop\n        /* \"#utility.yul\":4683:4989   */\n      pop\n        /* \"#utility.yul\":4442:4996   */\n      swap3\n      swap2\n      pop\n      pop\n      jump\t// out\n        /* \"#utility.yul\":5002:5347   */\n    tag_462:\n        /* \"#utility.yul\":5069:5075   */\n      0x00\n        /* \"#utility.yul\":5118:5120   */\n      0x20\n        /* \"#utility.yul\":5106:5115   */\n      dup3\n        /* \"#utility.yul\":5097:5104   */\n      dup5\n        /* \"#utility.yul\":5093:5116   */\n      sub\n        /* \"#utility.yul\":5089:5121   */\n      slt\n        /* \"#utility.yul\":5086:5205   */\n      iszero\n      tag_585\n      jumpi\n        /* \"#utility.yul\":5124:5203   */\n      tag_586\n      tag_557\n      jump\t// in\n    tag_586:\n        /* \"#utility.yul\":5086:5205   */\n    tag_585:\n        /* \"#utility.yul\":5244:5245   */\n      0x00\n        /* \"#utility.yul\":5269:5330   */\n      tag_587\n        /* \"#utility.yul\":5322:5329   */\n      dup5\n        /* \"#utility.yul\":5313:5319   */\n      dup3\n        /* \"#utility.yul\":5302:5311   */\n      dup6\n        /* \"#utility.yul\":5298:5320   */\n      add\n        /* \"#utility.yul\":5269:5330   */\n      tag_536\n      jump\t// in\n    tag_587:\n        /* \"#utility.yul\":5259:5330   */\n      swap2\n      pop\n        /* \"#utility.yul\":5215:5340   */\n      pop\n        /* \"#utility.yul\":5002:5347   */\n      swap3\n      swap2\n      pop\n      pop\n      jump\t// out\n        /* \"#utility.yul\":5353:6014   */\n    tag_88:\n        /* \"#utility.yul\":5440:5446   */\n      0x00\n        /* \"#utility.yul\":5448:5454   */\n      dup1\n        /* \"#utility.yul\":5456:5462   */\n      0x00\n        /* \"#utility.yul\":5505:5507   */\n      0x60\n        /* \"#utility.yul\":5493:5502   */\n      dup5\n        /* \"#utility.yul\":5484:5491   */\n      dup7\n        /* \"#utility.yul\":5480:5503   */\n      sub\n        /* \"#utility.yul\":5476:5508   */\n      slt\n        /* \"#utility.yul\":5473:5592   */\n      iszero\n      tag_589\n      jumpi\n        /* \"#utility.yul\":5511:5590   */\n      tag_590\n      tag_557\n      jump\t// in\n    tag_590:\n        /* \"#utility.yul\":5473:5592   */\n    tag_589:\n        /* \"#utility.yul\":5631:5632   */\n      0x00\n        /* \"#utility.yul\":5656:5720   */\n      tag_591\n        /* \"#utility.yul\":5712:5719   */\n      dup7\n        /* \"#utility.yul\":5703:5709   */\n      dup3\n        /* \"#utility.yul\":5692:5701   */\n      dup8\n        /* \"#utility.yul\":5688:5710   */\n      add\n        /* \"#utility.yul\":5656:5720   */\n      tag_540\n      jump\t// in\n    tag_591:\n        /* \"#utility.yul\":5646:5720   */\n      swap4\n      pop\n        /* \"#utility.yul\":5602:5730   */\n      pop\n        /* \"#utility.yul\":5769:5771   */\n      0x20\n        /* \"#utility.yul\":5795:5859   */\n      tag_592\n        /* \"#utility.yul\":5851:5858   */\n      dup7\n        /* \"#utility.yul\":5842:5848   */\n      dup3\n        /* \"#utility.yul\":5831:5840   */\n      dup8\n        /* \"#utility.yul\":5827:5849   */\n      add\n        /* \"#utility.yul\":5795:5859   */\n      tag_540\n      jump\t// in\n    tag_592:\n        /* \"#utility.yul\":5785:5859   */\n      swap3\n      pop\n        /* \"#utility.yul\":5740:5869   */\n      pop\n        /* \"#utility.yul\":5908:5910   */\n      0x40\n        /* \"#utility.yul\":5934:5997   */\n      tag_593\n        /* \"#utility.yul\":5989:5996   */\n      dup7\n        /* \"#utility.yul\":5980:5986   */\n      dup3\n        /* \"#utility.yul\":5969:5978   */\n      dup8\n        /* \"#utility.yul\":5965:5987   */\n      add\n        /* \"#utility.yul\":5934:5997   */\n      tag_550\n      jump\t// in\n    tag_593:\n        /* \"#utility.yul\":5924:5997   */\n      swap2\n      pop\n        /* \"#utility.yul\":5879:6007   */\n      pop\n        /* \"#utility.yul\":5353:6014   */\n      swap3\n      pop\n      swap3\n      pop\n      swap3\n      jump\t// out\n        /* \"#utility.yul\":6020:6371   */\n    tag_99:\n        /* \"#utility.yul\":6090:6096   */\n      0x00\n        /* \"#utility.yul\":6139:6141   */\n      0x20\n        /* \"#utility.yul\":6127:6136   */\n      dup3\n        /* \"#utility.yul\":6118:6125   */\n      dup5\n        /* \"#utility.yul\":6114:6137   */\n      sub\n        /* \"#utility.yul\":6110:6142   */\n      slt\n        /* \"#utility.yul\":6107:6226   */\n      iszero\n      tag_595\n      jumpi\n        /* \"#utility.yul\":6145:6224   */\n      tag_596\n      tag_557\n      jump\t// in\n    tag_596:\n        /* \"#utility.yul\":6107:6226   */\n    tag_595:\n        /* \"#utility.yul\":6265:6266   */\n      0x00\n        /* \"#utility.yul\":6290:6354   */\n      tag_597\n        /* \"#utility.yul\":6346:6353   */\n      dup5\n        /* \"#utility.yul\":6337:6343   */\n      dup3\n        /* \"#utility.yul\":6326:6335   */\n      dup6\n        /* \"#utility.yul\":6322:6344   */\n      add\n        /* \"#utility.yul\":6290:6354   */\n      tag_522\n      jump\t// in\n    tag_597:\n        /* \"#utility.yul\":6280:6354   */\n      swap2\n      pop\n        /* \"#utility.yul\":6236:6364   */\n      pop\n        /* \"#utility.yul\":6020:6371   */\n      swap3\n      swap2\n      pop\n      pop\n      jump\t// out\n        /* \"#utility.yul\":6377:6884   */\n    tag_371:\n        /* \"#utility.yul\":6456:6462   */\n      0x00\n        /* \"#utility.yul\":6464:6470   */\n      dup1\n        /* \"#utility.yul\":6513:6515   */\n      0x40\n        /* \"#utility.yul\":6501:6510   */\n      dup4\n        /* \"#utility.yul\":6492:6499   */\n      dup6\n        /* \"#utility.yul\":6488:6511   */\n      sub\n        /* \"#utility.yul\":6484:6516   */\n      slt\n        /* \"#utility.yul\":6481:6600   */\n      iszero\n      tag_599\n      jumpi\n        /* \"#utility.yul\":6519:6598   */\n      tag_600\n      tag_557\n      jump\t// in\n    tag_600:\n        /* \"#utility.yul\":6481:6600   */\n    tag_599:\n        /* \"#utility.yul\":6639:6640   */\n      0x00\n        /* \"#utility.yul\":6664:6728   */\n      tag_601\n        /* \"#utility.yul\":6720:6727   */\n      dup6\n        /* \"#utility.yul\":6711:6717   */\n      dup3\n        /* \"#utility.yul\":6700:6709   */\n      dup7\n        /* \"#utility.yul\":6696:6718   */\n      add\n        /* \"#utility.yul\":6664:6728   */\n      tag_522\n      jump\t// in\n    tag_601:\n        /* \"#utility.yul\":6654:6728   */\n      swap3\n      pop\n        /* \"#utility.yul\":6610:6738   */\n      pop\n        /* \"#utility.yul\":6777:6779   */\n      0x20\n        /* \"#utility.yul\":6803:6867   */\n      tag_602\n        /* \"#utility.yul\":6859:6866   */\n      dup6\n        /* \"#utility.yul\":6850:6856   */\n      dup3\n        /* \"#utility.yul\":6839:6848   */\n      dup7\n        /* \"#utility.yul\":6835:6857   */\n      add\n        /* \"#utility.yul\":6803:6867   */\n      tag_522\n      jump\t// in\n    tag_602:\n        /* \"#utility.yul\":6793:6867   */\n      swap2\n      pop\n        /* \"#utility.yul\":6748:6877   */\n      pop\n        /* \"#utility.yul\":6377:6884   */\n      swap3\n      pop\n      swap3\n      swap1\n      pop\n      jump\t// out\n        /* \"#utility.yul\":6890:7553   */\n    tag_345:\n        /* \"#utility.yul\":6978:6984   */\n      0x00\n        /* \"#utility.yul\":6986:6992   */\n      dup1\n        /* \"#utility.yul\":6994:7000   */\n      0x00\n        /* \"#utility.yul\":7043:7045   */\n      0x60\n        /* \"#utility.yul\":7031:7040   */\n      dup5\n        /* \"#utility.yul\":7022:7029   */\n      dup7\n        /* \"#utility.yul\":7018:7041   */\n      sub\n        /* \"#utility.yul\":7014:7046   */\n      slt\n        /* \"#utility.yul\":7011:7130   */\n      iszero\n      tag_604\n      jumpi\n        /* \"#utility.yul\":7049:7128   */\n      tag_605\n      tag_557\n      jump\t// in\n    tag_605:\n        /* \"#utility.yul\":7011:7130   */\n    tag_604:\n        /* \"#utility.yul\":7169:7170   */\n      0x00\n        /* \"#utility.yul\":7194:7258   */\n      tag_606\n        /* \"#utility.yul\":7250:7257   */\n      dup7\n        /* \"#utility.yul\":7241:7247   */\n      dup3\n        /* \"#utility.yul\":7230:7239   */\n      dup8\n        /* \"#utility.yul\":7226:7248   */\n      add\n        /* \"#utility.yul\":7194:7258   */\n      tag_522\n      jump\t// in\n    tag_606:\n        /* \"#utility.yul\":7184:7258   */\n      swap4\n      pop\n        /* \"#utility.yul\":7140:7268   */\n      pop\n        /* \"#utility.yul\":7307:7309   */\n      0x20\n        /* \"#utility.yul\":7333:7397   */\n      tag_607\n        /* \"#utility.yul\":7389:7396   */\n      dup7\n        /* \"#utility.yul\":7380:7386   */\n      dup3\n        /* \"#utility.yul\":7369:7378   */\n      dup8\n        /* \"#utility.yul\":7365:7387   */\n      add\n        /* \"#utility.yul\":7333:7397   */\n      tag_522\n      jump\t// in\n    tag_607:\n        /* \"#utility.yul\":7323:7397   */\n      swap3\n      pop\n        /* \"#utility.yul\":7278:7407   */\n      pop\n        /* \"#utility.yul\":7446:7448   */\n      0x40\n        /* \"#utility.yul\":7472:7536   */\n      tag_608\n        /* \"#utility.yul\":7528:7535   */\n      dup7\n        /* \"#utility.yul\":7519:7525   */\n      dup3\n        /* \"#utility.yul\":7508:7517   */\n      dup8\n        /* \"#utility.yul\":7504:7526   */\n      add\n        /* \"#utility.yul\":7472:7536   */\n      tag_522\n      jump\t// in\n    tag_608:\n        /* \"#utility.yul\":7462:7536   */\n      swap2\n      pop\n        /* \"#utility.yul\":7417:7546   */\n      pop\n        /* \"#utility.yul\":6890:7553   */\n      swap3\n      pop\n      swap3\n      pop\n      swap3\n      jump\t// out\n        /* \"#utility.yul\":7559:7738   */\n    tag_609:\n        /* \"#utility.yul\":7628:7638   */\n      0x00\n        /* \"#utility.yul\":7649:7695   */\n      tag_611\n        /* \"#utility.yul\":7691:7694   */\n      dup4\n        /* \"#utility.yul\":7683:7689   */\n      dup4\n        /* \"#utility.yul\":7649:7695   */\n      tag_612\n      jump\t// in\n    tag_611:\n        /* \"#utility.yul\":7727:7731   */\n      0x20\n        /* \"#utility.yul\":7722:7725   */\n      dup4\n        /* \"#utility.yul\":7718:7732   */\n      add\n        /* \"#utility.yul\":7704:7732   */\n      swap1\n      pop\n        /* \"#utility.yul\":7559:7738   */\n      swap3\n      swap2\n      pop\n      pop\n      jump\t// out\n        /* \"#utility.yul\":7744:7852   */\n    tag_612:\n        /* \"#utility.yul\":7821:7845   */\n      tag_614\n        /* \"#utility.yul\":7839:7844   */\n      dup2\n        /* \"#utility.yul\":7821:7845   */\n      tag_615\n      jump\t// in\n    tag_614:\n        /* \"#utility.yul\":7816:7819   */\n      dup3\n        /* \"#utility.yul\":7809:7846   */\n      mstore\n        /* \"#utility.yul\":7744:7852   */\n      pop\n      pop\n      jump\t// out\n        /* \"#utility.yul\":7858:7976   */\n    tag_616:\n        /* \"#utility.yul\":7945:7969   */\n      tag_618\n        /* \"#utility.yul\":7963:7968   */\n      dup2\n        /* \"#utility.yul\":7945:7969   */\n      tag_615\n      jump\t// in\n    tag_618:\n        /* \"#utility.yul\":7940:7943   */\n      dup3\n        /* \"#utility.yul\":7933:7970   */\n      mstore\n        /* \"#utility.yul\":7858:7976   */\n      pop\n      pop\n      jump\t// out\n        /* \"#utility.yul\":8012:8744   */\n    tag_619:\n        /* \"#utility.yul\":8131:8134   */\n      0x00\n        /* \"#utility.yul\":8160:8214   */\n      tag_621\n        /* \"#utility.yul\":8208:8213   */\n      dup3\n        /* \"#utility.yul\":8160:8214   */\n      tag_622\n      jump\t// in\n    tag_621:\n        /* \"#utility.yul\":8230:8316   */\n      tag_623\n        /* \"#utility.yul\":8309:8315   */\n      dup2\n        /* \"#utility.yul\":8304:8307   */\n      dup6\n        /* \"#utility.yul\":8230:8316   */\n      tag_624\n      jump\t// in\n    tag_623:\n        /* \"#utility.yul\":8223:8316   */\n      swap4\n      pop\n        /* \"#utility.yul\":8340:8396   */\n      tag_625\n        /* \"#utility.yul\":8390:8395   */\n      dup4\n        /* \"#utility.yul\":8340:8396   */\n      tag_626\n      jump\t// in\n    tag_625:\n        /* \"#utility.yul\":8419:8426   */\n      dup1\n        /* \"#utility.yul\":8450:8451   */\n      0x00\n        /* \"#utility.yul\":8435:8719   */\n    tag_627:\n        /* \"#utility.yul\":8460:8466   */\n      dup4\n        /* \"#utility.yul\":8457:8458   */\n      dup2\n        /* \"#utility.yul\":8454:8467   */\n      lt\n        /* \"#utility.yul\":8435:8719   */\n      iszero\n      tag_629\n      jumpi\n        /* \"#utility.yul\":8536:8542   */\n      dup2\n        /* \"#utility.yul\":8530:8543   */\n      mload\n        /* \"#utility.yul\":8563:8626   */\n      tag_630\n        /* \"#utility.yul\":8622:8625   */\n      dup9\n        /* \"#utility.yul\":8607:8620   */\n      dup3\n        /* \"#utility.yul\":8563:8626   */\n      tag_609\n      jump\t// in\n    tag_630:\n        /* \"#utility.yul\":8556:8626   */\n      swap8\n      pop\n        /* \"#utility.yul\":8649:8709   */\n      tag_631\n        /* \"#utility.yul\":8702:8708   */\n      dup4\n        /* \"#utility.yul\":8649:8709   */\n      tag_632\n      jump\t// in\n    tag_631:\n        /* \"#utility.yul\":8639:8709   */\n      swap3\n      pop\n        /* \"#utility.yul\":8495:8719   */\n      pop\n        /* \"#utility.yul\":8482:8483   */\n      0x01\n        /* \"#utility.yul\":8479:8480   */\n      dup2\n        /* \"#utility.yul\":8475:8484   */\n      add\n        /* \"#utility.yul\":8470:8484   */\n      swap1\n      pop\n        /* \"#utility.yul\":8435:8719   */\n      jump(tag_627)\n    tag_629:\n        /* \"#utility.yul\":8439:8453   */\n      pop\n        /* \"#utility.yul\":8735:8738   */\n      dup6\n        /* \"#utility.yul\":8728:8738   */\n      swap4\n      pop\n        /* \"#utility.yul\":8136:8744   */\n      pop\n      pop\n      pop\n        /* \"#utility.yul\":8012:8744   */\n      swap3\n      swap2\n      pop\n      pop\n      jump\t// out\n        /* \"#utility.yul\":8750:8859   */\n    tag_633:\n        /* \"#utility.yul\":8831:8852   */\n      tag_635\n        /* \"#utility.yul\":8846:8851   */\n      dup2\n        /* \"#utility.yul\":8831:8852   */\n      tag_636\n      jump\t// in\n    tag_635:\n        /* \"#utility.yul\":8826:8829   */\n      dup3\n        /* \"#utility.yul\":8819:8853   */\n      mstore\n        /* \"#utility.yul\":8750:8859   */\n      pop\n      pop\n      jump\t// out\n        /* \"#utility.yul\":8865:9238   */\n    tag_637:\n        /* \"#utility.yul\":8969:8972   */\n      0x00\n        /* \"#utility.yul\":8997:9035   */\n      tag_639\n        /* \"#utility.yul\":9029:9034   */\n      dup3\n        /* \"#utility.yul\":8997:9035   */\n      tag_640\n      jump\t// in\n    tag_639:\n        /* \"#utility.yul\":9051:9139   */\n      tag_641\n        /* \"#utility.yul\":9132:9138   */\n      dup2\n        /* \"#utility.yul\":9127:9130   */\n      dup6\n        /* \"#utility.yul\":9051:9139   */\n      tag_642\n      jump\t// in\n    tag_641:\n        /* \"#utility.yul\":9044:9139   */\n      swap4\n      pop\n        /* \"#utility.yul\":9148:9200   */\n      tag_643\n        /* \"#utility.yul\":9193:9199   */\n      dup2\n        /* \"#utility.yul\":9188:9191   */\n      dup6\n        /* \"#utility.yul\":9181:9185   */\n      0x20\n        /* \"#utility.yul\":9174:9179   */\n      dup7\n        /* \"#utility.yul\":9170:9186   */\n      add\n        /* \"#utility.yul\":9148:9200   */\n      tag_644\n      jump\t// in\n    tag_643:\n        /* \"#utility.yul\":9225:9231   */\n      dup1\n        /* \"#utility.yul\":9220:9223   */\n      dup5\n        /* \"#utility.yul\":9216:9232   */\n      add\n        /* \"#utility.yul\":9209:9232   */\n      swap2\n      pop\n        /* \"#utility.yul\":8973:9238   */\n      pop\n        /* \"#utility.yul\":8865:9238   */\n      swap3\n      swap2\n      pop\n      pop\n      jump\t// out\n        /* \"#utility.yul\":9244:9429   */\n    tag_645:\n        /* \"#utility.yul\":9358:9422   */\n      tag_647\n        /* \"#utility.yul\":9416:9421   */\n      dup2\n        /* \"#utility.yul\":9358:9422   */\n      tag_648\n      jump\t// in\n    tag_647:\n        /* \"#utility.yul\":9353:9356   */\n      dup3\n        /* \"#utility.yul\":9346:9423   */\n      mstore\n        /* \"#utility.yul\":9244:9429   */\n      pop\n      pop\n      jump\t// out\n        /* \"#utility.yul\":9435:9582   */\n    tag_649:\n        /* \"#utility.yul\":9530:9575   */\n      tag_651\n        /* \"#utility.yul\":9569:9574   */\n      dup2\n        /* \"#utility.yul\":9530:9575   */\n      tag_652\n      jump\t// in\n    tag_651:\n        /* \"#utility.yul\":9525:9528   */\n      dup3\n        /* \"#utility.yul\":9518:9576   */\n      mstore\n        /* \"#utility.yul\":9435:9582   */\n      pop\n      pop\n      jump\t// out\n        /* \"#utility.yul\":9588:9952   */\n    tag_653:\n        /* \"#utility.yul\":9676:9679   */\n      0x00\n        /* \"#utility.yul\":9704:9743   */\n      tag_655\n        /* \"#utility.yul\":9737:9742   */\n      dup3\n        /* \"#utility.yul\":9704:9743   */\n      tag_656\n      jump\t// in\n    tag_655:\n        /* \"#utility.yul\":9759:9830   */\n      tag_657\n        /* \"#utility.yul\":9823:9829   */\n      dup2\n        /* \"#utility.yul\":9818:9821   */\n      dup6\n        /* \"#utility.yul\":9759:9830   */\n      tag_658\n      jump\t// in\n    tag_657:\n        /* \"#utility.yul\":9752:9830   */\n      swap4\n      pop\n        /* \"#utility.yul\":9839:9891   */\n      tag_659\n        /* \"#utility.yul\":9884:9890   */\n      dup2\n        /* \"#utility.yul\":9879:9882   */\n      dup6\n        /* \"#utility.yul\":9872:9876   */\n      0x20\n        /* \"#utility.yul\":9865:9870   */\n      dup7\n        /* \"#utility.yul\":9861:9877   */\n      add\n        /* \"#utility.yul\":9839:9891   */\n      tag_644\n      jump\t// in\n    tag_659:\n        /* \"#utility.yul\":9916:9945   */\n      tag_660\n        /* \"#utility.yul\":9938:9944   */\n      dup2\n        /* \"#utility.yul\":9916:9945   */\n      tag_661\n      jump\t// in\n    tag_660:\n        /* \"#utility.yul\":9911:9914   */\n      dup5\n        /* \"#utility.yul\":9907:9946   */\n      add\n        /* \"#utility.yul\":9900:9946   */\n      swap2\n      pop\n        /* \"#utility.yul\":9680:9952   */\n      pop\n        /* \"#utility.yul\":9588:9952   */\n      swap3\n      swap2\n      pop\n      pop\n      jump\t// out\n        /* \"#utility.yul\":9958:10324   */\n    tag_662:\n        /* \"#utility.yul\":10100:10103   */\n      0x00\n        /* \"#utility.yul\":10121:10188   */\n      tag_664\n        /* \"#utility.yul\":10185:10187   */\n      0x29\n        /* \"#utility.yul\":10180:10183   */\n      dup4\n        /* \"#utility.yul\":10121:10188   */\n      tag_658\n      jump\t// in\n    tag_664:\n        /* \"#utility.yul\":10114:10188   */\n      swap2\n      pop\n        /* \"#utility.yul\":10197:10290   */\n      tag_665\n        /* \"#utility.yul\":10286:10289   */\n      dup3\n        /* \"#utility.yul\":10197:10290   */\n      tag_666\n      jump\t// in\n    tag_665:\n        /* \"#utility.yul\":10315:10317   */\n      0x40\n        /* \"#utility.yul\":10310:10313   */\n      dup3\n        /* \"#utility.yul\":10306:10318   */\n      add\n        /* \"#utility.yul\":10299:10318   */\n      swap1\n      pop\n        /* \"#utility.yul\":9958:10324   */\n      swap2\n      swap1\n      pop\n      jump\t// out\n        /* \"#utility.yul\":10330:10696   */\n    tag_667:\n        /* \"#utility.yul\":10472:10475   */\n      0x00\n        /* \"#utility.yul\":10493:10560   */\n      tag_669\n        /* \"#utility.yul\":10557:10559   */\n      0x20\n        /* \"#utility.yul\":10552:10555   */\n      dup4\n        /* \"#utility.yul\":10493:10560   */\n      tag_658\n      jump\t// in\n    tag_669:\n        /* \"#utility.yul\":10486:10560   */\n      swap2\n      pop\n        /* \"#utility.yul\":10569:10662   */\n      tag_670\n        /* \"#utility.yul\":10658:10661   */\n      dup3\n        /* \"#utility.yul\":10569:10662   */\n      tag_671\n      jump\t// in\n    tag_670:\n        /* \"#utility.yul\":10687:10689   */\n      0x20\n        /* \"#utility.yul\":10682:10685   */\n      dup3\n        /* \"#utility.yul\":10678:10690   */\n      add\n        /* \"#utility.yul\":10671:10690   */\n      swap1\n      pop\n        /* \"#utility.yul\":10330:10696   */\n      swap2\n      swap1\n      pop\n      jump\t// out\n        /* \"#utility.yul\":10702:11068   */\n    tag_672:\n        /* \"#utility.yul\":10844:10847   */\n      0x00\n        /* \"#utility.yul\":10865:10932   */\n      tag_674\n        /* \"#utility.yul\":10929:10931   */\n      0x1a\n        /* \"#utility.yul\":10924:10927   */\n      dup4\n        /* \"#utility.yul\":10865:10932   */\n      tag_658\n      jump\t// in\n    tag_674:\n        /* \"#utility.yul\":10858:10932   */\n      swap2\n      pop\n        /* \"#utility.yul\":10941:11034   */\n      tag_675\n        /* \"#utility.yul\":11030:11033   */\n      dup3\n        /* \"#utility.yul\":10941:11034   */\n      tag_676\n      jump\t// in\n    tag_675:\n        /* \"#utility.yul\":11059:11061   */\n      0x20\n        /* \"#utility.yul\":11054:11057   */\n      dup3\n        /* \"#utility.yul\":11050:11062   */\n      add\n        /* \"#utility.yul\":11043:11062   */\n      swap1\n      pop\n        /* \"#utility.yul\":10702:11068   */\n      swap2\n      swap1\n      pop\n      jump\t// out\n        /* \"#utility.yul\":11074:11440   */\n    tag_677:\n        /* \"#utility.yul\":11216:11219   */\n      0x00\n        /* \"#utility.yul\":11237:11304   */\n      tag_679\n        /* \"#utility.yul\":11301:11303   */\n      0x2e\n        /* \"#utility.yul\":11296:11299   */\n      dup4\n        /* \"#utility.yul\":11237:11304   */\n      tag_658\n      jump\t// in\n    tag_679:\n        /* \"#utility.yul\":11230:11304   */\n      swap2\n      pop\n        /* \"#utility.yul\":11313:11406   */\n      tag_680\n        /* \"#utility.yul\":11402:11405   */\n      dup3\n        /* \"#utility.yul\":11313:11406   */\n      tag_681\n      jump\t// in\n    tag_680:\n        /* \"#utility.yul\":11431:11433   */\n      0x40\n        /* \"#utility.yul\":11426:11429   */\n      dup3\n        /* \"#utility.yul\":11422:11434   */\n      add\n        /* \"#utility.yul\":11415:11434   */\n      swap1\n      pop\n        /* \"#utility.yul\":11074:11440   */\n      swap2\n      swap1\n      pop\n      jump\t// out\n        /* \"#utility.yul\":11446:11812   */\n    tag_682:\n        /* \"#utility.yul\":11588:11591   */\n      0x00\n        /* \"#utility.yul\":11609:11676   */\n      tag_684\n        /* \"#utility.yul\":11673:11675   */\n      0x26\n        /* \"#utility.yul\":11668:11671   */\n      dup4\n        /* \"#utility.yul\":11609:11676   */\n      tag_658\n      jump\t// in\n    tag_684:\n        /* \"#utility.yul\":11602:11676   */\n      swap2\n      pop\n        /* \"#utility.yul\":11685:11778   */\n      tag_685\n        /* \"#utility.yul\":11774:11777   */\n      dup3\n        /* \"#utility.yul\":11685:11778   */\n      tag_686\n      jump\t// in\n    tag_685:\n        /* \"#utility.yul\":11803:11805   */\n      0x40\n        /* \"#utility.yul\":11798:11801   */\n      dup3\n        /* \"#utility.yul\":11794:11806   */\n      add\n        /* \"#utility.yul\":11787:11806   */\n      swap1\n      pop\n        /* \"#utility.yul\":11446:11812   */\n      swap2\n      swap1\n      pop\n      jump\t// out\n        /* \"#utility.yul\":11818:12184   */\n    tag_687:\n        /* \"#utility.yul\":11960:11963   */\n      0x00\n        /* \"#utility.yul\":11981:12048   */\n      tag_689\n        /* \"#utility.yul\":12045:12047   */\n      0x26\n        /* \"#utility.yul\":12040:12043   */\n      dup4\n        /* \"#utility.yul\":11981:12048   */\n      tag_658\n      jump\t// in\n    tag_689:\n        /* \"#utility.yul\":11974:12048   */\n      swap2\n      pop\n        /* \"#utility.yul\":12057:12150   */\n      tag_690\n        /* \"#utility.yul\":12146:12149   */\n      dup3\n        /* \"#utility.yul\":12057:12150   */\n      tag_691\n      jump\t// in\n    tag_690:\n        /* \"#utility.yul\":12175:12177   */\n      0x40\n        /* \"#utility.yul\":12170:12173   */\n      dup3\n        /* \"#utility.yul\":12166:12178   */\n      add\n        /* \"#utility.yul\":12159:12178   */\n      swap1\n      pop\n        /* \"#utility.yul\":11818:12184   */\n      swap2\n      swap1\n      pop\n      jump\t// out\n        /* \"#utility.yul\":12190:12556   */\n    tag_692:\n        /* \"#utility.yul\":12332:12335   */\n      0x00\n        /* \"#utility.yul\":12353:12420   */\n      tag_694\n        /* \"#utility.yul\":12417:12419   */\n      0x21\n        /* \"#utility.yul\":12412:12415   */\n      dup4\n        /* \"#utility.yul\":12353:12420   */\n      tag_658\n      jump\t// in\n    tag_694:\n        /* \"#utility.yul\":12346:12420   */\n      swap2\n      pop\n        /* \"#utility.yul\":12429:12522   */\n      tag_695\n        /* \"#utility.yul\":12518:12521   */\n      dup3\n        /* \"#utility.yul\":12429:12522   */\n      tag_696\n      jump\t// in\n    tag_695:\n        /* \"#utility.yul\":12547:12549   */\n      0x40\n        /* \"#utility.yul\":12542:12545   */\n      dup3\n        /* \"#utility.yul\":12538:12550   */\n      add\n        /* \"#utility.yul\":12531:12550   */\n      swap1\n      pop\n        /* \"#utility.yul\":12190:12556   */\n      swap2\n      swap1\n      pop\n      jump\t// out\n        /* \"#utility.yul\":12562:12928   */\n    tag_697:\n        /* \"#utility.yul\":12704:12707   */\n      0x00\n        /* \"#utility.yul\":12725:12792   */\n      tag_699\n        /* \"#utility.yul\":12789:12791   */\n      0x25\n        /* \"#utility.yul\":12784:12787   */\n      dup4\n        /* \"#utility.yul\":12725:12792   */\n      tag_658\n      jump\t// in\n    tag_699:\n        /* \"#utility.yul\":12718:12792   */\n      swap2\n      pop\n        /* \"#utility.yul\":12801:12894   */\n      tag_700\n        /* \"#utility.yul\":12890:12893   */\n      dup3\n        /* \"#utility.yul\":12801:12894   */\n      tag_701\n      jump\t// in\n    tag_700:\n        /* \"#utility.yul\":12919:12921   */\n      0x40\n        /* \"#utility.yul\":12914:12917   */\n      dup3\n        /* \"#utility.yul\":12910:12922   */\n      add\n        /* \"#utility.yul\":12903:12922   */\n      swap1\n      pop\n        /* \"#utility.yul\":12562:12928   */\n      swap2\n      swap1\n      pop\n      jump\t// out\n        /* \"#utility.yul\":12934:13300   */\n    tag_702:\n        /* \"#utility.yul\":13076:13079   */\n      0x00\n        /* \"#utility.yul\":13097:13164   */\n      tag_704\n        /* \"#utility.yul\":13161:13163   */\n      0x2d\n        /* \"#utility.yul\":13156:13159   */\n      dup4\n        /* \"#utility.yul\":13097:13164   */\n      tag_658\n      jump\t// in\n    tag_704:\n        /* \"#utility.yul\":13090:13164   */\n      swap2\n      pop\n        /* \"#utility.yul\":13173:13266   */\n      tag_705\n        /* \"#utility.yul\":13262:13265   */\n      dup3\n        /* \"#utility.yul\":13173:13266   */\n      tag_706\n      jump\t// in\n    tag_705:\n        /* \"#utility.yul\":13291:13293   */\n      0x40\n        /* \"#utility.yul\":13286:13289   */\n      dup3\n        /* \"#utility.yul\":13282:13294   */\n      add\n        /* \"#utility.yul\":13275:13294   */\n      swap1\n      pop\n        /* \"#utility.yul\":12934:13300   */\n      swap2\n      swap1\n      pop\n      jump\t// out\n        /* \"#utility.yul\":13306:13672   */\n    tag_707:\n        /* \"#utility.yul\":13448:13451   */\n      0x00\n        /* \"#utility.yul\":13469:13536   */\n      tag_709\n        /* \"#utility.yul\":13533:13535   */\n      0x1d\n        /* \"#utility.yul\":13528:13531   */\n      dup4\n        /* \"#utility.yul\":13469:13536   */\n      tag_658\n      jump\t// in\n    tag_709:\n        /* \"#utility.yul\":13462:13536   */\n      swap2\n      pop\n        /* \"#utility.yul\":13545:13638   */\n      tag_710\n        /* \"#utility.yul\":13634:13637   */\n      dup3\n        /* \"#utility.yul\":13545:13638   */\n      tag_711\n      jump\t// in\n    tag_710:\n        /* \"#utility.yul\":13663:13665   */\n      0x20\n        /* \"#utility.yul\":13658:13661   */\n      dup3\n        /* \"#utility.yul\":13654:13666   */\n      add\n        /* \"#utility.yul\":13647:13666   */\n      swap1\n      pop\n        /* \"#utility.yul\":13306:13672   */\n      swap2\n      swap1\n      pop\n      jump\t// out\n        /* \"#utility.yul\":13678:14044   */\n    tag_712:\n        /* \"#utility.yul\":13820:13823   */\n      0x00\n        /* \"#utility.yul\":13841:13908   */\n      tag_714\n        /* \"#utility.yul\":13905:13907   */\n      0x26\n        /* \"#utility.yul\":13900:13903   */\n      dup4\n        /* \"#utility.yul\":13841:13908   */\n      tag_658\n      jump\t// in\n    tag_714:\n        /* \"#utility.yul\":13834:13908   */\n      swap2\n      pop\n        /* \"#utility.yul\":13917:14010   */\n      tag_715\n        /* \"#utility.yul\":14006:14009   */\n      dup3\n        /* \"#utility.yul\":13917:14010   */\n      tag_716\n      jump\t// in\n    tag_715:\n        /* \"#utility.yul\":14035:14037   */\n      0x40\n        /* \"#utility.yul\":14030:14033   */\n      dup3\n        /* \"#utility.yul\":14026:14038   */\n      add\n        /* \"#utility.yul\":14019:14038   */\n      swap1\n      pop\n        /* \"#utility.yul\":13678:14044   */\n      swap2\n      swap1\n      pop\n      jump\t// out\n        /* \"#utility.yul\":14050:14416   */\n    tag_717:\n        /* \"#utility.yul\":14192:14195   */\n      0x00\n        /* \"#utility.yul\":14213:14280   */\n      tag_719\n        /* \"#utility.yul\":14277:14279   */\n      0x2a\n        /* \"#utility.yul\":14272:14275   */\n      dup4\n        /* \"#utility.yul\":14213:14280   */\n      tag_658\n      jump\t// in\n    tag_719:\n        /* \"#utility.yul\":14206:14280   */\n      swap2\n      pop\n        /* \"#utility.yul\":14289:14382   */\n      tag_720\n        /* \"#utility.yul\":14378:14381   */\n      dup3\n        /* \"#utility.yul\":14289:14382   */\n      tag_721\n      jump\t// in\n    tag_720:\n        /* \"#utility.yul\":14407:14409   */\n      0x40\n        /* \"#utility.yul\":14402:14405   */\n      dup3\n        /* \"#utility.yul\":14398:14410   */\n      add\n        /* \"#utility.yul\":14391:14410   */\n      swap1\n      pop\n        /* \"#utility.yul\":14050:14416   */\n      swap2\n      swap1\n      pop\n      jump\t// out\n        /* \"#utility.yul\":14422:14788   */\n    tag_722:\n        /* \"#utility.yul\":14564:14567   */\n      0x00\n        /* \"#utility.yul\":14585:14652   */\n      tag_724\n        /* \"#utility.yul\":14649:14651   */\n      0x36\n        /* \"#utility.yul\":14644:14647   */\n      dup4\n        /* \"#utility.yul\":14585:14652   */\n      tag_658\n      jump\t// in\n    tag_724:\n        /* \"#utility.yul\":14578:14652   */\n      swap2\n      pop\n        /* \"#utility.yul\":14661:14754   */\n      tag_725\n        /* \"#utility.yul\":14750:14753   */\n      dup3\n        /* \"#utility.yul\":14661:14754   */\n      tag_726\n      jump\t// in\n    tag_725:\n        /* \"#utility.yul\":14779:14781   */\n      0x40\n        /* \"#utility.yul\":14774:14777   */\n      dup3\n        /* \"#utility.yul\":14770:14782   */\n      add\n        /* \"#utility.yul\":14763:14782   */\n      swap1\n      pop\n        /* \"#utility.yul\":14422:14788   */\n      swap2\n      swap1\n      pop\n      jump\t// out\n        /* \"#utility.yul\":14794:15160   */\n    tag_727:\n        /* \"#utility.yul\":14936:14939   */\n      0x00\n        /* \"#utility.yul\":14957:15024   */\n      tag_729\n        /* \"#utility.yul\":15021:15023   */\n      0x30\n        /* \"#utility.yul\":15016:15019   */\n      dup4\n        /* \"#utility.yul\":14957:15024   */\n      tag_658\n      jump\t// in\n    tag_729:\n        /* \"#utility.yul\":14950:15024   */\n      swap2\n      pop\n        /* \"#utility.yul\":15033:15126   */\n      tag_730\n        /* \"#utility.yul\":15122:15125   */\n      dup3\n        /* \"#utility.yul\":15033:15126   */\n      tag_731\n      jump\t// in\n    tag_730:\n        /* \"#utility.yul\":15151:15153   */\n      0x40\n        /* \"#utility.yul\":15146:15149   */\n      dup3\n        /* \"#utility.yul\":15142:15154   */\n      add\n        /* \"#utility.yul\":15135:15154   */\n      swap1\n      pop\n        /* \"#utility.yul\":14794:15160   */\n      swap2\n      swap1\n      pop\n      jump\t// out\n        /* \"#utility.yul\":15166:15284   */\n    tag_732:\n        /* \"#utility.yul\":15253:15277   */\n      tag_734\n        /* \"#utility.yul\":15271:15276   */\n      dup2\n        /* \"#utility.yul\":15253:15277   */\n      tag_735\n      jump\t// in\n    tag_734:\n        /* \"#utility.yul\":15248:15251   */\n      dup3\n        /* \"#utility.yul\":15241:15278   */\n      mstore\n        /* \"#utility.yul\":15166:15284   */\n      pop\n      pop\n      jump\t// out\n        /* \"#utility.yul\":15290:15561   */\n    tag_401:\n        /* \"#utility.yul\":15420:15423   */\n      0x00\n        /* \"#utility.yul\":15442:15535   */\n      tag_737\n        /* \"#utility.yul\":15531:15534   */\n      dup3\n        /* \"#utility.yul\":15522:15528   */\n      dup5\n        /* \"#utility.yul\":15442:15535   */\n      tag_637\n      jump\t// in\n    tag_737:\n        /* \"#utility.yul\":15435:15535   */\n      swap2\n      pop\n        /* \"#utility.yul\":15552:15555   */\n      dup2\n        /* \"#utility.yul\":15545:15555   */\n      swap1\n      pop\n        /* \"#utility.yul\":15290:15561   */\n      swap3\n      swap2\n      pop\n      pop\n      jump\t// out\n        /* \"#utility.yul\":15567:15789   */\n    tag_44:\n        /* \"#utility.yul\":15660:15664   */\n      0x00\n        /* \"#utility.yul\":15698:15700   */\n      0x20\n        /* \"#utility.yul\":15687:15696   */\n      dup3\n        /* \"#utility.yul\":15683:15701   */\n      add\n        /* \"#utility.yul\":15675:15701   */\n      swap1\n      pop\n        /* \"#utility.yul\":15711:15782   */\n      tag_739\n        /* \"#utility.yul\":15779:15780   */\n      0x00\n        /* \"#utility.yul\":15768:15777   */\n      dup4\n        /* \"#utility.yul\":15764:15781   */\n      add\n        /* \"#utility.yul\":15755:15761   */\n      dup5\n        /* \"#utility.yul\":15711:15782   */\n      tag_616\n      jump\t// in\n    tag_739:\n        /* \"#utility.yul\":15567:15789   */\n      swap3\n      swap2\n      pop\n      pop\n      jump\t// out\n        /* \"#utility.yul\":15795:16127   */\n    tag_115:\n        /* \"#utility.yul\":15916:15920   */\n      0x00\n        /* \"#utility.yul\":15954:15956   */\n      0x40\n        /* \"#utility.yul\":15943:15952   */\n      dup3\n        /* \"#utility.yul\":15939:15957   */\n      add\n        /* \"#utility.yul\":15931:15957   */\n      swap1\n      pop\n        /* \"#utility.yul\":15967:16038   */\n      tag_741\n        /* \"#utility.yul\":16035:16036   */\n      0x00\n        /* \"#utility.yul\":16024:16033   */\n      dup4\n        /* \"#utility.yul\":16020:16037   */\n      add\n        /* \"#utility.yul\":16011:16017   */\n      dup6\n        /* \"#utility.yul\":15967:16038   */\n      tag_616\n      jump\t// in\n    tag_741:\n        /* \"#utility.yul\":16048:16120   */\n      tag_742\n        /* \"#utility.yul\":16116:16118   */\n      0x20\n        /* \"#utility.yul\":16105:16114   */\n      dup4\n        /* \"#utility.yul\":16101:16119   */\n      add\n        /* \"#utility.yul\":16092:16098   */\n      dup5\n        /* \"#utility.yul\":16048:16120   */\n      tag_616\n      jump\t// in\n    tag_742:\n        /* \"#utility.yul\":15795:16127   */\n      swap4\n      swap3\n      pop\n      pop\n      pop\n      jump\t// out\n        /* \"#utility.yul\":16133:16575   */\n    tag_270:\n        /* \"#utility.yul\":16282:16286   */\n      0x00\n        /* \"#utility.yul\":16320:16322   */\n      0x60\n        /* \"#utility.yul\":16309:16318   */\n      dup3\n        /* \"#utility.yul\":16305:16323   */\n      add\n        /* \"#utility.yul\":16297:16323   */\n      swap1\n      pop\n        /* \"#utility.yul\":16333:16404   */\n      tag_744\n        /* \"#utility.yul\":16401:16402   */\n      0x00\n        /* \"#utility.yul\":16390:16399   */\n      dup4\n        /* \"#utility.yul\":16386:16403   */\n      add\n        /* \"#utility.yul\":16377:16383   */\n      dup7\n        /* \"#utility.yul\":16333:16404   */\n      tag_616\n      jump\t// in\n    tag_744:\n        /* \"#utility.yul\":16414:16486   */\n      tag_745\n        /* \"#utility.yul\":16482:16484   */\n      0x20\n        /* \"#utility.yul\":16471:16480   */\n      dup4\n        /* \"#utility.yul\":16467:16485   */\n      add\n        /* \"#utility.yul\":16458:16464   */\n      dup6\n        /* \"#utility.yul\":16414:16486   */\n      tag_616\n      jump\t// in\n    tag_745:\n        /* \"#utility.yul\":16496:16568   */\n      tag_746\n        /* \"#utility.yul\":16564:16566   */\n      0x40\n        /* \"#utility.yul\":16553:16562   */\n      dup4\n        /* \"#utility.yul\":16549:16567   */\n      add\n        /* \"#utility.yul\":16540:16546   */\n      dup5\n        /* \"#utility.yul\":16496:16568   */\n      tag_732\n      jump\t// in\n    tag_746:\n        /* \"#utility.yul\":16133:16575   */\n      swap5\n      swap4\n      pop\n      pop\n      pop\n      pop\n      jump\t// out\n        /* \"#utility.yul\":16581:17610   */\n    tag_340:\n        /* \"#utility.yul\":16886:16890   */\n      0x00\n        /* \"#utility.yul\":16924:16927   */\n      0x0100\n        /* \"#utility.yul\":16913:16922   */\n      dup3\n        /* \"#utility.yul\":16909:16928   */\n      add\n        /* \"#utility.yul\":16901:16928   */\n      swap1\n      pop\n        /* \"#utility.yul\":16938:17009   */\n      tag_748\n        /* \"#utility.yul\":17006:17007   */\n      0x00\n        /* \"#utility.yul\":16995:17004   */\n      dup4\n        /* \"#utility.yul\":16991:17008   */\n      add\n        /* \"#utility.yul\":16982:16988   */\n      dup12\n        /* \"#utility.yul\":16938:17009   */\n      tag_616\n      jump\t// in\n    tag_748:\n        /* \"#utility.yul\":17019:17091   */\n      tag_749\n        /* \"#utility.yul\":17087:17089   */\n      0x20\n        /* \"#utility.yul\":17076:17085   */\n      dup4\n        /* \"#utility.yul\":17072:17090   */\n      add\n        /* \"#utility.yul\":17063:17069   */\n      dup11\n        /* \"#utility.yul\":17019:17091   */\n      tag_616\n      jump\t// in\n    tag_749:\n        /* \"#utility.yul\":17101:17173   */\n      tag_750\n        /* \"#utility.yul\":17169:17171   */\n      0x40\n        /* \"#utility.yul\":17158:17167   */\n      dup4\n        /* \"#utility.yul\":17154:17172   */\n      add\n        /* \"#utility.yul\":17145:17151   */\n      dup10\n        /* \"#utility.yul\":17101:17173   */\n      tag_732\n      jump\t// in\n    tag_750:\n        /* \"#utility.yul\":17183:17255   */\n      tag_751\n        /* \"#utility.yul\":17251:17253   */\n      0x60\n        /* \"#utility.yul\":17240:17249   */\n      dup4\n        /* \"#utility.yul\":17236:17254   */\n      add\n        /* \"#utility.yul\":17227:17233   */\n      dup9\n        /* \"#utility.yul\":17183:17255   */\n      tag_732\n      jump\t// in\n    tag_751:\n        /* \"#utility.yul\":17265:17346   */\n      tag_752\n        /* \"#utility.yul\":17341:17344   */\n      0x80\n        /* \"#utility.yul\":17330:17339   */\n      dup4\n        /* \"#utility.yul\":17326:17345   */\n      add\n        /* \"#utility.yul\":17317:17323   */\n      dup8\n        /* \"#utility.yul\":17265:17346   */\n      tag_649\n      jump\t// in\n    tag_752:\n        /* \"#utility.yul\":17356:17437   */\n      tag_753\n        /* \"#utility.yul\":17432:17435   */\n      0xa0\n        /* \"#utility.yul\":17421:17430   */\n      dup4\n        /* \"#utility.yul\":17417:17436   */\n      add\n        /* \"#utility.yul\":17408:17414   */\n      dup7\n        /* \"#utility.yul\":17356:17437   */\n      tag_649\n      jump\t// in\n    tag_753:\n        /* \"#utility.yul\":17447:17520   */\n      tag_754\n        /* \"#utility.yul\":17515:17518   */\n      0xc0\n        /* \"#utility.yul\":17504:17513   */\n      dup4\n        /* \"#utility.yul\":17500:17519   */\n      add\n        /* \"#utility.yul\":17491:17497   */\n      dup6\n        /* \"#utility.yul\":17447:17520   */\n      tag_616\n      jump\t// in\n    tag_754:\n        /* \"#utility.yul\":17530:17603   */\n      tag_755\n        /* \"#utility.yul\":17598:17601   */\n      0xe0\n        /* \"#utility.yul\":17587:17596   */\n      dup4\n        /* \"#utility.yul\":17583:17602   */\n      add\n        /* \"#utility.yul\":17574:17580   */\n      dup5\n        /* \"#utility.yul\":17530:17603   */\n      tag_732\n      jump\t// in\n    tag_755:\n        /* \"#utility.yul\":16581:17610   */\n      swap10\n      swap9\n      pop\n      pop\n      pop\n      pop\n      pop\n      pop\n      pop\n      pop\n      pop\n      jump\t// out\n        /* \"#utility.yul\":17616:17948   */\n    tag_469:\n        /* \"#utility.yul\":17737:17741   */\n      0x00\n        /* \"#utility.yul\":17775:17777   */\n      0x40\n        /* \"#utility.yul\":17764:17773   */\n      dup3\n        /* \"#utility.yul\":17760:17778   */\n      add\n        /* \"#utility.yul\":17752:17778   */\n      swap1\n      pop\n        /* \"#utility.yul\":17788:17859   */\n      tag_757\n        /* \"#utility.yul\":17856:17857   */\n      0x00\n        /* \"#utility.yul\":17845:17854   */\n      dup4\n        /* \"#utility.yul\":17841:17858   */\n      add\n        /* \"#utility.yul\":17832:17838   */\n      dup6\n        /* \"#utility.yul\":17788:17859   */\n      tag_616\n      jump\t// in\n    tag_757:\n        /* \"#utility.yul\":17869:17941   */\n      tag_758\n        /* \"#utility.yul\":17937:17939   */\n      0x20\n        /* \"#utility.yul\":17926:17935   */\n      dup4\n        /* \"#utility.yul\":17922:17940   */\n      add\n        /* \"#utility.yul\":17913:17919   */\n      dup5\n        /* \"#utility.yul\":17869:17941   */\n      tag_732\n      jump\t// in\n    tag_758:\n        /* \"#utility.yul\":17616:17948   */\n      swap4\n      swap3\n      pop\n      pop\n      pop\n      jump\t// out\n        /* \"#utility.yul\":17954:18164   */\n    tag_39:\n        /* \"#utility.yul\":18041:18045   */\n      0x00\n        /* \"#utility.yul\":18079:18081   */\n      0x20\n        /* \"#utility.yul\":18068:18077   */\n      dup3\n        /* \"#utility.yul\":18064:18082   */\n      add\n        /* \"#utility.yul\":18056:18082   */\n      swap1\n      pop\n        /* \"#utility.yul\":18092:18157   */\n      tag_760\n        /* \"#utility.yul\":18154:18155   */\n      0x00\n        /* \"#utility.yul\":18143:18152   */\n      dup4\n        /* \"#utility.yul\":18139:18156   */\n      add\n        /* \"#utility.yul\":18130:18136   */\n      dup5\n        /* \"#utility.yul\":18092:18157   */\n      tag_633\n      jump\t// in\n    tag_760:\n        /* \"#utility.yul\":17954:18164   */\n      swap3\n      swap2\n      pop\n      pop\n      jump\t// out\n        /* \"#utility.yul\":18170:18446   */\n    tag_66:\n        /* \"#utility.yul\":18290:18294   */\n      0x00\n        /* \"#utility.yul\":18328:18330   */\n      0x20\n        /* \"#utility.yul\":18317:18326   */\n      dup3\n        /* \"#utility.yul\":18313:18331   */\n      add\n        /* \"#utility.yul\":18305:18331   */\n      swap1\n      pop\n        /* \"#utility.yul\":18341:18439   */\n      tag_762\n        /* \"#utility.yul\":18436:18437   */\n      0x00\n        /* \"#utility.yul\":18425:18434   */\n      dup4\n        /* \"#utility.yul\":18421:18438   */\n      add\n        /* \"#utility.yul\":18412:18418   */\n      dup5\n        /* \"#utility.yul\":18341:18439   */\n      tag_645\n      jump\t// in\n    tag_762:\n        /* \"#utility.yul\":18170:18446   */\n      swap3\n      swap2\n      pop\n      pop\n      jump\t// out\n        /* \"#utility.yul\":18452:18765   */\n    tag_507:\n        /* \"#utility.yul\":18565:18569   */\n      0x00\n        /* \"#utility.yul\":18603:18605   */\n      0x20\n        /* \"#utility.yul\":18592:18601   */\n      dup3\n        /* \"#utility.yul\":18588:18606   */\n      add\n        /* \"#utility.yul\":18580:18606   */\n      swap1\n      pop\n        /* \"#utility.yul\":18652:18661   */\n      dup2\n        /* \"#utility.yul\":18646:18650   */\n      dup2\n        /* \"#utility.yul\":18642:18662   */\n      sub\n        /* \"#utility.yul\":18638:18639   */\n      0x00\n        /* \"#utility.yul\":18627:18636   */\n      dup4\n        /* \"#utility.yul\":18623:18640   */\n      add\n        /* \"#utility.yul\":18616:18663   */\n      mstore\n        /* \"#utility.yul\":18680:18758   */\n      tag_764\n        /* \"#utility.yul\":18753:18757   */\n      dup2\n        /* \"#utility.yul\":18744:18750   */\n      dup5\n        /* \"#utility.yul\":18680:18758   */\n      tag_653\n      jump\t// in\n    tag_764:\n        /* \"#utility.yul\":18672:18758   */\n      swap1\n      pop\n        /* \"#utility.yul\":18452:18765   */\n      swap3\n      swap2\n      pop\n      pop\n      jump\t// out\n        /* \"#utility.yul\":18771:19190   */\n    tag_242:\n        /* \"#utility.yul\":18937:18941   */\n      0x00\n        /* \"#utility.yul\":18975:18977   */\n      0x20\n        /* \"#utility.yul\":18964:18973   */\n      dup3\n        /* \"#utility.yul\":18960:18978   */\n      add\n        /* \"#utility.yul\":18952:18978   */\n      swap1\n      pop\n        /* \"#utility.yul\":19024:19033   */\n      dup2\n        /* \"#utility.yul\":19018:19022   */\n      dup2\n        /* \"#utility.yul\":19014:19034   */\n      sub\n        /* \"#utility.yul\":19010:19011   */\n      0x00\n        /* \"#utility.yul\":18999:19008   */\n      dup4\n        /* \"#utility.yul\":18995:19012   */\n      add\n        /* \"#utility.yul\":18988:19035   */\n      mstore\n        /* \"#utility.yul\":19052:19183   */\n      tag_766\n        /* \"#utility.yul\":19178:19182   */\n      dup2\n        /* \"#utility.yul\":19052:19183   */\n      tag_662\n      jump\t// in\n    tag_766:\n        /* \"#utility.yul\":19044:19183   */\n      swap1\n      pop\n        /* \"#utility.yul\":18771:19190   */\n      swap2\n      swap1\n      pop\n      jump\t// out\n        /* \"#utility.yul\":19196:19615   */\n    tag_113:\n        /* \"#utility.yul\":19362:19366   */\n      0x00\n        /* \"#utility.yul\":19400:19402   */\n      0x20\n        /* \"#utility.yul\":19389:19398   */\n      dup3\n        /* \"#utility.yul\":19385:19403   */\n      add\n        /* \"#utility.yul\":19377:19403   */\n      swap1\n      pop\n        /* \"#utility.yul\":19449:19458   */\n      dup2\n        /* \"#utility.yul\":19443:19447   */\n      dup2\n        /* \"#utility.yul\":19439:19459   */\n      sub\n        /* \"#utility.yul\":19435:19436   */\n      0x00\n        /* \"#utility.yul\":19424:19433   */\n      dup4\n        /* \"#utility.yul\":19420:19437   */\n      add\n        /* \"#utility.yul\":19413:19460   */\n      mstore\n        /* \"#utility.yul\":19477:19608   */\n      tag_768\n        /* \"#utility.yul\":19603:19607   */\n      dup2\n        /* \"#utility.yul\":19477:19608   */\n      tag_667\n      jump\t// in\n    tag_768:\n        /* \"#utility.yul\":19469:19608   */\n      swap1\n      pop\n        /* \"#utility.yul\":19196:19615   */\n      swap2\n      swap1\n      pop\n      jump\t// out\n        /* \"#utility.yul\":19621:20040   */\n    tag_407:\n        /* \"#utility.yul\":19787:19791   */\n      0x00\n        /* \"#utility.yul\":19825:19827   */\n      0x20\n        /* \"#utility.yul\":19814:19823   */\n      dup3\n        /* \"#utility.yul\":19810:19828   */\n      add\n        /* \"#utility.yul\":19802:19828   */\n      swap1\n      pop\n        /* \"#utility.yul\":19874:19883   */\n      dup2\n        /* \"#utility.yul\":19868:19872   */\n      dup2\n        /* \"#utility.yul\":19864:19884   */\n      sub\n        /* \"#utility.yul\":19860:19861   */\n      0x00\n        /* \"#utility.yul\":19849:19858   */\n      dup4\n        /* \"#utility.yul\":19845:19862   */\n      add\n        /* \"#utility.yul\":19838:19885   */\n      mstore\n        /* \"#utility.yul\":19902:20033   */\n      tag_770\n        /* \"#utility.yul\":20028:20032   */\n      dup2\n        /* \"#utility.yul\":19902:20033   */\n      tag_672\n      jump\t// in\n    tag_770:\n        /* \"#utility.yul\":19894:20033   */\n      swap1\n      pop\n        /* \"#utility.yul\":19621:20040   */\n      swap2\n      swap1\n      pop\n      jump\t// out\n        /* \"#utility.yul\":20046:20465   */\n    tag_83:\n        /* \"#utility.yul\":20212:20216   */\n      0x00\n        /* \"#utility.yul\":20250:20252   */\n      0x20\n        /* \"#utility.yul\":20239:20248   */\n      dup3\n        /* \"#utility.yul\":20235:20253   */\n      add\n        /* \"#utility.yul\":20227:20253   */\n      swap1\n      pop\n        /* \"#utility.yul\":20299:20308   */\n      dup2\n        /* \"#utility.yul\":20293:20297   */\n      dup2\n        /* \"#utility.yul\":20289:20309   */\n      sub\n        /* \"#utility.yul\":20285:20286   */\n      0x00\n        /* \"#utility.yul\":20274:20283   */\n      dup4\n        /* \"#utility.yul\":20270:20287   */\n      add\n        /* \"#utility.yul\":20263:20310   */\n      mstore\n        /* \"#utility.yul\":20327:20458   */\n      tag_772\n        /* \"#utility.yul\":20453:20457   */\n      dup2\n        /* \"#utility.yul\":20327:20458   */\n      tag_677\n      jump\t// in\n    tag_772:\n        /* \"#utility.yul\":20319:20458   */\n      swap1\n      pop\n        /* \"#utility.yul\":20046:20465   */\n      swap2\n      swap1\n      pop\n      jump\t// out\n        /* \"#utility.yul\":20471:20890   */\n    tag_377:\n        /* \"#utility.yul\":20637:20641   */\n      0x00\n        /* \"#utility.yul\":20675:20677   */\n      0x20\n        /* \"#utility.yul\":20664:20673   */\n      dup3\n        /* \"#utility.yul\":20660:20678   */\n      add\n        /* \"#utility.yul\":20652:20678   */\n      swap1\n      pop\n        /* \"#utility.yul\":20724:20733   */\n      dup2\n        /* \"#utility.yul\":20718:20722   */\n      dup2\n        /* \"#utility.yul\":20714:20734   */\n      sub\n        /* \"#utility.yul\":20710:20711   */\n      0x00\n        /* \"#utility.yul\":20699:20708   */\n      dup4\n        /* \"#utility.yul\":20695:20712   */\n      add\n        /* \"#utility.yul\":20688:20735   */\n      mstore\n        /* \"#utility.yul\":20752:20883   */\n      tag_774\n        /* \"#utility.yul\":20878:20882   */\n      dup2\n        /* \"#utility.yul\":20752:20883   */\n      tag_682\n      jump\t// in\n    tag_774:\n        /* \"#utility.yul\":20744:20883   */\n      swap1\n      pop\n        /* \"#utility.yul\":20471:20890   */\n      swap2\n      swap1\n      pop\n      jump\t// out\n        /* \"#utility.yul\":20896:21315   */\n    tag_488:\n        /* \"#utility.yul\":21062:21066   */\n      0x00\n        /* \"#utility.yul\":21100:21102   */\n      0x20\n        /* \"#utility.yul\":21089:21098   */\n      dup3\n        /* \"#utility.yul\":21085:21103   */\n      add\n        /* \"#utility.yul\":21077:21103   */\n      swap1\n      pop\n        /* \"#utility.yul\":21149:21158   */\n      dup2\n        /* \"#utility.yul\":21143:21147   */\n      dup2\n        /* \"#utility.yul\":21139:21159   */\n      sub\n        /* \"#utility.yul\":21135:21136   */\n      0x00\n        /* \"#utility.yul\":21124:21133   */\n      dup4\n        /* \"#utility.yul\":21120:21137   */\n      add\n        /* \"#utility.yul\":21113:21160   */\n      mstore\n        /* \"#utility.yul\":21177:21308   */\n      tag_776\n        /* \"#utility.yul\":21303:21307   */\n      dup2\n        /* \"#utility.yul\":21177:21308   */\n      tag_687\n      jump\t// in\n    tag_776:\n        /* \"#utility.yul\":21169:21308   */\n      swap1\n      pop\n        /* \"#utility.yul\":20896:21315   */\n      swap2\n      swap1\n      pop\n      jump\t// out\n        /* \"#utility.yul\":21321:21740   */\n    tag_122:\n        /* \"#utility.yul\":21487:21491   */\n      0x00\n        /* \"#utility.yul\":21525:21527   */\n      0x20\n        /* \"#utility.yul\":21514:21523   */\n      dup3\n        /* \"#utility.yul\":21510:21528   */\n      add\n        /* \"#utility.yul\":21502:21528   */\n      swap1\n      pop\n        /* \"#utility.yul\":21574:21583   */\n      dup2\n        /* \"#utility.yul\":21568:21572   */\n      dup2\n        /* \"#utility.yul\":21564:21584   */\n      sub\n        /* \"#utility.yul\":21560:21561   */\n      0x00\n        /* \"#utility.yul\":21549:21558   */\n      dup4\n        /* \"#utility.yul\":21545:21562   */\n      add\n        /* \"#utility.yul\":21538:21585   */\n      mstore\n        /* \"#utility.yul\":21602:21733   */\n      tag_778\n        /* \"#utility.yul\":21728:21732   */\n      dup2\n        /* \"#utility.yul\":21602:21733   */\n      tag_692\n      jump\t// in\n    tag_778:\n        /* \"#utility.yul\":21594:21733   */\n      swap1\n      pop\n        /* \"#utility.yul\":21321:21740   */\n      swap2\n      swap1\n      pop\n      jump\t// out\n        /* \"#utility.yul\":21746:22165   */\n    tag_281:\n        /* \"#utility.yul\":21912:21916   */\n      0x00\n        /* \"#utility.yul\":21950:21952   */\n      0x20\n        /* \"#utility.yul\":21939:21948   */\n      dup3\n        /* \"#utility.yul\":21935:21953   */\n      add\n        /* \"#utility.yul\":21927:21953   */\n      swap1\n      pop\n        /* \"#utility.yul\":21999:22008   */\n      dup2\n        /* \"#utility.yul\":21993:21997   */\n      dup2\n        /* \"#utility.yul\":21989:22009   */\n      sub\n        /* \"#utility.yul\":21985:21986   */\n      0x00\n        /* \"#utility.yul\":21974:21983   */\n      dup4\n        /* \"#utility.yul\":21970:21987   */\n      add\n        /* \"#utility.yul\":21963:22010   */\n      mstore\n        /* \"#utility.yul\":22027:22158   */\n      tag_780\n        /* \"#utility.yul\":22153:22157   */\n      dup2\n        /* \"#utility.yul\":22027:22158   */\n      tag_697\n      jump\t// in\n    tag_780:\n        /* \"#utility.yul\":22019:22158   */\n      swap1\n      pop\n        /* \"#utility.yul\":21746:22165   */\n      swap2\n      swap1\n      pop\n      jump\t// out\n        /* \"#utility.yul\":22171:22590   */\n    tag_141:\n        /* \"#utility.yul\":22337:22341   */\n      0x00\n        /* \"#utility.yul\":22375:22377   */\n      0x20\n        /* \"#utility.yul\":22364:22373   */\n      dup3\n        /* \"#utility.yul\":22360:22378   */\n      add\n        /* \"#utility.yul\":22352:22378   */\n      swap1\n      pop\n        /* \"#utility.yul\":22424:22433   */\n      dup2\n        /* \"#utility.yul\":22418:22422   */\n      dup2\n        /* \"#utility.yul\":22414:22434   */\n      sub\n        /* \"#utility.yul\":22410:22411   */\n      0x00\n        /* \"#utility.yul\":22399:22408   */\n      dup4\n        /* \"#utility.yul\":22395:22412   */\n      add\n        /* \"#utility.yul\":22388:22435   */\n      mstore\n        /* \"#utility.yul\":22452:22583   */\n      tag_782\n        /* \"#utility.yul\":22578:22582   */\n      dup2\n        /* \"#utility.yul\":22452:22583   */\n      tag_702\n      jump\t// in\n    tag_782:\n        /* \"#utility.yul\":22444:22583   */\n      swap1\n      pop\n        /* \"#utility.yul\":22171:22590   */\n      swap2\n      swap1\n      pop\n      jump\t// out\n        /* \"#utility.yul\":22596:23015   */\n    tag_493:\n        /* \"#utility.yul\":22762:22766   */\n      0x00\n        /* \"#utility.yul\":22800:22802   */\n      0x20\n        /* \"#utility.yul\":22789:22798   */\n      dup3\n        /* \"#utility.yul\":22785:22803   */\n      add\n        /* \"#utility.yul\":22777:22803   */\n      swap1\n      pop\n        /* \"#utility.yul\":22849:22858   */\n      dup2\n        /* \"#utility.yul\":22843:22847   */\n      dup2\n        /* \"#utility.yul\":22839:22859   */\n      sub\n        /* \"#utility.yul\":22835:22836   */\n      0x00\n        /* \"#utility.yul\":22824:22833   */\n      dup4\n        /* \"#utility.yul\":22820:22837   */\n      add\n        /* \"#utility.yul\":22813:22860   */\n      mstore\n        /* \"#utility.yul\":22877:23008   */\n      tag_784\n        /* \"#utility.yul\":23003:23007   */\n      dup2\n        /* \"#utility.yul\":22877:23008   */\n      tag_707\n      jump\t// in\n    tag_784:\n        /* \"#utility.yul\":22869:23008   */\n      swap1\n      pop\n        /* \"#utility.yul\":22596:23015   */\n      swap2\n      swap1\n      pop\n      jump\t// out\n        /* \"#utility.yul\":23021:23440   */\n    tag_374:\n        /* \"#utility.yul\":23187:23191   */\n      0x00\n        /* \"#utility.yul\":23225:23227   */\n      0x20\n        /* \"#utility.yul\":23214:23223   */\n      dup3\n        /* \"#utility.yul\":23210:23228   */\n      add\n        /* \"#utility.yul\":23202:23228   */\n      swap1\n      pop\n        /* \"#utility.yul\":23274:23283   */\n      dup2\n        /* \"#utility.yul\":23268:23272   */\n      dup2\n        /* \"#utility.yul\":23264:23284   */\n      sub\n        /* \"#utility.yul\":23260:23261   */\n      0x00\n        /* \"#utility.yul\":23249:23258   */\n      dup4\n        /* \"#utility.yul\":23245:23262   */\n      add\n        /* \"#utility.yul\":23238:23285   */\n      mstore\n        /* \"#utility.yul\":23302:23433   */\n      tag_786\n        /* \"#utility.yul\":23428:23432   */\n      dup2\n        /* \"#utility.yul\":23302:23433   */\n      tag_712\n      jump\t// in\n    tag_786:\n        /* \"#utility.yul\":23294:23433   */\n      swap1\n      pop\n        /* \"#utility.yul\":23021:23440   */\n      swap2\n      swap1\n      pop\n      jump\t// out\n        /* \"#utility.yul\":23446:23865   */\n    tag_465:\n        /* \"#utility.yul\":23612:23616   */\n      0x00\n        /* \"#utility.yul\":23650:23652   */\n      0x20\n        /* \"#utility.yul\":23639:23648   */\n      dup3\n        /* \"#utility.yul\":23635:23653   */\n      add\n        /* \"#utility.yul\":23627:23653   */\n      swap1\n      pop\n        /* \"#utility.yul\":23699:23708   */\n      dup2\n        /* \"#utility.yul\":23693:23697   */\n      dup2\n        /* \"#utility.yul\":23689:23709   */\n      sub\n        /* \"#utility.yul\":23685:23686   */\n      0x00\n        /* \"#utility.yul\":23674:23683   */\n      dup4\n        /* \"#utility.yul\":23670:23687   */\n      add\n        /* \"#utility.yul\":23663:23710   */\n      mstore\n        /* \"#utility.yul\":23727:23858   */\n      tag_788\n        /* \"#utility.yul\":23853:23857   */\n      dup2\n        /* \"#utility.yul\":23727:23858   */\n      tag_717\n      jump\t// in\n    tag_788:\n        /* \"#utility.yul\":23719:23858   */\n      swap1\n      pop\n        /* \"#utility.yul\":23446:23865   */\n      swap2\n      swap1\n      pop\n      jump\t// out\n        /* \"#utility.yul\":23871:24290   */\n    tag_479:\n        /* \"#utility.yul\":24037:24041   */\n      0x00\n        /* \"#utility.yul\":24075:24077   */\n      0x20\n        /* \"#utility.yul\":24064:24073   */\n      dup3\n        /* \"#utility.yul\":24060:24078   */\n      add\n        /* \"#utility.yul\":24052:24078   */\n      swap1\n      pop\n        /* \"#utility.yul\":24124:24133   */\n      dup2\n        /* \"#utility.yul\":24118:24122   */\n      dup2\n        /* \"#utility.yul\":24114:24134   */\n      sub\n        /* \"#utility.yul\":24110:24111   */\n      0x00\n        /* \"#utility.yul\":24099:24108   */\n      dup4\n        /* \"#utility.yul\":24095:24112   */\n      add\n        /* \"#utility.yul\":24088:24135   */\n      mstore\n        /* \"#utility.yul\":24152:24283   */\n      tag_790\n        /* \"#utility.yul\":24278:24282   */\n      dup2\n        /* \"#utility.yul\":24152:24283   */\n      tag_722\n      jump\t// in\n    tag_790:\n        /* \"#utility.yul\":24144:24283   */\n      swap1\n      pop\n        /* \"#utility.yul\":23871:24290   */\n      swap2\n      swap1\n      pop\n      jump\t// out\n        /* \"#utility.yul\":24296:24715   */\n    tag_194:\n        /* \"#utility.yul\":24462:24466   */\n      0x00\n        /* \"#utility.yul\":24500:24502   */\n      0x20\n        /* \"#utility.yul\":24489:24498   */\n      dup3\n        /* \"#utility.yul\":24485:24503   */\n      add\n        /* \"#utility.yul\":24477:24503   */\n      swap1\n      pop\n        /* \"#utility.yul\":24549:24558   */\n      dup2\n        /* \"#utility.yul\":24543:24547   */\n      dup2\n        /* \"#utility.yul\":24539:24559   */\n      sub\n        /* \"#utility.yul\":24535:24536   */\n      0x00\n        /* \"#utility.yul\":24524:24533   */\n      dup4\n        /* \"#utility.yul\":24520:24537   */\n      add\n        /* \"#utility.yul\":24513:24560   */\n      mstore\n        /* \"#utility.yul\":24577:24708   */\n      tag_792\n        /* \"#utility.yul\":24703:24707   */\n      dup2\n        /* \"#utility.yul\":24577:24708   */\n      tag_727\n      jump\t// in\n    tag_792:\n        /* \"#utility.yul\":24569:24708   */\n      swap1\n      pop\n        /* \"#utility.yul\":24296:24715   */\n      swap2\n      swap1\n      pop\n      jump\t// out\n        /* \"#utility.yul\":24721:24943   */\n    tag_49:\n        /* \"#utility.yul\":24814:24818   */\n      0x00\n        /* \"#utility.yul\":24852:24854   */\n      0x20\n        /* \"#utility.yul\":24841:24850   */\n      dup3\n        /* \"#utility.yul\":24837:24855   */\n      add\n        /* \"#utility.yul\":24829:24855   */\n      swap1\n      pop\n        /* \"#utility.yul\":24865:24936   */\n      tag_794\n        /* \"#utility.yul\":24933:24934   */\n      0x00\n        /* \"#utility.yul\":24922:24931   */\n      dup4\n        /* \"#utility.yul\":24918:24935   */\n      add\n        /* \"#utility.yul\":24909:24915   */\n      dup5\n        /* \"#utility.yul\":24865:24936   */\n      tag_732\n      jump\t// in\n    tag_794:\n        /* \"#utility.yul\":24721:24943   */\n      swap3\n      swap2\n      pop\n      pop\n      jump\t// out\n        /* \"#utility.yul\":24949:25391   */\n    tag_25:\n        /* \"#utility.yul\":25098:25102   */\n      0x00\n        /* \"#utility.yul\":25136:25138   */\n      0x60\n        /* \"#utility.yul\":25125:25134   */\n      dup3\n        /* \"#utility.yul\":25121:25139   */\n      add\n        /* \"#utility.yul\":25113:25139   */\n      swap1\n      pop\n        /* \"#utility.yul\":25149:25220   */\n      tag_796\n        /* \"#utility.yul\":25217:25218   */\n      0x00\n        /* \"#utility.yul\":25206:25215   */\n      dup4\n        /* \"#utility.yul\":25202:25219   */\n      add\n        /* \"#utility.yul\":25193:25199   */\n      dup7\n        /* \"#utility.yul\":25149:25220   */\n      tag_732\n      jump\t// in\n    tag_796:\n        /* \"#utility.yul\":25230:25302   */\n      tag_797\n        /* \"#utility.yul\":25298:25300   */\n      0x20\n        /* \"#utility.yul\":25287:25296   */\n      dup4\n        /* \"#utility.yul\":25283:25301   */\n      add\n        /* \"#utility.yul\":25274:25280   */\n      dup6\n        /* \"#utility.yul\":25230:25302   */\n      tag_732\n      jump\t// in\n    tag_797:\n        /* \"#utility.yul\":25312:25384   */\n      tag_798\n        /* \"#utility.yul\":25380:25382   */\n      0x40\n        /* \"#utility.yul\":25369:25378   */\n      dup4\n        /* \"#utility.yul\":25365:25383   */\n      add\n        /* \"#utility.yul\":25356:25362   */\n      dup5\n        /* \"#utility.yul\":25312:25384   */\n      tag_616\n      jump\t// in\n    tag_798:\n        /* \"#utility.yul\":24949:25391   */\n      swap5\n      swap4\n      pop\n      pop\n      pop\n      pop\n      jump\t// out\n        /* \"#utility.yul\":25397:26212   */\n    tag_220:\n        /* \"#utility.yul\":25652:25656   */\n      0x00\n        /* \"#utility.yul\":25690:25693   */\n      0xa0\n        /* \"#utility.yul\":25679:25688   */\n      dup3\n        /* \"#utility.yul\":25675:25694   */\n      add\n        /* \"#utility.yul\":25667:25694   */\n      swap1\n      pop\n        /* \"#utility.yul\":25704:25775   */\n      tag_800\n        /* \"#utility.yul\":25772:25773   */\n      0x00\n        /* \"#utility.yul\":25761:25770   */\n      dup4\n        /* \"#utility.yul\":25757:25774   */\n      add\n        /* \"#utility.yul\":25748:25754   */\n      dup9\n        /* \"#utility.yul\":25704:25775   */\n      tag_732\n      jump\t// in\n    tag_800:\n        /* \"#utility.yul\":25785:25857   */\n      tag_801\n        /* \"#utility.yul\":25853:25855   */\n      0x20\n        /* \"#utility.yul\":25842:25851   */\n      dup4\n        /* \"#utility.yul\":25838:25856   */\n      add\n        /* \"#utility.yul\":25829:25835   */\n      dup8\n        /* \"#utility.yul\":25785:25857   */\n      tag_732\n      jump\t// in\n    tag_801:\n        /* \"#utility.yul\":25904:25913   */\n      dup2\n        /* \"#utility.yul\":25898:25902   */\n      dup2\n        /* \"#utility.yul\":25894:25914   */\n      sub\n        /* \"#utility.yul\":25889:25891   */\n      0x40\n        /* \"#utility.yul\":25878:25887   */\n      dup4\n        /* \"#utility.yul\":25874:25892   */\n      add\n        /* \"#utility.yul\":25867:25915   */\n      mstore\n        /* \"#utility.yul\":25932:26040   */\n      tag_802\n        /* \"#utility.yul\":26035:26039   */\n      dup2\n        /* \"#utility.yul\":26026:26032   */\n      dup7\n        /* \"#utility.yul\":25932:26040   */\n      tag_619\n      jump\t// in\n    tag_802:\n        /* \"#utility.yul\":25924:26040   */\n      swap1\n      pop\n        /* \"#utility.yul\":26050:26122   */\n      tag_803\n        /* \"#utility.yul\":26118:26120   */\n      0x60\n        /* \"#utility.yul\":26107:26116   */\n      dup4\n        /* \"#utility.yul\":26103:26121   */\n      add\n        /* \"#utility.yul\":26094:26100   */\n      dup6\n        /* \"#utility.yul\":26050:26122   */\n      tag_616\n      jump\t// in\n    tag_803:\n        /* \"#utility.yul\":26132:26205   */\n      tag_804\n        /* \"#utility.yul\":26200:26203   */\n      0x80\n        /* \"#utility.yul\":26189:26198   */\n      dup4\n        /* \"#utility.yul\":26185:26204   */\n      add\n        /* \"#utility.yul\":26176:26182   */\n      dup5\n        /* \"#utility.yul\":26132:26205   */\n      tag_732\n      jump\t// in\n    tag_804:\n        /* \"#utility.yul\":25397:26212   */\n      swap7\n      swap6\n      pop\n      pop\n      pop\n      pop\n      pop\n      pop\n      jump\t// out\n        /* \"#utility.yul\":26218:26660   */\n    tag_94:\n        /* \"#utility.yul\":26367:26371   */\n      0x00\n        /* \"#utility.yul\":26405:26407   */\n      0x60\n        /* \"#utility.yul\":26394:26403   */\n      dup3\n        /* \"#utility.yul\":26390:26408   */\n      add\n        /* \"#utility.yul\":26382:26408   */\n      swap1\n      pop\n        /* \"#utility.yul\":26418:26489   */\n      tag_806\n        /* \"#utility.yul\":26486:26487   */\n      0x00\n        /* \"#utility.yul\":26475:26484   */\n      dup4\n        /* \"#utility.yul\":26471:26488   */\n      add\n        /* \"#utility.yul\":26462:26468   */\n      dup7\n        /* \"#utility.yul\":26418:26489   */\n      tag_732\n      jump\t// in\n    tag_806:\n        /* \"#utility.yul\":26499:26571   */\n      tag_807\n        /* \"#utility.yul\":26567:26569   */\n      0x20\n        /* \"#utility.yul\":26556:26565   */\n      dup4\n        /* \"#utility.yul\":26552:26570   */\n      add\n        /* \"#utility.yul\":26543:26549   */\n      dup6\n        /* \"#utility.yul\":26499:26571   */\n      tag_732\n      jump\t// in\n    tag_807:\n        /* \"#utility.yul\":26581:26653   */\n      tag_808\n        /* \"#utility.yul\":26649:26651   */\n      0x40\n        /* \"#utility.yul\":26638:26647   */\n      dup4\n        /* \"#utility.yul\":26634:26652   */\n      add\n        /* \"#utility.yul\":26625:26631   */\n      dup5\n        /* \"#utility.yul\":26581:26653   */\n      tag_732\n      jump\t// in\n    tag_808:\n        /* \"#utility.yul\":26218:26660   */\n      swap5\n      swap4\n      pop\n      pop\n      pop\n      pop\n      jump\t// out\n        /* \"#utility.yul\":26666:26795   */\n    tag_514:\n        /* \"#utility.yul\":26700:26706   */\n      0x00\n        /* \"#utility.yul\":26727:26747   */\n      tag_810\n      tag_811\n      jump\t// in\n    tag_810:\n        /* \"#utility.yul\":26717:26747   */\n      swap1\n      pop\n        /* \"#utility.yul\":26756:26789   */\n      tag_812\n        /* \"#utility.yul\":26784:26788   */\n      dup3\n        /* \"#utility.yul\":26776:26782   */\n      dup3\n        /* \"#utility.yul\":26756:26789   */\n      tag_813\n      jump\t// in\n    tag_812:\n        /* \"#utility.yul\":26666:26795   */\n      swap2\n      swap1\n      pop\n      jump\t// out\n        /* \"#utility.yul\":26801:26876   */\n    tag_811:\n        /* \"#utility.yul\":26834:26840   */\n      0x00\n        /* \"#utility.yul\":26867:26869   */\n      0x40\n        /* \"#utility.yul\":26861:26870   */\n      mload\n        /* \"#utility.yul\":26851:26870   */\n      swap1\n      pop\n        /* \"#utility.yul\":26801:26876   */\n      swap1\n      jump\t// out\n        /* \"#utility.yul\":26882:27193   */\n    tag_513:\n        /* \"#utility.yul\":26959:26963   */\n      0x00\n        /* \"#utility.yul\":27049:27067   */\n      0xffffffffffffffff\n        /* \"#utility.yul\":27041:27047   */\n      dup3\n        /* \"#utility.yul\":27038:27068   */\n      gt\n        /* \"#utility.yul\":27035:27091   */\n      iszero\n      tag_816\n      jumpi\n        /* \"#utility.yul\":27071:27089   */\n      tag_817\n      tag_164\n      jump\t// in\n    tag_817:\n        /* \"#utility.yul\":27035:27091   */\n    tag_816:\n        /* \"#utility.yul\":27121:27125   */\n      0x20\n        /* \"#utility.yul\":27113:27119   */\n      dup3\n        /* \"#utility.yul\":27109:27126   */\n      mul\n        /* \"#utility.yul\":27101:27126   */\n      swap1\n      pop\n        /* \"#utility.yul\":27181:27185   */\n      0x20\n        /* \"#utility.yul\":27175:27179   */\n      dup2\n        /* \"#utility.yul\":27171:27186   */\n      add\n        /* \"#utility.yul\":27163:27186   */\n      swap1\n      pop\n        /* \"#utility.yul\":26882:27193   */\n      swap2\n      swap1\n      pop\n      jump\t// out\n        /* \"#utility.yul\":27199:27331   */\n    tag_626:\n        /* \"#utility.yul\":27266:27270   */\n      0x00\n        /* \"#utility.yul\":27289:27292   */\n      dup2\n        /* \"#utility.yul\":27281:27292   */\n      swap1\n      pop\n        /* \"#utility.yul\":27319:27323   */\n      0x20\n        /* \"#utility.yul\":27314:27317   */\n      dup3\n        /* \"#utility.yul\":27310:27324   */\n      add\n        /* \"#utility.yul\":27302:27324   */\n      swap1\n      pop\n        /* \"#utility.yul\":27199:27331   */\n      swap2\n      swap1\n      pop\n      jump\t// out\n        /* \"#utility.yul\":27337:27451   */\n    tag_622:\n        /* \"#utility.yul\":27404:27410   */\n      0x00\n        /* \"#utility.yul\":27438:27443   */\n      dup2\n        /* \"#utility.yul\":27432:27444   */\n      mload\n        /* \"#utility.yul\":27422:27444   */\n      swap1\n      pop\n        /* \"#utility.yul\":27337:27451   */\n      swap2\n      swap1\n      pop\n      jump\t// out\n        /* \"#utility.yul\":27457:27555   */\n    tag_640:\n        /* \"#utility.yul\":27508:27514   */\n      0x00\n        /* \"#utility.yul\":27542:27547   */\n      dup2\n        /* \"#utility.yul\":27536:27548   */\n      mload\n        /* \"#utility.yul\":27526:27548   */\n      swap1\n      pop\n        /* \"#utility.yul\":27457:27555   */\n      swap2\n      swap1\n      pop\n      jump\t// out\n        /* \"#utility.yul\":27561:27660   */\n    tag_656:\n        /* \"#utility.yul\":27613:27619   */\n      0x00\n        /* \"#utility.yul\":27647:27652   */\n      dup2\n        /* \"#utility.yul\":27641:27653   */\n      mload\n        /* \"#utility.yul\":27631:27653   */\n      swap1\n      pop\n        /* \"#utility.yul\":27561:27660   */\n      swap2\n      swap1\n      pop\n      jump\t// out\n        /* \"#utility.yul\":27666:27779   */\n    tag_632:\n        /* \"#utility.yul\":27736:27740   */\n      0x00\n        /* \"#utility.yul\":27768:27772   */\n      0x20\n        /* \"#utility.yul\":27763:27766   */\n      dup3\n        /* \"#utility.yul\":27759:27773   */\n      add\n        /* \"#utility.yul\":27751:27773   */\n      swap1\n      pop\n        /* \"#utility.yul\":27666:27779   */\n      swap2\n      swap1\n      pop\n      jump\t// out\n        /* \"#utility.yul\":27785:27969   */\n    tag_624:\n        /* \"#utility.yul\":27884:27895   */\n      0x00\n        /* \"#utility.yul\":27918:27924   */\n      dup3\n        /* \"#utility.yul\":27913:27916   */\n      dup3\n        /* \"#utility.yul\":27906:27925   */\n      mstore\n        /* \"#utility.yul\":27958:27962   */\n      0x20\n        /* \"#utility.yul\":27953:27956   */\n      dup3\n        /* \"#utility.yul\":27949:27963   */\n      add\n        /* \"#utility.yul\":27934:27963   */\n      swap1\n      pop\n        /* \"#utility.yul\":27785:27969   */\n      swap3\n      swap2\n      pop\n      pop\n      jump\t// out\n        /* \"#utility.yul\":27975:28122   */\n    tag_642:\n        /* \"#utility.yul\":28076:28087   */\n      0x00\n        /* \"#utility.yul\":28113:28116   */\n      dup2\n        /* \"#utility.yul\":28098:28116   */\n      swap1\n      pop\n        /* \"#utility.yul\":27975:28122   */\n      swap3\n      swap2\n      pop\n      pop\n      jump\t// out\n        /* \"#utility.yul\":28128:28297   */\n    tag_658:\n        /* \"#utility.yul\":28212:28223   */\n      0x00\n        /* \"#utility.yul\":28246:28252   */\n      dup3\n        /* \"#utility.yul\":28241:28244   */\n      dup3\n        /* \"#utility.yul\":28234:28253   */\n      mstore\n        /* \"#utility.yul\":28286:28290   */\n      0x20\n        /* \"#utility.yul\":28281:28284   */\n      dup3\n        /* \"#utility.yul\":28277:28291   */\n      add\n        /* \"#utility.yul\":28262:28291   */\n      swap1\n      pop\n        /* \"#utility.yul\":28128:28297   */\n      swap3\n      swap2\n      pop\n      pop\n      jump\t// out\n        /* \"#utility.yul\":28303:28608   */\n    tag_425:\n        /* \"#utility.yul\":28343:28346   */\n      0x00\n        /* \"#utility.yul\":28362:28382   */\n      tag_827\n        /* \"#utility.yul\":28380:28381   */\n      dup3\n        /* \"#utility.yul\":28362:28382   */\n      tag_735\n      jump\t// in\n    tag_827:\n        /* \"#utility.yul\":28357:28382   */\n      swap2\n      pop\n        /* \"#utility.yul\":28396:28416   */\n      tag_828\n        /* \"#utility.yul\":28414:28415   */\n      dup4\n        /* \"#utility.yul\":28396:28416   */\n      tag_735\n      jump\t// in\n    tag_828:\n        /* \"#utility.yul\":28391:28416   */\n      swap3\n      pop\n        /* \"#utility.yul\":28550:28551   */\n      dup3\n        /* \"#utility.yul\":28482:28548   */\n      0xffffffffffffffffffffffffffffffffffffffffffffffffffffffffffffffff\n        /* \"#utility.yul\":28478:28552   */\n      sub\n        /* \"#utility.yul\":28475:28476   */\n      dup3\n        /* \"#utility.yul\":28472:28553   */\n      gt\n        /* \"#utility.yul\":28469:28576   */\n      iszero\n      tag_829\n      jumpi\n        /* \"#utility.yul\":28556:28574   */\n      tag_830\n      tag_831\n      jump\t// in\n    tag_830:\n        /* \"#utility.yul\":28469:28576   */\n    tag_829:\n        /* \"#utility.yul\":28600:28601   */\n      dup3\n        /* \"#utility.yul\":28597:28598   */\n      dup3\n        /* \"#utility.yul\":28593:28602   */\n      add\n        /* \"#utility.yul\":28586:28602   */\n      swap1\n      pop\n        /* \"#utility.yul\":28303:28608   */\n      swap3\n      swap2\n      pop\n      pop\n      jump\t// out\n        /* \"#utility.yul\":28614:28799   */\n    tag_245:\n        /* \"#utility.yul\":28654:28655   */\n      0x00\n        /* \"#utility.yul\":28671:28691   */\n      tag_833\n        /* \"#utility.yul\":28689:28690   */\n      dup3\n        /* \"#utility.yul\":28671:28691   */\n      tag_735\n      jump\t// in\n    tag_833:\n        /* \"#utility.yul\":28666:28691   */\n      swap2\n      pop\n        /* \"#utility.yul\":28705:28725   */\n      tag_834\n        /* \"#utility.yul\":28723:28724   */\n      dup4\n        /* \"#utility.yul\":28705:28725   */\n      tag_735\n      jump\t// in\n    tag_834:\n        /* \"#utility.yul\":28700:28725   */\n      swap3\n      pop\n        /* \"#utility.yul\":28744:28745   */\n      dup3\n        /* \"#utility.yul\":28734:28769   */\n      tag_835\n      jumpi\n        /* \"#utility.yul\":28749:28767   */\n      tag_836\n      tag_837\n      jump\t// in\n    tag_836:\n        /* \"#utility.yul\":28734:28769   */\n    tag_835:\n        /* \"#utility.yul\":28791:28792   */\n      dup3\n        /* \"#utility.yul\":28788:28789   */\n      dup3\n        /* \"#utility.yul\":28784:28793   */\n      div\n        /* \"#utility.yul\":28779:28793   */\n      swap1\n      pop\n        /* \"#utility.yul\":28614:28799   */\n      swap3\n      swap2\n      pop\n      pop\n      jump\t// out\n        /* \"#utility.yul\":28805:29153   */\n    tag_263:\n        /* \"#utility.yul\":28845:28852   */\n      0x00\n        /* \"#utility.yul\":28868:28888   */\n      tag_839\n        /* \"#utility.yul\":28886:28887   */\n      dup3\n        /* \"#utility.yul\":28868:28888   */\n      tag_735\n      jump\t// in\n    tag_839:\n        /* \"#utility.yul\":28863:28888   */\n      swap2\n      pop\n        /* \"#utility.yul\":28902:28922   */\n      tag_840\n        /* \"#utility.yul\":28920:28921   */\n      dup4\n        /* \"#utility.yul\":28902:28922   */\n      tag_735\n      jump\t// in\n    tag_840:\n        /* \"#utility.yul\":28897:28922   */\n      swap3\n      pop\n        /* \"#utility.yul\":29090:29091   */\n      dup2\n        /* \"#utility.yul\":29022:29088   */\n      0xffffffffffffffffffffffffffffffffffffffffffffffffffffffffffffffff\n        /* \"#utility.yul\":29018:29092   */\n      div\n        /* \"#utility.yul\":29015:29016   */\n      dup4\n        /* \"#utility.yul\":29012:29093   */\n      gt\n        /* \"#utility.yul\":29007:29008   */\n      dup3\n        /* \"#utility.yul\":29000:29009   */\n      iszero\n        /* \"#utility.yul\":28993:29010   */\n      iszero\n        /* \"#utility.yul\":28989:29094   */\n      and\n        /* \"#utility.yul\":28986:29117   */\n      iszero\n      tag_841\n      jumpi\n        /* \"#utility.yul\":29097:29115   */\n      tag_842\n      tag_831\n      jump\t// in\n    tag_842:\n        /* \"#utility.yul\":28986:29117   */\n    tag_841:\n        /* \"#utility.yul\":29145:29146   */\n      dup3\n        /* \"#utility.yul\":29142:29143   */\n      dup3\n        /* \"#utility.yul\":29138:29147   */\n      mul\n        /* \"#utility.yul\":29127:29147   */\n      swap1\n      pop\n        /* \"#utility.yul\":28805:29153   */\n      swap3\n      swap2\n      pop\n      pop\n      jump\t// out\n        /* \"#utility.yul\":29159:29350   */\n    tag_429:\n        /* \"#utility.yul\":29199:29203   */\n      0x00\n        /* \"#utility.yul\":29219:29239   */\n      tag_844\n        /* \"#utility.yul\":29237:29238   */\n      dup3\n        /* \"#utility.yul\":29219:29239   */\n      tag_735\n      jump\t// in\n    tag_844:\n        /* \"#utility.yul\":29214:29239   */\n      swap2\n      pop\n        /* \"#utility.yul\":29253:29273   */\n      tag_845\n        /* \"#utility.yul\":29271:29272   */\n      dup4\n        /* \"#utility.yul\":29253:29273   */\n      tag_735\n      jump\t// in\n    tag_845:\n        /* \"#utility.yul\":29248:29273   */\n      swap3\n      pop\n        /* \"#utility.yul\":29292:29293   */\n      dup3\n        /* \"#utility.yul\":29289:29290   */\n      dup3\n        /* \"#utility.yul\":29286:29294   */\n      lt\n        /* \"#utility.yul\":29283:29317   */\n      iszero\n      tag_846\n      jumpi\n        /* \"#utility.yul\":29297:29315   */\n      tag_847\n      tag_831\n      jump\t// in\n    tag_847:\n        /* \"#utility.yul\":29283:29317   */\n    tag_846:\n        /* \"#utility.yul\":29342:29343   */\n      dup3\n        /* \"#utility.yul\":29339:29340   */\n      dup3\n        /* \"#utility.yul\":29335:29344   */\n      sub\n        /* \"#utility.yul\":29327:29344   */\n      swap1\n      pop\n        /* \"#utility.yul\":29159:29350   */\n      swap3\n      swap2\n      pop\n      pop\n      jump\t// out\n        /* \"#utility.yul\":29356:29452   */\n    tag_615:\n        /* \"#utility.yul\":29393:29400   */\n      0x00\n        /* \"#utility.yul\":29422:29446   */\n      tag_849\n        /* \"#utility.yul\":29440:29445   */\n      dup3\n        /* \"#utility.yul\":29422:29446   */\n      tag_850\n      jump\t// in\n    tag_849:\n        /* \"#utility.yul\":29411:29446   */\n      swap1\n      pop\n        /* \"#utility.yul\":29356:29452   */\n      swap2\n      swap1\n      pop\n      jump\t// out\n        /* \"#utility.yul\":29458:29548   */\n    tag_636:\n        /* \"#utility.yul\":29492:29499   */\n      0x00\n        /* \"#utility.yul\":29535:29540   */\n      dup2\n        /* \"#utility.yul\":29528:29541   */\n      iszero\n        /* \"#utility.yul\":29521:29542   */\n      iszero\n        /* \"#utility.yul\":29510:29542   */\n      swap1\n      pop\n        /* \"#utility.yul\":29458:29548   */\n      swap2\n      swap1\n      pop\n      jump\t// out\n        /* \"#utility.yul\":29554:29668   */\n    tag_852:\n        /* \"#utility.yul\":29591:29598   */\n      0x00\n        /* \"#utility.yul\":29631:29661   */\n      0xffffffffffffffffffffffffffff\n        /* \"#utility.yul\":29624:29629   */\n      dup3\n        /* \"#utility.yul\":29620:29662   */\n      and\n        /* \"#utility.yul\":29609:29662   */\n      swap1\n      pop\n        /* \"#utility.yul\":29554:29668   */\n      swap2\n      swap1\n      pop\n      jump\t// out\n        /* \"#utility.yul\":29674:29800   */\n    tag_850:\n        /* \"#utility.yul\":29711:29718   */\n      0x00\n        /* \"#utility.yul\":29751:29793   */\n      0xffffffffffffffffffffffffffffffffffffffff\n        /* \"#utility.yul\":29744:29749   */\n      dup3\n        /* \"#utility.yul\":29740:29794   */\n      and\n        /* \"#utility.yul\":29729:29794   */\n      swap1\n      pop\n        /* \"#utility.yul\":29674:29800   */\n      swap2\n      swap1\n      pop\n      jump\t// out\n        /* \"#utility.yul\":29806:29883   */\n    tag_735:\n        /* \"#utility.yul\":29843:29850   */\n      0x00\n        /* \"#utility.yul\":29872:29877   */\n      dup2\n        /* \"#utility.yul\":29861:29877   */\n      swap1\n      pop\n        /* \"#utility.yul\":29806:29883   */\n      swap2\n      swap1\n      pop\n      jump\t// out\n        /* \"#utility.yul\":29889:29982   */\n    tag_856:\n        /* \"#utility.yul\":29925:29932   */\n      0x00\n        /* \"#utility.yul\":29965:29975   */\n      0xffffffff\n        /* \"#utility.yul\":29958:29963   */\n      dup3\n        /* \"#utility.yul\":29954:29976   */\n      and\n        /* \"#utility.yul\":29943:29976   */\n      swap1\n      pop\n        /* \"#utility.yul\":29889:29982   */\n      swap2\n      swap1\n      pop\n      jump\t// out\n        /* \"#utility.yul\":29988:30141   */\n    tag_648:\n        /* \"#utility.yul\":30065:30074   */\n      0x00\n        /* \"#utility.yul\":30098:30135   */\n      tag_859\n        /* \"#utility.yul\":30129:30134   */\n      dup3\n        /* \"#utility.yul\":30098:30135   */\n      tag_860\n      jump\t// in\n    tag_859:\n        /* \"#utility.yul\":30085:30135   */\n      swap1\n      pop\n        /* \"#utility.yul\":29988:30141   */\n      swap2\n      swap1\n      pop\n      jump\t// out\n        /* \"#utility.yul\":30147:30268   */\n    tag_652:\n        /* \"#utility.yul\":30205:30214   */\n      0x00\n        /* \"#utility.yul\":30238:30262   */\n      tag_862\n        /* \"#utility.yul\":30256:30261   */\n      dup3\n        /* \"#utility.yul\":30238:30262   */\n      tag_735\n      jump\t// in\n    tag_862:\n        /* \"#utility.yul\":30225:30262   */\n      swap1\n      pop\n        /* \"#utility.yul\":30147:30268   */\n      swap2\n      swap1\n      pop\n      jump\t// out\n        /* \"#utility.yul\":30274:30400   */\n    tag_860:\n        /* \"#utility.yul\":30324:30333   */\n      0x00\n        /* \"#utility.yul\":30357:30394   */\n      tag_864\n        /* \"#utility.yul\":30388:30393   */\n      dup3\n        /* \"#utility.yul\":30357:30394   */\n      tag_865\n      jump\t// in\n    tag_864:\n        /* \"#utility.yul\":30344:30394   */\n      swap1\n      pop\n        /* \"#utility.yul\":30274:30400   */\n      swap2\n      swap1\n      pop\n      jump\t// out\n        /* \"#utility.yul\":30406:30519   */\n    tag_865:\n        /* \"#utility.yul\":30456:30465   */\n      0x00\n        /* \"#utility.yul\":30489:30513   */\n      tag_867\n        /* \"#utility.yul\":30507:30512   */\n      dup3\n        /* \"#utility.yul\":30489:30513   */\n      tag_850\n      jump\t// in\n    tag_867:\n        /* \"#utility.yul\":30476:30513   */\n      swap1\n      pop\n        /* \"#utility.yul\":30406:30519   */\n      swap2\n      swap1\n      pop\n      jump\t// out\n        /* \"#utility.yul\":30525:30832   */\n    tag_644:\n        /* \"#utility.yul\":30593:30594   */\n      0x00\n        /* \"#utility.yul\":30603:30716   */\n    tag_869:\n        /* \"#utility.yul\":30617:30623   */\n      dup4\n        /* \"#utility.yul\":30614:30615   */\n      dup2\n        /* \"#utility.yul\":30611:30624   */\n      lt\n        /* \"#utility.yul\":30603:30716   */\n      iszero\n      tag_871\n      jumpi\n        /* \"#utility.yul\":30702:30703   */\n      dup1\n        /* \"#utility.yul\":30697:30700   */\n      dup3\n        /* \"#utility.yul\":30693:30704   */\n      add\n        /* \"#utility.yul\":30687:30705   */\n      mload\n        /* \"#utility.yul\":30683:30684   */\n      dup2\n        /* \"#utility.yul\":30678:30681   */\n      dup5\n        /* \"#utility.yul\":30674:30685   */\n      add\n        /* \"#utility.yul\":30667:30706   */\n      mstore\n        /* \"#utility.yul\":30639:30641   */\n      0x20\n        /* \"#utility.yul\":30636:30637   */\n      dup2\n        /* \"#utility.yul\":30632:30642   */\n      add\n        /* \"#utility.yul\":30627:30642   */\n      swap1\n      pop\n        /* \"#utility.yul\":30603:30716   */\n      jump(tag_869)\n    tag_871:\n        /* \"#utility.yul\":30734:30740   */\n      dup4\n        /* \"#utility.yul\":30731:30732   */\n      dup2\n        /* \"#utility.yul\":30728:30741   */\n      gt\n        /* \"#utility.yul\":30725:30826   */\n      iszero\n      tag_872\n      jumpi\n        /* \"#utility.yul\":30814:30815   */\n      0x00\n        /* \"#utility.yul\":30805:30811   */\n      dup5\n        /* \"#utility.yul\":30800:30803   */\n      dup5\n        /* \"#utility.yul\":30796:30812   */\n      add\n        /* \"#utility.yul\":30789:30816   */\n      mstore\n        /* \"#utility.yul\":30725:30826   */\n    tag_872:\n        /* \"#utility.yul\":30574:30832   */\n      pop\n        /* \"#utility.yul\":30525:30832   */\n      pop\n      pop\n      pop\n      jump\t// out\n        /* \"#utility.yul\":30838:31119   */\n    tag_813:\n        /* \"#utility.yul\":30921:30948   */\n      tag_874\n        /* \"#utility.yul\":30943:30947   */\n      dup3\n        /* \"#utility.yul\":30921:30948   */\n      tag_661\n      jump\t// in\n    tag_874:\n        /* \"#utility.yul\":30913:30919   */\n      dup2\n        /* \"#utility.yul\":30909:30949   */\n      add\n        /* \"#utility.yul\":31051:31057   */\n      dup2\n        /* \"#utility.yul\":31039:31049   */\n      dup2\n        /* \"#utility.yul\":31036:31058   */\n      lt\n        /* \"#utility.yul\":31015:31033   */\n      0xffffffffffffffff\n        /* \"#utility.yul\":31003:31013   */\n      dup3\n        /* \"#utility.yul\":31000:31034   */\n      gt\n        /* \"#utility.yul\":30997:31059   */\n      or\n        /* \"#utility.yul\":30994:31082   */\n      iszero\n      tag_875\n      jumpi\n        /* \"#utility.yul\":31062:31080   */\n      tag_876\n      tag_164\n      jump\t// in\n    tag_876:\n        /* \"#utility.yul\":30994:31082   */\n    tag_875:\n        /* \"#utility.yul\":31102:31112   */\n      dup1\n        /* \"#utility.yul\":31098:31100   */\n      0x40\n        /* \"#utility.yul\":31091:31113   */\n      mstore\n        /* \"#utility.yul\":30881:31119   */\n      pop\n        /* \"#utility.yul\":30838:31119   */\n      pop\n      pop\n      jump\t// out\n        /* \"#utility.yul\":31125:31358   */\n    tag_413:\n        /* \"#utility.yul\":31164:31167   */\n      0x00\n        /* \"#utility.yul\":31187:31211   */\n      tag_878\n        /* \"#utility.yul\":31205:31210   */\n      dup3\n        /* \"#utility.yul\":31187:31211   */\n      tag_735\n      jump\t// in\n    tag_878:\n        /* \"#utility.yul\":31178:31211   */\n      swap2\n      pop\n        /* \"#utility.yul\":31233:31299   */\n      0xffffffffffffffffffffffffffffffffffffffffffffffffffffffffffffffff\n        /* \"#utility.yul\":31226:31231   */\n      dup3\n        /* \"#utility.yul\":31223:31300   */\n      eq\n        /* \"#utility.yul\":31220:31323   */\n      iszero\n      tag_879\n      jumpi\n        /* \"#utility.yul\":31303:31321   */\n      tag_880\n      tag_831\n      jump\t// in\n    tag_880:\n        /* \"#utility.yul\":31220:31323   */\n    tag_879:\n        /* \"#utility.yul\":31350:31351   */\n      0x01\n        /* \"#utility.yul\":31343:31348   */\n      dup3\n        /* \"#utility.yul\":31339:31352   */\n      add\n        /* \"#utility.yul\":31332:31352   */\n      swap1\n      pop\n        /* \"#utility.yul\":31125:31358   */\n      swap2\n      swap1\n      pop\n      jump\t// out\n        /* \"#utility.yul\":31364:31544   */\n    tag_18:\n        /* \"#utility.yul\":31412:31489   */\n      0x4e487b7100000000000000000000000000000000000000000000000000000000\n        /* \"#utility.yul\":31409:31410   */\n      0x00\n        /* \"#utility.yul\":31402:31490   */\n      mstore\n        /* \"#utility.yul\":31509:31513   */\n      0x01\n        /* \"#utility.yul\":31506:31507   */\n      0x04\n        /* \"#utility.yul\":31499:31514   */\n      mstore\n        /* \"#utility.yul\":31533:31537   */\n      0x24\n        /* \"#utility.yul\":31530:31531   */\n      0x00\n        /* \"#utility.yul\":31523:31538   */\n      revert\n        /* \"#utility.yul\":31550:31730   */\n    tag_831:\n        /* \"#utility.yul\":31598:31675   */\n      0x4e487b7100000000000000000000000000000000000000000000000000000000\n        /* \"#utility.yul\":31595:31596   */\n      0x00\n        /* \"#utility.yul\":31588:31676   */\n      mstore\n        /* \"#utility.yul\":31695:31699   */\n      0x11\n        /* \"#utility.yul\":31692:31693   */\n      0x04\n        /* \"#utility.yul\":31685:31700   */\n      mstore\n        /* \"#utility.yul\":31719:31723   */\n      0x24\n        /* \"#utility.yul\":31716:31717   */\n      0x00\n        /* \"#utility.yul\":31709:31724   */\n      revert\n        /* \"#utility.yul\":31736:31916   */\n    tag_837:\n        /* \"#utility.yul\":31784:31861   */\n      0x4e487b7100000000000000000000000000000000000000000000000000000000\n        /* \"#utility.yul\":31781:31782   */\n      0x00\n        /* \"#utility.yul\":31774:31862   */\n      mstore\n        /* \"#utility.yul\":31881:31885   */\n      0x12\n        /* \"#utility.yul\":31878:31879   */\n      0x04\n        /* \"#utility.yul\":31871:31886   */\n      mstore\n        /* \"#utility.yul\":31905:31909   */\n      0x24\n        /* \"#utility.yul\":31902:31903   */\n      0x00\n        /* \"#utility.yul\":31895:31910   */\n      revert\n        /* \"#utility.yul\":31922:32102   */\n    tag_172:\n        /* \"#utility.yul\":31970:32047   */\n      0x4e487b7100000000000000000000000000000000000000000000000000000000\n        /* \"#utility.yul\":31967:31968   */\n      0x00\n        /* \"#utility.yul\":31960:32048   */\n      mstore\n        /* \"#utility.yul\":32067:32071   */\n      0x32\n        /* \"#utility.yul\":32064:32065   */\n      0x04\n        /* \"#utility.yul\":32057:32072   */\n      mstore\n        /* \"#utility.yul\":32091:32095   */\n      0x24\n        /* \"#utility.yul\":32088:32089   */\n      0x00\n        /* \"#utility.yul\":32081:32096   */\n      revert\n        /* \"#utility.yul\":32108:32288   */\n    tag_164:\n        /* \"#utility.yul\":32156:32233   */\n      0x4e487b7100000000000000000000000000000000000000000000000000000000\n        /* \"#utility.yul\":32153:32154   */\n      0x00\n        /* \"#utility.yul\":32146:32234   */\n      mstore\n        /* \"#utility.yul\":32253:32257   */\n      0x41\n        /* \"#utility.yul\":32250:32251   */\n      0x04\n        /* \"#utility.yul\":32243:32258   */\n      mstore\n        /* \"#utility.yul\":32277:32281   */\n      0x24\n        /* \"#utility.yul\":32274:32275   */\n      0x00\n        /* \"#utility.yul\":32267:32282   */\n      revert\n        /* \"#utility.yul\":32294:32411   */\n    tag_534:\n        /* \"#utility.yul\":32403:32404   */\n      0x00\n        /* \"#utility.yul\":32400:32401   */\n      dup1\n        /* \"#utility.yul\":32393:32405   */\n      revert\n        /* \"#utility.yul\":32417:32534   */\n    tag_517:\n        /* \"#utility.yul\":32526:32527   */\n      0x00\n        /* \"#utility.yul\":32523:32524   */\n      dup1\n        /* \"#utility.yul\":32516:32528   */\n      revert\n        /* \"#utility.yul\":32540:32657   */\n    tag_582:\n        /* \"#utility.yul\":32649:32650   */\n      0x00\n        /* \"#utility.yul\":32646:32647   */\n      dup1\n        /* \"#utility.yul\":32639:32651   */\n      revert\n        /* \"#utility.yul\":32663:32780   */\n    tag_557:\n        /* \"#utility.yul\":32772:32773   */\n      0x00\n        /* \"#utility.yul\":32769:32770   */\n      dup1\n        /* \"#utility.yul\":32762:32774   */\n      revert\n        /* \"#utility.yul\":32786:32888   */\n    tag_661:\n        /* \"#utility.yul\":32827:32833   */\n      0x00\n        /* \"#utility.yul\":32878:32880   */\n      0x1f\n        /* \"#utility.yul\":32874:32881   */\n      not\n        /* \"#utility.yul\":32869:32871   */\n      0x1f\n        /* \"#utility.yul\":32862:32867   */\n      dup4\n        /* \"#utility.yul\":32858:32872   */\n      add\n        /* \"#utility.yul\":32854:32882   */\n      and\n        /* \"#utility.yul\":32844:32882   */\n      swap1\n      pop\n        /* \"#utility.yul\":32786:32888   */\n      swap2\n      swap1\n      pop\n      jump\t// out\n        /* \"#utility.yul\":32894:33122   */\n    tag_666:\n        /* \"#utility.yul\":33034:33068   */\n      0x44796f733a20496e636f6d70617469626c65206c697175696469747920706169\n        /* \"#utility.yul\":33030:33031   */\n      0x00\n        /* \"#utility.yul\":33022:33028   */\n      dup3\n        /* \"#utility.yul\":33018:33032   */\n      add\n        /* \"#utility.yul\":33011:33069   */\n      mstore\n        /* \"#utility.yul\":33103:33114   */\n      0x7220666163746f72790000000000000000000000000000000000000000000000\n        /* \"#utility.yul\":33098:33100   */\n      0x20\n        /* \"#utility.yul\":33090:33096   */\n      dup3\n        /* \"#utility.yul\":33086:33101   */\n      add\n        /* \"#utility.yul\":33079:33115   */\n      mstore\n        /* \"#utility.yul\":32894:33122   */\n      pop\n      jump\t// out\n        /* \"#utility.yul\":33128:33310   */\n    tag_671:\n        /* \"#utility.yul\":33268:33302   */\n      0x44796f733a20496e7369676e69666963616e7420696e70757420616d6f756e74\n        /* \"#utility.yul\":33264:33265   */\n      0x00\n        /* \"#utility.yul\":33256:33262   */\n      dup3\n        /* \"#utility.yul\":33252:33266   */\n      add\n        /* \"#utility.yul\":33245:33303   */\n      mstore\n        /* \"#utility.yul\":33128:33310   */\n      pop\n      jump\t// out\n        /* \"#utility.yul\":33316:33492   */\n    tag_676:\n        /* \"#utility.yul\":33456:33484   */\n      0x42656566793a20455448207472616e73666572206661696c6564000000000000\n        /* \"#utility.yul\":33452:33453   */\n      0x00\n        /* \"#utility.yul\":33444:33450   */\n      dup3\n        /* \"#utility.yul\":33440:33454   */\n      add\n        /* \"#utility.yul\":33433:33485   */\n      mstore\n        /* \"#utility.yul\":33316:33492   */\n      pop\n      jump\t// out\n        /* \"#utility.yul\":33498:33731   */\n    tag_681:\n        /* \"#utility.yul\":33638:33672   */\n      0x44796f733a20496e70757420746f6b656e206e6f742070726573656e7420696e\n        /* \"#utility.yul\":33634:33635   */\n      0x00\n        /* \"#utility.yul\":33626:33632   */\n      dup3\n        /* \"#utility.yul\":33622:33636   */\n      add\n        /* \"#utility.yul\":33615:33673   */\n      mstore\n        /* \"#utility.yul\":33707:33723   */\n      0x206c697175646974792070616972000000000000000000000000000000000000\n        /* \"#utility.yul\":33702:33704   */\n      0x20\n        /* \"#utility.yul\":33694:33700   */\n      dup3\n        /* \"#utility.yul\":33690:33705   */\n      add\n        /* \"#utility.yul\":33683:33724   */\n      mstore\n        /* \"#utility.yul\":33498:33731   */\n      pop\n      jump\t// out\n        /* \"#utility.yul\":33737:33962   */\n    tag_686:\n        /* \"#utility.yul\":33877:33911   */\n      0x556e69737761705632526f757465723a20494e53554646494349454e545f425f\n        /* \"#utility.yul\":33873:33874   */\n      0x00\n        /* \"#utility.yul\":33865:33871   */\n      dup3\n        /* \"#utility.yul\":33861:33875   */\n      add\n        /* \"#utility.yul\":33854:33912   */\n      mstore\n        /* \"#utility.yul\":33946:33954   */\n      0x414d4f554e540000000000000000000000000000000000000000000000000000\n        /* \"#utility.yul\":33941:33943   */\n      0x20\n        /* \"#utility.yul\":33933:33939   */\n      dup3\n        /* \"#utility.yul\":33929:33944   */\n      add\n        /* \"#utility.yul\":33922:33955   */\n      mstore\n        /* \"#utility.yul\":33737:33962   */\n      pop\n      jump\t// out\n        /* \"#utility.yul\":33968:34193   */\n    tag_691:\n        /* \"#utility.yul\":34108:34142   */\n      0x416464726573733a20696e73756666696369656e742062616c616e636520666f\n        /* \"#utility.yul\":34104:34105   */\n      0x00\n        /* \"#utility.yul\":34096:34102   */\n      dup3\n        /* \"#utility.yul\":34092:34106   */\n      add\n        /* \"#utility.yul\":34085:34143   */\n      mstore\n        /* \"#utility.yul\":34177:34185   */\n      0x722063616c6c0000000000000000000000000000000000000000000000000000\n        /* \"#utility.yul\":34172:34174   */\n      0x20\n        /* \"#utility.yul\":34164:34170   */\n      dup3\n        /* \"#utility.yul\":34160:34175   */\n      add\n        /* \"#utility.yul\":34153:34186   */\n      mstore\n        /* \"#utility.yul\":33968:34193   */\n      pop\n      jump\t// out\n        /* \"#utility.yul\":34199:34419   */\n    tag_696:\n        /* \"#utility.yul\":34339:34373   */\n      0x44796f733a20496e70757420746f6b656e206973206e6f7420617070726f7665\n        /* \"#utility.yul\":34335:34336   */\n      0x00\n        /* \"#utility.yul\":34327:34333   */\n      dup3\n        /* \"#utility.yul\":34323:34337   */\n      add\n        /* \"#utility.yul\":34316:34374   */\n      mstore\n        /* \"#utility.yul\":34408:34411   */\n      0x6400000000000000000000000000000000000000000000000000000000000000\n        /* \"#utility.yul\":34403:34405   */\n      0x20\n        /* \"#utility.yul\":34395:34401   */\n      dup3\n        /* \"#utility.yul\":34391:34406   */\n      add\n        /* \"#utility.yul\":34384:34412   */\n      mstore\n        /* \"#utility.yul\":34199:34419   */\n      pop\n      jump\t// out\n        /* \"#utility.yul\":34425:34649   */\n    tag_701:\n        /* \"#utility.yul\":34565:34599   */\n      0x44796f733a204c6971756964697479207061697220726573657276657320746f\n        /* \"#utility.yul\":34561:34562   */\n      0x00\n        /* \"#utility.yul\":34553:34559   */\n      dup3\n        /* \"#utility.yul\":34549:34563   */\n      add\n        /* \"#utility.yul\":34542:34600   */\n      mstore\n        /* \"#utility.yul\":34634:34641   */\n      0x6f206c6f77000000000000000000000000000000000000000000000000000000\n        /* \"#utility.yul\":34629:34631   */\n      0x20\n        /* \"#utility.yul\":34621:34627   */\n      dup3\n        /* \"#utility.yul\":34617:34632   */\n      add\n        /* \"#utility.yul\":34610:34642   */\n      mstore\n        /* \"#utility.yul\":34425:34649   */\n      pop\n      jump\t// out\n        /* \"#utility.yul\":34655:34887   */\n    tag_706:\n        /* \"#utility.yul\":34795:34829   */\n      0x44796f733a20574554482061646472657373206e6f74206d61746368696e6720\n        /* \"#utility.yul\":34791:34792   */\n      0x00\n        /* \"#utility.yul\":34783:34789   */\n      dup3\n        /* \"#utility.yul\":34779:34793   */\n      add\n        /* \"#utility.yul\":34772:34830   */\n      mstore\n        /* \"#utility.yul\":34864:34879   */\n      0x526f757465722e57455448282900000000000000000000000000000000000000\n        /* \"#utility.yul\":34859:34861   */\n      0x20\n        /* \"#utility.yul\":34851:34857   */\n      dup3\n        /* \"#utility.yul\":34847:34862   */\n      add\n        /* \"#utility.yul\":34840:34880   */\n      mstore\n        /* \"#utility.yul\":34655:34887   */\n      pop\n      jump\t// out\n        /* \"#utility.yul\":34893:35072   */\n    tag_711:\n        /* \"#utility.yul\":35033:35064   */\n      0x416464726573733a2063616c6c20746f206e6f6e2d636f6e7472616374000000\n        /* \"#utility.yul\":35029:35030   */\n      0x00\n        /* \"#utility.yul\":35021:35027   */\n      dup3\n        /* \"#utility.yul\":35017:35031   */\n      add\n        /* \"#utility.yul\":35010:35065   */\n      mstore\n        /* \"#utility.yul\":34893:35072   */\n      pop\n      jump\t// out\n        /* \"#utility.yul\":35078:35303   */\n    tag_716:\n        /* \"#utility.yul\":35218:35252   */\n      0x556e69737761705632526f757465723a20494e53554646494349454e545f415f\n        /* \"#utility.yul\":35214:35215   */\n      0x00\n        /* \"#utility.yul\":35206:35212   */\n      dup3\n        /* \"#utility.yul\":35202:35216   */\n      add\n        /* \"#utility.yul\":35195:35253   */\n      mstore\n        /* \"#utility.yul\":35287:35295   */\n      0x414d4f554e540000000000000000000000000000000000000000000000000000\n        /* \"#utility.yul\":35282:35284   */\n      0x20\n        /* \"#utility.yul\":35274:35280   */\n      dup3\n        /* \"#utility.yul\":35270:35285   */\n      add\n        /* \"#utility.yul\":35263:35296   */\n      mstore\n        /* \"#utility.yul\":35078:35303   */\n      pop\n      jump\t// out\n        /* \"#utility.yul\":35309:35538   */\n    tag_721:\n        /* \"#utility.yul\":35449:35483   */\n      0x5361666545524332303a204552433230206f7065726174696f6e20646964206e\n        /* \"#utility.yul\":35445:35446   */\n      0x00\n        /* \"#utility.yul\":35437:35443   */\n      dup3\n        /* \"#utility.yul\":35433:35447   */\n      add\n        /* \"#utility.yul\":35426:35484   */\n      mstore\n        /* \"#utility.yul\":35518:35530   */\n      0x6f74207375636365656400000000000000000000000000000000000000000000\n        /* \"#utility.yul\":35513:35515   */\n      0x20\n        /* \"#utility.yul\":35505:35511   */\n      dup3\n        /* \"#utility.yul\":35501:35516   */\n      add\n        /* \"#utility.yul\":35494:35531   */\n      mstore\n        /* \"#utility.yul\":35309:35538   */\n      pop\n      jump\t// out\n        /* \"#utility.yul\":35544:35785   */\n    tag_726:\n        /* \"#utility.yul\":35684:35718   */\n      0x5361666545524332303a20617070726f76652066726f6d206e6f6e2d7a65726f\n        /* \"#utility.yul\":35680:35681   */\n      0x00\n        /* \"#utility.yul\":35672:35678   */\n      dup3\n        /* \"#utility.yul\":35668:35682   */\n      add\n        /* \"#utility.yul\":35661:35719   */\n      mstore\n        /* \"#utility.yul\":35753:35777   */\n      0x20746f206e6f6e2d7a65726f20616c6c6f77616e636500000000000000000000\n        /* \"#utility.yul\":35748:35750   */\n      0x20\n        /* \"#utility.yul\":35740:35746   */\n      dup3\n        /* \"#utility.yul\":35736:35751   */\n      add\n        /* \"#utility.yul\":35729:35778   */\n      mstore\n        /* \"#utility.yul\":35544:35785   */\n      pop\n      jump\t// out\n        /* \"#utility.yul\":35791:36026   */\n    tag_731:\n        /* \"#utility.yul\":35931:35965   */\n      0x44796f733a206465736972656420746f6b656e206e6f742070726573656e7420\n        /* \"#utility.yul\":35927:35928   */\n      0x00\n        /* \"#utility.yul\":35919:35925   */\n      dup3\n        /* \"#utility.yul\":35915:35929   */\n      add\n        /* \"#utility.yul\":35908:35966   */\n      mstore\n        /* \"#utility.yul\":36000:36018   */\n      0x696e206c69717564697479207061697200000000000000000000000000000000\n        /* \"#utility.yul\":35995:35997   */\n      0x20\n        /* \"#utility.yul\":35987:35993   */\n      dup3\n        /* \"#utility.yul\":35983:35998   */\n      add\n        /* \"#utility.yul\":35976:36019   */\n      mstore\n        /* \"#utility.yul\":35791:36026   */\n      pop\n      jump\t// out\n        /* \"#utility.yul\":36032:36154   */\n    tag_526:\n        /* \"#utility.yul\":36105:36129   */\n      tag_906\n        /* \"#utility.yul\":36123:36128   */\n      dup2\n        /* \"#utility.yul\":36105:36129   */\n      tag_615\n      jump\t// in\n    tag_906:\n        /* \"#utility.yul\":36098:36103   */\n      dup2\n        /* \"#utility.yul\":36095:36130   */\n      eq\n        /* \"#utility.yul\":36085:36148   */\n      tag_907\n      jumpi\n        /* \"#utility.yul\":36144:36145   */\n      0x00\n        /* \"#utility.yul\":36141:36142   */\n      dup1\n        /* \"#utility.yul\":36134:36146   */\n      revert\n        /* \"#utility.yul\":36085:36148   */\n    tag_907:\n        /* \"#utility.yul\":36032:36154   */\n      pop\n      jump\t// out\n        /* \"#utility.yul\":36160:36276   */\n    tag_539:\n        /* \"#utility.yul\":36230:36251   */\n      tag_909\n        /* \"#utility.yul\":36245:36250   */\n      dup2\n        /* \"#utility.yul\":36230:36251   */\n      tag_636\n      jump\t// in\n    tag_909:\n        /* \"#utility.yul\":36223:36228   */\n      dup2\n        /* \"#utility.yul\":36220:36252   */\n      eq\n        /* \"#utility.yul\":36210:36270   */\n      tag_910\n      jumpi\n        /* \"#utility.yul\":36266:36267   */\n      0x00\n        /* \"#utility.yul\":36263:36264   */\n      dup1\n        /* \"#utility.yul\":36256:36268   */\n      revert\n        /* \"#utility.yul\":36210:36270   */\n    tag_910:\n        /* \"#utility.yul\":36160:36276   */\n      pop\n      jump\t// out\n        /* \"#utility.yul\":36282:36404   */\n    tag_543:\n        /* \"#utility.yul\":36355:36379   */\n      tag_912\n        /* \"#utility.yul\":36373:36378   */\n      dup2\n        /* \"#utility.yul\":36355:36379   */\n      tag_852\n      jump\t// in\n    tag_912:\n        /* \"#utility.yul\":36348:36353   */\n      dup2\n        /* \"#utility.yul\":36345:36380   */\n      eq\n        /* \"#utility.yul\":36335:36398   */\n      tag_913\n      jumpi\n        /* \"#utility.yul\":36394:36395   */\n      0x00\n        /* \"#utility.yul\":36391:36392   */\n      dup1\n        /* \"#utility.yul\":36384:36396   */\n      revert\n        /* \"#utility.yul\":36335:36398   */\n    tag_913:\n        /* \"#utility.yul\":36282:36404   */\n      pop\n      jump\t// out\n        /* \"#utility.yul\":36410:36532   */\n    tag_547:\n        /* \"#utility.yul\":36483:36507   */\n      tag_915\n        /* \"#utility.yul\":36501:36506   */\n      dup2\n        /* \"#utility.yul\":36483:36507   */\n      tag_735\n      jump\t// in\n    tag_915:\n        /* \"#utility.yul\":36476:36481   */\n      dup2\n        /* \"#utility.yul\":36473:36508   */\n      eq\n        /* \"#utility.yul\":36463:36526   */\n      tag_916\n      jumpi\n        /* \"#utility.yul\":36522:36523   */\n      0x00\n        /* \"#utility.yul\":36519:36520   */\n      dup1\n        /* \"#utility.yul\":36512:36524   */\n      revert\n        /* \"#utility.yul\":36463:36526   */\n    tag_916:\n        /* \"#utility.yul\":36410:36532   */\n      pop\n      jump\t// out\n        /* \"#utility.yul\":36538:36658   */\n    tag_553:\n        /* \"#utility.yul\":36610:36633   */\n      tag_918\n        /* \"#utility.yul\":36627:36632   */\n      dup2\n        /* \"#utility.yul\":36610:36633   */\n      tag_856\n      jump\t// in\n    tag_918:\n        /* \"#utility.yul\":36603:36608   */\n      dup2\n        /* \"#utility.yul\":36600:36634   */\n      eq\n        /* \"#utility.yul\":36590:36652   */\n      tag_919\n      jumpi\n        /* \"#utility.yul\":36648:36649   */\n      0x00\n        /* \"#utility.yul\":36645:36646   */\n      dup1\n        /* \"#utility.yul\":36638:36650   */\n      revert\n        /* \"#utility.yul\":36590:36652   */\n    tag_919:\n        /* \"#utility.yul\":36538:36658   */\n      pop\n      jump\t// out\n\n    auxdata: 0xa2646970667358221220e25aa9c41e356f65ec330e827c2d9e8d7afefe4e542bdef3c42b14c91556fa0764736f6c63430008070033\n}\n",
				"bytecode": {
					"linkReferences": {},
					"object": "60c06040523480156200001157600080fd5b506040516200442b3803806200442b8339818101604052810190620000379190620000c4565b8173ffffffffffffffffffffffffffffffffffffffff1660808173ffffffffffffffffffffffffffffffffffffffff1660601b815250508073ffffffffffffffffffffffffffffffffffffffff1660a08173ffffffffffffffffffffffffffffffffffffffff1660601b8152505050506200015e565b600081519050620000be8162000144565b92915050565b60008060408385031215620000de57620000dd6200013f565b5b6000620000ee85828601620000ad565b92505060206200010185828601620000ad565b9150509250929050565b600062000118826200011f565b9050919050565b600073ffffffffffffffffffffffffffffffffffffffff82169050919050565b600080fd5b6200014f816200010b565b81146200015b57600080fd5b50565b60805160601c60a05160601c61421d6200020e60003960008181609c0152818161088f01528181610915015281816109f501528181610a7201528181610b4401528181610c180152818161246601526124d401526000818161053501528181610941015281816112a6015281816112cc01528181611422015281816114cc0152818161166d0152818161171e01528181611e3201528181611e5a01528181611f330152611f5b015261421d6000f3fe6080604052600436106100955760003560e01c8063bb0c829811610059578063bb0c8298146101d7578063d9139f6314610202578063ddca3f431461022b578063f3cc669a14610256578063f887ea401461027f576100f8565b80633f2f869a146100fd57806372f8b6cd1461013c5780637db9b1f4146101655780638437fabe14610181578063ad5c4648146101ac576100f8565b366100f8577f000000000000000000000000000000000000000000000000000000000000000073ffffffffffffffffffffffffffffffffffffffff163373ffffffffffffffffffffffffffffffffffffffff16146100f6576100f5613c84565b5b005b600080fd5b34801561010957600080fd5b50610124600480360381019061011f9190612f71565b6102aa565b60405161013393929190613884565b60405180910390f35b34801561014857600080fd5b50610163600480360381019061015e9190613004565b6106f8565b005b61017f600480360381019061017a9190612fc4565b610848565b005b34801561018d57600080fd5b5061019661093d565b6040516101a39190613651565b60405180910390f35b3480156101b857600080fd5b506101c1610a70565b6040516101ce919061352f565b60405180910390f35b3480156101e357600080fd5b506101ec610a94565b6040516101f99190613869565b60405180910390f35b34801561020e57600080fd5b5061022960048036038101906102249190612fc4565b610a9a565b005b34801561023757600080fd5b50610240610efb565b60405161024d9190613869565b60405180910390f35b34801561026257600080fd5b5061027d60048036038101906102789190613004565b610f00565b005b34801561028b57600080fd5b50610294611420565b6040516102a1919061366c565b60405180910390f35b60008060006102b761093d565b5060006102c387611444565b91505060008673ffffffffffffffffffffffffffffffffffffffff168273ffffffffffffffffffffffffffffffffffffffff16630dfe16816040518163ffffffff1660e01b815260040160206040518083038186803b15801561032557600080fd5b505afa158015610339573d6000803e3d6000fd5b505050506040513d601f19601f8201168201806040525081019061035d9190612f44565b73ffffffffffffffffffffffffffffffffffffffff16149050808061042a57508673ffffffffffffffffffffffffffffffffffffffff168273ffffffffffffffffffffffffffffffffffffffff1663d21220a76040518163ffffffff1660e01b815260040160206040518083038186803b1580156103da57600080fd5b505afa1580156103ee573d6000803e3d6000fd5b505050506040513d601f19601f820116820180604052508101906104129190612f44565b73ffffffffffffffffffffffffffffffffffffffff16145b610469576040517f08c379a000000000000000000000000000000000000000000000000000000000815260040161046090613709565b60405180910390fd5b6000808373ffffffffffffffffffffffffffffffffffffffff16630902f1ac6040518163ffffffff1660e01b815260040160606040518083038186803b1580156104b257600080fd5b505afa1580156104c6573d6000803e3d6000fd5b505050506040513d601f19601f820116820180604052508101906104ea91906130e1565b506dffffffffffffffffffffffffffff1691506dffffffffffffffffffffffffffff1691508261051b57808261051e565b81815b8092508193505050610531888383611657565b96507f000000000000000000000000000000000000000000000000000000000000000073ffffffffffffffffffffffffffffffffffffffff1663054d50d48884846040518463ffffffff1660e01b815260040161059093929190613915565b60206040518083038186803b1580156105a857600080fd5b505afa1580156105bc573d6000803e3d6000fd5b505050506040513d601f19601f820116820180604052508101906105e09190613134565b95508261066a578373ffffffffffffffffffffffffffffffffffffffff16630dfe16816040518163ffffffff1660e01b815260040160206040518083038186803b15801561062d57600080fd5b505afa158015610641573d6000803e3d6000fd5b505050506040513d601f19601f820116820180604052508101906106659190612f44565b6106e9565b8373ffffffffffffffffffffffffffffffffffffffff1663d21220a76040518163ffffffff1660e01b815260040160206040518083038186803b1580156106b057600080fd5b505afa1580156106c4573d6000803e3d6000fd5b505050506040513d601f19601f820116820180604052508101906106e89190612f44565b5b94505050505093509350939050565b6103e881101561073d576040517f08c379a0000000000000000000000000000000000000000000000000000000008152600401610734906136c9565b60405180910390fd5b808273ffffffffffffffffffffffffffffffffffffffff1663dd62ed3e33306040518363ffffffff1660e01b815260040161077992919061354a565b60206040518083038186803b15801561079157600080fd5b505afa1580156107a5573d6000803e3d6000fd5b505050506040513d601f19601f820116820180604052508101906107c99190613134565b101561080a576040517f08c379a000000000000000000000000000000000000000000000000000000000815260040161080190613769565b60405180910390fd5b6108373330838573ffffffffffffffffffffffffffffffffffffffff16611837909392919063ffffffff16565b6108428484846118c0565b50505050565b6103e834101561088d576040517f08c379a0000000000000000000000000000000000000000000000000000000008152600401610884906136c9565b60405180910390fd5b7f000000000000000000000000000000000000000000000000000000000000000073ffffffffffffffffffffffffffffffffffffffff1663d0e30db0346040518263ffffffff1660e01b81526004016000604051808303818588803b1580156108f557600080fd5b505af1158015610909573d6000803e3d6000fd5b505050505061093982827f00000000000000000000000000000000000000000000000000000000000000006118c0565b5050565b60007f000000000000000000000000000000000000000000000000000000000000000073ffffffffffffffffffffffffffffffffffffffff1663ad5c46486040518163ffffffff1660e01b815260040160206040518083038186803b1580156109a557600080fd5b505afa1580156109b9573d6000803e3d6000fd5b505050506040513d601f19601f820116820180604052508101906109dd9190612f44565b73ffffffffffffffffffffffffffffffffffffffff167f000000000000000000000000000000000000000000000000000000000000000073ffffffffffffffffffffffffffffffffffffffff1614905080610a6d576040517f08c379a0000000000000000000000000000000000000000000000000000000008152600401610a64906137a9565b60405180910390fd5b90565b7f000000000000000000000000000000000000000000000000000000000000000081565b6103e881565b600080610aa684611444565b91509150610ad73330858773ffffffffffffffffffffffffffffffffffffffff16611837909392919063ffffffff16565b8173ffffffffffffffffffffffffffffffffffffffff16632e1a7d4d846040518263ffffffff1660e01b8152600401610b109190613869565b600060405180830381600087803b158015610b2a57600080fd5b505af1158015610b3e573d6000803e3d6000fd5b505050507f000000000000000000000000000000000000000000000000000000000000000073ffffffffffffffffffffffffffffffffffffffff168173ffffffffffffffffffffffffffffffffffffffff16630dfe16816040518163ffffffff1660e01b815260040160206040518083038186803b158015610bbf57600080fd5b505afa158015610bd3573d6000803e3d6000fd5b505050506040513d601f19601f82011682018060405250810190610bf79190612f44565b73ffffffffffffffffffffffffffffffffffffffff1614158015610ce457507f000000000000000000000000000000000000000000000000000000000000000073ffffffffffffffffffffffffffffffffffffffff168173ffffffffffffffffffffffffffffffffffffffff1663d21220a76040518163ffffffff1660e01b815260040160206040518083038186803b158015610c9357600080fd5b505afa158015610ca7573d6000803e3d6000fd5b505050506040513d601f19601f82011682018060405250810190610ccb9190612f44565b73ffffffffffffffffffffffffffffffffffffffff1614155b15610cfa57610cf381336121d5565b5050610ef7565b610d0481306121d5565b6000600267ffffffffffffffff811115610d2157610d20613d40565b5b604051908082528060200260200182016040528015610d4f5781602001602082028036833780820191505090505b5090508173ffffffffffffffffffffffffffffffffffffffff16630dfe16816040518163ffffffff1660e01b815260040160206040518083038186803b158015610d9857600080fd5b505afa158015610dac573d6000803e3d6000fd5b505050506040513d601f19601f82011682018060405250810190610dd09190612f44565b81600081518110610de457610de3613d11565b5b602002602001019073ffffffffffffffffffffffffffffffffffffffff16908173ffffffffffffffffffffffffffffffffffffffff16815250508173ffffffffffffffffffffffffffffffffffffffff1663d21220a76040518163ffffffff1660e01b815260040160206040518083038186803b158015610e6457600080fd5b505afa158015610e78573d6000803e3d6000fd5b505050506040513d601f19601f82011682018060405250810190610e9c9190612f44565b81600181518110610eb057610eaf613d11565b5b602002602001019073ffffffffffffffffffffffffffffffffffffffff16908173ffffffffffffffffffffffffffffffffffffffff1681525050610ef3816123a9565b5050505b5050565b600181565b600080610f0c86611444565b9150915060008173ffffffffffffffffffffffffffffffffffffffff16630dfe16816040518163ffffffff1660e01b815260040160206040518083038186803b158015610f5857600080fd5b505afa158015610f6c573d6000803e3d6000fd5b505050506040513d601f19601f82011682018060405250810190610f909190612f44565b905060008273ffffffffffffffffffffffffffffffffffffffff1663d21220a76040518163ffffffff1660e01b815260040160206040518083038186803b158015610fda57600080fd5b505afa158015610fee573d6000803e3d6000fd5b505050506040513d601f19601f820116820180604052508101906110129190612f44565b90508573ffffffffffffffffffffffffffffffffffffffff168273ffffffffffffffffffffffffffffffffffffffff16148061107957508573ffffffffffffffffffffffffffffffffffffffff168173ffffffffffffffffffffffffffffffffffffffff16145b6110b8576040517f08c379a00000000000000000000000000000000000000000000000000000000081526004016110af90613849565b60405180910390fd5b6110e53330898773ffffffffffffffffffffffffffffffffffffffff16611837909392919063ffffffff16565b8373ffffffffffffffffffffffffffffffffffffffff16632e1a7d4d886040518263ffffffff1660e01b815260040161111e9190613869565b600060405180830381600087803b15801561113857600080fd5b505af115801561114c573d6000803e3d6000fd5b5050505061115a83306121d5565b60008673ffffffffffffffffffffffffffffffffffffffff168273ffffffffffffffffffffffffffffffffffffffff16146111955781611197565b825b90506000600267ffffffffffffffff8111156111b6576111b5613d40565b5b6040519080825280602002602001820160405280156111e45781602001602082028036833780820191505090505b50905081816000815181106111fc576111fb613d11565b5b602002602001019073ffffffffffffffffffffffffffffffffffffffff16908173ffffffffffffffffffffffffffffffffffffffff1681525050878160018151811061124b5761124a613d11565b5b602002602001019073ffffffffffffffffffffffffffffffffffffffff16908173ffffffffffffffffffffffffffffffffffffffff16815250506112ca8160008151811061129c5761129b613d11565b5b60200260200101517f00000000000000000000000000000000000000000000000000000000000000006126bd565b7f000000000000000000000000000000000000000000000000000000000000000073ffffffffffffffffffffffffffffffffffffffff166338ed17398373ffffffffffffffffffffffffffffffffffffffff166370a08231306040518263ffffffff1660e01b815260040161133f919061352f565b60206040518083038186803b15801561135757600080fd5b505afa15801561136b573d6000803e3d6000fd5b505050506040513d601f19601f8201168201806040525081019061138f9190613134565b898430426040518663ffffffff1660e01b81526004016113b39594939291906138bb565b600060405180830381600087803b1580156113cd57600080fd5b505af11580156113e1573d6000803e3d6000fd5b505050506040513d6000823e3d601f19601f8201168201806040525081019061140a919061306b565b50611414816123a9565b50505050505050505050565b7f000000000000000000000000000000000000000000000000000000000000000081565b6000808291508173ffffffffffffffffffffffffffffffffffffffff16631f1fcd516040518163ffffffff1660e01b815260040160206040518083038186803b15801561149057600080fd5b505afa1580156114a4573d6000803e3d6000fd5b505050506040513d601f19601f820116820180604052508101906114c89190612f44565b90507f000000000000000000000000000000000000000000000000000000000000000073ffffffffffffffffffffffffffffffffffffffff1663c45a01556040518163ffffffff1660e01b815260040160206040518083038186803b15801561153057600080fd5b505afa158015611544573d6000803e3d6000fd5b505050506040513d601f19601f820116820180604052508101906115689190612f44565b73ffffffffffffffffffffffffffffffffffffffff168173ffffffffffffffffffffffffffffffffffffffff1663c45a01556040518163ffffffff1660e01b815260040160206040518083038186803b1580156115c457600080fd5b505afa1580156115d8573d6000803e3d6000fd5b505050506040513d601f19601f820116820180604052508101906115fc9190612f44565b73ffffffffffffffffffffffffffffffffffffffff1614611652576040517f08c379a0000000000000000000000000000000000000000000000000000000008152600401611649906136a9565b60405180910390fd5b915091565b6000806002856116679190613a5e565b905060007f000000000000000000000000000000000000000000000000000000000000000073ffffffffffffffffffffffffffffffffffffffff1663054d50d48387876040518463ffffffff1660e01b81526004016116c893929190613915565b60206040518083038186803b1580156116e057600080fd5b505afa1580156116f4573d6000803e3d6000fd5b505050506040513d601f19601f820116820180604052508101906117189190613134565b905060007f000000000000000000000000000000000000000000000000000000000000000073ffffffffffffffffffffffffffffffffffffffff1663ad615dec8461176c868a6127a090919063ffffffff16565b61177f868a6127c390919063ffffffff16565b6040518463ffffffff1660e01b815260040161179d93929190613915565b60206040518083038186803b1580156117b557600080fd5b505afa1580156117c9573d6000803e3d6000fd5b505050506040513d601f19601f820116820180604052508101906117ed9190613134565b905061182b61181c828486876118039190613a8f565b61180d9190613a8f565b6118179190613a5e565b6127e6565b886127c390919063ffffffff16565b93505050509392505050565b6118ba846323b872dd60e01b85858560405160240161185893929190613573565b604051602081830303815290604052907bffffffffffffffffffffffffffffffffffffffffffffffffffffffff19166020820180517bffffffffffffffffffffffffffffffffffffffffffffffffffffffff83818316178352505050506129b2565b50505050565b6000806118cc85611444565b915091506000808273ffffffffffffffffffffffffffffffffffffffff16630902f1ac6040518163ffffffff1660e01b815260040160606040518083038186803b15801561191957600080fd5b505afa15801561192d573d6000803e3d6000fd5b505050506040513d601f19601f8201168201806040525081019061195191906130e1565b506dffffffffffffffffffffffffffff1691506dffffffffffffffffffffffffffff1691506103e88211801561198857506103e881115b6119c7576040517f08c379a00000000000000000000000000000000000000000000000000000000081526004016119be90613789565b60405180910390fd5b60008573ffffffffffffffffffffffffffffffffffffffff168473ffffffffffffffffffffffffffffffffffffffff16630dfe16816040518163ffffffff1660e01b815260040160206040518083038186803b158015611a2657600080fd5b505afa158015611a3a573d6000803e3d6000fd5b505050506040513d601f19601f82011682018060405250810190611a5e9190612f44565b73ffffffffffffffffffffffffffffffffffffffff161490508080611b2b57508573ffffffffffffffffffffffffffffffffffffffff168473ffffffffffffffffffffffffffffffffffffffff1663d21220a76040518163ffffffff1660e01b815260040160206040518083038186803b158015611adb57600080fd5b505afa158015611aef573d6000803e3d6000fd5b505050506040513d601f19601f82011682018060405250810190611b139190612f44565b73ffffffffffffffffffffffffffffffffffffffff16145b611b6a576040517f08c379a0000000000000000000000000000000000000000000000000000000008152600401611b6190613709565b60405180910390fd5b6000600267ffffffffffffffff811115611b8757611b86613d40565b5b604051908082528060200260200182016040528015611bb55781602001602082028036833780820191505090505b5090508681600081518110611bcd57611bcc613d11565b5b602002602001019073ffffffffffffffffffffffffffffffffffffffff16908173ffffffffffffffffffffffffffffffffffffffff168152505081611c8f578473ffffffffffffffffffffffffffffffffffffffff16630dfe16816040518163ffffffff1660e01b815260040160206040518083038186803b158015611c5257600080fd5b505afa158015611c66573d6000803e3d6000fd5b505050506040513d601f19601f82011682018060405250810190611c8a9190612f44565b611d0e565b8473ffffffffffffffffffffffffffffffffffffffff1663d21220a76040518163ffffffff1660e01b815260040160206040518083038186803b158015611cd557600080fd5b505afa158015611ce9573d6000803e3d6000fd5b505050506040513d601f19601f82011682018060405250810190611d0d9190612f44565b5b81600181518110611d2257611d21613d11565b5b602002602001019073ffffffffffffffffffffffffffffffffffffffff16908173ffffffffffffffffffffffffffffffffffffffff168152505060008773ffffffffffffffffffffffffffffffffffffffff166370a08231306040518263ffffffff1660e01b8152600401611d97919061352f565b60206040518083038186803b158015611daf57600080fd5b505afa158015611dc3573d6000803e3d6000fd5b505050506040513d601f19601f82011682018060405250810190611de79190613134565b905060008315611e0357611dfc828787611657565b9050611e11565b611e0e828688611657565b90505b611e5683600081518110611e2857611e27613d11565b5b60200260200101517f00000000000000000000000000000000000000000000000000000000000000006126bd565b60007f000000000000000000000000000000000000000000000000000000000000000073ffffffffffffffffffffffffffffffffffffffff166338ed1739838d8730426040518663ffffffff1660e01b8152600401611eb99594939291906138bb565b600060405180830381600087803b158015611ed357600080fd5b505af1158015611ee7573d6000803e3d6000fd5b505050506040513d6000823e3d601f19601f82011682018060405250810190611f10919061306b565b9050611f5784600181518110611f2957611f28613d11565b5b60200260200101517f00000000000000000000000000000000000000000000000000000000000000006126bd565b60007f000000000000000000000000000000000000000000000000000000000000000073ffffffffffffffffffffffffffffffffffffffff1663e8e3370086600081518110611fa957611fa8613d11565b5b602002602001015187600181518110611fc557611fc4613d11565b5b6020026020010151611ffb86600081518110611fe457611fe3613d11565b5b6020026020010151896127c390919063ffffffff16565b8660018151811061200f5761200e613d11565b5b602002602001015160018030426040518963ffffffff1660e01b815260040161203f9897969594939291906135aa565b606060405180830381600087803b15801561205957600080fd5b505af115801561206d573d6000803e3d6000fd5b505050506040513d601f19601f8201168201806040525081019061209191906131a1565b9250505061209f898b6126bd565b8973ffffffffffffffffffffffffffffffffffffffff1663b6b55f25826040518263ffffffff1660e01b81526004016120d89190613869565b600060405180830381600087803b1580156120f257600080fd5b505af1158015612106573d6000803e3d6000fd5b505050506121bd338b73ffffffffffffffffffffffffffffffffffffffff166370a08231306040518263ffffffff1660e01b8152600401612147919061352f565b60206040518083038186803b15801561215f57600080fd5b505afa158015612173573d6000803e3d6000fd5b505050506040513d601f19601f820116820180604052508101906121979190613134565b8c73ffffffffffffffffffffffffffffffffffffffff16612a799092919063ffffffff16565b6121c6856123a9565b50505050505050505050505050565b612288828373ffffffffffffffffffffffffffffffffffffffff166370a08231306040518263ffffffff1660e01b8152600401612212919061352f565b60206040518083038186803b15801561222a57600080fd5b505afa15801561223e573d6000803e3d6000fd5b505050506040513d601f19601f820116820180604052508101906122629190613134565b8473ffffffffffffffffffffffffffffffffffffffff16612a799092919063ffffffff16565b6000808373ffffffffffffffffffffffffffffffffffffffff166389afcb44846040518263ffffffff1660e01b81526004016122c4919061352f565b6040805180830381600087803b1580156122dd57600080fd5b505af11580156122f1573d6000803e3d6000fd5b505050506040513d601f19601f820116820180604052508101906123159190613161565b915091506103e882101561235e576040517f08c379a0000000000000000000000000000000000000000000000000000000008152600401612355906137e9565b60405180910390fd5b6103e88110156123a3576040517f08c379a000000000000000000000000000000000000000000000000000000000815260040161239a90613729565b60405180910390fd5b50505050565b6000805b82518110156126b8578281815181106123c9576123c8613d11565b5b602002602001015173ffffffffffffffffffffffffffffffffffffffff166370a08231306040518263ffffffff1660e01b8152600401612409919061352f565b60206040518083038186803b15801561242157600080fd5b505afa158015612435573d6000803e3d6000fd5b505050506040513d601f19601f820116820180604052508101906124599190613134565b915060008211156126a5577f000000000000000000000000000000000000000000000000000000000000000073ffffffffffffffffffffffffffffffffffffffff168382815181106124ae576124ad613d11565b5b602002602001015173ffffffffffffffffffffffffffffffffffffffff16141561265e577f000000000000000000000000000000000000000000000000000000000000000073ffffffffffffffffffffffffffffffffffffffff16632e1a7d4d836040518263ffffffff1660e01b815260040161252b9190613869565b600060405180830381600087803b15801561254557600080fd5b505af1158015612559573d6000803e3d6000fd5b5050505060003373ffffffffffffffffffffffffffffffffffffffff1683600067ffffffffffffffff81111561259257612591613d40565b5b6040519080825280601f01601f1916602001820160405280156125c45781602001600182028036833780820191505090505b506040516125d29190613518565b60006040518083038185875af1925050503d806000811461260f576040519150601f19603f3d011682016040523d82523d6000602084013e612614565b606091505b5050905080612658576040517f08c379a000000000000000000000000000000000000000000000000000000000815260040161264f906136e9565b60405180910390fd5b506126a4565b6126a3338385848151811061267657612675613d11565b5b602002602001015173ffffffffffffffffffffffffffffffffffffffff16612a799092919063ffffffff16565b5b5b80806126b090613c3b565b9150506123ad565b505050565b60008273ffffffffffffffffffffffffffffffffffffffff1663dd62ed3e30846040518363ffffffff1660e01b81526004016126fa92919061354a565b60206040518083038186803b15801561271257600080fd5b505afa158015612726573d6000803e3d6000fd5b505050506040513d601f19601f8201168201806040525081019061274a9190613134565b141561279c5761279b817fffffffffffffffffffffffffffffffffffffffffffffffffffffffffffffffff8473ffffffffffffffffffffffffffffffffffffffff16612aff9092919063ffffffff16565b5b5050565b60008282846127af9190613a08565b91508110156127bd57600080fd5b92915050565b60008282846127d29190613ae9565b91508111156127e057600080fd5b92915050565b6000808214156127f957600090506129ad565b6000829050600060019050700100000000000000000000000000000000821061282b57608082901c9150604081901b90505b68010000000000000000821061284a57604082901c9150602081901b90505b640100000000821061286557602082901c9150601081901b90505b62010000821061287e57601082901c9150600881901b90505b610100821061289657600882901c9150600481901b90505b601082106128ad57600482901c9150600281901b90505b600882106128bd57600181901b90505b600181856128cb9190613a5e565b826128d69190613a08565b901c9050600181856128e89190613a5e565b826128f39190613a08565b901c9050600181856129059190613a5e565b826129109190613a08565b901c9050600181856129229190613a5e565b8261292d9190613a08565b901c90506001818561293f9190613a5e565b8261294a9190613a08565b901c90506001818561295c9190613a5e565b826129679190613a08565b901c9050600181856129799190613a5e565b826129849190613a08565b901c9050600081856129969190613a5e565b90508082106129a557806129a7565b815b93505050505b919050565b6000612a14826040518060400160405280602081526020017f5361666545524332303a206c6f772d6c6576656c2063616c6c206661696c65648152508573ffffffffffffffffffffffffffffffffffffffff16612c5d9092919063ffffffff16565b9050600081511115612a745780806020019051810190612a3491906130b4565b612a73576040517f08c379a0000000000000000000000000000000000000000000000000000000008152600401612a6a90613809565b60405180910390fd5b5b505050565b612afa8363a9059cbb60e01b8484604051602401612a98929190613628565b604051602081830303815290604052907bffffffffffffffffffffffffffffffffffffffffffffffffffffffff19166020820180517bffffffffffffffffffffffffffffffffffffffffffffffffffffffff83818316178352505050506129b2565b505050565b6000811480612b98575060008373ffffffffffffffffffffffffffffffffffffffff1663dd62ed3e30856040518363ffffffff1660e01b8152600401612b4692919061354a565b60206040518083038186803b158015612b5e57600080fd5b505afa158015612b72573d6000803e3d6000fd5b505050506040513d601f19601f82011682018060405250810190612b969190613134565b145b612bd7576040517f08c379a0000000000000000000000000000000000000000000000000000000008152600401612bce90613829565b60405180910390fd5b612c588363095ea7b360e01b8484604051602401612bf6929190613628565b604051602081830303815290604052907bffffffffffffffffffffffffffffffffffffffffffffffffffffffff19166020820180517bffffffffffffffffffffffffffffffffffffffffffffffffffffffff83818316178352505050506129b2565b505050565b6060612c6c8484600085612c75565b90509392505050565b606082471015612cba576040517f08c379a0000000000000000000000000000000000000000000000000000000008152600401612cb190613749565b60405180910390fd5b612cc385612d89565b612d02576040517f08c379a0000000000000000000000000000000000000000000000000000000008152600401612cf9906137c9565b60405180910390fd5b6000808673ffffffffffffffffffffffffffffffffffffffff168587604051612d2b9190613518565b60006040518083038185875af1925050503d8060008114612d68576040519150601f19603f3d011682016040523d82523d6000602084013e612d6d565b606091505b5091509150612d7d828286612dac565b92505050949350505050565b6000808273ffffffffffffffffffffffffffffffffffffffff163b119050919050565b60608315612dbc57829050612e0c565b600083511115612dcf5782518084602001fd5b816040517f08c379a0000000000000000000000000000000000000000000000000000000008152600401612e039190613687565b60405180910390fd5b9392505050565b6000612e26612e2184613971565b61394c565b90508083825260208201905082856020860282011115612e4957612e48613d74565b5b60005b85811015612e795781612e5f8882612f1a565b845260208401935060208301925050600181019050612e4c565b5050509392505050565b600081359050612e9281614174565b92915050565b600081519050612ea781614174565b92915050565b600082601f830112612ec257612ec1613d6f565b5b8151612ed2848260208601612e13565b91505092915050565b600081519050612eea8161418b565b92915050565b600081519050612eff816141a2565b92915050565b600081359050612f14816141b9565b92915050565b600081519050612f29816141b9565b92915050565b600081519050612f3e816141d0565b92915050565b600060208284031215612f5a57612f59613d7e565b5b6000612f6884828501612e98565b91505092915050565b600080600060608486031215612f8a57612f89613d7e565b5b6000612f9886828701612e83565b9350506020612fa986828701612e83565b9250506040612fba86828701612f05565b9150509250925092565b60008060408385031215612fdb57612fda613d7e565b5b6000612fe985828601612e83565b9250506020612ffa85828601612f05565b9150509250929050565b6000806000806080858703121561301e5761301d613d7e565b5b600061302c87828801612e83565b945050602061303d87828801612f05565b935050604061304e87828801612e83565b925050606061305f87828801612f05565b91505092959194509250565b60006020828403121561308157613080613d7e565b5b600082015167ffffffffffffffff81111561309f5761309e613d79565b5b6130ab84828501612ead565b91505092915050565b6000602082840312156130ca576130c9613d7e565b5b60006130d884828501612edb565b91505092915050565b6000806000606084860312156130fa576130f9613d7e565b5b600061310886828701612ef0565b935050602061311986828701612ef0565b925050604061312a86828701612f2f565b9150509250925092565b60006020828403121561314a57613149613d7e565b5b600061315884828501612f1a565b91505092915050565b6000806040838503121561317857613177613d7e565b5b600061318685828601612f1a565b925050602061319785828601612f1a565b9150509250929050565b6000806000606084860312156131ba576131b9613d7e565b5b60006131c886828701612f1a565b93505060206131d986828701612f1a565b92505060406131ea86828701612f1a565b9150509250925092565b6000613200838361320c565b60208301905092915050565b61321581613b1d565b82525050565b61322481613b1d565b82525050565b6000613235826139ad565b61323f81856139db565b935061324a8361399d565b8060005b8381101561327b57815161326288826131f4565b975061326d836139ce565b92505060018101905061324e565b5085935050505092915050565b61329181613b2f565b82525050565b60006132a2826139b8565b6132ac81856139ec565b93506132bc818560208601613bd7565b80840191505092915050565b6132d181613b8f565b82525050565b6132e081613ba1565b82525050565b60006132f1826139c3565b6132fb81856139f7565b935061330b818560208601613bd7565b61331481613d83565b840191505092915050565b600061332c6029836139f7565b915061333782613d94565b604082019050919050565b600061334f6020836139f7565b915061335a82613de3565b602082019050919050565b6000613372601a836139f7565b915061337d82613e0c565b602082019050919050565b6000613395602e836139f7565b91506133a082613e35565b604082019050919050565b60006133b86026836139f7565b91506133c382613e84565b604082019050919050565b60006133db6026836139f7565b91506133e682613ed3565b604082019050919050565b60006133fe6021836139f7565b915061340982613f22565b604082019050919050565b60006134216025836139f7565b915061342c82613f71565b604082019050919050565b6000613444602d836139f7565b915061344f82613fc0565b604082019050919050565b6000613467601d836139f7565b91506134728261400f565b602082019050919050565b600061348a6026836139f7565b915061349582614038565b604082019050919050565b60006134ad602a836139f7565b91506134b882614087565b604082019050919050565b60006134d06036836139f7565b91506134db826140d6565b604082019050919050565b60006134f36030836139f7565b91506134fe82614125565b604082019050919050565b61351281613b75565b82525050565b60006135248284613297565b915081905092915050565b6000602082019050613544600083018461321b565b92915050565b600060408201905061355f600083018561321b565b61356c602083018461321b565b9392505050565b6000606082019050613588600083018661321b565b613595602083018561321b565b6135a26040830184613509565b949350505050565b6000610100820190506135c0600083018b61321b565b6135cd602083018a61321b565b6135da6040830189613509565b6135e76060830188613509565b6135f460808301876132d7565b61360160a08301866132d7565b61360e60c083018561321b565b61361b60e0830184613509565b9998505050505050505050565b600060408201905061363d600083018561321b565b61364a6020830184613509565b9392505050565b60006020820190506136666000830184613288565b92915050565b600060208201905061368160008301846132c8565b92915050565b600060208201905081810360008301526136a181846132e6565b905092915050565b600060208201905081810360008301526136c28161331f565b9050919050565b600060208201905081810360008301526136e281613342565b9050919050565b6000602082019050818103600083015261370281613365565b9050919050565b6000602082019050818103600083015261372281613388565b9050919050565b60006020820190508181036000830152613742816133ab565b9050919050565b60006020820190508181036000830152613762816133ce565b9050919050565b60006020820190508181036000830152613782816133f1565b9050919050565b600060208201905081810360008301526137a281613414565b9050919050565b600060208201905081810360008301526137c281613437565b9050919050565b600060208201905081810360008301526137e28161345a565b9050919050565b600060208201905081810360008301526138028161347d565b9050919050565b60006020820190508181036000830152613822816134a0565b9050919050565b60006020820190508181036000830152613842816134c3565b9050919050565b60006020820190508181036000830152613862816134e6565b9050919050565b600060208201905061387e6000830184613509565b92915050565b60006060820190506138996000830186613509565b6138a66020830185613509565b6138b3604083018461321b565b949350505050565b600060a0820190506138d06000830188613509565b6138dd6020830187613509565b81810360408301526138ef818661322a565b90506138fe606083018561321b565b61390b6080830184613509565b9695505050505050565b600060608201905061392a6000830186613509565b6139376020830185613509565b6139446040830184613509565b949350505050565b6000613956613967565b90506139628282613c0a565b919050565b6000604051905090565b600067ffffffffffffffff82111561398c5761398b613d40565b5b602082029050602081019050919050565b6000819050602082019050919050565b600081519050919050565b600081519050919050565b600081519050919050565b6000602082019050919050565b600082825260208201905092915050565b600081905092915050565b600082825260208201905092915050565b6000613a1382613b75565b9150613a1e83613b75565b9250827fffffffffffffffffffffffffffffffffffffffffffffffffffffffffffffffff03821115613a5357613a52613cb3565b5b828201905092915050565b6000613a6982613b75565b9150613a7483613b75565b925082613a8457613a83613ce2565b5b828204905092915050565b6000613a9a82613b75565b9150613aa583613b75565b9250817fffffffffffffffffffffffffffffffffffffffffffffffffffffffffffffffff0483118215151615613ade57613add613cb3565b5b828202905092915050565b6000613af482613b75565b9150613aff83613b75565b925082821015613b1257613b11613cb3565b5b828203905092915050565b6000613b2882613b55565b9050919050565b60008115159050919050565b60006dffffffffffffffffffffffffffff82169050919050565b600073ffffffffffffffffffffffffffffffffffffffff82169050919050565b6000819050919050565b600063ffffffff82169050919050565b6000613b9a82613bb3565b9050919050565b6000613bac82613b75565b9050919050565b6000613bbe82613bc5565b9050919050565b6000613bd082613b55565b9050919050565b60005b83811015613bf5578082015181840152602081019050613bda565b83811115613c04576000848401525b50505050565b613c1382613d83565b810181811067ffffffffffffffff82111715613c3257613c31613d40565b5b80604052505050565b6000613c4682613b75565b91507fffffffffffffffffffffffffffffffffffffffffffffffffffffffffffffffff821415613c7957613c78613cb3565b5b600182019050919050565b7f4e487b7100000000000000000000000000000000000000000000000000000000600052600160045260246000fd5b7f4e487b7100000000000000000000000000000000000000000000000000000000600052601160045260246000fd5b7f4e487b7100000000000000000000000000000000000000000000000000000000600052601260045260246000fd5b7f4e487b7100000000000000000000000000000000000000000000000000000000600052603260045260246000fd5b7f4e487b7100000000000000000000000000000000000000000000000000000000600052604160045260246000fd5b600080fd5b600080fd5b600080fd5b600080fd5b6000601f19601f8301169050919050565b7f44796f733a20496e636f6d70617469626c65206c69717569646974792070616960008201527f7220666163746f72790000000000000000000000000000000000000000000000602082015250565b7f44796f733a20496e7369676e69666963616e7420696e70757420616d6f756e74600082015250565b7f42656566793a20455448207472616e73666572206661696c6564000000000000600082015250565b7f44796f733a20496e70757420746f6b656e206e6f742070726573656e7420696e60008201527f206c697175646974792070616972000000000000000000000000000000000000602082015250565b7f556e69737761705632526f757465723a20494e53554646494349454e545f425f60008201527f414d4f554e540000000000000000000000000000000000000000000000000000602082015250565b7f416464726573733a20696e73756666696369656e742062616c616e636520666f60008201527f722063616c6c0000000000000000000000000000000000000000000000000000602082015250565b7f44796f733a20496e70757420746f6b656e206973206e6f7420617070726f766560008201527f6400000000000000000000000000000000000000000000000000000000000000602082015250565b7f44796f733a204c6971756964697479207061697220726573657276657320746f60008201527f6f206c6f77000000000000000000000000000000000000000000000000000000602082015250565b7f44796f733a20574554482061646472657373206e6f74206d61746368696e672060008201527f526f757465722e57455448282900000000000000000000000000000000000000602082015250565b7f416464726573733a2063616c6c20746f206e6f6e2d636f6e7472616374000000600082015250565b7f556e69737761705632526f757465723a20494e53554646494349454e545f415f60008201527f414d4f554e540000000000000000000000000000000000000000000000000000602082015250565b7f5361666545524332303a204552433230206f7065726174696f6e20646964206e60008201527f6f74207375636365656400000000000000000000000000000000000000000000602082015250565b7f5361666545524332303a20617070726f76652066726f6d206e6f6e2d7a65726f60008201527f20746f206e6f6e2d7a65726f20616c6c6f77616e636500000000000000000000602082015250565b7f44796f733a206465736972656420746f6b656e206e6f742070726573656e742060008201527f696e206c69717564697479207061697200000000000000000000000000000000602082015250565b61417d81613b1d565b811461418857600080fd5b50565b61419481613b2f565b811461419f57600080fd5b50565b6141ab81613b3b565b81146141b657600080fd5b50565b6141c281613b75565b81146141cd57600080fd5b50565b6141d981613b7f565b81146141e457600080fd5b5056fea2646970667358221220e25aa9c41e356f65ec330e827c2d9e8d7afefe4e542bdef3c42b14c91556fa0764736f6c63430008070033",
					"opcodes": "PUSH1 0xC0 PUSH1 0x40 MSTORE CALLVALUE DUP1 ISZERO PUSH3 0x11 JUMPI PUSH1 0x0 DUP1 REVERT JUMPDEST POP PUSH1 0x40 MLOAD PUSH3 0x442B CODESIZE SUB DUP1 PUSH3 0x442B DUP4 CODECOPY DUP2 DUP2 ADD PUSH1 0x40 MSTORE DUP2 ADD SWAP1 PUSH3 0x37 SWAP2 SWAP1 PUSH3 0xC4 JUMP JUMPDEST DUP2 PUSH20 0xFFFFFFFFFFFFFFFFFFFFFFFFFFFFFFFFFFFFFFFF AND PUSH1 0x80 DUP2 PUSH20 0xFFFFFFFFFFFFFFFFFFFFFFFFFFFFFFFFFFFFFFFF AND PUSH1 0x60 SHL DUP2 MSTORE POP POP DUP1 PUSH20 0xFFFFFFFFFFFFFFFFFFFFFFFFFFFFFFFFFFFFFFFF AND PUSH1 0xA0 DUP2 PUSH20 0xFFFFFFFFFFFFFFFFFFFFFFFFFFFFFFFFFFFFFFFF AND PUSH1 0x60 SHL DUP2 MSTORE POP POP POP POP PUSH3 0x15E JUMP JUMPDEST PUSH1 0x0 DUP2 MLOAD SWAP1 POP PUSH3 0xBE DUP2 PUSH3 0x144 JUMP JUMPDEST SWAP3 SWAP2 POP POP JUMP JUMPDEST PUSH1 0x0 DUP1 PUSH1 0x40 DUP4 DUP6 SUB SLT ISZERO PUSH3 0xDE JUMPI PUSH3 0xDD PUSH3 0x13F JUMP JUMPDEST JUMPDEST PUSH1 0x0 PUSH3 0xEE DUP6 DUP3 DUP7 ADD PUSH3 0xAD JUMP JUMPDEST SWAP3 POP POP PUSH1 0x20 PUSH3 0x101 DUP6 DUP3 DUP7 ADD PUSH3 0xAD JUMP JUMPDEST SWAP2 POP POP SWAP3 POP SWAP3 SWAP1 POP JUMP JUMPDEST PUSH1 0x0 PUSH3 0x118 DUP3 PUSH3 0x11F JUMP JUMPDEST SWAP1 POP SWAP2 SWAP1 POP JUMP JUMPDEST PUSH1 0x0 PUSH20 0xFFFFFFFFFFFFFFFFFFFFFFFFFFFFFFFFFFFFFFFF DUP3 AND SWAP1 POP SWAP2 SWAP1 POP JUMP JUMPDEST PUSH1 0x0 DUP1 REVERT JUMPDEST PUSH3 0x14F DUP2 PUSH3 0x10B JUMP JUMPDEST DUP2 EQ PUSH3 0x15B JUMPI PUSH1 0x0 DUP1 REVERT JUMPDEST POP JUMP JUMPDEST PUSH1 0x80 MLOAD PUSH1 0x60 SHR PUSH1 0xA0 MLOAD PUSH1 0x60 SHR PUSH2 0x421D PUSH3 0x20E PUSH1 0x0 CODECOPY PUSH1 0x0 DUP2 DUP2 PUSH1 0x9C ADD MSTORE DUP2 DUP2 PUSH2 0x88F ADD MSTORE DUP2 DUP2 PUSH2 0x915 ADD MSTORE DUP2 DUP2 PUSH2 0x9F5 ADD MSTORE DUP2 DUP2 PUSH2 0xA72 ADD MSTORE DUP2 DUP2 PUSH2 0xB44 ADD MSTORE DUP2 DUP2 PUSH2 0xC18 ADD MSTORE DUP2 DUP2 PUSH2 0x2466 ADD MSTORE PUSH2 0x24D4 ADD MSTORE PUSH1 0x0 DUP2 DUP2 PUSH2 0x535 ADD MSTORE DUP2 DUP2 PUSH2 0x941 ADD MSTORE DUP2 DUP2 PUSH2 0x12A6 ADD MSTORE DUP2 DUP2 PUSH2 0x12CC ADD MSTORE DUP2 DUP2 PUSH2 0x1422 ADD MSTORE DUP2 DUP2 PUSH2 0x14CC ADD MSTORE DUP2 DUP2 PUSH2 0x166D ADD MSTORE DUP2 DUP2 PUSH2 0x171E ADD MSTORE DUP2 DUP2 PUSH2 0x1E32 ADD MSTORE DUP2 DUP2 PUSH2 0x1E5A ADD MSTORE DUP2 DUP2 PUSH2 0x1F33 ADD MSTORE PUSH2 0x1F5B ADD MSTORE PUSH2 0x421D PUSH1 0x0 RETURN INVALID PUSH1 0x80 PUSH1 0x40 MSTORE PUSH1 0x4 CALLDATASIZE LT PUSH2 0x95 JUMPI PUSH1 0x0 CALLDATALOAD PUSH1 0xE0 SHR DUP1 PUSH4 0xBB0C8298 GT PUSH2 0x59 JUMPI DUP1 PUSH4 0xBB0C8298 EQ PUSH2 0x1D7 JUMPI DUP1 PUSH4 0xD9139F63 EQ PUSH2 0x202 JUMPI DUP1 PUSH4 0xDDCA3F43 EQ PUSH2 0x22B JUMPI DUP1 PUSH4 0xF3CC669A EQ PUSH2 0x256 JUMPI DUP1 PUSH4 0xF887EA40 EQ PUSH2 0x27F JUMPI PUSH2 0xF8 JUMP JUMPDEST DUP1 PUSH4 0x3F2F869A EQ PUSH2 0xFD JUMPI DUP1 PUSH4 0x72F8B6CD EQ PUSH2 0x13C JUMPI DUP1 PUSH4 0x7DB9B1F4 EQ PUSH2 0x165 JUMPI DUP1 PUSH4 0x8437FABE EQ PUSH2 0x181 JUMPI DUP1 PUSH4 0xAD5C4648 EQ PUSH2 0x1AC JUMPI PUSH2 0xF8 JUMP JUMPDEST CALLDATASIZE PUSH2 0xF8 JUMPI PUSH32 0x0 PUSH20 0xFFFFFFFFFFFFFFFFFFFFFFFFFFFFFFFFFFFFFFFF AND CALLER PUSH20 0xFFFFFFFFFFFFFFFFFFFFFFFFFFFFFFFFFFFFFFFF AND EQ PUSH2 0xF6 JUMPI PUSH2 0xF5 PUSH2 0x3C84 JUMP JUMPDEST JUMPDEST STOP JUMPDEST PUSH1 0x0 DUP1 REVERT JUMPDEST CALLVALUE DUP1 ISZERO PUSH2 0x109 JUMPI PUSH1 0x0 DUP1 REVERT JUMPDEST POP PUSH2 0x124 PUSH1 0x4 DUP1 CALLDATASIZE SUB DUP2 ADD SWAP1 PUSH2 0x11F SWAP2 SWAP1 PUSH2 0x2F71 JUMP JUMPDEST PUSH2 0x2AA JUMP JUMPDEST PUSH1 0x40 MLOAD PUSH2 0x133 SWAP4 SWAP3 SWAP2 SWAP1 PUSH2 0x3884 JUMP JUMPDEST PUSH1 0x40 MLOAD DUP1 SWAP2 SUB SWAP1 RETURN JUMPDEST CALLVALUE DUP1 ISZERO PUSH2 0x148 JUMPI PUSH1 0x0 DUP1 REVERT JUMPDEST POP PUSH2 0x163 PUSH1 0x4 DUP1 CALLDATASIZE SUB DUP2 ADD SWAP1 PUSH2 0x15E SWAP2 SWAP1 PUSH2 0x3004 JUMP JUMPDEST PUSH2 0x6F8 JUMP JUMPDEST STOP JUMPDEST PUSH2 0x17F PUSH1 0x4 DUP1 CALLDATASIZE SUB DUP2 ADD SWAP1 PUSH2 0x17A SWAP2 SWAP1 PUSH2 0x2FC4 JUMP JUMPDEST PUSH2 0x848 JUMP JUMPDEST STOP JUMPDEST CALLVALUE DUP1 ISZERO PUSH2 0x18D JUMPI PUSH1 0x0 DUP1 REVERT JUMPDEST POP PUSH2 0x196 PUSH2 0x93D JUMP JUMPDEST PUSH1 0x40 MLOAD PUSH2 0x1A3 SWAP2 SWAP1 PUSH2 0x3651 JUMP JUMPDEST PUSH1 0x40 MLOAD DUP1 SWAP2 SUB SWAP1 RETURN JUMPDEST CALLVALUE DUP1 ISZERO PUSH2 0x1B8 JUMPI PUSH1 0x0 DUP1 REVERT JUMPDEST POP PUSH2 0x1C1 PUSH2 0xA70 JUMP JUMPDEST PUSH1 0x40 MLOAD PUSH2 0x1CE SWAP2 SWAP1 PUSH2 0x352F JUMP JUMPDEST PUSH1 0x40 MLOAD DUP1 SWAP2 SUB SWAP1 RETURN JUMPDEST CALLVALUE DUP1 ISZERO PUSH2 0x1E3 JUMPI PUSH1 0x0 DUP1 REVERT JUMPDEST POP PUSH2 0x1EC PUSH2 0xA94 JUMP JUMPDEST PUSH1 0x40 MLOAD PUSH2 0x1F9 SWAP2 SWAP1 PUSH2 0x3869 JUMP JUMPDEST PUSH1 0x40 MLOAD DUP1 SWAP2 SUB SWAP1 RETURN JUMPDEST CALLVALUE DUP1 ISZERO PUSH2 0x20E JUMPI PUSH1 0x0 DUP1 REVERT JUMPDEST POP PUSH2 0x229 PUSH1 0x4 DUP1 CALLDATASIZE SUB DUP2 ADD SWAP1 PUSH2 0x224 SWAP2 SWAP1 PUSH2 0x2FC4 JUMP JUMPDEST PUSH2 0xA9A JUMP JUMPDEST STOP JUMPDEST CALLVALUE DUP1 ISZERO PUSH2 0x237 JUMPI PUSH1 0x0 DUP1 REVERT JUMPDEST POP PUSH2 0x240 PUSH2 0xEFB JUMP JUMPDEST PUSH1 0x40 MLOAD PUSH2 0x24D SWAP2 SWAP1 PUSH2 0x3869 JUMP JUMPDEST PUSH1 0x40 MLOAD DUP1 SWAP2 SUB SWAP1 RETURN JUMPDEST CALLVALUE DUP1 ISZERO PUSH2 0x262 JUMPI PUSH1 0x0 DUP1 REVERT JUMPDEST POP PUSH2 0x27D PUSH1 0x4 DUP1 CALLDATASIZE SUB DUP2 ADD SWAP1 PUSH2 0x278 SWAP2 SWAP1 PUSH2 0x3004 JUMP JUMPDEST PUSH2 0xF00 JUMP JUMPDEST STOP JUMPDEST CALLVALUE DUP1 ISZERO PUSH2 0x28B JUMPI PUSH1 0x0 DUP1 REVERT JUMPDEST POP PUSH2 0x294 PUSH2 0x1420 JUMP JUMPDEST PUSH1 0x40 MLOAD PUSH2 0x2A1 SWAP2 SWAP1 PUSH2 0x366C JUMP JUMPDEST PUSH1 0x40 MLOAD DUP1 SWAP2 SUB SWAP1 RETURN JUMPDEST PUSH1 0x0 DUP1 PUSH1 0x0 PUSH2 0x2B7 PUSH2 0x93D JUMP JUMPDEST POP PUSH1 0x0 PUSH2 0x2C3 DUP8 PUSH2 0x1444 JUMP JUMPDEST SWAP2 POP POP PUSH1 0x0 DUP7 PUSH20 0xFFFFFFFFFFFFFFFFFFFFFFFFFFFFFFFFFFFFFFFF AND DUP3 PUSH20 0xFFFFFFFFFFFFFFFFFFFFFFFFFFFFFFFFFFFFFFFF AND PUSH4 0xDFE1681 PUSH1 0x40 MLOAD DUP2 PUSH4 0xFFFFFFFF AND PUSH1 0xE0 SHL DUP2 MSTORE PUSH1 0x4 ADD PUSH1 0x20 PUSH1 0x40 MLOAD DUP1 DUP4 SUB DUP2 DUP7 DUP1 EXTCODESIZE ISZERO DUP1 ISZERO PUSH2 0x325 JUMPI PUSH1 0x0 DUP1 REVERT JUMPDEST POP GAS STATICCALL ISZERO DUP1 ISZERO PUSH2 0x339 JUMPI RETURNDATASIZE PUSH1 0x0 DUP1 RETURNDATACOPY RETURNDATASIZE PUSH1 0x0 REVERT JUMPDEST POP POP POP POP PUSH1 0x40 MLOAD RETURNDATASIZE PUSH1 0x1F NOT PUSH1 0x1F DUP3 ADD AND DUP3 ADD DUP1 PUSH1 0x40 MSTORE POP DUP2 ADD SWAP1 PUSH2 0x35D SWAP2 SWAP1 PUSH2 0x2F44 JUMP JUMPDEST PUSH20 0xFFFFFFFFFFFFFFFFFFFFFFFFFFFFFFFFFFFFFFFF AND EQ SWAP1 POP DUP1 DUP1 PUSH2 0x42A JUMPI POP DUP7 PUSH20 0xFFFFFFFFFFFFFFFFFFFFFFFFFFFFFFFFFFFFFFFF AND DUP3 PUSH20 0xFFFFFFFFFFFFFFFFFFFFFFFFFFFFFFFFFFFFFFFF AND PUSH4 0xD21220A7 PUSH1 0x40 MLOAD DUP2 PUSH4 0xFFFFFFFF AND PUSH1 0xE0 SHL DUP2 MSTORE PUSH1 0x4 ADD PUSH1 0x20 PUSH1 0x40 MLOAD DUP1 DUP4 SUB DUP2 DUP7 DUP1 EXTCODESIZE ISZERO DUP1 ISZERO PUSH2 0x3DA JUMPI PUSH1 0x0 DUP1 REVERT JUMPDEST POP GAS STATICCALL ISZERO DUP1 ISZERO PUSH2 0x3EE JUMPI RETURNDATASIZE PUSH1 0x0 DUP1 RETURNDATACOPY RETURNDATASIZE PUSH1 0x0 REVERT JUMPDEST POP POP POP POP PUSH1 0x40 MLOAD RETURNDATASIZE PUSH1 0x1F NOT PUSH1 0x1F DUP3 ADD AND DUP3 ADD DUP1 PUSH1 0x40 MSTORE POP DUP2 ADD SWAP1 PUSH2 0x412 SWAP2 SWAP1 PUSH2 0x2F44 JUMP JUMPDEST PUSH20 0xFFFFFFFFFFFFFFFFFFFFFFFFFFFFFFFFFFFFFFFF AND EQ JUMPDEST PUSH2 0x469 JUMPI PUSH1 0x40 MLOAD PUSH32 0x8C379A000000000000000000000000000000000000000000000000000000000 DUP2 MSTORE PUSH1 0x4 ADD PUSH2 0x460 SWAP1 PUSH2 0x3709 JUMP JUMPDEST PUSH1 0x40 MLOAD DUP1 SWAP2 SUB SWAP1 REVERT JUMPDEST PUSH1 0x0 DUP1 DUP4 PUSH20 0xFFFFFFFFFFFFFFFFFFFFFFFFFFFFFFFFFFFFFFFF AND PUSH4 0x902F1AC PUSH1 0x40 MLOAD DUP2 PUSH4 0xFFFFFFFF AND PUSH1 0xE0 SHL DUP2 MSTORE PUSH1 0x4 ADD PUSH1 0x60 PUSH1 0x40 MLOAD DUP1 DUP4 SUB DUP2 DUP7 DUP1 EXTCODESIZE ISZERO DUP1 ISZERO PUSH2 0x4B2 JUMPI PUSH1 0x0 DUP1 REVERT JUMPDEST POP GAS STATICCALL ISZERO DUP1 ISZERO PUSH2 0x4C6 JUMPI RETURNDATASIZE PUSH1 0x0 DUP1 RETURNDATACOPY RETURNDATASIZE PUSH1 0x0 REVERT JUMPDEST POP POP POP POP PUSH1 0x40 MLOAD RETURNDATASIZE PUSH1 0x1F NOT PUSH1 0x1F DUP3 ADD AND DUP3 ADD DUP1 PUSH1 0x40 MSTORE POP DUP2 ADD SWAP1 PUSH2 0x4EA SWAP2 SWAP1 PUSH2 0x30E1 JUMP JUMPDEST POP PUSH14 0xFFFFFFFFFFFFFFFFFFFFFFFFFFFF AND SWAP2 POP PUSH14 0xFFFFFFFFFFFFFFFFFFFFFFFFFFFF AND SWAP2 POP DUP3 PUSH2 0x51B JUMPI DUP1 DUP3 PUSH2 0x51E JUMP JUMPDEST DUP2 DUP2 JUMPDEST DUP1 SWAP3 POP DUP2 SWAP4 POP POP POP PUSH2 0x531 DUP9 DUP4 DUP4 PUSH2 0x1657 JUMP JUMPDEST SWAP7 POP PUSH32 0x0 PUSH20 0xFFFFFFFFFFFFFFFFFFFFFFFFFFFFFFFFFFFFFFFF AND PUSH4 0x54D50D4 DUP9 DUP5 DUP5 PUSH1 0x40 MLOAD DUP5 PUSH4 0xFFFFFFFF AND PUSH1 0xE0 SHL DUP2 MSTORE PUSH1 0x4 ADD PUSH2 0x590 SWAP4 SWAP3 SWAP2 SWAP1 PUSH2 0x3915 JUMP JUMPDEST PUSH1 0x20 PUSH1 0x40 MLOAD DUP1 DUP4 SUB DUP2 DUP7 DUP1 EXTCODESIZE ISZERO DUP1 ISZERO PUSH2 0x5A8 JUMPI PUSH1 0x0 DUP1 REVERT JUMPDEST POP GAS STATICCALL ISZERO DUP1 ISZERO PUSH2 0x5BC JUMPI RETURNDATASIZE PUSH1 0x0 DUP1 RETURNDATACOPY RETURNDATASIZE PUSH1 0x0 REVERT JUMPDEST POP POP POP POP PUSH1 0x40 MLOAD RETURNDATASIZE PUSH1 0x1F NOT PUSH1 0x1F DUP3 ADD AND DUP3 ADD DUP1 PUSH1 0x40 MSTORE POP DUP2 ADD SWAP1 PUSH2 0x5E0 SWAP2 SWAP1 PUSH2 0x3134 JUMP JUMPDEST SWAP6 POP DUP3 PUSH2 0x66A JUMPI DUP4 PUSH20 0xFFFFFFFFFFFFFFFFFFFFFFFFFFFFFFFFFFFFFFFF AND PUSH4 0xDFE1681 PUSH1 0x40 MLOAD DUP2 PUSH4 0xFFFFFFFF AND PUSH1 0xE0 SHL DUP2 MSTORE PUSH1 0x4 ADD PUSH1 0x20 PUSH1 0x40 MLOAD DUP1 DUP4 SUB DUP2 DUP7 DUP1 EXTCODESIZE ISZERO DUP1 ISZERO PUSH2 0x62D JUMPI PUSH1 0x0 DUP1 REVERT JUMPDEST POP GAS STATICCALL ISZERO DUP1 ISZERO PUSH2 0x641 JUMPI RETURNDATASIZE PUSH1 0x0 DUP1 RETURNDATACOPY RETURNDATASIZE PUSH1 0x0 REVERT JUMPDEST POP POP POP POP PUSH1 0x40 MLOAD RETURNDATASIZE PUSH1 0x1F NOT PUSH1 0x1F DUP3 ADD AND DUP3 ADD DUP1 PUSH1 0x40 MSTORE POP DUP2 ADD SWAP1 PUSH2 0x665 SWAP2 SWAP1 PUSH2 0x2F44 JUMP JUMPDEST PUSH2 0x6E9 JUMP JUMPDEST DUP4 PUSH20 0xFFFFFFFFFFFFFFFFFFFFFFFFFFFFFFFFFFFFFFFF AND PUSH4 0xD21220A7 PUSH1 0x40 MLOAD DUP2 PUSH4 0xFFFFFFFF AND PUSH1 0xE0 SHL DUP2 MSTORE PUSH1 0x4 ADD PUSH1 0x20 PUSH1 0x40 MLOAD DUP1 DUP4 SUB DUP2 DUP7 DUP1 EXTCODESIZE ISZERO DUP1 ISZERO PUSH2 0x6B0 JUMPI PUSH1 0x0 DUP1 REVERT JUMPDEST POP GAS STATICCALL ISZERO DUP1 ISZERO PUSH2 0x6C4 JUMPI RETURNDATASIZE PUSH1 0x0 DUP1 RETURNDATACOPY RETURNDATASIZE PUSH1 0x0 REVERT JUMPDEST POP POP POP POP PUSH1 0x40 MLOAD RETURNDATASIZE PUSH1 0x1F NOT PUSH1 0x1F DUP3 ADD AND DUP3 ADD DUP1 PUSH1 0x40 MSTORE POP DUP2 ADD SWAP1 PUSH2 0x6E8 SWAP2 SWAP1 PUSH2 0x2F44 JUMP JUMPDEST JUMPDEST SWAP5 POP POP POP POP POP SWAP4 POP SWAP4 POP SWAP4 SWAP1 POP JUMP JUMPDEST PUSH2 0x3E8 DUP2 LT ISZERO PUSH2 0x73D JUMPI PUSH1 0x40 MLOAD PUSH32 0x8C379A000000000000000000000000000000000000000000000000000000000 DUP2 MSTORE PUSH1 0x4 ADD PUSH2 0x734 SWAP1 PUSH2 0x36C9 JUMP JUMPDEST PUSH1 0x40 MLOAD DUP1 SWAP2 SUB SWAP1 REVERT JUMPDEST DUP1 DUP3 PUSH20 0xFFFFFFFFFFFFFFFFFFFFFFFFFFFFFFFFFFFFFFFF AND PUSH4 0xDD62ED3E CALLER ADDRESS PUSH1 0x40 MLOAD DUP4 PUSH4 0xFFFFFFFF AND PUSH1 0xE0 SHL DUP2 MSTORE PUSH1 0x4 ADD PUSH2 0x779 SWAP3 SWAP2 SWAP1 PUSH2 0x354A JUMP JUMPDEST PUSH1 0x20 PUSH1 0x40 MLOAD DUP1 DUP4 SUB DUP2 DUP7 DUP1 EXTCODESIZE ISZERO DUP1 ISZERO PUSH2 0x791 JUMPI PUSH1 0x0 DUP1 REVERT JUMPDEST POP GAS STATICCALL ISZERO DUP1 ISZERO PUSH2 0x7A5 JUMPI RETURNDATASIZE PUSH1 0x0 DUP1 RETURNDATACOPY RETURNDATASIZE PUSH1 0x0 REVERT JUMPDEST POP POP POP POP PUSH1 0x40 MLOAD RETURNDATASIZE PUSH1 0x1F NOT PUSH1 0x1F DUP3 ADD AND DUP3 ADD DUP1 PUSH1 0x40 MSTORE POP DUP2 ADD SWAP1 PUSH2 0x7C9 SWAP2 SWAP1 PUSH2 0x3134 JUMP JUMPDEST LT ISZERO PUSH2 0x80A JUMPI PUSH1 0x40 MLOAD PUSH32 0x8C379A000000000000000000000000000000000000000000000000000000000 DUP2 MSTORE PUSH1 0x4 ADD PUSH2 0x801 SWAP1 PUSH2 0x3769 JUMP JUMPDEST PUSH1 0x40 MLOAD DUP1 SWAP2 SUB SWAP1 REVERT JUMPDEST PUSH2 0x837 CALLER ADDRESS DUP4 DUP6 PUSH20 0xFFFFFFFFFFFFFFFFFFFFFFFFFFFFFFFFFFFFFFFF AND PUSH2 0x1837 SWAP1 SWAP4 SWAP3 SWAP2 SWAP1 PUSH4 0xFFFFFFFF AND JUMP JUMPDEST PUSH2 0x842 DUP5 DUP5 DUP5 PUSH2 0x18C0 JUMP JUMPDEST POP POP POP POP JUMP JUMPDEST PUSH2 0x3E8 CALLVALUE LT ISZERO PUSH2 0x88D JUMPI PUSH1 0x40 MLOAD PUSH32 0x8C379A000000000000000000000000000000000000000000000000000000000 DUP2 MSTORE PUSH1 0x4 ADD PUSH2 0x884 SWAP1 PUSH2 0x36C9 JUMP JUMPDEST PUSH1 0x40 MLOAD DUP1 SWAP2 SUB SWAP1 REVERT JUMPDEST PUSH32 0x0 PUSH20 0xFFFFFFFFFFFFFFFFFFFFFFFFFFFFFFFFFFFFFFFF AND PUSH4 0xD0E30DB0 CALLVALUE PUSH1 0x40 MLOAD DUP3 PUSH4 0xFFFFFFFF AND PUSH1 0xE0 SHL DUP2 MSTORE PUSH1 0x4 ADD PUSH1 0x0 PUSH1 0x40 MLOAD DUP1 DUP4 SUB DUP2 DUP6 DUP9 DUP1 EXTCODESIZE ISZERO DUP1 ISZERO PUSH2 0x8F5 JUMPI PUSH1 0x0 DUP1 REVERT JUMPDEST POP GAS CALL ISZERO DUP1 ISZERO PUSH2 0x909 JUMPI RETURNDATASIZE PUSH1 0x0 DUP1 RETURNDATACOPY RETURNDATASIZE PUSH1 0x0 REVERT JUMPDEST POP POP POP POP POP PUSH2 0x939 DUP3 DUP3 PUSH32 0x0 PUSH2 0x18C0 JUMP JUMPDEST POP POP JUMP JUMPDEST PUSH1 0x0 PUSH32 0x0 PUSH20 0xFFFFFFFFFFFFFFFFFFFFFFFFFFFFFFFFFFFFFFFF AND PUSH4 0xAD5C4648 PUSH1 0x40 MLOAD DUP2 PUSH4 0xFFFFFFFF AND PUSH1 0xE0 SHL DUP2 MSTORE PUSH1 0x4 ADD PUSH1 0x20 PUSH1 0x40 MLOAD DUP1 DUP4 SUB DUP2 DUP7 DUP1 EXTCODESIZE ISZERO DUP1 ISZERO PUSH2 0x9A5 JUMPI PUSH1 0x0 DUP1 REVERT JUMPDEST POP GAS STATICCALL ISZERO DUP1 ISZERO PUSH2 0x9B9 JUMPI RETURNDATASIZE PUSH1 0x0 DUP1 RETURNDATACOPY RETURNDATASIZE PUSH1 0x0 REVERT JUMPDEST POP POP POP POP PUSH1 0x40 MLOAD RETURNDATASIZE PUSH1 0x1F NOT PUSH1 0x1F DUP3 ADD AND DUP3 ADD DUP1 PUSH1 0x40 MSTORE POP DUP2 ADD SWAP1 PUSH2 0x9DD SWAP2 SWAP1 PUSH2 0x2F44 JUMP JUMPDEST PUSH20 0xFFFFFFFFFFFFFFFFFFFFFFFFFFFFFFFFFFFFFFFF AND PUSH32 0x0 PUSH20 0xFFFFFFFFFFFFFFFFFFFFFFFFFFFFFFFFFFFFFFFF AND EQ SWAP1 POP DUP1 PUSH2 0xA6D JUMPI PUSH1 0x40 MLOAD PUSH32 0x8C379A000000000000000000000000000000000000000000000000000000000 DUP2 MSTORE PUSH1 0x4 ADD PUSH2 0xA64 SWAP1 PUSH2 0x37A9 JUMP JUMPDEST PUSH1 0x40 MLOAD DUP1 SWAP2 SUB SWAP1 REVERT JUMPDEST SWAP1 JUMP JUMPDEST PUSH32 0x0 DUP2 JUMP JUMPDEST PUSH2 0x3E8 DUP2 JUMP JUMPDEST PUSH1 0x0 DUP1 PUSH2 0xAA6 DUP5 PUSH2 0x1444 JUMP JUMPDEST SWAP2 POP SWAP2 POP PUSH2 0xAD7 CALLER ADDRESS DUP6 DUP8 PUSH20 0xFFFFFFFFFFFFFFFFFFFFFFFFFFFFFFFFFFFFFFFF AND PUSH2 0x1837 SWAP1 SWAP4 SWAP3 SWAP2 SWAP1 PUSH4 0xFFFFFFFF AND JUMP JUMPDEST DUP2 PUSH20 0xFFFFFFFFFFFFFFFFFFFFFFFFFFFFFFFFFFFFFFFF AND PUSH4 0x2E1A7D4D DUP5 PUSH1 0x40 MLOAD DUP3 PUSH4 0xFFFFFFFF AND PUSH1 0xE0 SHL DUP2 MSTORE PUSH1 0x4 ADD PUSH2 0xB10 SWAP2 SWAP1 PUSH2 0x3869 JUMP JUMPDEST PUSH1 0x0 PUSH1 0x40 MLOAD DUP1 DUP4 SUB DUP2 PUSH1 0x0 DUP8 DUP1 EXTCODESIZE ISZERO DUP1 ISZERO PUSH2 0xB2A JUMPI PUSH1 0x0 DUP1 REVERT JUMPDEST POP GAS CALL ISZERO DUP1 ISZERO PUSH2 0xB3E JUMPI RETURNDATASIZE PUSH1 0x0 DUP1 RETURNDATACOPY RETURNDATASIZE PUSH1 0x0 REVERT JUMPDEST POP POP POP POP PUSH32 0x0 PUSH20 0xFFFFFFFFFFFFFFFFFFFFFFFFFFFFFFFFFFFFFFFF AND DUP2 PUSH20 0xFFFFFFFFFFFFFFFFFFFFFFFFFFFFFFFFFFFFFFFF AND PUSH4 0xDFE1681 PUSH1 0x40 MLOAD DUP2 PUSH4 0xFFFFFFFF AND PUSH1 0xE0 SHL DUP2 MSTORE PUSH1 0x4 ADD PUSH1 0x20 PUSH1 0x40 MLOAD DUP1 DUP4 SUB DUP2 DUP7 DUP1 EXTCODESIZE ISZERO DUP1 ISZERO PUSH2 0xBBF JUMPI PUSH1 0x0 DUP1 REVERT JUMPDEST POP GAS STATICCALL ISZERO DUP1 ISZERO PUSH2 0xBD3 JUMPI RETURNDATASIZE PUSH1 0x0 DUP1 RETURNDATACOPY RETURNDATASIZE PUSH1 0x0 REVERT JUMPDEST POP POP POP POP PUSH1 0x40 MLOAD RETURNDATASIZE PUSH1 0x1F NOT PUSH1 0x1F DUP3 ADD AND DUP3 ADD DUP1 PUSH1 0x40 MSTORE POP DUP2 ADD SWAP1 PUSH2 0xBF7 SWAP2 SWAP1 PUSH2 0x2F44 JUMP JUMPDEST PUSH20 0xFFFFFFFFFFFFFFFFFFFFFFFFFFFFFFFFFFFFFFFF AND EQ ISZERO DUP1 ISZERO PUSH2 0xCE4 JUMPI POP PUSH32 0x0 PUSH20 0xFFFFFFFFFFFFFFFFFFFFFFFFFFFFFFFFFFFFFFFF AND DUP2 PUSH20 0xFFFFFFFFFFFFFFFFFFFFFFFFFFFFFFFFFFFFFFFF AND PUSH4 0xD21220A7 PUSH1 0x40 MLOAD DUP2 PUSH4 0xFFFFFFFF AND PUSH1 0xE0 SHL DUP2 MSTORE PUSH1 0x4 ADD PUSH1 0x20 PUSH1 0x40 MLOAD DUP1 DUP4 SUB DUP2 DUP7 DUP1 EXTCODESIZE ISZERO DUP1 ISZERO PUSH2 0xC93 JUMPI PUSH1 0x0 DUP1 REVERT JUMPDEST POP GAS STATICCALL ISZERO DUP1 ISZERO PUSH2 0xCA7 JUMPI RETURNDATASIZE PUSH1 0x0 DUP1 RETURNDATACOPY RETURNDATASIZE PUSH1 0x0 REVERT JUMPDEST POP POP POP POP PUSH1 0x40 MLOAD RETURNDATASIZE PUSH1 0x1F NOT PUSH1 0x1F DUP3 ADD AND DUP3 ADD DUP1 PUSH1 0x40 MSTORE POP DUP2 ADD SWAP1 PUSH2 0xCCB SWAP2 SWAP1 PUSH2 0x2F44 JUMP JUMPDEST PUSH20 0xFFFFFFFFFFFFFFFFFFFFFFFFFFFFFFFFFFFFFFFF AND EQ ISZERO JUMPDEST ISZERO PUSH2 0xCFA JUMPI PUSH2 0xCF3 DUP2 CALLER PUSH2 0x21D5 JUMP JUMPDEST POP POP PUSH2 0xEF7 JUMP JUMPDEST PUSH2 0xD04 DUP2 ADDRESS PUSH2 0x21D5 JUMP JUMPDEST PUSH1 0x0 PUSH1 0x2 PUSH8 0xFFFFFFFFFFFFFFFF DUP2 GT ISZERO PUSH2 0xD21 JUMPI PUSH2 0xD20 PUSH2 0x3D40 JUMP JUMPDEST JUMPDEST PUSH1 0x40 MLOAD SWAP1 DUP1 DUP3 MSTORE DUP1 PUSH1 0x20 MUL PUSH1 0x20 ADD DUP3 ADD PUSH1 0x40 MSTORE DUP1 ISZERO PUSH2 0xD4F JUMPI DUP2 PUSH1 0x20 ADD PUSH1 0x20 DUP3 MUL DUP1 CALLDATASIZE DUP4 CALLDATACOPY DUP1 DUP3 ADD SWAP2 POP POP SWAP1 POP JUMPDEST POP SWAP1 POP DUP2 PUSH20 0xFFFFFFFFFFFFFFFFFFFFFFFFFFFFFFFFFFFFFFFF AND PUSH4 0xDFE1681 PUSH1 0x40 MLOAD DUP2 PUSH4 0xFFFFFFFF AND PUSH1 0xE0 SHL DUP2 MSTORE PUSH1 0x4 ADD PUSH1 0x20 PUSH1 0x40 MLOAD DUP1 DUP4 SUB DUP2 DUP7 DUP1 EXTCODESIZE ISZERO DUP1 ISZERO PUSH2 0xD98 JUMPI PUSH1 0x0 DUP1 REVERT JUMPDEST POP GAS STATICCALL ISZERO DUP1 ISZERO PUSH2 0xDAC JUMPI RETURNDATASIZE PUSH1 0x0 DUP1 RETURNDATACOPY RETURNDATASIZE PUSH1 0x0 REVERT JUMPDEST POP POP POP POP PUSH1 0x40 MLOAD RETURNDATASIZE PUSH1 0x1F NOT PUSH1 0x1F DUP3 ADD AND DUP3 ADD DUP1 PUSH1 0x40 MSTORE POP DUP2 ADD SWAP1 PUSH2 0xDD0 SWAP2 SWAP1 PUSH2 0x2F44 JUMP JUMPDEST DUP2 PUSH1 0x0 DUP2 MLOAD DUP2 LT PUSH2 0xDE4 JUMPI PUSH2 0xDE3 PUSH2 0x3D11 JUMP JUMPDEST JUMPDEST PUSH1 0x20 MUL PUSH1 0x20 ADD ADD SWAP1 PUSH20 0xFFFFFFFFFFFFFFFFFFFFFFFFFFFFFFFFFFFFFFFF AND SWAP1 DUP2 PUSH20 0xFFFFFFFFFFFFFFFFFFFFFFFFFFFFFFFFFFFFFFFF AND DUP2 MSTORE POP POP DUP2 PUSH20 0xFFFFFFFFFFFFFFFFFFFFFFFFFFFFFFFFFFFFFFFF AND PUSH4 0xD21220A7 PUSH1 0x40 MLOAD DUP2 PUSH4 0xFFFFFFFF AND PUSH1 0xE0 SHL DUP2 MSTORE PUSH1 0x4 ADD PUSH1 0x20 PUSH1 0x40 MLOAD DUP1 DUP4 SUB DUP2 DUP7 DUP1 EXTCODESIZE ISZERO DUP1 ISZERO PUSH2 0xE64 JUMPI PUSH1 0x0 DUP1 REVERT JUMPDEST POP GAS STATICCALL ISZERO DUP1 ISZERO PUSH2 0xE78 JUMPI RETURNDATASIZE PUSH1 0x0 DUP1 RETURNDATACOPY RETURNDATASIZE PUSH1 0x0 REVERT JUMPDEST POP POP POP POP PUSH1 0x40 MLOAD RETURNDATASIZE PUSH1 0x1F NOT PUSH1 0x1F DUP3 ADD AND DUP3 ADD DUP1 PUSH1 0x40 MSTORE POP DUP2 ADD SWAP1 PUSH2 0xE9C SWAP2 SWAP1 PUSH2 0x2F44 JUMP JUMPDEST DUP2 PUSH1 0x1 DUP2 MLOAD DUP2 LT PUSH2 0xEB0 JUMPI PUSH2 0xEAF PUSH2 0x3D11 JUMP JUMPDEST JUMPDEST PUSH1 0x20 MUL PUSH1 0x20 ADD ADD SWAP1 PUSH20 0xFFFFFFFFFFFFFFFFFFFFFFFFFFFFFFFFFFFFFFFF AND SWAP1 DUP2 PUSH20 0xFFFFFFFFFFFFFFFFFFFFFFFFFFFFFFFFFFFFFFFF AND DUP2 MSTORE POP POP PUSH2 0xEF3 DUP2 PUSH2 0x23A9 JUMP JUMPDEST POP POP POP JUMPDEST POP POP JUMP JUMPDEST PUSH1 0x1 DUP2 JUMP JUMPDEST PUSH1 0x0 DUP1 PUSH2 0xF0C DUP7 PUSH2 0x1444 JUMP JUMPDEST SWAP2 POP SWAP2 POP PUSH1 0x0 DUP2 PUSH20 0xFFFFFFFFFFFFFFFFFFFFFFFFFFFFFFFFFFFFFFFF AND PUSH4 0xDFE1681 PUSH1 0x40 MLOAD DUP2 PUSH4 0xFFFFFFFF AND PUSH1 0xE0 SHL DUP2 MSTORE PUSH1 0x4 ADD PUSH1 0x20 PUSH1 0x40 MLOAD DUP1 DUP4 SUB DUP2 DUP7 DUP1 EXTCODESIZE ISZERO DUP1 ISZERO PUSH2 0xF58 JUMPI PUSH1 0x0 DUP1 REVERT JUMPDEST POP GAS STATICCALL ISZERO DUP1 ISZERO PUSH2 0xF6C JUMPI RETURNDATASIZE PUSH1 0x0 DUP1 RETURNDATACOPY RETURNDATASIZE PUSH1 0x0 REVERT JUMPDEST POP POP POP POP PUSH1 0x40 MLOAD RETURNDATASIZE PUSH1 0x1F NOT PUSH1 0x1F DUP3 ADD AND DUP3 ADD DUP1 PUSH1 0x40 MSTORE POP DUP2 ADD SWAP1 PUSH2 0xF90 SWAP2 SWAP1 PUSH2 0x2F44 JUMP JUMPDEST SWAP1 POP PUSH1 0x0 DUP3 PUSH20 0xFFFFFFFFFFFFFFFFFFFFFFFFFFFFFFFFFFFFFFFF AND PUSH4 0xD21220A7 PUSH1 0x40 MLOAD DUP2 PUSH4 0xFFFFFFFF AND PUSH1 0xE0 SHL DUP2 MSTORE PUSH1 0x4 ADD PUSH1 0x20 PUSH1 0x40 MLOAD DUP1 DUP4 SUB DUP2 DUP7 DUP1 EXTCODESIZE ISZERO DUP1 ISZERO PUSH2 0xFDA JUMPI PUSH1 0x0 DUP1 REVERT JUMPDEST POP GAS STATICCALL ISZERO DUP1 ISZERO PUSH2 0xFEE JUMPI RETURNDATASIZE PUSH1 0x0 DUP1 RETURNDATACOPY RETURNDATASIZE PUSH1 0x0 REVERT JUMPDEST POP POP POP POP PUSH1 0x40 MLOAD RETURNDATASIZE PUSH1 0x1F NOT PUSH1 0x1F DUP3 ADD AND DUP3 ADD DUP1 PUSH1 0x40 MSTORE POP DUP2 ADD SWAP1 PUSH2 0x1012 SWAP2 SWAP1 PUSH2 0x2F44 JUMP JUMPDEST SWAP1 POP DUP6 PUSH20 0xFFFFFFFFFFFFFFFFFFFFFFFFFFFFFFFFFFFFFFFF AND DUP3 PUSH20 0xFFFFFFFFFFFFFFFFFFFFFFFFFFFFFFFFFFFFFFFF AND EQ DUP1 PUSH2 0x1079 JUMPI POP DUP6 PUSH20 0xFFFFFFFFFFFFFFFFFFFFFFFFFFFFFFFFFFFFFFFF AND DUP2 PUSH20 0xFFFFFFFFFFFFFFFFFFFFFFFFFFFFFFFFFFFFFFFF AND EQ JUMPDEST PUSH2 0x10B8 JUMPI PUSH1 0x40 MLOAD PUSH32 0x8C379A000000000000000000000000000000000000000000000000000000000 DUP2 MSTORE PUSH1 0x4 ADD PUSH2 0x10AF SWAP1 PUSH2 0x3849 JUMP JUMPDEST PUSH1 0x40 MLOAD DUP1 SWAP2 SUB SWAP1 REVERT JUMPDEST PUSH2 0x10E5 CALLER ADDRESS DUP10 DUP8 PUSH20 0xFFFFFFFFFFFFFFFFFFFFFFFFFFFFFFFFFFFFFFFF AND PUSH2 0x1837 SWAP1 SWAP4 SWAP3 SWAP2 SWAP1 PUSH4 0xFFFFFFFF AND JUMP JUMPDEST DUP4 PUSH20 0xFFFFFFFFFFFFFFFFFFFFFFFFFFFFFFFFFFFFFFFF AND PUSH4 0x2E1A7D4D DUP9 PUSH1 0x40 MLOAD DUP3 PUSH4 0xFFFFFFFF AND PUSH1 0xE0 SHL DUP2 MSTORE PUSH1 0x4 ADD PUSH2 0x111E SWAP2 SWAP1 PUSH2 0x3869 JUMP JUMPDEST PUSH1 0x0 PUSH1 0x40 MLOAD DUP1 DUP4 SUB DUP2 PUSH1 0x0 DUP8 DUP1 EXTCODESIZE ISZERO DUP1 ISZERO PUSH2 0x1138 JUMPI PUSH1 0x0 DUP1 REVERT JUMPDEST POP GAS CALL ISZERO DUP1 ISZERO PUSH2 0x114C JUMPI RETURNDATASIZE PUSH1 0x0 DUP1 RETURNDATACOPY RETURNDATASIZE PUSH1 0x0 REVERT JUMPDEST POP POP POP POP PUSH2 0x115A DUP4 ADDRESS PUSH2 0x21D5 JUMP JUMPDEST PUSH1 0x0 DUP7 PUSH20 0xFFFFFFFFFFFFFFFFFFFFFFFFFFFFFFFFFFFFFFFF AND DUP3 PUSH20 0xFFFFFFFFFFFFFFFFFFFFFFFFFFFFFFFFFFFFFFFF AND EQ PUSH2 0x1195 JUMPI DUP2 PUSH2 0x1197 JUMP JUMPDEST DUP3 JUMPDEST SWAP1 POP PUSH1 0x0 PUSH1 0x2 PUSH8 0xFFFFFFFFFFFFFFFF DUP2 GT ISZERO PUSH2 0x11B6 JUMPI PUSH2 0x11B5 PUSH2 0x3D40 JUMP JUMPDEST JUMPDEST PUSH1 0x40 MLOAD SWAP1 DUP1 DUP3 MSTORE DUP1 PUSH1 0x20 MUL PUSH1 0x20 ADD DUP3 ADD PUSH1 0x40 MSTORE DUP1 ISZERO PUSH2 0x11E4 JUMPI DUP2 PUSH1 0x20 ADD PUSH1 0x20 DUP3 MUL DUP1 CALLDATASIZE DUP4 CALLDATACOPY DUP1 DUP3 ADD SWAP2 POP POP SWAP1 POP JUMPDEST POP SWAP1 POP DUP2 DUP2 PUSH1 0x0 DUP2 MLOAD DUP2 LT PUSH2 0x11FC JUMPI PUSH2 0x11FB PUSH2 0x3D11 JUMP JUMPDEST JUMPDEST PUSH1 0x20 MUL PUSH1 0x20 ADD ADD SWAP1 PUSH20 0xFFFFFFFFFFFFFFFFFFFFFFFFFFFFFFFFFFFFFFFF AND SWAP1 DUP2 PUSH20 0xFFFFFFFFFFFFFFFFFFFFFFFFFFFFFFFFFFFFFFFF AND DUP2 MSTORE POP POP DUP8 DUP2 PUSH1 0x1 DUP2 MLOAD DUP2 LT PUSH2 0x124B JUMPI PUSH2 0x124A PUSH2 0x3D11 JUMP JUMPDEST JUMPDEST PUSH1 0x20 MUL PUSH1 0x20 ADD ADD SWAP1 PUSH20 0xFFFFFFFFFFFFFFFFFFFFFFFFFFFFFFFFFFFFFFFF AND SWAP1 DUP2 PUSH20 0xFFFFFFFFFFFFFFFFFFFFFFFFFFFFFFFFFFFFFFFF AND DUP2 MSTORE POP POP PUSH2 0x12CA DUP2 PUSH1 0x0 DUP2 MLOAD DUP2 LT PUSH2 0x129C JUMPI PUSH2 0x129B PUSH2 0x3D11 JUMP JUMPDEST JUMPDEST PUSH1 0x20 MUL PUSH1 0x20 ADD ADD MLOAD PUSH32 0x0 PUSH2 0x26BD JUMP JUMPDEST PUSH32 0x0 PUSH20 0xFFFFFFFFFFFFFFFFFFFFFFFFFFFFFFFFFFFFFFFF AND PUSH4 0x38ED1739 DUP4 PUSH20 0xFFFFFFFFFFFFFFFFFFFFFFFFFFFFFFFFFFFFFFFF AND PUSH4 0x70A08231 ADDRESS PUSH1 0x40 MLOAD DUP3 PUSH4 0xFFFFFFFF AND PUSH1 0xE0 SHL DUP2 MSTORE PUSH1 0x4 ADD PUSH2 0x133F SWAP2 SWAP1 PUSH2 0x352F JUMP JUMPDEST PUSH1 0x20 PUSH1 0x40 MLOAD DUP1 DUP4 SUB DUP2 DUP7 DUP1 EXTCODESIZE ISZERO DUP1 ISZERO PUSH2 0x1357 JUMPI PUSH1 0x0 DUP1 REVERT JUMPDEST POP GAS STATICCALL ISZERO DUP1 ISZERO PUSH2 0x136B JUMPI RETURNDATASIZE PUSH1 0x0 DUP1 RETURNDATACOPY RETURNDATASIZE PUSH1 0x0 REVERT JUMPDEST POP POP POP POP PUSH1 0x40 MLOAD RETURNDATASIZE PUSH1 0x1F NOT PUSH1 0x1F DUP3 ADD AND DUP3 ADD DUP1 PUSH1 0x40 MSTORE POP DUP2 ADD SWAP1 PUSH2 0x138F SWAP2 SWAP1 PUSH2 0x3134 JUMP JUMPDEST DUP10 DUP5 ADDRESS TIMESTAMP PUSH1 0x40 MLOAD DUP7 PUSH4 0xFFFFFFFF AND PUSH1 0xE0 SHL DUP2 MSTORE PUSH1 0x4 ADD PUSH2 0x13B3 SWAP6 SWAP5 SWAP4 SWAP3 SWAP2 SWAP1 PUSH2 0x38BB JUMP JUMPDEST PUSH1 0x0 PUSH1 0x40 MLOAD DUP1 DUP4 SUB DUP2 PUSH1 0x0 DUP8 DUP1 EXTCODESIZE ISZERO DUP1 ISZERO PUSH2 0x13CD JUMPI PUSH1 0x0 DUP1 REVERT JUMPDEST POP GAS CALL ISZERO DUP1 ISZERO PUSH2 0x13E1 JUMPI RETURNDATASIZE PUSH1 0x0 DUP1 RETURNDATACOPY RETURNDATASIZE PUSH1 0x0 REVERT JUMPDEST POP POP POP POP PUSH1 0x40 MLOAD RETURNDATASIZE PUSH1 0x0 DUP3 RETURNDATACOPY RETURNDATASIZE PUSH1 0x1F NOT PUSH1 0x1F DUP3 ADD AND DUP3 ADD DUP1 PUSH1 0x40 MSTORE POP DUP2 ADD SWAP1 PUSH2 0x140A SWAP2 SWAP1 PUSH2 0x306B JUMP JUMPDEST POP PUSH2 0x1414 DUP2 PUSH2 0x23A9 JUMP JUMPDEST POP POP POP POP POP POP POP POP POP POP JUMP JUMPDEST PUSH32 0x0 DUP2 JUMP JUMPDEST PUSH1 0x0 DUP1 DUP3 SWAP2 POP DUP2 PUSH20 0xFFFFFFFFFFFFFFFFFFFFFFFFFFFFFFFFFFFFFFFF AND PUSH4 0x1F1FCD51 PUSH1 0x40 MLOAD DUP2 PUSH4 0xFFFFFFFF AND PUSH1 0xE0 SHL DUP2 MSTORE PUSH1 0x4 ADD PUSH1 0x20 PUSH1 0x40 MLOAD DUP1 DUP4 SUB DUP2 DUP7 DUP1 EXTCODESIZE ISZERO DUP1 ISZERO PUSH2 0x1490 JUMPI PUSH1 0x0 DUP1 REVERT JUMPDEST POP GAS STATICCALL ISZERO DUP1 ISZERO PUSH2 0x14A4 JUMPI RETURNDATASIZE PUSH1 0x0 DUP1 RETURNDATACOPY RETURNDATASIZE PUSH1 0x0 REVERT JUMPDEST POP POP POP POP PUSH1 0x40 MLOAD RETURNDATASIZE PUSH1 0x1F NOT PUSH1 0x1F DUP3 ADD AND DUP3 ADD DUP1 PUSH1 0x40 MSTORE POP DUP2 ADD SWAP1 PUSH2 0x14C8 SWAP2 SWAP1 PUSH2 0x2F44 JUMP JUMPDEST SWAP1 POP PUSH32 0x0 PUSH20 0xFFFFFFFFFFFFFFFFFFFFFFFFFFFFFFFFFFFFFFFF AND PUSH4 0xC45A0155 PUSH1 0x40 MLOAD DUP2 PUSH4 0xFFFFFFFF AND PUSH1 0xE0 SHL DUP2 MSTORE PUSH1 0x4 ADD PUSH1 0x20 PUSH1 0x40 MLOAD DUP1 DUP4 SUB DUP2 DUP7 DUP1 EXTCODESIZE ISZERO DUP1 ISZERO PUSH2 0x1530 JUMPI PUSH1 0x0 DUP1 REVERT JUMPDEST POP GAS STATICCALL ISZERO DUP1 ISZERO PUSH2 0x1544 JUMPI RETURNDATASIZE PUSH1 0x0 DUP1 RETURNDATACOPY RETURNDATASIZE PUSH1 0x0 REVERT JUMPDEST POP POP POP POP PUSH1 0x40 MLOAD RETURNDATASIZE PUSH1 0x1F NOT PUSH1 0x1F DUP3 ADD AND DUP3 ADD DUP1 PUSH1 0x40 MSTORE POP DUP2 ADD SWAP1 PUSH2 0x1568 SWAP2 SWAP1 PUSH2 0x2F44 JUMP JUMPDEST PUSH20 0xFFFFFFFFFFFFFFFFFFFFFFFFFFFFFFFFFFFFFFFF AND DUP2 PUSH20 0xFFFFFFFFFFFFFFFFFFFFFFFFFFFFFFFFFFFFFFFF AND PUSH4 0xC45A0155 PUSH1 0x40 MLOAD DUP2 PUSH4 0xFFFFFFFF AND PUSH1 0xE0 SHL DUP2 MSTORE PUSH1 0x4 ADD PUSH1 0x20 PUSH1 0x40 MLOAD DUP1 DUP4 SUB DUP2 DUP7 DUP1 EXTCODESIZE ISZERO DUP1 ISZERO PUSH2 0x15C4 JUMPI PUSH1 0x0 DUP1 REVERT JUMPDEST POP GAS STATICCALL ISZERO DUP1 ISZERO PUSH2 0x15D8 JUMPI RETURNDATASIZE PUSH1 0x0 DUP1 RETURNDATACOPY RETURNDATASIZE PUSH1 0x0 REVERT JUMPDEST POP POP POP POP PUSH1 0x40 MLOAD RETURNDATASIZE PUSH1 0x1F NOT PUSH1 0x1F DUP3 ADD AND DUP3 ADD DUP1 PUSH1 0x40 MSTORE POP DUP2 ADD SWAP1 PUSH2 0x15FC SWAP2 SWAP1 PUSH2 0x2F44 JUMP JUMPDEST PUSH20 0xFFFFFFFFFFFFFFFFFFFFFFFFFFFFFFFFFFFFFFFF AND EQ PUSH2 0x1652 JUMPI PUSH1 0x40 MLOAD PUSH32 0x8C379A000000000000000000000000000000000000000000000000000000000 DUP2 MSTORE PUSH1 0x4 ADD PUSH2 0x1649 SWAP1 PUSH2 0x36A9 JUMP JUMPDEST PUSH1 0x40 MLOAD DUP1 SWAP2 SUB SWAP1 REVERT JUMPDEST SWAP2 POP SWAP2 JUMP JUMPDEST PUSH1 0x0 DUP1 PUSH1 0x2 DUP6 PUSH2 0x1667 SWAP2 SWAP1 PUSH2 0x3A5E JUMP JUMPDEST SWAP1 POP PUSH1 0x0 PUSH32 0x0 PUSH20 0xFFFFFFFFFFFFFFFFFFFFFFFFFFFFFFFFFFFFFFFF AND PUSH4 0x54D50D4 DUP4 DUP8 DUP8 PUSH1 0x40 MLOAD DUP5 PUSH4 0xFFFFFFFF AND PUSH1 0xE0 SHL DUP2 MSTORE PUSH1 0x4 ADD PUSH2 0x16C8 SWAP4 SWAP3 SWAP2 SWAP1 PUSH2 0x3915 JUMP JUMPDEST PUSH1 0x20 PUSH1 0x40 MLOAD DUP1 DUP4 SUB DUP2 DUP7 DUP1 EXTCODESIZE ISZERO DUP1 ISZERO PUSH2 0x16E0 JUMPI PUSH1 0x0 DUP1 REVERT JUMPDEST POP GAS STATICCALL ISZERO DUP1 ISZERO PUSH2 0x16F4 JUMPI RETURNDATASIZE PUSH1 0x0 DUP1 RETURNDATACOPY RETURNDATASIZE PUSH1 0x0 REVERT JUMPDEST POP POP POP POP PUSH1 0x40 MLOAD RETURNDATASIZE PUSH1 0x1F NOT PUSH1 0x1F DUP3 ADD AND DUP3 ADD DUP1 PUSH1 0x40 MSTORE POP DUP2 ADD SWAP1 PUSH2 0x1718 SWAP2 SWAP1 PUSH2 0x3134 JUMP JUMPDEST SWAP1 POP PUSH1 0x0 PUSH32 0x0 PUSH20 0xFFFFFFFFFFFFFFFFFFFFFFFFFFFFFFFFFFFFFFFF AND PUSH4 0xAD615DEC DUP5 PUSH2 0x176C DUP7 DUP11 PUSH2 0x27A0 SWAP1 SWAP2 SWAP1 PUSH4 0xFFFFFFFF AND JUMP JUMPDEST PUSH2 0x177F DUP7 DUP11 PUSH2 0x27C3 SWAP1 SWAP2 SWAP1 PUSH4 0xFFFFFFFF AND JUMP JUMPDEST PUSH1 0x40 MLOAD DUP5 PUSH4 0xFFFFFFFF AND PUSH1 0xE0 SHL DUP2 MSTORE PUSH1 0x4 ADD PUSH2 0x179D SWAP4 SWAP3 SWAP2 SWAP1 PUSH2 0x3915 JUMP JUMPDEST PUSH1 0x20 PUSH1 0x40 MLOAD DUP1 DUP4 SUB DUP2 DUP7 DUP1 EXTCODESIZE ISZERO DUP1 ISZERO PUSH2 0x17B5 JUMPI PUSH1 0x0 DUP1 REVERT JUMPDEST POP GAS STATICCALL ISZERO DUP1 ISZERO PUSH2 0x17C9 JUMPI RETURNDATASIZE PUSH1 0x0 DUP1 RETURNDATACOPY RETURNDATASIZE PUSH1 0x0 REVERT JUMPDEST POP POP POP POP PUSH1 0x40 MLOAD RETURNDATASIZE PUSH1 0x1F NOT PUSH1 0x1F DUP3 ADD AND DUP3 ADD DUP1 PUSH1 0x40 MSTORE POP DUP2 ADD SWAP1 PUSH2 0x17ED SWAP2 SWAP1 PUSH2 0x3134 JUMP JUMPDEST SWAP1 POP PUSH2 0x182B PUSH2 0x181C DUP3 DUP5 DUP7 DUP8 PUSH2 0x1803 SWAP2 SWAP1 PUSH2 0x3A8F JUMP JUMPDEST PUSH2 0x180D SWAP2 SWAP1 PUSH2 0x3A8F JUMP JUMPDEST PUSH2 0x1817 SWAP2 SWAP1 PUSH2 0x3A5E JUMP JUMPDEST PUSH2 0x27E6 JUMP JUMPDEST DUP9 PUSH2 0x27C3 SWAP1 SWAP2 SWAP1 PUSH4 0xFFFFFFFF AND JUMP JUMPDEST SWAP4 POP POP POP POP SWAP4 SWAP3 POP POP POP JUMP JUMPDEST PUSH2 0x18BA DUP5 PUSH4 0x23B872DD PUSH1 0xE0 SHL DUP6 DUP6 DUP6 PUSH1 0x40 MLOAD PUSH1 0x24 ADD PUSH2 0x1858 SWAP4 SWAP3 SWAP2 SWAP1 PUSH2 0x3573 JUMP JUMPDEST PUSH1 0x40 MLOAD PUSH1 0x20 DUP2 DUP4 SUB SUB DUP2 MSTORE SWAP1 PUSH1 0x40 MSTORE SWAP1 PUSH28 0xFFFFFFFFFFFFFFFFFFFFFFFFFFFFFFFFFFFFFFFFFFFFFFFFFFFFFFFF NOT AND PUSH1 0x20 DUP3 ADD DUP1 MLOAD PUSH28 0xFFFFFFFFFFFFFFFFFFFFFFFFFFFFFFFFFFFFFFFFFFFFFFFFFFFFFFFF DUP4 DUP2 DUP4 AND OR DUP4 MSTORE POP POP POP POP PUSH2 0x29B2 JUMP JUMPDEST POP POP POP POP JUMP JUMPDEST PUSH1 0x0 DUP1 PUSH2 0x18CC DUP6 PUSH2 0x1444 JUMP JUMPDEST SWAP2 POP SWAP2 POP PUSH1 0x0 DUP1 DUP3 PUSH20 0xFFFFFFFFFFFFFFFFFFFFFFFFFFFFFFFFFFFFFFFF AND PUSH4 0x902F1AC PUSH1 0x40 MLOAD DUP2 PUSH4 0xFFFFFFFF AND PUSH1 0xE0 SHL DUP2 MSTORE PUSH1 0x4 ADD PUSH1 0x60 PUSH1 0x40 MLOAD DUP1 DUP4 SUB DUP2 DUP7 DUP1 EXTCODESIZE ISZERO DUP1 ISZERO PUSH2 0x1919 JUMPI PUSH1 0x0 DUP1 REVERT JUMPDEST POP GAS STATICCALL ISZERO DUP1 ISZERO PUSH2 0x192D JUMPI RETURNDATASIZE PUSH1 0x0 DUP1 RETURNDATACOPY RETURNDATASIZE PUSH1 0x0 REVERT JUMPDEST POP POP POP POP PUSH1 0x40 MLOAD RETURNDATASIZE PUSH1 0x1F NOT PUSH1 0x1F DUP3 ADD AND DUP3 ADD DUP1 PUSH1 0x40 MSTORE POP DUP2 ADD SWAP1 PUSH2 0x1951 SWAP2 SWAP1 PUSH2 0x30E1 JUMP JUMPDEST POP PUSH14 0xFFFFFFFFFFFFFFFFFFFFFFFFFFFF AND SWAP2 POP PUSH14 0xFFFFFFFFFFFFFFFFFFFFFFFFFFFF AND SWAP2 POP PUSH2 0x3E8 DUP3 GT DUP1 ISZERO PUSH2 0x1988 JUMPI POP PUSH2 0x3E8 DUP2 GT JUMPDEST PUSH2 0x19C7 JUMPI PUSH1 0x40 MLOAD PUSH32 0x8C379A000000000000000000000000000000000000000000000000000000000 DUP2 MSTORE PUSH1 0x4 ADD PUSH2 0x19BE SWAP1 PUSH2 0x3789 JUMP JUMPDEST PUSH1 0x40 MLOAD DUP1 SWAP2 SUB SWAP1 REVERT JUMPDEST PUSH1 0x0 DUP6 PUSH20 0xFFFFFFFFFFFFFFFFFFFFFFFFFFFFFFFFFFFFFFFF AND DUP5 PUSH20 0xFFFFFFFFFFFFFFFFFFFFFFFFFFFFFFFFFFFFFFFF AND PUSH4 0xDFE1681 PUSH1 0x40 MLOAD DUP2 PUSH4 0xFFFFFFFF AND PUSH1 0xE0 SHL DUP2 MSTORE PUSH1 0x4 ADD PUSH1 0x20 PUSH1 0x40 MLOAD DUP1 DUP4 SUB DUP2 DUP7 DUP1 EXTCODESIZE ISZERO DUP1 ISZERO PUSH2 0x1A26 JUMPI PUSH1 0x0 DUP1 REVERT JUMPDEST POP GAS STATICCALL ISZERO DUP1 ISZERO PUSH2 0x1A3A JUMPI RETURNDATASIZE PUSH1 0x0 DUP1 RETURNDATACOPY RETURNDATASIZE PUSH1 0x0 REVERT JUMPDEST POP POP POP POP PUSH1 0x40 MLOAD RETURNDATASIZE PUSH1 0x1F NOT PUSH1 0x1F DUP3 ADD AND DUP3 ADD DUP1 PUSH1 0x40 MSTORE POP DUP2 ADD SWAP1 PUSH2 0x1A5E SWAP2 SWAP1 PUSH2 0x2F44 JUMP JUMPDEST PUSH20 0xFFFFFFFFFFFFFFFFFFFFFFFFFFFFFFFFFFFFFFFF AND EQ SWAP1 POP DUP1 DUP1 PUSH2 0x1B2B JUMPI POP DUP6 PUSH20 0xFFFFFFFFFFFFFFFFFFFFFFFFFFFFFFFFFFFFFFFF AND DUP5 PUSH20 0xFFFFFFFFFFFFFFFFFFFFFFFFFFFFFFFFFFFFFFFF AND PUSH4 0xD21220A7 PUSH1 0x40 MLOAD DUP2 PUSH4 0xFFFFFFFF AND PUSH1 0xE0 SHL DUP2 MSTORE PUSH1 0x4 ADD PUSH1 0x20 PUSH1 0x40 MLOAD DUP1 DUP4 SUB DUP2 DUP7 DUP1 EXTCODESIZE ISZERO DUP1 ISZERO PUSH2 0x1ADB JUMPI PUSH1 0x0 DUP1 REVERT JUMPDEST POP GAS STATICCALL ISZERO DUP1 ISZERO PUSH2 0x1AEF JUMPI RETURNDATASIZE PUSH1 0x0 DUP1 RETURNDATACOPY RETURNDATASIZE PUSH1 0x0 REVERT JUMPDEST POP POP POP POP PUSH1 0x40 MLOAD RETURNDATASIZE PUSH1 0x1F NOT PUSH1 0x1F DUP3 ADD AND DUP3 ADD DUP1 PUSH1 0x40 MSTORE POP DUP2 ADD SWAP1 PUSH2 0x1B13 SWAP2 SWAP1 PUSH2 0x2F44 JUMP JUMPDEST PUSH20 0xFFFFFFFFFFFFFFFFFFFFFFFFFFFFFFFFFFFFFFFF AND EQ JUMPDEST PUSH2 0x1B6A JUMPI PUSH1 0x40 MLOAD PUSH32 0x8C379A000000000000000000000000000000000000000000000000000000000 DUP2 MSTORE PUSH1 0x4 ADD PUSH2 0x1B61 SWAP1 PUSH2 0x3709 JUMP JUMPDEST PUSH1 0x40 MLOAD DUP1 SWAP2 SUB SWAP1 REVERT JUMPDEST PUSH1 0x0 PUSH1 0x2 PUSH8 0xFFFFFFFFFFFFFFFF DUP2 GT ISZERO PUSH2 0x1B87 JUMPI PUSH2 0x1B86 PUSH2 0x3D40 JUMP JUMPDEST JUMPDEST PUSH1 0x40 MLOAD SWAP1 DUP1 DUP3 MSTORE DUP1 PUSH1 0x20 MUL PUSH1 0x20 ADD DUP3 ADD PUSH1 0x40 MSTORE DUP1 ISZERO PUSH2 0x1BB5 JUMPI DUP2 PUSH1 0x20 ADD PUSH1 0x20 DUP3 MUL DUP1 CALLDATASIZE DUP4 CALLDATACOPY DUP1 DUP3 ADD SWAP2 POP POP SWAP1 POP JUMPDEST POP SWAP1 POP DUP7 DUP2 PUSH1 0x0 DUP2 MLOAD DUP2 LT PUSH2 0x1BCD JUMPI PUSH2 0x1BCC PUSH2 0x3D11 JUMP JUMPDEST JUMPDEST PUSH1 0x20 MUL PUSH1 0x20 ADD ADD SWAP1 PUSH20 0xFFFFFFFFFFFFFFFFFFFFFFFFFFFFFFFFFFFFFFFF AND SWAP1 DUP2 PUSH20 0xFFFFFFFFFFFFFFFFFFFFFFFFFFFFFFFFFFFFFFFF AND DUP2 MSTORE POP POP DUP2 PUSH2 0x1C8F JUMPI DUP5 PUSH20 0xFFFFFFFFFFFFFFFFFFFFFFFFFFFFFFFFFFFFFFFF AND PUSH4 0xDFE1681 PUSH1 0x40 MLOAD DUP2 PUSH4 0xFFFFFFFF AND PUSH1 0xE0 SHL DUP2 MSTORE PUSH1 0x4 ADD PUSH1 0x20 PUSH1 0x40 MLOAD DUP1 DUP4 SUB DUP2 DUP7 DUP1 EXTCODESIZE ISZERO DUP1 ISZERO PUSH2 0x1C52 JUMPI PUSH1 0x0 DUP1 REVERT JUMPDEST POP GAS STATICCALL ISZERO DUP1 ISZERO PUSH2 0x1C66 JUMPI RETURNDATASIZE PUSH1 0x0 DUP1 RETURNDATACOPY RETURNDATASIZE PUSH1 0x0 REVERT JUMPDEST POP POP POP POP PUSH1 0x40 MLOAD RETURNDATASIZE PUSH1 0x1F NOT PUSH1 0x1F DUP3 ADD AND DUP3 ADD DUP1 PUSH1 0x40 MSTORE POP DUP2 ADD SWAP1 PUSH2 0x1C8A SWAP2 SWAP1 PUSH2 0x2F44 JUMP JUMPDEST PUSH2 0x1D0E JUMP JUMPDEST DUP5 PUSH20 0xFFFFFFFFFFFFFFFFFFFFFFFFFFFFFFFFFFFFFFFF AND PUSH4 0xD21220A7 PUSH1 0x40 MLOAD DUP2 PUSH4 0xFFFFFFFF AND PUSH1 0xE0 SHL DUP2 MSTORE PUSH1 0x4 ADD PUSH1 0x20 PUSH1 0x40 MLOAD DUP1 DUP4 SUB DUP2 DUP7 DUP1 EXTCODESIZE ISZERO DUP1 ISZERO PUSH2 0x1CD5 JUMPI PUSH1 0x0 DUP1 REVERT JUMPDEST POP GAS STATICCALL ISZERO DUP1 ISZERO PUSH2 0x1CE9 JUMPI RETURNDATASIZE PUSH1 0x0 DUP1 RETURNDATACOPY RETURNDATASIZE PUSH1 0x0 REVERT JUMPDEST POP POP POP POP PUSH1 0x40 MLOAD RETURNDATASIZE PUSH1 0x1F NOT PUSH1 0x1F DUP3 ADD AND DUP3 ADD DUP1 PUSH1 0x40 MSTORE POP DUP2 ADD SWAP1 PUSH2 0x1D0D SWAP2 SWAP1 PUSH2 0x2F44 JUMP JUMPDEST JUMPDEST DUP2 PUSH1 0x1 DUP2 MLOAD DUP2 LT PUSH2 0x1D22 JUMPI PUSH2 0x1D21 PUSH2 0x3D11 JUMP JUMPDEST JUMPDEST PUSH1 0x20 MUL PUSH1 0x20 ADD ADD SWAP1 PUSH20 0xFFFFFFFFFFFFFFFFFFFFFFFFFFFFFFFFFFFFFFFF AND SWAP1 DUP2 PUSH20 0xFFFFFFFFFFFFFFFFFFFFFFFFFFFFFFFFFFFFFFFF AND DUP2 MSTORE POP POP PUSH1 0x0 DUP8 PUSH20 0xFFFFFFFFFFFFFFFFFFFFFFFFFFFFFFFFFFFFFFFF AND PUSH4 0x70A08231 ADDRESS PUSH1 0x40 MLOAD DUP3 PUSH4 0xFFFFFFFF AND PUSH1 0xE0 SHL DUP2 MSTORE PUSH1 0x4 ADD PUSH2 0x1D97 SWAP2 SWAP1 PUSH2 0x352F JUMP JUMPDEST PUSH1 0x20 PUSH1 0x40 MLOAD DUP1 DUP4 SUB DUP2 DUP7 DUP1 EXTCODESIZE ISZERO DUP1 ISZERO PUSH2 0x1DAF JUMPI PUSH1 0x0 DUP1 REVERT JUMPDEST POP GAS STATICCALL ISZERO DUP1 ISZERO PUSH2 0x1DC3 JUMPI RETURNDATASIZE PUSH1 0x0 DUP1 RETURNDATACOPY RETURNDATASIZE PUSH1 0x0 REVERT JUMPDEST POP POP POP POP PUSH1 0x40 MLOAD RETURNDATASIZE PUSH1 0x1F NOT PUSH1 0x1F DUP3 ADD AND DUP3 ADD DUP1 PUSH1 0x40 MSTORE POP DUP2 ADD SWAP1 PUSH2 0x1DE7 SWAP2 SWAP1 PUSH2 0x3134 JUMP JUMPDEST SWAP1 POP PUSH1 0x0 DUP4 ISZERO PUSH2 0x1E03 JUMPI PUSH2 0x1DFC DUP3 DUP8 DUP8 PUSH2 0x1657 JUMP JUMPDEST SWAP1 POP PUSH2 0x1E11 JUMP JUMPDEST PUSH2 0x1E0E DUP3 DUP7 DUP9 PUSH2 0x1657 JUMP JUMPDEST SWAP1 POP JUMPDEST PUSH2 0x1E56 DUP4 PUSH1 0x0 DUP2 MLOAD DUP2 LT PUSH2 0x1E28 JUMPI PUSH2 0x1E27 PUSH2 0x3D11 JUMP JUMPDEST JUMPDEST PUSH1 0x20 MUL PUSH1 0x20 ADD ADD MLOAD PUSH32 0x0 PUSH2 0x26BD JUMP JUMPDEST PUSH1 0x0 PUSH32 0x0 PUSH20 0xFFFFFFFFFFFFFFFFFFFFFFFFFFFFFFFFFFFFFFFF AND PUSH4 0x38ED1739 DUP4 DUP14 DUP8 ADDRESS TIMESTAMP PUSH1 0x40 MLOAD DUP7 PUSH4 0xFFFFFFFF AND PUSH1 0xE0 SHL DUP2 MSTORE PUSH1 0x4 ADD PUSH2 0x1EB9 SWAP6 SWAP5 SWAP4 SWAP3 SWAP2 SWAP1 PUSH2 0x38BB JUMP JUMPDEST PUSH1 0x0 PUSH1 0x40 MLOAD DUP1 DUP4 SUB DUP2 PUSH1 0x0 DUP8 DUP1 EXTCODESIZE ISZERO DUP1 ISZERO PUSH2 0x1ED3 JUMPI PUSH1 0x0 DUP1 REVERT JUMPDEST POP GAS CALL ISZERO DUP1 ISZERO PUSH2 0x1EE7 JUMPI RETURNDATASIZE PUSH1 0x0 DUP1 RETURNDATACOPY RETURNDATASIZE PUSH1 0x0 REVERT JUMPDEST POP POP POP POP PUSH1 0x40 MLOAD RETURNDATASIZE PUSH1 0x0 DUP3 RETURNDATACOPY RETURNDATASIZE PUSH1 0x1F NOT PUSH1 0x1F DUP3 ADD AND DUP3 ADD DUP1 PUSH1 0x40 MSTORE POP DUP2 ADD SWAP1 PUSH2 0x1F10 SWAP2 SWAP1 PUSH2 0x306B JUMP JUMPDEST SWAP1 POP PUSH2 0x1F57 DUP5 PUSH1 0x1 DUP2 MLOAD DUP2 LT PUSH2 0x1F29 JUMPI PUSH2 0x1F28 PUSH2 0x3D11 JUMP JUMPDEST JUMPDEST PUSH1 0x20 MUL PUSH1 0x20 ADD ADD MLOAD PUSH32 0x0 PUSH2 0x26BD JUMP JUMPDEST PUSH1 0x0 PUSH32 0x0 PUSH20 0xFFFFFFFFFFFFFFFFFFFFFFFFFFFFFFFFFFFFFFFF AND PUSH4 0xE8E33700 DUP7 PUSH1 0x0 DUP2 MLOAD DUP2 LT PUSH2 0x1FA9 JUMPI PUSH2 0x1FA8 PUSH2 0x3D11 JUMP JUMPDEST JUMPDEST PUSH1 0x20 MUL PUSH1 0x20 ADD ADD MLOAD DUP8 PUSH1 0x1 DUP2 MLOAD DUP2 LT PUSH2 0x1FC5 JUMPI PUSH2 0x1FC4 PUSH2 0x3D11 JUMP JUMPDEST JUMPDEST PUSH1 0x20 MUL PUSH1 0x20 ADD ADD MLOAD PUSH2 0x1FFB DUP7 PUSH1 0x0 DUP2 MLOAD DUP2 LT PUSH2 0x1FE4 JUMPI PUSH2 0x1FE3 PUSH2 0x3D11 JUMP JUMPDEST JUMPDEST PUSH1 0x20 MUL PUSH1 0x20 ADD ADD MLOAD DUP10 PUSH2 0x27C3 SWAP1 SWAP2 SWAP1 PUSH4 0xFFFFFFFF AND JUMP JUMPDEST DUP7 PUSH1 0x1 DUP2 MLOAD DUP2 LT PUSH2 0x200F JUMPI PUSH2 0x200E PUSH2 0x3D11 JUMP JUMPDEST JUMPDEST PUSH1 0x20 MUL PUSH1 0x20 ADD ADD MLOAD PUSH1 0x1 DUP1 ADDRESS TIMESTAMP PUSH1 0x40 MLOAD DUP10 PUSH4 0xFFFFFFFF AND PUSH1 0xE0 SHL DUP2 MSTORE PUSH1 0x4 ADD PUSH2 0x203F SWAP9 SWAP8 SWAP7 SWAP6 SWAP5 SWAP4 SWAP3 SWAP2 SWAP1 PUSH2 0x35AA JUMP JUMPDEST PUSH1 0x60 PUSH1 0x40 MLOAD DUP1 DUP4 SUB DUP2 PUSH1 0x0 DUP8 DUP1 EXTCODESIZE ISZERO DUP1 ISZERO PUSH2 0x2059 JUMPI PUSH1 0x0 DUP1 REVERT JUMPDEST POP GAS CALL ISZERO DUP1 ISZERO PUSH2 0x206D JUMPI RETURNDATASIZE PUSH1 0x0 DUP1 RETURNDATACOPY RETURNDATASIZE PUSH1 0x0 REVERT JUMPDEST POP POP POP POP PUSH1 0x40 MLOAD RETURNDATASIZE PUSH1 0x1F NOT PUSH1 0x1F DUP3 ADD AND DUP3 ADD DUP1 PUSH1 0x40 MSTORE POP DUP2 ADD SWAP1 PUSH2 0x2091 SWAP2 SWAP1 PUSH2 0x31A1 JUMP JUMPDEST SWAP3 POP POP POP PUSH2 0x209F DUP10 DUP12 PUSH2 0x26BD JUMP JUMPDEST DUP10 PUSH20 0xFFFFFFFFFFFFFFFFFFFFFFFFFFFFFFFFFFFFFFFF AND PUSH4 0xB6B55F25 DUP3 PUSH1 0x40 MLOAD DUP3 PUSH4 0xFFFFFFFF AND PUSH1 0xE0 SHL DUP2 MSTORE PUSH1 0x4 ADD PUSH2 0x20D8 SWAP2 SWAP1 PUSH2 0x3869 JUMP JUMPDEST PUSH1 0x0 PUSH1 0x40 MLOAD DUP1 DUP4 SUB DUP2 PUSH1 0x0 DUP8 DUP1 EXTCODESIZE ISZERO DUP1 ISZERO PUSH2 0x20F2 JUMPI PUSH1 0x0 DUP1 REVERT JUMPDEST POP GAS CALL ISZERO DUP1 ISZERO PUSH2 0x2106 JUMPI RETURNDATASIZE PUSH1 0x0 DUP1 RETURNDATACOPY RETURNDATASIZE PUSH1 0x0 REVERT JUMPDEST POP POP POP POP PUSH2 0x21BD CALLER DUP12 PUSH20 0xFFFFFFFFFFFFFFFFFFFFFFFFFFFFFFFFFFFFFFFF AND PUSH4 0x70A08231 ADDRESS PUSH1 0x40 MLOAD DUP3 PUSH4 0xFFFFFFFF AND PUSH1 0xE0 SHL DUP2 MSTORE PUSH1 0x4 ADD PUSH2 0x2147 SWAP2 SWAP1 PUSH2 0x352F JUMP JUMPDEST PUSH1 0x20 PUSH1 0x40 MLOAD DUP1 DUP4 SUB DUP2 DUP7 DUP1 EXTCODESIZE ISZERO DUP1 ISZERO PUSH2 0x215F JUMPI PUSH1 0x0 DUP1 REVERT JUMPDEST POP GAS STATICCALL ISZERO DUP1 ISZERO PUSH2 0x2173 JUMPI RETURNDATASIZE PUSH1 0x0 DUP1 RETURNDATACOPY RETURNDATASIZE PUSH1 0x0 REVERT JUMPDEST POP POP POP POP PUSH1 0x40 MLOAD RETURNDATASIZE PUSH1 0x1F NOT PUSH1 0x1F DUP3 ADD AND DUP3 ADD DUP1 PUSH1 0x40 MSTORE POP DUP2 ADD SWAP1 PUSH2 0x2197 SWAP2 SWAP1 PUSH2 0x3134 JUMP JUMPDEST DUP13 PUSH20 0xFFFFFFFFFFFFFFFFFFFFFFFFFFFFFFFFFFFFFFFF AND PUSH2 0x2A79 SWAP1 SWAP3 SWAP2 SWAP1 PUSH4 0xFFFFFFFF AND JUMP JUMPDEST PUSH2 0x21C6 DUP6 PUSH2 0x23A9 JUMP JUMPDEST POP POP POP POP POP POP POP POP POP POP POP POP POP JUMP JUMPDEST PUSH2 0x2288 DUP3 DUP4 PUSH20 0xFFFFFFFFFFFFFFFFFFFFFFFFFFFFFFFFFFFFFFFF AND PUSH4 0x70A08231 ADDRESS PUSH1 0x40 MLOAD DUP3 PUSH4 0xFFFFFFFF AND PUSH1 0xE0 SHL DUP2 MSTORE PUSH1 0x4 ADD PUSH2 0x2212 SWAP2 SWAP1 PUSH2 0x352F JUMP JUMPDEST PUSH1 0x20 PUSH1 0x40 MLOAD DUP1 DUP4 SUB DUP2 DUP7 DUP1 EXTCODESIZE ISZERO DUP1 ISZERO PUSH2 0x222A JUMPI PUSH1 0x0 DUP1 REVERT JUMPDEST POP GAS STATICCALL ISZERO DUP1 ISZERO PUSH2 0x223E JUMPI RETURNDATASIZE PUSH1 0x0 DUP1 RETURNDATACOPY RETURNDATASIZE PUSH1 0x0 REVERT JUMPDEST POP POP POP POP PUSH1 0x40 MLOAD RETURNDATASIZE PUSH1 0x1F NOT PUSH1 0x1F DUP3 ADD AND DUP3 ADD DUP1 PUSH1 0x40 MSTORE POP DUP2 ADD SWAP1 PUSH2 0x2262 SWAP2 SWAP1 PUSH2 0x3134 JUMP JUMPDEST DUP5 PUSH20 0xFFFFFFFFFFFFFFFFFFFFFFFFFFFFFFFFFFFFFFFF AND PUSH2 0x2A79 SWAP1 SWAP3 SWAP2 SWAP1 PUSH4 0xFFFFFFFF AND JUMP JUMPDEST PUSH1 0x0 DUP1 DUP4 PUSH20 0xFFFFFFFFFFFFFFFFFFFFFFFFFFFFFFFFFFFFFFFF AND PUSH4 0x89AFCB44 DUP5 PUSH1 0x40 MLOAD DUP3 PUSH4 0xFFFFFFFF AND PUSH1 0xE0 SHL DUP2 MSTORE PUSH1 0x4 ADD PUSH2 0x22C4 SWAP2 SWAP1 PUSH2 0x352F JUMP JUMPDEST PUSH1 0x40 DUP1 MLOAD DUP1 DUP4 SUB DUP2 PUSH1 0x0 DUP8 DUP1 EXTCODESIZE ISZERO DUP1 ISZERO PUSH2 0x22DD JUMPI PUSH1 0x0 DUP1 REVERT JUMPDEST POP GAS CALL ISZERO DUP1 ISZERO PUSH2 0x22F1 JUMPI RETURNDATASIZE PUSH1 0x0 DUP1 RETURNDATACOPY RETURNDATASIZE PUSH1 0x0 REVERT JUMPDEST POP POP POP POP PUSH1 0x40 MLOAD RETURNDATASIZE PUSH1 0x1F NOT PUSH1 0x1F DUP3 ADD AND DUP3 ADD DUP1 PUSH1 0x40 MSTORE POP DUP2 ADD SWAP1 PUSH2 0x2315 SWAP2 SWAP1 PUSH2 0x3161 JUMP JUMPDEST SWAP2 POP SWAP2 POP PUSH2 0x3E8 DUP3 LT ISZERO PUSH2 0x235E JUMPI PUSH1 0x40 MLOAD PUSH32 0x8C379A000000000000000000000000000000000000000000000000000000000 DUP2 MSTORE PUSH1 0x4 ADD PUSH2 0x2355 SWAP1 PUSH2 0x37E9 JUMP JUMPDEST PUSH1 0x40 MLOAD DUP1 SWAP2 SUB SWAP1 REVERT JUMPDEST PUSH2 0x3E8 DUP2 LT ISZERO PUSH2 0x23A3 JUMPI PUSH1 0x40 MLOAD PUSH32 0x8C379A000000000000000000000000000000000000000000000000000000000 DUP2 MSTORE PUSH1 0x4 ADD PUSH2 0x239A SWAP1 PUSH2 0x3729 JUMP JUMPDEST PUSH1 0x40 MLOAD DUP1 SWAP2 SUB SWAP1 REVERT JUMPDEST POP POP POP POP JUMP JUMPDEST PUSH1 0x0 DUP1 JUMPDEST DUP3 MLOAD DUP2 LT ISZERO PUSH2 0x26B8 JUMPI DUP3 DUP2 DUP2 MLOAD DUP2 LT PUSH2 0x23C9 JUMPI PUSH2 0x23C8 PUSH2 0x3D11 JUMP JUMPDEST JUMPDEST PUSH1 0x20 MUL PUSH1 0x20 ADD ADD MLOAD PUSH20 0xFFFFFFFFFFFFFFFFFFFFFFFFFFFFFFFFFFFFFFFF AND PUSH4 0x70A08231 ADDRESS PUSH1 0x40 MLOAD DUP3 PUSH4 0xFFFFFFFF AND PUSH1 0xE0 SHL DUP2 MSTORE PUSH1 0x4 ADD PUSH2 0x2409 SWAP2 SWAP1 PUSH2 0x352F JUMP JUMPDEST PUSH1 0x20 PUSH1 0x40 MLOAD DUP1 DUP4 SUB DUP2 DUP7 DUP1 EXTCODESIZE ISZERO DUP1 ISZERO PUSH2 0x2421 JUMPI PUSH1 0x0 DUP1 REVERT JUMPDEST POP GAS STATICCALL ISZERO DUP1 ISZERO PUSH2 0x2435 JUMPI RETURNDATASIZE PUSH1 0x0 DUP1 RETURNDATACOPY RETURNDATASIZE PUSH1 0x0 REVERT JUMPDEST POP POP POP POP PUSH1 0x40 MLOAD RETURNDATASIZE PUSH1 0x1F NOT PUSH1 0x1F DUP3 ADD AND DUP3 ADD DUP1 PUSH1 0x40 MSTORE POP DUP2 ADD SWAP1 PUSH2 0x2459 SWAP2 SWAP1 PUSH2 0x3134 JUMP JUMPDEST SWAP2 POP PUSH1 0x0 DUP3 GT ISZERO PUSH2 0x26A5 JUMPI PUSH32 0x0 PUSH20 0xFFFFFFFFFFFFFFFFFFFFFFFFFFFFFFFFFFFFFFFF AND DUP4 DUP3 DUP2 MLOAD DUP2 LT PUSH2 0x24AE JUMPI PUSH2 0x24AD PUSH2 0x3D11 JUMP JUMPDEST JUMPDEST PUSH1 0x20 MUL PUSH1 0x20 ADD ADD MLOAD PUSH20 0xFFFFFFFFFFFFFFFFFFFFFFFFFFFFFFFFFFFFFFFF AND EQ ISZERO PUSH2 0x265E JUMPI PUSH32 0x0 PUSH20 0xFFFFFFFFFFFFFFFFFFFFFFFFFFFFFFFFFFFFFFFF AND PUSH4 0x2E1A7D4D DUP4 PUSH1 0x40 MLOAD DUP3 PUSH4 0xFFFFFFFF AND PUSH1 0xE0 SHL DUP2 MSTORE PUSH1 0x4 ADD PUSH2 0x252B SWAP2 SWAP1 PUSH2 0x3869 JUMP JUMPDEST PUSH1 0x0 PUSH1 0x40 MLOAD DUP1 DUP4 SUB DUP2 PUSH1 0x0 DUP8 DUP1 EXTCODESIZE ISZERO DUP1 ISZERO PUSH2 0x2545 JUMPI PUSH1 0x0 DUP1 REVERT JUMPDEST POP GAS CALL ISZERO DUP1 ISZERO PUSH2 0x2559 JUMPI RETURNDATASIZE PUSH1 0x0 DUP1 RETURNDATACOPY RETURNDATASIZE PUSH1 0x0 REVERT JUMPDEST POP POP POP POP PUSH1 0x0 CALLER PUSH20 0xFFFFFFFFFFFFFFFFFFFFFFFFFFFFFFFFFFFFFFFF AND DUP4 PUSH1 0x0 PUSH8 0xFFFFFFFFFFFFFFFF DUP2 GT ISZERO PUSH2 0x2592 JUMPI PUSH2 0x2591 PUSH2 0x3D40 JUMP JUMPDEST JUMPDEST PUSH1 0x40 MLOAD SWAP1 DUP1 DUP3 MSTORE DUP1 PUSH1 0x1F ADD PUSH1 0x1F NOT AND PUSH1 0x20 ADD DUP3 ADD PUSH1 0x40 MSTORE DUP1 ISZERO PUSH2 0x25C4 JUMPI DUP2 PUSH1 0x20 ADD PUSH1 0x1 DUP3 MUL DUP1 CALLDATASIZE DUP4 CALLDATACOPY DUP1 DUP3 ADD SWAP2 POP POP SWAP1 POP JUMPDEST POP PUSH1 0x40 MLOAD PUSH2 0x25D2 SWAP2 SWAP1 PUSH2 0x3518 JUMP JUMPDEST PUSH1 0x0 PUSH1 0x40 MLOAD DUP1 DUP4 SUB DUP2 DUP6 DUP8 GAS CALL SWAP3 POP POP POP RETURNDATASIZE DUP1 PUSH1 0x0 DUP2 EQ PUSH2 0x260F JUMPI PUSH1 0x40 MLOAD SWAP2 POP PUSH1 0x1F NOT PUSH1 0x3F RETURNDATASIZE ADD AND DUP3 ADD PUSH1 0x40 MSTORE RETURNDATASIZE DUP3 MSTORE RETURNDATASIZE PUSH1 0x0 PUSH1 0x20 DUP5 ADD RETURNDATACOPY PUSH2 0x2614 JUMP JUMPDEST PUSH1 0x60 SWAP2 POP JUMPDEST POP POP SWAP1 POP DUP1 PUSH2 0x2658 JUMPI PUSH1 0x40 MLOAD PUSH32 0x8C379A000000000000000000000000000000000000000000000000000000000 DUP2 MSTORE PUSH1 0x4 ADD PUSH2 0x264F SWAP1 PUSH2 0x36E9 JUMP JUMPDEST PUSH1 0x40 MLOAD DUP1 SWAP2 SUB SWAP1 REVERT JUMPDEST POP PUSH2 0x26A4 JUMP JUMPDEST PUSH2 0x26A3 CALLER DUP4 DUP6 DUP5 DUP2 MLOAD DUP2 LT PUSH2 0x2676 JUMPI PUSH2 0x2675 PUSH2 0x3D11 JUMP JUMPDEST JUMPDEST PUSH1 0x20 MUL PUSH1 0x20 ADD ADD MLOAD PUSH20 0xFFFFFFFFFFFFFFFFFFFFFFFFFFFFFFFFFFFFFFFF AND PUSH2 0x2A79 SWAP1 SWAP3 SWAP2 SWAP1 PUSH4 0xFFFFFFFF AND JUMP JUMPDEST JUMPDEST JUMPDEST DUP1 DUP1 PUSH2 0x26B0 SWAP1 PUSH2 0x3C3B JUMP JUMPDEST SWAP2 POP POP PUSH2 0x23AD JUMP JUMPDEST POP POP POP JUMP JUMPDEST PUSH1 0x0 DUP3 PUSH20 0xFFFFFFFFFFFFFFFFFFFFFFFFFFFFFFFFFFFFFFFF AND PUSH4 0xDD62ED3E ADDRESS DUP5 PUSH1 0x40 MLOAD DUP4 PUSH4 0xFFFFFFFF AND PUSH1 0xE0 SHL DUP2 MSTORE PUSH1 0x4 ADD PUSH2 0x26FA SWAP3 SWAP2 SWAP1 PUSH2 0x354A JUMP JUMPDEST PUSH1 0x20 PUSH1 0x40 MLOAD DUP1 DUP4 SUB DUP2 DUP7 DUP1 EXTCODESIZE ISZERO DUP1 ISZERO PUSH2 0x2712 JUMPI PUSH1 0x0 DUP1 REVERT JUMPDEST POP GAS STATICCALL ISZERO DUP1 ISZERO PUSH2 0x2726 JUMPI RETURNDATASIZE PUSH1 0x0 DUP1 RETURNDATACOPY RETURNDATASIZE PUSH1 0x0 REVERT JUMPDEST POP POP POP POP PUSH1 0x40 MLOAD RETURNDATASIZE PUSH1 0x1F NOT PUSH1 0x1F DUP3 ADD AND DUP3 ADD DUP1 PUSH1 0x40 MSTORE POP DUP2 ADD SWAP1 PUSH2 0x274A SWAP2 SWAP1 PUSH2 0x3134 JUMP JUMPDEST EQ ISZERO PUSH2 0x279C JUMPI PUSH2 0x279B DUP2 PUSH32 0xFFFFFFFFFFFFFFFFFFFFFFFFFFFFFFFFFFFFFFFFFFFFFFFFFFFFFFFFFFFFFFFF DUP5 PUSH20 0xFFFFFFFFFFFFFFFFFFFFFFFFFFFFFFFFFFFFFFFF AND PUSH2 0x2AFF SWAP1 SWAP3 SWAP2 SWAP1 PUSH4 0xFFFFFFFF AND JUMP JUMPDEST JUMPDEST POP POP JUMP JUMPDEST PUSH1 0x0 DUP3 DUP3 DUP5 PUSH2 0x27AF SWAP2 SWAP1 PUSH2 0x3A08 JUMP JUMPDEST SWAP2 POP DUP2 LT ISZERO PUSH2 0x27BD JUMPI PUSH1 0x0 DUP1 REVERT JUMPDEST SWAP3 SWAP2 POP POP JUMP JUMPDEST PUSH1 0x0 DUP3 DUP3 DUP5 PUSH2 0x27D2 SWAP2 SWAP1 PUSH2 0x3AE9 JUMP JUMPDEST SWAP2 POP DUP2 GT ISZERO PUSH2 0x27E0 JUMPI PUSH1 0x0 DUP1 REVERT JUMPDEST SWAP3 SWAP2 POP POP JUMP JUMPDEST PUSH1 0x0 DUP1 DUP3 EQ ISZERO PUSH2 0x27F9 JUMPI PUSH1 0x0 SWAP1 POP PUSH2 0x29AD JUMP JUMPDEST PUSH1 0x0 DUP3 SWAP1 POP PUSH1 0x0 PUSH1 0x1 SWAP1 POP PUSH17 0x100000000000000000000000000000000 DUP3 LT PUSH2 0x282B JUMPI PUSH1 0x80 DUP3 SWAP1 SHR SWAP2 POP PUSH1 0x40 DUP2 SWAP1 SHL SWAP1 POP JUMPDEST PUSH9 0x10000000000000000 DUP3 LT PUSH2 0x284A JUMPI PUSH1 0x40 DUP3 SWAP1 SHR SWAP2 POP PUSH1 0x20 DUP2 SWAP1 SHL SWAP1 POP JUMPDEST PUSH5 0x100000000 DUP3 LT PUSH2 0x2865 JUMPI PUSH1 0x20 DUP3 SWAP1 SHR SWAP2 POP PUSH1 0x10 DUP2 SWAP1 SHL SWAP1 POP JUMPDEST PUSH3 0x10000 DUP3 LT PUSH2 0x287E JUMPI PUSH1 0x10 DUP3 SWAP1 SHR SWAP2 POP PUSH1 0x8 DUP2 SWAP1 SHL SWAP1 POP JUMPDEST PUSH2 0x100 DUP3 LT PUSH2 0x2896 JUMPI PUSH1 0x8 DUP3 SWAP1 SHR SWAP2 POP PUSH1 0x4 DUP2 SWAP1 SHL SWAP1 POP JUMPDEST PUSH1 0x10 DUP3 LT PUSH2 0x28AD JUMPI PUSH1 0x4 DUP3 SWAP1 SHR SWAP2 POP PUSH1 0x2 DUP2 SWAP1 SHL SWAP1 POP JUMPDEST PUSH1 0x8 DUP3 LT PUSH2 0x28BD JUMPI PUSH1 0x1 DUP2 SWAP1 SHL SWAP1 POP JUMPDEST PUSH1 0x1 DUP2 DUP6 PUSH2 0x28CB SWAP2 SWAP1 PUSH2 0x3A5E JUMP JUMPDEST DUP3 PUSH2 0x28D6 SWAP2 SWAP1 PUSH2 0x3A08 JUMP JUMPDEST SWAP1 SHR SWAP1 POP PUSH1 0x1 DUP2 DUP6 PUSH2 0x28E8 SWAP2 SWAP1 PUSH2 0x3A5E JUMP JUMPDEST DUP3 PUSH2 0x28F3 SWAP2 SWAP1 PUSH2 0x3A08 JUMP JUMPDEST SWAP1 SHR SWAP1 POP PUSH1 0x1 DUP2 DUP6 PUSH2 0x2905 SWAP2 SWAP1 PUSH2 0x3A5E JUMP JUMPDEST DUP3 PUSH2 0x2910 SWAP2 SWAP1 PUSH2 0x3A08 JUMP JUMPDEST SWAP1 SHR SWAP1 POP PUSH1 0x1 DUP2 DUP6 PUSH2 0x2922 SWAP2 SWAP1 PUSH2 0x3A5E JUMP JUMPDEST DUP3 PUSH2 0x292D SWAP2 SWAP1 PUSH2 0x3A08 JUMP JUMPDEST SWAP1 SHR SWAP1 POP PUSH1 0x1 DUP2 DUP6 PUSH2 0x293F SWAP2 SWAP1 PUSH2 0x3A5E JUMP JUMPDEST DUP3 PUSH2 0x294A SWAP2 SWAP1 PUSH2 0x3A08 JUMP JUMPDEST SWAP1 SHR SWAP1 POP PUSH1 0x1 DUP2 DUP6 PUSH2 0x295C SWAP2 SWAP1 PUSH2 0x3A5E JUMP JUMPDEST DUP3 PUSH2 0x2967 SWAP2 SWAP1 PUSH2 0x3A08 JUMP JUMPDEST SWAP1 SHR SWAP1 POP PUSH1 0x1 DUP2 DUP6 PUSH2 0x2979 SWAP2 SWAP1 PUSH2 0x3A5E JUMP JUMPDEST DUP3 PUSH2 0x2984 SWAP2 SWAP1 PUSH2 0x3A08 JUMP JUMPDEST SWAP1 SHR SWAP1 POP PUSH1 0x0 DUP2 DUP6 PUSH2 0x2996 SWAP2 SWAP1 PUSH2 0x3A5E JUMP JUMPDEST SWAP1 POP DUP1 DUP3 LT PUSH2 0x29A5 JUMPI DUP1 PUSH2 0x29A7 JUMP JUMPDEST DUP2 JUMPDEST SWAP4 POP POP POP POP JUMPDEST SWAP2 SWAP1 POP JUMP JUMPDEST PUSH1 0x0 PUSH2 0x2A14 DUP3 PUSH1 0x40 MLOAD DUP1 PUSH1 0x40 ADD PUSH1 0x40 MSTORE DUP1 PUSH1 0x20 DUP2 MSTORE PUSH1 0x20 ADD PUSH32 0x5361666545524332303A206C6F772D6C6576656C2063616C6C206661696C6564 DUP2 MSTORE POP DUP6 PUSH20 0xFFFFFFFFFFFFFFFFFFFFFFFFFFFFFFFFFFFFFFFF AND PUSH2 0x2C5D SWAP1 SWAP3 SWAP2 SWAP1 PUSH4 0xFFFFFFFF AND JUMP JUMPDEST SWAP1 POP PUSH1 0x0 DUP2 MLOAD GT ISZERO PUSH2 0x2A74 JUMPI DUP1 DUP1 PUSH1 0x20 ADD SWAP1 MLOAD DUP2 ADD SWAP1 PUSH2 0x2A34 SWAP2 SWAP1 PUSH2 0x30B4 JUMP JUMPDEST PUSH2 0x2A73 JUMPI PUSH1 0x40 MLOAD PUSH32 0x8C379A000000000000000000000000000000000000000000000000000000000 DUP2 MSTORE PUSH1 0x4 ADD PUSH2 0x2A6A SWAP1 PUSH2 0x3809 JUMP JUMPDEST PUSH1 0x40 MLOAD DUP1 SWAP2 SUB SWAP1 REVERT JUMPDEST JUMPDEST POP POP POP JUMP JUMPDEST PUSH2 0x2AFA DUP4 PUSH4 0xA9059CBB PUSH1 0xE0 SHL DUP5 DUP5 PUSH1 0x40 MLOAD PUSH1 0x24 ADD PUSH2 0x2A98 SWAP3 SWAP2 SWAP1 PUSH2 0x3628 JUMP JUMPDEST PUSH1 0x40 MLOAD PUSH1 0x20 DUP2 DUP4 SUB SUB DUP2 MSTORE SWAP1 PUSH1 0x40 MSTORE SWAP1 PUSH28 0xFFFFFFFFFFFFFFFFFFFFFFFFFFFFFFFFFFFFFFFFFFFFFFFFFFFFFFFF NOT AND PUSH1 0x20 DUP3 ADD DUP1 MLOAD PUSH28 0xFFFFFFFFFFFFFFFFFFFFFFFFFFFFFFFFFFFFFFFFFFFFFFFFFFFFFFFF DUP4 DUP2 DUP4 AND OR DUP4 MSTORE POP POP POP POP PUSH2 0x29B2 JUMP JUMPDEST POP POP POP JUMP JUMPDEST PUSH1 0x0 DUP2 EQ DUP1 PUSH2 0x2B98 JUMPI POP PUSH1 0x0 DUP4 PUSH20 0xFFFFFFFFFFFFFFFFFFFFFFFFFFFFFFFFFFFFFFFF AND PUSH4 0xDD62ED3E ADDRESS DUP6 PUSH1 0x40 MLOAD DUP4 PUSH4 0xFFFFFFFF AND PUSH1 0xE0 SHL DUP2 MSTORE PUSH1 0x4 ADD PUSH2 0x2B46 SWAP3 SWAP2 SWAP1 PUSH2 0x354A JUMP JUMPDEST PUSH1 0x20 PUSH1 0x40 MLOAD DUP1 DUP4 SUB DUP2 DUP7 DUP1 EXTCODESIZE ISZERO DUP1 ISZERO PUSH2 0x2B5E JUMPI PUSH1 0x0 DUP1 REVERT JUMPDEST POP GAS STATICCALL ISZERO DUP1 ISZERO PUSH2 0x2B72 JUMPI RETURNDATASIZE PUSH1 0x0 DUP1 RETURNDATACOPY RETURNDATASIZE PUSH1 0x0 REVERT JUMPDEST POP POP POP POP PUSH1 0x40 MLOAD RETURNDATASIZE PUSH1 0x1F NOT PUSH1 0x1F DUP3 ADD AND DUP3 ADD DUP1 PUSH1 0x40 MSTORE POP DUP2 ADD SWAP1 PUSH2 0x2B96 SWAP2 SWAP1 PUSH2 0x3134 JUMP JUMPDEST EQ JUMPDEST PUSH2 0x2BD7 JUMPI PUSH1 0x40 MLOAD PUSH32 0x8C379A000000000000000000000000000000000000000000000000000000000 DUP2 MSTORE PUSH1 0x4 ADD PUSH2 0x2BCE SWAP1 PUSH2 0x3829 JUMP JUMPDEST PUSH1 0x40 MLOAD DUP1 SWAP2 SUB SWAP1 REVERT JUMPDEST PUSH2 0x2C58 DUP4 PUSH4 0x95EA7B3 PUSH1 0xE0 SHL DUP5 DUP5 PUSH1 0x40 MLOAD PUSH1 0x24 ADD PUSH2 0x2BF6 SWAP3 SWAP2 SWAP1 PUSH2 0x3628 JUMP JUMPDEST PUSH1 0x40 MLOAD PUSH1 0x20 DUP2 DUP4 SUB SUB DUP2 MSTORE SWAP1 PUSH1 0x40 MSTORE SWAP1 PUSH28 0xFFFFFFFFFFFFFFFFFFFFFFFFFFFFFFFFFFFFFFFFFFFFFFFFFFFFFFFF NOT AND PUSH1 0x20 DUP3 ADD DUP1 MLOAD PUSH28 0xFFFFFFFFFFFFFFFFFFFFFFFFFFFFFFFFFFFFFFFFFFFFFFFFFFFFFFFF DUP4 DUP2 DUP4 AND OR DUP4 MSTORE POP POP POP POP PUSH2 0x29B2 JUMP JUMPDEST POP POP POP JUMP JUMPDEST PUSH1 0x60 PUSH2 0x2C6C DUP5 DUP5 PUSH1 0x0 DUP6 PUSH2 0x2C75 JUMP JUMPDEST SWAP1 POP SWAP4 SWAP3 POP POP POP JUMP JUMPDEST PUSH1 0x60 DUP3 SELFBALANCE LT ISZERO PUSH2 0x2CBA JUMPI PUSH1 0x40 MLOAD PUSH32 0x8C379A000000000000000000000000000000000000000000000000000000000 DUP2 MSTORE PUSH1 0x4 ADD PUSH2 0x2CB1 SWAP1 PUSH2 0x3749 JUMP JUMPDEST PUSH1 0x40 MLOAD DUP1 SWAP2 SUB SWAP1 REVERT JUMPDEST PUSH2 0x2CC3 DUP6 PUSH2 0x2D89 JUMP JUMPDEST PUSH2 0x2D02 JUMPI PUSH1 0x40 MLOAD PUSH32 0x8C379A000000000000000000000000000000000000000000000000000000000 DUP2 MSTORE PUSH1 0x4 ADD PUSH2 0x2CF9 SWAP1 PUSH2 0x37C9 JUMP JUMPDEST PUSH1 0x40 MLOAD DUP1 SWAP2 SUB SWAP1 REVERT JUMPDEST PUSH1 0x0 DUP1 DUP7 PUSH20 0xFFFFFFFFFFFFFFFFFFFFFFFFFFFFFFFFFFFFFFFF AND DUP6 DUP8 PUSH1 0x40 MLOAD PUSH2 0x2D2B SWAP2 SWAP1 PUSH2 0x3518 JUMP JUMPDEST PUSH1 0x0 PUSH1 0x40 MLOAD DUP1 DUP4 SUB DUP2 DUP6 DUP8 GAS CALL SWAP3 POP POP POP RETURNDATASIZE DUP1 PUSH1 0x0 DUP2 EQ PUSH2 0x2D68 JUMPI PUSH1 0x40 MLOAD SWAP2 POP PUSH1 0x1F NOT PUSH1 0x3F RETURNDATASIZE ADD AND DUP3 ADD PUSH1 0x40 MSTORE RETURNDATASIZE DUP3 MSTORE RETURNDATASIZE PUSH1 0x0 PUSH1 0x20 DUP5 ADD RETURNDATACOPY PUSH2 0x2D6D JUMP JUMPDEST PUSH1 0x60 SWAP2 POP JUMPDEST POP SWAP2 POP SWAP2 POP PUSH2 0x2D7D DUP3 DUP3 DUP7 PUSH2 0x2DAC JUMP JUMPDEST SWAP3 POP POP POP SWAP5 SWAP4 POP POP POP POP JUMP JUMPDEST PUSH1 0x0 DUP1 DUP3 PUSH20 0xFFFFFFFFFFFFFFFFFFFFFFFFFFFFFFFFFFFFFFFF AND EXTCODESIZE GT SWAP1 POP SWAP2 SWAP1 POP JUMP JUMPDEST PUSH1 0x60 DUP4 ISZERO PUSH2 0x2DBC JUMPI DUP3 SWAP1 POP PUSH2 0x2E0C JUMP JUMPDEST PUSH1 0x0 DUP4 MLOAD GT ISZERO PUSH2 0x2DCF JUMPI DUP3 MLOAD DUP1 DUP5 PUSH1 0x20 ADD REVERT JUMPDEST DUP2 PUSH1 0x40 MLOAD PUSH32 0x8C379A000000000000000000000000000000000000000000000000000000000 DUP2 MSTORE PUSH1 0x4 ADD PUSH2 0x2E03 SWAP2 SWAP1 PUSH2 0x3687 JUMP JUMPDEST PUSH1 0x40 MLOAD DUP1 SWAP2 SUB SWAP1 REVERT JUMPDEST SWAP4 SWAP3 POP POP POP JUMP JUMPDEST PUSH1 0x0 PUSH2 0x2E26 PUSH2 0x2E21 DUP5 PUSH2 0x3971 JUMP JUMPDEST PUSH2 0x394C JUMP JUMPDEST SWAP1 POP DUP1 DUP4 DUP3 MSTORE PUSH1 0x20 DUP3 ADD SWAP1 POP DUP3 DUP6 PUSH1 0x20 DUP7 MUL DUP3 ADD GT ISZERO PUSH2 0x2E49 JUMPI PUSH2 0x2E48 PUSH2 0x3D74 JUMP JUMPDEST JUMPDEST PUSH1 0x0 JUMPDEST DUP6 DUP2 LT ISZERO PUSH2 0x2E79 JUMPI DUP2 PUSH2 0x2E5F DUP9 DUP3 PUSH2 0x2F1A JUMP JUMPDEST DUP5 MSTORE PUSH1 0x20 DUP5 ADD SWAP4 POP PUSH1 0x20 DUP4 ADD SWAP3 POP POP PUSH1 0x1 DUP2 ADD SWAP1 POP PUSH2 0x2E4C JUMP JUMPDEST POP POP POP SWAP4 SWAP3 POP POP POP JUMP JUMPDEST PUSH1 0x0 DUP2 CALLDATALOAD SWAP1 POP PUSH2 0x2E92 DUP2 PUSH2 0x4174 JUMP JUMPDEST SWAP3 SWAP2 POP POP JUMP JUMPDEST PUSH1 0x0 DUP2 MLOAD SWAP1 POP PUSH2 0x2EA7 DUP2 PUSH2 0x4174 JUMP JUMPDEST SWAP3 SWAP2 POP POP JUMP JUMPDEST PUSH1 0x0 DUP3 PUSH1 0x1F DUP4 ADD SLT PUSH2 0x2EC2 JUMPI PUSH2 0x2EC1 PUSH2 0x3D6F JUMP JUMPDEST JUMPDEST DUP2 MLOAD PUSH2 0x2ED2 DUP5 DUP3 PUSH1 0x20 DUP7 ADD PUSH2 0x2E13 JUMP JUMPDEST SWAP2 POP POP SWAP3 SWAP2 POP POP JUMP JUMPDEST PUSH1 0x0 DUP2 MLOAD SWAP1 POP PUSH2 0x2EEA DUP2 PUSH2 0x418B JUMP JUMPDEST SWAP3 SWAP2 POP POP JUMP JUMPDEST PUSH1 0x0 DUP2 MLOAD SWAP1 POP PUSH2 0x2EFF DUP2 PUSH2 0x41A2 JUMP JUMPDEST SWAP3 SWAP2 POP POP JUMP JUMPDEST PUSH1 0x0 DUP2 CALLDATALOAD SWAP1 POP PUSH2 0x2F14 DUP2 PUSH2 0x41B9 JUMP JUMPDEST SWAP3 SWAP2 POP POP JUMP JUMPDEST PUSH1 0x0 DUP2 MLOAD SWAP1 POP PUSH2 0x2F29 DUP2 PUSH2 0x41B9 JUMP JUMPDEST SWAP3 SWAP2 POP POP JUMP JUMPDEST PUSH1 0x0 DUP2 MLOAD SWAP1 POP PUSH2 0x2F3E DUP2 PUSH2 0x41D0 JUMP JUMPDEST SWAP3 SWAP2 POP POP JUMP JUMPDEST PUSH1 0x0 PUSH1 0x20 DUP3 DUP5 SUB SLT ISZERO PUSH2 0x2F5A JUMPI PUSH2 0x2F59 PUSH2 0x3D7E JUMP JUMPDEST JUMPDEST PUSH1 0x0 PUSH2 0x2F68 DUP5 DUP3 DUP6 ADD PUSH2 0x2E98 JUMP JUMPDEST SWAP2 POP POP SWAP3 SWAP2 POP POP JUMP JUMPDEST PUSH1 0x0 DUP1 PUSH1 0x0 PUSH1 0x60 DUP5 DUP7 SUB SLT ISZERO PUSH2 0x2F8A JUMPI PUSH2 0x2F89 PUSH2 0x3D7E JUMP JUMPDEST JUMPDEST PUSH1 0x0 PUSH2 0x2F98 DUP7 DUP3 DUP8 ADD PUSH2 0x2E83 JUMP JUMPDEST SWAP4 POP POP PUSH1 0x20 PUSH2 0x2FA9 DUP7 DUP3 DUP8 ADD PUSH2 0x2E83 JUMP JUMPDEST SWAP3 POP POP PUSH1 0x40 PUSH2 0x2FBA DUP7 DUP3 DUP8 ADD PUSH2 0x2F05 JUMP JUMPDEST SWAP2 POP POP SWAP3 POP SWAP3 POP SWAP3 JUMP JUMPDEST PUSH1 0x0 DUP1 PUSH1 0x40 DUP4 DUP6 SUB SLT ISZERO PUSH2 0x2FDB JUMPI PUSH2 0x2FDA PUSH2 0x3D7E JUMP JUMPDEST JUMPDEST PUSH1 0x0 PUSH2 0x2FE9 DUP6 DUP3 DUP7 ADD PUSH2 0x2E83 JUMP JUMPDEST SWAP3 POP POP PUSH1 0x20 PUSH2 0x2FFA DUP6 DUP3 DUP7 ADD PUSH2 0x2F05 JUMP JUMPDEST SWAP2 POP POP SWAP3 POP SWAP3 SWAP1 POP JUMP JUMPDEST PUSH1 0x0 DUP1 PUSH1 0x0 DUP1 PUSH1 0x80 DUP6 DUP8 SUB SLT ISZERO PUSH2 0x301E JUMPI PUSH2 0x301D PUSH2 0x3D7E JUMP JUMPDEST JUMPDEST PUSH1 0x0 PUSH2 0x302C DUP8 DUP3 DUP9 ADD PUSH2 0x2E83 JUMP JUMPDEST SWAP5 POP POP PUSH1 0x20 PUSH2 0x303D DUP8 DUP3 DUP9 ADD PUSH2 0x2F05 JUMP JUMPDEST SWAP4 POP POP PUSH1 0x40 PUSH2 0x304E DUP8 DUP3 DUP9 ADD PUSH2 0x2E83 JUMP JUMPDEST SWAP3 POP POP PUSH1 0x60 PUSH2 0x305F DUP8 DUP3 DUP9 ADD PUSH2 0x2F05 JUMP JUMPDEST SWAP2 POP POP SWAP3 SWAP6 SWAP2 SWAP5 POP SWAP3 POP JUMP JUMPDEST PUSH1 0x0 PUSH1 0x20 DUP3 DUP5 SUB SLT ISZERO PUSH2 0x3081 JUMPI PUSH2 0x3080 PUSH2 0x3D7E JUMP JUMPDEST JUMPDEST PUSH1 0x0 DUP3 ADD MLOAD PUSH8 0xFFFFFFFFFFFFFFFF DUP2 GT ISZERO PUSH2 0x309F JUMPI PUSH2 0x309E PUSH2 0x3D79 JUMP JUMPDEST JUMPDEST PUSH2 0x30AB DUP5 DUP3 DUP6 ADD PUSH2 0x2EAD JUMP JUMPDEST SWAP2 POP POP SWAP3 SWAP2 POP POP JUMP JUMPDEST PUSH1 0x0 PUSH1 0x20 DUP3 DUP5 SUB SLT ISZERO PUSH2 0x30CA JUMPI PUSH2 0x30C9 PUSH2 0x3D7E JUMP JUMPDEST JUMPDEST PUSH1 0x0 PUSH2 0x30D8 DUP5 DUP3 DUP6 ADD PUSH2 0x2EDB JUMP JUMPDEST SWAP2 POP POP SWAP3 SWAP2 POP POP JUMP JUMPDEST PUSH1 0x0 DUP1 PUSH1 0x0 PUSH1 0x60 DUP5 DUP7 SUB SLT ISZERO PUSH2 0x30FA JUMPI PUSH2 0x30F9 PUSH2 0x3D7E JUMP JUMPDEST JUMPDEST PUSH1 0x0 PUSH2 0x3108 DUP7 DUP3 DUP8 ADD PUSH2 0x2EF0 JUMP JUMPDEST SWAP4 POP POP PUSH1 0x20 PUSH2 0x3119 DUP7 DUP3 DUP8 ADD PUSH2 0x2EF0 JUMP JUMPDEST SWAP3 POP POP PUSH1 0x40 PUSH2 0x312A DUP7 DUP3 DUP8 ADD PUSH2 0x2F2F JUMP JUMPDEST SWAP2 POP POP SWAP3 POP SWAP3 POP SWAP3 JUMP JUMPDEST PUSH1 0x0 PUSH1 0x20 DUP3 DUP5 SUB SLT ISZERO PUSH2 0x314A JUMPI PUSH2 0x3149 PUSH2 0x3D7E JUMP JUMPDEST JUMPDEST PUSH1 0x0 PUSH2 0x3158 DUP5 DUP3 DUP6 ADD PUSH2 0x2F1A JUMP JUMPDEST SWAP2 POP POP SWAP3 SWAP2 POP POP JUMP JUMPDEST PUSH1 0x0 DUP1 PUSH1 0x40 DUP4 DUP6 SUB SLT ISZERO PUSH2 0x3178 JUMPI PUSH2 0x3177 PUSH2 0x3D7E JUMP JUMPDEST JUMPDEST PUSH1 0x0 PUSH2 0x3186 DUP6 DUP3 DUP7 ADD PUSH2 0x2F1A JUMP JUMPDEST SWAP3 POP POP PUSH1 0x20 PUSH2 0x3197 DUP6 DUP3 DUP7 ADD PUSH2 0x2F1A JUMP JUMPDEST SWAP2 POP POP SWAP3 POP SWAP3 SWAP1 POP JUMP JUMPDEST PUSH1 0x0 DUP1 PUSH1 0x0 PUSH1 0x60 DUP5 DUP7 SUB SLT ISZERO PUSH2 0x31BA JUMPI PUSH2 0x31B9 PUSH2 0x3D7E JUMP JUMPDEST JUMPDEST PUSH1 0x0 PUSH2 0x31C8 DUP7 DUP3 DUP8 ADD PUSH2 0x2F1A JUMP JUMPDEST SWAP4 POP POP PUSH1 0x20 PUSH2 0x31D9 DUP7 DUP3 DUP8 ADD PUSH2 0x2F1A JUMP JUMPDEST SWAP3 POP POP PUSH1 0x40 PUSH2 0x31EA DUP7 DUP3 DUP8 ADD PUSH2 0x2F1A JUMP JUMPDEST SWAP2 POP POP SWAP3 POP SWAP3 POP SWAP3 JUMP JUMPDEST PUSH1 0x0 PUSH2 0x3200 DUP4 DUP4 PUSH2 0x320C JUMP JUMPDEST PUSH1 0x20 DUP4 ADD SWAP1 POP SWAP3 SWAP2 POP POP JUMP JUMPDEST PUSH2 0x3215 DUP2 PUSH2 0x3B1D JUMP JUMPDEST DUP3 MSTORE POP POP JUMP JUMPDEST PUSH2 0x3224 DUP2 PUSH2 0x3B1D JUMP JUMPDEST DUP3 MSTORE POP POP JUMP JUMPDEST PUSH1 0x0 PUSH2 0x3235 DUP3 PUSH2 0x39AD JUMP JUMPDEST PUSH2 0x323F DUP2 DUP6 PUSH2 0x39DB JUMP JUMPDEST SWAP4 POP PUSH2 0x324A DUP4 PUSH2 0x399D JUMP JUMPDEST DUP1 PUSH1 0x0 JUMPDEST DUP4 DUP2 LT ISZERO PUSH2 0x327B JUMPI DUP2 MLOAD PUSH2 0x3262 DUP9 DUP3 PUSH2 0x31F4 JUMP JUMPDEST SWAP8 POP PUSH2 0x326D DUP4 PUSH2 0x39CE JUMP JUMPDEST SWAP3 POP POP PUSH1 0x1 DUP2 ADD SWAP1 POP PUSH2 0x324E JUMP JUMPDEST POP DUP6 SWAP4 POP POP POP POP SWAP3 SWAP2 POP POP JUMP JUMPDEST PUSH2 0x3291 DUP2 PUSH2 0x3B2F JUMP JUMPDEST DUP3 MSTORE POP POP JUMP JUMPDEST PUSH1 0x0 PUSH2 0x32A2 DUP3 PUSH2 0x39B8 JUMP JUMPDEST PUSH2 0x32AC DUP2 DUP6 PUSH2 0x39EC JUMP JUMPDEST SWAP4 POP PUSH2 0x32BC DUP2 DUP6 PUSH1 0x20 DUP7 ADD PUSH2 0x3BD7 JUMP JUMPDEST DUP1 DUP5 ADD SWAP2 POP POP SWAP3 SWAP2 POP POP JUMP JUMPDEST PUSH2 0x32D1 DUP2 PUSH2 0x3B8F JUMP JUMPDEST DUP3 MSTORE POP POP JUMP JUMPDEST PUSH2 0x32E0 DUP2 PUSH2 0x3BA1 JUMP JUMPDEST DUP3 MSTORE POP POP JUMP JUMPDEST PUSH1 0x0 PUSH2 0x32F1 DUP3 PUSH2 0x39C3 JUMP JUMPDEST PUSH2 0x32FB DUP2 DUP6 PUSH2 0x39F7 JUMP JUMPDEST SWAP4 POP PUSH2 0x330B DUP2 DUP6 PUSH1 0x20 DUP7 ADD PUSH2 0x3BD7 JUMP JUMPDEST PUSH2 0x3314 DUP2 PUSH2 0x3D83 JUMP JUMPDEST DUP5 ADD SWAP2 POP POP SWAP3 SWAP2 POP POP JUMP JUMPDEST PUSH1 0x0 PUSH2 0x332C PUSH1 0x29 DUP4 PUSH2 0x39F7 JUMP JUMPDEST SWAP2 POP PUSH2 0x3337 DUP3 PUSH2 0x3D94 JUMP JUMPDEST PUSH1 0x40 DUP3 ADD SWAP1 POP SWAP2 SWAP1 POP JUMP JUMPDEST PUSH1 0x0 PUSH2 0x334F PUSH1 0x20 DUP4 PUSH2 0x39F7 JUMP JUMPDEST SWAP2 POP PUSH2 0x335A DUP3 PUSH2 0x3DE3 JUMP JUMPDEST PUSH1 0x20 DUP3 ADD SWAP1 POP SWAP2 SWAP1 POP JUMP JUMPDEST PUSH1 0x0 PUSH2 0x3372 PUSH1 0x1A DUP4 PUSH2 0x39F7 JUMP JUMPDEST SWAP2 POP PUSH2 0x337D DUP3 PUSH2 0x3E0C JUMP JUMPDEST PUSH1 0x20 DUP3 ADD SWAP1 POP SWAP2 SWAP1 POP JUMP JUMPDEST PUSH1 0x0 PUSH2 0x3395 PUSH1 0x2E DUP4 PUSH2 0x39F7 JUMP JUMPDEST SWAP2 POP PUSH2 0x33A0 DUP3 PUSH2 0x3E35 JUMP JUMPDEST PUSH1 0x40 DUP3 ADD SWAP1 POP SWAP2 SWAP1 POP JUMP JUMPDEST PUSH1 0x0 PUSH2 0x33B8 PUSH1 0x26 DUP4 PUSH2 0x39F7 JUMP JUMPDEST SWAP2 POP PUSH2 0x33C3 DUP3 PUSH2 0x3E84 JUMP JUMPDEST PUSH1 0x40 DUP3 ADD SWAP1 POP SWAP2 SWAP1 POP JUMP JUMPDEST PUSH1 0x0 PUSH2 0x33DB PUSH1 0x26 DUP4 PUSH2 0x39F7 JUMP JUMPDEST SWAP2 POP PUSH2 0x33E6 DUP3 PUSH2 0x3ED3 JUMP JUMPDEST PUSH1 0x40 DUP3 ADD SWAP1 POP SWAP2 SWAP1 POP JUMP JUMPDEST PUSH1 0x0 PUSH2 0x33FE PUSH1 0x21 DUP4 PUSH2 0x39F7 JUMP JUMPDEST SWAP2 POP PUSH2 0x3409 DUP3 PUSH2 0x3F22 JUMP JUMPDEST PUSH1 0x40 DUP3 ADD SWAP1 POP SWAP2 SWAP1 POP JUMP JUMPDEST PUSH1 0x0 PUSH2 0x3421 PUSH1 0x25 DUP4 PUSH2 0x39F7 JUMP JUMPDEST SWAP2 POP PUSH2 0x342C DUP3 PUSH2 0x3F71 JUMP JUMPDEST PUSH1 0x40 DUP3 ADD SWAP1 POP SWAP2 SWAP1 POP JUMP JUMPDEST PUSH1 0x0 PUSH2 0x3444 PUSH1 0x2D DUP4 PUSH2 0x39F7 JUMP JUMPDEST SWAP2 POP PUSH2 0x344F DUP3 PUSH2 0x3FC0 JUMP JUMPDEST PUSH1 0x40 DUP3 ADD SWAP1 POP SWAP2 SWAP1 POP JUMP JUMPDEST PUSH1 0x0 PUSH2 0x3467 PUSH1 0x1D DUP4 PUSH2 0x39F7 JUMP JUMPDEST SWAP2 POP PUSH2 0x3472 DUP3 PUSH2 0x400F JUMP JUMPDEST PUSH1 0x20 DUP3 ADD SWAP1 POP SWAP2 SWAP1 POP JUMP JUMPDEST PUSH1 0x0 PUSH2 0x348A PUSH1 0x26 DUP4 PUSH2 0x39F7 JUMP JUMPDEST SWAP2 POP PUSH2 0x3495 DUP3 PUSH2 0x4038 JUMP JUMPDEST PUSH1 0x40 DUP3 ADD SWAP1 POP SWAP2 SWAP1 POP JUMP JUMPDEST PUSH1 0x0 PUSH2 0x34AD PUSH1 0x2A DUP4 PUSH2 0x39F7 JUMP JUMPDEST SWAP2 POP PUSH2 0x34B8 DUP3 PUSH2 0x4087 JUMP JUMPDEST PUSH1 0x40 DUP3 ADD SWAP1 POP SWAP2 SWAP1 POP JUMP JUMPDEST PUSH1 0x0 PUSH2 0x34D0 PUSH1 0x36 DUP4 PUSH2 0x39F7 JUMP JUMPDEST SWAP2 POP PUSH2 0x34DB DUP3 PUSH2 0x40D6 JUMP JUMPDEST PUSH1 0x40 DUP3 ADD SWAP1 POP SWAP2 SWAP1 POP JUMP JUMPDEST PUSH1 0x0 PUSH2 0x34F3 PUSH1 0x30 DUP4 PUSH2 0x39F7 JUMP JUMPDEST SWAP2 POP PUSH2 0x34FE DUP3 PUSH2 0x4125 JUMP JUMPDEST PUSH1 0x40 DUP3 ADD SWAP1 POP SWAP2 SWAP1 POP JUMP JUMPDEST PUSH2 0x3512 DUP2 PUSH2 0x3B75 JUMP JUMPDEST DUP3 MSTORE POP POP JUMP JUMPDEST PUSH1 0x0 PUSH2 0x3524 DUP3 DUP5 PUSH2 0x3297 JUMP JUMPDEST SWAP2 POP DUP2 SWAP1 POP SWAP3 SWAP2 POP POP JUMP JUMPDEST PUSH1 0x0 PUSH1 0x20 DUP3 ADD SWAP1 POP PUSH2 0x3544 PUSH1 0x0 DUP4 ADD DUP5 PUSH2 0x321B JUMP JUMPDEST SWAP3 SWAP2 POP POP JUMP JUMPDEST PUSH1 0x0 PUSH1 0x40 DUP3 ADD SWAP1 POP PUSH2 0x355F PUSH1 0x0 DUP4 ADD DUP6 PUSH2 0x321B JUMP JUMPDEST PUSH2 0x356C PUSH1 0x20 DUP4 ADD DUP5 PUSH2 0x321B JUMP JUMPDEST SWAP4 SWAP3 POP POP POP JUMP JUMPDEST PUSH1 0x0 PUSH1 0x60 DUP3 ADD SWAP1 POP PUSH2 0x3588 PUSH1 0x0 DUP4 ADD DUP7 PUSH2 0x321B JUMP JUMPDEST PUSH2 0x3595 PUSH1 0x20 DUP4 ADD DUP6 PUSH2 0x321B JUMP JUMPDEST PUSH2 0x35A2 PUSH1 0x40 DUP4 ADD DUP5 PUSH2 0x3509 JUMP JUMPDEST SWAP5 SWAP4 POP POP POP POP JUMP JUMPDEST PUSH1 0x0 PUSH2 0x100 DUP3 ADD SWAP1 POP PUSH2 0x35C0 PUSH1 0x0 DUP4 ADD DUP12 PUSH2 0x321B JUMP JUMPDEST PUSH2 0x35CD PUSH1 0x20 DUP4 ADD DUP11 PUSH2 0x321B JUMP JUMPDEST PUSH2 0x35DA PUSH1 0x40 DUP4 ADD DUP10 PUSH2 0x3509 JUMP JUMPDEST PUSH2 0x35E7 PUSH1 0x60 DUP4 ADD DUP9 PUSH2 0x3509 JUMP JUMPDEST PUSH2 0x35F4 PUSH1 0x80 DUP4 ADD DUP8 PUSH2 0x32D7 JUMP JUMPDEST PUSH2 0x3601 PUSH1 0xA0 DUP4 ADD DUP7 PUSH2 0x32D7 JUMP JUMPDEST PUSH2 0x360E PUSH1 0xC0 DUP4 ADD DUP6 PUSH2 0x321B JUMP JUMPDEST PUSH2 0x361B PUSH1 0xE0 DUP4 ADD DUP5 PUSH2 0x3509 JUMP JUMPDEST SWAP10 SWAP9 POP POP POP POP POP POP POP POP POP JUMP JUMPDEST PUSH1 0x0 PUSH1 0x40 DUP3 ADD SWAP1 POP PUSH2 0x363D PUSH1 0x0 DUP4 ADD DUP6 PUSH2 0x321B JUMP JUMPDEST PUSH2 0x364A PUSH1 0x20 DUP4 ADD DUP5 PUSH2 0x3509 JUMP JUMPDEST SWAP4 SWAP3 POP POP POP JUMP JUMPDEST PUSH1 0x0 PUSH1 0x20 DUP3 ADD SWAP1 POP PUSH2 0x3666 PUSH1 0x0 DUP4 ADD DUP5 PUSH2 0x3288 JUMP JUMPDEST SWAP3 SWAP2 POP POP JUMP JUMPDEST PUSH1 0x0 PUSH1 0x20 DUP3 ADD SWAP1 POP PUSH2 0x3681 PUSH1 0x0 DUP4 ADD DUP5 PUSH2 0x32C8 JUMP JUMPDEST SWAP3 SWAP2 POP POP JUMP JUMPDEST PUSH1 0x0 PUSH1 0x20 DUP3 ADD SWAP1 POP DUP2 DUP2 SUB PUSH1 0x0 DUP4 ADD MSTORE PUSH2 0x36A1 DUP2 DUP5 PUSH2 0x32E6 JUMP JUMPDEST SWAP1 POP SWAP3 SWAP2 POP POP JUMP JUMPDEST PUSH1 0x0 PUSH1 0x20 DUP3 ADD SWAP1 POP DUP2 DUP2 SUB PUSH1 0x0 DUP4 ADD MSTORE PUSH2 0x36C2 DUP2 PUSH2 0x331F JUMP JUMPDEST SWAP1 POP SWAP2 SWAP1 POP JUMP JUMPDEST PUSH1 0x0 PUSH1 0x20 DUP3 ADD SWAP1 POP DUP2 DUP2 SUB PUSH1 0x0 DUP4 ADD MSTORE PUSH2 0x36E2 DUP2 PUSH2 0x3342 JUMP JUMPDEST SWAP1 POP SWAP2 SWAP1 POP JUMP JUMPDEST PUSH1 0x0 PUSH1 0x20 DUP3 ADD SWAP1 POP DUP2 DUP2 SUB PUSH1 0x0 DUP4 ADD MSTORE PUSH2 0x3702 DUP2 PUSH2 0x3365 JUMP JUMPDEST SWAP1 POP SWAP2 SWAP1 POP JUMP JUMPDEST PUSH1 0x0 PUSH1 0x20 DUP3 ADD SWAP1 POP DUP2 DUP2 SUB PUSH1 0x0 DUP4 ADD MSTORE PUSH2 0x3722 DUP2 PUSH2 0x3388 JUMP JUMPDEST SWAP1 POP SWAP2 SWAP1 POP JUMP JUMPDEST PUSH1 0x0 PUSH1 0x20 DUP3 ADD SWAP1 POP DUP2 DUP2 SUB PUSH1 0x0 DUP4 ADD MSTORE PUSH2 0x3742 DUP2 PUSH2 0x33AB JUMP JUMPDEST SWAP1 POP SWAP2 SWAP1 POP JUMP JUMPDEST PUSH1 0x0 PUSH1 0x20 DUP3 ADD SWAP1 POP DUP2 DUP2 SUB PUSH1 0x0 DUP4 ADD MSTORE PUSH2 0x3762 DUP2 PUSH2 0x33CE JUMP JUMPDEST SWAP1 POP SWAP2 SWAP1 POP JUMP JUMPDEST PUSH1 0x0 PUSH1 0x20 DUP3 ADD SWAP1 POP DUP2 DUP2 SUB PUSH1 0x0 DUP4 ADD MSTORE PUSH2 0x3782 DUP2 PUSH2 0x33F1 JUMP JUMPDEST SWAP1 POP SWAP2 SWAP1 POP JUMP JUMPDEST PUSH1 0x0 PUSH1 0x20 DUP3 ADD SWAP1 POP DUP2 DUP2 SUB PUSH1 0x0 DUP4 ADD MSTORE PUSH2 0x37A2 DUP2 PUSH2 0x3414 JUMP JUMPDEST SWAP1 POP SWAP2 SWAP1 POP JUMP JUMPDEST PUSH1 0x0 PUSH1 0x20 DUP3 ADD SWAP1 POP DUP2 DUP2 SUB PUSH1 0x0 DUP4 ADD MSTORE PUSH2 0x37C2 DUP2 PUSH2 0x3437 JUMP JUMPDEST SWAP1 POP SWAP2 SWAP1 POP JUMP JUMPDEST PUSH1 0x0 PUSH1 0x20 DUP3 ADD SWAP1 POP DUP2 DUP2 SUB PUSH1 0x0 DUP4 ADD MSTORE PUSH2 0x37E2 DUP2 PUSH2 0x345A JUMP JUMPDEST SWAP1 POP SWAP2 SWAP1 POP JUMP JUMPDEST PUSH1 0x0 PUSH1 0x20 DUP3 ADD SWAP1 POP DUP2 DUP2 SUB PUSH1 0x0 DUP4 ADD MSTORE PUSH2 0x3802 DUP2 PUSH2 0x347D JUMP JUMPDEST SWAP1 POP SWAP2 SWAP1 POP JUMP JUMPDEST PUSH1 0x0 PUSH1 0x20 DUP3 ADD SWAP1 POP DUP2 DUP2 SUB PUSH1 0x0 DUP4 ADD MSTORE PUSH2 0x3822 DUP2 PUSH2 0x34A0 JUMP JUMPDEST SWAP1 POP SWAP2 SWAP1 POP JUMP JUMPDEST PUSH1 0x0 PUSH1 0x20 DUP3 ADD SWAP1 POP DUP2 DUP2 SUB PUSH1 0x0 DUP4 ADD MSTORE PUSH2 0x3842 DUP2 PUSH2 0x34C3 JUMP JUMPDEST SWAP1 POP SWAP2 SWAP1 POP JUMP JUMPDEST PUSH1 0x0 PUSH1 0x20 DUP3 ADD SWAP1 POP DUP2 DUP2 SUB PUSH1 0x0 DUP4 ADD MSTORE PUSH2 0x3862 DUP2 PUSH2 0x34E6 JUMP JUMPDEST SWAP1 POP SWAP2 SWAP1 POP JUMP JUMPDEST PUSH1 0x0 PUSH1 0x20 DUP3 ADD SWAP1 POP PUSH2 0x387E PUSH1 0x0 DUP4 ADD DUP5 PUSH2 0x3509 JUMP JUMPDEST SWAP3 SWAP2 POP POP JUMP JUMPDEST PUSH1 0x0 PUSH1 0x60 DUP3 ADD SWAP1 POP PUSH2 0x3899 PUSH1 0x0 DUP4 ADD DUP7 PUSH2 0x3509 JUMP JUMPDEST PUSH2 0x38A6 PUSH1 0x20 DUP4 ADD DUP6 PUSH2 0x3509 JUMP JUMPDEST PUSH2 0x38B3 PUSH1 0x40 DUP4 ADD DUP5 PUSH2 0x321B JUMP JUMPDEST SWAP5 SWAP4 POP POP POP POP JUMP JUMPDEST PUSH1 0x0 PUSH1 0xA0 DUP3 ADD SWAP1 POP PUSH2 0x38D0 PUSH1 0x0 DUP4 ADD DUP9 PUSH2 0x3509 JUMP JUMPDEST PUSH2 0x38DD PUSH1 0x20 DUP4 ADD DUP8 PUSH2 0x3509 JUMP JUMPDEST DUP2 DUP2 SUB PUSH1 0x40 DUP4 ADD MSTORE PUSH2 0x38EF DUP2 DUP7 PUSH2 0x322A JUMP JUMPDEST SWAP1 POP PUSH2 0x38FE PUSH1 0x60 DUP4 ADD DUP6 PUSH2 0x321B JUMP JUMPDEST PUSH2 0x390B PUSH1 0x80 DUP4 ADD DUP5 PUSH2 0x3509 JUMP JUMPDEST SWAP7 SWAP6 POP POP POP POP POP POP JUMP JUMPDEST PUSH1 0x0 PUSH1 0x60 DUP3 ADD SWAP1 POP PUSH2 0x392A PUSH1 0x0 DUP4 ADD DUP7 PUSH2 0x3509 JUMP JUMPDEST PUSH2 0x3937 PUSH1 0x20 DUP4 ADD DUP6 PUSH2 0x3509 JUMP JUMPDEST PUSH2 0x3944 PUSH1 0x40 DUP4 ADD DUP5 PUSH2 0x3509 JUMP JUMPDEST SWAP5 SWAP4 POP POP POP POP JUMP JUMPDEST PUSH1 0x0 PUSH2 0x3956 PUSH2 0x3967 JUMP JUMPDEST SWAP1 POP PUSH2 0x3962 DUP3 DUP3 PUSH2 0x3C0A JUMP JUMPDEST SWAP2 SWAP1 POP JUMP JUMPDEST PUSH1 0x0 PUSH1 0x40 MLOAD SWAP1 POP SWAP1 JUMP JUMPDEST PUSH1 0x0 PUSH8 0xFFFFFFFFFFFFFFFF DUP3 GT ISZERO PUSH2 0x398C JUMPI PUSH2 0x398B PUSH2 0x3D40 JUMP JUMPDEST JUMPDEST PUSH1 0x20 DUP3 MUL SWAP1 POP PUSH1 0x20 DUP2 ADD SWAP1 POP SWAP2 SWAP1 POP JUMP JUMPDEST PUSH1 0x0 DUP2 SWAP1 POP PUSH1 0x20 DUP3 ADD SWAP1 POP SWAP2 SWAP1 POP JUMP JUMPDEST PUSH1 0x0 DUP2 MLOAD SWAP1 POP SWAP2 SWAP1 POP JUMP JUMPDEST PUSH1 0x0 DUP2 MLOAD SWAP1 POP SWAP2 SWAP1 POP JUMP JUMPDEST PUSH1 0x0 DUP2 MLOAD SWAP1 POP SWAP2 SWAP1 POP JUMP JUMPDEST PUSH1 0x0 PUSH1 0x20 DUP3 ADD SWAP1 POP SWAP2 SWAP1 POP JUMP JUMPDEST PUSH1 0x0 DUP3 DUP3 MSTORE PUSH1 0x20 DUP3 ADD SWAP1 POP SWAP3 SWAP2 POP POP JUMP JUMPDEST PUSH1 0x0 DUP2 SWAP1 POP SWAP3 SWAP2 POP POP JUMP JUMPDEST PUSH1 0x0 DUP3 DUP3 MSTORE PUSH1 0x20 DUP3 ADD SWAP1 POP SWAP3 SWAP2 POP POP JUMP JUMPDEST PUSH1 0x0 PUSH2 0x3A13 DUP3 PUSH2 0x3B75 JUMP JUMPDEST SWAP2 POP PUSH2 0x3A1E DUP4 PUSH2 0x3B75 JUMP JUMPDEST SWAP3 POP DUP3 PUSH32 0xFFFFFFFFFFFFFFFFFFFFFFFFFFFFFFFFFFFFFFFFFFFFFFFFFFFFFFFFFFFFFFFF SUB DUP3 GT ISZERO PUSH2 0x3A53 JUMPI PUSH2 0x3A52 PUSH2 0x3CB3 JUMP JUMPDEST JUMPDEST DUP3 DUP3 ADD SWAP1 POP SWAP3 SWAP2 POP POP JUMP JUMPDEST PUSH1 0x0 PUSH2 0x3A69 DUP3 PUSH2 0x3B75 JUMP JUMPDEST SWAP2 POP PUSH2 0x3A74 DUP4 PUSH2 0x3B75 JUMP JUMPDEST SWAP3 POP DUP3 PUSH2 0x3A84 JUMPI PUSH2 0x3A83 PUSH2 0x3CE2 JUMP JUMPDEST JUMPDEST DUP3 DUP3 DIV SWAP1 POP SWAP3 SWAP2 POP POP JUMP JUMPDEST PUSH1 0x0 PUSH2 0x3A9A DUP3 PUSH2 0x3B75 JUMP JUMPDEST SWAP2 POP PUSH2 0x3AA5 DUP4 PUSH2 0x3B75 JUMP JUMPDEST SWAP3 POP DUP2 PUSH32 0xFFFFFFFFFFFFFFFFFFFFFFFFFFFFFFFFFFFFFFFFFFFFFFFFFFFFFFFFFFFFFFFF DIV DUP4 GT DUP3 ISZERO ISZERO AND ISZERO PUSH2 0x3ADE JUMPI PUSH2 0x3ADD PUSH2 0x3CB3 JUMP JUMPDEST JUMPDEST DUP3 DUP3 MUL SWAP1 POP SWAP3 SWAP2 POP POP JUMP JUMPDEST PUSH1 0x0 PUSH2 0x3AF4 DUP3 PUSH2 0x3B75 JUMP JUMPDEST SWAP2 POP PUSH2 0x3AFF DUP4 PUSH2 0x3B75 JUMP JUMPDEST SWAP3 POP DUP3 DUP3 LT ISZERO PUSH2 0x3B12 JUMPI PUSH2 0x3B11 PUSH2 0x3CB3 JUMP JUMPDEST JUMPDEST DUP3 DUP3 SUB SWAP1 POP SWAP3 SWAP2 POP POP JUMP JUMPDEST PUSH1 0x0 PUSH2 0x3B28 DUP3 PUSH2 0x3B55 JUMP JUMPDEST SWAP1 POP SWAP2 SWAP1 POP JUMP JUMPDEST PUSH1 0x0 DUP2 ISZERO ISZERO SWAP1 POP SWAP2 SWAP1 POP JUMP JUMPDEST PUSH1 0x0 PUSH14 0xFFFFFFFFFFFFFFFFFFFFFFFFFFFF DUP3 AND SWAP1 POP SWAP2 SWAP1 POP JUMP JUMPDEST PUSH1 0x0 PUSH20 0xFFFFFFFFFFFFFFFFFFFFFFFFFFFFFFFFFFFFFFFF DUP3 AND SWAP1 POP SWAP2 SWAP1 POP JUMP JUMPDEST PUSH1 0x0 DUP2 SWAP1 POP SWAP2 SWAP1 POP JUMP JUMPDEST PUSH1 0x0 PUSH4 0xFFFFFFFF DUP3 AND SWAP1 POP SWAP2 SWAP1 POP JUMP JUMPDEST PUSH1 0x0 PUSH2 0x3B9A DUP3 PUSH2 0x3BB3 JUMP JUMPDEST SWAP1 POP SWAP2 SWAP1 POP JUMP JUMPDEST PUSH1 0x0 PUSH2 0x3BAC DUP3 PUSH2 0x3B75 JUMP JUMPDEST SWAP1 POP SWAP2 SWAP1 POP JUMP JUMPDEST PUSH1 0x0 PUSH2 0x3BBE DUP3 PUSH2 0x3BC5 JUMP JUMPDEST SWAP1 POP SWAP2 SWAP1 POP JUMP JUMPDEST PUSH1 0x0 PUSH2 0x3BD0 DUP3 PUSH2 0x3B55 JUMP JUMPDEST SWAP1 POP SWAP2 SWAP1 POP JUMP JUMPDEST PUSH1 0x0 JUMPDEST DUP4 DUP2 LT ISZERO PUSH2 0x3BF5 JUMPI DUP1 DUP3 ADD MLOAD DUP2 DUP5 ADD MSTORE PUSH1 0x20 DUP2 ADD SWAP1 POP PUSH2 0x3BDA JUMP JUMPDEST DUP4 DUP2 GT ISZERO PUSH2 0x3C04 JUMPI PUSH1 0x0 DUP5 DUP5 ADD MSTORE JUMPDEST POP POP POP POP JUMP JUMPDEST PUSH2 0x3C13 DUP3 PUSH2 0x3D83 JUMP JUMPDEST DUP2 ADD DUP2 DUP2 LT PUSH8 0xFFFFFFFFFFFFFFFF DUP3 GT OR ISZERO PUSH2 0x3C32 JUMPI PUSH2 0x3C31 PUSH2 0x3D40 JUMP JUMPDEST JUMPDEST DUP1 PUSH1 0x40 MSTORE POP POP POP JUMP JUMPDEST PUSH1 0x0 PUSH2 0x3C46 DUP3 PUSH2 0x3B75 JUMP JUMPDEST SWAP2 POP PUSH32 0xFFFFFFFFFFFFFFFFFFFFFFFFFFFFFFFFFFFFFFFFFFFFFFFFFFFFFFFFFFFFFFFF DUP3 EQ ISZERO PUSH2 0x3C79 JUMPI PUSH2 0x3C78 PUSH2 0x3CB3 JUMP JUMPDEST JUMPDEST PUSH1 0x1 DUP3 ADD SWAP1 POP SWAP2 SWAP1 POP JUMP JUMPDEST PUSH32 0x4E487B7100000000000000000000000000000000000000000000000000000000 PUSH1 0x0 MSTORE PUSH1 0x1 PUSH1 0x4 MSTORE PUSH1 0x24 PUSH1 0x0 REVERT JUMPDEST PUSH32 0x4E487B7100000000000000000000000000000000000000000000000000000000 PUSH1 0x0 MSTORE PUSH1 0x11 PUSH1 0x4 MSTORE PUSH1 0x24 PUSH1 0x0 REVERT JUMPDEST PUSH32 0x4E487B7100000000000000000000000000000000000000000000000000000000 PUSH1 0x0 MSTORE PUSH1 0x12 PUSH1 0x4 MSTORE PUSH1 0x24 PUSH1 0x0 REVERT JUMPDEST PUSH32 0x4E487B7100000000000000000000000000000000000000000000000000000000 PUSH1 0x0 MSTORE PUSH1 0x32 PUSH1 0x4 MSTORE PUSH1 0x24 PUSH1 0x0 REVERT JUMPDEST PUSH32 0x4E487B7100000000000000000000000000000000000000000000000000000000 PUSH1 0x0 MSTORE PUSH1 0x41 PUSH1 0x4 MSTORE PUSH1 0x24 PUSH1 0x0 REVERT JUMPDEST PUSH1 0x0 DUP1 REVERT JUMPDEST PUSH1 0x0 DUP1 REVERT JUMPDEST PUSH1 0x0 DUP1 REVERT JUMPDEST PUSH1 0x0 DUP1 REVERT JUMPDEST PUSH1 0x0 PUSH1 0x1F NOT PUSH1 0x1F DUP4 ADD AND SWAP1 POP SWAP2 SWAP1 POP JUMP JUMPDEST PUSH32 0x44796F733A20496E636F6D70617469626C65206C697175696469747920706169 PUSH1 0x0 DUP3 ADD MSTORE PUSH32 0x7220666163746F72790000000000000000000000000000000000000000000000 PUSH1 0x20 DUP3 ADD MSTORE POP JUMP JUMPDEST PUSH32 0x44796F733A20496E7369676E69666963616E7420696E70757420616D6F756E74 PUSH1 0x0 DUP3 ADD MSTORE POP JUMP JUMPDEST PUSH32 0x42656566793A20455448207472616E73666572206661696C6564000000000000 PUSH1 0x0 DUP3 ADD MSTORE POP JUMP JUMPDEST PUSH32 0x44796F733A20496E70757420746F6B656E206E6F742070726573656E7420696E PUSH1 0x0 DUP3 ADD MSTORE PUSH32 0x206C697175646974792070616972000000000000000000000000000000000000 PUSH1 0x20 DUP3 ADD MSTORE POP JUMP JUMPDEST PUSH32 0x556E69737761705632526F757465723A20494E53554646494349454E545F425F PUSH1 0x0 DUP3 ADD MSTORE PUSH32 0x414D4F554E540000000000000000000000000000000000000000000000000000 PUSH1 0x20 DUP3 ADD MSTORE POP JUMP JUMPDEST PUSH32 0x416464726573733A20696E73756666696369656E742062616C616E636520666F PUSH1 0x0 DUP3 ADD MSTORE PUSH32 0x722063616C6C0000000000000000000000000000000000000000000000000000 PUSH1 0x20 DUP3 ADD MSTORE POP JUMP JUMPDEST PUSH32 0x44796F733A20496E70757420746F6B656E206973206E6F7420617070726F7665 PUSH1 0x0 DUP3 ADD MSTORE PUSH32 0x6400000000000000000000000000000000000000000000000000000000000000 PUSH1 0x20 DUP3 ADD MSTORE POP JUMP JUMPDEST PUSH32 0x44796F733A204C6971756964697479207061697220726573657276657320746F PUSH1 0x0 DUP3 ADD MSTORE PUSH32 0x6F206C6F77000000000000000000000000000000000000000000000000000000 PUSH1 0x20 DUP3 ADD MSTORE POP JUMP JUMPDEST PUSH32 0x44796F733A20574554482061646472657373206E6F74206D61746368696E6720 PUSH1 0x0 DUP3 ADD MSTORE PUSH32 0x526F757465722E57455448282900000000000000000000000000000000000000 PUSH1 0x20 DUP3 ADD MSTORE POP JUMP JUMPDEST PUSH32 0x416464726573733A2063616C6C20746F206E6F6E2D636F6E7472616374000000 PUSH1 0x0 DUP3 ADD MSTORE POP JUMP JUMPDEST PUSH32 0x556E69737761705632526F757465723A20494E53554646494349454E545F415F PUSH1 0x0 DUP3 ADD MSTORE PUSH32 0x414D4F554E540000000000000000000000000000000000000000000000000000 PUSH1 0x20 DUP3 ADD MSTORE POP JUMP JUMPDEST PUSH32 0x5361666545524332303A204552433230206F7065726174696F6E20646964206E PUSH1 0x0 DUP3 ADD MSTORE PUSH32 0x6F74207375636365656400000000000000000000000000000000000000000000 PUSH1 0x20 DUP3 ADD MSTORE POP JUMP JUMPDEST PUSH32 0x5361666545524332303A20617070726F76652066726F6D206E6F6E2D7A65726F PUSH1 0x0 DUP3 ADD MSTORE PUSH32 0x20746F206E6F6E2D7A65726F20616C6C6F77616E636500000000000000000000 PUSH1 0x20 DUP3 ADD MSTORE POP JUMP JUMPDEST PUSH32 0x44796F733A206465736972656420746F6B656E206E6F742070726573656E7420 PUSH1 0x0 DUP3 ADD MSTORE PUSH32 0x696E206C69717564697479207061697200000000000000000000000000000000 PUSH1 0x20 DUP3 ADD MSTORE POP JUMP JUMPDEST PUSH2 0x417D DUP2 PUSH2 0x3B1D JUMP JUMPDEST DUP2 EQ PUSH2 0x4188 JUMPI PUSH1 0x0 DUP1 REVERT JUMPDEST POP JUMP JUMPDEST PUSH2 0x4194 DUP2 PUSH2 0x3B2F JUMP JUMPDEST DUP2 EQ PUSH2 0x419F JUMPI PUSH1 0x0 DUP1 REVERT JUMPDEST POP JUMP JUMPDEST PUSH2 0x41AB DUP2 PUSH2 0x3B3B JUMP JUMPDEST DUP2 EQ PUSH2 0x41B6 JUMPI PUSH1 0x0 DUP1 REVERT JUMPDEST POP JUMP JUMPDEST PUSH2 0x41C2 DUP2 PUSH2 0x3B75 JUMP JUMPDEST DUP2 EQ PUSH2 0x41CD JUMPI PUSH1 0x0 DUP1 REVERT JUMPDEST POP JUMP JUMPDEST PUSH2 0x41D9 DUP2 PUSH2 0x3B7F JUMP JUMPDEST DUP2 EQ PUSH2 0x41E4 JUMPI PUSH1 0x0 DUP1 REVERT JUMPDEST POP JUMP INVALID LOG2 PUSH5 0x6970667358 0x22 SLT KECCAK256 0xE2 GAS 0xA9 0xC4 0x1E CALLDATALOAD PUSH16 0x65EC330E827C2D9E8D7AFEFE4E542BDE RETURN 0xC4 0x2B EQ 0xC9 ISZERO JUMP STATICCALL SMOD PUSH5 0x736F6C6343 STOP ADDMOD SMOD STOP CALLER "
				},
				"gasEstimates": {
					"creation": {
						"codeDepositCost": "3385000",
						"executionCost": "infinite",
						"totalCost": "infinite"
					},
					"external": {
						"WETH()": "infinite",
						"checkWETH()": "infinite",
						"estimateSwap(address,address,uint256)": "infinite",
						"fee()": "373",
						"minimumAmount()": "329",
						"router()": "infinite",
						"zapIn(address,uint256,address,uint256)": "infinite",
						"zapInETH(address,uint256)": "infinite",
						"zapOut(address,uint256)": "infinite",
						"zapOutAndSwap(address,uint256,address,uint256)": "infinite"
					},
					"internal": {
						"_approveTokenIfNeeded(address,address)": "infinite",
						"_getSwapAmount(uint256,uint256,uint256)": "infinite",
						"_getVaultPair(address)": "infinite",
						"_removeLiqudity(address,address)": "infinite",
						"_returnAssets(address[] memory)": "infinite",
						"_swapAndStake(address,uint256,address)": "infinite"
					}
				},
				"methodIdentifiers": {
					"WETH()": "ad5c4648",
					"checkWETH()": "8437fabe",
					"estimateSwap(address,address,uint256)": "3f2f869a",
					"fee()": "ddca3f43",
					"minimumAmount()": "bb0c8298",
					"router()": "f887ea40",
					"zapIn(address,uint256,address,uint256)": "72f8b6cd",
					"zapInETH(address,uint256)": "7db9b1f4",
					"zapOut(address,uint256)": "d9139f63",
					"zapOutAndSwap(address,uint256,address,uint256)": "f3cc669a"
				}
			},
			"storageLayout": {
				"storage": [],
				"types": null
			},
			"userdoc": {
				"kind": "user",
				"methods": {},
				"version": 1
			}
		}
	}
}